00100000         2115139610001160024778820014       01897X0000000092096 FUNDACAO AGENCIA DAS BACIAS HIBANCO DO BRASIL                         21912202402005200588503000000829973081PROCESSAMEN                                                 
00100011T0100020 20115139610001160024778820014       01897X0000000092096 FUNDACAO AGENCIA DAS BACIAS HI                                                                                000000001912202400000000  000000000                      
0010001300001T 0601897X0000000092096 24778822400001989   700000000000198919122024000000102334715001030708000001989                0900000000000010090000000000000000000000000000000000000   000000000000000000000000006        170192477882     
0010001300002U 060000000000000000000000000000000000000000000000000000000000000000001023347150000001023347150000000000000000000000000000001912202420122024            000000000000000                              000                           
0010001300003T 0601897X0000000092096 24778822400001993   700000000000199319122024000000027637755001000566000001993                0900000000000010040000000000000000000000000000000000000   000000000000000000000000034        170192477882     
0010001300004U 060000000000000000000000000000000000000000000000000000000000000000000276377550000000276377550000000000000000000000000000001912202420122024            000000000000000                              000                           
0010001300005T 0601897X0000000092096 24778822400001997   700000000000199719122024000000023915070341000190000001997                0900000000000010100000000000000000000000000000000000000   000000000000000000000000004        170192477882     
0010001300006U 060000000000000000000000000000000000000000000000000000000000000000000239150700000000239150700000000000000000000000000000001912202420122024            000000000000000                              000                           
0010001300007T 0601897X0000000092096 24778822400002001   700000000000200119122024000000017861119104003410000002001                0900000000000010100000000000000000000000000000000000000   000000000000000000000000004        170192477882     
0010001300008U 060000000000000000000000000000000000000000000000000000000000000000000178611190000000178611190000000000000000000000000000001912202420122024            000000000000000                              000                           
0010001300009T 0601897X0000000092096 24778822400002009   700000000000200919122024000000015698576001091227000002009                0900000000000010040000000000000000000000000000000000000   000000000000000000000000034        170192477882     
0010001300010U 060000000000000000000000000000000000000000000000000000000000000000000156985760000000156985760000000000000000000000000000001912202420122024            000000000000000                              000                           
0010001300011T 0601897X0000000092096 24778822400002013   700000000000201319122024000000014052721001004596000002013                0900000000000010040000000000000000000000000000000000000   000000000000000000000000034        170192477882     
0010001300012U 060000000000000000000000000000000000000000000000000000000000000000000140527210000000140527210000000000000000000000000000001912202420122024            000000000000000                              000                           
0010001300013T 0601897X0000000092096 24778822400002021   700000000000202119122024000000009945207001006998000002021                0900000000000010040000000000000000000000000000000000000   000000000000000000000000034        170192477882     
0010001300014U 060000000000000000000000000000000000000000000000000000000000000000000099452070000000099452070000000000000000000000000000001912202420122024            000000000000000                              000                           
0010001300015T 0601897X0000000092096 24778822400002025   700000000000202519122024000000009813361341002320000002025                0900000000000010100000000000000000000000000000000000000   000000000000000000000000004        170192477882     
0010001300016U 060000000000000000000000000000000000000000000000000000000000000000000098133610000000098133610000000000000000000000000000001912202420122024            000000000000000                              000                           
0010001300017T 0601897X0000000092096 24778822400002037   700000000000203719122024000000008100056104019370000002037                0900000000000010100000000000000000000000000000000000000   000000000000000000000000004        170192477882     
0010001300018U 060000000000000000000000000000000000000000000000000000000000000000000081000560000000081000560000000000000000000000000000001912202420122024            000000000000000                              000                           
0010001300019T 0601897X0000000092096 24778822400002041   700000000000204119122024000000007042197104003630000002041                0900000000000010100000000000000000000000000000000000000   000000000000000000000000004        170192477882     
0010001300020U 060000000000000000000000000000000000000000000000000000000000000000000070421970000000070421970000000000000000000000000000001912202420122024            000000000000000                              000                           
0010001300021T 0601897X0000000092096 24778822400002045   700000000000204519122024000000005737816341001360000002045                0900000000000010100000000000000000000000000000000000000   000000000000000000000000004        170192477882     
0010001300022U 060000000000000000000000000000000000000000000000000000000000000000000057378160000000057378160000000000000000000000000000001912202420122024            000000000000000                              000                           
0010001300023T 0601897X0000000092096 24778822400002049   700000000000204919122024000000005336596001020125000002049                0900000000000010040000000000000000000000000000000000000   000000000000000000000000034        170192477882     
0010001300024U 060000000000000000000000000000000000000000000000000000000000000000000053365960000000053365960000000000000000000000000000001912202420122024            000000000000000                              000                           
0010001300025T 0601897X0000000092096 24778822400002053   700000000000205319122024000000004848405033002850000002053                0900000000000010100000000000000000000000000000000000000   000000000000000000000000004        170192477882     
0010001300026U 060000000000000000000000000000000000000000000000000000000000000000000048484050000000048484050000000000000000000000000000001912202420122024            000000000000000                              000                           
0010001300027T 0601897X0000000092096 24778822400002057   700000000000205719122024000000004834469001030708000002057                0900000000000010090000000000000000000000000000000000000   000000000000000000000000006        170192477882     
0010001300028U 060000000000000000000000000000000000000000000000000000000000000000000048344690000000048344690000000000000000000000000000001912202420122024            000000000000000                              000                           
0010001300029T 0601897X0000000092096 24778822400002061   700000000000206119122024000000004729089001030708000002061                0900000000000010090000000000000000000000000000000000000   000000000000000000000000006        170192477882     
0010001300030U 060000000000000000000000000000000000000000000000000000000000000000000047290890000000047290890000000000000000000000000000001912202420122024            000000000000000                              000                           
0010001300031T 0601897X0000000092096 24778822400002065   700000000000206519122024000000004408884104019380000002065                0900000000000010100000000000000000000000000000000000000   000000000000000000000000004        170192477882     
0010001300032U 060000000000000000000000000000000000000000000000000000000000000000000044088840000000044088840000000000000000000000000000001912202420122024            000000000000000                              000                           
0010001300033T 0601897X0000000092096 24778822400002073   700000000000207319122024000000004134134341000080000002073                0900000000000010100000000000000000000000000000000000000   000000000000000000000000004        170192477882     
0010001300034U 060000000000000000000000000000000000000000000000000000000000000000000041341340000000041341340000000000000000000000000000001912202420122024            000000000000000                              000                           
0010001300035T 0601897X0000000092096 24778822400002077   700000000000207719122024000000003937531001019135000002077                0900000000000010040000000000000000000000000000000000000   000000000000000000000000034        170192477882     
0010001300036U 060000000000000000000000000000000000000000000000000000000000000000000039375310000000039375310000000000000000000000000000001912202420122024            000000000000000                              000                           
0010001300037T 0601897X0000000092096 24778822400002081   700000000000208119122024000000003829101033002850000002081                0900000000000010100000000000000000000000000000000000000   000000000000000000000000004        170192477882     
0010001300038U 060000000000000000000000000000000000000000000000000000000000000000000038291010000000038291010000000000000000000000000000001912202420122024            000000000000000                              000                           
0010001300039T 0601897X0000000092096 24778822400002085   700000000000208519122024000000003754126001065544000002085                0900000000000010040000000000000000000000000000000000000   000000000000000000000000034        170192477882     
0010001300040U 060000000000000000000000000000000000000000000000000000000000000000000037541260000000037541260000000000000000000000000000001912202420122024            000000000000000                              000                           
0010001300041T 0601897X0000000092096 24778822400002093   700000000000209319122024000000003363242001026565000002093                0900000000000010040000000000000000000000000000000000000   000000000000000000000000034        170192477882     
0010001300042U 060000000000000000000000000000000000000000000000000000000000000000000033632420000000033632420000000000000000000000000000001912202420122024            000000000000000                              000                           
0010001300043T 0601897X0000000092096 24778822400002101   700000000000210119122024000000003181138001045659000002101                0900000000000010040000000000000000000000000000000000000   000000000000000000000000034        170192477882     
0010001300044U 060000000000000000000000000000000000000000000000000000000000000000000031811380000000031811380000000000000000000000000000001912202420122024            000000000000000                              000                           
0010001300045T 0601897X0000000092096 24778822400002117   700000000000211719122024000000002475456001030708000002117                0900000000000010090000000000000000000000000000000000000   000000000000000000000000006        170192477882     
0010001300046U 060000000000000000000000000000000000000000000000000000000000000000000024754560000000024754560000000000000000000000000000001912202420122024            000000000000000                              000                           
0010001300047T 0601897X0000000092096 24778822400002125   700000000000212519122024000000001869036033020170000002125                0900000000000010100000000000000000000000000000000000000   000000000000000000000000004        170192477882     
0010001300048U 060000000000000000000000000000000000000000000000000000000000000000000018690360000000018690360000000000000000000000000000001912202420122024            000000000000000                              000                           
0010001300049T 0601897X0000000092096 24778822400002137   700000000000213719122024000000001693850274000010000002137                0900000000000010100000000000000000000000000000000000000   000000000000000000000000004        170192477882     
0010001300050U 060000000000000000000000000000000000000000000000000000000000000000000016938500000000016938500000000000000000000000000000001912202420122024            000000000000000                              000                           
0010001300051T 0601897X0000000092096 24778822400002145   70000000000021451912202400000000163896100101916X000002145                0900000000000010040000000000000000000000000000000000000   000000000000000000000000034        170192477882     
0010001300052U 060000000000000000000000000000000000000000000000000000000000000000000016389610000000016389610000000000000000000000000000001912202420122024            000000000000000                              000                           
0010001300053T 0601897X0000000092096 24778822400002149   700000000000214919122024000000001594327001030708000002149                0900000000000010090000000000000000000000000000000000000   000000000000000000000000006        170192477882     
0010001300054U 060000000000000000000000000000000000000000000000000000000000000000000015943270000000015943270000000000000000000000000000001912202420122024            000000000000000                              000                           
0010001300055T 0601897X0000000092096 24778822400002153   700000000000215319122024000000001562720001030708000002153                0900000000000010090000000000000000000000000000000000000   000000000000000000000000006        170192477882     
0010001300056U 060000000000000000000000000000000000000000000000000000000000000000000015627200000000015627200000000000000000000000000000001912202420122024            000000000000000                              000                           
0010001300057T 0601897X0000000092096 24778822400002157   700000000000215719122024000000001466248001004561000002157                0900000000000010040000000000000000000000000000000000000   000000000000000000000000034        170192477882     
0010001300058U 060000000000000000000000000000000000000000000000000000000000000000000014662480000000014662480000000000000000000000000000001912202420122024            000000000000000                              000                           
0010001300059T 0601897X0000000092096 24778822400002161   700000000000216119122024000000001386046001030708000002161                0900000000000010090000000000000000000000000000000000000   000000000000000000000000006        170192477882     
0010001300060U 060000000000000000000000000000000000000000000000000000000000000000000013860460000000013860460000000000000000000000000000001912202420122024            000000000000000                              000                           
0010001300061T 0601897X0000000092096 24778822400002165   700000000000216519122024000000001326931001030708000002165                0900000000000010090000000000000000000000000000000000000   000000000000000000000000006        170192477882     
0010001300062U 060000000000000000000000000000000000000000000000000000000000000000000013269310000000013269310000000000000000000000000000001912202420122024            000000000000000                              000                           
0010001300063T 0601897X0000000092096 24778822400002173   700000000000217319122024000000001247088237023740000002173                0900000000000010100000000000000000000000000000000000000   000000000000000000000000004        170192477882     
0010001300064U 060000000000000000000000000000000000000000000000000000000000000000000012470880000000012470880000000000000000000000000000001912202420122024            000000000000000                              000                           
0010001300065T 0601897X0000000092096 24778822400002181   700000000000218119122024000000001082972033033160000002181                0900000000000010100000000000000000000000000000000000000   000000000000000000000000004        170192477882     
0010001300066U 060000000000000000000000000000000000000000000000000000000000000000000010829720000000010829720000000000000000000000000000001912202420122024            000000000000000                              000                           
0010001300067T 0601897X0000000092096 24778822400002185   700000000000218519122024000000001064105001030708000002185                0900000000000010090000000000000000000000000000000000000   000000000000000000000000006        170192477882     
0010001300068U 060000000000000000000000000000000000000000000000000000000000000000000010641050000000010641050000000000000000000000000000001912202420122024            000000000000000                              000                           
0010001300069T 0601897X0000000092096 24778822400002189   700000000000218919122024000000001037395001030708000002189                0900000000000010090000000000000000000000000000000000000   000000000000000000000000006        170192477882     
0010001300070U 060000000000000000000000000000000000000000000000000000000000000000000010373950000000010373950000000000000000000000000000001912202420122024            000000000000000                              000                           
0010001300071T 0601897X0000000092096 24778822400002197   700000000000219719122024000000000923628001030708000002197                0900000000000010090000000000000000000000000000000000000   000000000000000000000000006        170192477882     
0010001300072U 060000000000000000000000000000000000000000000000000000000000000000000009236280000000009236280000000000000000000000000000001912202420122024            000000000000000                              000                           
0010001300073T 0601897X0000000092096 24778822400002209   70000000000022091912202400000000084382700104587X000002209                0900000000000010040000000000000000000000000000000000000   000000000000000000000000034        170192477882     
0010001300074U 060000000000000000000000000000000000000000000000000000000000000000000008438270000000008438270000000000000000000000000000001912202420122024            000000000000000                              000                           
0010001300075T 0601897X0000000092096 24778822400002213   700000000000221319122024000000000827625001030708000002213                0900000000000010090000000000000000000000000000000000000   000000000000000000000000006        170192477882     
0010001300076U 060000000000000000000000000000000000000000000000000000000000000000000008276250000000008276250000000000000000000000000000001912202420122024            000000000000000                              000                           
0010001300077T 0601897X0000000092096 24778822400002217   700000000000221719122024000000000815114001051152000002217                0900000000000010040000000000000000000000000000000000000   000000000000000000000000034        170192477882     
0010001300078U 060000000000000000000000000000000000000000000000000000000000000000000008151140000000008151140000000000000000000000000000001912202420122024            000000000000000                              000                           
0010001300079T 0601897X0000000092096 24778822400002225   700000000000222519122024000000000806723001030708000002225                0900000000000010090000000000000000000000000000000000000   000000000000000000000000006        170192477882     
0010001300080U 060000000000000000000000000000000000000000000000000000000000000000000008067230000000008067230000000000000000000000000000001912202420122024            000000000000000                              000                           
0010001300081T 0601897X0000000092096 24778822400002229   700000000000222919122024000000000753574341000140000002229                0900000000000010100000000000000000000000000000000000000   000000000000000000000000004        170192477882     
0010001300082U 060000000000000000000000000000000000000000000000000000000000000000000007535740000000007535740000000000000000000000000000001912202420122024            000000000000000                              000                           
0010001300083T 0601897X0000000092096 24778822400002233   700000000000223319122024000000000731743341009120000002233                0900000000000010100000000000000000000000000000000000000   000000000000000000000000004        170192477882     
0010001300084U 060000000000000000000000000000000000000000000000000000000000000000000007317430000000007317430000000000000000000000000000001912202420122024            000000000000000                              000                           
0010001300085T 0601897X0000000092096 24778822400002237   700000000000223719122024000000000718886422000420000002237                0900000000000010100000000000000000000000000000000000000   000000000000000000000000004        170192477882     
0010001300086U 060000000000000000000000000000000000000000000000000000000000000000000007188860000000007188860000000000000000000000000000001912202420122024            000000000000000                              000                           
0010001300087T 0601897X0000000092096 24778822400002241   700000000000224119122024000000000662989341080310000002241                0900000000000010100000000000000000000000000000000000000   000000000000000000000000004        170192477882     
0010001300088U 060000000000000000000000000000000000000000000000000000000000000000000006629890000000006629890000000000000000000000000000001912202420122024            000000000000000                              000                           
0010001300089T 0601897X0000000092096 24778822400002249   700000000000224919122024000000000640987033030640000002249                0900000000000010100000000000000000000000000000000000000   000000000000000000000000004        170192477882     
0010001300090U 060000000000000000000000000000000000000000000000000000000000000000000006409870000000006409870000000000000000000000000000001912202420122024            000000000000000                              000                           
0010001300091T 0601897X0000000092096 24778822400002253   700000000000225319122024000000000606719341000540000002253                0900000000000010100000000000000000000000000000000000000   000000000000000000000000004        170192477882     
0010001300092U 060000000000000000000000000000000000000000000000000000000000000000000006067190000000006067190000000000000000000000000000001912202420122024            000000000000000                              000                           
0010001300093T 0601897X0000000092096 24778822400002257   700000000000225719122024000000000587903001030708000002257                0900000000000010090000000000000000000000000000000000000   000000000000000000000000006        170192477882     
0010001300094U 060000000000000000000000000000000000000000000000000000000000000000000005879030000000005879030000000000000000000000000000001912202420122024            000000000000000                              000                           
0010001300095T 0601897X0000000092096 24778822400002261   70000000000022611912202400000000058571700101916X000002261                0900000000000010040000000000000000000000000000000000000   000000000000000000000000034        170192477882     
0010001300096U 060000000000000000000000000000000000000000000000000000000000000000000005857170000000005857170000000000000000000000000000001912202420122024            000000000000000                              000                           
0010001300097T 0601897X0000000092096 24778822400002265   700000000000226519122024000000000583448341009120000002265                0900000000000010100000000000000000000000000000000000000   000000000000000000000000004        170192477882     
0010001300098U 060000000000000000000000000000000000000000000000000000000000000000000005834480000000005834480000000000000000000000000000001912202420122024            000000000000000                              000                           
0010001300099T 0601897X0000000092096 24778822400002273   700000000000227319122024000000000568282001030708000002273                0900000000000010090000000000000000000000000000000000000   000000000000000000000000006        170192477882     
0010001300100U 060000000000000000000000000000000000000000000000000000000000000000000005682820000000005682820000000000000000000000000000001912202420122024            000000000000000                              000                           
0010001300101T 0601897X0000000092096 24778822400002277   700000000000227719122024000000000561481237023720000002277                0900000000000010100000000000000000000000000000000000000   000000000000000000000000004        170192477882     
0010001300102U 060000000000000000000000000000000000000000000000000000000000000000000005614810000000005614810000000000000000000000000000001912202420122024            000000000000000                              000                           
0010001300103T 0601897X0000000092096 24778822400002289   700000000000228919122024000000000516636756077960000002289                0900000000000010100000000000000000000000000000000000000   000000000000000000000000004        170192477882     
0010001300104U 060000000000000000000000000000000000000000000000000000000000000000000005166360000000005166360000000000000000000000000000001912202420122024            000000000000000                              000                           
0010001300105T 0601897X0000000092096 24778822400002293   700000000000229319122024000000000513335341000170000002293                0900000000000010100000000000000000000000000000000000000   000000000000000000000000004        170192477882     
0010001300106U 060000000000000000000000000000000000000000000000000000000000000000000005133350000000005133350000000000000000000000000000001912202420122024            000000000000000                              000                           
0010001300107T 0601897X0000000092096 24778822400002301   700000000000230119122024000000000499044237033980000002301                0900000000000010100000000000000000000000000000000000000   000000000000000000000000004        170192477882     
0010001300108U 060000000000000000000000000000000000000000000000000000000000000000000004990440000000004990440000000000000000000000000000001912202420122024            000000000000000                              000                           
0010001300109T 0601897X0000000092096 24778822400002309   700000000000230919122024000000000492657341000500000002309                0900000000000010100000000000000000000000000000000000000   000000000000000000000000004        170192477882     
0010001300110U 060000000000000000000000000000000000000000000000000000000000000000000004926570000000004926570000000000000000000000000000001912202420122024            000000000000000                              000                           
0010001300111T 0601897X0000000092096 24778822400002313   700000000000231319122024000000000491848033002070000002313                0900000000000010100000000000000000000000000000000000000   000000000000000000000000004        170192477882     
0010001300112U 060000000000000000000000000000000000000000000000000000000000000000000004918480000000004918480000000000000000000000000000001912202420122024            000000000000000                              000                           
0010001300113T 0601897X0000000092096 24778822400002321   700000000000232119122024000000000480869001030708000002321                0900000000000010090000000000000000000000000000000000000   000000000000000000000000006        170192477882     
0010001300114U 060000000000000000000000000000000000000000000000000000000000000000000004808690000000004808690000000000000000000000000000001912202420122024            000000000000000                              000                           
0010001300115T 0601897X0000000092096 24778822400002325   700000000000232519122024000000000450911001030708000002325                0900000000000010090000000000000000000000000000000000000   000000000000000000000000006        170192477882     
0010001300116U 060000000000000000000000000000000000000000000000000000000000000000000004509110000000004509110000000000000000000000000000001912202420122024            000000000000000                              000                           
0010001300117T 0601897X0000000092096 24778822400002345   700000000000234519122024000000000431764237005200000002345                0900000000000010100000000000000000000000000000000000000   000000000000000000000000004        170192477882     
0010001300118U 060000000000000000000000000000000000000000000000000000000000000000000004317640000000004317640000000000000000000000000000001912202420122024            000000000000000                              000                           
0010001300119T 0601897X0000000092096 24778822400002349   700000000000234919122024000000000423621001030708000002349                0900000000000010090000000000000000000000000000000000000   000000000000000000000000006        170192477882     
0010001300120U 060000000000000000000000000000000000000000000000000000000000000000000004236210000000004236210000000000000000000000000000001912202420122024            000000000000000                              000                           
0010001300121T 0601897X0000000092096 24778822400002365   700000000000236519122024000000000397961341000680000002365                0900000000000010100000000000000000000000000000000000000   000000000000000000000000004        170192477882     
0010001300122U 060000000000000000000000000000000000000000000000000000000000000000000003979610000000003979610000000000000000000000000000001912202420122024            000000000000000                              000                           
0010001300123T 0601897X0000000092096 24778822400002377   700000000000237719122024000000000391441341040050000002377                0900000000000010100000000000000000000000000000000000000   000000000000000000000000004        170192477882     
0010001300124U 060000000000000000000000000000000000000000000000000000000000000000000003914410000000003914410000000000000000000000000000001912202420122024            000000000000000                              000                           
0010001300125T 0601897X0000000092096 24778822400002381   700000000000238119122024000000000391107033001940000002381                0900000000000010100000000000000000000000000000000000000   000000000000000000000000004        170192477882     
0010001300126U 060000000000000000000000000000000000000000000000000000000000000000000003911070000000003911070000000000000000000000000000001912202420122024            000000000000000                              000                           
0010001300127T 0601897X0000000092096 24778822400002393   700000000000239319122024000000000382182237033710000002393                0900000000000010100000000000000000000000000000000000000   000000000000000000000000004        170192477882     
0010001300128U 060000000000000000000000000000000000000000000000000000000000000000000003821820000000003821820000000000000000000000000000001912202420122024            000000000000000                              000                           
0010001300129T 0601897X0000000092096 24778822400002397   700000000000239719122024000000000381695341016190000002397                0900000000000010100000000000000000000000000000000000000   000000000000000000000000004        170192477882     
0010001300130U 060000000000000000000000000000000000000000000000000000000000000000000003816950000000003816950000000000000000000000000000001912202420122024            000000000000000                              000                           
0010001300131T 0601897X0000000092096 24778822400002409   700000000000240919122024000000000361496077000010000002409                0900000000000010100000000000000000000000000000000000000   000000000000000000000000004        170192477882     
0010001300132U 060000000000000000000000000000000000000000000000000000000000000000000003614960000000003614960000000000000000000000000000001912202420122024            000000000000000                              000                           
0010001300133T 0601897X0000000092096 24778822400002413   700000000000241319122024000000000361128748053690000002413                0900000000000010100000000000000000000000000000000000000   000000000000000000000000004        170192477882     
0010001300134U 060000000000000000000000000000000000000000000000000000000000000000000003611280000000003611280000000000000000000000000000001912202420122024            000000000000000                              000                           
0010001300135T 0601897X0000000092096 24778822400002417   700000000000241719122024000000000352234341076490000002417                0900000000000010100000000000000000000000000000000000000   000000000000000000000000004        170192477882     
0010001300136U 060000000000000000000000000000000000000000000000000000000000000000000003522340000000003522340000000000000000000000000000001912202420122024            000000000000000                              000                           
0010001300137T 0601897X0000000092096 24778822400002421   700000000000242119122024000000000349475001051152000002421                0900000000000010040000000000000000000000000000000000000   000000000000000000000000034        170192477882     
0010001300138U 060000000000000000000000000000000000000000000000000000000000000000000003494750000000003494750000000000000000000000000000001912202420122024            000000000000000                              000                           
0010001300139T 0601897X0000000092096 24778822400002425   700000000000242519122024000000000345229237005200000002425                0900000000000010100000000000000000000000000000000000000   000000000000000000000000004        170192477882     
0010001300140U 060000000000000000000000000000000000000000000000000000000000000000000003452290000000003452290000000000000000000000000000001912202420122024            000000000000000                              000                           
0010001300141T 0601897X0000000092096 24778822400002429   700000000000242919122024000000000343219001033626000002429                0900000000000010040000000000000000000000000000000000000   000000000000000000000000034        170192477882     
0010001300142U 060000000000000000000000000000000000000000000000000000000000000000000003432190000000003432190000000000000000000000000000001912202420122024            000000000000000                              000                           
0010001300143T 0601897X0000000092096 24778822400002433   700000000000243319122024000000000342445001031496000002433                0900000000000010090000000000000000000000000000000000000   000000000000000000000000006        170192477882     
0010001300144U 060000000000000000000000000000000000000000000000000000000000000000000003424450000000003424450000000000000000000000000000001912202420122024            000000000000000                              000                           
0010001300145T 0601897X0000000092096 24778822400002457   700000000000245719122024000000000323507341005600000002457                0900000000000010100000000000000000000000000000000000000   000000000000000000000000004        170192477882     
0010001300146U 060000000000000000000000000000000000000000000000000000000000000000000003235070000000003235070000000000000000000000000000001912202420122024            000000000000000                              000                           
0010001300147T 0601897X0000000092096 24778822400002461   700000000000246119122024000000000322399033033160000002461                0900000000000010100000000000000000000000000000000000000   000000000000000000000000004        170192477882     
0010001300148U 060000000000000000000000000000000000000000000000000000000000000000000003223990000000003223990000000000000000000000000000001912202420122024            000000000000000                              000                           
0010001300149T 0601897X0000000092096 24778822400002465   700000000000246519122024000000000322173341007310000002465                0900000000000010100000000000000000000000000000000000000   000000000000000000000000004        170192477882     
0010001300150U 060000000000000000000000000000000000000000000000000000000000000000000003221730000000003221730000000000000000000000000000001912202420122024            000000000000000                              000                           
0010001300151T 0601897X0000000092096 24778822400002469   700000000000246919122024000000000320863001030708000002469                0900000000000010090000000000000000000000000000000000000   000000000000000000000000006        170192477882     
0010001300152U 060000000000000000000000000000000000000000000000000000000000000000000003208630000000003208630000000000000000000000000000001912202420122024            000000000000000                              000                           
0010001300153T 0601897X0000000092096 24778822400002477   700000000000247719122024000000000316720341009100000002477                0900000000000010100000000000000000000000000000000000000   000000000000000000000000004        170192477882     
0010001300154U 060000000000000000000000000000000000000000000000000000000000000000000003167200000000003167200000000000000000000000000000001912202420122024            000000000000000                              000                           
0010001300155T 0601897X0000000092096 24778822400002493   700000000000249319122024000000000300606341000550000002493                0900000000000010100000000000000000000000000000000000000   000000000000000000000000004        170192477882     
0010001300156U 060000000000000000000000000000000000000000000000000000000000000000000003006060000000003006060000000000000000000000000000001912202420122024            000000000000000                              000                           
0010001300157T 0601897X0000000092096 24778822400002497   700000000000249719122024000000000296426237033930000002497                0900000000000010100000000000000000000000000000000000000   000000000000000000000000004        170192477882     
0010001300158U 060000000000000000000000000000000000000000000000000000000000000000000002964260000000002964260000000000000000000000000000001912202420122024            000000000000000                              000                           
0010001300159T 0601897X0000000092096 24778822400002505   700000000000250519122024000000000293786033048780000002505                0900000000000010100000000000000000000000000000000000000   000000000000000000000000004        170192477882     
0010001300160U 060000000000000000000000000000000000000000000000000000000000000000000002937860000000002937860000000000000000000000000000001912202420122024            000000000000000                              000                           
0010001300161T 0601897X0000000092096 24778822400002509   700000000000250919122024000000000292767341037650000002509                0900000000000010100000000000000000000000000000000000000   000000000000000000000000004        170192477882     
0010001300162U 060000000000000000000000000000000000000000000000000000000000000000000002927670000000002927670000000000000000000000000000001912202420122024            000000000000000                              000                           
0010001300163T 0601897X0000000092096 24778822400002513   700000000000251319122024000000000288636341005600000002513                0900000000000010100000000000000000000000000000000000000   000000000000000000000000004        170192477882     
0010001300164U 060000000000000000000000000000000000000000000000000000000000000000000002886360000000002886360000000000000000000000000000001912202420122024            000000000000000                              000                           
0010001300165T 0601897X0000000092096 24778822400002521   700000000000252119122024000000000285746001033626000002521                0900000000000010040000000000000000000000000000000000000   000000000000000000000000034        170192477882     
0010001300166U 060000000000000000000000000000000000000000000000000000000000000000000002857460000000002857460000000000000000000000000000001912202420122024            000000000000000                              000                           
0010001300167T 0601897X0000000092096 24778822400002525   700000000000252519122024000000000276932422000510000002525                0900000000000010100000000000000000000000000000000000000   000000000000000000000000004        170192477882     
0010001300168U 060000000000000000000000000000000000000000000000000000000000000000000002769320000000002769320000000000000000000000000000001912202420122024            000000000000000                              000                           
0010001300169T 0601897X0000000092096 24778822400002541   700000000000254119122024000000000266807237033670000002541                0900000000000010100000000000000000000000000000000000000   000000000000000000000000004        170192477882     
0010001300170U 060000000000000000000000000000000000000000000000000000000000000000000002668070000000002668070000000000000000000000000000001912202420122024            000000000000000                              000                           
0010001300171T 0601897X0000000092096 24778822400002549   700000000000254919122024000000000257903001030708000002549                0900000000000010090000000000000000000000000000000000000   000000000000000000000000006        170192477882     
0010001300172U 060000000000000000000000000000000000000000000000000000000000000000000002579030000000002579030000000000000000000000000000001912202420122024            000000000000000                              000                           
0010001300173T 0601897X0000000092096 24778822400002553   700000000000255319122024000000000253672341006120000002553                0900000000000010100000000000000000000000000000000000000   000000000000000000000000004        170192477882     
0010001300174U 060000000000000000000000000000000000000000000000000000000000000000000002536720000000002536720000000000000000000000000000001912202420122024            000000000000000                              000                           
0010001300175T 0601897X0000000092096 24778822400002561   700000000000256119122024000000000249602001024279000002561                0900000000000010040000000000000000000000000000000000000   000000000000000000000000034        170192477882     
0010001300176U 060000000000000000000000000000000000000000000000000000000000000000000002496020000000002496020000000000000000000000000000001912202420122024            000000000000000                              000                           
0010001300177T 0601897X0000000092096 24778822400002577   700000000000257719122024000000000242455341040050000002577                0900000000000010100000000000000000000000000000000000000   000000000000000000000000004        170192477882     
0010001300178U 060000000000000000000000000000000000000000000000000000000000000000000002424550000000002424550000000000000000000000000000001912202420122024            000000000000000                              000                           
0010001300179T 0601897X0000000092096 24778822400002597   700000000000259719122024000000000234213341031000000002597                0900000000000010100000000000000000000000000000000000000   000000000000000000000000004        170192477882     
0010001300180U 060000000000000000000000000000000000000000000000000000000000000000000002342130000000002342130000000000000000000000000000001912202420122024            000000000000000                              000                           
0010001300181T 0601897X0000000092096 24778822400002601   700000000000260119122024000000000233573033021620000002601                0900000000000010100000000000000000000000000000000000000   000000000000000000000000004        170192477882     
0010001300182U 060000000000000000000000000000000000000000000000000000000000000000000002335730000000002335730000000000000000000000000000001912202420122024            000000000000000                              000                           
0010001300183T 0601897X0000000092096 24778822400002609   700000000000260919122024000000000231453001066249000002609                0900000000000010040000000000000000000000000000000000000   000000000000000000000000034        170192477882     
0010001300184U 060000000000000000000000000000000000000000000000000000000000000000000002314530000000002314530000000000000000000000000000001912202420122024            000000000000000                              000                           
0010001300185T 0601897X0000000092096 24778822400002613   700000000000261319122024000000000226096237001340000002613                0900000000000010100000000000000000000000000000000000000   000000000000000000000000004        170192477882     
0010001300186U 060000000000000000000000000000000000000000000000000000000000000000000002260960000000002260960000000000000000000000000000001912202420122024            000000000000000                              000                           
0010001300187T 0601897X0000000092096 24778822400002617   700000000000261719122024000000000224096033015660000002617                0900000000000010100000000000000000000000000000000000000   000000000000000000000000004        170192477882     
0010001300188U 060000000000000000000000000000000000000000000000000000000000000000000002240960000000002240960000000000000000000000000000001912202420122024            000000000000000                              000                           
0010001300189T 0601897X0000000092096 24778822400002629   700000000000262919122024000000000219257341001360000002629                0900000000000010100000000000000000000000000000000000000   000000000000000000000000004        170192477882     
0010001300190U 060000000000000000000000000000000000000000000000000000000000000000000002192570000000002192570000000000000000000000000000001912202420122024            000000000000000                              000                           
0010001300191T 0601897X0000000092096 24778822400002633   700000000000263319122024000000000218501341000090000002633                0900000000000010100000000000000000000000000000000000000   000000000000000000000000004        170192477882     
0010001300192U 060000000000000000000000000000000000000000000000000000000000000000000002185010000000002185010000000000000000000000000000001912202420122024            000000000000000                              000                           
0010001300193T 0601897X0000000092096 24778822400002645   700000000000264519122024000000000214604237019360000002645                0900000000000010100000000000000000000000000000000000000   000000000000000000000000004        170192477882     
0010001300194U 060000000000000000000000000000000000000000000000000000000000000000000002146040000000002146040000000000000000000000000000001912202420122024            000000000000000                              000                           
0010001300195T 0601897X0000000092096 24778822400002653   700000000000265319122024000000000210966001019135000002653                0900000000000010040000000000000000000000000000000000000   000000000000000000000000034        170192477882     
0010001300196U 060000000000000000000000000000000000000000000000000000000000000000000002109660000000002109660000000000000000000000000000001912202420122024            000000000000000                              000                           
0010001300197T 0601897X0000000092096 24778822400002657   700000000000265719122024000000000208235341029640000002657                0900000000000010100000000000000000000000000000000000000   000000000000000000000000004        170192477882     
0010001300198U 060000000000000000000000000000000000000000000000000000000000000000000002082350000000002082350000000000000000000000000000001912202420122024            000000000000000                              000                           
0010001300199T 0601897X0000000092096 24778822400002665   700000000000266519122024000000000207425341031000000002665                0900000000000010100000000000000000000000000000000000000   000000000000000000000000004        170192477882     
0010001300200U 060000000000000000000000000000000000000000000000000000000000000000000002074250000000002074250000000000000000000000000000001912202420122024            000000000000000                              000                           
0010001300201T 0601897X0000000092096 24778822400002669   700000000000266919122024000000000206386001030708000002669                0900000000000010090000000000000000000000000000000000000   000000000000000000000000006        170192477882     
0010001300202U 060000000000000000000000000000000000000000000000000000000000000000000002063860000000002063860000000000000000000000000000001912202420122024            000000000000000                              000                           
0010001300203T 0601897X0000000092096 24778822400002677   700000000000267719122024000000000205848033000100000002677                0900000000000010100000000000000000000000000000000000000   000000000000000000000000004        170192477882     
0010001300204U 060000000000000000000000000000000000000000000000000000000000000000000002058480000000002058480000000000000000000000000000001912202420122024            000000000000000                              000                           
0010001300205T 0601897X0000000092096 24778822400002693   700000000000269319122024000000000201457341032630000002693                0900000000000010100000000000000000000000000000000000000   000000000000000000000000004        170192477882     
0010001300206U 060000000000000000000000000000000000000000000000000000000000000000000002014570000000002014570000000000000000000000000000001912202420122024            000000000000000                              000                           
0010001300207T 0601897X0000000092096 24778822400002701   700000000000270119122024000000000200458001030813000002701                0900000000000010090000000000000000000000000000000000000   000000000000000000000000006        170192477882     
0010001300208U 060000000000000000000000000000000000000000000000000000000000000000000002004580000000002004580000000000000000000000000000001912202420122024            000000000000000                              000                           
0010001300209T 0601897X0000000092096 24778822400002705   700000000000270519122024000000000199423104003340000002705                0900000000000010100000000000000000000000000000000000000   000000000000000000000000004        170192477882     
0010001300210U 060000000000000000000000000000000000000000000000000000000000000000000001994230000000001994230000000000000000000000000000001912202420122024            000000000000000                              000                           
0010001300211T 0601897X0000000092096 24778822400002709   700000000000270919122024000000000197969341013700000002709                0900000000000010100000000000000000000000000000000000000   000000000000000000000000004        170192477882     
0010001300212U 060000000000000000000000000000000000000000000000000000000000000000000001979690000000001979690000000000000000000000000000001912202420122024            000000000000000                              000                           
0010001300213T 0601897X0000000092096 24778822400002725   700000000000272519122024000000000190298341073720000002725                0900000000000010100000000000000000000000000000000000000   000000000000000000000000004        170192477882     
0010001300214U 060000000000000000000000000000000000000000000000000000000000000000000001902980000000001902980000000000000000000000000000001912202420122024            000000000000000                              000                           
0010001300215T 0601897X0000000092096 24778822400002733   700000000000273319122024000000000189521341000280000002733                0900000000000010100000000000000000000000000000000000000   000000000000000000000000004        170192477882     
0010001300216U 060000000000000000000000000000000000000000000000000000000000000000000001895210000000001895210000000000000000000000000000001912202420122024            000000000000000                              000                           
0010001300217T 0601897X0000000092096 24778822400002737   700000000000273719122024000000000184260341000560000002737                0900000000000010100000000000000000000000000000000000000   000000000000000000000000004        170192477882     
0010001300218U 060000000000000000000000000000000000000000000000000000000000000000000001842600000000001842600000000000000000000000000000001912202420122024            000000000000000                              000                           
0010001300219T 0601897X0000000092096 24778822400002741   700000000000274119122024000000000182979341091830000002741                0900000000000010100000000000000000000000000000000000000   000000000000000000000000004        170192477882     
0010001300220U 060000000000000000000000000000000000000000000000000000000000000000000001829790000000001829790000000000000000000000000000001912202420122024            000000000000000                              000                           
0010001300221T 0601897X0000000092096 24778822400002753   700000000000275319122024000000000182533341016190000002753                0900000000000010100000000000000000000000000000000000000   000000000000000000000000004        170192477882     
0010001300222U 060000000000000000000000000000000000000000000000000000000000000000000001825330000000001825330000000000000000000000000000001912202420122024            000000000000000                              000                           
0010001300223T 0601897X0000000092096 24778822400002757   700000000000275719122024000000000181223341048360000002757                0900000000000010100000000000000000000000000000000000000   000000000000000000000000004        170192477882     
0010001300224U 060000000000000000000000000000000000000000000000000000000000000000000001812230000000001812230000000000000000000000000000001912202420122024            000000000000000                              000                           
0010001300225T 0601897X0000000092096 24778822400002761   700000000000276119122024000000000179934341004450000002761                0900000000000010100000000000000000000000000000000000000   000000000000000000000000004        170192477882     
0010001300226U 060000000000000000000000000000000000000000000000000000000000000000000001799340000000001799340000000000000000000000000000001912202420122024            000000000000000                              000                           
0010001300227T 0601897X0000000092096 24778822400002765   700000000000276519122024000000000179202341003780000002765                0900000000000010100000000000000000000000000000000000000   000000000000000000000000004        170192477882     
0010001300228U 060000000000000000000000000000000000000000000000000000000000000000000001792020000000001792020000000000000000000000000000001912202420122024            000000000000000                              000                           
0010001300229T 0601897X0000000092096 24778822400002769   700000000000276919122024000000000177633341000500000002769                0900000000000010100000000000000000000000000000000000000   000000000000000000000000004        170192477882     
0010001300230U 060000000000000000000000000000000000000000000000000000000000000000000001776330000000001776330000000000000000000000000000001912202420122024            000000000000000                              000                           
0010001300231T 0601897X0000000092096 24778822400002781   700000000000278119122024000000000173467755013060000002781                0900000000000010100000000000000000000000000000000000000   000000000000000000000000004        170192477882     
0010001300232U 060000000000000000000000000000000000000000000000000000000000000000000001734670000000001734670000000000000000000000000000001912202420122024            000000000000000                              000                           
0010001300233T 0601897X0000000092096 24778822400002789   700000000000278919122024000000000170461341000280000002789                0900000000000010100000000000000000000000000000000000000   000000000000000000000000004        170192477882     
0010001300234U 060000000000000000000000000000000000000000000000000000000000000000000001704610000000001704610000000000000000000000000000001912202420122024            000000000000000                              000                           
0010001300235T 0601897X0000000092096 24778822400002793   700000000000279319122024000000000169073001034002000002793                0900000000000010040000000000000000000000000000000000000   000000000000000000000000034        170192477882     
0010001300236U 060000000000000000000000000000000000000000000000000000000000000000000001690730000000001690730000000000000000000000000000001912202420122024            000000000000000                              000                           
0010001300237T 0601897X0000000092096 24778822400002805   700000000000280519122024000000000166948341040050000002805                0900000000000010100000000000000000000000000000000000000   000000000000000000000000004        170192477882     
0010001300238U 060000000000000000000000000000000000000000000000000000000000000000000001669480000000001669480000000000000000000000000000001912202420122024            000000000000000                              000                           
0010001300239T 0601897X0000000092096 24778822400002813   700000000000281319122024000000000163134341002790000002813                0900000000000010100000000000000000000000000000000000000   000000000000000000000000004        170192477882     
0010001300240U 060000000000000000000000000000000000000000000000000000000000000000000001631340000000001631340000000000000000000000000000001912202420122024            000000000000000                              000                           
0010001300241T 0601897X0000000092096 24778822400002821   700000000000282119122024000000000162822756005030000002821                0900000000000010100000000000000000000000000000000000000   000000000000000000000000004        170192477882     
0010001300242U 060000000000000000000000000000000000000000000000000000000000000000000001628220000000001628220000000000000000000000000000001912202420122024            000000000000000                              000                           
0010001300243T 0601897X0000000092096 24778822400002825   700000000000282519122024000000000162556450000010000002825                0900000000000010100000000000000000000000000000000000000   000000000000000000000000004        170192477882     
0010001300244U 060000000000000000000000000000000000000000000000000000000000000000000001625560000000001625560000000000000000000000000000001912202420122024            000000000000000                              000                           
0010001300245T 0601897X0000000092096 24778822400002833   700000000000283319122024000000000162313341000500000002833                0900000000000010100000000000000000000000000000000000000   000000000000000000000000004        170192477882     
0010001300246U 060000000000000000000000000000000000000000000000000000000000000000000001623130000000001623130000000000000000000000000000001912202420122024            000000000000000                              000                           
0010001300247T 0601897X0000000092096 24778822400002837   700000000000283719122024000000000162177341086800000002837                0900000000000010100000000000000000000000000000000000000   000000000000000000000000004        170192477882     
0010001300248U 060000000000000000000000000000000000000000000000000000000000000000000001621770000000001621770000000000000000000000000000001912202420122024            000000000000000                              000                           
0010001300249T 0601897X0000000092096 24778822400002841   700000000000284119122024000000000159279001033626000002841                0900000000000010040000000000000000000000000000000000000   000000000000000000000000034        170192477882     
0010001300250U 060000000000000000000000000000000000000000000000000000000000000000000001592790000000001592790000000000000000000000000000001912202420122024            000000000000000                              000                           
0010001300251T 0601897X0000000092096 24778822400002849   700000000000284919122024000000000156264341001490000002849                0900000000000010100000000000000000000000000000000000000   000000000000000000000000004        170192477882     
0010001300252U 060000000000000000000000000000000000000000000000000000000000000000000001562640000000001562640000000000000000000000000000001912202420122024            000000000000000                              000                           
0010001300253T 0601897X0000000092096 24778822400002857   700000000000285719122024000000000153991001031496000002857                0900000000000010090000000000000000000000000000000000000   000000000000000000000000006        170192477882     
0010001300254U 060000000000000000000000000000000000000000000000000000000000000000000001539910000000001539910000000000000000000000000000001912202420122024            000000000000000                              000                           
0010001300255T 0601897X0000000092096 24778822400002861   700000000000286119122024000000000153102341000780000002861                0900000000000010100000000000000000000000000000000000000   000000000000000000000000004        170192477882     
0010001300256U 060000000000000000000000000000000000000000000000000000000000000000000001531020000000001531020000000000000000000000000000001912202420122024            000000000000000                              000                           
0010001300257T 0601897X0000000092096 24778822400002877   700000000000287719122024000000000149311748053610000002877                0900000000000010100000000000000000000000000000000000000   000000000000000000000000004        170192477882     
0010001300258U 060000000000000000000000000000000000000000000000000000000000000000000001493110000000001493110000000000000000000000000000001912202420122024            000000000000000                              000                           
0010001300259T 0601897X0000000092096 24778822400002881   700000000000288119122024000000000149172422000030000002881                0900000000000010100000000000000000000000000000000000000   000000000000000000000000004        170192477882     
0010001300260U 060000000000000000000000000000000000000000000000000000000000000000000001491720000000001491720000000000000000000000000000001912202420122024            000000000000000                              000                           
0010001300261T 0601897X0000000092096 24778822400002885   700000000000288519122024000000000148579756075860000002885                0900000000000010100000000000000000000000000000000000000   000000000000000000000000004        170192477882     
0010001300262U 060000000000000000000000000000000000000000000000000000000000000000000001485790000000001485790000000000000000000000000000001912202420122024            000000000000000                              000                           
0010001300263T 0601897X0000000092096 24778822400002889   700000000000288919122024000000000148506001031496000002889                0900000000000010040000000000000000000000000000000000000   000000000000000000000000034        170192477882     
0010001300264U 060000000000000000000000000000000000000000000000000000000000000000000001485060000000001485060000000000000000000000000000001912202420122024            000000000000000                              000                           
0010001300265T 0601897X0000000092096 24778822400002897   700000000000289719122024000000000147988341002570000002897                0900000000000010100000000000000000000000000000000000000   000000000000000000000000004        170192477882     
0010001300266U 060000000000000000000000000000000000000000000000000000000000000000000001479880000000001479880000000000000000000000000000001912202420122024            000000000000000                              000                           
0010001300267T 0601897X0000000092096 24778822400002909   700000000000290919122024000000000146384341001690000002909                0900000000000010100000000000000000000000000000000000000   000000000000000000000000004        170192477882     
0010001300268U 060000000000000000000000000000000000000000000000000000000000000000000001463840000000001463840000000000000000000000000000001912202420122024            000000000000000                              000                           
0010001300269T 0601897X0000000092096 24778822400002921   700000000000292119122024000000000146383033031830000002921                0900000000000010100000000000000000000000000000000000000   000000000000000000000000004        170192477882     
0010001300270U 060000000000000000000000000000000000000000000000000000000000000000000001463830000000001463830000000000000000000000000000001912202420122024            000000000000000                              000                           
0010001300271T 0601897X0000000092096 24778822400002949   700000000000294919122024000000000142628001026565000002949                0900000000000010040000000000000000000000000000000000000   000000000000000000000000034        170192477882     
0010001300272U 060000000000000000000000000000000000000000000000000000000000000000000001426280000000001426280000000000000000000000000000001912202420122024            000000000000000                              000                           
0010001300273T 0601897X0000000092096 24778822400002953   700000000000295319122024000000000140272237033710000002953                0900000000000010100000000000000000000000000000000000000   000000000000000000000000004        170192477882     
0010001300274U 060000000000000000000000000000000000000000000000000000000000000000000001402720000000001402720000000000000000000000000000001912202420122024            000000000000000                              000                           
0010001300275T 0601897X0000000092096 24778822400002957   700000000000295719122024000000000140163341086800000002957                0900000000000010100000000000000000000000000000000000000   000000000000000000000000004        170192477882     
0010001300276U 060000000000000000000000000000000000000000000000000000000000000000000001401630000000001401630000000000000000000000000000001912202420122024            000000000000000                              000                           
0010001300277T 0601897X0000000092096 24778822400002961   700000000000296119122024000000000139430237033930000002961                0900000000000010100000000000000000000000000000000000000   000000000000000000000000004        170192477882     
0010001300278U 060000000000000000000000000000000000000000000000000000000000000000000001394300000000001394300000000000000000000000000000001912202420122024            000000000000000                              000                           
0010001300279T 0601897X0000000092096 24778822400002965   700000000000296519122024000000000139020341029990000002965                0900000000000010100000000000000000000000000000000000000   000000000000000000000000004        170192477882     
0010001300280U 060000000000000000000000000000000000000000000000000000000000000000000001390200000000001390200000000000000000000000000000001912202420122024            000000000000000                              000                           
0010001300281T 0601897X0000000092096 24778822400002969   700000000000296919122024000000000137195237019700000002969                0900000000000010100000000000000000000000000000000000000   000000000000000000000000004        170192477882     
0010001300282U 060000000000000000000000000000000000000000000000000000000000000000000001371950000000001371950000000000000000000000000000001912202420122024            000000000000000                              000                           
0010001300283T 0601897X0000000092096 24778822400002973   700000000000297319122024000000000132898341001690000002973                0900000000000010100000000000000000000000000000000000000   000000000000000000000000004        170192477882     
0010001300284U 060000000000000000000000000000000000000000000000000000000000000000000001328980000000001328980000000000000000000000000000001912202420122024            000000000000000                              000                           
0010001300285T 0601897X0000000092096 24778822400002989   700000000000298919122024000000000131745237008920000002989                0900000000000010100000000000000000000000000000000000000   000000000000000000000000004        170192477882     
0010001300286U 060000000000000000000000000000000000000000000000000000000000000000000001317450000000001317450000000000000000000000000000001912202420122024            000000000000000                              000                           
0010001300287T 0601897X0000000092096 24778822400002997   700000000000299719122024000000000131571748055540000002997                0900000000000010100000000000000000000000000000000000000   000000000000000000000000004        170192477882     
0010001300288U 060000000000000000000000000000000000000000000000000000000000000000000001315710000000001315710000000000000000000000000000001912202420122024            000000000000000                              000                           
0010001300289T 0601897X0000000092096 24778822400003001   700000000000300119122024000000000131439033003350000003001                0900000000000010100000000000000000000000000000000000000   000000000000000000000000004        170192477882     
0010001300290U 060000000000000000000000000000000000000000000000000000000000000000000001314390000000001314390000000000000000000000000000001912202420122024            000000000000000                              000                           
0010001300291T 0601897X0000000092096 24778822400003017   700000000000301719122024000000000130383237005200000003017                0900000000000010100000000000000000000000000000000000000   000000000000000000000000004        170192477882     
0010001300292U 060000000000000000000000000000000000000000000000000000000000000000000001303830000000001303830000000000000000000000000000001912202420122024            000000000000000                              000                           
0010001300293T 0601897X0000000092096 24778822400003021   700000000000302119122024000000000129403001031496000003021                0900000000000010060000000000000000000000000000000000000   000000000000000000000000033        170192477882     
0010001300294U 060000000000000000000000000000000000000000000000000000000000000000000001294030000000001294030000000000000000000000000000001912202420122024            000000000000000                              000                           
0010001300295T 0601897X0000000092096 24778822400003025   700000000000302519122024000000000128787033038850000003025                0900000000000010100000000000000000000000000000000000000   000000000000000000000000004        170192477882     
0010001300296U 060000000000000000000000000000000000000000000000000000000000000000000001287870000000001287870000000000000000000000000000001912202420122024            000000000000000                              000                           
0010001300297T 0601897X0000000092096 24778822400003033   700000000000303319122024000000000128343341078830000003033                0900000000000010100000000000000000000000000000000000000   000000000000000000000000004        170192477882     
0010001300298U 060000000000000000000000000000000000000000000000000000000000000000000001283430000000001283430000000000000000000000000000001912202420122024            000000000000000                              000                           
0010001300299T 0601897X0000000092096 24778822400003049   700000000000304919122024000000000127105341027310000003049                0900000000000010100000000000000000000000000000000000000   000000000000000000000000004        170192477882     
0010001300300U 060000000000000000000000000000000000000000000000000000000000000000000001271050000000001271050000000000000000000000000000001912202420122024            000000000000000                              000                           
0010001300301T 0601897X0000000092096 24778822400003057   700000000000305719122024000000000126246341002770000003057                0900000000000010100000000000000000000000000000000000000   000000000000000000000000004        170192477882     
0010001300302U 060000000000000000000000000000000000000000000000000000000000000000000001262460000000001262460000000000000000000000000000001912202420122024            000000000000000                              000                           
0010001300303T 0601897X0000000092096 24778822400003065   700000000000306519122024000000000125131341009100000003065                0900000000000010100000000000000000000000000000000000000   000000000000000000000000004        170192477882     
0010001300304U 060000000000000000000000000000000000000000000000000000000000000000000001251310000000001251310000000000000000000000000000001912202420122024            000000000000000                              000                           
0010001300305T 0601897X0000000092096 24778822400003069   700000000000306919122024000000000124740237033670000003069                0900000000000010100000000000000000000000000000000000000   000000000000000000000000004        170192477882     
0010001300306U 060000000000000000000000000000000000000000000000000000000000000000000001247400000000001247400000000000000000000000000000001912202420122024            000000000000000                              000                           
0010001300307T 0601897X0000000092096 24778822400003073   700000000000307319122024000000000124426341000140000003073                0900000000000010100000000000000000000000000000000000000   000000000000000000000000004        170192477882     
0010001300308U 060000000000000000000000000000000000000000000000000000000000000000000001244260000000001244260000000000000000000000000000001912202420122024            000000000000000                              000                           
0010001300309T 0601897X0000000092096 24778822400003077   700000000000307719122024000000000124014033047420000003077                0900000000000010100000000000000000000000000000000000000   000000000000000000000000004        170192477882     
0010001300310U 060000000000000000000000000000000000000000000000000000000000000000000001240140000000001240140000000000000000000000000000001912202420122024            000000000000000                              000                           
0010001300311T 0601897X0000000092096 24778822400003081   700000000000308119122024000000000123328756075860000003081                0900000000000010100000000000000000000000000000000000000   000000000000000000000000004        170192477882     
0010001300312U 060000000000000000000000000000000000000000000000000000000000000000000001233280000000001233280000000000000000000000000000001912202420122024            000000000000000                              000                           
0010001300313T 0601897X0000000092096 24778822400003085   700000000000308519122024000000000122958341053960000003085                0900000000000010100000000000000000000000000000000000000   000000000000000000000000004        170192477882     
0010001300314U 060000000000000000000000000000000000000000000000000000000000000000000001229580000000001229580000000000000000000000000000001912202420122024            000000000000000                              000                           
0010001300315T 0601897X0000000092096 24778822400003105   700000000000310519122024000000000119304341004660000003105                0900000000000010100000000000000000000000000000000000000   000000000000000000000000004        170192477882     
0010001300316U 060000000000000000000000000000000000000000000000000000000000000000000001193040000000001193040000000000000000000000000000001912202420122024            000000000000000                              000                           
0010001300317T 0601897X0000000092096 24778822400003117   700000000000311719122024000000000118615237001870000003117                0900000000000010100000000000000000000000000000000000000   000000000000000000000000004        170192477882     
0010001300318U 060000000000000000000000000000000000000000000000000000000000000000000001186150000000001186150000000000000000000000000000001912202420122024            000000000000000                              000                           
0010001300319T 0601897X0000000092096 24778822400003121   700000000000312119122024000000000117107748077570000003121                0900000000000010100000000000000000000000000000000000000   000000000000000000000000004        170192477882     
0010001300320U 060000000000000000000000000000000000000000000000000000000000000000000001171070000000001171070000000000000000000000000000001912202420122024            000000000000000                              000                           
0010001300321T 0601897X0000000092096 24778822400003129   700000000000312919122024000000000116946237004020000003129                0900000000000010100000000000000000000000000000000000000   000000000000000000000000004        170192477882     
0010001300322U 060000000000000000000000000000000000000000000000000000000000000000000001169460000000001169460000000000000000000000000000001912202420122024            000000000000000                              000                           
0010001300323T 0601897X0000000092096 24778822400003145   700000000000314519122024000000000113447033012320000003145                0900000000000010100000000000000000000000000000000000000   000000000000000000000000004        170192477882     
0010001300324U 060000000000000000000000000000000000000000000000000000000000000000000001134470000000001134470000000000000000000000000000001912202420122024            000000000000000                              000                           
0010001300325T 0601897X0000000092096 24778822400003153   700000000000315319122024000000000112534341000280000003153                0900000000000010100000000000000000000000000000000000000   000000000000000000000000004        170192477882     
0010001300326U 060000000000000000000000000000000000000000000000000000000000000000000001125340000000001125340000000000000000000000000000001912202420122024            000000000000000                              000                           
0010001300327T 0601897X0000000092096 24778822400003165   700000000000316519122024000000000112326237020020000003165                0900000000000010100000000000000000000000000000000000000   000000000000000000000000004        170192477882     
0010001300328U 060000000000000000000000000000000000000000000000000000000000000000000001123260000000001123260000000000000000000000000000001912202420122024            000000000000000                              000                           
0010001300329T 0601897X0000000092096 24778822400003177   700000000000317719122024000000000111865422000510000003177                0900000000000010100000000000000000000000000000000000000   000000000000000000000000004        170192477882     
0010001300330U 060000000000000000000000000000000000000000000000000000000000000000000001118650000000001118650000000000000000000000000000001912202420122024            000000000000000                              000                           
0010001300331T 0601897X0000000092096 24778822400003181   70000000000031811912202400000000011140300101897X000003181                0900000000000010090000000000000000000000000000000000000   000000000000000000000000006        170192477882     
0010001300332U 060000000000000000000000000000000000000000000000000000000000000000000001114030000000001114030000000000000000000000000000001912202420122024            000000000000000                              000                           
0010001300333T 0601897X0000000092096 24778822400003189   700000000000318919122024000000000111027341000550000003189                0900000000000010100000000000000000000000000000000000000   000000000000000000000000004        170192477882     
0010001300334U 060000000000000000000000000000000000000000000000000000000000000000000001110270000000001110270000000000000000000000000000001912202420122024            000000000000000                              000                           
0010001300335T 0601897X0000000092096 24778822400003193   700000000000319319122024000000000110651341080460000003193                0900000000000010100000000000000000000000000000000000000   000000000000000000000000004        170192477882     
0010001300336U 060000000000000000000000000000000000000000000000000000000000000000000001106510000000001106510000000000000000000000000000001912202420122024            000000000000000                              000                           
0010001300337T 0601897X0000000092096 24778822400003209   700000000000320919122024000000000109788237033710000003209                0900000000000010100000000000000000000000000000000000000   000000000000000000000000004        170192477882     
0010001300338U 060000000000000000000000000000000000000000000000000000000000000000000001097880000000001097880000000000000000000000000000001912202420122024            000000000000000                              000                           
0010001300339T 0601897X0000000092096 24778822400003221   700000000000322119122024000000000108785001030708000003221                0900000000000010090000000000000000000000000000000000000   000000000000000000000000006        170192477882     
0010001300340U 060000000000000000000000000000000000000000000000000000000000000000000001087850000000001087850000000000000000000000000000001912202420122024            000000000000000                              000                           
0010001300341T 0601897X0000000092096 24778822400003225   700000000000322519122024000000000108134033037440000003225                0900000000000010100000000000000000000000000000000000000   000000000000000000000000004        170192477882     
0010001300342U 060000000000000000000000000000000000000000000000000000000000000000000001081340000000001081340000000000000000000000000000001912202420122024            000000000000000                              000                           
0010001300343T 0601897X0000000092096 24778822400003233   700000000000323319122024000000000107592341000280000003233                0900000000000010100000000000000000000000000000000000000   000000000000000000000000004        170192477882     
0010001300344U 060000000000000000000000000000000000000000000000000000000000000000000001075920000000001075920000000000000000000000000000001912202420122024            000000000000000                              000                           
0010001300345T 0601897X0000000092096 24778822400003241   700000000000324119122024000000000107089341007340000003241                0900000000000010100000000000000000000000000000000000000   000000000000000000000000004        170192477882     
0010001300346U 060000000000000000000000000000000000000000000000000000000000000000000001070890000000001070890000000000000000000000000000001912202420122024            000000000000000                              000                           
0010001300347T 0601897X0000000092096 24778822400003257   700000000000325719122024000000000105396341073820000003257                0900000000000010100000000000000000000000000000000000000   000000000000000000000000004        170192477882     
0010001300348U 060000000000000000000000000000000000000000000000000000000000000000000001053960000000001053960000000000000000000000000000001912202420122024            000000000000000                              000                           
0010001300349T 0601897X0000000092096 24778822400003261   700000000000326119122024000000000104775341069680000003261                0900000000000010100000000000000000000000000000000000000   000000000000000000000000004        170192477882     
0010001300350U 060000000000000000000000000000000000000000000000000000000000000000000001047750000000001047750000000000000000000000000000001912202420122024            000000000000000                              000                           
0010001300351T 0601897X0000000092096 24778822400003285   70000000000032851912202400000000010268900103360X000003285                0900000000000010040000000000000000000000000000000000000   000000000000000000000000034        170192477882     
0010001300352U 060000000000000000000000000000000000000000000000000000000000000000000001026890000000001026890000000000000000000000000000001912202420122024            000000000000000                              000                           
0010001300353T 0601897X0000000092096 24778822400003293   700000000000329319122024000000000102468237033910000003293                0900000000000010100000000000000000000000000000000000000   000000000000000000000000004        170192477882     
0010001300354U 060000000000000000000000000000000000000000000000000000000000000000000001024680000000001024680000000000000000000000000000001912202420122024            000000000000000                              000                           
0010001300355T 0601897X0000000092096 24778822400003297   700000000000329719122024000000000100309341000190000003297                0900000000000010100000000000000000000000000000000000000   000000000000000000000000004        170192477882     
0010001300356U 060000000000000000000000000000000000000000000000000000000000000000000001003090000000001003090000000000000000000000000000001912202420122024            000000000000000                              000                           
0010001300357T 0601897X0000000092096 24778822400003317   700000000000331719122024000000000096320341001620000003317                0900000000000010100000000000000000000000000000000000000   000000000000000000000000004        170192477882     
0010001300358U 060000000000000000000000000000000000000000000000000000000000000000000000963200000000000963200000000000000000000000000000001912202420122024            000000000000000                              000                           
0010001300359T 0601897X0000000092096 24778822400003325   700000000000332519122024000000000095149341001360000003325                0900000000000010100000000000000000000000000000000000000   000000000000000000000000004        170192477882     
0010001300360U 060000000000000000000000000000000000000000000000000000000000000000000000951490000000000951490000000000000000000000000000001912202420122024            000000000000000                              000                           
0010001300361T 0601897X0000000092096 24778822400003329   700000000000332919122024000000000095149237003060000003329                0900000000000010100000000000000000000000000000000000000   000000000000000000000000004        170192477882     
0010001300362U 060000000000000000000000000000000000000000000000000000000000000000000000951490000000000951490000000000000000000000000000001912202420122024            000000000000000                              000                           
0010001300363T 0601897X0000000092096 24778822400003337   700000000000333719122024000000000094356341087290000003337                0900000000000010100000000000000000000000000000000000000   000000000000000000000000004        170192477882     
0010001300364U 060000000000000000000000000000000000000000000000000000000000000000000000943560000000000943560000000000000000000000000000001912202420122024            000000000000000                              000                           
0010001300365T 0601897X0000000092096 24778822400003341   700000000000334119122024000000000092689341005600000003341                0900000000000010100000000000000000000000000000000000000   000000000000000000000000004        170192477882     
0010001300366U 060000000000000000000000000000000000000000000000000000000000000000000000926890000000000926890000000000000000000000000000001912202420122024            000000000000000                              000                           
0010001300367T 0601897X0000000092096 24778822400003345   700000000000334519122024000000000091691748052790000003345                0900000000000010100000000000000000000000000000000000000   000000000000000000000000004        170192477882     
0010001300368U 060000000000000000000000000000000000000000000000000000000000000000000000916910000000000916910000000000000000000000000000001912202420122024            000000000000000                              000                           
0010001300369T 0601897X0000000092096 24778822400003349   700000000000334919122024000000000091492341009100000003349                0900000000000010100000000000000000000000000000000000000   000000000000000000000000004        170192477882     
0010001300370U 060000000000000000000000000000000000000000000000000000000000000000000000914920000000000914920000000000000000000000000000001912202420122024            000000000000000                              000                           
0010001300371T 0601897X0000000092096 24778822400003357   700000000000335719122024000000000090986033044140000003357                0900000000000010100000000000000000000000000000000000000   000000000000000000000000004        170192477882     
0010001300372U 060000000000000000000000000000000000000000000000000000000000000000000000909860000000000909860000000000000000000000000000001912202420122024            000000000000000                              000                           
0010001300373T 0601897X0000000092096 24778822400003361   700000000000336119122024000000000090977341000190000003361                0900000000000010100000000000000000000000000000000000000   000000000000000000000000004        170192477882     
0010001300374U 060000000000000000000000000000000000000000000000000000000000000000000000909770000000000909770000000000000000000000000000001912202420122024            000000000000000                              000                           
0010001300375T 0601897X0000000092096 24778822400003369   70000000000033691912202400000000009056900101513X000003369                0900000000000010040000000000000000000000000000000000000   000000000000000000000000034        170192477882     
0010001300376U 060000000000000000000000000000000000000000000000000000000000000000000000905690000000000905690000000000000000000000000000001912202420122024            000000000000000                              000                           
0010001300377T 0601897X0000000092096 24778822400003373   700000000000337319122024000000000090500237033930000003373                0900000000000010100000000000000000000000000000000000000   000000000000000000000000004        170192477882     
0010001300378U 060000000000000000000000000000000000000000000000000000000000000000000000905000000000000905000000000000000000000000000000001912202420122024            000000000000000                              000                           
0010001300379T 0601897X0000000092096 24778822400003377   700000000000337719122024000000000090256237003930000003377                0900000000000010100000000000000000000000000000000000000   000000000000000000000000004        170192477882     
0010001300380U 060000000000000000000000000000000000000000000000000000000000000000000000902560000000000902560000000000000000000000000000001912202420122024            000000000000000                              000                           
0010001300381T 0601897X0000000092096 24778822400003381   700000000000338119122024000000000089087001026565000003381                0900000000000010040000000000000000000000000000000000000   000000000000000000000000034        170192477882     
0010001300382U 060000000000000000000000000000000000000000000000000000000000000000000000890870000000000890870000000000000000000000000000001912202420122024            000000000000000                              000                           
0010001300383T 0601897X0000000092096 24778822400003385   700000000000338519122024000000000088846341059320000003385                0900000000000010100000000000000000000000000000000000000   000000000000000000000000004        170192477882     
0010001300384U 060000000000000000000000000000000000000000000000000000000000000000000000888460000000000888460000000000000000000000000000001912202420122024            000000000000000                              000                           
0010001300385T 0601897X0000000092096 24778822400003393   700000000000339319122024000000000087830341060660000003393                0900000000000010100000000000000000000000000000000000000   000000000000000000000000004        170192477882     
0010001300386U 060000000000000000000000000000000000000000000000000000000000000000000000878300000000000878300000000000000000000000000000001912202420122024            000000000000000                              000                           
0010001300387T 0601897X0000000092096 24778822400003397   700000000000339719122024000000000087830341005600000003397                0900000000000010100000000000000000000000000000000000000   000000000000000000000000004        170192477882     
0010001300388U 060000000000000000000000000000000000000000000000000000000000000000000000878300000000000878300000000000000000000000000000001912202420122024            000000000000000                              000                           
0010001300389T 0601897X0000000092096 24778822400003405   700000000000340519122024000000000087830001031496000003405                0900000000000010040000000000000000000000000000000000000   000000000000000000000000034        170192477882     
0010001300390U 060000000000000000000000000000000000000000000000000000000000000000000000878300000000000878300000000000000000000000000000001912202420122024            000000000000000                              000                           
0010001300391T 0601897X0000000092096 24778822400003417   700000000000341719122024000000000087830001066249000003417                0900000000000010040000000000000000000000000000000000000   000000000000000000000000034        170192477882     
0010001300392U 060000000000000000000000000000000000000000000000000000000000000000000000878300000000000878300000000000000000000000000000001912202420122024            000000000000000                              000                           
0010001300393T 0601897X0000000092096 24778822400003425   700000000000342519122024000000000087537341009120000003425                0900000000000010100000000000000000000000000000000000000   000000000000000000000000004        170192477882     
0010001300394U 060000000000000000000000000000000000000000000000000000000000000000000000875370000000000875370000000000000000000000000000001912202420122024            000000000000000                              000                           
0010001300395T 0601897X0000000092096 24778822400003429   700000000000342919122024000000000086952341015630000003429                0900000000000010100000000000000000000000000000000000000   000000000000000000000000004        170192477882     
0010001300396U 060000000000000000000000000000000000000000000000000000000000000000000000869520000000000869520000000000000000000000000000001912202420122024            000000000000000                              000                           
0010001300397T 0601897X0000000092096 24778822400003433   700000000000343319122024000000000086405341000020000003433                0900000000000010100000000000000000000000000000000000000   000000000000000000000000004        170192477882     
0010001300398U 060000000000000000000000000000000000000000000000000000000000000000000000864050000000000864050000000000000000000000000000001912202420122024            000000000000000                              000                           
0010001300399T 0601897X0000000092096 24778822400003437   700000000000343719122024000000000086230001007994000003437                0900000000000010040000000000000000000000000000000000000   000000000000000000000000034        170192477882     
0010001300400U 060000000000000000000000000000000000000000000000000000000000000000000000862300000000000862300000000000000000000000000000001912202420122024            000000000000000                              000                           
0010001300401T 0601897X0000000092096 24778822400003441   700000000000344119122024000000000085634341069220000003441                0900000000000010100000000000000000000000000000000000000   000000000000000000000000004        170192477882     
0010001300402U 060000000000000000000000000000000000000000000000000000000000000000000000856340000000000856340000000000000000000000000000001912202420122024            000000000000000                              000                           
0010001300403T 0601897X0000000092096 24778822400003453   700000000000345319122024000000000084170341001360000003453                0900000000000010100000000000000000000000000000000000000   000000000000000000000000004        170192477882     
0010001300404U 060000000000000000000000000000000000000000000000000000000000000000000000841700000000000841700000000000000000000000000000001912202420122024            000000000000000                              000                           
0010001300405T 0601897X0000000092096 24778822400003461   700000000000346119122024000000000083567376000010000003461                0900000000000010100000000000000000000000000000000000000   000000000000000000000000004        170192477882     
0010001300406U 060000000000000000000000000000000000000000000000000000000000000000000000835670000000000835670000000000000000000000000000001912202420122024            000000000000000                              000                           
0010001300407T 0601897X0000000092096 24778822400003465   700000000000346519122024000000000083345001030813000003465                0900000000000010040000000000000000000000000000000000000   000000000000000000000000034        170192477882     
0010001300408U 060000000000000000000000000000000000000000000000000000000000000000000000833450000000000833450000000000000000000000000000001912202420122024            000000000000000                              000                           
0010001300409T 0601897X0000000092096 24778822400003469   700000000000346919122024000000000083256341004250000003469                0900000000000010100000000000000000000000000000000000000   000000000000000000000000004        170192477882     
0010001300410U 060000000000000000000000000000000000000000000000000000000000000000000000832560000000000832560000000000000000000000000000001912202420122024            000000000000000                              000                           
0010001300411T 0601897X0000000092096 24778822400003477   700000000000347719122024000000000082341509000010000003477                0900000000000010100000000000000000000000000000000000000   000000000000000000000000004        170192477882     
0010001300412U 060000000000000000000000000000000000000000000000000000000000000000000000823410000000000823410000000000000000000000000000001912202420122024            000000000000000                              000                           
