00100000         2115139610001160024778820014       01897X0000000092096 FUNDACAO AGENCIA DAS BACIAS HIBANCO DO BRASIL                         22911202402050800585703000000829973081PROCESSAMEN                                                 
00100011T0100020 20115139610001160024778820014       01897X0000000092096 FUNDACAO AGENCIA DAS BACIAS HI                                                                                000000002911202400000000  000000000                      
0010001300001T 0601897X0000000092096 24778822400001517   700000000000151729112024000000000026425341007570000001517                0900000000000010100000000000000000000000000000000000000   000000000000000000000000004        170192477882     
0010001300002U 060000000000000000000000000000000000000000000000000000000000000000000000264250000000000264250000000000000000000000000000002911202402122024            000000000000000                              000                           
0010001300003T 0601897X0000000092096 24778822400001520   700000000000152029112024000000000026423001030813000001520                0900000000000010040000000000000000000000000000000000000   000000000000000000000000034        170192477882     
0010001300004U 060000000000000000000000000000000000000000000000000000000000000000000000264230000000000264230000000000000000000000000000002911202402122024            000000000000000                              000                           
0010001300005T 0601897X0000000092096 24778822400001529   700000000000152929112024000000000026180341001360000001529                0900000000000010100000000000000000000000000000000000000   000000000000000000000000004        170192477882     
0010001300006U 060000000000000000000000000000000000000000000000000000000000000000000000261800000000000261800000000000000000000000000000002911202402122024            000000000000000                              000                           
0010001300007T 0601897X0000000092096 24778822400001535   700000000000153529112024000000000025993341006800000001535                0900000000000010100000000000000000000000000000000000000   000000000000000000000000004        170192477882     
0010001300008U 060000000000000000000000000000000000000000000000000000000000000000000000259930000000000259930000000000000000000000000000002911202402122024            000000000000000                              000                           
0010001300009T 0601897X0000000092096 24778822400001550   700000000000155029112024000000000025695341000190000001550                0900000000000010100000000000000000000000000000000000000   000000000000000000000000004        170192477882     
0010001300010U 060000000000000000000000000000000000000000000000000000000000000000000000256950000000000256950000000000000000000000000000002911202402122024            000000000000000                              000                           
0010001300011T 0601897X0000000092096 24778822400001559   700000000000155929112024000000000025529237023720000001559                0900000000000010100000000000000000000000000000000000000   000000000000000000000000004        170192477882     
0010001300012U 060000000000000000000000000000000000000000000000000000000000000000000000255290000000000255290000000000000000000000000000002911202402122024            000000000000000                              000                           
0010001300013T 0601897X0000000092096 24778822400001565   700000000000156529112024000000000025423341029480000001565                0900000000000010100000000000000000000000000000000000000   000000000000000000000000004        170192477882     
0010001300014U 060000000000000000000000000000000000000000000000000000000000000000000000254230000000000254230000000000000000000000000000002911202402122024            000000000000000                              000                           
0010001300015T 0601897X0000000092096 24778822400001571   700000000000157129112024000000000025373341078900000001571                0900000000000010100000000000000000000000000000000000000   000000000000000000000000004        170192477882     
0010001300016U 060000000000000000000000000000000000000000000000000000000000000000000000253730000000000253730000000000000000000000000000002911202402122024            000000000000000                              000                           
0010001300017T 0601897X0000000092096 24778822400001589   700000000000158929112024000000000024885341002790000001589                0900000000000010100000000000000000000000000000000000000   000000000000000000000000004        170192477882     
0010001300018U 060000000000000000000000000000000000000000000000000000000000000000000000248850000000000248850000000000000000000000000000002911202402122024            000000000000000                              000                           
0010001300019T 0601897X0000000092096 24778822400001613   700000000000161329112024000000000024397237008400000001613                0900000000000010100000000000000000000000000000000000000   000000000000000000000000004        170192477882     
0010001300020U 060000000000000000000000000000000000000000000000000000000000000000000000243970000000000243970000000000000000000000000000002911202402122024            000000000000000                              000                           
0010001300021T 0601897X0000000092096 24778822400001616   700000000000161629112024000000000024397341054410000001616                0900000000000010100000000000000000000000000000000000000   000000000000000000000000004        170192477882     
0010001300022U 060000000000000000000000000000000000000000000000000000000000000000000000243970000000000243970000000000000000000000000000002911202402122024            000000000000000                              000                           
0010001300023T 0601897X0000000092096 24778822400001619   700000000000161929112024000000000024397341000270000001619                0900000000000010100000000000000000000000000000000000000   000000000000000000000000004        170192477882     
0010001300024U 060000000000000000000000000000000000000000000000000000000000000000000000243970000000000243970000000000000000000000000000002911202402122024            000000000000000                              000                           
0010001300025T 0601897X0000000092096 24778822400001621   700000000000162131102024000000000024397033001490000001621                0900000000000010100000000000000000000000000000000000000   000000000000000000000000004        170192477882     
0010001300026U 060000000000007220000000000000000000000000000000000000000000000000000000251190000000000251190000000000000000000000000000002911202402122024            000000000000000                              000                           
0010001300027T 0601897X0000000092096 24778822400001622   700000000000162229112024000000000024397033001490000001622                0900000000000010100000000000000000000000000000000000000   000000000000000000000000004        170192477882     
0010001300028U 060000000000000000000000000000000000000000000000000000000000000000000000243970000000000243970000000000000000000000000000002911202402122024            000000000000000                              000                           
0010001300029T 0601897X0000000092096 24778822400001631   700000000000163129112024000000000024397450000010000001631                0900000000000010100000000000000000000000000000000000000   000000000000000000000000004        170192477882     
0010001300030U 060000000000000000000000000000000000000000000000000000000000000000000000243970000000000243970000000000000000000000000000002911202402122024            000000000000000                              000                           
0010001300031T 0601897X0000000092096 24778822400001643   700000000000164329112024000000000024397237023740000001643                0900000000000010100000000000000000000000000000000000000   000000000000000000000000004        170192477882     
0010001300032U 060000000000000000000000000000000000000000000000000000000000000000000000243970000000000243970000000000000000000000000000002911202402122024            000000000000000                              000                           
0010001300033T 0601897X0000000092096 24778822400001649   700000000000164929112024000000000024397341006800000001649                0900000000000010100000000000000000000000000000000000000   000000000000000000000000004        170192477882     
0010001300034U 060000000000000000000000000000000000000000000000000000000000000000000000243970000000000243970000000000000000000000000000002911202402122024            000000000000000                              000                           
0010001300035T 0601897X0000000092096 24778822400001661   700000000000166129112024000000000024397033002460000001661                0900000000000010100000000000000000000000000000000000000   000000000000000000000000004        170192477882     
0010001300036U 060000000000000000000000000000000000000000000000000000000000000000000000243970000000000243970000000000000000000000000000002911202402122024            000000000000000                              000                           
0010001300037T 0601897X0000000092096 24778822400001670   700000000000167029112024000000000024314341000330000001670                0900000000000010100000000000000000000000000000000000000   000000000000000000000000004        170192477882     
0010001300038U 060000000000000000000000000000000000000000000000000000000000000000000000243140000000000243140000000000000000000000000000002911202402122024            000000000000000                              000                           
0010001300039T 0601897X0000000092096 24778822400001676   700000000000167629112024000000000024159341001360000001676                0900000000000010100000000000000000000000000000000000000   000000000000000000000000004        170192477882     
0010001300040U 060000000000000000000000000000000000000000000000000000000000000000000000241590000000000241590000000000000000000000000000002911202402122024            000000000000000                              000                           
0010001300041T 0601897X0000000092096 24778822400001679   700000000000167929112024000000000024056341048970000001679                0900000000000010100000000000000000000000000000000000000   000000000000000000000000004        170192477882     
0010001300042U 060000000000000000000000000000000000000000000000000000000000000000000000240560000000000240560000000000000000000000000000002911202402122024            000000000000000                              000                           
0010001300043T 0601897X0000000092096 24778822400001682   700000000000168229112024000000000024030237002140000001682                0900000000000010100000000000000000000000000000000000000   000000000000000000000000004        170192477882     
0010001300044U 060000000000000000000000000000000000000000000000000000000000000000000000240300000000000240300000000000000000000000000000002911202402122024            000000000000000                              000                           
0010001300045T 0601897X0000000092096 24778822400001694   700000000000169429112024000000000023943237014790000001694                0900000000000010100000000000000000000000000000000000000   000000000000000000000000004        170192477882     
0010001300046U 060000000000000000000000000000000000000000000000000000000000000000000000239430000000000239430000000000000000000000000000002911202402122024            000000000000000                              000                           
0010001300047T 0601897X0000000092096 24778822400001703   700000000000170329112024000000000023879001012270000001703                0900000000000010090000000000000000000000000000000000000   000000000000000000000000006        170192477882     
0010001300048U 060000000000000000000000000000000000000000000000000000000000000000000000238790000000000238790000000000000000000000000000002911202402122024            000000000000000                              000                           
0010001300049T 0601897X0000000092096 24778822400001709   700000000000170929112024000000000023818237003060000001709                0900000000000010100000000000000000000000000000000000000   000000000000000000000000004        170192477882     
0010001300050U 060000000000000000000000000000000000000000000000000000000000000000000000238180000000000238180000000000000000000000000000002911202402122024            000000000000000                              000                           
0010001300051T 0601897X0000000092096 24778822400001715   700000000000171529112024000000000023774341026330000001715                0900000000000010100000000000000000000000000000000000000   000000000000000000000000004        170192477882     
0010001300052U 060000000000000000000000000000000000000000000000000000000000000000000000237740000000000237740000000000000000000000000000002911202402122024            000000000000000                              000                           
0010001300053T 0601897X0000000092096 24778822400001718   700000000000171829112024000000000023711001026565000001718                0900000000000010060000000000000000000000000000000000000   000000000000000000000000033        170192477882     
0010001300054U 060000000000000000000000000000000000000000000000000000000000000000000000237110000000000237110000000000000000000000000000002911202402122024            000000000000000                              000                           
0010001300055T 0601897X0000000092096 24778822400001721   700000000000172129112024000000000023523237004520000001721                0900000000000010100000000000000000000000000000000000000   000000000000000000000000004        170192477882     
0010001300056U 060000000000000000000000000000000000000000000000000000000000000000000000235230000000000235230000000000000000000000000000002911202402122024            000000000000000                              000                           
0010001300057T 0601897X0000000092096 24778822400001727   700000000000172729112024000000000023473033037780000001727                0900000000000010100000000000000000000000000000000000000   000000000000000000000000004        170192477882     
0010001300058U 060000000000000000000000000000000000000000000000000000000000000000000000234730000000000234730000000000000000000000000000002911202402122024            000000000000000                              000                           
0010001300059T 0601897X0000000092096 24778822400001730   700000000000173029112024000000000023463341002770000001730                0900000000000010100000000000000000000000000000000000000   000000000000000000000000004        170192477882     
0010001300060U 060000000000000000000000000000000000000000000000000000000000000000000000234630000000000234630000000000000000000000000000002911202402122024            000000000000000                              000                           
0010001300061T 0601897X0000000092096 24778822400001739   700000000000173929112024000000000023421341015860000001739                0900000000000010100000000000000000000000000000000000000   000000000000000000000000004        170192477882     
0010001300062U 060000000000000000000000000000000000000000000000000000000000000000000000234210000000000234210000000000000000000000000000002911202402122024            000000000000000                              000                           
0010001300063T 0601897X0000000092096 24778822400001772   700000000000177229112024000000000023148237023720000001772                0900000000000010100000000000000000000000000000000000000   000000000000000000000000004        170192477882     
0010001300064U 060000000000000000000000000000000000000000000000000000000000000000000000231480000000000231480000000000000000000000000000002911202402122024            000000000000000                              000                           
0010001300065T 0601897X0000000092096 24778822400001778   700000000000177829112024000000000023093341063930000001778                0900000000000010100000000000000000000000000000000000000   000000000000000000000000004        170192477882     
0010001300066U 060000000000000000000000000000000000000000000000000000000000000000000000230930000000000230930000000000000000000000000000002911202402122024            000000000000000                              000                           
0010001300067T 0601897X0000000092096 24778822400001796   700000000000179629112024000000000022843341001370000001796                0900000000000010100000000000000000000000000000000000000   000000000000000000000000004        170192477882     
0010001300068U 060000000000000000000000000000000000000000000000000000000000000000000000228430000000000228430000000000000000000000000000002911202402122024            000000000000000                              000                           
0010001300069T 0601897X0000000092096 24778822400001799   700000000000179929112024000000000022819237033720000001799                0900000000000010100000000000000000000000000000000000000   000000000000000000000000004        170192477882     
0010001300070U 060000000000000000000000000000000000000000000000000000000000000000000000228190000000000228190000000000000000000000000000002911202402122024            000000000000000                              000                           
0010001300071T 0601897X0000000092096 24778822400001805   700000000000180529112024000000000022660341000550000001805                0900000000000010100000000000000000000000000000000000000   000000000000000000000000004        170192477882     
0010001300072U 060000000000000000000000000000000000000000000000000000000000000000000000226600000000000226600000000000000000000000000000002911202402122024            000000000000000                              000                           
0010001300073T 0601897X0000000092096 24778822400001808   700000000000180829112024000000000022641341005460000001808                0900000000000010100000000000000000000000000000000000000   000000000000000000000000004        170192477882     
0010001300074U 060000000000000000000000000000000000000000000000000000000000000000000000226410000000000226410000000000000000000000000000002911202402122024            000000000000000                              000                           
0010001300075T 0601897X0000000092096 24778822400001817   700000000000181729112024000000000022546341037850000001817                0900000000000010100000000000000000000000000000000000000   000000000000000000000000004        170192477882     
0010001300076U 060000000000000000000000000000000000000000000000000000000000000000000000225460000000000225460000000000000000000000000000002911202402122024            000000000000000                              000                           
0010001300077T 0601897X0000000092096 24778822400001820   700000000000182029112024000000000022543341000570000001820                0900000000000010100000000000000000000000000000000000000   000000000000000000000000004        170192477882     
0010001300078U 060000000000000000000000000000000000000000000000000000000000000000000000225430000000000225430000000000000000000000000000002911202402122024            000000000000000                              000                           
0010001300079T 0601897X0000000092096 24778822400001829   70000000000018292911202400000000002205900103360X000001829                0900000000000010090000000000000000000000000000000000000   000000000000000000000000006        170192477882     
0010001300080U 060000000000000000000000000000000000000000000000000000000000000000000000220590000000000220590000000000000000000000000000002911202402122024            000000000000000                              000                           
0010001300081T 0601897X0000000092096 24778822400001835   700000000000183529112024000000000022004104002780000001835                0900000000000010100000000000000000000000000000000000000   000000000000000000000000004        170192477882     
0010001300082U 060000000000000000000000000000000000000000000000000000000000000000000000220040000000000220040000000000000000000000000000002911202402122024            000000000000000                              000                           
0010001300083T 0601897X0000000092096 24778822400001838   700000000000183829112024000000000021980341007960000001838                0900000000000010100000000000000000000000000000000000000   000000000000000000000000004        170192477882     
0010001300084U 060000000000000000000000000000000000000000000000000000000000000000000000219800000000000219800000000000000000000000000000002911202402122024            000000000000000                              000                           
0010001300085T 0601897X0000000092096 24778822400001841   700000000000184129112024000000000021977341006580000001841                0900000000000010100000000000000000000000000000000000000   000000000000000000000000004        170192477882     
0010001300086U 060000000000000000000000000000000000000000000000000000000000000000000000219770000000000219770000000000000000000000000000002911202402122024            000000000000000                              000                           
0010001300087T 0601897X0000000092096 24778822400001853   700000000000185329112024000000000021958033038610000001853                0900000000000010100000000000000000000000000000000000000   000000000000000000000000004        170192477882     
0010001300088U 060000000000000000000000000000000000000000000000000000000000000000000000219580000000000219580000000000000000000000000000002911202402122024            000000000000000                              000                           
0010001300089T 0601897X0000000092096 24778822400001862   700000000000186229112024000000000021958341001910000001862                0900000000000010100000000000000000000000000000000000000   000000000000000000000000004        170192477882     
0010001300090U 060000000000000000000000000000000000000000000000000000000000000000000000219580000000000219580000000000000000000000000000002911202402122024            000000000000000                              000                           
0010001300091T 0601897X0000000092096 24778822400001865   700000000000186529112024000000000021958748050900000001865                0900000000000010100000000000000000000000000000000000000   000000000000000000000000004        170192477882     
0010001300092U 060000000000000000000000000000000000000000000000000000000000000000000000219580000000000219580000000000000000000000000000002911202402122024            000000000000000                              000                           
0010001300093T 0601897X0000000092096 24778822400001877   700000000000187729112024000000000021847237005200000001877                0900000000000010100000000000000000000000000000000000000   000000000000000000000000004        170192477882     
0010001300094U 060000000000000000000000000000000000000000000000000000000000000000000000218470000000000218470000000000000000000000000000002911202402122024            000000000000000                              000                           
0010001300095T 0601897X0000000092096 24778822400001883   700000000000188329112024000000000021696033001780000001883                0900000000000010100000000000000000000000000000000000000   000000000000000000000000004        170192477882     
0010001300096U 060000000000000000000000000000000000000000000000000000000000000000000000216960000000000216960000000000000000000000000000002911202402122024            000000000000000                              000                           
0010001300097T 0601897X0000000092096 24778822400001889   700000000000188929112024000000000021460748052110000001889                0900000000000010100000000000000000000000000000000000000   000000000000000000000000004        170192477882     
0010001300098U 060000000000000000000000000000000000000000000000000000000000000000000000214600000000000214600000000000000000000000000000002911202402122024            000000000000000                              000                           
0010001300099T 0601897X0000000092096 24778822400001892   700000000000189229112024000000000021456341002770000001892                0900000000000010100000000000000000000000000000000000000   000000000000000000000000004        170192477882     
0010001300100U 060000000000000000000000000000000000000000000000000000000000000000000000214560000000000214560000000000000000000000000000002911202402122024            000000000000000                              000                           
0010001300101T 0601897X0000000092096 24778822400001898   700000000000189829112024000000000021360001009903000001898                0900000000000010040000000000000000000000000000000000000   000000000000000000000000034        170192477882     
0010001300102U 060000000000000000000000000000000000000000000000000000000000000000000000213600000000000213600000000000000000000000000000002911202402122024            000000000000000                              000                           
0010001300103T 0601897X0000000092096 24778822400001928   700000000000192829112024000000000021017341006700000001928                0900000000000010100000000000000000000000000000000000000   000000000000000000000000004        170192477882     
0010001300104U 060000000000000000000000000000000000000000000000000000000000000000000000210170000000000210170000000000000000000000000000002911202402122024            000000000000000                              000                           
0010001300105T 0601897X0000000092096 24778822400001931   700000000000193129112024000000000021015341006520000001931                0900000000000010100000000000000000000000000000000000000   000000000000000000000000004        170192477882     
0010001300106U 060000000000000000000000000000000000000000000000000000000000000000000000210150000000000210150000000000000000000000000000002911202402122024            000000000000000                              000                           
0010001300107T 0601897X0000000092096 24778822400001934   700000000000193429112024000000000020688341001500000001934                0900000000000010100000000000000000000000000000000000000   000000000000000000000000004        170192477882     
0010001300108U 060000000000000000000000000000000000000000000000000000000000000000000000206880000000000206880000000000000000000000000000002911202402122024            000000000000000                              000                           
0010001300109T 0601897X0000000092096 24778822400001943   700000000000194329112024000000000020538237023740000001943                0900000000000010100000000000000000000000000000000000000   000000000000000000000000004        170192477882     
0010001300110U 060000000000000000000000000000000000000000000000000000000000000000000000205380000000000205380000000000000000000000000000002911202402122024            000000000000000                              000                           
0010001300111T 0601897X0000000092096 24778822400001946   700000000000194629112024000000000020537341015630000001946                0900000000000010100000000000000000000000000000000000000   000000000000000000000000004        170192477882     
0010001300112U 060000000000000000000000000000000000000000000000000000000000000000000000205370000000000205370000000000000000000000000000002911202402122024            000000000000000                              000                           
0010001300113T 0601897X0000000092096 24778822400001958   700000000000195829112024000000000020341341007310000001958                0900000000000010100000000000000000000000000000000000000   000000000000000000000000004        170192477882     
0010001300114U 060000000000000000000000000000000000000000000000000000000000000000000000203410000000000203410000000000000000000000000000002911202402122024            000000000000000                              000                           
0010001300115T 0601897X0000000092096 24778822400001961   700000000000196129112024000000000020271237033910000001961                0900000000000010100000000000000000000000000000000000000   000000000000000000000000004        170192477882     
0010001300116U 060000000000000000000000000000000000000000000000000000000000000000000000202710000000000202710000000000000000000000000000002911202402122024            000000000000000                              000                           
0010001300117T 0601897X0000000092096 24778822400001967   700000000000196729112024000000000020141001009903000001967                0900000000000010040000000000000000000000000000000000000   000000000000000000000000034        170192477882     
0010001300118U 060000000000000000000000000000000000000000000000000000000000000000000000201410000000000201410000000000000000000000000000002911202402122024            000000000000000                              000                           
0010001300119T 0601897X0000000092096 24778822400001976   700000000000197629112024000000000020064341000550000001976                0900000000000010100000000000000000000000000000000000000   000000000000000000000000004        170192477882     
0010001300120U 060000000000000000000000000000000000000000000000000000000000000000000000200640000000000200640000000000000000000000000000002911202402122024            000000000000000                              000                           
0010001300121T 0601897X0000000092096 24778822400001979   700000000000197929112024000000000020046001033626000001979                0900000000000010040000000000000000000000000000000000000   000000000000000000000000034        170192477882     
0010001300122U 060000000000000000000000000000000000000000000000000000000000000000000000200460000000000200460000000000000000000000000000002911202402122024            000000000000000                              000                           
0010001300123T 0601897X0000000092096 24778822400001985   700000000000198529112024000000000020018237024500000001985                0900000000000010100000000000000000000000000000000000000   000000000000000000000000004        170192477882     
0010001300124U 060000000000000000000000000000000000000000000000000000000000000000000000200180000000000200180000000000000000000000000000002911202402122024            000000000000000                              000                           
0010001300125T 0601897X0000000092096 24778822400001988   700000000000198829112024000000102334715001030708000001988                0900000000000010090000000000000000000000000000000000000   000000000000000000000000006        170192477882     
0010001300126U 060000000000000000000000000000000000000000000000000000000000000000001023347150000001023347150000000000000000000000000000002911202402122024            000000000000000                              000                           
0010001300127T 0601897X0000000092096 24778822400001992   700000000000199229112024000000027637755001000566000001992                0900000000000010040000000000000000000000000000000000000   000000000000000000000000034        170192477882     
0010001300128U 060000000000000000000000000000000000000000000000000000000000000000000276377550000000276377550000000000000000000000000000002911202402122024            000000000000000                              000                           
0010001300129T 0601897X0000000092096 24778822400001996   700000000000199629112024000000023915070341000190000001996                0900000000000010100000000000000000000000000000000000000   000000000000000000000000004        170192477882     
0010001300130U 060000000000000000000000000000000000000000000000000000000000000000000239150700000000239150700000000000000000000000000000002911202402122024            000000000000000                              000                           
0010001300131T 0601897X0000000092096 24778822400002000   700000000000200029112024000000017861119104003410000002000                0900000000000010100000000000000000000000000000000000000   000000000000000000000000004        170192477882     
0010001300132U 060000000000000000000000000000000000000000000000000000000000000000000178611190000000178611190000000000000000000000000000002911202402122024            000000000000000                              000                           
0010001300133T 0601897X0000000092096 24778822400002004   700000000000200429112024000000017383888001009296000002004                0900000000000010040000000000000000000000000000000000000   000000000000000000000000034        170192477882     
0010001300134U 060000000000000000000000000000000000000000000000000000000000000000000173838880000000173838880000000000000000000000000000002911202402122024            000000000000000                              000                           
0010001300135T 0601897X0000000092096 24778822400002005   700000000000200519122024000000017383888001009296000002005                0900000000000010040000000000000000000000000000000000000   000000000000000000000000034        170192477882     
0010001300136U 060000000000000000000000000000000000000000000000000000000000000000000173838880000000173838880000000000000000000000000000002911202402122024            000000000000000                              000                           
0010001300137T 0601897X0000000092096 24778822400002008   700000000000200829112024000000015698576001091227000002008                0900000000000010040000000000000000000000000000000000000   000000000000000000000000034        170192477882     
0010001300138U 060000000000000000000000000000000000000000000000000000000000000000000156985760000000156985760000000000000000000000000000002911202402122024            000000000000000                              000                           
0010001300139T 0601897X0000000092096 24778822400002012   700000000000201229112024000000014052721001004596000002012                0900000000000010040000000000000000000000000000000000000   000000000000000000000000034        170192477882     
0010001300140U 060000000000000000000000000000000000000000000000000000000000000000000140527210000000140527210000000000000000000000000000002911202402122024            000000000000000                              000                           
0010001300141T 0601897X0000000092096 24778822400002024   700000000000202429112024000000009813361341002320000002024                0900000000000010100000000000000000000000000000000000000   000000000000000000000000004        170192477882     
0010001300142U 060000000000000000000000000000000000000000000000000000000000000000000098133610000000098133610000000000000000000000000000002911202402122024            000000000000000                              000                           
0010001300143T 0601897X0000000092096 24778822400002036   700000000000203629112024000000008100056104019370000002036                0900000000000010100000000000000000000000000000000000000   000000000000000000000000004        170192477882     
0010001300144U 060000000000000000000000000000000000000000000000000000000000000000000081000560000000081000560000000000000000000000000000002911202402122024            000000000000000                              000                           
0010001300145T 0601897X0000000092096 24778822400002040   700000000000204029112024000000007042197104003630000002040                0900000000000010100000000000000000000000000000000000000   000000000000000000000000004        170192477882     
0010001300146U 060000000000000000000000000000000000000000000000000000000000000000000070421970000000070421970000000000000000000000000000002911202402122024            000000000000000                              000                           
0010001300147T 0601897X0000000092096 24778822400002044   700000000000204429112024000000005737816341001360000002044                0900000000000010100000000000000000000000000000000000000   000000000000000000000000004        170192477882     
0010001300148U 060000000000000000000000000000000000000000000000000000000000000000000057378160000000057378160000000000000000000000000000002911202402122024            000000000000000                              000                           
0010001300149T 0601897X0000000092096 24778822400002052   700000000000205229112024000000004848405033002850000002052                0900000000000010100000000000000000000000000000000000000   000000000000000000000000004        170192477882     
0010001300150U 060000000000000000000000000000000000000000000000000000000000000000000048484050000000048484050000000000000000000000000000002911202402122024            000000000000000                              000                           
0010001300151T 0601897X0000000092096 24778822400002056   700000000000205629112024000000004834469001030708000002056                0900000000000010090000000000000000000000000000000000000   000000000000000000000000006        170192477882     
0010001300152U 060000000000000000000000000000000000000000000000000000000000000000000048344690000000048344690000000000000000000000000000002911202402122024            000000000000000                              000                           
0010001300153T 0601897X0000000092096 24778822400002060   700000000000206029112024000000004729089001030708000002060                0900000000000010090000000000000000000000000000000000000   000000000000000000000000006        170192477882     
0010001300154U 060000000000000000000000000000000000000000000000000000000000000000000047290890000000047290890000000000000000000000000000002911202402122024            000000000000000                              000                           
0010001300155T 0601897X0000000092096 24778822400002064   700000000000206429112024000000004408884104019380000002064                0900000000000010100000000000000000000000000000000000000   000000000000000000000000004        170192477882     
0010001300156U 060000000000000000000000000000000000000000000000000000000000000000000044088840000000044088840000000000000000000000000000002911202402122024            000000000000000                              000                           
0010001300157T 0601897X0000000092096 24778822400002072   700000000000207229112024000000004134134341000080000002072                0900000000000010100000000000000000000000000000000000000   000000000000000000000000004        170192477882     
0010001300158U 060000000000000000000000000000000000000000000000000000000000000000000041341340000000041341340000000000000000000000000000002911202402122024            000000000000000                              000                           
0010001300159T 0601897X0000000092096 24778822400002076   700000000000207629112024000000003937531001019135000002076                0900000000000010040000000000000000000000000000000000000   000000000000000000000000034        170192477882     
0010001300160U 060000000000000000000000000000000000000000000000000000000000000000000039375310000000039375310000000000000000000000000000002911202402122024            000000000000000                              000                           
0010001300161T 0601897X0000000092096 24778822400002080   700000000000208029112024000000003829101033002850000002080                0900000000000010100000000000000000000000000000000000000   000000000000000000000000004        170192477882     
0010001300162U 060000000000000000000000000000000000000000000000000000000000000000000038291010000000038291010000000000000000000000000000002911202402122024            000000000000000                              000                           
0010001300163T 0601897X0000000092096 24778822400002084   700000000000208429112024000000003754126001065544000002084                0900000000000010040000000000000000000000000000000000000   000000000000000000000000034        170192477882     
0010001300164U 060000000000000000000000000000000000000000000000000000000000000000000037541260000000037541260000000000000000000000000000002911202402122024            000000000000000                              000                           
0010001300165T 0601897X0000000092096 24778822400002088   700000000000208829112024000000003538073001045276000002088                0900000000000010040000000000000000000000000000000000000   000000000000000000000000034        170192477882     
0010001300166U 060000000000000000000000000000000000000000000000000000000000000000000035380730000000035380730000000000000000000000000000002911202402122024            000000000000000                              000                           
0010001300167T 0601897X0000000092096 24778822400002092   700000000000209229112024000000003363242001026565000002092                0900000000000010040000000000000000000000000000000000000   000000000000000000000000034        170192477882     
0010001300168U 060000000000000000000000000000000000000000000000000000000000000000000033632420000000033632420000000000000000000000000000002911202402122024            000000000000000                              000                           
0010001300169T 0601897X0000000092096 24778822400002100   700000000000210029112024000000003181138001045659000002100                0900000000000010040000000000000000000000000000000000000   000000000000000000000000034        170192477882     
0010001300170U 060000000000000000000000000000000000000000000000000000000000000000000031811380000000031811380000000000000000000000000000002911202402122024            000000000000000                              000                           
0010001300171T 0601897X0000000092096 24778822400002104   700000000000210429112024000000003076170104029090000002104                0900000000000010100000000000000000000000000000000000000   000000000000000000000000004        170192477882     
0010001300172U 060000000000000000000000000000000000000000000000000000000000000000000030761700000000030761700000000000000000000000000000002911202402122024            000000000000000                              000                           
0010001300173T 0601897X0000000092096 24778822400002116   700000000000211629112024000000002475456001030708000002116                0900000000000010090000000000000000000000000000000000000   000000000000000000000000006        170192477882     
0010001300174U 060000000000000000000000000000000000000000000000000000000000000000000024754560000000024754560000000000000000000000000000002911202402122024            000000000000000                              000                           
0010001300175T 0601897X0000000092096 24778822400002124   700000000000212429112024000000001869036033020170000002124                0900000000000010100000000000000000000000000000000000000   000000000000000000000000004        170192477882     
0010001300176U 060000000000000000000000000000000000000000000000000000000000000000000018690360000000018690360000000000000000000000000000002911202402122024            000000000000000                              000                           
0010001300177T 0601897X0000000092096 24778822400002136   700000000000213629112024000000001693850274000010000002136                0900000000000010100000000000000000000000000000000000000   000000000000000000000000004        170192477882     
0010001300178U 060000000000000000000000000000000000000000000000000000000000000000000016938500000000016938500000000000000000000000000000002911202402122024            000000000000000                              000                           
0010001300179T 0601897X0000000092096 24778822400002144   70000000000021442911202400000000163896100101916X000002144                0900000000000010040000000000000000000000000000000000000   000000000000000000000000034        170192477882     
0010001300180U 060000000000000000000000000000000000000000000000000000000000000000000016389610000000016389610000000000000000000000000000002911202402122024            000000000000000                              000                           
0010001300181T 0601897X0000000092096 24778822400002148   700000000000214829112024000000001594327001030708000002148                0900000000000010090000000000000000000000000000000000000   000000000000000000000000006        170192477882     
0010001300182U 060000000000000000000000000000000000000000000000000000000000000000000015943270000000015943270000000000000000000000000000002911202402122024            000000000000000                              000                           
0010001300183T 0601897X0000000092096 24778822400002152   700000000000215229112024000000001562720001030708000002152                0900000000000010090000000000000000000000000000000000000   000000000000000000000000006        170192477882     
0010001300184U 060000000000000000000000000000000000000000000000000000000000000000000015627200000000015627200000000000000000000000000000002911202402122024            000000000000000                              000                           
0010001300185T 0601897X0000000092096 24778822400002156   700000000000215629112024000000001466248033000290000002156                0900000000000010100000000000000000000000000000000000000   000000000000000000000000004        170192477882     
0010001300186U 060000000000000000000000000000000000000000000000000000000000000000000014662480000000014662480000000000000000000000000000002911202402122024            000000000000000                              000                           
0010001300187T 0601897X0000000092096 24778822400002160   700000000000216029112024000000001386046001030708000002160                0900000000000010090000000000000000000000000000000000000   000000000000000000000000006        170192477882     
0010001300188U 060000000000000000000000000000000000000000000000000000000000000000000013860460000000013860460000000000000000000000000000002911202402122024            000000000000000                              000                           
0010001300189T 0601897X0000000092096 24778822400002164   700000000000216429112024000000001326931001030708000002164                0900000000000010090000000000000000000000000000000000000   000000000000000000000000006        170192477882     
0010001300190U 060000000000000000000000000000000000000000000000000000000000000000000013269310000000013269310000000000000000000000000000002911202402122024            000000000000000                              000                           
0010001300191T 0601897X0000000092096 24778822400002172   700000000000217229112024000000001247088237023740000002172                0900000000000010100000000000000000000000000000000000000   000000000000000000000000004        170192477882     
0010001300192U 060000000000000000000000000000000000000000000000000000000000000000000012470880000000012470880000000000000000000000000000002911202402122024            000000000000000                              000                           
0010001300193T 0601897X0000000092096 24778822400002176   700000000000217629112024000000001123940341000190000002176                0900000000000010100000000000000000000000000000000000000   000000000000000000000000004        170192477882     
0010001300194U 060000000000000000000000000000000000000000000000000000000000000000000011239400000000011239400000000000000000000000000000002911202402122024            000000000000000                              000                           
0010001300195T 0601897X0000000092096 24778822400002180   700000000000218029112024000000001082972033033160000002180                0900000000000010100000000000000000000000000000000000000   000000000000000000000000004        170192477882     
0010001300196U 060000000000000000000000000000000000000000000000000000000000000000000010829720000000010829720000000000000000000000000000002911202402122024            000000000000000                              000                           
0010001300197T 0601897X0000000092096 24778822400002184   700000000000218429112024000000001064105001030708000002184                0900000000000010090000000000000000000000000000000000000   000000000000000000000000006        170192477882     
0010001300198U 060000000000000000000000000000000000000000000000000000000000000000000010641050000000010641050000000000000000000000000000002911202402122024            000000000000000                              000                           
0010001300199T 0601897X0000000092096 24778822400002188   700000000000218829112024000000001037395001030708000002188                0900000000000010090000000000000000000000000000000000000   000000000000000000000000006        170192477882     
0010001300200U 060000000000000000000000000000000000000000000000000000000000000000000010373950000000010373950000000000000000000000000000002911202402122024            000000000000000                              000                           
0010001300201T 0601897X0000000092096 24778822400002196   700000000000219629112024000000000923628001030708000002196                0900000000000010090000000000000000000000000000000000000   000000000000000000000000006        170192477882     
0010001300202U 060000000000000000000000000000000000000000000000000000000000000000000009236280000000009236280000000000000000000000000000002911202402122024            000000000000000                              000                           
0010001300203T 0601897X0000000092096 24778822400002208   70000000000022082911202400000000084382700104587X000002208                0900000000000010040000000000000000000000000000000000000   000000000000000000000000034        170192477882     
0010001300204U 060000000000000000000000000000000000000000000000000000000000000000000008438270000000008438270000000000000000000000000000002911202402122024            000000000000000                              000                           
0010001300205T 0601897X0000000092096 24778822400002216   700000000000221629112024000000000815114001051152000002216                0900000000000010040000000000000000000000000000000000000   000000000000000000000000034        170192477882     
0010001300206U 060000000000000000000000000000000000000000000000000000000000000000000008151140000000008151140000000000000000000000000000002911202402122024            000000000000000                              000                           
0010001300207T 0601897X0000000092096 24778822400002224   700000000000222429112024000000000806723001030708000002224                0900000000000010090000000000000000000000000000000000000   000000000000000000000000006        170192477882     
0010001300208U 060000000000000000000000000000000000000000000000000000000000000000000008067230000000008067230000000000000000000000000000002911202402122024            000000000000000                              000                           
0010001300209T 0601897X0000000092096 24778822400002228   700000000000222829112024000000000753574341000140000002228                0900000000000010100000000000000000000000000000000000000   000000000000000000000000004        170192477882     
0010001300210U 060000000000000000000000000000000000000000000000000000000000000000000007535740000000007535740000000000000000000000000000002911202402122024            000000000000000                              000                           
0010001300211T 0601897X0000000092096 24778822400002232   700000000000223229112024000000000731743341009120000002232                0900000000000010100000000000000000000000000000000000000   000000000000000000000000004        170192477882     
0010001300212U 060000000000000000000000000000000000000000000000000000000000000000000007317430000000007317430000000000000000000000000000002911202402122024            000000000000000                              000                           
0010001300213T 0601897X0000000092096 24778822400002236   700000000000223629112024000000000718886341000540000002236                0900000000000010100000000000000000000000000000000000000   000000000000000000000000004        170192477882     
0010001300214U 060000000000000000000000000000000000000000000000000000000000000000000007188860000000007188860000000000000000000000000000002911202402122024            000000000000000                              000                           
0010001300215T 0601897X0000000092096 24778822400002240   700000000000224029112024000000000662989341080310000002240                0900000000000010100000000000000000000000000000000000000   000000000000000000000000004        170192477882     
0010001300216U 060000000000000000000000000000000000000000000000000000000000000000000006629890000000006629890000000000000000000000000000002911202402122024            000000000000000                              000                           
0010001300217T 0601897X0000000092096 24778822400002256   700000000000225629112024000000000587903001030708000002256                0900000000000010090000000000000000000000000000000000000   000000000000000000000000006        170192477882     
0010001300218U 060000000000000000000000000000000000000000000000000000000000000000000005879030000000005879030000000000000000000000000000002911202402122024            000000000000000                              000                           
0010001300219T 0601897X0000000092096 24778822400002260   70000000000022602911202400000000058571700101916X000002260                0900000000000010040000000000000000000000000000000000000   000000000000000000000000034        170192477882     
0010001300220U 060000000000000000000000000000000000000000000000000000000000000000000005857170000000005857170000000000000000000000000000002911202402122024            000000000000000                              000                           
0010001300221T 0601897X0000000092096 24778822400002264   700000000000226429112024000000000583448341009120000002264                0900000000000010100000000000000000000000000000000000000   000000000000000000000000004        170192477882     
0010001300222U 060000000000000000000000000000000000000000000000000000000000000000000005834480000000005834480000000000000000000000000000002911202402122024            000000000000000                              000                           
0010001300223T 0601897X0000000092096 24778822400002268   700000000000226829112024000000000582312341005600000002268                0900000000000010100000000000000000000000000000000000000   000000000000000000000000004        170192477882     
0010001300224U 060000000000000000000000000000000000000000000000000000000000000000000005823120000000005823120000000000000000000000000000002911202402122024            000000000000000                              000                           
0010001300225T 0601897X0000000092096 24778822400002272   700000000000227229112024000000000568282001030708000002272                0900000000000010090000000000000000000000000000000000000   000000000000000000000000006        170192477882     
0010001300226U 060000000000000000000000000000000000000000000000000000000000000000000005682820000000005682820000000000000000000000000000002911202402122024            000000000000000                              000                           
0010001300227T 0601897X0000000092096 24778822400002276   700000000000227629112024000000000561481237023720000002276                0900000000000010100000000000000000000000000000000000000   000000000000000000000000004        170192477882     
0010001300228U 060000000000000000000000000000000000000000000000000000000000000000000005614810000000005614810000000000000000000000000000002911202402122024            000000000000000                              000                           
0010001300229T 0601897X0000000092096 24778822400002296   700000000000229629112024000000000502830389002630000002296                0900000000000010100000000000000000000000000000000000000   000000000000000000000000004        170192477882     
0010001300230U 060000000000000000000000000000000000000000000000000000000000000000000005028300000000005028300000000000000000000000000000002911202402122024            000000000000000                              000                           
0010001300231T 0601897X0000000092096 24778822400002300   700000000000230029112024000000000499044237033980000002300                0900000000000010100000000000000000000000000000000000000   000000000000000000000000004        170192477882     
0010001300232U 060000000000000000000000000000000000000000000000000000000000000000000004990440000000004990440000000000000000000000000000002911202402122024            000000000000000                              000                           
0010001300233T 0601897X0000000092096 24778822400002308   700000000000230829112024000000000492657341000500000002308                0900000000000010100000000000000000000000000000000000000   000000000000000000000000004        170192477882     
0010001300234U 060000000000000000000000000000000000000000000000000000000000000000000004926570000000004926570000000000000000000000000000002911202402122024            000000000000000                              000                           
0010001300235T 0601897X0000000092096 24778822400002312   700000000000231229112024000000000491848033002070000002312                0900000000000010100000000000000000000000000000000000000   000000000000000000000000004        170192477882     
0010001300236U 060000000000000000000000000000000000000000000000000000000000000000000004918480000000004918480000000000000000000000000000002911202402122024            000000000000000                              000                           
0010001300237T 0601897X0000000092096 24778822400002316   700000000000231629112024000000000489395237013680000002316                0900000000000010100000000000000000000000000000000000000   000000000000000000000000004        170192477882     
0010001300238U 060000000000000000000000000000000000000000000000000000000000000000000004893950000000004893950000000000000000000000000000002911202402122024            000000000000000                              000                           
0010001300239T 0601897X0000000092096 24778822400002320   700000000000232029112024000000000480869001030708000002320                0900000000000010090000000000000000000000000000000000000   000000000000000000000000006        170192477882     
0010001300240U 060000000000000000000000000000000000000000000000000000000000000000000004808690000000004808690000000000000000000000000000002911202402122024            000000000000000                              000                           
0010001300241T 0601897X0000000092096 24778822400002324   700000000000232429112024000000000450911001030708000002324                0900000000000010090000000000000000000000000000000000000   000000000000000000000000006        170192477882     
0010001300242U 060000000000000000000000000000000000000000000000000000000000000000000004509110000000004509110000000000000000000000000000002911202402122024            000000000000000                              000                           
0010001300243T 0601897X0000000092096 24778822400002344   700000000000234429112024000000000431764237005200000002344                0900000000000010100000000000000000000000000000000000000   000000000000000000000000004        170192477882     
0010001300244U 060000000000000000000000000000000000000000000000000000000000000000000004317640000000004317640000000000000000000000000000002911202402122024            000000000000000                              000                           
0010001300245T 0601897X0000000092096 24778822400002348   700000000000234829112024000000000423621001030708000002348                0900000000000010090000000000000000000000000000000000000   000000000000000000000000006        170192477882     
0010001300246U 060000000000000000000000000000000000000000000000000000000000000000000004236210000000004236210000000000000000000000000000002911202402122024            000000000000000                              000                           
0010001300247T 0601897X0000000092096 24778822400002352   700000000000235229112024000000000422316104033180000002352                0900000000000010100000000000000000000000000000000000000   000000000000000000000000004        170192477882     
0010001300248U 060000000000000000000000000000000000000000000000000000000000000000000004223160000000004223160000000000000000000000000000002911202402122024            000000000000000                              000                           
0010001300249T 0601897X0000000092096 24778822400002353   700000000000235319122024000000000422316104033180000002353                0900000000000010100000000000000000000000000000000000000   000000000000000000000000004        170192477882     
0010001300250U 060000000000000000000000000000000000000000000000000000000000000000000004223160000000004223160000000000000000000000000000002911202402122024            000000000000000                              000                           
0010001300251T 0601897X0000000092096 24778822400002364   700000000000236429112024000000000397961341000680000002364                0900000000000010100000000000000000000000000000000000000   000000000000000000000000004        170192477882     
0010001300252U 060000000000000000000000000000000000000000000000000000000000000000000003979610000000003979610000000000000000000000000000002911202402122024            000000000000000                              000                           
0010001300253T 0601897X0000000092096 24778822400002372   700000000000237229112024000000000392307237003060000002372                0900000000000010100000000000000000000000000000000000000   000000000000000000000000004        170192477882     
0010001300254U 060000000000000000000000000000000000000000000000000000000000000000000003923070000000003923070000000000000000000000000000002911202402122024            000000000000000                              000                           
0010001300255T 0601897X0000000092096 24778822400002376   700000000000237629112024000000000391441341040050000002376                0900000000000010100000000000000000000000000000000000000   000000000000000000000000004        170192477882     
0010001300256U 060000000000000000000000000000000000000000000000000000000000000000000003914410000000003914410000000000000000000000000000002911202402122024            000000000000000                              000                           
0010001300257T 0601897X0000000092096 24778822400002380   700000000000238029112024000000000391107033001940000002380                0900000000000010100000000000000000000000000000000000000   000000000000000000000000004        170192477882     
0010001300258U 060000000000000000000000000000000000000000000000000000000000000000000003911070000000003911070000000000000000000000000000002911202402122024            000000000000000                              000                           
0010001300259T 0601897X0000000092096 24778822400002384   700000000000238429112024000000000389609745000040000002384                0900000000000010100000000000000000000000000000000000000   000000000000000000000000004        170192477882     
0010001300260U 060000000000000000000000000000000000000000000000000000000000000000000003896090000000003896090000000000000000000000000000002911202402122024            000000000000000                              000                           
0010001300261T 0601897X0000000092096 24778822400002392   700000000000239229112024000000000382182237033710000002392                0900000000000010100000000000000000000000000000000000000   000000000000000000000000004        170192477882     
0010001300262U 060000000000000000000000000000000000000000000000000000000000000000000003821820000000003821820000000000000000000000000000002911202402122024            000000000000000                              000                           
0010001300263T 0601897X0000000092096 24778822400002396   700000000000239629112024000000000381695341016190000002396                0900000000000010100000000000000000000000000000000000000   000000000000000000000000004        170192477882     
0010001300264U 060000000000000000000000000000000000000000000000000000000000000000000003816950000000003816950000000000000000000000000000002911202402122024            000000000000000                              000                           
0010001300265T 0601897X0000000092096 24778822400002408   700000000000240829112024000000000361496077000010000002408                0900000000000010100000000000000000000000000000000000000   000000000000000000000000004        170192477882     
0010001300266U 060000000000000000000000000000000000000000000000000000000000000000000003614960000000003614960000000000000000000000000000002911202402122024            000000000000000                              000                           
0010001300267T 0601897X0000000092096 24778822400002412   700000000000241229112024000000000361128748053690000002412                0900000000000010100000000000000000000000000000000000000   000000000000000000000000004        170192477882     
0010001300268U 060000000000000000000000000000000000000000000000000000000000000000000003611280000000003611280000000000000000000000000000002911202402122024            000000000000000                              000                           
0010001300269T 0601897X0000000092096 24778822400002416   700000000000241629112024000000000352234341076490000002416                0900000000000010100000000000000000000000000000000000000   000000000000000000000000004        170192477882     
0010001300270U 060000000000000000000000000000000000000000000000000000000000000000000003522340000000003522340000000000000000000000000000002911202402122024            000000000000000                              000                           
0010001300271T 0601897X0000000092096 24778822400002420   700000000000242029112024000000000349475001051152000002420                0900000000000010040000000000000000000000000000000000000   000000000000000000000000034        170192477882     
0010001300272U 060000000000000000000000000000000000000000000000000000000000000000000003494750000000003494750000000000000000000000000000002911202402122024            000000000000000                              000                           
0010001300273T 0601897X0000000092096 24778822400002424   700000000000242429112024000000000345229237005200000002424                0900000000000010100000000000000000000000000000000000000   000000000000000000000000004        170192477882     
0010001300274U 060000000000000000000000000000000000000000000000000000000000000000000003452290000000003452290000000000000000000000000000002911202402122024            000000000000000                              000                           
0010001300275T 0601897X0000000092096 24778822400002428   700000000000242829112024000000000343219001033626000002428                0900000000000010040000000000000000000000000000000000000   000000000000000000000000034        170192477882     
0010001300276U 060000000000000000000000000000000000000000000000000000000000000000000003432190000000003432190000000000000000000000000000002911202402122024            000000000000000                              000                           
0010001300277T 0601897X0000000092096 24778822400002432   700000000000243229112024000000000342445001031496000002432                0900000000000010090000000000000000000000000000000000000   000000000000000000000000006        170192477882     
0010001300278U 060000000000000000000000000000000000000000000000000000000000000000000003424450000000003424450000000000000000000000000000002911202402122024            000000000000000                              000                           
0010001300279T 0601897X0000000092096 24778822400002436   700000000000243629112024000000000338212237003280000002436                0900000000000010100000000000000000000000000000000000000   000000000000000000000000004        170192477882     
0010001300280U 060000000000000000000000000000000000000000000000000000000000000000000003382120000000003382120000000000000000000000000000002911202402122024            000000000000000                              000                           
0010001300281T 0601897X0000000092096 24778822400002448   700000000000244829112024000000000329663756013490000002448                0900000000000010100000000000000000000000000000000000000   000000000000000000000000004        170192477882     
0010001300282U 060000000000000000000000000000000000000000000000000000000000000000000003296630000000003296630000000000000000000000000000002911202402122024            000000000000000                              000                           
0010001300283T 0601897X0000000092096 24778822400002460   700000000000246029112024000000000322399033033160000002460                0900000000000010100000000000000000000000000000000000000   000000000000000000000000004        170192477882     
0010001300284U 060000000000000000000000000000000000000000000000000000000000000000000003223990000000003223990000000000000000000000000000002911202402122024            000000000000000                              000                           
0010001300285T 0601897X0000000092096 24778822400002464   700000000000246429112024000000000322173341007310000002464                0900000000000010100000000000000000000000000000000000000   000000000000000000000000004        170192477882     
0010001300286U 060000000000000000000000000000000000000000000000000000000000000000000003221730000000003221730000000000000000000000000000002911202402122024            000000000000000                              000                           
0010001300287T 0601897X0000000092096 24778822400002472   700000000000247229112024000000000318734001031496000002472                0900000000000010040000000000000000000000000000000000000   000000000000000000000000034        170192477882     
0010001300288U 060000000000000000000000000000000000000000000000000000000000000000000003187340000000003187340000000000000000000000000000002911202402122024            000000000000000                              000                           
0010001300289T 0601897X0000000092096 24778822400002476   700000000000247629112024000000000316720341009100000002476                0900000000000010100000000000000000000000000000000000000   000000000000000000000000004        170192477882     
0010001300290U 060000000000000000000000000000000000000000000000000000000000000000000003167200000000003167200000000000000000000000000000002911202402122024            000000000000000                              000                           
0010001300291T 0601897X0000000092096 24778822400002492   700000000000249229112024000000000300606341000550000002492                0900000000000010100000000000000000000000000000000000000   000000000000000000000000004        170192477882     
0010001300292U 060000000000000000000000000000000000000000000000000000000000000000000003006060000000003006060000000000000000000000000000002911202402122024            000000000000000                              000                           
0010001300293T 0601897X0000000092096 24778822400002496   700000000000249629112024000000000296426237033930000002496                0900000000000010100000000000000000000000000000000000000   000000000000000000000000004        170192477882     
0010001300294U 060000000000000000000000000000000000000000000000000000000000000000000002964260000000002964260000000000000000000000000000002911202402122024            000000000000000                              000                           
0010001300295T 0601897X0000000092096 24778822400002504   700000000000250429112024000000000293786033048780000002504                0900000000000010100000000000000000000000000000000000000   000000000000000000000000004        170192477882     
0010001300296U 060000000000000000000000000000000000000000000000000000000000000000000002937860000000002937860000000000000000000000000000002911202402122024            000000000000000                              000                           
0010001300297T 0601897X0000000092096 24778822400002508   700000000000250829112024000000000292767341037650000002508                0900000000000010100000000000000000000000000000000000000   000000000000000000000000004        170192477882     
0010001300298U 060000000000000000000000000000000000000000000000000000000000000000000002927670000000002927670000000000000000000000000000002911202402122024            000000000000000                              000                           
0010001300299T 0601897X0000000092096 24778822400002512   700000000000251229112024000000000288636341005600000002512                0900000000000010100000000000000000000000000000000000000   000000000000000000000000004        170192477882     
0010001300300U 060000000000000000000000000000000000000000000000000000000000000000000002886360000000002886360000000000000000000000000000002911202402122024            000000000000000                              000                           
0010001300301T 0601897X0000000092096 24778822400002516   700000000000251629112024000000000288113237033710000002516                0900000000000010100000000000000000000000000000000000000   000000000000000000000000004        170192477882     
0010001300302U 060000000000000000000000000000000000000000000000000000000000000000000002881130000000002881130000000000000000000000000000002911202402122024            000000000000000                              000                           
0010001300303T 0601897X0000000092096 24778822400002520   700000000000252029112024000000000285746001033626000002520                0900000000000010040000000000000000000000000000000000000   000000000000000000000000034        170192477882     
0010001300304U 060000000000000000000000000000000000000000000000000000000000000000000002857460000000002857460000000000000000000000000000002911202402122024            000000000000000                              000                           
0010001300305T 0601897X0000000092096 24778822400002524   700000000000252429112024000000000276932341000280000002524                0900000000000010100000000000000000000000000000000000000   000000000000000000000000004        170192477882     
0010001300306U 060000000000000000000000000000000000000000000000000000000000000000000002769320000000002769320000000000000000000000000000002911202402122024            000000000000000                              000                           
0010001300307T 0601897X0000000092096 24778822400002540   700000000000254029112024000000000266807237033670000002540                0900000000000010100000000000000000000000000000000000000   000000000000000000000000004        170192477882     
0010001300308U 060000000000000000000000000000000000000000000000000000000000000000000002668070000000002668070000000000000000000000000000002911202402122024            000000000000000                              000                           
0010001300309T 0601897X0000000092096 24778822400002548   700000000000254829112024000000000257903001030708000002548                0900000000000010090000000000000000000000000000000000000   000000000000000000000000006        170192477882     
0010001300310U 060000000000000000000000000000000000000000000000000000000000000000000002579030000000002579030000000000000000000000000000002911202402122024            000000000000000                              000                           
0010001300311T 0601897X0000000092096 24778822400002560   700000000000256029112024000000000249602001024279000002560                0900000000000010040000000000000000000000000000000000000   000000000000000000000000034        170192477882     
0010001300312U 060000000000000000000000000000000000000000000000000000000000000000000002496020000000002496020000000000000000000000000000002911202402122024            000000000000000                              000                           
0010001300313T 0601897X0000000092096 24778822400002576   700000000000257629112024000000000242455341040050000002576                0900000000000010100000000000000000000000000000000000000   000000000000000000000000004        170192477882     
0010001300314U 060000000000000000000000000000000000000000000000000000000000000000000002424550000000002424550000000000000000000000000000002911202402122024            000000000000000                              000                           
0010001300315T 0601897X0000000092096 24778822400002580   700000000000258029112024000000000242144341003100000002580                0900000000000010100000000000000000000000000000000000000   000000000000000000000000004        170192477882     
0010001300316U 060000000000000000000000000000000000000000000000000000000000000000000002421440000000002421440000000000000000000000000000002911202402122024            000000000000000                              000                           
0010001300317T 0601897X0000000092096 24778822400002596   700000000000259629112024000000000234213341031000000002596                0900000000000010100000000000000000000000000000000000000   000000000000000000000000004        170192477882     
0010001300318U 060000000000000000000000000000000000000000000000000000000000000000000002342130000000002342130000000000000000000000000000002911202402122024            000000000000000                              000                           
0010001300319T 0601897X0000000092096 24778822400002600   700000000000260029112024000000000233573033021620000002600                0900000000000010100000000000000000000000000000000000000   000000000000000000000000004        170192477882     
0010001300320U 060000000000000000000000000000000000000000000000000000000000000000000002335730000000002335730000000000000000000000000000002911202402122024            000000000000000                              000                           
0010001300321T 0601897X0000000092096 24778822400002608   700000000000260829112024000000000231453001066249000002608                0900000000000010040000000000000000000000000000000000000   000000000000000000000000034        170192477882     
0010001300322U 060000000000000000000000000000000000000000000000000000000000000000000002314530000000002314530000000000000000000000000000002911202402122024            000000000000000                              000                           
0010001300323T 0601897X0000000092096 24778822400002612   700000000000261229112024000000000226096237001340000002612                0900000000000010100000000000000000000000000000000000000   000000000000000000000000004        170192477882     
0010001300324U 060000000000000000000000000000000000000000000000000000000000000000000002260960000000002260960000000000000000000000000000002911202402122024            000000000000000                              000                           
0010001300325T 0601897X0000000092096 24778822400002616   700000000000261629112024000000000224096033015660000002616                0900000000000010100000000000000000000000000000000000000   000000000000000000000000004        170192477882     
0010001300326U 060000000000000000000000000000000000000000000000000000000000000000000002240960000000002240960000000000000000000000000000002911202402122024            000000000000000                              000                           
0010001300327T 0601897X0000000092096 24778822400002628   700000000000262829112024000000000219257341001360000002628                0900000000000010100000000000000000000000000000000000000   000000000000000000000000004        170192477882     
0010001300328U 060000000000000000000000000000000000000000000000000000000000000000000002192570000000002192570000000000000000000000000000002911202402122024            000000000000000                              000                           
0010001300329T 0601897X0000000092096 24778822400002632   700000000000263229112024000000000218501341000090000002632                0900000000000010100000000000000000000000000000000000000   000000000000000000000000004        170192477882     
0010001300330U 060000000000000000000000000000000000000000000000000000000000000000000002185010000000002185010000000000000000000000000000002911202402122024            000000000000000                              000                           
0010001300331T 0601897X0000000092096 24778822400002636   700000000000263629112024000000000217819748051340000002636                0900000000000010100000000000000000000000000000000000000   000000000000000000000000004        170192477882     
0010001300332U 060000000000000000000000000000000000000000000000000000000000000000000002178190000000002178190000000000000000000000000000002911202402122024            000000000000000                              000                           
0010001300333T 0601897X0000000092096 24778822400002644   700000000000264429112024000000000214604237019360000002644                0900000000000010100000000000000000000000000000000000000   000000000000000000000000004        170192477882     
0010001300334U 060000000000000000000000000000000000000000000000000000000000000000000002146040000000002146040000000000000000000000000000002911202402122024            000000000000000                              000                           
0010001300335T 0601897X0000000092096 24778822400002652   700000000000265229112024000000000210966001019135000002652                0900000000000010040000000000000000000000000000000000000   000000000000000000000000034        170192477882     
0010001300336U 060000000000000000000000000000000000000000000000000000000000000000000002109660000000002109660000000000000000000000000000002911202402122024            000000000000000                              000                           
0010001300337T 0601897X0000000092096 24778822400002660   700000000000266029112024000000000208225341009120000002660                0900000000000010100000000000000000000000000000000000000   000000000000000000000000004        170192477882     
0010001300338U 060000000000000000000000000000000000000000000000000000000000000000000002082250000000002082250000000000000000000000000000002911202402122024            000000000000000                              000                           
0010001300339T 0601897X0000000092096 24778822400002664   700000000000266429112024000000000207425341031000000002664                0900000000000010100000000000000000000000000000000000000   000000000000000000000000004        170192477882     
0010001300340U 060000000000000000000000000000000000000000000000000000000000000000000002074250000000002074250000000000000000000000000000002911202402122024            000000000000000                              000                           
0010001300341T 0601897X0000000092096 24778822400002668   700000000000266829112024000000000206386001030708000002668                0900000000000010090000000000000000000000000000000000000   000000000000000000000000006        170192477882     
0010001300342U 060000000000000000000000000000000000000000000000000000000000000000000002063860000000002063860000000000000000000000000000002911202402122024            000000000000000                              000                           
0010001300343T 0601897X0000000092096 24778822400002676   700000000000267629112024000000000205848033000100000002676                0900000000000010100000000000000000000000000000000000000   000000000000000000000000004        170192477882     
0010001300344U 060000000000000000000000000000000000000000000000000000000000000000000002058480000000002058480000000000000000000000000000002911202402122024            000000000000000                              000                           
0010001300345T 0601897X0000000092096 24778822400002692   700000000000269229112024000000000201457341032630000002692                0900000000000010100000000000000000000000000000000000000   000000000000000000000000004        170192477882     
0010001300346U 060000000000000000000000000000000000000000000000000000000000000000000002014570000000002014570000000000000000000000000000002911202402122024            000000000000000                              000                           
0010001300347T 0601897X0000000092096 24778822400002696   700000000000269629112024000000000200545001045276000002696                0900000000000010040000000000000000000000000000000000000   000000000000000000000000034        170192477882     
0010001300348U 060000000000000000000000000000000000000000000000000000000000000000000002005450000000002005450000000000000000000000000000002911202402122024            000000000000000                              000                           
0010001300349T 0601897X0000000092096 24778822400002700   700000000000270029112024000000000200458001030813000002700                0900000000000010090000000000000000000000000000000000000   000000000000000000000000006        170192477882     
0010001300350U 060000000000000000000000000000000000000000000000000000000000000000000002004580000000002004580000000000000000000000000000002911202402122024            000000000000000                              000                           
0010001300351T 0601897X0000000092096 24778822400002704   700000000000270429112024000000000199423104003340000002704                0900000000000010100000000000000000000000000000000000000   000000000000000000000000004        170192477882     
0010001300352U 060000000000000000000000000000000000000000000000000000000000000000000001994230000000001994230000000000000000000000000000002911202402122024            000000000000000                              000                           
0010001300353T 0601897X0000000092096 24778822400002708   700000000000270829112024000000000197969341013700000002708                0900000000000010100000000000000000000000000000000000000   000000000000000000000000004        170192477882     
0010001300354U 060000000000000000000000000000000000000000000000000000000000000000000001979690000000001979690000000000000000000000000000002911202402122024            000000000000000                              000                           
0010001300355T 0601897X0000000092096 24778822400002724   700000000000272429112024000000000190298341073720000002724                0900000000000010100000000000000000000000000000000000000   000000000000000000000000004        170192477882     
0010001300356U 060000000000000000000000000000000000000000000000000000000000000000000001902980000000001902980000000000000000000000000000002911202402122024            000000000000000                              000                           
0010001300357T 0601897X0000000092096 24778822400002732   700000000000273229112024000000000189521341000280000002732                0900000000000010100000000000000000000000000000000000000   000000000000000000000000004        170192477882     
0010001300358U 060000000000000000000000000000000000000000000000000000000000000000000001895210000000001895210000000000000000000000000000002911202402122024            000000000000000                              000                           
0010001300359T 0601897X0000000092096 24778822400002736   700000000000273629112024000000000184260341000560000002736                0900000000000010100000000000000000000000000000000000000   000000000000000000000000004        170192477882     
0010001300360U 060000000000000000000000000000000000000000000000000000000000000000000001842600000000001842600000000000000000000000000000002911202402122024            000000000000000                              000                           
0010001300361T 0601897X0000000092096 24778822400002740   700000000000274029112024000000000182979341091830000002740                0900000000000010100000000000000000000000000000000000000   000000000000000000000000004        170192477882     
0010001300362U 060000000000000000000000000000000000000000000000000000000000000000000001829790000000001829790000000000000000000000000000002911202402122024            000000000000000                              000                           
0010001300363T 0601897X0000000092096 24778822400002752   700000000000275229112024000000000182533341016190000002752                0900000000000010100000000000000000000000000000000000000   000000000000000000000000004        170192477882     
0010001300364U 060000000000000000000000000000000000000000000000000000000000000000000001825330000000001825330000000000000000000000000000002911202402122024            000000000000000                              000                           
0010001300365T 0601897X0000000092096 24778822400002760   700000000000276029112024000000000179934341004450000002760                0900000000000010100000000000000000000000000000000000000   000000000000000000000000004        170192477882     
0010001300366U 060000000000000000000000000000000000000000000000000000000000000000000001799340000000001799340000000000000000000000000000002911202402122024            000000000000000                              000                           
0010001300367T 0601897X0000000092096 24778822400002764   700000000000276429112024000000000179202341003780000002764                0900000000000010100000000000000000000000000000000000000   000000000000000000000000004        170192477882     
0010001300368U 060000000000000000000000000000000000000000000000000000000000000000000001792020000000001792020000000000000000000000000000002911202402122024            000000000000000                              000                           
0010001300369T 0601897X0000000092096 24778822400002768   700000000000276829112024000000000177633341000500000002768                0900000000000010100000000000000000000000000000000000000   000000000000000000000000004        170192477882     
0010001300370U 060000000000000000000000000000000000000000000000000000000000000000000001776330000000001776330000000000000000000000000000002911202402122024            000000000000000                              000                           
0010001300371T 0601897X0000000092096 24778822400002788   700000000000278829112024000000000170461341000280000002788                0900000000000010100000000000000000000000000000000000000   000000000000000000000000004        170192477882     
0010001300372U 060000000000000000000000000000000000000000000000000000000000000000000001704610000000001704610000000000000000000000000000002911202402122024            000000000000000                              000                           
0010001300373T 0601897X0000000092096 24778822400002792   700000000000279229112024000000000169073001034002000002792                0900000000000010040000000000000000000000000000000000000   000000000000000000000000034        170192477882     
0010001300374U 060000000000000000000000000000000000000000000000000000000000000000000001690730000000001690730000000000000000000000000000002911202402122024            000000000000000                              000                           
0010001300375T 0601897X0000000092096 24778822400002804   700000000000280429112024000000000166948341040050000002804                0900000000000010100000000000000000000000000000000000000   000000000000000000000000004        170192477882     
0010001300376U 060000000000000000000000000000000000000000000000000000000000000000000001669480000000001669480000000000000000000000000000002911202402122024            000000000000000                              000                           
0010001300377T 0601897X0000000092096 24778822400002812   700000000000281229112024000000000163134341002790000002812                0900000000000010100000000000000000000000000000000000000   000000000000000000000000004        170192477882     
0010001300378U 060000000000000000000000000000000000000000000000000000000000000000000001631340000000001631340000000000000000000000000000002911202402122024            000000000000000                              000                           
0010001300379T 0601897X0000000092096 24778822400002820   700000000000282029112024000000000162822756005030000002820                0900000000000010100000000000000000000000000000000000000   000000000000000000000000004        170192477882     
0010001300380U 060000000000000000000000000000000000000000000000000000000000000000000001628220000000001628220000000000000000000000000000002911202402122024            000000000000000                              000                           
0010001300381T 0601897X0000000092096 24778822400002824   700000000000282429112024000000000162556450000010000002824                0900000000000010100000000000000000000000000000000000000   000000000000000000000000004        170192477882     
0010001300382U 060000000000000000000000000000000000000000000000000000000000000000000001625560000000001625560000000000000000000000000000002911202402122024            000000000000000                              000                           
0010001300383T 0601897X0000000092096 24778822400002832   700000000000283229112024000000000162313341000500000002832                0900000000000010100000000000000000000000000000000000000   000000000000000000000000004        170192477882     
0010001300384U 060000000000000000000000000000000000000000000000000000000000000000000001623130000000001623130000000000000000000000000000002911202402122024            000000000000000                              000                           
0010001300385T 0601897X0000000092096 24778822400002836   700000000000283629112024000000000162177341086800000002836                0900000000000010100000000000000000000000000000000000000   000000000000000000000000004        170192477882     
0010001300386U 060000000000000000000000000000000000000000000000000000000000000000000001621770000000001621770000000000000000000000000000002911202402122024            000000000000000                              000                           
0010001300387T 0601897X0000000092096 24778822400002840   700000000000284029112024000000000159279001033626000002840                0900000000000010040000000000000000000000000000000000000   000000000000000000000000034        170192477882     
0010001300388U 060000000000000000000000000000000000000000000000000000000000000000000001592790000000001592790000000000000000000000000000002911202402122024            000000000000000                              000                           
0010001300389T 0601897X0000000092096 24778822400002848   700000000000284829112024000000000156264341001490000002848                0900000000000010100000000000000000000000000000000000000   000000000000000000000000004        170192477882     
0010001300390U 060000000000000000000000000000000000000000000000000000000000000000000001562640000000001562640000000000000000000000000000002911202402122024            000000000000000                              000                           
0010001300391T 0601897X0000000092096 24778822400002856   700000000000285629112024000000000153991001031496000002856                0900000000000010090000000000000000000000000000000000000   000000000000000000000000006        170192477882     
0010001300392U 060000000000000000000000000000000000000000000000000000000000000000000001539910000000001539910000000000000000000000000000002911202402122024            000000000000000                              000                           
0010001300393T 0601897X0000000092096 24778822400002860   700000000000286029112024000000000153102341000780000002860                0900000000000010100000000000000000000000000000000000000   000000000000000000000000004        170192477882     
0010001300394U 060000000000000000000000000000000000000000000000000000000000000000000001531020000000001531020000000000000000000000000000002911202402122024            000000000000000                              000                           
0010001300395T 0601897X0000000092096 24778822400002876   700000000000287629112024000000000149311237007120000002876                0900000000000010100000000000000000000000000000000000000   000000000000000000000000004        170192477882     
0010001300396U 060000000000000000000000000000000000000000000000000000000000000000000001493110000000001493110000000000000000000000000000002911202402122024            000000000000000                              000                           
0010001300397T 0601897X0000000092096 24778822400002880   700000000000288029112024000000000149172422000030000002880                0900000000000010100000000000000000000000000000000000000   000000000000000000000000004        170192477882     
0010001300398U 060000000000000000000000000000000000000000000000000000000000000000000001491720000000001491720000000000000000000000000000002911202402122024            000000000000000                              000                           
0010001300399T 0601897X0000000092096 24778822400002884   700000000000288429112024000000000148579756075860000002884                0900000000000010100000000000000000000000000000000000000   000000000000000000000000004        170192477882     
0010001300400U 060000000000000000000000000000000000000000000000000000000000000000000001485790000000001485790000000000000000000000000000002911202402122024            000000000000000                              000                           
0010001300401T 0601897X0000000092096 24778822400002888   700000000000288829112024000000000148506001031496000002888                0900000000000010040000000000000000000000000000000000000   000000000000000000000000034        170192477882     
0010001300402U 060000000000000000000000000000000000000000000000000000000000000000000001485060000000001485060000000000000000000000000000002911202402122024            000000000000000                              000                           
0010001300403T 0601897X0000000092096 24778822400002896   700000000000289629112024000000000147988341002570000002896                0900000000000010100000000000000000000000000000000000000   000000000000000000000000004        170192477882     
0010001300404U 060000000000000000000000000000000000000000000000000000000000000000000001479880000000001479880000000000000000000000000000002911202402122024            000000000000000                              000                           
0010001300405T 0601897X0000000092096 24778822400002908   700000000000290829112024000000000146384341001690000002908                0900000000000010100000000000000000000000000000000000000   000000000000000000000000004        170192477882     
0010001300406U 060000000000000000000000000000000000000000000000000000000000000000000001463840000000001463840000000000000000000000000000002911202402122024            000000000000000                              000                           
0010001300407T 0601897X0000000092096 24778822400002916   700000000000291629112024000000000146383748050300000002916                0900000000000010100000000000000000000000000000000000000   000000000000000000000000004        170192477882     
0010001300408U 060000000000000000000000000000000000000000000000000000000000000000000001463830000000001463830000000000000000000000000000002911202402122024            000000000000000                              000                           
0010001300409T 0601897X0000000092096 24778822400002920   700000000000292029112024000000000146383033031830000002920                0900000000000010100000000000000000000000000000000000000   000000000000000000000000004        170192477882     
0010001300410U 060000000000000000000000000000000000000000000000000000000000000000000001463830000000001463830000000000000000000000000000002911202402122024            000000000000000                              000                           
0010001300411T 0601897X0000000092096 24778822400002948   700000000000294829112024000000000142628001026565000002948                0900000000000010040000000000000000000000000000000000000   000000000000000000000000034        170192477882     
0010001300412U 060000000000000000000000000000000000000000000000000000000000000000000001426280000000001426280000000000000000000000000000002911202402122024            000000000000000                              000                           
