00100000         2115139610001160024778820014       01897X0000000092096 FUNDACAO AGENCIA DAS BACIAS HIBANCO DO BRASIL                         20512202402071600586503000000829973081PROCESSAMEN                                                 
00100011T0100020 20115139610001160024778820014       01897X0000000092096 FUNDACAO AGENCIA DAS BACIAS HI                                                                                000000000512202400000000  000000000                      
0010001300001T 0201897X0000000092096 24778829000008444   7000008444      31122024000000000107684001001678000008444                0900000000000010500000000000000000000000000000000000000   0000000000000000000000496A9A4      170192477882     
0010001300002U 020000000000000000000000000000000000000000000000000000000000000000000000000000000000000000000000000000000000000000000000000512202400000000            000000000000000                              000                           
0010001300003T 0601897X0000000092096 24778822400002369   700000000000236919122024000000000396398237030410000002369                0900000000000010100000000000000000000000000000000000000   000000000000000000000000004        170192477882     
0010001300004U 060000000000000000000000000000000000000000000000000000000000000000000003963980000000003963980000000000000000000000000000000512202406122024            000000000000000                              000                           
0010001300005T 0601897X0000000092096 24778822400002893   700000000000289319122024000000000148308001009741000002893                0900000000000010040000000000000000000000000000000000000   000000000000000000000000034        170192477882     
0010001300006U 060000000000000000000000000000000000000000000000000000000000000000000001483080000000001483080000000000000000000000000000000512202406122024            000000000000000                              000                           
0010001300007T 0601897X0000000092096 24778822400004769   700000000000476919122024000000000035571001024538000004769                0900000000000010040000000000000000000000000000000000000   000000000000000000000000034        170192477882     
0010001300008U 060000000000000000000000000000000000000000000000000000000000000000000000355710000000000355710000000000000000000000000000000512202406122024            000000000000000                              000                           
0010001300009T 0601897X0000000092096 24778822400005708   700000000000570829112024000000000021539033005350000005708                0900000000000010100000000000000000000000000000000000000   000000000000000000000000004        170192477882     
0010001300010U 060000000000004730000000000000000000000000000000000000000000000000000000220120000000000220120000000000000000000000000000000512202406122024            000000000000000                              000                           
0010001300011T 0601897X0000000092096 24778822400005845   700000000000584519122024000000000020252033000900000005845                0900000000000010100000000000000000000000000000000000000   000000000000000000000000004        170192477882     
0010001300012U 060000000000000000000000000000000000000000000000000000000000000000000000202520000000000202520000000000000000000000000000000512202406122024            000000000000000                              000                           
0010001300013T 0901897X0000000092096 24778822400001014   700000000000101431102024000000000029894001069833000001014                0900000000000000000000000000000000000000000000000000000   000000000000000000000037209        170192477882     
0010001300014U 090000000000000000000000000000000000000000000000000000000000000000000000000000000000000000000000000000000000000000000000000512202400000000            000000000000000                              000                           
0010001300015T 0901897X0000000092096 24778822400001028   700000000000102831102024000000000029277001003018000001028                0900000000000000000000000000000000000000000000000000000   000000000000000000000037209        170192477882     
0010001300016U 090000000000000000000000000000000000000000000000000000000000000000000000000000000000000000000000000000000000000000000000000512202400000000            000000000000000                              000                           
0010001300017T 0901897X0000000092096 24778822400001030   700000000000103031102024000000000029277001003549000001030                0900000000000000000000000000000000000000000000000000000   000000000000000000000037209        170192477882     
0010001300018U 090000000000000000000000000000000000000000000000000000000000000000000000000000000000000000000000000000000000000000000000000512202400000000            000000000000000                              000                           
0010001300019T 0901897X0000000092096 24778822400001032   70000000000010323110202400000000002927700101849X000001032                0900000000000000000000000000000000000000000000000000000   000000000000000000000037209        170192477882     
0010001300020U 090000000000000000000000000000000000000000000000000000000000000000000000000000000000000000000000000000000000000000000000000512202400000000            000000000000000                              000                           
0010001300021T 0901897X0000000092096 24778822400001034   700000000000103431102024000000000029277001003409000001034                0900000000000000000000000000000000000000000000000000000   000000000000000000000037209        170192477882     
0010001300022U 090000000000000000000000000000000000000000000000000000000000000000000000000000000000000000000000000000000000000000000000000512202400000000            000000000000000                              000                           
0010001300023T 0901897X0000000092096 24778822400001054   700000000000105431102024000000000029277001003409000001054                0900000000000000000000000000000000000000000000000000000   000000000000000000000037209        170192477882     
0010001300024U 090000000000000000000000000000000000000000000000000000000000000000000000000000000000000000000000000000000000000000000000000512202400000000            000000000000000                              000                           
0010001300025T 0901897X0000000092096 24778822400001062   700000000000106231102024000000000029277001001678000001062                0900000000000000000000000000000000000000000000000000000   000000000000000000000037209        170192477882     
0010001300026U 090000000000000000000000000000000000000000000000000000000000000000000000000000000000000000000000000000000000000000000000000512202400000000            000000000000000                              000                           
0010001300027T 0901897X0000000092096 24778822400001074   70000000000010743110202400000000002927700101849X000001074                0900000000000000000000000000000000000000000000000000000   000000000000000000000037209        170192477882     
0010001300028U 090000000000000000000000000000000000000000000000000000000000000000000000000000000000000000000000000000000000000000000000000512202400000000            000000000000000                              000                           
0010001300029T 0901897X0000000092096 24778822400001076   700000000000107631102024000000000029276001009946000001076                0900000000000000000000000000000000000000000000000000000   000000000000000000000037209        170192477882     
0010001300030U 090000000000000000000000000000000000000000000000000000000000000000000000000000000000000000000000000000000000000000000000000512202400000000            000000000000000                              000                           
0010001300031T 0901897X0000000092096 24778822400001090   700000000000109031102024000000000028820001009903000001090                0900000000000000000000000000000000000000000000000000000   000000000000000000000037209        170192477882     
0010001300032U 090000000000000000000000000000000000000000000000000000000000000000000000000000000000000000000000000000000000000000000000000512202400000000            000000000000000                              000                           
0010001300033T 0901897X0000000092096 24778822400001100   70000000000011003110202400000000002840700101849X000001100                0900000000000000000000000000000000000000000000000000000   000000000000000000000037209        170192477882     
0010001300034U 090000000000000000000000000000000000000000000000000000000000000000000000000000000000000000000000000000000000000000000000000512202400000000            000000000000000                              000                           
0010001300035T 0901897X0000000092096 24778822400001102   700000000000110231102024000000000028106001009296000001102                0900000000000000000000000000000000000000000000000000000   000000000000000000000037209        170192477882     
0010001300036U 090000000000000000000000000000000000000000000000000000000000000000000000000000000000000000000000000000000000000000000000000512202400000000            000000000000000                              000                           
0010001300037T 0901897X0000000092096 24778822400001116   70000000000011163110202400000000002754000101849X000001116                0900000000000000000000000000000000000000000000000000000   000000000000000000000037209        170192477882     
0010001300038U 090000000000000000000000000000000000000000000000000000000000000000000000000000000000000000000000000000000000000000000000000512202400000000            000000000000000                              000                           
0010001300039T 0901897X0000000092096 24778822400001118   700000000000111831102024000000000027540001023248000001118                0900000000000000000000000000000000000000000000000000000   000000000000000000000037209        170192477882     
0010001300040U 090000000000000000000000000000000000000000000000000000000000000000000000000000000000000000000000000000000000000000000000000512202400000000            000000000000000                              000                           
0010001300041T 0901897X0000000092096 24778822400001122   700000000000112231102024000000000027391001022004000001122                0900000000000000000000000000000000000000000000000000000   000000000000000000000037209        170192477882     
0010001300042U 090000000000000000000000000000000000000000000000000000000000000000000000000000000000000000000000000000000000000000000000000512202400000000            000000000000000                              000                           
0010001300043T 0901897X0000000092096 24778822400001138   700000000000113831102024000000000026612001006998000001138                0900000000000000000000000000000000000000000000000000000   000000000000000000000037209        170192477882     
0010001300044U 090000000000000000000000000000000000000000000000000000000000000000000000000000000000000000000000000000000000000000000000000512202400000000            000000000000000                              000                           
0010001300045T 0901897X0000000092096 24778822400001146   700000000000114631102024000000000026349001008117000001146                0900000000000000000000000000000000000000000000000000000   000000000000000000000037209        170192477882     
0010001300046U 090000000000000000000000000000000000000000000000000000000000000000000000000000000000000000000000000000000000000000000000000512202400000000            000000000000000                              000                           
0010001300047T 0901897X0000000092096 24778822400001148   700000000000114831102024000000000026349001009296000001148                0900000000000000000000000000000000000000000000000000000   000000000000000000000037209        170192477882     
0010001300048U 090000000000000000000000000000000000000000000000000000000000000000000000000000000000000000000000000000000000000000000000000512202400000000            000000000000000                              000                           
0010001300049T 0901897X0000000092096 24778822400001152   700000000000115231102024000000000026349001023248000001152                0900000000000000000000000000000000000000000000000000000   000000000000000000000037209        170192477882     
0010001300050U 090000000000000000000000000000000000000000000000000000000000000000000000000000000000000000000000000000000000000000000000000512202400000000            000000000000000                              000                           
0010001300051T 0901897X0000000092096 24778822400001160   70000000000011603110202400000000002627900101849X000001160                0900000000000000000000000000000000000000000000000000000   000000000000000000000037209        170192477882     
0010001300052U 090000000000000000000000000000000000000000000000000000000000000000000000000000000000000000000000000000000000000000000000000512202400000000            000000000000000                              000                           
0010001300053T 0901897X0000000092096 24778822400001168   70000000000011683110202400000000002619000101513X000001168                0900000000000000000000000000000000000000000000000000000   000000000000000000000037209        170192477882     
0010001300054U 090000000000000000000000000000000000000000000000000000000000000000000000000000000000000000000000000000000000000000000000000512202400000000            000000000000000                              000                           
0010001300055T 0901897X0000000092096 24778822400001180   700000000000118031102024000000000025885001009296000001180                0900000000000000000000000000000000000000000000000000000   000000000000000000000037209        170192477882     
0010001300056U 090000000000000000000000000000000000000000000000000000000000000000000000000000000000000000000000000000000000000000000000000512202400000000            000000000000000                              000                           
0010001300057T 0901897X0000000092096 24778822400001194   700000000000119431102024000000000025617001003190000001194                0900000000000000000000000000000000000000000000000000000   000000000000000000000037209        170192477882     
0010001300058U 090000000000000000000000000000000000000000000000000000000000000000000000000000000000000000000000000000000000000000000000000512202400000000            000000000000000                              000                           
0010001300059T 0901897X0000000092096 24778822400001198   700000000000119831102024000000000025617001022004000001198                0900000000000000000000000000000000000000000000000000000   000000000000000000000037209        170192477882     
0010001300060U 090000000000000000000000000000000000000000000000000000000000000000000000000000000000000000000000000000000000000000000000000512202400000000            000000000000000                              000                           
0010001300061T 0901897X0000000092096 24778822400001214   700000000000121431102024000000000025158001004154000001214                0900000000000000000000000000000000000000000000000000000   000000000000000000000037209        170192477882     
0010001300062U 090000000000000000000000000000000000000000000000000000000000000000000000000000000000000000000000000000000000000000000000000512202400000000            000000000000000                              000                           
0010001300063T 0901897X0000000092096 24778822400001222   700000000000122231102024000000000025071001001996000001222                0900000000000000000000000000000000000000000000000000000   000000000000000000000037209        170192477882     
0010001300064U 090000000000000000000000000000000000000000000000000000000000000000000000000000000000000000000000000000000000000000000000000512202400000000            000000000000000                              000                           
0010001300065T 0901897X0000000092096 24778822400001232   70000000000012323110202400000000002488600101849X000001232                0900000000000000000000000000000000000000000000000000000   000000000000000000000037209        170192477882     
0010001300066U 090000000000000000000000000000000000000000000000000000000000000000000000000000000000000000000000000000000000000000000000000512202400000000            000000000000000                              000                           
0010001300067T 0901897X0000000092096 24778822400001236   700000000000123631102024000000000024885001003018000001236                0900000000000000000000000000000000000000000000000000000   000000000000000000000037209        170192477882     
0010001300068U 090000000000000000000000000000000000000000000000000000000000000000000000000000000000000000000000000000000000000000000000000512202400000000            000000000000000                              000                           
0010001300069T 0901897X0000000092096 24778822400001246   700000000000124631102024000000000024593001003409000001246                0900000000000000000000000000000000000000000000000000000   000000000000000000000037209        170192477882     
0010001300070U 090000000000000000000000000000000000000000000000000000000000000000000000000000000000000000000000000000000000000000000000000512202400000000            000000000000000                              000                           
0010001300071T 0901897X0000000092096 24778822400001252   70000000000012523110202400000000002415400101849X000001252                0900000000000000000000000000000000000000000000000000000   000000000000000000000037209        170192477882     
0010001300072U 090000000000000000000000000000000000000000000000000000000000000000000000000000000000000000000000000000000000000000000000000512202400000000            000000000000000                              000                           
0010001300073T 0901897X0000000092096 24778822400001256   700000000000125631102024000000000024154001003018000001256                0900000000000000000000000000000000000000000000000000000   000000000000000000000037209        170192477882     
0010001300074U 090000000000000000000000000000000000000000000000000000000000000000000000000000000000000000000000000000000000000000000000000512202400000000            000000000000000                              000                           
0010001300075T 0901897X0000000092096 24778822400001260   700000000000126031102024000000000024106001069833000001260                0900000000000000000000000000000000000000000000000000000   000000000000000000000037209        170192477882     
0010001300076U 090000000000000000000000000000000000000000000000000000000000000000000000000000000000000000000000000000000000000000000000000512202400000000            000000000000000                              000                           
0010001300077T 0901897X0000000092096 24778822400001270   70000000000012703110202400000000002389200101849X000001270                0900000000000000000000000000000000000000000000000000000   000000000000000000000037209        170192477882     
0010001300078U 090000000000000000000000000000000000000000000000000000000000000000000000000000000000000000000000000000000000000000000000000512202400000000            000000000000000                              000                           
0010001300079T 0901897X0000000092096 24778822400001286   700000000000128631102024000000000023484001008117000001286                0900000000000000000000000000000000000000000000000000000   000000000000000000000037209        170192477882     
0010001300080U 090000000000000000000000000000000000000000000000000000000000000000000000000000000000000000000000000000000000000000000000000512202400000000            000000000000000                              000                           
0010001300081T 0901897X0000000092096 24778822400001290   700000000000129031102024000000000023422001000566000001290                0900000000000000000000000000000000000000000000000000000   000000000000000000000037209        170192477882     
0010001300082U 090000000000000000000000000000000000000000000000000000000000000000000000000000000000000000000000000000000000000000000000000512202400000000            000000000000000                              000                           
0010001300083T 0901897X0000000092096 24778822400001292   70000000000012923110202400000000002342100101513X000001292                0900000000000000000000000000000000000000000000000000000   000000000000000000000037209        170192477882     
0010001300084U 090000000000000000000000000000000000000000000000000000000000000000000000000000000000000000000000000000000000000000000000000512202400000000            000000000000000                              000                           
0010001300085T 0901897X0000000092096 24778822400001298   700000000000129831102024000000000023275001001724000001298                0900000000000000000000000000000000000000000000000000000   000000000000000000000037209        170192477882     
0010001300086U 090000000000000000000000000000000000000000000000000000000000000000000000000000000000000000000000000000000000000000000000000512202400000000            000000000000000                              000                           
0010001300087T 0901897X0000000092096 24778822400001312   700000000000131231102024000000000022936001003409000001312                0900000000000000000000000000000000000000000000000000000   000000000000000000000037209        170192477882     
0010001300088U 090000000000000000000000000000000000000000000000000000000000000000000000000000000000000000000000000000000000000000000000000512202400000000            000000000000000                              000                           
0010001300089T 0901897X0000000092096 24778822400001320   70000000000013203110202400000000002274000100216X000001320                0900000000000000000000000000000000000000000000000000000   000000000000000000000037209        170192477882     
0010001300090U 090000000000000000000000000000000000000000000000000000000000000000000000000000000000000000000000000000000000000000000000000512202400000000            000000000000000                              000                           
0010001300091T 0901897X0000000092096 24778822400001322   700000000000132231102024000000000022690001004154000001322                0900000000000000000000000000000000000000000000000000000   000000000000000000000037209        170192477882     
0010001300092U 090000000000000000000000000000000000000000000000000000000000000000000000000000000000000000000000000000000000000000000000000512202400000000            000000000000000                              000                           
0010001300093T 0901897X0000000092096 24778822400001328   70000000000013283110202400000000002255500101513X000001328                0900000000000000000000000000000000000000000000000000000   000000000000000000000037209        170192477882     
0010001300094U 090000000000000000000000000000000000000000000000000000000000000000000000000000000000000000000000000000000000000000000000000512202400000000            000000000000000                              000                           
0010001300095T 0901897X0000000092096 24778822400001330   700000000000133031102024000000000022414001006998000001330                0900000000000000000000000000000000000000000000000000000   000000000000000000000037209        170192477882     
0010001300096U 090000000000000000000000000000000000000000000000000000000000000000000000000000000000000000000000000000000000000000000000000512202400000000            000000000000000                              000                           
0010001300097T 0901897X0000000092096 24778822400001334   70000000000013343110202400000000002226600101513X000001334                0900000000000000000000000000000000000000000000000000000   000000000000000000000037209        170192477882     
0010001300098U 090000000000000000000000000000000000000000000000000000000000000000000000000000000000000000000000000000000000000000000000000512202400000000            000000000000000                              000                           
0010001300099T 0901897X0000000092096 24778822400001336   700000000000133631102024000000000022251001003018000001336                0900000000000000000000000000000000000000000000000000000   000000000000000000000037209        170192477882     
0010001300100U 090000000000000000000000000000000000000000000000000000000000000000000000000000000000000000000000000000000000000000000000000512202400000000            000000000000000                              000                           
0010001300101T 0901897X0000000092096 24778822400001342   700000000000134231102024000000000021990001003018000001342                0900000000000000000000000000000000000000000000000000000   000000000000000000000037209        170192477882     
0010001300102U 090000000000000000000000000000000000000000000000000000000000000000000000000000000000000000000000000000000000000000000000000512202400000000            000000000000000                              000                           
0010001300103T 0901897X0000000092096 24778822400001346   700000000000134631102024000000000021958001014753000001346                0900000000000000000000000000000000000000000000000000000   000000000000000000000037209        170192477882     
0010001300104U 090000000000000000000000000000000000000000000000000000000000000000000000000000000000000000000000000000000000000000000000000512202400000000            000000000000000                              000                           
0010001300105T 0901897X0000000092096 24778822400001348   700000000000134831102024000000000021957001001678000001348                0900000000000000000000000000000000000000000000000000000   000000000000000000000037209        170192477882     
0010001300106U 090000000000000000000000000000000000000000000000000000000000000000000000000000000000000000000000000000000000000000000000000512202400000000            000000000000000                              000                           
0010001300107T 0901897X0000000092096 24778822400001350   700000000000135031102024000000000021957001003409000001350                0900000000000000000000000000000000000000000000000000000   000000000000000000000037209        170192477882     
0010001300108U 090000000000000000000000000000000000000000000000000000000000000000000000000000000000000000000000000000000000000000000000000512202400000000            000000000000000                              000                           
0010001300109T 0901897X0000000092096 24778822400001354   700000000000135431102024000000000021957001026565000001354                0900000000000000000000000000000000000000000000000000000   000000000000000000000037209        170192477882     
0010001300110U 090000000000000000000000000000000000000000000000000000000000000000000000000000000000000000000000000000000000000000000000000512202400000000            000000000000000                              000                           
0010001300111T 0901897X0000000092096 24778822400001362   700000000000136231102024000000000021957001003190000001362                0900000000000000000000000000000000000000000000000000000   000000000000000000000037209        170192477882     
0010001300112U 090000000000000000000000000000000000000000000000000000000000000000000000000000000000000000000000000000000000000000000000000512202400000000            000000000000000                              000                           
0010001300113T 0901897X0000000092096 24778822400001364   700000000000136431102024000000000021957001000566000001364                0900000000000000000000000000000000000000000000000000000   000000000000000000000037209        170192477882     
0010001300114U 090000000000000000000000000000000000000000000000000000000000000000000000000000000000000000000000000000000000000000000000000512202400000000            000000000000000                              000                           
0010001300115T 0901897X0000000092096 24778822400001368   700000000000136831102024000000000021957001003018000001368                0900000000000000000000000000000000000000000000000000000   000000000000000000000037209        170192477882     
0010001300116U 090000000000000000000000000000000000000000000000000000000000000000000000000000000000000000000000000000000000000000000000000512202400000000            000000000000000                              000                           
0010001300117T 0901897X0000000092096 24778822400001370   700000000000137031102024000000000021957001006998000001370                0900000000000000000000000000000000000000000000000000000   000000000000000000000037209        170192477882     
0010001300118U 090000000000000000000000000000000000000000000000000000000000000000000000000000000000000000000000000000000000000000000000000512202400000000            000000000000000                              000                           
0010001300119T 0901897X0000000092096 24778822400001372   700000000000137231102024000000000021957001022586000001372                0900000000000000000000000000000000000000000000000000000   000000000000000000000037209        170192477882     
0010001300120U 090000000000000000000000000000000000000000000000000000000000000000000000000000000000000000000000000000000000000000000000000512202400000000            000000000000000                              000                           
0010001300121T 0901897X0000000092096 24778822400001384   70000000000013843110202400000000002195700100216X000001384                0900000000000000000000000000000000000000000000000000000   000000000000000000000037209        170192477882     
0010001300122U 090000000000000000000000000000000000000000000000000000000000000000000000000000000000000000000000000000000000000000000000000512202400000000            000000000000000                              000                           
0010001300123T 0901897X0000000092096 24778822400001386   700000000000138631102024000000000021957001003409000001386                0900000000000000000000000000000000000000000000000000000   000000000000000000000037209        170192477882     
0010001300124U 090000000000000000000000000000000000000000000000000000000000000000000000000000000000000000000000000000000000000000000000000512202400000000            000000000000000                              000                           
0010001300125T 0901897X0000000092096 24778822400001390   700000000000139031102024000000000021957001007994000001390                0900000000000000000000000000000000000000000000000000000   000000000000000000000037209        170192477882     
0010001300126U 090000000000000000000000000000000000000000000000000000000000000000000000000000000000000000000000000000000000000000000000000512202400000000            000000000000000                              000                           
0010001300127T 0901897X0000000092096 24778822400001392   70000000000013923110202400000000002195700101849X000001392                0900000000000000000000000000000000000000000000000000000   000000000000000000000037209        170192477882     
0010001300128U 090000000000000000000000000000000000000000000000000000000000000000000000000000000000000000000000000000000000000000000000000512202400000000            000000000000000                              000                           
0010001300129T 0901897X0000000092096 24778822400001398   700000000000139831102024000000000021957001000566000001398                0900000000000000000000000000000000000000000000000000000   000000000000000000000037209        170192477882     
0010001300130U 090000000000000000000000000000000000000000000000000000000000000000000000000000000000000000000000000000000000000000000000000512202400000000            000000000000000                              000                           
0010001300131T 0901897X0000000092096 24778822400001400   700000000000140031102024000000000021957001004154000001400                0900000000000000000000000000000000000000000000000000000   000000000000000000000037209        170192477882     
0010001300132U 090000000000000000000000000000000000000000000000000000000000000000000000000000000000000000000000000000000000000000000000000512202400000000            000000000000000                              000                           
0010001300133T 0901897X0000000092096 24778822400001402   700000000000140231102024000000000021957001041467000001402                0900000000000000000000000000000000000000000000000000000   000000000000000000000037209        170192477882     
0010001300134U 090000000000000000000000000000000000000000000000000000000000000000000000000000000000000000000000000000000000000000000000000512202400000000            000000000000000                              000                           
0010001300135T 0901897X0000000092096 24778822400001404   700000000000140431102024000000000021923001009903000001404                0900000000000000000000000000000000000000000000000000000   000000000000000000000037209        170192477882     
0010001300136U 090000000000000000000000000000000000000000000000000000000000000000000000000000000000000000000000000000000000000000000000000512202400000000            000000000000000                              000                           
0010001300137T 0901897X0000000092096 24778822400001406   70000000000014063110202400000000002191200101849X000001406                0900000000000000000000000000000000000000000000000000000   000000000000000000000037209        170192477882     
0010001300138U 090000000000000000000000000000000000000000000000000000000000000000000000000000000000000000000000000000000000000000000000000512202400000000            000000000000000                              000                           
0010001300139T 0901897X0000000092096 24778822400001416   700000000000141631102024000000000021731001001678000001416                0900000000000000000000000000000000000000000000000000000   000000000000000000000037209        170192477882     
0010001300140U 090000000000000000000000000000000000000000000000000000000000000000000000000000000000000000000000000000000000000000000000000512202400000000            000000000000000                              000                           
0010001300141T 0901897X0000000092096 24778822400001418   700000000000141831102024000000000021657001003409000001418                0900000000000000000000000000000000000000000000000000000   000000000000000000000037209        170192477882     
0010001300142U 090000000000000000000000000000000000000000000000000000000000000000000000000000000000000000000000000000000000000000000000000512202400000000            000000000000000                              000                           
0010001300143T 0901897X0000000092096 24778822400001420   70000000000014203110202400000000002151900101849X000001420                0900000000000000000000000000000000000000000000000000000   000000000000000000000037209        170192477882     
0010001300144U 090000000000000000000000000000000000000000000000000000000000000000000000000000000000000000000000000000000000000000000000000512202400000000            000000000000000                              000                           
0010001300145T 0901897X0000000092096 24778822400001428   700000000000142831102024000000000021375001009946000001428                0900000000000000000000000000000000000000000000000000000   000000000000000000000037209        170192477882     
0010001300146U 090000000000000000000000000000000000000000000000000000000000000000000000000000000000000000000000000000000000000000000000000512202400000000            000000000000000                              000                           
0010001300147T 0901897X0000000092096 24778822400001430   70000000000014303110202400000000002136400100216X000001430                0900000000000000000000000000000000000000000000000000000   000000000000000000000037209        170192477882     
0010001300148U 090000000000000000000000000000000000000000000000000000000000000000000000000000000000000000000000000000000000000000000000000512202400000000            000000000000000                              000                           
0010001300149T 0901897X0000000092096 24778822400001434   700000000000143431102024000000000021324001024279000001434                0900000000000000000000000000000000000000000000000000000   000000000000000000000037209        170192477882     
0010001300150U 090000000000000000000000000000000000000000000000000000000000000000000000000000000000000000000000000000000000000000000000000512202400000000            000000000000000                              000                           
0010001300151T 0901897X0000000092096 24778822400001436   70000000000014363110202400000000002130000101849X000001436                0900000000000000000000000000000000000000000000000000000   000000000000000000000037209        170192477882     
0010001300152U 090000000000000000000000000000000000000000000000000000000000000000000000000000000000000000000000000000000000000000000000000512202400000000            000000000000000                              000                           
0010001300153T 0901897X0000000092096 24778822400001444   700000000000144431102024000000000021226001004278000001444                0900000000000000000000000000000000000000000000000000000   000000000000000000000037209        170192477882     
0010001300154U 090000000000000000000000000000000000000000000000000000000000000000000000000000000000000000000000000000000000000000000000000512202400000000            000000000000000                              000                           
0010001300155T 0901897X0000000092096 24778822400001448   70000000000014483110202400000000002117600101849X000001448                0900000000000000000000000000000000000000000000000000000   000000000000000000000037209        170192477882     
0010001300156U 090000000000000000000000000000000000000000000000000000000000000000000000000000000000000000000000000000000000000000000000000512202400000000            000000000000000                              000                           
0010001300157T 0901897X0000000092096 24778822400001450   700000000000145031102024000000000021133001003409000001450                0900000000000000000000000000000000000000000000000000000   000000000000000000000037209        170192477882     
0010001300158U 090000000000000000000000000000000000000000000000000000000000000000000000000000000000000000000000000000000000000000000000000512202400000000            000000000000000                              000                           
0010001300159T 0901897X0000000092096 24778822400001454   700000000000145431102024000000000020902001004561000001454                0900000000000000000000000000000000000000000000000000000   000000000000000000000037209        170192477882     
0010001300160U 090000000000000000000000000000000000000000000000000000000000000000000000000000000000000000000000000000000000000000000000000512202400000000            000000000000000                              000                           
0010001300161T 0901897X0000000092096 24778822400001468   700000000000146831102024000000000020634001004154000001468                0900000000000000000000000000000000000000000000000000000   000000000000000000000037209        170192477882     
0010001300162U 090000000000000000000000000000000000000000000000000000000000000000000000000000000000000000000000000000000000000000000000000512202400000000            000000000000000                              000                           
0010001300163T 0901897X0000000092096 24778822400001474   70000000000014743110202400000000002049400101849X000001474                0900000000000000000000000000000000000000000000000000000   000000000000000000000037209        170192477882     
0010001300164U 090000000000000000000000000000000000000000000000000000000000000000000000000000000000000000000000000000000000000000000000000512202400000000            000000000000000                              000                           
0010001300165T 0901897X0000000092096 24778822400001478   700000000000147831102024000000000020494001026565000001478                0900000000000000000000000000000000000000000000000000000   000000000000000000000037209        170192477882     
0010001300166U 090000000000000000000000000000000000000000000000000000000000000000000000000000000000000000000000000000000000000000000000000512202400000000            000000000000000                              000                           
0010001300167T 0901897X0000000092096 24778822400001480   700000000000148031102024000000000020494001003018000001480                0900000000000000000000000000000000000000000000000000000   000000000000000000000037209        170192477882     
0010001300168U 090000000000000000000000000000000000000000000000000000000000000000000000000000000000000000000000000000000000000000000000000512202400000000            000000000000000                              000                           
0010001300169T 0901897X0000000092096 24778822400001482   700000000000148231102024000000000020494001000566000001482                0900000000000000000000000000000000000000000000000000000   000000000000000000000037209        170192477882     
0010001300170U 090000000000000000000000000000000000000000000000000000000000000000000000000000000000000000000000000000000000000000000000000512202400000000            000000000000000                              000                           
0010001300171T 0901897X0000000092096 24778822400001488   700000000000148831102024000000000020386001045888000001488                0900000000000000000000000000000000000000000000000000000   000000000000000000000037209        170192477882     
0010001300172U 090000000000000000000000000000000000000000000000000000000000000000000000000000000000000000000000000000000000000000000000000512202400000000            000000000000000                              000                           
0010001300173T 0901897X0000000092096 24778822400001490   700000000000149031102024000000000020335001003409000001490                0900000000000000000000000000000000000000000000000000000   000000000000000000000037209        170192477882     
0010001300174U 090000000000000000000000000000000000000000000000000000000000000000000000000000000000000000000000000000000000000000000000000512202400000000            000000000000000                              000                           
0010001300175T 0901897X0000000092096 24778822400001498   700000000000149831102024000000000020213001022004000001498                0900000000000000000000000000000000000000000000000000000   000000000000000000000037209        170192477882     
0010001300176U 090000000000000000000000000000000000000000000000000000000000000000000000000000000000000000000000000000000000000000000000000512202400000000            000000000000000                              000                           
0010001300177T 0901897X0000000092096 24778822400001500   700000000000150031102024000000000020128001004561000001500                0900000000000000000000000000000000000000000000000000000   000000000000000000000037209        170192477882     
0010001300178U 090000000000000000000000000000000000000000000000000000000000000000000000000000000000000000000000000000000000000000000000000512202400000000            000000000000000                              000                           
0010001300179T 0901897X0000000092096 24778822400001513   70000000000015133110202400000000002642900100295X000001513                0900000000000000000000000000000000000000000000000000000   000000000000000000000037209        170192477882     
0010001300180U 090000000000000000000000000000000000000000000000000000000000000000000000000000000000000000000000000000000000000000000000000512202400000000            000000000000000                              000                           
0010001300181T 0901897X0000000092096 24778822400001525   70000000000015253110202400000000002634900100216X000001525                0900000000000000000000000000000000000000000000000000000   000000000000000000000037209        170192477882     
0010001300182U 090000000000000000000000000000000000000000000000000000000000000000000000000000000000000000000000000000000000000000000000000512202400000000            000000000000000                              000                           
0010001300183T 0901897X0000000092096 24778822400001531   70000000000015313110202400000000002604300101513X000001531                0900000000000000000000000000000000000000000000000000000   000000000000000000000037209        170192477882     
0010001300184U 090000000000000000000000000000000000000000000000000000000000000000000000000000000000000000000000000000000000000000000000000512202400000000            000000000000000                              000                           
0010001300185T 0901897X0000000092096 24778822400001537   70000000000015373110202400000000002590500101849X000001537                0900000000000000000000000000000000000000000000000000000   000000000000000000000037209        170192477882     
0010001300186U 090000000000000000000000000000000000000000000000000000000000000000000000000000000000000000000000000000000000000000000000000512202400000000            000000000000000                              000                           
0010001300187T 0901897X0000000092096 24778822400001540   70000000000015403110202400000000002587900101849X000001540                0900000000000000000000000000000000000000000000000000000   000000000000000000000037209        170192477882     
0010001300188U 090000000000000000000000000000000000000000000000000000000000000000000000000000000000000000000000000000000000000000000000000512202400000000            000000000000000                              000                           
0010001300189T 0901897X0000000092096 24778822400001552   700000000000155231102024000000000025688001001724000001552                0900000000000000000000000000000000000000000000000000000   000000000000000000000037209        170192477882     
0010001300190U 090000000000000000000000000000000000000000000000000000000000000000000000000000000000000000000000000000000000000000000000000512202400000000            000000000000000                              000                           
0010001300191T 0901897X0000000092096 24778822400001555   700000000000155531102024000000000025649001014753000001555                0900000000000000000000000000000000000000000000000000000   000000000000000000000037209        170192477882     
0010001300192U 090000000000000000000000000000000000000000000000000000000000000000000000000000000000000000000000000000000000000000000000000512202400000000            000000000000000                              000                           
0010001300193T 0901897X0000000092096 24778822400001561   700000000000156131102024000000000025498001001724000001561                0900000000000000000000000000000000000000000000000000000   000000000000000000000037209        170192477882     
0010001300194U 090000000000000000000000000000000000000000000000000000000000000000000000000000000000000000000000000000000000000000000000000512202400000000            000000000000000                              000                           
0010001300195T 0901897X0000000092096 24778822400001567   700000000000156731102024000000000025373001003409000001567                0900000000000000000000000000000000000000000000000000000   000000000000000000000037209        170192477882     
0010001300196U 090000000000000000000000000000000000000000000000000000000000000000000000000000000000000000000000000000000000000000000000000512202400000000            000000000000000                              000                           
0010001300197T 0901897X0000000092096 24778822400001582   70000000000015823110202400000000002493700101849X000001582                0900000000000000000000000000000000000000000000000000000   000000000000000000000037209        170192477882     
0010001300198U 090000000000000000000000000000000000000000000000000000000000000000000000000000000000000000000000000000000000000000000000000512202400000000            000000000000000                              000                           
0010001300199T 0901897X0000000092096 24778822400001591   700000000000159131102024000000000024885001001724000001591                0900000000000000000000000000000000000000000000000000000   000000000000000000000037209        170192477882     
0010001300200U 090000000000000000000000000000000000000000000000000000000000000000000000000000000000000000000000000000000000000000000000000512202400000000            000000000000000                              000                           
0010001300201T 0901897X0000000092096 24778822400001594   700000000000159431102024000000000024705001009296000001594                0900000000000000000000000000000000000000000000000000000   000000000000000000000037209        170192477882     
0010001300202U 090000000000000000000000000000000000000000000000000000000000000000000000000000000000000000000000000000000000000000000000000512202400000000            000000000000000                              000                           
0010001300203T 0901897X0000000092096 24778822400001600   700000000000160031102024000000000024592001008117000001600                0900000000000000000000000000000000000000000000000000000   000000000000000000000037209        170192477882     
0010001300204U 090000000000000000000000000000000000000000000000000000000000000000000000000000000000000000000000000000000000000000000000000512202400000000            000000000000000                              000                           
0010001300205T 0901897X0000000092096 24778822400001606   700000000000160631102024000000000024478001001678000001606                0900000000000000000000000000000000000000000000000000000   000000000000000000000037209        170192477882     
0010001300206U 090000000000000000000000000000000000000000000000000000000000000000000000000000000000000000000000000000000000000000000000000512202400000000            000000000000000                              000                           
0010001300207T 0901897X0000000092096 24778822400001609   70000000000016093110202400000000002447100101849X000001609                0900000000000000000000000000000000000000000000000000000   000000000000000000000037209        170192477882     
0010001300208U 090000000000000000000000000000000000000000000000000000000000000000000000000000000000000000000000000000000000000000000000000512202400000000            000000000000000                              000                           
0010001300209T 0901897X0000000092096 24778822400001624   700000000000162431102024000000000024397001069833000001624                0900000000000000000000000000000000000000000000000000000   000000000000000000000037209        170192477882     
0010001300210U 090000000000000000000000000000000000000000000000000000000000000000000000000000000000000000000000000000000000000000000000000512202400000000            000000000000000                              000                           
0010001300211T 0901897X0000000092096 24778822400001633   700000000000163331102024000000000024397001022586000001633                0900000000000000000000000000000000000000000000000000000   000000000000000000000037209        170192477882     
0010001300212U 090000000000000000000000000000000000000000000000000000000000000000000000000000000000000000000000000000000000000000000000000512202400000000            000000000000000                              000                           
0010001300213T 0901897X0000000092096 24778822400001645   700000000000164531102024000000000024397001069833000001645                0900000000000000000000000000000000000000000000000000000   000000000000000000000037209        170192477882     
0010001300214U 090000000000000000000000000000000000000000000000000000000000000000000000000000000000000000000000000000000000000000000000000512202400000000            000000000000000                              000                           
0010001300215T 0901897X0000000092096 24778822400001651   700000000000165131102024000000000024397001004561000001651                0900000000000000000000000000000000000000000000000000000   000000000000000000000037209        170192477882     
0010001300216U 090000000000000000000000000000000000000000000000000000000000000000000000000000000000000000000000000000000000000000000000000512202400000000            000000000000000                              000                           
0010001300217T 0901897X0000000092096 24778822400001657   70000000000016573110202400000000002439700101849X000001657                0900000000000000000000000000000000000000000000000000000   000000000000000000000037209        170192477882     
0010001300218U 090000000000000000000000000000000000000000000000000000000000000000000000000000000000000000000000000000000000000000000000000512202400000000            000000000000000                              000                           
0010001300219T 0901897X0000000092096 24778822400001663   700000000000166331102024000000000024397001003190000001663                0900000000000000000000000000000000000000000000000000000   000000000000000000000037209        170192477882     
0010001300220U 090000000000000000000000000000000000000000000000000000000000000000000000000000000000000000000000000000000000000000000000000512202400000000            000000000000000                              000                           
0010001300221T 0901897X0000000092096 24778822400001666   700000000000166631102024000000000024344001000566000001666                0900000000000000000000000000000000000000000000000000000   000000000000000000000037209        170192477882     
0010001300222U 090000000000000000000000000000000000000000000000000000000000000000000000000000000000000000000000000000000000000000000000000512202400000000            000000000000000                              000                           
0010001300223T 0901897X0000000092096 24778822400001687   700000000000168731102024000000000023974001000566000001687                0900000000000000000000000000000000000000000000000000000   000000000000000000000037209        170192477882     
0010001300224U 090000000000000000000000000000000000000000000000000000000000000000000000000000000000000000000000000000000000000000000000000512202400000000            000000000000000                              000                           
0010001300225T 0901897X0000000092096 24778822400001690   70000000000016903110202400000000002397400101849X000001690                0900000000000000000000000000000000000000000000000000000   000000000000000000000037209        170192477882     
0010001300226U 090000000000000000000000000000000000000000000000000000000000000000000000000000000000000000000000000000000000000000000000000512202400000000            000000000000000                              000                           
0010001300227T 0901897X0000000092096 24778822400001720   70000000000017203110202400000000002352300101849X000001720                0900000000000000000000000000000000000000000000000000000   000000000000000000000037209        170192477882     
0010001300228U 090000000000000000000000000000000000000000000000000000000000000000000000000000000000000000000000000000000000000000000000000512202400000000            000000000000000                              000                           
0010001300229T 0901897X0000000092096 24778822400001741   700000000000174131102024000000000023421001026565000001741                0900000000000000000000000000000000000000000000000000000   000000000000000000000037209        170192477882     
0010001300230U 090000000000000000000000000000000000000000000000000000000000000000000000000000000000000000000000000000000000000000000000000512202400000000            000000000000000                              000                           
0010001300231T 0901897X0000000092096 24778822400001744   700000000000174431102024000000000023377001001724000001744                0900000000000000000000000000000000000000000000000000000   000000000000000000000037209        170192477882     
0010001300232U 090000000000000000000000000000000000000000000000000000000000000000000000000000000000000000000000000000000000000000000000000512202400000000            000000000000000                              000                           
0010001300233T 0901897X0000000092096 24778822400001756   700000000000175631102024000000000023197001008117000001756                0900000000000000000000000000000000000000000000000000000   000000000000000000000037209        170192477882     
0010001300234U 090000000000000000000000000000000000000000000000000000000000000000000000000000000000000000000000000000000000000000000000000512202400000000            000000000000000                              000                           
0010001300235T 0901897X0000000092096 24778822400001768   700000000000176831102024000000000023156001003018000001768                0900000000000000000000000000000000000000000000000000000   000000000000000000000037209        170192477882     
0010001300236U 090000000000000000000000000000000000000000000000000000000000000000000000000000000000000000000000000000000000000000000000000512202400000000            000000000000000                              000                           
0010001300237T 0901897X0000000092096 24778822400001774   700000000000177431102024000000000023117001029238000001774                0900000000000000000000000000000000000000000000000000000   000000000000000000000037209        170192477882     
0010001300238U 090000000000000000000000000000000000000000000000000000000000000000000000000000000000000000000000000000000000000000000000000512202400000000            000000000000000                              000                           
0010001300239T 0901897X0000000092096 24778822400001789   700000000000178931102024000000000023024001009903000001789                0900000000000000000000000000000000000000000000000000000   000000000000000000000037209        170192477882     
0010001300240U 090000000000000000000000000000000000000000000000000000000000000000000000000000000000000000000000000000000000000000000000000512202400000000            000000000000000                              000                           
0010001300241T 0901897X0000000092096 24778822400001792   700000000000179231102024000000000022915001003018000001792                0900000000000000000000000000000000000000000000000000000   000000000000000000000037209        170192477882     
0010001300242U 090000000000000000000000000000000000000000000000000000000000000000000000000000000000000000000000000000000000000000000000000512202400000000            000000000000000                              000                           
0010001300243T 0901897X0000000092096 24778822400001810   700000000000181031102024000000000022638001014753000001810                0900000000000000000000000000000000000000000000000000000   000000000000000000000037209        170192477882     
0010001300244U 090000000000000000000000000000000000000000000000000000000000000000000000000000000000000000000000000000000000000000000000000512202400000000            000000000000000                              000                           
0010001300245T 0901897X0000000092096 24778822400001813   700000000000181331102024000000000022627001009946000001813                0900000000000000000000000000000000000000000000000000000   000000000000000000000037209        170192477882     
0010001300246U 090000000000000000000000000000000000000000000000000000000000000000000000000000000000000000000000000000000000000000000000000512202400000000            000000000000000                              000                           
0010001300247T 0901897X0000000092096 24778822400001825   700000000000182531102024000000000022234001003409000001825                0900000000000000000000000000000000000000000000000000000   000000000000000000000037209        170192477882     
0010001300248U 090000000000000000000000000000000000000000000000000000000000000000000000000000000000000000000000000000000000000000000000000512202400000000            000000000000000                              000                           
0010001300249T 0901897X0000000092096 24778822400001831   700000000000183131102024000000000022024001000310000001831                0900000000000000000000000000000000000000000000000000000   000000000000000000000037209        170192477882     
0010001300250U 090000000000000000000000000000000000000000000000000000000000000000000000000000000000000000000000000000000000000000000000000512202400000000            000000000000000                              000                           
0010001300251T 0901897X0000000092096 24778822400001834   700000000000183431102024000000000022004001003190000001834                0900000000000000000000000000000000000000000000000000000   000000000000000000000037209        170192477882     
0010001300252U 090000000000000000000000000000000000000000000000000000000000000000000000000000000000000000000000000000000000000000000000000512202400000000            000000000000000                              000                           
0010001300253T 0901897X0000000092096 24778822400001843   700000000000184331102024000000000021958001006998000001843                0900000000000000000000000000000000000000000000000000000   000000000000000000000037209        170192477882     
0010001300254U 090000000000000000000000000000000000000000000000000000000000000000000000000000000000000000000000000000000000000000000000000512202400000000            000000000000000                              000                           
0010001300255T 0901897X0000000092096 24778822400001858   700000000000185831102024000000000021958001009946000001858                0900000000000000000000000000000000000000000000000000000   000000000000000000000037209        170192477882     
0010001300256U 090000000000000000000000000000000000000000000000000000000000000000000000000000000000000000000000000000000000000000000000000512202400000000            000000000000000                              000                           
0010001300257T 0901897X0000000092096 24778822400001870   700000000000187031102024000000000021923001009903000001870                0900000000000000000000000000000000000000000000000000000   000000000000000000000037209        170192477882     
0010001300258U 090000000000000000000000000000000000000000000000000000000000000000000000000000000000000000000000000000000000000000000000000512202400000000            000000000000000                              000                           
0010001300259T 0901897X0000000092096 24778822400001885   700000000000188531102024000000000021470001009946000001885                0900000000000000000000000000000000000000000000000000000   000000000000000000000037209        170192477882     
0010001300260U 090000000000000000000000000000000000000000000000000000000000000000000000000000000000000000000000000000000000000000000000000512202400000000            000000000000000                              000                           
0010001300261T 0901897X0000000092096 24778822400001894   700000000000189431102024000000000021453001008117000001894                0900000000000000000000000000000000000000000000000000000   000000000000000000000037209        170192477882     
0010001300262U 090000000000000000000000000000000000000000000000000000000000000000000000000000000000000000000000000000000000000000000000000512202400000000            000000000000000                              000                           
0010001300263T 0901897X0000000092096 24778822400001900   700000000000190031102024000000000021321001006998000001900                0900000000000000000000000000000000000000000000000000000   000000000000000000000037209        170192477882     
0010001300264U 090000000000000000000000000000000000000000000000000000000000000000000000000000000000000000000000000000000000000000000000000512202400000000            000000000000000                              000                           
0010001300265T 0901897X0000000092096 24778822400001903   70000000000019033110202400000000002127400101849X000001903                0900000000000000000000000000000000000000000000000000000   000000000000000000000037209        170192477882     
0010001300266U 090000000000000000000000000000000000000000000000000000000000000000000000000000000000000000000000000000000000000000000000000512202400000000            000000000000000                              000                           
0010001300267T 0901897X0000000092096 24778822400001906   700000000000190631102024000000000021272001004154000001906                0900000000000000000000000000000000000000000000000000000   000000000000000000000037209        170192477882     
0010001300268U 090000000000000000000000000000000000000000000000000000000000000000000000000000000000000000000000000000000000000000000000000512202400000000            000000000000000                              000                           
0010001300269T 0901897X0000000092096 24778822400001909   700000000000190931102024000000000021270001008117000001909                0900000000000000000000000000000000000000000000000000000   000000000000000000000037209        170192477882     
0010001300270U 090000000000000000000000000000000000000000000000000000000000000000000000000000000000000000000000000000000000000000000000000512202400000000            000000000000000                              000                           
0010001300271T 0901897X0000000092096 24778822400001924   70000000000019243110202400000000002104800101849X000001924                0900000000000000000000000000000000000000000000000000000   000000000000000000000037209        170192477882     
0010001300272U 090000000000000000000000000000000000000000000000000000000000000000000000000000000000000000000000000000000000000000000000000512202400000000            000000000000000                              000                           
0010001300273T 0901897X0000000092096 24778822400001936   700000000000193631102024000000000020640001003190000001936                0900000000000000000000000000000000000000000000000000000   000000000000000000000037209        170192477882     
0010001300274U 090000000000000000000000000000000000000000000000000000000000000000000000000000000000000000000000000000000000000000000000000512202400000000            000000000000000                              000                           
0010001300275T 0901897X0000000092096 24778822400001951   700000000000195131102024000000000020493001027669000001951                0900000000000000000000000000000000000000000000000000000   000000000000000000000037209        170192477882     
0010001300276U 090000000000000000000000000000000000000000000000000000000000000000000000000000000000000000000000000000000000000000000000000512202400000000            000000000000000                              000                           
0010001300277T 0901897X0000000092096 24778822400001954   700000000000195431102024000000000020493001004154000001954                0900000000000000000000000000000000000000000000000000000   000000000000000000000037209        170192477882     
0010001300278U 090000000000000000000000000000000000000000000000000000000000000000000000000000000000000000000000000000000000000000000000000512202400000000            000000000000000                              000                           
0010001300279T 0901897X0000000092096 24778822400001972   700000000000197231102024000000000020088001009296000001972                0900000000000000000000000000000000000000000000000000000   000000000000000000000037209        170192477882     
0010001300280U 090000000000000000000000000000000000000000000000000000000000000000000000000000000000000000000000000000000000000000000000000512202400000000            000000000000000                              000                           
0010001300281T 0901897X0000000092096 24778822400001981   70000000000019813110202400000000002002000101849X000001981                0900000000000000000000000000000000000000000000000000000   000000000000000000000037209        170192477882     
0010001300282U 090000000000000000000000000000000000000000000000000000000000000000000000000000000000000000000000000000000000000000000000000512202400000000            000000000000000                              000                           
0010001300283T 0901897X0000000092096 24778822400002203   700000000000220331102024000000000850400001000566000002203                0900000000000000000000000000000000000000000000000000000   000000000000000000000037209        170192477882     
0010001300284U 090000000000000000000000000000000000000000000000000000000000000000000000000000000000000000000000000000000000000000000000000512202400000000            000000000000000                              000                           
0010001300285T 0901897X0000000092096 24778822400002219   700000000000221931102024000000000812243001009946000002219                0900000000000000000000000000000000000000000000000000000   000000000000000000000037209        170192477882     
0010001300286U 090000000000000000000000000000000000000000000000000000000000000000000000000000000000000000000000000000000000000000000000000512202400000000            000000000000000                              000                           
0010001300287T 0901897X0000000092096 24778822400002327   70000000000023273110202400000000043915000100216X000002327                0900000000000000000000000000000000000000000000000000000   000000000000000000000037209        170192477882     
0010001300288U 090000000000000000000000000000000000000000000000000000000000000000000000000000000000000000000000000000000000000000000000000512202400000000            000000000000000                              000                           
0010001300289T 0901897X0000000092096 24778822400002339   700000000000233931102024000000000438405001009296000002339                0900000000000000000000000000000000000000000000000000000   000000000000000000000037209        170192477882     
0010001300290U 090000000000000000000000000000000000000000000000000000000000000000000000000000000000000000000000000000000000000000000000000512202400000000            000000000000000                              000                           
0010001300291T 0901897X0000000092096 24778822400002387   700000000000238731102024000000000387916001026565000002387                0900000000000000000000000000000000000000000000000000000   000000000000000000000037209        170192477882     
0010001300292U 090000000000000000000000000000000000000000000000000000000000000000000000000000000000000000000000000000000000000000000000000512202400000000            000000000000000                              000                           
0010001300293T 0901897X0000000092096 24778822400002399   700000000000239931102024000000000377718001009946000002399                0900000000000000000000000000000000000000000000000000000   000000000000000000000037209        170192477882     
0010001300294U 090000000000000000000000000000000000000000000000000000000000000000000000000000000000000000000000000000000000000000000000000512202400000000            000000000000000                              000                           
0010001300295T 0901897X0000000092096 24778822400002443   700000000000244331102024000000000330802001003190000002443                0900000000000000000000000000000000000000000000000000000   000000000000000000000037209        170192477882     
0010001300296U 090000000000000000000000000000000000000000000000000000000000000000000000000000000000000000000000000000000000000000000000000512202400000000            000000000000000                              000                           
0010001300297T 0901897X0000000092096 24778822400002483   700000000000248331102024000000000307572001003018000002483                0900000000000000000000000000000000000000000000000000000   000000000000000000000037209        170192477882     
0010001300298U 090000000000000000000000000000000000000000000000000000000000000000000000000000000000000000000000000000000000000000000000000512202400000000            000000000000000                              000                           
0010001300299T 0901897X0000000092096 24778822400002487   700000000000248731102024000000000305119001003549000002487                0900000000000000000000000000000000000000000000000000000   000000000000000000000037209        170192477882     
0010001300300U 090000000000000000000000000000000000000000000000000000000000000000000000000000000000000000000000000000000000000000000000000512202400000000            000000000000000                              000                           
0010001300301T 0901897X0000000092096 24778822400002507   700000000000250731102024000000000292767001003018000002507                0900000000000000000000000000000000000000000000000000000   000000000000000000000037209        170192477882     
0010001300302U 090000000000000000000000000000000000000000000000000000000000000000000000000000000000000000000000000000000000000000000000000512202400000000            000000000000000                              000                           
0010001300303T 0901897X0000000092096 24778822400002527   700000000000252731102024000000000272556001014753000002527                0900000000000000000000000000000000000000000000000000000   000000000000000000000037209        170192477882     
0010001300304U 090000000000000000000000000000000000000000000000000000000000000000000000000000000000000000000000000000000000000000000000000512202400000000            000000000000000                              000                           
0010001300305T 0901897X0000000092096 24778822400002543   700000000000254331102024000000000263543001003190000002543                0900000000000000000000000000000000000000000000000000000   000000000000000000000037209        170192477882     
0010001300306U 090000000000000000000000000000000000000000000000000000000000000000000000000000000000000000000000000000000000000000000000000512202400000000            000000000000000                              000                           
0010001300307T 0901897X0000000092096 24778822400002563   700000000000256331102024000000000246646001009296000002563                0900000000000000000000000000000000000000000000000000000   000000000000000000000037209        170192477882     
0010001300308U 090000000000000000000000000000000000000000000000000000000000000000000000000000000000000000000000000000000000000000000000000512202400000000            000000000000000                              000                           
0010001300309T 0901897X0000000092096 24778822400002571   700000000000257131102024000000000243256001001724000002571                0900000000000000000000000000000000000000000000000000000   000000000000000000000037209        170192477882     
0010001300310U 090000000000000000000000000000000000000000000000000000000000000000000000000000000000000000000000000000000000000000000000000512202400000000            000000000000000                              000                           
0010001300311T 0901897X0000000092096 24778822400002582   70000000000025823110202400000000024153300101849X000002582                0900000000000000000000000000000000000000000000000000000   000000000000000000000037209        170192477882     
0010001300312U 090000000000000000000000000000000000000000000000000000000000000000000000000000000000000000000000000000000000000000000000000512202400000000            000000000000000                              000                           
0010001300313T 0901897X0000000092096 24778822400002587   700000000000258731102024000000000240363001009296000002587                0900000000000000000000000000000000000000000000000000000   000000000000000000000037209        170192477882     
0010001300314U 090000000000000000000000000000000000000000000000000000000000000000000000000000000000000000000000000000000000000000000000000512202400000000            000000000000000                              000                           
0010001300315T 0901897X0000000092096 24778822400002591   700000000000259131102024000000000237347001023248000002591                0900000000000000000000000000000000000000000000000000000   000000000000000000000037209        170192477882     
0010001300316U 090000000000000000000000000000000000000000000000000000000000000000000000000000000000000000000000000000000000000000000000000512202400000000            000000000000000                              000                           
0010001300317T 0901897X0000000092096 24778822400002603   700000000000260331102024000000000233315001032883000002603                0900000000000000000000000000000000000000000000000000000   000000000000000000000037209        170192477882     
0010001300318U 090000000000000000000000000000000000000000000000000000000000000000000000000000000000000000000000000000000000000000000000000512202400000000            000000000000000                              000                           
0010001300319T 0901897X0000000092096 24778822400002647   700000000000264731102024000000000213749001022004000002647                0900000000000000000000000000000000000000000000000000000   000000000000000000000037209        170192477882     
0010001300320U 090000000000000000000000000000000000000000000000000000000000000000000000000000000000000000000000000000000000000000000000000512202400000000            000000000000000                              000                           
0010001300321T 0901897X0000000092096 24778822400002655   70000000000026553110202400000000020823500101849X000002655                0900000000000000000000000000000000000000000000000000000   000000000000000000000037209        170192477882     
0010001300322U 090000000000000000000000000000000000000000000000000000000000000000000000000000000000000000000000000000000000000000000000000512202400000000            000000000000000                              000                           
0010001300323T 0901897X0000000092096 24778822400002671   700000000000267131102024000000000206093001001724000002671                0900000000000000000000000000000000000000000000000000000   000000000000000000000037209        170192477882     
0010001300324U 090000000000000000000000000000000000000000000000000000000000000000000000000000000000000000000000000000000000000000000000000512202400000000            000000000000000                              000                           
0010001300325T 0901897X0000000092096 24778822400002679   700000000000267931102024000000000204937001000566000002679                0900000000000000000000000000000000000000000000000000000   000000000000000000000037209        170192477882     
0010001300326U 090000000000000000000000000000000000000000000000000000000000000000000000000000000000000000000000000000000000000000000000000512202400000000            000000000000000                              000                           
0010001300327T 0901897X0000000092096 24778822400002687   700000000000268731102024000000000203342001000566000002687                0900000000000000000000000000000000000000000000000000000   000000000000000000000037209        170192477882     
0010001300328U 090000000000000000000000000000000000000000000000000000000000000000000000000000000000000000000000000000000000000000000000000512202400000000            000000000000000                              000                           
0010001300329T 0901897X0000000092096 24778822400002715   70000000000027153110202400000000019482000101849X000002715                0900000000000000000000000000000000000000000000000000000   000000000000000000000037209        170192477882     
0010001300330U 090000000000000000000000000000000000000000000000000000000000000000000000000000000000000000000000000000000000000000000000000512202400000000            000000000000000                              000                           
0010001300331T 0901897X0000000092096 24778822400002727   700000000000272731102024000000000189574001000566000002727                0900000000000000000000000000000000000000000000000000000   000000000000000000000037209        170192477882     
0010001300332U 090000000000000000000000000000000000000000000000000000000000000000000000000000000000000000000000000000000000000000000000000512202400000000            000000000000000                              000                           
0010001300333T 0901897X0000000092096 24778822400002739   700000000000273931102024000000000182979001069833000002739                0900000000000000000000000000000000000000000000000000000   000000000000000000000037209        170192477882     
0010001300334U 090000000000000000000000000000000000000000000000000000000000000000000000000000000000000000000000000000000000000000000000000512202400000000            000000000000000                              000                           
0010001300335T 0901897X0000000092096 24778822400002743   70000000000027433110202400000000018297900100216X000002743                0900000000000000000000000000000000000000000000000000000   000000000000000000000037209        170192477882     
0010001300336U 090000000000000000000000000000000000000000000000000000000000000000000000000000000000000000000000000000000000000000000000000512202400000000            000000000000000                              000                           
0010001300337T 0901897X0000000092096 24778822400002775   700000000000277531102024000000000174989001007994000002775                0900000000000000000000000000000000000000000000000000000   000000000000000000000037209        170192477882     
0010001300338U 090000000000000000000000000000000000000000000000000000000000000000000000000000000000000000000000000000000000000000000000000512202400000000            000000000000000                              000                           
0010001300339T 0901897X0000000092096 24778822400002783   700000000000278331102024000000000173033001001724000002783                0900000000000000000000000000000000000000000000000000000   000000000000000000000037209        170192477882     
0010001300340U 090000000000000000000000000000000000000000000000000000000000000000000000000000000000000000000000000000000000000000000000000512202400000000            000000000000000                              000                           
0010001300341T 0901897X0000000092096 24778822400002827   70000000000028273110202400000000016242700101513X000002827                0900000000000000000000000000000000000000000000000000000   000000000000000000000037209        170192477882     
0010001300342U 090000000000000000000000000000000000000000000000000000000000000000000000000000000000000000000000000000000000000000000000000512202400000000            000000000000000                              000                           
0010001300343T 0901897X0000000092096 24778822400002843   700000000000284331102024000000000157216001022004000002843                0900000000000000000000000000000000000000000000000000000   000000000000000000000037209        170192477882     
0010001300344U 090000000000000000000000000000000000000000000000000000000000000000000000000000000000000000000000000000000000000000000000000512202400000000            000000000000000                              000                           
0010001300345T 0901897X0000000092096 24778822400002859   700000000000285931102024000000000153102001003190000002859                0900000000000000000000000000000000000000000000000000000   000000000000000000000037209        170192477882     
0010001300346U 090000000000000000000000000000000000000000000000000000000000000000000000000000000000000000000000000000000000000000000000000512202400000000            000000000000000                              000                           
0010001300347T 0901897X0000000092096 24778822400002867   700000000000286731102024000000000149586001009296000002867                0900000000000000000000000000000000000000000000000000000   000000000000000000000037209        170192477882     
0010001300348U 090000000000000000000000000000000000000000000000000000000000000000000000000000000000000000000000000000000000000000000000000512202400000000            000000000000000                              000                           
0010001300349T 0901897X0000000092096 24778822400002911   700000000000291131102024000000000146383001026565000002911                0900000000000000000000000000000000000000000000000000000   000000000000000000000037209        170192477882     
0010001300350U 090000000000000000000000000000000000000000000000000000000000000000000000000000000000000000000000000000000000000000000000000512202400000000            000000000000000                              000                           
0010001300351T 0901897X0000000092096 24778822400002923   700000000000292331102024000000000145130001045888000002923                0900000000000000000000000000000000000000000000000000000   000000000000000000000037209        170192477882     
0010001300352U 090000000000000000000000000000000000000000000000000000000000000000000000000000000000000000000000000000000000000000000000000512202400000000            000000000000000                              000                           
0010001300353T 0901897X0000000092096 24778822400002931   700000000000293131102024000000000143847001000280000002931                0900000000000000000000000000000000000000000000000000000   000000000000000000000037209        170192477882     
0010001300354U 090000000000000000000000000000000000000000000000000000000000000000000000000000000000000000000000000000000000000000000000000512202400000000            000000000000000                              000                           
0010001300355T 0901897X0000000092096 24778822400002935   700000000000293531102024000000000143847001001724000002935                0900000000000000000000000000000000000000000000000000000   000000000000000000000037209        170192477882     
0010001300356U 090000000000000000000000000000000000000000000000000000000000000000000000000000000000000000000000000000000000000000000000000512202400000000            000000000000000                              000                           
0010001300357T 0901897X0000000092096 24778822400002939   700000000000293931102024000000000143416001009296000002939                0900000000000000000000000000000000000000000000000000000   000000000000000000000037209        170192477882     
0010001300358U 090000000000000000000000000000000000000000000000000000000000000000000000000000000000000000000000000000000000000000000000000512202400000000            000000000000000                              000                           
0010001300359T 0901897X0000000092096 24778822400002943   700000000000294331102024000000000142724001026565000002943                0900000000000000000000000000000000000000000000000000000   000000000000000000000037209        170192477882     
0010001300360U 090000000000000000000000000000000000000000000000000000000000000000000000000000000000000000000000000000000000000000000000000512202400000000            000000000000000                              000                           
0010001300361T 0901897X0000000092096 24778822400002983   700000000000298331102024000000000131795001003018000002983                0900000000000000000000000000000000000000000000000000000   000000000000000000000037209        170192477882     
0010001300362U 090000000000000000000000000000000000000000000000000000000000000000000000000000000000000000000000000000000000000000000000000512202400000000            000000000000000                              000                           
0010001300363T 0901897X0000000092096 24778822400003023   700000000000302331102024000000000128787001000566000003023                0900000000000000000000000000000000000000000000000000000   000000000000000000000037209        170192477882     
0010001300364U 090000000000000000000000000000000000000000000000000000000000000000000000000000000000000000000000000000000000000000000000000512202400000000            000000000000000                              000                           
0010001300365T 0901897X0000000092096 24778822400003027   700000000000302731102024000000000128624001004561000003027                0900000000000000000000000000000000000000000000000000000   000000000000000000000037209        170192477882     
0010001300366U 090000000000000000000000000000000000000000000000000000000000000000000000000000000000000000000000000000000000000000000000000512202400000000            000000000000000                              000                           
0010001300367T 0901897X0000000092096 24778822400003035   700000000000303531102024000000000128086001001724000003035                0900000000000000000000000000000000000000000000000000000   000000000000000000000037209        170192477882     
0010001300368U 090000000000000000000000000000000000000000000000000000000000000000000000000000000000000000000000000000000000000000000000000512202400000000            000000000000000                              000                           
0010001300369T 0901897X0000000092096 24778822400003039   700000000000303931102024000000000128086001000566000003039                0900000000000000000000000000000000000000000000000000000   000000000000000000000037209        170192477882     
0010001300370U 090000000000000000000000000000000000000000000000000000000000000000000000000000000000000000000000000000000000000000000000000512202400000000            000000000000000                              000                           
0010001300371T 0901897X0000000092096 24778822400003055   700000000000305531102024000000000126246001003190000003055                0900000000000000000000000000000000000000000000000000000   000000000000000000000037209        170192477882     
0010001300372U 090000000000000000000000000000000000000000000000000000000000000000000000000000000000000000000000000000000000000000000000000512202400000000            000000000000000                              000                           
0010001300373T 0901897X0000000092096 24778822400003067   700000000000306731102024000000000124740001009946000003067                0900000000000000000000000000000000000000000000000000000   000000000000000000000037209        170192477882     
0010001300374U 090000000000000000000000000000000000000000000000000000000000000000000000000000000000000000000000000000000000000000000000000512202400000000            000000000000000                              000                           
0010001300375T 0901897X0000000092096 24778822400003071   700000000000307131102024000000000124426001066583000003071                0900000000000000000000000000000000000000000000000000000   000000000000000000000037209        170192477882     
0010001300376U 090000000000000000000000000000000000000000000000000000000000000000000000000000000000000000000000000000000000000000000000000512202400000000            000000000000000                              000                           
0010001300377T 0901897X0000000092096 24778822400003083   700000000000308331102024000000000122958001009296000003083                0900000000000000000000000000000000000000000000000000000   000000000000000000000037209        170192477882     
0010001300378U 090000000000000000000000000000000000000000000000000000000000000000000000000000000000000000000000000000000000000000000000000512202400000000            000000000000000                              000                           
0010001300379T 0901897X0000000092096 24778822400003087   700000000000308731102024000000000121315001007994000003087                0900000000000000000000000000000000000000000000000000000   000000000000000000000037209        170192477882     
0010001300380U 090000000000000000000000000000000000000000000000000000000000000000000000000000000000000000000000000000000000000000000000000512202400000000            000000000000000                              000                           
0010001300381T 0901897X0000000092096 24778822400003111   700000000000311131102024000000000118699001069833000003111                0900000000000000000000000000000000000000000000000000000   000000000000000000000037209        170192477882     
0010001300382U 090000000000000000000000000000000000000000000000000000000000000000000000000000000000000000000000000000000000000000000000000512202400000000            000000000000000                              000                           
0010001300383T 0901897X0000000092096 24778822400003115   700000000000311531102024000000000118615001001724000003115                0900000000000000000000000000000000000000000000000000000   000000000000000000000037209        170192477882     
0010001300384U 090000000000000000000000000000000000000000000000000000000000000000000000000000000000000000000000000000000000000000000000000512202400000000            000000000000000                              000                           
0010001300385T 0901897X0000000092096 24778822400003155   700000000000315531102024000000000112514001004154000003155                0900000000000000000000000000000000000000000000000000000   000000000000000000000037209        170192477882     
0010001300386U 090000000000000000000000000000000000000000000000000000000000000000000000000000000000000000000000000000000000000000000000000512202400000000            000000000000000                              000                           
0010001300387T 0901897X0000000092096 24778822400003159   700000000000315931102024000000000112475001003190000003159                0900000000000000000000000000000000000000000000000000000   000000000000000000000037209        170192477882     
0010001300388U 090000000000000000000000000000000000000000000000000000000000000000000000000000000000000000000000000000000000000000000000000512202400000000            000000000000000                              000                           
0010001300389T 0901897X0000000092096 24778822400003171   70000000000031713110202400000000011212000100264X000003171                0900000000000000000000000000000000000000000000000000000   000000000000000000000037209        170192477882     
0010001300390U 090000000000000000000000000000000000000000000000000000000000000000000000000000000000000000000000000000000000000000000000000512202400000000            000000000000000                              000                           
0010001300391T 0901897X0000000092096 24778822400003199   700000000000319931102024000000000110559001004154000003199                0900000000000000000000000000000000000000000000000000000   000000000000000000000037209        170192477882     
0010001300392U 090000000000000000000000000000000000000000000000000000000000000000000000000000000000000000000000000000000000000000000000000512202400000000            000000000000000                              000                           
0010001300393T 0901897X0000000092096 24778822400003215   70000000000032153110202400000000010959200101849X000003215                0900000000000000000000000000000000000000000000000000000   000000000000000000000037209        170192477882     
0010001300394U 090000000000000000000000000000000000000000000000000000000000000000000000000000000000000000000000000000000000000000000000000512202400000000            000000000000000                              000                           
0010001300395T 0901897X0000000092096 24778822400003231   700000000000323131102024000000000107592001008117000003231                0900000000000000000000000000000000000000000000000000000   000000000000000000000037209        170192477882     
0010001300396U 090000000000000000000000000000000000000000000000000000000000000000000000000000000000000000000000000000000000000000000000000512202400000000            000000000000000                              000                           
0010001300397T 0901897X0000000092096 24778822400003267   700000000000326731102024000000000103998001069833000003267                0900000000000000000000000000000000000000000000000000000   000000000000000000000037209        170192477882     
0010001300398U 090000000000000000000000000000000000000000000000000000000000000000000000000000000000000000000000000000000000000000000000000512202400000000            000000000000000                              000                           
0010001300399T 0901897X0000000092096 24778822400003271   700000000000327131102024000000000103994001009210000003271                0900000000000000000000000000000000000000000000000000000   000000000000000000000037209        170192477882     
0010001300400U 090000000000000000000000000000000000000000000000000000000000000000000000000000000000000000000000000000000000000000000000000512202400000000            000000000000000                              000                           
0010001300401T 0901897X0000000092096 24778822400003279   70000000000032793110202400000000010277900101513X000003279                0900000000000000000000000000000000000000000000000000000   000000000000000000000037209        170192477882     
0010001300402U 090000000000000000000000000000000000000000000000000000000000000000000000000000000000000000000000000000000000000000000000000512202400000000            000000000000000                              000                           
0010001300403T 0901897X0000000092096 24778822400003287   700000000000328731102024000000000102468001014753000003287                0900000000000000000000000000000000000000000000000000000   000000000000000000000037209        170192477882     
0010001300404U 090000000000000000000000000000000000000000000000000000000000000000000000000000000000000000000000000000000000000000000000000512202400000000            000000000000000                              000                           
0010001300405T 0901897X0000000092096 24778822400003291   700000000000329131102024000000000102468001003549000003291                0900000000000000000000000000000000000000000000000000000   000000000000000000000037209        170192477882     
0010001300406U 090000000000000000000000000000000000000000000000000000000000000000000000000000000000000000000000000000000000000000000000000512202400000000            000000000000000                              000                           
0010001300407T 0901897X0000000092096 24778822400003303   700000000000330331102024000000000098809001043036000003303                0900000000000000000000000000000000000000000000000000000   000000000000000000000037209        170192477882     
0010001300408U 090000000000000000000000000000000000000000000000000000000000000000000000000000000000000000000000000000000000000000000000000512202400000000            000000000000000                              000                           
0010001300409T 0901897X0000000092096 24778822400003307   70000000000033073110202400000000009880900101849X000003307                0900000000000000000000000000000000000000000000000000000   000000000000000000000037209        170192477882     
0010001300410U 090000000000000000000000000000000000000000000000000000000000000000000000000000000000000000000000000000000000000000000000000512202400000000            000000000000000                              000                           
0010001300411T 0901897X0000000092096 24778822400003331   700000000000333131102024000000000095149001004561000003331                0900000000000000000000000000000000000000000000000000000   000000000000000000000037209        170192477882     
0010001300412U 090000000000000000000000000000000000000000000000000000000000000000000000000000000000000000000000000000000000000000000000000512202400000000            000000000000000                              000                           
