00100000         2115139610001160024778820014       01897X0000000092096 FUNDACAO AGENCIA DAS BACIAS HIBANCO DO BRASIL                         22708202402175800572503000000829973081PROCESSAMEN                                                 
00100011T0100020 20115139610001160024778820014       01897X0000000092096 FUNDACAO AGENCIA DAS BACIAS HI                                                                                000000002708202400000000  000000000                      
0010001300001T 0201897X0000000092096 24778822400000001   70000000000000013009202400000004002590800101849X000000001                0900000000000010500000000000000000000000000000000000000   0000000000000000000000496A9A4      170192477882     
0010001300002U 020000000000000000000000000000000000000000000000000000000000000000000000000000000000000000000000000000000000000000000000002708202400000000            000000000000000                              000                           
0010001300003T 0201897X0000000092096 24778822400000002   700000000000000230092024000000019161746001009946000000002                0900000000000010500000000000000000000000000000000000000   0000000000000000000000496A9A4      170192477882     
0010001300004U 020000000000000000000000000000000000000000000000000000000000000000000000000000000000000000000000000000000000000000000000002708202400000000            000000000000000                              000                           
0010001300005T 0201897X0000000092096 24778822400000003   700000000000000330092024000000002470386001004561000000003                0900000000000010000000000000000000000000000000000000000   0000000000000000000000496A9        170192477882     
0010001300006U 020000000000000000000000000000000000000000000000000000000000000000000000000000000000000000000000000000000000000000000000002708202400000000            000000000000000                              000                           
0010001300007T 0201897X0000000092096 24778822400000004   70000000000000043009202400000000246809400101849X000000004                0900000000000010000000000000000000000000000000000000000   0000000000000000000000496A9        170192477882     
0010001300008U 020000000000000000000000000000000000000000000000000000000000000000000000000000000000000000000000000000000000000000000000002708202400000000            000000000000000                              000                           
0010001300009T 0201897X0000000092096 24778822400000005   700000000000000530092024000000002082626001001724000000005                0900000000000010000000000000000000000000000000000000000   0000000000000000000000496A9        170192477882     
0010001300010U 020000000000000000000000000000000000000000000000000000000000000000000000000000000000000000000000000000000000000000000000002708202400000000            000000000000000                              000                           
0010001300011T 0201897X0000000092096 24778822400000006   700000000000000630092024000000001971506001009296000000006                0900000000000010500000000000000000000000000000000000000   0000000000000000000000496A9A4      170192477882     
0010001300012U 020000000000000000000000000000000000000000000000000000000000000000000000000000000000000000000000000000000000000000000000002708202400000000            000000000000000                              000                           
0010001300013T 0201897X0000000092096 24778822400000007   700000000000000730092024000000001161103001009946000000007                0900000000000010000000000000000000000000000000000000000   0000000000000000000000496A9        170192477882     
0010001300014U 020000000000000000000000000000000000000000000000000000000000000000000000000000000000000000000000000000000000000000000000002708202400000000            000000000000000                              000                           
0010001300015T 0201897X0000000092096 24778822400000008   700000000000000830092024000000001099360001003409000000008                0900000000000010500000000000000000000000000000000000000   0000000000000000000000496A9A4      170192477882     
0010001300016U 020000000000000000000000000000000000000000000000000000000000000000000000000000000000000000000000000000000000000000000000002708202400000000            000000000000000                              000                           
0010001300017T 0201897X0000000092096 24778822400000009   70000000000000093009202400000000108637400101849X000000009                0900000000000010000000000000000000000000000000000000000   0000000000000000000000496A9        170192477882     
0010001300018U 020000000000000000000000000000000000000000000000000000000000000000000000000000000000000000000000000000000000000000000000002708202400000000            000000000000000                              000                           
0010001300019T 0201897X0000000092096 24778822400000010   700000000000001030092024000000000980667001009903000000010                0900000000000010500000000000000000000000000000000000000   0000000000000000000000496A9A4      170192477882     
0010001300020U 020000000000000000000000000000000000000000000000000000000000000000000000000000000000000000000000000000000000000000000000002708202400000000            000000000000000                              000                           
0010001300021T 0201897X0000000092096 24778822400000011   700000000000001130092024000000000916079001000566000000011                0900000000000010500000000000000000000000000000000000000   0000000000000000000000496A9A4      170192477882     
0010001300022U 020000000000000000000000000000000000000000000000000000000000000000000000000000000000000000000000000000000000000000000000002708202400000000            000000000000000                              000                           
0010001300023T 0201897X0000000092096 24778822400000012   70000000000000123009202400000000087675000101849X000000012                0900000000000010500000000000000000000000000000000000000   0000000000000000000000496A9A4      170192477882     
0010001300024U 020000000000000000000000000000000000000000000000000000000000000000000000000000000000000000000000000000000000000000000000002708202400000000            000000000000000                              000                           
0010001300025T 0201897X0000000092096 24778822400000013   700000000000001330092024000000000823149001004596000000013                0900000000000010500000000000000000000000000000000000000   0000000000000000000000496A9A4      170192477882     
0010001300026U 020000000000000000000000000000000000000000000000000000000000000000000000000000000000000000000000000000000000000000000000002708202400000000            000000000000000                              000                           
0010001300027T 0201897X0000000092096 24778822400000014   700000000000001430092024000000000791850001027669000000014                0900000000000010500000000000000000000000000000000000000   0000000000000000000000496A9A4      170192477882     
0010001300028U 020000000000000000000000000000000000000000000000000000000000000000000000000000000000000000000000000000000000000000000000002708202400000000            000000000000000                              000                           
0010001300029T 0201897X0000000092096 24778822400000015   700000000000001530092024000000000757003001003018000000015                0900000000000010000000000000000000000000000000000000000   0000000000000000000000496A9        170192477882     
0010001300030U 020000000000000000000000000000000000000000000000000000000000000000000000000000000000000000000000000000000000000000000000002708202400000000            000000000000000                              000                           
0010001300031T 0201897X0000000092096 24778822400000016   700000000000001630092024000000000723132001001724000000016                0900000000000010500000000000000000000000000000000000000   0000000000000000000000496A9A4      170192477882     
0010001300032U 020000000000000000000000000000000000000000000000000000000000000000000000000000000000000000000000000000000000000000000000002708202400000000            000000000000000                              000                           
0010001300033T 0201897X0000000092096 24778822400000017   70000000000000173009202400000000069266000100216X000000017                0900000000000010000000000000000000000000000000000000000   0000000000000000000000496A9        170192477882     
0010001300034U 020000000000000000000000000000000000000000000000000000000000000000000000000000000000000000000000000000000000000000000000002708202400000000            000000000000000                              000                           
0010001300035T 0201897X0000000092096 24778822400000018   70000000000000183009202400000000067336300101849X000000018                0900000000000010500000000000000000000000000000000000000   0000000000000000000000496A9A4      170192477882     
0010001300036U 020000000000000000000000000000000000000000000000000000000000000000000000000000000000000000000000000000000000000000000000002708202400000000            000000000000000                              000                           
0010001300037T 0201897X0000000092096 24778822400000019   70000000000000193009202400000000066143100101849X000000019                0900000000000010500000000000000000000000000000000000000   0000000000000000000000496A9A4      170192477882     
0010001300038U 020000000000000000000000000000000000000000000000000000000000000000000000000000000000000000000000000000000000000000000000002708202400000000            000000000000000                              000                           
0010001300039T 0201897X0000000092096 24778822400000020   70000000000000203009202400000000060314500101849X000000020                0900000000000010000000000000000000000000000000000000000   0000000000000000000000496A9        170192477882     
0010001300040U 020000000000000000000000000000000000000000000000000000000000000000000000000000000000000000000000000000000000000000000000002708202400000000            000000000000000                              000                           
0010001300041T 0201897X0000000092096 24778822400000021   700000000000002130092024000000000580658001003409000000021                0900000000000010500000000000000000000000000000000000000   0000000000000000000000496A9A4      170192477882     
0010001300042U 020000000000000000000000000000000000000000000000000000000000000000000000000000000000000000000000000000000000000000000000002708202400000000            000000000000000                              000                           
0010001300043T 0201897X0000000092096 24778822400000022   70000000000000223009202400000000057649300100216X000000022                0900000000000010500000000000000000000000000000000000000   0000000000000000000000496A9A4      170192477882     
0010001300044U 020000000000000000000000000000000000000000000000000000000000000000000000000000000000000000000000000000000000000000000000002708202400000000            000000000000000                              000                           
0010001300045T 0201897X0000000092096 24778822400000023   700000000000002330092024000000000563077001022586000000023                0900000000000010500000000000000000000000000000000000000   0000000000000000000000496A9A4      170192477882     
0010001300046U 020000000000000000000000000000000000000000000000000000000000000000000000000000000000000000000000000000000000000000000000002708202400000000            000000000000000                              000                           
0010001300047T 0201897X0000000092096 24778822400000024   700000000000002430092024000000000539346001000566000000024                0900000000000010500000000000000000000000000000000000000   0000000000000000000000496A9A4      170192477882     
0010001300048U 020000000000000000000000000000000000000000000000000000000000000000000000000000000000000000000000000000000000000000000000002708202400000000            000000000000000                              000                           
0010001300049T 0201897X0000000092096 24778822400000025   700000000000002530092024000000000517838001003409000000025                0900000000000010500000000000000000000000000000000000000   0000000000000000000000496A9A4      170192477882     
0010001300050U 020000000000000000000000000000000000000000000000000000000000000000000000000000000000000000000000000000000000000000000000002708202400000000            000000000000000                              000                           
0010001300051T 0201897X0000000092096 24778822400000026   700000000000002630092024000000000488935001023248000000026                0900000000000010500000000000000000000000000000000000000   0000000000000000000000496A9A4      170192477882     
0010001300052U 020000000000000000000000000000000000000000000000000000000000000000000000000000000000000000000000000000000000000000000000002708202400000000            000000000000000                              000                           
0010001300053T 0201897X0000000092096 24778822400000027   700000000000002730092024000000000484553001000566000000027                0900000000000010500000000000000000000000000000000000000   0000000000000000000000496A9A4      170192477882     
0010001300054U 020000000000000000000000000000000000000000000000000000000000000000000000000000000000000000000000000000000000000000000000002708202400000000            000000000000000                              000                           
0010001300055T 0201897X0000000092096 24778822400000028   700000000000002830092024000000000467092001004154000000028                0900000000000010500000000000000000000000000000000000000   0000000000000000000000496A9A4      170192477882     
0010001300056U 020000000000000000000000000000000000000000000000000000000000000000000000000000000000000000000000000000000000000000000000002708202400000000            000000000000000                              000                           
0010001300057T 0201897X0000000092096 24778822400000029   700000000000002930092024000000000451068001009946000000029                0900000000000010500000000000000000000000000000000000000   0000000000000000000000496A9A4      170192477882     
0010001300058U 020000000000000000000000000000000000000000000000000000000000000000000000000000000000000000000000000000000000000000000000002708202400000000            000000000000000                              000                           
0010001300059T 0201897X0000000092096 24778822400000030   700000000000003030092024000000000439352001001724000000030                0900000000000010500000000000000000000000000000000000000   0000000000000000000000496A9A4      170192477882     
0010001300060U 020000000000000000000000000000000000000000000000000000000000000000000000000000000000000000000000000000000000000000000000002708202400000000            000000000000000                              000                           
0010001300061T 0201897X0000000092096 24778822400000031   700000000000003130092024000000000428952001009903000000031                0900000000000010500000000000000000000000000000000000000   0000000000000000000000496A9A4      170192477882     
0010001300062U 020000000000000000000000000000000000000000000000000000000000000000000000000000000000000000000000000000000000000000000000002708202400000000            000000000000000                              000                           
0010001300063T 0201897X0000000092096 24778822400000032   700000000000003230092024000000000422246001001724000000032                0900000000000010500000000000000000000000000000000000000   0000000000000000000000496A9A4      170192477882     
0010001300064U 020000000000000000000000000000000000000000000000000000000000000000000000000000000000000000000000000000000000000000000000002708202400000000            000000000000000                              000                           
0010001300065T 0201897X0000000092096 24778822400000033   70000000000000333009202400000000042015300101849X000000033                0900000000000010500000000000000000000000000000000000000   0000000000000000000000496A9A4      170192477882     
0010001300066U 020000000000000000000000000000000000000000000000000000000000000000000000000000000000000000000000000000000000000000000000002708202400000000            000000000000000                              000                           
0010001300067T 0201897X0000000092096 24778822400000034   700000000000003430092024000000000415240001009903000000034                0900000000000010500000000000000000000000000000000000000   0000000000000000000000496A9A4      170192477882     
0010001300068U 020000000000000000000000000000000000000000000000000000000000000000000000000000000000000000000000000000000000000000000000002708202400000000            000000000000000                              000                           
0010001300069T 0201897X0000000092096 24778822400000035   700000000000003530092024000000000407034001022004000000035                0900000000000010500000000000000000000000000000000000000   0000000000000000000000496A9A4      170192477882     
0010001300070U 020000000000000000000000000000000000000000000000000000000000000000000000000000000000000000000000000000000000000000000000002708202400000000            000000000000000                              000                           
0010001300071T 0201897X0000000092096 24778822400000036   70000000000000363009202400000000038673400101849X000000036                0900000000000010000000000000000000000000000000000000000   0000000000000000000000496A9        170192477882     
0010001300072U 020000000000000000000000000000000000000000000000000000000000000000000000000000000000000000000000000000000000000000000000002708202400000000            000000000000000                              000                           
0010001300073T 0201897X0000000092096 24778822400000037   700000000000003730092024000000000374454001001724000000037                0900000000000010000000000000000000000000000000000000000   0000000000000000000000496A9        170192477882     
0010001300074U 020000000000000000000000000000000000000000000000000000000000000000000000000000000000000000000000000000000000000000000000002708202400000000            000000000000000                              000                           
0010001300075T 0201897X0000000092096 24778822400000038   700000000000003830092024000000000370595001020125000000038                0900000000000010500000000000000000000000000000000000000   0000000000000000000000496A9A4      170192477882     
0010001300076U 020000000000000000000000000000000000000000000000000000000000000000000000000000000000000000000000000000000000000000000000002708202400000000            000000000000000                              000                           
0010001300077T 0201897X0000000092096 24778822400000039   700000000000003930092024000000000345464001000566000000039                0900000000000010500000000000000000000000000000000000000   0000000000000000000000496A9A4      170192477882     
0010001300078U 020000000000000000000000000000000000000000000000000000000000000000000000000000000000000000000000000000000000000000000000002708202400000000            000000000000000                              000                           
0010001300079T 0201897X0000000092096 24778822400000040   700000000000004030092024000000000341511001001724000000040                0900000000000010000000000000000000000000000000000000000   0000000000000000000000496A9        170192477882     
0010001300080U 020000000000000000000000000000000000000000000000000000000000000000000000000000000000000000000000000000000000000000000000002708202400000000            000000000000000                              000                           
0010001300081T 0201897X0000000092096 24778822400000041   70000000000000413009202400000000033454200101849X000000041                0900000000000010500000000000000000000000000000000000000   0000000000000000000000496A9A4      170192477882     
0010001300082U 020000000000000000000000000000000000000000000000000000000000000000000000000000000000000000000000000000000000000000000000002708202400000000            000000000000000                              000                           
0010001300083T 0201897X0000000092096 24778822400000042   700000000000004230092024000000000333946001043036000000042                0900000000000010000000000000000000000000000000000000000   0000000000000000000000496A9        170192477882     
0010001300084U 020000000000000000000000000000000000000000000000000000000000000000000000000000000000000000000000000000000000000000000000002708202400000000            000000000000000                              000                           
0010001300085T 0201897X0000000092096 24778822400000043   70000000000000433009202400000000032736300101513X000000043                0900000000000010000000000000000000000000000000000000000   0000000000000000000000496A9        170192477882     
0010001300086U 020000000000000000000000000000000000000000000000000000000000000000000000000000000000000000000000000000000000000000000000002708202400000000            000000000000000                              000                           
0010001300087T 0201897X0000000092096 24778822400000044   700000000000004430092024000000000322043001000094000000044                0900000000000010000000000000000000000000000000000000000   0000000000000000000000496A9        170192477882     
0010001300088U 020000000000000000000000000000000000000000000000000000000000000000000000000000000000000000000000000000000000000000000000002708202400000000            000000000000000                              000                           
0010001300089T 0201897X0000000092096 24778822400000045   70000000000000453009202400000000031291900101849X000000045                0900000000000010500000000000000000000000000000000000000   0000000000000000000000496A9A4      170192477882     
0010001300090U 020000000000000000000000000000000000000000000000000000000000000000000000000000000000000000000000000000000000000000000000002708202400000000            000000000000000                              000                           
0010001300091T 0201897X0000000092096 24778822400000046   700000000000004630092024000000000312089001000566000000046                0900000000000010500000000000000000000000000000000000000   0000000000000000000000496A9A4      170192477882     
0010001300092U 020000000000000000000000000000000000000000000000000000000000000000000000000000000000000000000000000000000000000000000000002708202400000000            000000000000000                              000                           
0010001300093T 0201897X0000000092096 24778822400000047   700000000000004730092024000000000303567001069833000000047                0900000000000010000000000000000000000000000000000000000   0000000000000000000000496A9        170192477882     
0010001300094U 020000000000000000000000000000000000000000000000000000000000000000000000000000000000000000000000000000000000000000000000002708202400000000            000000000000000                              000                           
0010001300095T 0201897X0000000092096 24778822400000048   700000000000004830092024000000000296318001001678000000048                0900000000000010500000000000000000000000000000000000000   0000000000000000000000496A9A4      170192477882     
0010001300096U 020000000000000000000000000000000000000000000000000000000000000000000000000000000000000000000000000000000000000000000000002708202400000000            000000000000000                              000                           
0010001300097T 0201897X0000000092096 24778822400000049   700000000000004930092024000000000294775001004154000000049                0900000000000010500000000000000000000000000000000000000   0000000000000000000000496A9A4      170192477882     
0010001300098U 020000000000000000000000000000000000000000000000000000000000000000000000000000000000000000000000000000000000000000000000002708202400000000            000000000000000                              000                           
0010001300099T 0201897X0000000092096 24778822400000050   700000000000005030092024000000000292767001001678000000050                0900000000000010000000000000000000000000000000000000000   0000000000000000000000496A9        170192477882     
0010001300100U 020000000000000000000000000000000000000000000000000000000000000000000000000000000000000000000000000000000000000000000000002708202400000000            000000000000000                              000                           
0010001300101T 0201897X0000000092096 24778822400000051   700000000000005130092024000000000290319001007994000000051                0900000000000010500000000000000000000000000000000000000   0000000000000000000000496A9A4      170192477882     
0010001300102U 020000000000000000000000000000000000000000000000000000000000000000000000000000000000000000000000000000000000000000000000002708202400000000            000000000000000                              000                           
0010001300103T 0201897X0000000092096 24778822400000052   700000000000005230092024000000000283196001009903000000052                0900000000000010500000000000000000000000000000000000000   0000000000000000000000496A9A4      170192477882     
0010001300104U 020000000000000000000000000000000000000000000000000000000000000000000000000000000000000000000000000000000000000000000000002708202400000000            000000000000000                              000                           
0010001300105T 0201897X0000000092096 24778822400000053   700000000000005330092024000000000280102001009903000000053                0900000000000010500000000000000000000000000000000000000   0000000000000000000000496A9A4      170192477882     
0010001300106U 020000000000000000000000000000000000000000000000000000000000000000000000000000000000000000000000000000000000000000000000002708202400000000            000000000000000                              000                           
0010001300107T 0201897X0000000092096 24778822400000054   700000000000005430092024000000000279117001004154000000054                0900000000000010500000000000000000000000000000000000000   0000000000000000000000496A9A4      170192477882     
0010001300108U 020000000000000000000000000000000000000000000000000000000000000000000000000000000000000000000000000000000000000000000000002708202400000000            000000000000000                              000                           
0010001300109T 0201897X0000000092096 24778822400000055   700000000000005530092024000000000278129001004154000000055                0900000000000010500000000000000000000000000000000000000   0000000000000000000000496A9A4      170192477882     
0010001300110U 020000000000000000000000000000000000000000000000000000000000000000000000000000000000000000000000000000000000000000000000002708202400000000            000000000000000                              000                           
0010001300111T 0201897X0000000092096 24778822400000056   700000000000005630092024000000000255468001001724000000056                0900000000000010000000000000000000000000000000000000000   0000000000000000000000496A9        170192477882     
0010001300112U 020000000000000000000000000000000000000000000000000000000000000000000000000000000000000000000000000000000000000000000000002708202400000000            000000000000000                              000                           
0010001300113T 0201897X0000000092096 24778822400000057   700000000000005730092024000000000248007001003190000000057                0900000000000010000000000000000000000000000000000000000   0000000000000000000000496A9        170192477882     
0010001300114U 020000000000000000000000000000000000000000000000000000000000000000000000000000000000000000000000000000000000000000000000002708202400000000            000000000000000                              000                           
0010001300115T 0201897X0000000092096 24778822400000058   700000000000005830092024000000000247391001003409000000058                0900000000000010500000000000000000000000000000000000000   0000000000000000000000496A9A4      170192477882     
0010001300116U 020000000000000000000000000000000000000000000000000000000000000000000000000000000000000000000000000000000000000000000000002708202400000000            000000000000000                              000                           
0010001300117T 0201897X0000000092096 24778822400000059   700000000000005930092024000000000242624001045888000000059                0900000000000010500000000000000000000000000000000000000   0000000000000000000000496A9A4      170192477882     
0010001300118U 020000000000000000000000000000000000000000000000000000000000000000000000000000000000000000000000000000000000000000000000002708202400000000            000000000000000                              000                           
0010001300119T 0201897X0000000092096 24778822400000060   700000000000006030092024000000000242163001004596000000060                0900000000000010500000000000000000000000000000000000000   0000000000000000000000496A9A4      170192477882     
0010001300120U 020000000000000000000000000000000000000000000000000000000000000000000000000000000000000000000000000000000000000000000000002708202400000000            000000000000000                              000                           
0010001300121T 0201897X0000000092096 24778822400000061   700000000000006130092024000000000241359001003018000000061                0900000000000010000000000000000000000000000000000000000   0000000000000000000000496A9        170192477882     
0010001300122U 020000000000000000000000000000000000000000000000000000000000000000000000000000000000000000000000000000000000000000000000002708202400000000            000000000000000                              000                           
0010001300123T 0201897X0000000092096 24778822400000062   700000000000006230092024000000000239887001004154000000062                0900000000000010000000000000000000000000000000000000000   0000000000000000000000496A9        170192477882     
0010001300124U 020000000000000000000000000000000000000000000000000000000000000000000000000000000000000000000000000000000000000000000000002708202400000000            000000000000000                              000                           
0010001300125T 0201897X0000000092096 24778822400000063   700000000000006330092024000000000232255001003409000000063                0900000000000010500000000000000000000000000000000000000   0000000000000000000000496A9A4      170192477882     
0010001300126U 020000000000000000000000000000000000000000000000000000000000000000000000000000000000000000000000000000000000000000000000002708202400000000            000000000000000                              000                           
0010001300127T 0201897X0000000092096 24778822400000064   700000000000006430092024000000000232024001020125000000064                0900000000000010500000000000000000000000000000000000000   0000000000000000000000496A9A4      170192477882     
0010001300128U 020000000000000000000000000000000000000000000000000000000000000000000000000000000000000000000000000000000000000000000000002708202400000000            000000000000000                              000                           
0010001300129T 0201897X0000000092096 24778822400000065   700000000000006530092024000000000231261001003409000000065                0900000000000010000000000000000000000000000000000000000   0000000000000000000000496A9        170192477882     
0010001300130U 020000000000000000000000000000000000000000000000000000000000000000000000000000000000000000000000000000000000000000000000002708202400000000            000000000000000                              000                           
0010001300131T 0201897X0000000092096 24778822400000066   700000000000006630092024000000000228358001003409000000066                0900000000000010500000000000000000000000000000000000000   0000000000000000000000496A9A4      170192477882     
0010001300132U 020000000000000000000000000000000000000000000000000000000000000000000000000000000000000000000000000000000000000000000000002708202400000000            000000000000000                              000                           
0010001300133T 0201897X0000000092096 24778822400000067   700000000000006730092024000000000220557001007994000000067                0900000000000010500000000000000000000000000000000000000   0000000000000000000000496A9A4      170192477882     
0010001300134U 020000000000000000000000000000000000000000000000000000000000000000000000000000000000000000000000000000000000000000000000002708202400000000            000000000000000                              000                           
0010001300135T 0201897X0000000092096 24778822400000068   70000000000000683009202400000000021737900101849X000000068                0900000000000010500000000000000000000000000000000000000   0000000000000000000000496A9A4      170192477882     
0010001300136U 020000000000000000000000000000000000000000000000000000000000000000000000000000000000000000000000000000000000000000000000002708202400000000            000000000000000                              000                           
0010001300137T 0201897X0000000092096 24778822400000069   700000000000006930092024000000000216530001003190000000069                0900000000000010500000000000000000000000000000000000000   0000000000000000000000496A9A4      170192477882     
0010001300138U 020000000000000000000000000000000000000000000000000000000000000000000000000000000000000000000000000000000000000000000000002708202400000000            000000000000000                              000                           
0010001300139T 0201897X0000000092096 24778822400000070   70000000000000703009202400000000021123100101849X000000070                0900000000000010000000000000000000000000000000000000000   0000000000000000000000496A9        170192477882     
0010001300140U 020000000000000000000000000000000000000000000000000000000000000000000000000000000000000000000000000000000000000000000000002708202400000000            000000000000000                              000                           
0010001300141T 0201897X0000000092096 24778822400000071   700000000000007130092024000000000208335001066583000000071                0900000000000010500000000000000000000000000000000000000   0000000000000000000000496A9A4      170192477882     
0010001300142U 020000000000000000000000000000000000000000000000000000000000000000000000000000000000000000000000000000000000000000000000002708202400000000            000000000000000                              000                           
0010001300143T 0201897X0000000092096 24778822400000072   700000000000007230092024000000000194601001022004000000072                0900000000000010500000000000000000000000000000000000000   0000000000000000000000496A9A4      170192477882     
0010001300144U 020000000000000000000000000000000000000000000000000000000000000000000000000000000000000000000000000000000000000000000000002708202400000000            000000000000000                              000                           
0010001300145T 0201897X0000000092096 24778822400000073   700000000000007330092024000000000193062001001724000000073                0900000000000010000000000000000000000000000000000000000   0000000000000000000000496A9        170192477882     
0010001300146U 020000000000000000000000000000000000000000000000000000000000000000000000000000000000000000000000000000000000000000000000002708202400000000            000000000000000                              000                           
0010001300147T 0201897X0000000092096 24778822400000074   70000000000000743009202400000000019016500101849X000000074                0900000000000010000000000000000000000000000000000000000   0000000000000000000000496A9        170192477882     
0010001300148U 020000000000000000000000000000000000000000000000000000000000000000000000000000000000000000000000000000000000000000000000002708202400000000            000000000000000                              000                           
0010001300149T 0201897X0000000092096 24778822400000075   700000000000007530092024000000000189845001009903000000075                0900000000000010500000000000000000000000000000000000000   0000000000000000000000496A9A4      170192477882     
0010001300150U 020000000000000000000000000000000000000000000000000000000000000000000000000000000000000000000000000000000000000000000000002708202400000000            000000000000000                              000                           
0010001300151T 0201897X0000000092096 24778822400000076   700000000000007630092024000000000187371001009946000000076                0900000000000010000000000000000000000000000000000000000   0000000000000000000000496A9        170192477882     
0010001300152U 020000000000000000000000000000000000000000000000000000000000000000000000000000000000000000000000000000000000000000000000002708202400000000            000000000000000                              000                           
0010001300153T 0201897X0000000092096 24778822400000077   700000000000007730092024000000000186821001004154000000077                0900000000000010000000000000000000000000000000000000000   0000000000000000000000496A9        170192477882     
0010001300154U 020000000000000000000000000000000000000000000000000000000000000000000000000000000000000000000000000000000000000000000000002708202400000000            000000000000000                              000                           
0010001300155T 0201897X0000000092096 24778822400000078   700000000000007830092024000000000183816001003190000000078                0900000000000010500000000000000000000000000000000000000   0000000000000000000000496A9A4      170192477882     
0010001300156U 020000000000000000000000000000000000000000000000000000000000000000000000000000000000000000000000000000000000000000000000002708202400000000            000000000000000                              000                           
0010001300157T 0201897X0000000092096 24778822400000079   700000000000007930092024000000000181119001021717000000079                0900000000000010000000000000000000000000000000000000000   0000000000000000000000496A9        170192477882     
0010001300158U 020000000000000000000000000000000000000000000000000000000000000000000000000000000000000000000000000000000000000000000000002708202400000000            000000000000000                              000                           
0010001300159T 0201897X0000000092096 24778822400000080   70000000000000803009202400000000017712300101849X000000080                0900000000000010000000000000000000000000000000000000000   0000000000000000000000496A9        170192477882     
0010001300160U 020000000000000000000000000000000000000000000000000000000000000000000000000000000000000000000000000000000000000000000000002708202400000000            000000000000000                              000                           
0010001300161T 0201897X0000000092096 24778822400000081   700000000000008130092024000000000175461001000566000000081                0900000000000010000000000000000000000000000000000000000   0000000000000000000000496A9        170192477882     
0010001300162U 020000000000000000000000000000000000000000000000000000000000000000000000000000000000000000000000000000000000000000000000002708202400000000            000000000000000                              000                           
0010001300163T 0201897X0000000092096 24778822400000082   700000000000008230092024000000000174928001043036000000082                0900000000000010500000000000000000000000000000000000000   0000000000000000000000496A9A4      170192477882     
0010001300164U 020000000000000000000000000000000000000000000000000000000000000000000000000000000000000000000000000000000000000000000000002708202400000000            000000000000000                              000                           
0010001300165T 0201897X0000000092096 24778822400000083   700000000000008330092024000000000174033001009903000000083                0900000000000010000000000000000000000000000000000000000   0000000000000000000000496A9        170192477882     
0010001300166U 020000000000000000000000000000000000000000000000000000000000000000000000000000000000000000000000000000000000000000000000002708202400000000            000000000000000                              000                           
0010001300167T 0201897X0000000092096 24778822400000084   70000000000000843009202400000000017177700101849X000000084                0900000000000010500000000000000000000000000000000000000   0000000000000000000000496A9A4      170192477882     
0010001300168U 020000000000000000000000000000000000000000000000000000000000000000000000000000000000000000000000000000000000000000000000002708202400000000            000000000000000                              000                           
0010001300169T 0201897X0000000092096 24778822400000085   700000000000008530092024000000000165659001000566000000085                0900000000000010000000000000000000000000000000000000000   0000000000000000000000496A9        170192477882     
0010001300170U 020000000000000000000000000000000000000000000000000000000000000000000000000000000000000000000000000000000000000000000000002708202400000000            000000000000000                              000                           
0010001300171T 0201897X0000000092096 24778822400000086   700000000000008630092024000000000161677001008117000000086                0900000000000010000000000000000000000000000000000000000   0000000000000000000000496A9        170192477882     
0010001300172U 020000000000000000000000000000000000000000000000000000000000000000000000000000000000000000000000000000000000000000000000002708202400000000            000000000000000                              000                           
0010001300173T 0201897X0000000092096 24778822400000087   700000000000008730092024000000000161021001004154000000087                0900000000000010500000000000000000000000000000000000000   0000000000000000000000496A9A4      170192477882     
0010001300174U 020000000000000000000000000000000000000000000000000000000000000000000000000000000000000000000000000000000000000000000000002708202400000000            000000000000000                              000                           
0010001300175T 0201897X0000000092096 24778822400000088   700000000000008830092024000000000160098001003409000000088                0900000000000010500000000000000000000000000000000000000   0000000000000000000000496A9A4      170192477882     
0010001300176U 020000000000000000000000000000000000000000000000000000000000000000000000000000000000000000000000000000000000000000000000002708202400000000            000000000000000                              000                           
0010001300177T 0201897X0000000092096 24778822400000089   700000000000008930092024000000000159675001003018000000089                0900000000000010000000000000000000000000000000000000000   0000000000000000000000496A9        170192477882     
0010001300178U 020000000000000000000000000000000000000000000000000000000000000000000000000000000000000000000000000000000000000000000000002708202400000000            000000000000000                              000                           
0010001300179T 0201897X0000000092096 24778822400000090   700000000000009030092024000000000158094001066583000000090                0900000000000010500000000000000000000000000000000000000   0000000000000000000000496A9A4      170192477882     
0010001300180U 020000000000000000000000000000000000000000000000000000000000000000000000000000000000000000000000000000000000000000000000002708202400000000            000000000000000                              000                           
0010001300181T 0201897X0000000092096 24778822400000091   700000000000009130092024000000000157300001009946000000091                0900000000000010000000000000000000000000000000000000000   0000000000000000000000496A9        170192477882     
0010001300182U 020000000000000000000000000000000000000000000000000000000000000000000000000000000000000000000000000000000000000000000000002708202400000000            000000000000000                              000                           
0010001300183T 0201897X0000000092096 24778822400000092   70000000000000923009202400000000015633100101849X000000092                0900000000000010500000000000000000000000000000000000000   0000000000000000000000496A9A4      170192477882     
0010001300184U 020000000000000000000000000000000000000000000000000000000000000000000000000000000000000000000000000000000000000000000000002708202400000000            000000000000000                              000                           
0010001300185T 0201897X0000000092096 24778822400000093   700000000000009330092024000000000156303001041467000000093                0900000000000010500000000000000000000000000000000000000   0000000000000000000000496A9A4      170192477882     
0010001300186U 020000000000000000000000000000000000000000000000000000000000000000000000000000000000000000000000000000000000000000000000002708202400000000            000000000000000                              000                           
0010001300187T 0201897X0000000092096 24778822400000094   700000000000009430092024000000000151842001001724000000094                0900000000000010500000000000000000000000000000000000000   0000000000000000000000496A9A4      170192477882     
0010001300188U 020000000000000000000000000000000000000000000000000000000000000000000000000000000000000000000000000000000000000000000000002708202400000000            000000000000000                              000                           
0010001300189T 0201897X0000000092096 24778822400000095   700000000000009530092024000000000146638001009296000000095                0900000000000010000000000000000000000000000000000000000   0000000000000000000000496A9        170192477882     
0010001300190U 020000000000000000000000000000000000000000000000000000000000000000000000000000000000000000000000000000000000000000000000002708202400000000            000000000000000                              000                           
0010001300191T 0201897X0000000092096 24778822400000096   700000000000009630092024000000000146383001020125000000096                0900000000000010500000000000000000000000000000000000000   0000000000000000000000496A9A4      170192477882     
0010001300192U 020000000000000000000000000000000000000000000000000000000000000000000000000000000000000000000000000000000000000000000000002708202400000000            000000000000000                              000                           
0010001300193T 0201897X0000000092096 24778822400000097   700000000000009730092024000000000146383001000094000000097                0900000000000010500000000000000000000000000000000000000   0000000000000000000000496A9A4      170192477882     
0010001300194U 020000000000000000000000000000000000000000000000000000000000000000000000000000000000000000000000000000000000000000000000002708202400000000            000000000000000                              000                           
0010001300195T 0201897X0000000092096 24778822400000098   700000000000009830092024000000000144894001009296000000098                0900000000000010000000000000000000000000000000000000000   0000000000000000000000496A9        170192477882     
0010001300196U 020000000000000000000000000000000000000000000000000000000000000000000000000000000000000000000000000000000000000000000000002708202400000000            000000000000000                              000                           
0010001300197T 0201897X0000000092096 24778822400000099   700000000000009930092024000000000144626001009296000000099                0900000000000010000000000000000000000000000000000000000   0000000000000000000000496A9        170192477882     
0010001300198U 020000000000000000000000000000000000000000000000000000000000000000000000000000000000000000000000000000000000000000000000002708202400000000            000000000000000                              000                           
0010001300199T 0201897X0000000092096 24778822400000100   700000000000010030092024000000000144563001000566000000100                0900000000000010500000000000000000000000000000000000000   0000000000000000000000496A9A4      170192477882     
0010001300200U 020000000000000000000000000000000000000000000000000000000000000000000000000000000000000000000000000000000000000000000000002708202400000000            000000000000000                              000                           
0010001300201T 0201897X0000000092096 24778822400000101   700000000000010130092024000000000144517001004154000000101                0900000000000010000000000000000000000000000000000000000   0000000000000000000000496A9        170192477882     
0010001300202U 020000000000000000000000000000000000000000000000000000000000000000000000000000000000000000000000000000000000000000000000002708202400000000            000000000000000                              000                           
0010001300203T 0201897X0000000092096 24778822400000102   700000000000010230092024000000000143846001003190000000102                0900000000000010500000000000000000000000000000000000000   0000000000000000000000496A9A4      170192477882     
0010001300204U 020000000000000000000000000000000000000000000000000000000000000000000000000000000000000000000000000000000000000000000000002708202400000000            000000000000000                              000                           
0010001300205T 0201897X0000000092096 24778822400000103   70000000000001033009202400000000014261800101849X000000103                0900000000000010000000000000000000000000000000000000000   0000000000000000000000496A9        170192477882     
0010001300206U 020000000000000000000000000000000000000000000000000000000000000000000000000000000000000000000000000000000000000000000000002708202400000000            000000000000000                              000                           
0010001300207T 0201897X0000000092096 24778822400000104   700000000000010430092024000000000141992001045888000000104                0900000000000010500000000000000000000000000000000000000   0000000000000000000000496A9A4      170192477882     
0010001300208U 020000000000000000000000000000000000000000000000000000000000000000000000000000000000000000000000000000000000000000000000002708202400000000            000000000000000                              000                           
0010001300209T 0201897X0000000092096 24778822400000105   70000000000001053009202400000000013989900101849X000000105                0900000000000010500000000000000000000000000000000000000   0000000000000000000000496A9A4      170192477882     
0010001300210U 020000000000000000000000000000000000000000000000000000000000000000000000000000000000000000000000000000000000000000000000002708202400000000            000000000000000                              000                           
0010001300211T 0201897X0000000092096 24778822400000106   700000000000010630092024000000000137798001003409000000106                0900000000000010000000000000000000000000000000000000000   0000000000000000000000496A9        170192477882     
0010001300212U 020000000000000000000000000000000000000000000000000000000000000000000000000000000000000000000000000000000000000000000000002708202400000000            000000000000000                              000                           
0010001300213T 0201897X0000000092096 24778822400000107   700000000000010730092024000000000137601001024538000000107                0900000000000010500000000000000000000000000000000000000   0000000000000000000000496A9A4      170192477882     
0010001300214U 020000000000000000000000000000000000000000000000000000000000000000000000000000000000000000000000000000000000000000000000002708202400000000            000000000000000                              000                           
0010001300215T 0201897X0000000092096 24778822400000108   700000000000010830092024000000000136714001000566000000108                0900000000000010500000000000000000000000000000000000000   0000000000000000000000496A9A4      170192477882     
0010001300216U 020000000000000000000000000000000000000000000000000000000000000000000000000000000000000000000000000000000000000000000000002708202400000000            000000000000000                              000                           
0010001300217T 0201897X0000000092096 24778822400000109   70000000000001093009202400000000013244900100216X000000109                0900000000000010000000000000000000000000000000000000000   0000000000000000000000496A9        170192477882     
0010001300218U 020000000000000000000000000000000000000000000000000000000000000000000000000000000000000000000000000000000000000000000000002708202400000000            000000000000000                              000                           
0010001300219T 0201897X0000000092096 24778822400000110   700000000000011030092024000000000129943001003409000000110                0900000000000010500000000000000000000000000000000000000   0000000000000000000000496A9A4      170192477882     
0010001300220U 020000000000000000000000000000000000000000000000000000000000000000000000000000000000000000000000000000000000000000000000002708202400000000            000000000000000                              000                           
0010001300221T 0201897X0000000092096 24778822400000111   70000000000001113009202400000000012590100101849X000000111                0900000000000010500000000000000000000000000000000000000   0000000000000000000000496A9A4      170192477882     
0010001300222U 020000000000000000000000000000000000000000000000000000000000000000000000000000000000000000000000000000000000000000000000002708202400000000            000000000000000                              000                           
0010001300223T 0201897X0000000092096 24778822400000112   700000000000011230092024000000000125158001007994000000112                0900000000000010000000000000000000000000000000000000000   0000000000000000000000496A9        170192477882     
0010001300224U 020000000000000000000000000000000000000000000000000000000000000000000000000000000000000000000000000000000000000000000000002708202400000000            000000000000000                              000                           
0010001300225T 0201897X0000000092096 24778822400000113   70000000000001133009202400000000012417300101849X000000113                0900000000000010000000000000000000000000000000000000000   0000000000000000000000496A9        170192477882     
0010001300226U 020000000000000000000000000000000000000000000000000000000000000000000000000000000000000000000000000000000000000000000000002708202400000000            000000000000000                              000                           
0010001300227T 0201897X0000000092096 24778822400000114   700000000000011430092024000000000122962001004154000000114                0900000000000010500000000000000000000000000000000000000   0000000000000000000000496A9A4      170192477882     
0010001300228U 020000000000000000000000000000000000000000000000000000000000000000000000000000000000000000000000000000000000000000000000002708202400000000            000000000000000                              000                           
0010001300229T 0201897X0000000092096 24778822400000115   700000000000011530092024000000000121264001043036000000115                0900000000000010500000000000000000000000000000000000000   0000000000000000000000496A9A4      170192477882     
0010001300230U 020000000000000000000000000000000000000000000000000000000000000000000000000000000000000000000000000000000000000000000000002708202400000000            000000000000000                              000                           
0010001300231T 0201897X0000000092096 24778822400000116   70000000000001163009202400000000012097600101849X000000116                0900000000000010000000000000000000000000000000000000000   0000000000000000000000496A9        170192477882     
0010001300232U 020000000000000000000000000000000000000000000000000000000000000000000000000000000000000000000000000000000000000000000000002708202400000000            000000000000000                              000                           
0010001300233T 0201897X0000000092096 24778822400000117   700000000000011730092024000000000118960001008117000000117                0900000000000010500000000000000000000000000000000000000   0000000000000000000000496A9A4      170192477882     
0010001300234U 020000000000000000000000000000000000000000000000000000000000000000000000000000000000000000000000000000000000000000000000002708202400000000            000000000000000                              000                           
0010001300235T 0201897X0000000092096 24778822400000118   700000000000011830092024000000000118263001022004000000118                0900000000000010500000000000000000000000000000000000000   0000000000000000000000496A9A4      170192477882     
0010001300236U 020000000000000000000000000000000000000000000000000000000000000000000000000000000000000000000000000000000000000000000000002708202400000000            000000000000000                              000                           
0010001300237T 0201897X0000000092096 24778822400000119   700000000000011930092024000000000118044001003018000000119                0900000000000010500000000000000000000000000000000000000   0000000000000000000000496A9A4      170192477882     
0010001300238U 020000000000000000000000000000000000000000000000000000000000000000000000000000000000000000000000000000000000000000000000002708202400000000            000000000000000                              000                           
0010001300239T 0201897X0000000092096 24778822400000120   700000000000012030092024000000000117107001004561000000120                0900000000000010500000000000000000000000000000000000000   0000000000000000000000496A9A4      170192477882     
0010001300240U 020000000000000000000000000000000000000000000000000000000000000000000000000000000000000000000000000000000000000000000000002708202400000000            000000000000000                              000                           
0010001300241T 0201897X0000000092096 24778822400000121   700000000000012130092024000000000115551001066583000000121                0900000000000010500000000000000000000000000000000000000   0000000000000000000000496A9A4      170192477882     
0010001300242U 020000000000000000000000000000000000000000000000000000000000000000000000000000000000000000000000000000000000000000000000002708202400000000            000000000000000                              000                           
0010001300243T 0201897X0000000092096 24778822400000122   700000000000012230092024000000000114618001009946000000122                0900000000000010000000000000000000000000000000000000000   0000000000000000000000496A9        170192477882     
0010001300244U 020000000000000000000000000000000000000000000000000000000000000000000000000000000000000000000000000000000000000000000000002708202400000000            000000000000000                              000                           
0010001300245T 0201897X0000000092096 24778822400000123   700000000000012330092024000000000114252001003190000000123                0900000000000010500000000000000000000000000000000000000   0000000000000000000000496A9A4      170192477882     
0010001300246U 020000000000000000000000000000000000000000000000000000000000000000000000000000000000000000000000000000000000000000000000002708202400000000            000000000000000                              000                           
0010001300247T 0201897X0000000092096 24778822400000124   70000000000001243009202400000000011417800101849X000000124                0900000000000010000000000000000000000000000000000000000   0000000000000000000000496A9        170192477882     
0010001300248U 020000000000000000000000000000000000000000000000000000000000000000000000000000000000000000000000000000000000000000000000002708202400000000            000000000000000                              000                           
0010001300249T 0201897X0000000092096 24778822400000125   70000000000001253009202400000000011271500101849X000000125                0900000000000010500000000000000000000000000000000000000   0000000000000000000000496A9A4      170192477882     
0010001300250U 020000000000000000000000000000000000000000000000000000000000000000000000000000000000000000000000000000000000000000000000002708202400000000            000000000000000                              000                           
0010001300251T 0201897X0000000092096 24778822400000126   70000000000001263009202400000000011185900100216X000000126                0900000000000010500000000000000000000000000000000000000   0000000000000000000000496A9A4      170192477882     
0010001300252U 020000000000000000000000000000000000000000000000000000000000000000000000000000000000000000000000000000000000000000000000002708202400000000            000000000000000                              000                           
0010001300253T 0201897X0000000092096 24778822400000127   700000000000012730092024000000000109787001045888000000127                0900000000000010000000000000000000000000000000000000000   0000000000000000000000496A9        170192477882     
0010001300254U 020000000000000000000000000000000000000000000000000000000000000000000000000000000000000000000000000000000000000000000000002708202400000000            000000000000000                              000                           
0010001300255T 0201897X0000000092096 24778822400000128   700000000000012830092024000000000109415001003190000000128                0900000000000010500000000000000000000000000000000000000   0000000000000000000000496A9A4      170192477882     
0010001300256U 020000000000000000000000000000000000000000000000000000000000000000000000000000000000000000000000000000000000000000000000002708202400000000            000000000000000                              000                           
0010001300257T 0201897X0000000092096 24778822400000129   700000000000012930092024000000000108304001066583000000129                0900000000000010500000000000000000000000000000000000000   0000000000000000000000496A9A4      170192477882     
0010001300258U 020000000000000000000000000000000000000000000000000000000000000000000000000000000000000000000000000000000000000000000000002708202400000000            000000000000000                              000                           
0010001300259T 0201897X0000000092096 24778822400000130   700000000000013030092024000000000107430001003409000000130                0900000000000010500000000000000000000000000000000000000   0000000000000000000000496A9A4      170192477882     
0010001300260U 020000000000000000000000000000000000000000000000000000000000000000000000000000000000000000000000000000000000000000000000002708202400000000            000000000000000                              000                           
0010001300261T 0201897X0000000092096 24778822400000131   700000000000013130092024000000000106349001003409000000131                0900000000000010000000000000000000000000000000000000000   0000000000000000000000496A9        170192477882     
0010001300262U 020000000000000000000000000000000000000000000000000000000000000000000000000000000000000000000000000000000000000000000000002708202400000000            000000000000000                              000                           
0010001300263T 0201897X0000000092096 24778822400000132   700000000000013230092024000000000105396001003409000000132                0900000000000010000000000000000000000000000000000000000   0000000000000000000000496A9        170192477882     
0010001300264U 020000000000000000000000000000000000000000000000000000000000000000000000000000000000000000000000000000000000000000000000002708202400000000            000000000000000                              000                           
0010001300265T 0201897X0000000092096 24778822400000133   700000000000013330092024000000000105396001009946000000133                0900000000000010500000000000000000000000000000000000000   0000000000000000000000496A9A4      170192477882     
0010001300266U 020000000000000000000000000000000000000000000000000000000000000000000000000000000000000000000000000000000000000000000000002708202400000000            000000000000000                              000                           
0010001300267T 0201897X0000000092096 24778822400000134   700000000000013430092024000000000104544001002941000000134                0900000000000010000000000000000000000000000000000000000   0000000000000000000000496A9        170192477882     
0010001300268U 020000000000000000000000000000000000000000000000000000000000000000000000000000000000000000000000000000000000000000000000002708202400000000            000000000000000                              000                           
0010001300269T 0201897X0000000092096 24778822400000135   700000000000013530092024000000000104077001003190000000135                0900000000000010500000000000000000000000000000000000000   0000000000000000000000496A9A4      170192477882     
0010001300270U 020000000000000000000000000000000000000000000000000000000000000000000000000000000000000000000000000000000000000000000000002708202400000000            000000000000000                              000                           
0010001300271T 0201897X0000000092096 24778822400000136   700000000000013630092024000000000102469001001724000000136                0900000000000010500000000000000000000000000000000000000   0000000000000000000000496A9A4      170192477882     
0010001300272U 020000000000000000000000000000000000000000000000000000000000000000000000000000000000000000000000000000000000000000000000002708202400000000            000000000000000                              000                           
0010001300273T 0201897X0000000092096 24778822400000137   700000000000013730092024000000000102469001003018000000137                0900000000000010500000000000000000000000000000000000000   0000000000000000000000496A9A4      170192477882     
0010001300274U 020000000000000000000000000000000000000000000000000000000000000000000000000000000000000000000000000000000000000000000000002708202400000000            000000000000000                              000                           
0010001300275T 0201897X0000000092096 24778822400000138   700000000000013830092024000000000102468001003018000000138                0900000000000010500000000000000000000000000000000000000   0000000000000000000000496A9A4      170192477882     
0010001300276U 020000000000000000000000000000000000000000000000000000000000000000000000000000000000000000000000000000000000000000000000002708202400000000            000000000000000                              000                           
0010001300277T 0201897X0000000092096 24778822400000139   70000000000001393009202400000000010212100101513X000000139                0900000000000010000000000000000000000000000000000000000   0000000000000000000000496A9        170192477882     
0010001300278U 020000000000000000000000000000000000000000000000000000000000000000000000000000000000000000000000000000000000000000000000002708202400000000            000000000000000                              000                           
0010001300279T 0201897X0000000092096 24778822400000140   70000000000001403009202400000000010164200101849X000000140                0900000000000010000000000000000000000000000000000000000   0000000000000000000000496A9        170192477882     
0010001300280U 020000000000000000000000000000000000000000000000000000000000000000000000000000000000000000000000000000000000000000000000002708202400000000            000000000000000                              000                           
0010001300281T 0201897X0000000092096 24778822400000141   700000000000014130092024000000000101446001009296000000141                0900000000000010500000000000000000000000000000000000000   0000000000000000000000496A9A4      170192477882     
0010001300282U 020000000000000000000000000000000000000000000000000000000000000000000000000000000000000000000000000000000000000000000000002708202400000000            000000000000000                              000                           
0010001300283T 0201897X0000000092096 24778822400000142   700000000000014230092024000000000099541001003018000000142                0900000000000010000000000000000000000000000000000000000   0000000000000000000000496A9        170192477882     
0010001300284U 020000000000000000000000000000000000000000000000000000000000000000000000000000000000000000000000000000000000000000000000002708202400000000            000000000000000                              000                           
0010001300285T 0201897X0000000092096 24778822400000143   70000000000001433009202400000000009938000101849X000000143                0900000000000010500000000000000000000000000000000000000   0000000000000000000000496A9A4      170192477882     
0010001300286U 020000000000000000000000000000000000000000000000000000000000000000000000000000000000000000000000000000000000000000000000002708202400000000            000000000000000                              000                           
0010001300287T 0201897X0000000092096 24778822400000144   700000000000014430092024000000000097600001000566000000144                0900000000000010500000000000000000000000000000000000000   0000000000000000000000496A9A4      170192477882     
0010001300288U 020000000000000000000000000000000000000000000000000000000000000000000000000000000000000000000000000000000000000000000000002708202400000000            000000000000000                              000                           
0010001300289T 0201897X0000000092096 24778822400000145   700000000000014530092024000000000095087001003409000000145                0900000000000010000000000000000000000000000000000000000   0000000000000000000000496A9        170192477882     
0010001300290U 020000000000000000000000000000000000000000000000000000000000000000000000000000000000000000000000000000000000000000000000002708202400000000            000000000000000                              000                           
0010001300291T 0201897X0000000092096 24778822400000146   70000000000001463009202400000000009474100101849X000000146                0900000000000010500000000000000000000000000000000000000   0000000000000000000000496A9A4      170192477882     
0010001300292U 020000000000000000000000000000000000000000000000000000000000000000000000000000000000000000000000000000000000000000000000002708202400000000            000000000000000                              000                           
0010001300293T 0201897X0000000092096 24778822400000147   700000000000014730092024000000000093859001009296000000147                0900000000000010000000000000000000000000000000000000000   0000000000000000000000496A9        170192477882     
0010001300294U 020000000000000000000000000000000000000000000000000000000000000000000000000000000000000000000000000000000000000000000000002708202400000000            000000000000000                              000                           
0010001300295T 0201897X0000000092096 24778822400000148   70000000000001483009202400000000009368100101513X000000148                0900000000000010500000000000000000000000000000000000000   0000000000000000000000496A9A4      170192477882     
0010001300296U 020000000000000000000000000000000000000000000000000000000000000000000000000000000000000000000000000000000000000000000000002708202400000000            000000000000000                              000                           
0010001300297T 0201897X0000000092096 24778822400000149   700000000000014930092024000000000091575001043036000000149                0900000000000010500000000000000000000000000000000000000   0000000000000000000000496A9A4      170192477882     
0010001300298U 020000000000000000000000000000000000000000000000000000000000000000000000000000000000000000000000000000000000000000000000002708202400000000            000000000000000                              000                           
0010001300299T 0201897X0000000092096 24778822400000150   700000000000015030092024000000000091136001022004000000150                0900000000000010500000000000000000000000000000000000000   0000000000000000000000496A9A4      170192477882     
0010001300300U 020000000000000000000000000000000000000000000000000000000000000000000000000000000000000000000000000000000000000000000000002708202400000000            000000000000000                              000                           
0010001300301T 0201897X0000000092096 24778822400000151   700000000000015130092024000000000090834001003018000000151                0900000000000010000000000000000000000000000000000000000   0000000000000000000000496A9        170192477882     
0010001300302U 020000000000000000000000000000000000000000000000000000000000000000000000000000000000000000000000000000000000000000000000002708202400000000            000000000000000                              000                           
0010001300303T 0201897X0000000092096 24778822400000152   700000000000015230092024000000000090039001003409000000152                0900000000000010000000000000000000000000000000000000000   0000000000000000000000496A9        170192477882     
0010001300304U 020000000000000000000000000000000000000000000000000000000000000000000000000000000000000000000000000000000000000000000000002708202400000000            000000000000000                              000                           
0010001300305T 0201897X0000000092096 24778822400000153   700000000000015330092024000000000089587001003417000000153                0900000000000010000000000000000000000000000000000000000   0000000000000000000000496A9        170192477882     
0010001300306U 020000000000000000000000000000000000000000000000000000000000000000000000000000000000000000000000000000000000000000000000002708202400000000            000000000000000                              000                           
0010001300307T 0201897X0000000092096 24778822400000154   700000000000015430092024000000000089587001003018000000154                0900000000000010000000000000000000000000000000000000000   0000000000000000000000496A9        170192477882     
0010001300308U 020000000000000000000000000000000000000000000000000000000000000000000000000000000000000000000000000000000000000000000000002708202400000000            000000000000000                              000                           
0010001300309T 0201897X0000000092096 24778822400000155   70000000000001553009202400000000008903300101849X000000155                0900000000000010500000000000000000000000000000000000000   0000000000000000000000496A9A4      170192477882     
0010001300310U 020000000000000000000000000000000000000000000000000000000000000000000000000000000000000000000000000000000000000000000000002708202400000000            000000000000000                              000                           
0010001300311T 0201897X0000000092096 24778822400000156   700000000000015630092024000000000088632001001678000000156                0900000000000010500000000000000000000000000000000000000   0000000000000000000000496A9A4      170192477882     
0010001300312U 020000000000000000000000000000000000000000000000000000000000000000000000000000000000000000000000000000000000000000000000002708202400000000            000000000000000                              000                           
0010001300313T 0201897X0000000092096 24778822400000157   70000000000001573009202400000000008783000101849X000000157                0900000000000010500000000000000000000000000000000000000   0000000000000000000000496A9A4      170192477882     
0010001300314U 020000000000000000000000000000000000000000000000000000000000000000000000000000000000000000000000000000000000000000000000002708202400000000            000000000000000                              000                           
0010001300315T 0201897X0000000092096 24778822400000158   700000000000015830092024000000000087830001001724000000158                0900000000000010000000000000000000000000000000000000000   0000000000000000000000496A9        170192477882     
0010001300316U 020000000000000000000000000000000000000000000000000000000000000000000000000000000000000000000000000000000000000000000000002708202400000000            000000000000000                              000                           
0010001300317T 0201897X0000000092096 24778822400000159   700000000000015930092024000000000087830001009296000000159                0900000000000010000000000000000000000000000000000000000   0000000000000000000000496A9        170192477882     
0010001300318U 020000000000000000000000000000000000000000000000000000000000000000000000000000000000000000000000000000000000000000000000002708202400000000            000000000000000                              000                           
0010001300319T 0201897X0000000092096 24778822400000160   700000000000016030092024000000000087830001001724000000160                0900000000000010500000000000000000000000000000000000000   0000000000000000000000496A9A4      170192477882     
0010001300320U 020000000000000000000000000000000000000000000000000000000000000000000000000000000000000000000000000000000000000000000000002708202400000000            000000000000000                              000                           
0010001300321T 0201897X0000000092096 24778822400000161   70000000000001613009202400000000008783000101849X000000161                0900000000000010000000000000000000000000000000000000000   0000000000000000000000496A9        170192477882     
0010001300322U 020000000000000000000000000000000000000000000000000000000000000000000000000000000000000000000000000000000000000000000000002708202400000000            000000000000000                              000                           
0010001300323T 0201897X0000000092096 24778822400000162   700000000000016230092024000000000087830001006998000000162                0900000000000010000000000000000000000000000000000000000   0000000000000000000000496A9        170192477882     
0010001300324U 020000000000000000000000000000000000000000000000000000000000000000000000000000000000000000000000000000000000000000000000002708202400000000            000000000000000                              000                           
0010001300325T 0201897X0000000092096 24778822400000163   700000000000016330092024000000000087532001000663000000163                0900000000000010000000000000000000000000000000000000000   0000000000000000000000496A9        170192477882     
0010001300326U 020000000000000000000000000000000000000000000000000000000000000000000000000000000000000000000000000000000000000000000000002708202400000000            000000000000000                              000                           
0010001300327T 0201897X0000000092096 24778822400000164   700000000000016430092024000000000087476001006998000000164                0900000000000010000000000000000000000000000000000000000   0000000000000000000000496A9        170192477882     
0010001300328U 020000000000000000000000000000000000000000000000000000000000000000000000000000000000000000000000000000000000000000000000002708202400000000            000000000000000                              000                           
0010001300329T 0201897X0000000092096 24778822400000165   700000000000016530092024000000000083255001003190000000165                0900000000000010000000000000000000000000000000000000000   0000000000000000000000496A9        170192477882     
0010001300330U 020000000000000000000000000000000000000000000000000000000000000000000000000000000000000000000000000000000000000000000000002708202400000000            000000000000000                              000                           
0010001300331T 0201897X0000000092096 24778822400000166   700000000000016630092024000000000078830001016675000000166                0900000000000010000000000000000000000000000000000000000   0000000000000000000000496A9        170192477882     
0010001300332U 020000000000000000000000000000000000000000000000000000000000000000000000000000000000000000000000000000000000000000000000002708202400000000            000000000000000                              000                           
0010001300333T 0201897X0000000092096 24778822400000167   700000000000016730092024000000000078411001008117000000167                0900000000000010500000000000000000000000000000000000000   0000000000000000000000496A9A4      170192477882     
0010001300334U 020000000000000000000000000000000000000000000000000000000000000000000000000000000000000000000000000000000000000000000000002708202400000000            000000000000000                              000                           
0010001300335T 0201897X0000000092096 24778822400000168   700000000000016830092024000000000077769001043036000000168                0900000000000010500000000000000000000000000000000000000   0000000000000000000000496A9A4      170192477882     
0010001300336U 020000000000000000000000000000000000000000000000000000000000000000000000000000000000000000000000000000000000000000000000002708202400000000            000000000000000                              000                           
0010001300337T 0201897X0000000092096 24778822400000169   700000000000016930092024000000000077002001014753000000169                0900000000000010000000000000000000000000000000000000000   0000000000000000000000496A9        170192477882     
0010001300338U 020000000000000000000000000000000000000000000000000000000000000000000000000000000000000000000000000000000000000000000000002708202400000000            000000000000000                              000                           
0010001300339T 0201897X0000000092096 24778822400000170   700000000000017030092024000000000076445001003018000000170                0900000000000010500000000000000000000000000000000000000   0000000000000000000000496A9A4      170192477882     
0010001300340U 020000000000000000000000000000000000000000000000000000000000000000000000000000000000000000000000000000000000000000000000002708202400000000            000000000000000                              000                           
0010001300341T 0201897X0000000092096 24778822400000171   700000000000017130092024000000000075003001003409000000171                0900000000000010500000000000000000000000000000000000000   0000000000000000000000496A9A4      170192477882     
0010001300342U 020000000000000000000000000000000000000000000000000000000000000000000000000000000000000000000000000000000000000000000000002708202400000000            000000000000000                              000                           
0010001300343T 0201897X0000000092096 24778822400000172   700000000000017230092024000000000074532001007994000000172                0900000000000010500000000000000000000000000000000000000   0000000000000000000000496A9A4      170192477882     
0010001300344U 020000000000000000000000000000000000000000000000000000000000000000000000000000000000000000000000000000000000000000000000002708202400000000            000000000000000                              000                           
0010001300345T 0201897X0000000092096 24778822400000173   700000000000017330092024000000000073777001069833000000173                0900000000000010500000000000000000000000000000000000000   0000000000000000000000496A9A4      170192477882     
0010001300346U 020000000000000000000000000000000000000000000000000000000000000000000000000000000000000000000000000000000000000000000000002708202400000000            000000000000000                              000                           
0010001300347T 0201897X0000000092096 24778822400000174   700000000000017430092024000000000073528001004596000000174                0900000000000010000000000000000000000000000000000000000   0000000000000000000000496A9        170192477882     
0010001300348U 020000000000000000000000000000000000000000000000000000000000000000000000000000000000000000000000000000000000000000000000002708202400000000            000000000000000                              000                           
0010001300349T 0201897X0000000092096 24778822400000175   700000000000017530092024000000000073248001007994000000175                0900000000000010500000000000000000000000000000000000000   0000000000000000000000496A9A4      170192477882     
0010001300350U 020000000000000000000000000000000000000000000000000000000000000000000000000000000000000000000000000000000000000000000000002708202400000000            000000000000000                              000                           
0010001300351T 0201897X0000000092096 24778822400000176   70000000000001763009202400000000007319200101849X000000176                0900000000000010500000000000000000000000000000000000000   0000000000000000000000496A9A4      170192477882     
0010001300352U 020000000000000000000000000000000000000000000000000000000000000000000000000000000000000000000000000000000000000000000000002708202400000000            000000000000000                              000                           
0010001300353T 0201897X0000000092096 24778822400000177   700000000000017730092024000000000073191001000566000000177                0900000000000010000000000000000000000000000000000000000   0000000000000000000000496A9        170192477882     
0010001300354U 020000000000000000000000000000000000000000000000000000000000000000000000000000000000000000000000000000000000000000000000002708202400000000            000000000000000                              000                           
0010001300355T 0201897X0000000092096 24778822400000178   700000000000017830092024000000000073191001045888000000178                0900000000000010500000000000000000000000000000000000000   0000000000000000000000496A9A4      170192477882     
0010001300356U 020000000000000000000000000000000000000000000000000000000000000000000000000000000000000000000000000000000000000000000000002708202400000000            000000000000000                              000                           
0010001300357T 0201897X0000000092096 24778822400000179   700000000000017930092024000000000073191001008117000000179                0900000000000010000000000000000000000000000000000000000   0000000000000000000000496A9        170192477882     
0010001300358U 020000000000000000000000000000000000000000000000000000000000000000000000000000000000000000000000000000000000000000000000002708202400000000            000000000000000                              000                           
0010001300359T 0201897X0000000092096 24778822400000180   700000000000018030092024000000000072189001001856000000180                0900000000000010500000000000000000000000000000000000000   0000000000000000000000496A9A4      170192477882     
0010001300360U 020000000000000000000000000000000000000000000000000000000000000000000000000000000000000000000000000000000000000000000000002708202400000000            000000000000000                              000                           
0010001300361T 0201897X0000000092096 24778822400000181   700000000000018130092024000000000072021001004154000000181                0900000000000010500000000000000000000000000000000000000   0000000000000000000000496A9A4      170192477882     
0010001300362U 020000000000000000000000000000000000000000000000000000000000000000000000000000000000000000000000000000000000000000000000002708202400000000            000000000000000                              000                           
0010001300363T 0201897X0000000092096 24778822400000182   700000000000018230092024000000000071882001007994000000182                0900000000000010000000000000000000000000000000000000000   0000000000000000000000496A9        170192477882     
0010001300364U 020000000000000000000000000000000000000000000000000000000000000000000000000000000000000000000000000000000000000000000000002708202400000000            000000000000000                              000                           
0010001300365T 0201897X0000000092096 24778822400000183   700000000000018330092024000000000071226001023248000000183                0900000000000010500000000000000000000000000000000000000   0000000000000000000000496A9A4      170192477882     
0010001300366U 020000000000000000000000000000000000000000000000000000000000000000000000000000000000000000000000000000000000000000000000002708202400000000            000000000000000                              000                           
0010001300367T 0201897X0000000092096 24778822400000184   70000000000001843009202400000000007114200101849X000000184                0900000000000010500000000000000000000000000000000000000   0000000000000000000000496A9A4      170192477882     
0010001300368U 020000000000000000000000000000000000000000000000000000000000000000000000000000000000000000000000000000000000000000000000002708202400000000            000000000000000                              000                           
0010001300369T 0201897X0000000092096 24778822400000185   700000000000018530092024000000000070264001023248000000185                0900000000000010500000000000000000000000000000000000000   0000000000000000000000496A9A4      170192477882     
0010001300370U 020000000000000000000000000000000000000000000000000000000000000000000000000000000000000000000000000000000000000000000000002708202400000000            000000000000000                              000                           
0010001300371T 0201897X0000000092096 24778822400000186   70000000000001863009202400000000007026400101849X000000186                0900000000000010500000000000000000000000000000000000000   0000000000000000000000496A9A4      170192477882     
0010001300372U 020000000000000000000000000000000000000000000000000000000000000000000000000000000000000000000000000000000000000000000000002708202400000000            000000000000000                              000                           
0010001300373T 0201897X0000000092096 24778822400000187   700000000000018730092024000000000070264001027669000000187                0900000000000010500000000000000000000000000000000000000   0000000000000000000000496A9A4      170192477882     
0010001300374U 020000000000000000000000000000000000000000000000000000000000000000000000000000000000000000000000000000000000000000000000002708202400000000            000000000000000                              000                           
0010001300375T 0201897X0000000092096 24778822400000188   700000000000018830092024000000000070264001003018000000188                0900000000000010500000000000000000000000000000000000000   0000000000000000000000496A9A4      170192477882     
0010001300376U 020000000000000000000000000000000000000000000000000000000000000000000000000000000000000000000000000000000000000000000000002708202400000000            000000000000000                              000                           
0010001300377T 0201897X0000000092096 24778822400000189   700000000000018930092024000000000069346001003190000000189                0900000000000010000000000000000000000000000000000000000   0000000000000000000000496A9        170192477882     
0010001300378U 020000000000000000000000000000000000000000000000000000000000000000000000000000000000000000000000000000000000000000000000002708202400000000            000000000000000                              000                           
0010001300379T 0201897X0000000092096 24778822400000190   700000000000019030092024000000000069157001008117000000190                0900000000000010000000000000000000000000000000000000000   0000000000000000000000496A9        170192477882     
0010001300380U 020000000000000000000000000000000000000000000000000000000000000000000000000000000000000000000000000000000000000000000000002708202400000000            000000000000000                              000                           
0010001300381T 0201897X0000000092096 24778822400000191   700000000000019130092024000000000065873001003409000000191                0900000000000010000000000000000000000000000000000000000   0000000000000000000000496A9        170192477882     
0010001300382U 020000000000000000000000000000000000000000000000000000000000000000000000000000000000000000000000000000000000000000000000002708202400000000            000000000000000                              000                           
0010001300383T 0201897X0000000092096 24778822400000192   700000000000019230092024000000000065873001009903000000192                0900000000000010500000000000000000000000000000000000000   0000000000000000000000496A9A4      170192477882     
0010001300384U 020000000000000000000000000000000000000000000000000000000000000000000000000000000000000000000000000000000000000000000000002708202400000000            000000000000000                              000                           
0010001300385T 0201897X0000000092096 24778822400000193   700000000000019330092024000000000065692001029238000000193                0900000000000010500000000000000000000000000000000000000   0000000000000000000000496A9A4      170192477882     
0010001300386U 020000000000000000000000000000000000000000000000000000000000000000000000000000000000000000000000000000000000000000000000002708202400000000            000000000000000                              000                           
0010001300387T 0201897X0000000092096 24778822400000194   700000000000019430092024000000000065503001003409000000194                0900000000000010500000000000000000000000000000000000000   0000000000000000000000496A9A4      170192477882     
0010001300388U 020000000000000000000000000000000000000000000000000000000000000000000000000000000000000000000000000000000000000000000000002708202400000000            000000000000000                              000                           
0010001300389T 0201897X0000000092096 24778822400000195   70000000000001953009202400000000006506200101513X000000195                0900000000000010500000000000000000000000000000000000000   0000000000000000000000496A9A4      170192477882     
0010001300390U 020000000000000000000000000000000000000000000000000000000000000000000000000000000000000000000000000000000000000000000000002708202400000000            000000000000000                              000                           
0010001300391T 0201897X0000000092096 24778822400000196   700000000000019630092024000000000064410001009296000000196                0900000000000010500000000000000000000000000000000000000   0000000000000000000000496A9A4      170192477882     
0010001300392U 020000000000000000000000000000000000000000000000000000000000000000000000000000000000000000000000000000000000000000000000002708202400000000            000000000000000                              000                           
0010001300393T 0201897X0000000092096 24778822400000197   700000000000019730092024000000000062124001009903000000197                0900000000000010500000000000000000000000000000000000000   0000000000000000000000496A9A4      170192477882     
0010001300394U 020000000000000000000000000000000000000000000000000000000000000000000000000000000000000000000000000000000000000000000000002708202400000000            000000000000000                              000                           
0010001300395T 0201897X0000000092096 24778822400000198   700000000000019830092024000000000061603001009946000000198                0900000000000010500000000000000000000000000000000000000   0000000000000000000000496A9A4      170192477882     
0010001300396U 020000000000000000000000000000000000000000000000000000000000000000000000000000000000000000000000000000000000000000000000002708202400000000            000000000000000                              000                           
0010001300397T 0201897X0000000092096 24778822400000199   70000000000001993009202400000000006158700101513X000000199                0900000000000010500000000000000000000000000000000000000   0000000000000000000000496A9A4      170192477882     
0010001300398U 020000000000000000000000000000000000000000000000000000000000000000000000000000000000000000000000000000000000000000000000002708202400000000            000000000000000                              000                           
0010001300399T 0201897X0000000092096 24778822400000200   700000000000020030092024000000000061480001000760000000200                0900000000000010500000000000000000000000000000000000000   0000000000000000000000496A9A4      170192477882     
0010001300400U 020000000000000000000000000000000000000000000000000000000000000000000000000000000000000000000000000000000000000000000000002708202400000000            000000000000000                              000                           
0010001300401T 0201897X0000000092096 24778822400000201   700000000000020130092024000000000060639001003409000000201                0900000000000010500000000000000000000000000000000000000   0000000000000000000000496A9A4      170192477882     
0010001300402U 020000000000000000000000000000000000000000000000000000000000000000000000000000000000000000000000000000000000000000000000002708202400000000            000000000000000                              000                           
0010001300403T 0201897X0000000092096 24778822400000202   70000000000002023009202400000000006063100101849X000000202                0900000000000010000000000000000000000000000000000000000   0000000000000000000000496A9        170192477882     
0010001300404U 020000000000000000000000000000000000000000000000000000000000000000000000000000000000000000000000000000000000000000000000002708202400000000            000000000000000                              000                           
0010001300405T 0201897X0000000092096 24778822400000203   700000000000020330092024000000000060178001003409000000203                0900000000000010500000000000000000000000000000000000000   0000000000000000000000496A9A4      170192477882     
0010001300406U 020000000000000000000000000000000000000000000000000000000000000000000000000000000000000000000000000000000000000000000000002708202400000000            000000000000000                              000                           
0010001300407T 0201897X0000000092096 24778822400000204   700000000000020430092024000000000059551001003417000000204                0900000000000010500000000000000000000000000000000000000   0000000000000000000000496A9A4      170192477882     
0010001300408U 020000000000000000000000000000000000000000000000000000000000000000000000000000000000000000000000000000000000000000000000002708202400000000            000000000000000                              000                           
0010001300409T 0201897X0000000092096 24778822400000205   700000000000020530092024000000000059397001000566000000205                0900000000000010500000000000000000000000000000000000000   0000000000000000000000496A9A4      170192477882     
0010001300410U 020000000000000000000000000000000000000000000000000000000000000000000000000000000000000000000000000000000000000000000000002708202400000000            000000000000000                              000                           
0010001300411T 0201897X0000000092096 24778822400000206   700000000000020630092024000000000059285001007994000000206                0900000000000010000000000000000000000000000000000000000   0000000000000000000000496A9        170192477882     
0010001300412U 020000000000000000000000000000000000000000000000000000000000000000000000000000000000000000000000000000000000000000000000002708202400000000            000000000000000                              000                           
