00100000         2115139610001160024778820014       01897X0000000092096 FUNDACAO AGENCIA DAS BACIAS HIBANCO DO BRASIL                         20511202402062100582503000000829973081PROCESSAMEN                                                 
00100011T0100020 20115139610001160024778820014       01897X0000000092096 FUNDACAO AGENCIA DAS BACIAS HI                                                                                000000000511202400000000  000000000                      
0010001300001T 0201897X0000000092096 24778829000008367   7000008367      29112024000000001004014001009903000008367                0900000000000010500000000000000000000000000000000000000   0000000000000000000000496A9A4      170192477882     
0010001300002U 020000000000000000000000000000000000000000000000000000000000000000000000000000000000000000000000000000000000000000000000000511202400000000            000000000000000                              000                           
0010001300003T 0201897X0000000092096 24778829000008368   7000008368      19122024000000001004015001009903000008368                0900000000000010500000000000000000000000000000000000000   0000000000000000000000496A9A4      170192477882     
0010001300004U 020000000000000000000000000000000000000000000000000000000000000000000000000000000000000000000000000000000000000000000000000511202400000000            000000000000000                              000                           
0010001300005T 0201897X0000000092096 24778829000008369   7000008369      31012025000000001004015001009903000008369                0900000000000010500000000000000000000000000000000000000   0000000000000000000000496A9A4      170192477882     
0010001300006U 020000000000000000000000000000000000000000000000000000000000000000000000000000000000000000000000000000000000000000000000000511202400000000            000000000000000                              000                           
0010001300007T 0201897X0000000092096 24778829000008370   7000008370      29112024000000000172369001000566000008370                0900000000000010000000000000000000000000000000000000000   0000000000000000000000496A9        170192477882     
0010001300008U 020000000000000000000000000000000000000000000000000000000000000000000000000000000000000000000000000000000000000000000000000511202400000000            000000000000000                              000                           
0010001300009T 0201897X0000000092096 24778829000008371   7000008371      29112024000000000019644001003190000008371                0900000000000010000000000000000000000000000000000000000   0000000000000000000000496A9        170192477882     
0010001300010U 020000000000000000000000000000000000000000000000000000000000000000000000000000000000000000000000000000000000000000000000000511202400000000            000000000000000                              000                           
0010001300011T 0201897X0000000092096 24778829000008372   7000008372      29112024000000000197534001009903000008372                0900000000000010500000000000000000000000000000000000000   0000000000000000000000496A9A4      170192477882     
0010001300012U 020000000000000000000000000000000000000000000000000000000000000000000000000000000000000000000000000000000000000000000000000511202400000000            000000000000000                              000                           
0010001300013T 0201897X0000000092096 24778829000008373   7000008373      29112024000000000829769001009296000008373                0900000000000010000000000000000000000000000000000000000   0000000000000000000000496A9        170192477882     
0010001300014U 020000000000000000000000000000000000000000000000000000000000000000000000000000000000000000000000000000000000000000000000000511202400000000            000000000000000                              000                           
0010001300015T 0201897X0000000092096 24778829000008375   7000008375      29112024000000000041569001004596000008375                0900000000000010500000000000000000000000000000000000000   0000000000000000000000496A9A4      170192477882     
0010001300016U 020000000000000000000000000000000000000000000000000000000000000000000000000000000000000000000000000000000000000000000000000511202400000000            000000000000000                              000                           
0010001300017T 0201897X0000000092096 24778829000008376   7000008376      29112024000000000674263001045888000008376                0900000000000010000000000000000000000000000000000000000   0000000000000000000000496A9        170192477882     
0010001300018U 020000000000000000000000000000000000000000000000000000000000000000000000000000000000000000000000000000000000000000000000000511202400000000            000000000000000                              000                           
0010001300019T 0601897X0000000092096 24778822400002796   700000000000279629112024000000000168922341025180000002796                0900000000000010100000000000000000000000000000000000000   000000000000000000000000004        170192477882     
0010001300020U 060000000000000000000000000000000000000000000000000000000000000000000001689220000000001689220000000000000000000000000000000511202406112024            000000000000000                              000                           
0010001300021T 0901897X0000000092096 24778822400000007   700000000000000730092024000000001161103001009946000000007                0900000000000000000000000000000000000000000000000000000   000000000000000000000037209        170192477882     
0010001300022U 090000000000000000000000000000000000000000000000000000000000000000000000000000000000000000000000000000000000000000000000000511202400000000            000000000000000                              000                           
0010001300023T 0901897X0000000092096 24778822400000015   700000000000001530092024000000000757003001003018000000015                0900000000000000000000000000000000000000000000000000000   000000000000000000000037209        170192477882     
0010001300024U 090000000000000000000000000000000000000000000000000000000000000000000000000000000000000000000000000000000000000000000000000511202400000000            000000000000000                              000                           
0010001300025T 0901897X0000000092096 24778822400000021   700000000000002130092024000000000580658001003409000000021                0900000000000000000000000000000000000000000000000000000   000000000000000000000037209        170192477882     
0010001300026U 090000000000000000000000000000000000000000000000000000000000000000000000000000000000000000000000000000000000000000000000000511202400000000            000000000000000                              000                           
0010001300027T 0901897X0000000092096 24778822400000026   700000000000002630092024000000000488935001023248000000026                0900000000000000000000000000000000000000000000000000000   000000000000000000000037209        170192477882     
0010001300028U 090000000000000000000000000000000000000000000000000000000000000000000000000000000000000000000000000000000000000000000000000511202400000000            000000000000000                              000                           
0010001300029T 0901897X0000000092096 24778822400000027   700000000000002730092024000000000484553001000566000000027                0900000000000000000000000000000000000000000000000000000   000000000000000000000037209        170192477882     
0010001300030U 090000000000000000000000000000000000000000000000000000000000000000000000000000000000000000000000000000000000000000000000000511202400000000            000000000000000                              000                           
0010001300031T 0901897X0000000092096 24778822400000039   700000000000003930092024000000000345464001000566000000039                0900000000000000000000000000000000000000000000000000000   000000000000000000000037209        170192477882     
0010001300032U 090000000000000000000000000000000000000000000000000000000000000000000000000000000000000000000000000000000000000000000000000511202400000000            000000000000000                              000                           
0010001300033T 0901897X0000000092096 24778822400000044   700000000000004430092024000000000322043001000094000000044                0900000000000000000000000000000000000000000000000000000   000000000000000000000037209        170192477882     
0010001300034U 090000000000000000000000000000000000000000000000000000000000000000000000000000000000000000000000000000000000000000000000000511202400000000            000000000000000                              000                           
0010001300035T 0901897X0000000092096 24778822400000050   700000000000005030092024000000000292767001001678000000050                0900000000000000000000000000000000000000000000000000000   000000000000000000000037209        170192477882     
0010001300036U 090000000000000000000000000000000000000000000000000000000000000000000000000000000000000000000000000000000000000000000000000511202400000000            000000000000000                              000                           
0010001300037T 0901897X0000000092096 24778822400000059   700000000000005930092024000000000242624001045888000000059                0900000000000000000000000000000000000000000000000000000   000000000000000000000037209        170192477882     
0010001300038U 090000000000000000000000000000000000000000000000000000000000000000000000000000000000000000000000000000000000000000000000000511202400000000            000000000000000                              000                           
0010001300039T 0901897X0000000092096 24778822400000063   700000000000006330092024000000000232255001003409000000063                0900000000000000000000000000000000000000000000000000000   000000000000000000000037209        170192477882     
0010001300040U 090000000000000000000000000000000000000000000000000000000000000000000000000000000000000000000000000000000000000000000000000511202400000000            000000000000000                              000                           
0010001300041T 0901897X0000000092096 24778822400000064   700000000000006430092024000000000232024001020125000000064                0900000000000000000000000000000000000000000000000000000   000000000000000000000037209        170192477882     
0010001300042U 090000000000000000000000000000000000000000000000000000000000000000000000000000000000000000000000000000000000000000000000000511202400000000            000000000000000                              000                           
0010001300043T 0901897X0000000092096 24778822400000066   700000000000006630092024000000000228358001003409000000066                0900000000000000000000000000000000000000000000000000000   000000000000000000000037209        170192477882     
0010001300044U 090000000000000000000000000000000000000000000000000000000000000000000000000000000000000000000000000000000000000000000000000511202400000000            000000000000000                              000                           
0010001300045T 0901897X0000000092096 24778822400000068   70000000000000683009202400000000021737900101849X000000068                0900000000000000000000000000000000000000000000000000000   000000000000000000000037209        170192477882     
0010001300046U 090000000000000000000000000000000000000000000000000000000000000000000000000000000000000000000000000000000000000000000000000511202400000000            000000000000000                              000                           
0010001300047T 0901897X0000000092096 24778822400000069   700000000000006930092024000000000216530001003190000000069                0900000000000000000000000000000000000000000000000000000   000000000000000000000037209        170192477882     
0010001300048U 090000000000000000000000000000000000000000000000000000000000000000000000000000000000000000000000000000000000000000000000000511202400000000            000000000000000                              000                           
0010001300049T 0901897X0000000092096 24778822400000075   700000000000007530092024000000000189845001009903000000075                0900000000000000000000000000000000000000000000000000000   000000000000000000000037209        170192477882     
0010001300050U 090000000000000000000000000000000000000000000000000000000000000000000000000000000000000000000000000000000000000000000000000511202400000000            000000000000000                              000                           
0010001300051T 0901897X0000000092096 24778822400000079   700000000000007930092024000000000181119001021717000000079                0900000000000000000000000000000000000000000000000000000   000000000000000000000037209        170192477882     
0010001300052U 090000000000000000000000000000000000000000000000000000000000000000000000000000000000000000000000000000000000000000000000000511202400000000            000000000000000                              000                           
0010001300053T 0901897X0000000092096 24778822400000083   700000000000008330092024000000000174033001009903000000083                0900000000000000000000000000000000000000000000000000000   000000000000000000000037209        170192477882     
0010001300054U 090000000000000000000000000000000000000000000000000000000000000000000000000000000000000000000000000000000000000000000000000511202400000000            000000000000000                              000                           
0010001300055T 0901897X0000000092096 24778822400000085   700000000000008530092024000000000165659001000566000000085                0900000000000000000000000000000000000000000000000000000   000000000000000000000037209        170192477882     
0010001300056U 090000000000000000000000000000000000000000000000000000000000000000000000000000000000000000000000000000000000000000000000000511202400000000            000000000000000                              000                           
0010001300057T 0901897X0000000092096 24778822400000086   700000000000008630092024000000000161677001008117000000086                0900000000000000000000000000000000000000000000000000000   000000000000000000000037209        170192477882     
0010001300058U 090000000000000000000000000000000000000000000000000000000000000000000000000000000000000000000000000000000000000000000000000511202400000000            000000000000000                              000                           
0010001300059T 0901897X0000000092096 24778822400000092   70000000000000923009202400000000015633100101849X000000092                0900000000000000000000000000000000000000000000000000000   000000000000000000000037209        170192477882     
0010001300060U 090000000000000000000000000000000000000000000000000000000000000000000000000000000000000000000000000000000000000000000000000511202400000000            000000000000000                              000                           
0010001300061T 0901897X0000000092096 24778822400000095   700000000000009530092024000000000146638001009296000000095                0900000000000000000000000000000000000000000000000000000   000000000000000000000037209        170192477882     
0010001300062U 090000000000000000000000000000000000000000000000000000000000000000000000000000000000000000000000000000000000000000000000000511202400000000            000000000000000                              000                           
0010001300063T 0901897X0000000092096 24778822400000110   700000000000011030092024000000000129943001003409000000110                0900000000000000000000000000000000000000000000000000000   000000000000000000000037209        170192477882     
0010001300064U 090000000000000000000000000000000000000000000000000000000000000000000000000000000000000000000000000000000000000000000000000511202400000000            000000000000000                              000                           
0010001300065T 0901897X0000000092096 24778822400000112   700000000000011230092024000000000125158001007994000000112                0900000000000000000000000000000000000000000000000000000   000000000000000000000037209        170192477882     
0010001300066U 090000000000000000000000000000000000000000000000000000000000000000000000000000000000000000000000000000000000000000000000000511202400000000            000000000000000                              000                           
0010001300067T 0901897X0000000092096 24778822400000117   700000000000011730092024000000000118960001008117000000117                0900000000000000000000000000000000000000000000000000000   000000000000000000000037209        170192477882     
0010001300068U 090000000000000000000000000000000000000000000000000000000000000000000000000000000000000000000000000000000000000000000000000511202400000000            000000000000000                              000                           
0010001300069T 0901897X0000000092096 24778822400000124   70000000000001243009202400000000011417800101849X000000124                0900000000000000000000000000000000000000000000000000000   000000000000000000000037209        170192477882     
0010001300070U 090000000000000000000000000000000000000000000000000000000000000000000000000000000000000000000000000000000000000000000000000511202400000000            000000000000000                              000                           
0010001300071T 0901897X0000000092096 24778822400000125   70000000000001253009202400000000011271500101849X000000125                0900000000000000000000000000000000000000000000000000000   000000000000000000000037209        170192477882     
0010001300072U 090000000000000000000000000000000000000000000000000000000000000000000000000000000000000000000000000000000000000000000000000511202400000000            000000000000000                              000                           
0010001300073T 0901897X0000000092096 24778822400000127   700000000000012730092024000000000109787001045888000000127                0900000000000000000000000000000000000000000000000000000   000000000000000000000037209        170192477882     
0010001300074U 090000000000000000000000000000000000000000000000000000000000000000000000000000000000000000000000000000000000000000000000000511202400000000            000000000000000                              000                           
0010001300075T 0901897X0000000092096 24778822400000129   700000000000012930092024000000000108304001066583000000129                0900000000000000000000000000000000000000000000000000000   000000000000000000000037209        170192477882     
0010001300076U 090000000000000000000000000000000000000000000000000000000000000000000000000000000000000000000000000000000000000000000000000511202400000000            000000000000000                              000                           
0010001300077T 0901897X0000000092096 24778822400000131   700000000000013130092024000000000106349001003409000000131                0900000000000000000000000000000000000000000000000000000   000000000000000000000037209        170192477882     
0010001300078U 090000000000000000000000000000000000000000000000000000000000000000000000000000000000000000000000000000000000000000000000000511202400000000            000000000000000                              000                           
0010001300079T 0901897X0000000092096 24778822400000135   700000000000013530092024000000000104077001003190000000135                0900000000000000000000000000000000000000000000000000000   000000000000000000000037209        170192477882     
0010001300080U 090000000000000000000000000000000000000000000000000000000000000000000000000000000000000000000000000000000000000000000000000511202400000000            000000000000000                              000                           
0010001300081T 0901897X0000000092096 24778822400000138   700000000000013830092024000000000102468001003018000000138                0900000000000000000000000000000000000000000000000000000   000000000000000000000037209        170192477882     
0010001300082U 090000000000000000000000000000000000000000000000000000000000000000000000000000000000000000000000000000000000000000000000000511202400000000            000000000000000                              000                           
0010001300083T 0901897X0000000092096 24778822400000142   700000000000014230092024000000000099541001003018000000142                0900000000000000000000000000000000000000000000000000000   000000000000000000000037209        170192477882     
0010001300084U 090000000000000000000000000000000000000000000000000000000000000000000000000000000000000000000000000000000000000000000000000511202400000000            000000000000000                              000                           
0010001300085T 0901897X0000000092096 24778822400000144   700000000000014430092024000000000097600001000566000000144                0900000000000000000000000000000000000000000000000000000   000000000000000000000037209        170192477882     
0010001300086U 090000000000000000000000000000000000000000000000000000000000000000000000000000000000000000000000000000000000000000000000000511202400000000            000000000000000                              000                           
0010001300087T 0901897X0000000092096 24778822400000145   700000000000014530092024000000000095087001003409000000145                0900000000000000000000000000000000000000000000000000000   000000000000000000000037209        170192477882     
0010001300088U 090000000000000000000000000000000000000000000000000000000000000000000000000000000000000000000000000000000000000000000000000511202400000000            000000000000000                              000                           
0010001300089T 0901897X0000000092096 24778822400000146   70000000000001463009202400000000009474100101849X000000146                0900000000000000000000000000000000000000000000000000000   000000000000000000000037209        170192477882     
0010001300090U 090000000000000000000000000000000000000000000000000000000000000000000000000000000000000000000000000000000000000000000000000511202400000000            000000000000000                              000                           
0010001300091T 0901897X0000000092096 24778822400000148   70000000000001483009202400000000009368100101513X000000148                0900000000000000000000000000000000000000000000000000000   000000000000000000000037209        170192477882     
0010001300092U 090000000000000000000000000000000000000000000000000000000000000000000000000000000000000000000000000000000000000000000000000511202400000000            000000000000000                              000                           
0010001300093T 0901897X0000000092096 24778822400000150   700000000000015030092024000000000091136001022004000000150                0900000000000000000000000000000000000000000000000000000   000000000000000000000037209        170192477882     
0010001300094U 090000000000000000000000000000000000000000000000000000000000000000000000000000000000000000000000000000000000000000000000000511202400000000            000000000000000                              000                           
0010001300095T 0901897X0000000092096 24778822400000152   700000000000015230092024000000000090039001003409000000152                0900000000000000000000000000000000000000000000000000000   000000000000000000000037209        170192477882     
0010001300096U 090000000000000000000000000000000000000000000000000000000000000000000000000000000000000000000000000000000000000000000000000511202400000000            000000000000000                              000                           
0010001300097T 0901897X0000000092096 24778822400000154   700000000000015430092024000000000089587001003018000000154                0900000000000000000000000000000000000000000000000000000   000000000000000000000037209        170192477882     
0010001300098U 090000000000000000000000000000000000000000000000000000000000000000000000000000000000000000000000000000000000000000000000000511202400000000            000000000000000                              000                           
0010001300099T 0901897X0000000092096 24778822400000165   700000000000016530092024000000000083255001003190000000165                0900000000000000000000000000000000000000000000000000000   000000000000000000000037209        170192477882     
0010001300100U 090000000000000000000000000000000000000000000000000000000000000000000000000000000000000000000000000000000000000000000000000511202400000000            000000000000000                              000                           
0010001300101T 0901897X0000000092096 24778822400000171   700000000000017130092024000000000075003001003409000000171                0900000000000000000000000000000000000000000000000000000   000000000000000000000037209        170192477882     
0010001300102U 090000000000000000000000000000000000000000000000000000000000000000000000000000000000000000000000000000000000000000000000000511202400000000            000000000000000                              000                           
0010001300103T 0901897X0000000092096 24778822400000174   700000000000017430092024000000000073528001004596000000174                0900000000000000000000000000000000000000000000000000000   000000000000000000000037209        170192477882     
0010001300104U 090000000000000000000000000000000000000000000000000000000000000000000000000000000000000000000000000000000000000000000000000511202400000000            000000000000000                              000                           
0010001300105T 0901897X0000000092096 24778822400000175   700000000000017530092024000000000073248001007994000000175                0900000000000000000000000000000000000000000000000000000   000000000000000000000037209        170192477882     
0010001300106U 090000000000000000000000000000000000000000000000000000000000000000000000000000000000000000000000000000000000000000000000000511202400000000            000000000000000                              000                           
0010001300107T 0901897X0000000092096 24778822400000181   700000000000018130092024000000000072021001004154000000181                0900000000000000000000000000000000000000000000000000000   000000000000000000000037209        170192477882     
0010001300108U 090000000000000000000000000000000000000000000000000000000000000000000000000000000000000000000000000000000000000000000000000511202400000000            000000000000000                              000                           
0010001300109T 0901897X0000000092096 24778822400000186   70000000000001863009202400000000007026400101849X000000186                0900000000000000000000000000000000000000000000000000000   000000000000000000000037209        170192477882     
0010001300110U 090000000000000000000000000000000000000000000000000000000000000000000000000000000000000000000000000000000000000000000000000511202400000000            000000000000000                              000                           
0010001300111T 0901897X0000000092096 24778822400000187   700000000000018730092024000000000070264001027669000000187                0900000000000000000000000000000000000000000000000000000   000000000000000000000037209        170192477882     
0010001300112U 090000000000000000000000000000000000000000000000000000000000000000000000000000000000000000000000000000000000000000000000000511202400000000            000000000000000                              000                           
0010001300113T 0901897X0000000092096 24778822400000190   700000000000019030092024000000000069157001008117000000190                0900000000000000000000000000000000000000000000000000000   000000000000000000000037209        170192477882     
0010001300114U 090000000000000000000000000000000000000000000000000000000000000000000000000000000000000000000000000000000000000000000000000511202400000000            000000000000000                              000                           
0010001300115T 0901897X0000000092096 24778822400000197   700000000000019730092024000000000062124001009903000000197                0900000000000000000000000000000000000000000000000000000   000000000000000000000037209        170192477882     
0010001300116U 090000000000000000000000000000000000000000000000000000000000000000000000000000000000000000000000000000000000000000000000000511202400000000            000000000000000                              000                           
0010001300117T 0901897X0000000092096 24778822400000200   700000000000020030092024000000000061480001000760000000200                0900000000000000000000000000000000000000000000000000000   000000000000000000000037209        170192477882     
0010001300118U 090000000000000000000000000000000000000000000000000000000000000000000000000000000000000000000000000000000000000000000000000511202400000000            000000000000000                              000                           
0010001300119T 0901897X0000000092096 24778822400000201   700000000000020130092024000000000060639001003409000000201                0900000000000000000000000000000000000000000000000000000   000000000000000000000037209        170192477882     
0010001300120U 090000000000000000000000000000000000000000000000000000000000000000000000000000000000000000000000000000000000000000000000000511202400000000            000000000000000                              000                           
0010001300121T 0901897X0000000092096 24778822400000205   700000000000020530092024000000000059397001000566000000205                0900000000000000000000000000000000000000000000000000000   000000000000000000000037209        170192477882     
0010001300122U 090000000000000000000000000000000000000000000000000000000000000000000000000000000000000000000000000000000000000000000000000511202400000000            000000000000000                              000                           
0010001300123T 0901897X0000000092096 24778822400000208   700000000000020830092024000000000058553001043036000000208                0900000000000000000000000000000000000000000000000000000   000000000000000000000037209        170192477882     
0010001300124U 090000000000000000000000000000000000000000000000000000000000000000000000000000000000000000000000000000000000000000000000000511202400000000            000000000000000                              000                           
0010001300125T 0901897X0000000092096 24778822400000212   700000000000021230092024000000000058144001004154000000212                0900000000000000000000000000000000000000000000000000000   000000000000000000000037209        170192477882     
0010001300126U 090000000000000000000000000000000000000000000000000000000000000000000000000000000000000000000000000000000000000000000000000511202400000000            000000000000000                              000                           
0010001300127T 0901897X0000000092096 24778822400000216   70000000000002163009202400000000005505600101849X000000216                0900000000000000000000000000000000000000000000000000000   000000000000000000000037209        170192477882     
0010001300128U 090000000000000000000000000000000000000000000000000000000000000000000000000000000000000000000000000000000000000000000000000511202400000000            000000000000000                              000                           
0010001300129T 0901897X0000000092096 24778822400000219   700000000000021930092024000000000054783001045888000000219                0900000000000000000000000000000000000000000000000000000   000000000000000000000037209        170192477882     
0010001300130U 090000000000000000000000000000000000000000000000000000000000000000000000000000000000000000000000000000000000000000000000000511202400000000            000000000000000                              000                           
0010001300131T 0901897X0000000092096 24778822400000226   700000000000022630092024000000000053168001009946000000226                0900000000000000000000000000000000000000000000000000000   000000000000000000000037209        170192477882     
0010001300132U 090000000000000000000000000000000000000000000000000000000000000000000000000000000000000000000000000000000000000000000000000511202400000000            000000000000000                              000                           
0010001300133T 0901897X0000000092096 24778822400000233   700000000000023330092024000000000050051001009946000000233                0900000000000000000000000000000000000000000000000000000   000000000000000000000037209        170192477882     
0010001300134U 090000000000000000000000000000000000000000000000000000000000000000000000000000000000000000000000000000000000000000000000000511202400000000            000000000000000                              000                           
0010001300135T 0901897X0000000092096 24778822400000236   70000000000002363009202400000000004854800101849X000000236                0900000000000000000000000000000000000000000000000000000   000000000000000000000037209        170192477882     
0010001300136U 090000000000000000000000000000000000000000000000000000000000000000000000000000000000000000000000000000000000000000000000000511202400000000            000000000000000                              000                           
0010001300137T 0901897X0000000092096 24778822400000245   700000000000024530092024000000000046323001003190000000245                0900000000000000000000000000000000000000000000000000000   000000000000000000000037209        170192477882     
0010001300138U 090000000000000000000000000000000000000000000000000000000000000000000000000000000000000000000000000000000000000000000000000511202400000000            000000000000000                              000                           
0010001300139T 0901897X0000000092096 24778822400000249   700000000000024930092024000000000044647001003409000000249                0900000000000000000000000000000000000000000000000000000   000000000000000000000037209        170192477882     
0010001300140U 090000000000000000000000000000000000000000000000000000000000000000000000000000000000000000000000000000000000000000000000000511202400000000            000000000000000                              000                           
0010001300141T 0901897X0000000092096 24778822400000253   70000000000002533009202400000000004391400101849X000000253                0900000000000000000000000000000000000000000000000000000   000000000000000000000037209        170192477882     
0010001300142U 090000000000000000000000000000000000000000000000000000000000000000000000000000000000000000000000000000000000000000000000000511202400000000            000000000000000                              000                           
0010001300143T 0901897X0000000092096 24778822400000254   700000000000025430092024000000000043914001066583000000254                0900000000000000000000000000000000000000000000000000000   000000000000000000000037209        170192477882     
0010001300144U 090000000000000000000000000000000000000000000000000000000000000000000000000000000000000000000000000000000000000000000000000511202400000000            000000000000000                              000                           
0010001300145T 0901897X0000000092096 24778822400000257   700000000000025730092024000000000043914001004154000000257                0900000000000000000000000000000000000000000000000000000   000000000000000000000037209        170192477882     
0010001300146U 090000000000000000000000000000000000000000000000000000000000000000000000000000000000000000000000000000000000000000000000000511202400000000            000000000000000                              000                           
0010001300147T 0901897X0000000092096 24778822400000260   700000000000026030092024000000000043476001001724000000260                0900000000000000000000000000000000000000000000000000000   000000000000000000000037209        170192477882     
0010001300148U 090000000000000000000000000000000000000000000000000000000000000000000000000000000000000000000000000000000000000000000000000511202400000000            000000000000000                              000                           
0010001300149T 0901897X0000000092096 24778822400000264   700000000000026430092024000000000042159001045888000000264                0900000000000000000000000000000000000000000000000000000   000000000000000000000037209        170192477882     
0010001300150U 090000000000000000000000000000000000000000000000000000000000000000000000000000000000000000000000000000000000000000000000000511202400000000            000000000000000                              000                           
0010001300151T 0901897X0000000092096 24778822400000266   700000000000026630092024000000000041930001003018000000266                0900000000000000000000000000000000000000000000000000000   000000000000000000000037209        170192477882     
0010001300152U 090000000000000000000000000000000000000000000000000000000000000000000000000000000000000000000000000000000000000000000000000511202400000000            000000000000000                              000                           
0010001300153T 0901897X0000000092096 24778822400000267   700000000000026730092024000000000041870001000566000000267                0900000000000000000000000000000000000000000000000000000   000000000000000000000037209        170192477882     
0010001300154U 090000000000000000000000000000000000000000000000000000000000000000000000000000000000000000000000000000000000000000000000000511202400000000            000000000000000                              000                           
0010001300155T 0901897X0000000092096 24778822400000271   70000000000002713009202400000000004091700101849X000000271                0900000000000000000000000000000000000000000000000000000   000000000000000000000037209        170192477882     
0010001300156U 090000000000000000000000000000000000000000000000000000000000000000000000000000000000000000000000000000000000000000000000000511202400000000            000000000000000                              000                           
0010001300157T 0901897X0000000092096 24778822400000274   700000000000027430092024000000000039880001000337000000274                0900000000000000000000000000000000000000000000000000000   000000000000000000000037209        170192477882     
0010001300158U 090000000000000000000000000000000000000000000000000000000000000000000000000000000000000000000000000000000000000000000000000511202400000000            000000000000000                              000                           
0010001300159T 0901897X0000000092096 24778822400000277   700000000000027730092024000000000039640001004154000000277                0900000000000000000000000000000000000000000000000000000   000000000000000000000037209        170192477882     
0010001300160U 090000000000000000000000000000000000000000000000000000000000000000000000000000000000000000000000000000000000000000000000000511202400000000            000000000000000                              000                           
0010001300161T 0901897X0000000092096 24778822400000280   700000000000028030092024000000000039523001043036000000280                0900000000000000000000000000000000000000000000000000000   000000000000000000000037209        170192477882     
0010001300162U 090000000000000000000000000000000000000000000000000000000000000000000000000000000000000000000000000000000000000000000000000511202400000000            000000000000000                              000                           
0010001300163T 0901897X0000000092096 24778822400000283   700000000000028330092024000000000039399001000566000000283                0900000000000000000000000000000000000000000000000000000   000000000000000000000037209        170192477882     
0010001300164U 090000000000000000000000000000000000000000000000000000000000000000000000000000000000000000000000000000000000000000000000000511202400000000            000000000000000                              000                           
0010001300165T 0901897X0000000092096 24778822400000284   70000000000002843009202400000000003933900101513X000000284                0900000000000000000000000000000000000000000000000000000   000000000000000000000037209        170192477882     
0010001300166U 090000000000000000000000000000000000000000000000000000000000000000000000000000000000000000000000000000000000000000000000000511202400000000            000000000000000                              000                           
0010001300167T 0901897X0000000092096 24778822400000294   700000000000029430092024000000000038538001069833000000294                0900000000000000000000000000000000000000000000000000000   000000000000000000000037209        170192477882     
0010001300168U 090000000000000000000000000000000000000000000000000000000000000000000000000000000000000000000000000000000000000000000000000511202400000000            000000000000000                              000                           
0010001300169T 0901897X0000000092096 24778822400000296   700000000000029630092024000000000038501001024538000000296                0900000000000000000000000000000000000000000000000000000   000000000000000000000037209        170192477882     
0010001300170U 090000000000000000000000000000000000000000000000000000000000000000000000000000000000000000000000000000000000000000000000000511202400000000            000000000000000                              000                           
0010001300171T 0901897X0000000092096 24778822400000302   70000000000003023009202400000000003790000101849X000000302                0900000000000000000000000000000000000000000000000000000   000000000000000000000037209        170192477882     
0010001300172U 090000000000000000000000000000000000000000000000000000000000000000000000000000000000000000000000000000000000000000000000000511202400000000            000000000000000                              000                           
0010001300173T 0901897X0000000092096 24778822400000306   700000000000030630092024000000000037538001008117000000306                0900000000000000000000000000000000000000000000000000000   000000000000000000000037209        170192477882     
0010001300174U 090000000000000000000000000000000000000000000000000000000000000000000000000000000000000000000000000000000000000000000000000511202400000000            000000000000000                              000                           
0010001300175T 0901897X0000000092096 24778822400000309   700000000000030930092024000000000037342001003409000000309                0900000000000000000000000000000000000000000000000000000   000000000000000000000037209        170192477882     
0010001300176U 090000000000000000000000000000000000000000000000000000000000000000000000000000000000000000000000000000000000000000000000000511202400000000            000000000000000                              000                           
0010001300177T 0901897X0000000092096 24778822400000310   70000000000003103009202400000000003734000101849X000000310                0900000000000000000000000000000000000000000000000000000   000000000000000000000037209        170192477882     
0010001300178U 090000000000000000000000000000000000000000000000000000000000000000000000000000000000000000000000000000000000000000000000000511202400000000            000000000000000                              000                           
0010001300179T 0901897X0000000092096 24778822400000311   700000000000031130092024000000000037240001003018000000311                0900000000000000000000000000000000000000000000000000000   000000000000000000000037209        170192477882     
0010001300180U 090000000000000000000000000000000000000000000000000000000000000000000000000000000000000000000000000000000000000000000000000511202400000000            000000000000000                              000                           
0010001300181T 0901897X0000000092096 24778822400000314   700000000000031430092024000000000037030001009296000000314                0900000000000000000000000000000000000000000000000000000   000000000000000000000037209        170192477882     
0010001300182U 090000000000000000000000000000000000000000000000000000000000000000000000000000000000000000000000000000000000000000000000000511202400000000            000000000000000                              000                           
0010001300183T 0901897X0000000092096 24778822400000315   700000000000031530092024000000000036903001003409000000315                0900000000000000000000000000000000000000000000000000000   000000000000000000000037209        170192477882     
0010001300184U 090000000000000000000000000000000000000000000000000000000000000000000000000000000000000000000000000000000000000000000000000511202400000000            000000000000000                              000                           
0010001300185T 0901897X0000000092096 24778822400000321   70000000000003213009202400000000003660600100216X000000321                0900000000000000000000000000000000000000000000000000000   000000000000000000000037209        170192477882     
0010001300186U 090000000000000000000000000000000000000000000000000000000000000000000000000000000000000000000000000000000000000000000000000511202400000000            000000000000000                              000                           
0010001300187T 0901897X0000000092096 24778822400000323   70000000000003233009202400000000003659600100216X000000323                0900000000000000000000000000000000000000000000000000000   000000000000000000000037209        170192477882     
0010001300188U 090000000000000000000000000000000000000000000000000000000000000000000000000000000000000000000000000000000000000000000000000511202400000000            000000000000000                              000                           
0010001300189T 0901897X0000000092096 24778822400000324   700000000000032430092024000000000036596001024279000000324                0900000000000000000000000000000000000000000000000000000   000000000000000000000037209        170192477882     
0010001300190U 090000000000000000000000000000000000000000000000000000000000000000000000000000000000000000000000000000000000000000000000000511202400000000            000000000000000                              000                           
0010001300191T 0901897X0000000092096 24778822400000325   700000000000032530092024000000000036596001004596000000325                0900000000000000000000000000000000000000000000000000000   000000000000000000000037209        170192477882     
0010001300192U 090000000000000000000000000000000000000000000000000000000000000000000000000000000000000000000000000000000000000000000000000511202400000000            000000000000000                              000                           
0010001300193T 0901897X0000000092096 24778822400000327   70000000000003273009202400000000003659600100216X000000327                0900000000000000000000000000000000000000000000000000000   000000000000000000000037209        170192477882     
0010001300194U 090000000000000000000000000000000000000000000000000000000000000000000000000000000000000000000000000000000000000000000000000511202400000000            000000000000000                              000                           
0010001300195T 0901897X0000000092096 24778822400000328   700000000000032830092024000000000036596001004154000000328                0900000000000000000000000000000000000000000000000000000   000000000000000000000037209        170192477882     
0010001300196U 090000000000000000000000000000000000000000000000000000000000000000000000000000000000000000000000000000000000000000000000000511202400000000            000000000000000                              000                           
0010001300197T 0901897X0000000092096 24778822400000336   70000000000003363009202400000000003645400101849X000000336                0900000000000000000000000000000000000000000000000000000   000000000000000000000037209        170192477882     
0010001300198U 090000000000000000000000000000000000000000000000000000000000000000000000000000000000000000000000000000000000000000000000000511202400000000            000000000000000                              000                           
0010001300199T 0901897X0000000092096 24778822400000339   700000000000033930092024000000000036180001009296000000339                0900000000000000000000000000000000000000000000000000000   000000000000000000000037209        170192477882     
0010001300200U 090000000000000000000000000000000000000000000000000000000000000000000000000000000000000000000000000000000000000000000000000511202400000000            000000000000000                              000                           
0010001300201T 0901897X0000000092096 24778822400000340   700000000000034030092024000000000036095001009903000000340                0900000000000000000000000000000000000000000000000000000   000000000000000000000037209        170192477882     
0010001300202U 090000000000000000000000000000000000000000000000000000000000000000000000000000000000000000000000000000000000000000000000000511202400000000            000000000000000                              000                           
0010001300203T 0901897X0000000092096 24778822400000342   700000000000034230092024000000000036095001006998000000342                0900000000000000000000000000000000000000000000000000000   000000000000000000000037209        170192477882     
0010001300204U 090000000000000000000000000000000000000000000000000000000000000000000000000000000000000000000000000000000000000000000000000511202400000000            000000000000000                              000                           
0010001300205T 0901897X0000000092096 24778822400000347   70000000000003473009202400000000003575400101172X000000347                0900000000000000000000000000000000000000000000000000000   000000000000000000000037209        170192477882     
0010001300206U 090000000000000000000000000000000000000000000000000000000000000000000000000000000000000000000000000000000000000000000000000511202400000000            000000000000000                              000                           
0010001300207T 0901897X0000000092096 24778822400000348   700000000000034830092024000000000035754001069833000000348                0900000000000000000000000000000000000000000000000000000   000000000000000000000037209        170192477882     
0010001300208U 090000000000000000000000000000000000000000000000000000000000000000000000000000000000000000000000000000000000000000000000000511202400000000            000000000000000                              000                           
0010001300209T 0901897X0000000092096 24778822400000355   700000000000035530092024000000000035324001001724000000355                0900000000000000000000000000000000000000000000000000000   000000000000000000000037209        170192477882     
0010001300210U 090000000000000000000000000000000000000000000000000000000000000000000000000000000000000000000000000000000000000000000000000511202400000000            000000000000000                              000                           
0010001300211T 0901897X0000000092096 24778822400000357   700000000000035730092024000000000035132001003018000000357                0900000000000000000000000000000000000000000000000000000   000000000000000000000037209        170192477882     
0010001300212U 090000000000000000000000000000000000000000000000000000000000000000000000000000000000000000000000000000000000000000000000000511202400000000            000000000000000                              000                           
0010001300213T 0901897X0000000092096 24778822400000360   700000000000036030092024000000000035132001004561000000360                0900000000000000000000000000000000000000000000000000000   000000000000000000000037209        170192477882     
0010001300214U 090000000000000000000000000000000000000000000000000000000000000000000000000000000000000000000000000000000000000000000000000511202400000000            000000000000000                              000                           
0010001300215T 0901897X0000000092096 24778822400000367   700000000000036730092024000000000035132001004561000000367                0900000000000000000000000000000000000000000000000000000   000000000000000000000037209        170192477882     
0010001300216U 090000000000000000000000000000000000000000000000000000000000000000000000000000000000000000000000000000000000000000000000000511202400000000            000000000000000                              000                           
0010001300217T 0901897X0000000092096 24778822400000368   70000000000003683009202400000000003513100100216X000000368                0900000000000000000000000000000000000000000000000000000   000000000000000000000037209        170192477882     
0010001300218U 090000000000000000000000000000000000000000000000000000000000000000000000000000000000000000000000000000000000000000000000000511202400000000            000000000000000                              000                           
0010001300219T 0901897X0000000092096 24778822400000369   700000000000036930092024000000000035036001003409000000369                0900000000000000000000000000000000000000000000000000000   000000000000000000000037209        170192477882     
0010001300220U 090000000000000000000000000000000000000000000000000000000000000000000000000000000000000000000000000000000000000000000000000511202400000000            000000000000000                              000                           
0010001300221T 0901897X0000000092096 24778822400000370   700000000000037030092024000000000035036001043036000000370                0900000000000000000000000000000000000000000000000000000   000000000000000000000037209        170192477882     
0010001300222U 090000000000000000000000000000000000000000000000000000000000000000000000000000000000000000000000000000000000000000000000000511202400000000            000000000000000                              000                           
0010001300223T 0901897X0000000092096 24778822400000374   700000000000037430092024000000000034651001003018000000374                0900000000000000000000000000000000000000000000000000000   000000000000000000000037209        170192477882     
0010001300224U 090000000000000000000000000000000000000000000000000000000000000000000000000000000000000000000000000000000000000000000000000511202400000000            000000000000000                              000                           
0010001300225T 0901897X0000000092096 24778822400000375   700000000000037530092024000000000034651001003409000000375                0900000000000000000000000000000000000000000000000000000   000000000000000000000037209        170192477882     
0010001300226U 090000000000000000000000000000000000000000000000000000000000000000000000000000000000000000000000000000000000000000000000000511202400000000            000000000000000                              000                           
0010001300227T 0901897X0000000092096 24778822400000377   700000000000037730092024000000000034635001022004000000377                0900000000000000000000000000000000000000000000000000000   000000000000000000000037209        170192477882     
0010001300228U 090000000000000000000000000000000000000000000000000000000000000000000000000000000000000000000000000000000000000000000000000511202400000000            000000000000000                              000                           
0010001300229T 0901897X0000000092096 24778822400000379   700000000000037930092024000000000034546001001678000000379                0900000000000000000000000000000000000000000000000000000   000000000000000000000037209        170192477882     
0010001300230U 090000000000000000000000000000000000000000000000000000000000000000000000000000000000000000000000000000000000000000000000000511202400000000            000000000000000                              000                           
0010001300231T 0901897X0000000092096 24778822400000380   700000000000038030092024000000000034516001069833000000380                0900000000000000000000000000000000000000000000000000000   000000000000000000000037209        170192477882     
0010001300232U 090000000000000000000000000000000000000000000000000000000000000000000000000000000000000000000000000000000000000000000000000511202400000000            000000000000000                              000                           
0010001300233T 0901897X0000000092096 24778822400000381   700000000000038130092024000000000034500001024279000000381                0900000000000000000000000000000000000000000000000000000   000000000000000000000037209        170192477882     
0010001300234U 090000000000000000000000000000000000000000000000000000000000000000000000000000000000000000000000000000000000000000000000000511202400000000            000000000000000                              000                           
0010001300235T 0901897X0000000092096 24778822400000384   700000000000038430092024000000000034085001001724000000384                0900000000000000000000000000000000000000000000000000000   000000000000000000000037209        170192477882     
0010001300236U 090000000000000000000000000000000000000000000000000000000000000000000000000000000000000000000000000000000000000000000000000511202400000000            000000000000000                              000                           
0010001300237T 0901897X0000000092096 24778822400000385   700000000000038530092024000000000033976001003190000000385                0900000000000000000000000000000000000000000000000000000   000000000000000000000037209        170192477882     
0010001300238U 090000000000000000000000000000000000000000000000000000000000000000000000000000000000000000000000000000000000000000000000000511202400000000            000000000000000                              000                           
0010001300239T 0901897X0000000092096 24778822400000386   700000000000038630092024000000000033880001009946000000386                0900000000000000000000000000000000000000000000000000000   000000000000000000000037209        170192477882     
0010001300240U 090000000000000000000000000000000000000000000000000000000000000000000000000000000000000000000000000000000000000000000000000511202400000000            000000000000000                              000                           
0010001300241T 0901897X0000000092096 24778822400000389   70000000000003893009202400000000003372600101849X000000389                0900000000000000000000000000000000000000000000000000000   000000000000000000000037209        170192477882     
0010001300242U 090000000000000000000000000000000000000000000000000000000000000000000000000000000000000000000000000000000000000000000000000511202400000000            000000000000000                              000                           
0010001300243T 0901897X0000000092096 24778822400000392   700000000000039230092024000000000033626001004561000000392                0900000000000000000000000000000000000000000000000000000   000000000000000000000037209        170192477882     
0010001300244U 090000000000000000000000000000000000000000000000000000000000000000000000000000000000000000000000000000000000000000000000000511202400000000            000000000000000                              000                           
0010001300245T 0901897X0000000092096 24778822400000394   700000000000039430092024000000000033567001001678000000394                0900000000000000000000000000000000000000000000000000000   000000000000000000000037209        170192477882     
0010001300246U 090000000000000000000000000000000000000000000000000000000000000000000000000000000000000000000000000000000000000000000000000511202400000000            000000000000000                              000                           
0010001300247T 0901897X0000000092096 24778822400000395   70000000000003953009202400000000003343000101513X000000395                0900000000000000000000000000000000000000000000000000000   000000000000000000000037209        170192477882     
0010001300248U 090000000000000000000000000000000000000000000000000000000000000000000000000000000000000000000000000000000000000000000000000511202400000000            000000000000000                              000                           
0010001300249T 0901897X0000000092096 24778822400000402   700000000000040230092024000000000033022001007994000000402                0900000000000000000000000000000000000000000000000000000   000000000000000000000037209        170192477882     
0010001300250U 090000000000000000000000000000000000000000000000000000000000000000000000000000000000000000000000000000000000000000000000000511202400000000            000000000000000                              000                           
0010001300251T 0901897X0000000092096 24778822400000406   700000000000040630092024000000000032598001069833000000406                0900000000000000000000000000000000000000000000000000000   000000000000000000000037209        170192477882     
0010001300252U 090000000000000000000000000000000000000000000000000000000000000000000000000000000000000000000000000000000000000000000000000511202400000000            000000000000000                              000                           
0010001300253T 0901897X0000000092096 24778822400000408   700000000000040830092024000000000032537001003409000000408                0900000000000000000000000000000000000000000000000000000   000000000000000000000037209        170192477882     
0010001300254U 090000000000000000000000000000000000000000000000000000000000000000000000000000000000000000000000000000000000000000000000000511202400000000            000000000000000                              000                           
0010001300255T 0901897X0000000092096 24778822400000411   70000000000004113009202400000000003236600101849X000000411                0900000000000000000000000000000000000000000000000000000   000000000000000000000037209        170192477882     
0010001300256U 090000000000000000000000000000000000000000000000000000000000000000000000000000000000000000000000000000000000000000000000000511202400000000            000000000000000                              000                           
0010001300257T 0901897X0000000092096 24778822400000412   700000000000041230092024000000000032289001003190000000412                0900000000000000000000000000000000000000000000000000000   000000000000000000000037209        170192477882     
0010001300258U 090000000000000000000000000000000000000000000000000000000000000000000000000000000000000000000000000000000000000000000000000511202400000000            000000000000000                              000                           
0010001300259T 0901897X0000000092096 24778822400000413   70000000000004133009202400000000003220500100216X000000413                0900000000000000000000000000000000000000000000000000000   000000000000000000000037209        170192477882     
0010001300260U 090000000000000000000000000000000000000000000000000000000000000000000000000000000000000000000000000000000000000000000000000511202400000000            000000000000000                              000                           
0010001300261T 0901897X0000000092096 24778822400000414   700000000000041430092024000000000032205001001678000000414                0900000000000000000000000000000000000000000000000000000   000000000000000000000037209        170192477882     
0010001300262U 090000000000000000000000000000000000000000000000000000000000000000000000000000000000000000000000000000000000000000000000000511202400000000            000000000000000                              000                           
0010001300263T 0901897X0000000092096 24778822400000421   700000000000042130092024000000000032046001024538000000421                0900000000000000000000000000000000000000000000000000000   000000000000000000000037209        170192477882     
0010001300264U 090000000000000000000000000000000000000000000000000000000000000000000000000000000000000000000000000000000000000000000000000511202400000000            000000000000000                              000                           
0010001300265T 0901897X0000000092096 24778822400000433   700000000000043330092024000000000031313001026816000000433                0900000000000000000000000000000000000000000000000000000   000000000000000000000037209        170192477882     
0010001300266U 090000000000000000000000000000000000000000000000000000000000000000000000000000000000000000000000000000000000000000000000000511202400000000            000000000000000                              000                           
0010001300267T 0901897X0000000092096 24778822400000435   70000000000004353009202400000000003122200101849X000000435                0900000000000000000000000000000000000000000000000000000   000000000000000000000037209        170192477882     
0010001300268U 090000000000000000000000000000000000000000000000000000000000000000000000000000000000000000000000000000000000000000000000000511202400000000            000000000000000                              000                           
0010001300269T 0901897X0000000092096 24778822400000437   700000000000043730092024000000000031043001003018000000437                0900000000000000000000000000000000000000000000000000000   000000000000000000000037209        170192477882     
0010001300270U 090000000000000000000000000000000000000000000000000000000000000000000000000000000000000000000000000000000000000000000000000511202400000000            000000000000000                              000                           
0010001300271T 0901897X0000000092096 24778822400000442   700000000000044230092024000000000030817001004154000000442                0900000000000000000000000000000000000000000000000000000   000000000000000000000037209        170192477882     
0010001300272U 090000000000000000000000000000000000000000000000000000000000000000000000000000000000000000000000000000000000000000000000000511202400000000            000000000000000                              000                           
0010001300273T 0901897X0000000092096 24778822400000444   700000000000044430092024000000000030760001004561000000444                0900000000000000000000000000000000000000000000000000000   000000000000000000000037209        170192477882     
0010001300274U 090000000000000000000000000000000000000000000000000000000000000000000000000000000000000000000000000000000000000000000000000511202400000000            000000000000000                              000                           
0010001300275T 0901897X0000000092096 24778822400000445   700000000000044530092024000000000030757001004596000000445                0900000000000000000000000000000000000000000000000000000   000000000000000000000037209        170192477882     
0010001300276U 090000000000000000000000000000000000000000000000000000000000000000000000000000000000000000000000000000000000000000000000000511202400000000            000000000000000                              000                           
0010001300277T 0901897X0000000092096 24778822400000446   700000000000044630092024000000000030741001023248000000446                0900000000000000000000000000000000000000000000000000000   000000000000000000000037209        170192477882     
0010001300278U 090000000000000000000000000000000000000000000000000000000000000000000000000000000000000000000000000000000000000000000000000511202400000000            000000000000000                              000                           
0010001300279T 0901897X0000000092096 24778822400000449   700000000000044930092024000000000030741001009946000000449                0900000000000000000000000000000000000000000000000000000   000000000000000000000037209        170192477882     
0010001300280U 090000000000000000000000000000000000000000000000000000000000000000000000000000000000000000000000000000000000000000000000000511202400000000            000000000000000                              000                           
0010001300281T 0901897X0000000092096 24778822400000453   70000000000004533009202400000000003052700101849X000000453                0900000000000000000000000000000000000000000000000000000   000000000000000000000037209        170192477882     
0010001300282U 090000000000000000000000000000000000000000000000000000000000000000000000000000000000000000000000000000000000000000000000000511202400000000            000000000000000                              000                           
0010001300283T 0901897X0000000092096 24778822400000454   700000000000045430092024000000000030492001003409000000454                0900000000000000000000000000000000000000000000000000000   000000000000000000000037209        170192477882     
0010001300284U 090000000000000000000000000000000000000000000000000000000000000000000000000000000000000000000000000000000000000000000000000511202400000000            000000000000000                              000                           
0010001300285T 0901897X0000000092096 24778822400000455   700000000000045530092024000000000030492001003018000000455                0900000000000000000000000000000000000000000000000000000   000000000000000000000037209        170192477882     
0010001300286U 090000000000000000000000000000000000000000000000000000000000000000000000000000000000000000000000000000000000000000000000000511202400000000            000000000000000                              000                           
0010001300287T 0901897X0000000092096 24778822400000463   700000000000046330092024000000000030275001004596000000463                0900000000000000000000000000000000000000000000000000000   000000000000000000000037209        170192477882     
0010001300288U 090000000000000000000000000000000000000000000000000000000000000000000000000000000000000000000000000000000000000000000000000511202400000000            000000000000000                              000                           
0010001300289T 0901897X0000000092096 24778822400000473   700000000000047330092024000000000029600001009296000000473                0900000000000000000000000000000000000000000000000000000   000000000000000000000037209        170192477882     
0010001300290U 090000000000000000000000000000000000000000000000000000000000000000000000000000000000000000000000000000000000000000000000000511202400000000            000000000000000                              000                           
0010001300291T 0901897X0000000092096 24778822400000476   700000000000047630092024000000000029399001004154000000476                0900000000000000000000000000000000000000000000000000000   000000000000000000000037209        170192477882     
0010001300292U 090000000000000000000000000000000000000000000000000000000000000000000000000000000000000000000000000000000000000000000000000511202400000000            000000000000000                              000                           
0010001300293T 0901897X0000000092096 24778822400000478   700000000000047830092024000000000029277001003018000000478                0900000000000000000000000000000000000000000000000000000   000000000000000000000037209        170192477882     
0010001300294U 090000000000000000000000000000000000000000000000000000000000000000000000000000000000000000000000000000000000000000000000000511202400000000            000000000000000                              000                           
0010001300295T 0901897X0000000092096 24778822400000479   700000000000047930092024000000000029277001003018000000479                0900000000000000000000000000000000000000000000000000000   000000000000000000000037209        170192477882     
0010001300296U 090000000000000000000000000000000000000000000000000000000000000000000000000000000000000000000000000000000000000000000000000511202400000000            000000000000000                              000                           
0010001300297T 0901897X0000000092096 24778822400000481   700000000000048130092024000000000029277001003018000000481                0900000000000000000000000000000000000000000000000000000   000000000000000000000037209        170192477882     
0010001300298U 090000000000000000000000000000000000000000000000000000000000000000000000000000000000000000000000000000000000000000000000000511202400000000            000000000000000                              000                           
0010001300299T 0901897X0000000092096 24778822400000482   700000000000048230092024000000000029277001003018000000482                0900000000000000000000000000000000000000000000000000000   000000000000000000000037209        170192477882     
0010001300300U 090000000000000000000000000000000000000000000000000000000000000000000000000000000000000000000000000000000000000000000000000511202400000000            000000000000000                              000                           
0010001300301T 0901897X0000000092096 24778822400000484   70000000000004843009202400000000002927700101849X000000484                0900000000000000000000000000000000000000000000000000000   000000000000000000000037209        170192477882     
0010001300302U 090000000000000000000000000000000000000000000000000000000000000000000000000000000000000000000000000000000000000000000000000511202400000000            000000000000000                              000                           
0010001300303T 0901897X0000000092096 24778822400000486   700000000000048630092024000000000029277001009946000000486                0900000000000000000000000000000000000000000000000000000   000000000000000000000037209        170192477882     
0010001300304U 090000000000000000000000000000000000000000000000000000000000000000000000000000000000000000000000000000000000000000000000000511202400000000            000000000000000                              000                           
0010001300305T 0901897X0000000092096 24778822400000489   700000000000048930092024000000000029277001008117000000489                0900000000000000000000000000000000000000000000000000000   000000000000000000000037209        170192477882     
0010001300306U 090000000000000000000000000000000000000000000000000000000000000000000000000000000000000000000000000000000000000000000000000511202400000000            000000000000000                              000                           
0010001300307T 0901897X0000000092096 24778822400000496   70000000000004963009202400000000002927700100216X000000496                0900000000000000000000000000000000000000000000000000000   000000000000000000000037209        170192477882     
0010001300308U 090000000000000000000000000000000000000000000000000000000000000000000000000000000000000000000000000000000000000000000000000511202400000000            000000000000000                              000                           
0010001300309T 0901897X0000000092096 24778822400000497   700000000000049730092024000000000029277001003409000000497                0900000000000000000000000000000000000000000000000000000   000000000000000000000037209        170192477882     
0010001300310U 090000000000000000000000000000000000000000000000000000000000000000000000000000000000000000000000000000000000000000000000000511202400000000            000000000000000                              000                           
0010001300311T 0901897X0000000092096 24778822400000502   700000000000050230092024000000000029277001041467000000502                0900000000000000000000000000000000000000000000000000000   000000000000000000000037209        170192477882     
0010001300312U 090000000000000000000000000000000000000000000000000000000000000000000000000000000000000000000000000000000000000000000000000511202400000000            000000000000000                              000                           
0010001300313T 0901897X0000000092096 24778822400000504   700000000000050430092024000000000029277001015962000000504                0900000000000000000000000000000000000000000000000000000   000000000000000000000037209        170192477882     
0010001300314U 090000000000000000000000000000000000000000000000000000000000000000000000000000000000000000000000000000000000000000000000000511202400000000            000000000000000                              000                           
0010001300315T 0901897X0000000092096 24778822400000506   700000000000050630092024000000000029277001004154000000506                0900000000000000000000000000000000000000000000000000000   000000000000000000000037209        170192477882     
0010001300316U 090000000000000000000000000000000000000000000000000000000000000000000000000000000000000000000000000000000000000000000000000511202400000000            000000000000000                              000                           
0010001300317T 0901897X0000000092096 24778822400000511   700000000000051130092024000000000029277001043036000000511                0900000000000000000000000000000000000000000000000000000   000000000000000000000037209        170192477882     
0010001300318U 090000000000000000000000000000000000000000000000000000000000000000000000000000000000000000000000000000000000000000000000000511202400000000            000000000000000                              000                           
0010001300319T 0901897X0000000092096 24778822400000514   700000000000051430092024000000000029277001009296000000514                0900000000000000000000000000000000000000000000000000000   000000000000000000000037209        170192477882     
0010001300320U 090000000000000000000000000000000000000000000000000000000000000000000000000000000000000000000000000000000000000000000000000511202400000000            000000000000000                              000                           
0010001300321T 0901897X0000000092096 24778822400000515   700000000000051530092024000000000029277001004561000000515                0900000000000000000000000000000000000000000000000000000   000000000000000000000037209        170192477882     
0010001300322U 090000000000000000000000000000000000000000000000000000000000000000000000000000000000000000000000000000000000000000000000000511202400000000            000000000000000                              000                           
0010001300323T 0901897X0000000092096 24778822400000516   700000000000051630092024000000000029277001000566000000516                0900000000000000000000000000000000000000000000000000000   000000000000000000000037209        170192477882     
0010001300324U 090000000000000000000000000000000000000000000000000000000000000000000000000000000000000000000000000000000000000000000000000511202400000000            000000000000000                              000                           
0010001300325T 0901897X0000000092096 24778822400000519   700000000000051930092024000000000029272001003409000000519                0900000000000000000000000000000000000000000000000000000   000000000000000000000037209        170192477882     
0010001300326U 090000000000000000000000000000000000000000000000000000000000000000000000000000000000000000000000000000000000000000000000000511202400000000            000000000000000                              000                           
0010001300327T 0901897X0000000092096 24778822400000524   70000000000005243009202400000000002898400101849X000000524                0900000000000000000000000000000000000000000000000000000   000000000000000000000037209        170192477882     
0010001300328U 090000000000000000000000000000000000000000000000000000000000000000000000000000000000000000000000000000000000000000000000000511202400000000            000000000000000                              000                           
0010001300329T 0901897X0000000092096 24778822400000526   700000000000052630092024000000000028919001004596000000526                0900000000000000000000000000000000000000000000000000000   000000000000000000000037209        170192477882     
0010001300330U 090000000000000000000000000000000000000000000000000000000000000000000000000000000000000000000000000000000000000000000000000511202400000000            000000000000000                              000                           
0010001300331T 0901897X0000000092096 24778822400000527   700000000000052730092024000000000028876001008117000000527                0900000000000000000000000000000000000000000000000000000   000000000000000000000037209        170192477882     
0010001300332U 090000000000000000000000000000000000000000000000000000000000000000000000000000000000000000000000000000000000000000000000000511202400000000            000000000000000                              000                           
0010001300333T 0901897X0000000092096 24778822400000529   70000000000005293009202400000000002887500101849X000000529                0900000000000000000000000000000000000000000000000000000   000000000000000000000037209        170192477882     
0010001300334U 090000000000000000000000000000000000000000000000000000000000000000000000000000000000000000000000000000000000000000000000000511202400000000            000000000000000                              000                           
0010001300335T 0901897X0000000092096 24778822400000534   700000000000053430092024000000000028657001009946000000534                0900000000000000000000000000000000000000000000000000000   000000000000000000000037209        170192477882     
0010001300336U 090000000000000000000000000000000000000000000000000000000000000000000000000000000000000000000000000000000000000000000000000511202400000000            000000000000000                              000                           
0010001300337T 0901897X0000000092096 24778822400000536   700000000000053630092024000000000028545001009903000000536                0900000000000000000000000000000000000000000000000000000   000000000000000000000037209        170192477882     
0010001300338U 090000000000000000000000000000000000000000000000000000000000000000000000000000000000000000000000000000000000000000000000000511202400000000            000000000000000                              000                           
0010001300339T 0901897X0000000092096 24778822400000538   70000000000005383009202400000000002840300100216X000000538                0900000000000000000000000000000000000000000000000000000   000000000000000000000037209        170192477882     
0010001300340U 090000000000000000000000000000000000000000000000000000000000000000000000000000000000000000000000000000000000000000000000000511202400000000            000000000000000                              000                           
0010001300341T 0901897X0000000092096 24778822400000541   700000000000054130092024000000000028361001003190000000541                0900000000000000000000000000000000000000000000000000000   000000000000000000000037209        170192477882     
0010001300342U 090000000000000000000000000000000000000000000000000000000000000000000000000000000000000000000000000000000000000000000000000511202400000000            000000000000000                              000                           
0010001300343T 0901897X0000000092096 24778822400000542   700000000000054230092024000000000028281001014753000000542                0900000000000000000000000000000000000000000000000000000   000000000000000000000037209        170192477882     
0010001300344U 090000000000000000000000000000000000000000000000000000000000000000000000000000000000000000000000000000000000000000000000000511202400000000            000000000000000                              000                           
0010001300345T 0901897X0000000092096 24778822400000548   700000000000054830092024000000000028105001007994000000548                0900000000000000000000000000000000000000000000000000000   000000000000000000000037209        170192477882     
0010001300346U 090000000000000000000000000000000000000000000000000000000000000000000000000000000000000000000000000000000000000000000000000511202400000000            000000000000000                              000                           
0010001300347T 0901897X0000000092096 24778822400000551   700000000000055130092024000000000028072001004154000000551                0900000000000000000000000000000000000000000000000000000   000000000000000000000037209        170192477882     
0010001300348U 090000000000000000000000000000000000000000000000000000000000000000000000000000000000000000000000000000000000000000000000000511202400000000            000000000000000                              000                           
0010001300349T 0901897X0000000092096 24778822400000556   700000000000055630092024000000000027813001069833000000556                0900000000000000000000000000000000000000000000000000000   000000000000000000000037209        170192477882     
0010001300350U 090000000000000000000000000000000000000000000000000000000000000000000000000000000000000000000000000000000000000000000000000511202400000000            000000000000000                              000                           
0010001300351T 0901897X0000000092096 24778822400000557   700000000000055730092024000000000027761001003409000000557                0900000000000000000000000000000000000000000000000000000   000000000000000000000037209        170192477882     
0010001300352U 090000000000000000000000000000000000000000000000000000000000000000000000000000000000000000000000000000000000000000000000000511202400000000            000000000000000                              000                           
0010001300353T 0901897X0000000092096 24778822400000561   70000000000005613009202400000000002766700100216X000000561                0900000000000000000000000000000000000000000000000000000   000000000000000000000037209        170192477882     
0010001300354U 090000000000000000000000000000000000000000000000000000000000000000000000000000000000000000000000000000000000000000000000000511202400000000            000000000000000                              000                           
0010001300355T 0901897X0000000092096 24778822400000563   700000000000056330092024000000000027647001069833000000563                0900000000000000000000000000000000000000000000000000000   000000000000000000000037209        170192477882     
0010001300356U 090000000000000000000000000000000000000000000000000000000000000000000000000000000000000000000000000000000000000000000000000511202400000000            000000000000000                              000                           
0010001300357T 0901897X0000000092096 24778822400000568   70000000000005683009202400000000002745300100216X000000568                0900000000000000000000000000000000000000000000000000000   000000000000000000000037209        170192477882     
0010001300358U 090000000000000000000000000000000000000000000000000000000000000000000000000000000000000000000000000000000000000000000000000511202400000000            000000000000000                              000                           
0010001300359T 0901897X0000000092096 24778822400000569   700000000000056930092024000000000027447001001678000000569                0900000000000000000000000000000000000000000000000000000   000000000000000000000037209        170192477882     
0010001300360U 090000000000000000000000000000000000000000000000000000000000000000000000000000000000000000000000000000000000000000000000000511202400000000            000000000000000                              000                           
0010001300361T 0901897X0000000092096 24778822400000570   700000000000057030092024000000000027437001003018000000570                0900000000000000000000000000000000000000000000000000000   000000000000000000000037209        170192477882     
0010001300362U 090000000000000000000000000000000000000000000000000000000000000000000000000000000000000000000000000000000000000000000000000511202400000000            000000000000000                              000                           
0010001300363T 0901897X0000000092096 24778822400000578   70000000000005783009202400000000002693600100636X000000578                0900000000000000000000000000000000000000000000000000000   000000000000000000000037209        170192477882     
0010001300364U 090000000000000000000000000000000000000000000000000000000000000000000000000000000000000000000000000000000000000000000000000511202400000000            000000000000000                              000                           
0010001300365T 0901897X0000000092096 24778822400000585   700000000000058530092024000000000026454001027669000000585                0900000000000000000000000000000000000000000000000000000   000000000000000000000037209        170192477882     
0010001300366U 090000000000000000000000000000000000000000000000000000000000000000000000000000000000000000000000000000000000000000000000000511202400000000            000000000000000                              000                           
0010001300367T 0901897X0000000092096 24778822400000588   700000000000058830092024000000000026349001023248000000588                0900000000000000000000000000000000000000000000000000000   000000000000000000000037209        170192477882     
0010001300368U 090000000000000000000000000000000000000000000000000000000000000000000000000000000000000000000000000000000000000000000000000511202400000000            000000000000000                              000                           
0010001300369T 0901897X0000000092096 24778822400000592   700000000000059230092024000000000026349001007994000000592                0900000000000000000000000000000000000000000000000000000   000000000000000000000037209        170192477882     
0010001300370U 090000000000000000000000000000000000000000000000000000000000000000000000000000000000000000000000000000000000000000000000000511202400000000            000000000000000                              000                           
0010001300371T 0901897X0000000092096 24778822400000594   700000000000059430092024000000000026349001014753000000594                0900000000000000000000000000000000000000000000000000000   000000000000000000000037209        170192477882     
0010001300372U 090000000000000000000000000000000000000000000000000000000000000000000000000000000000000000000000000000000000000000000000000511202400000000            000000000000000                              000                           
0010001300373T 0901897X0000000092096 24778822400000605   70000000000006053009202400000000002630600100216X000000605                0900000000000000000000000000000000000000000000000000000   000000000000000000000037209        170192477882     
0010001300374U 090000000000000000000000000000000000000000000000000000000000000000000000000000000000000000000000000000000000000000000000000511202400000000            000000000000000                              000                           
0010001300375T 0901897X0000000092096 24778822400000606   700000000000060630092024000000000026278001008117000000606                0900000000000000000000000000000000000000000000000000000   000000000000000000000037209        170192477882     
0010001300376U 090000000000000000000000000000000000000000000000000000000000000000000000000000000000000000000000000000000000000000000000000511202400000000            000000000000000                              000                           
0010001300377T 0901897X0000000092096 24778822400000607   700000000000060730092024000000000026271001003018000000607                0900000000000000000000000000000000000000000000000000000   000000000000000000000037209        170192477882     
0010001300378U 090000000000000000000000000000000000000000000000000000000000000000000000000000000000000000000000000000000000000000000000000511202400000000            000000000000000                              000                           
0010001300379T 0901897X0000000092096 24778822400000609   700000000000060930092024000000000026260001069833000000609                0900000000000000000000000000000000000000000000000000000   000000000000000000000037209        170192477882     
0010001300380U 090000000000000000000000000000000000000000000000000000000000000000000000000000000000000000000000000000000000000000000000000511202400000000            000000000000000                              000                           
0010001300381T 0901897X0000000092096 24778822400000611   70000000000006113009202400000000002605600101849X000000611                0900000000000000000000000000000000000000000000000000000   000000000000000000000037209        170192477882     
0010001300382U 090000000000000000000000000000000000000000000000000000000000000000000000000000000000000000000000000000000000000000000000000511202400000000            000000000000000                              000                           
0010001300383T 0901897X0000000092096 24778822400000612   700000000000061230092024000000000026015001004154000000612                0900000000000000000000000000000000000000000000000000000   000000000000000000000037209        170192477882     
0010001300384U 090000000000000000000000000000000000000000000000000000000000000000000000000000000000000000000000000000000000000000000000000511202400000000            000000000000000                              000                           
0010001300385T 0901897X0000000092096 24778822400000613   70000000000006133009202400000000002601300100216X000000613                0900000000000000000000000000000000000000000000000000000   000000000000000000000037209        170192477882     
0010001300386U 090000000000000000000000000000000000000000000000000000000000000000000000000000000000000000000000000000000000000000000000000511202400000000            000000000000000                              000                           
0010001300387T 0901897X0000000092096 24778822400000614   700000000000061430092024000000000025892001024279000000614                0900000000000000000000000000000000000000000000000000000   000000000000000000000037209        170192477882     
0010001300388U 090000000000000000000000000000000000000000000000000000000000000000000000000000000000000000000000000000000000000000000000000511202400000000            000000000000000                              000                           
0010001300389T 0901897X0000000092096 24778822400000616   700000000000061630092024000000000025763001003409000000616                0900000000000000000000000000000000000000000000000000000   000000000000000000000037209        170192477882     
0010001300390U 090000000000000000000000000000000000000000000000000000000000000000000000000000000000000000000000000000000000000000000000000511202400000000            000000000000000                              000                           
0010001300391T 0901897X0000000092096 24778822400000617   700000000000061730092024000000000025763001004561000000617                0900000000000000000000000000000000000000000000000000000   000000000000000000000037209        170192477882     
0010001300392U 090000000000000000000000000000000000000000000000000000000000000000000000000000000000000000000000000000000000000000000000000511202400000000            000000000000000                              000                           
0010001300393T 0901897X0000000092096 24778822400000620   700000000000062030092024000000000025600001009903000000620                0900000000000000000000000000000000000000000000000000000   000000000000000000000037209        170192477882     
0010001300394U 090000000000000000000000000000000000000000000000000000000000000000000000000000000000000000000000000000000000000000000000000511202400000000            000000000000000                              000                           
0010001300395T 0901897X0000000092096 24778822400000621   700000000000062130092024000000000025580001001678000000621                0900000000000000000000000000000000000000000000000000000   000000000000000000000037209        170192477882     
0010001300396U 090000000000000000000000000000000000000000000000000000000000000000000000000000000000000000000000000000000000000000000000000511202400000000            000000000000000                              000                           
0010001300397T 0901897X0000000092096 24778822400000624   700000000000062430092024000000000025411001000566000000624                0900000000000000000000000000000000000000000000000000000   000000000000000000000037209        170192477882     
0010001300398U 090000000000000000000000000000000000000000000000000000000000000000000000000000000000000000000000000000000000000000000000000511202400000000            000000000000000                              000                           
0010001300399T 0901897X0000000092096 24778822400000633   70000000000006333009202400000000002503200101849X000000633                0900000000000000000000000000000000000000000000000000000   000000000000000000000037209        170192477882     
0010001300400U 090000000000000000000000000000000000000000000000000000000000000000000000000000000000000000000000000000000000000000000000000511202400000000            000000000000000                              000                           
0010001300401T 0901897X0000000092096 24778822400000639   700000000000063930092024000000000025026001026565000000639                0900000000000000000000000000000000000000000000000000000   000000000000000000000037209        170192477882     
0010001300402U 090000000000000000000000000000000000000000000000000000000000000000000000000000000000000000000000000000000000000000000000000511202400000000            000000000000000                              000                           
0010001300403T 0901897X0000000092096 24778822400000641   700000000000064130092024000000000024885001003409000000641                0900000000000000000000000000000000000000000000000000000   000000000000000000000037209        170192477882     
0010001300404U 090000000000000000000000000000000000000000000000000000000000000000000000000000000000000000000000000000000000000000000000000511202400000000            000000000000000                              000                           
0010001300405T 0901897X0000000092096 24778822400000644   700000000000064430092024000000000024885001066583000000644                0900000000000000000000000000000000000000000000000000000   000000000000000000000037209        170192477882     
0010001300406U 090000000000000000000000000000000000000000000000000000000000000000000000000000000000000000000000000000000000000000000000000511202400000000            000000000000000                              000                           
0010001300407T 0901897X0000000092096 24778822400000647   700000000000064730092024000000000024745001000566000000647                0900000000000000000000000000000000000000000000000000000   000000000000000000000037209        170192477882     
0010001300408U 090000000000000000000000000000000000000000000000000000000000000000000000000000000000000000000000000000000000000000000000000511202400000000            000000000000000                              000                           
0010001300409T 0901897X0000000092096 24778822400000654   700000000000065430092024000000000024563001003409000000654                0900000000000000000000000000000000000000000000000000000   000000000000000000000037209        170192477882     
0010001300410U 090000000000000000000000000000000000000000000000000000000000000000000000000000000000000000000000000000000000000000000000000511202400000000            000000000000000                              000                           
0010001300411T 0901897X0000000092096 24778822400000656   700000000000065630092024000000000024509001003409000000656                0900000000000000000000000000000000000000000000000000000   000000000000000000000037209        170192477882     
0010001300412U 090000000000000000000000000000000000000000000000000000000000000000000000000000000000000000000000000000000000000000000000000511202400000000            000000000000000                              000                           
