00100000         2115139610001160024778820014       01897X0000000092096 FUNDACAO AGENCIA DAS BACIAS HIBANCO DO BRASIL                         23110202402043500581903000000829973081PROCESSAMEN                                                 
00100011T0100020 20115139610001160024778820014       01897X0000000092096 FUNDACAO AGENCIA DAS BACIAS HI                                                                                000000003110202400000000  000000000                      
0010001300001T 0201897X0000000092096 24778829000008352   7000008352      29112024000000000068539001009903000008352                0900000000000010000000000000000000000000000000000000000   0000000000000000000000496A9        170192477882     
0010001300002U 020000000000000000000000000000000000000000000000000000000000000000000000000000000000000000000000000000000000000000000000003110202400000000            000000000000000                              000                           
0010001300003T 0201897X0000000092096 24778829000008353   7000008353      29112024000000000109017001041467000008353                0900000000000010500000000000000000000000000000000000000   0000000000000000000000496A9A4      170192477882     
0010001300004U 020000000000000000000000000000000000000000000000000000000000000000000000000000000000000000000000000000000000000000000000003110202400000000            000000000000000                              000                           
0010001300005T 0201897X0000000092096 24778829000008354   7000008354      29112024000000000207499001001724000008354                0900000000000010500000000000000000000000000000000000000   0000000000000000000000496A9A4      170192477882     
0010001300006U 020000000000000000000000000000000000000000000000000000000000000000000000000000000000000000000000000000000000000000000000003110202400000000            000000000000000                              000                           
0010001300007T 0601897X0000000092096 24778822400000133   700000000000013331102024000000000105396341077850000000133                0900000000000010100000000000000000000000000000000000000   000000000000000000000000004        170192477882     
0010001300008U 060000000000000000000000000000000000000000000000000000000000000000000001053960000000001053960000000000000000000000000000003110202401112024            000000000000000                              000                           
0010001300009T 0601897X0000000092096 24778822400001012   700000000000101231102024000000000029907033021750000001012                0900000000000010100000000000000000000000000000000000000   000000000000000000000000004        170192477882     
0010001300010U 060000000000000000000000000000000000000000000000000000000000000000000000299070000000000299070000000000000000000000000000003110202401112024            000000000000000                              000                           
0010001300011T 0601897X0000000092096 24778822400001016   70000000000010163110202400000000002978300103360X000001016                0900000000000010090000000000000000000000000000000000000   000000000000000000000000006        170192477882     
0010001300012U 060000000000000000000000000000000000000000000000000000000000000000000000297830000000000297830000000000000000000000000000003110202401112024            000000000000000                              000                           
0010001300013T 0601897X0000000092096 24778822400001022   700000000000102231102024000000000029557001030813000001022                0900000000000010040000000000000000000000000000000000000   000000000000000000000000034        170192477882     
0010001300014U 060000000000000000000000000000000000000000000000000000000000000000000000295570000000000295570000000000000000000000000000003110202401112024            000000000000000                              000                           
0010001300015T 0601897X0000000092096 24778822400001026   700000000000102631102024000000000029335001031437000001026                0900000000000010040000000000000000000000000000000000000   000000000000000000000000034        170192477882     
0010001300016U 060000000000000000000000000000000000000000000000000000000000000000000000293350000000000293350000000000000000000000000000003110202401112024            000000000000000                              000                           
0010001300017T 0601897X0000000092096 24778822400001038   700000000000103831102024000000000029277001040908000001038                0900000000000010040000000000000000000000000000000000000   000000000000000000000000034        170192477882     
0010001300018U 060000000000000000000000000000000000000000000000000000000000000000000000292770000000000292770000000000000000000000000000003110202401112024            000000000000000                              000                           
0010001300019T 0601897X0000000092096 24778822400001040   700000000000104031102024000000000029277748054310000001040                0900000000000010100000000000000000000000000000000000000   000000000000000000000000004        170192477882     
0010001300020U 060000000000000000000000000000000000000000000000000000000000000000000000292770000000000292770000000000000000000000000000003110202401112024            000000000000000                              000                           
0010001300021T 0601897X0000000092096 24778822400001042   700000000000104231102024000000000029277341064580000001042                0900000000000010100000000000000000000000000000000000000   000000000000000000000000004        170192477882     
0010001300022U 060000000000000000000000000000000000000000000000000000000000000000000000292770000000000292770000000000000000000000000000003110202401112024            000000000000000                              000                           
0010001300023T 0601897X0000000092096 24778822400001044   700000000000104431102024000000000029277341002790000001044                0900000000000010100000000000000000000000000000000000000   000000000000000000000000004        170192477882     
0010001300024U 060000000000000000000000000000000000000000000000000000000000000000000000292770000000000292770000000000000000000000000000003110202401112024            000000000000000                              000                           
0010001300025T 0601897X0000000092096 24778822400001046   700000000000104631102024000000000029277033020190000001046                0900000000000010100000000000000000000000000000000000000   000000000000000000000000004        170192477882     
0010001300026U 060000000000000000000000000000000000000000000000000000000000000000000000292770000000000292770000000000000000000000000000003110202401112024            000000000000000                              000                           
0010001300027T 0601897X0000000092096 24778822400001048   700000000000104831102024000000000029277341028660000001048                0900000000000010100000000000000000000000000000000000000   000000000000000000000000004        170192477882     
0010001300028U 060000000000000000000000000000000000000000000000000000000000000000000000292770000000000292770000000000000000000000000000003110202401112024            000000000000000                              000                           
0010001300029T 0601897X0000000092096 24778822400001052   700000000000105231102024000000000029277237033930000001052                0900000000000010100000000000000000000000000000000000000   000000000000000000000000004        170192477882     
0010001300030U 060000000000000000000000000000000000000000000000000000000000000000000000292770000000000292770000000000000000000000000000003110202401112024            000000000000000                              000                           
0010001300031T 0601897X0000000092096 24778822400001058   700000000000105831102024000000000029277341000070000001058                0900000000000010100000000000000000000000000000000000000   000000000000000000000000004        170192477882     
0010001300032U 060000000000000000000000000000000000000000000000000000000000000000000000292770000000000292770000000000000000000000000000003110202401112024            000000000000000                              000                           
0010001300033T 0601897X0000000092096 24778822400001060   700000000000106031102024000000000029277341078900000001060                0900000000000010100000000000000000000000000000000000000   000000000000000000000000004        170192477882     
0010001300034U 060000000000000000000000000000000000000000000000000000000000000000000000292770000000000292770000000000000000000000000000003110202401112024            000000000000000                              000                           
0010001300035T 0601897X0000000092096 24778822400001064   700000000000106431102024000000000029277341005460000001064                0900000000000010100000000000000000000000000000000000000   000000000000000000000000004        170192477882     
0010001300036U 060000000000000000000000000000000000000000000000000000000000000000000000292770000000000292770000000000000000000000000000003110202401112024            000000000000000                              000                           
0010001300037T 0601897X0000000092096 24778822400001066   700000000000106631102024000000000029277001004154000001066                0900000000000010060000000000000000000000000000000000000   000000000000000000000000033        170192477882     
0010001300038U 060000000000000000000000000000000000000000000000000000000000000000000000292770000000000292770000000000000000000000000000003110202401112024            000000000000000                              000                           
0010001300039T 0601897X0000000092096 24778822400001070   700000000000107031102024000000000029277756080700000001070                0900000000000010100000000000000000000000000000000000000   000000000000000000000000004        170192477882     
0010001300040U 060000000000000000000000000000000000000000000000000000000000000000000000292770000000000292770000000000000000000000000000003110202401112024            000000000000000                              000                           
0010001300041T 0601897X0000000092096 24778822400001080   700000000000108031102024000000000029245033000350000001080                0900000000000010100000000000000000000000000000000000000   000000000000000000000000004        170192477882     
0010001300042U 060000000000000000000000000000000000000000000000000000000000000000000000292450000000000292450000000000000000000000000000003110202401112024            000000000000000                              000                           
0010001300043T 0601897X0000000092096 24778822400001084   700000000000108431102024000000000029187756031910000001084                0900000000000010100000000000000000000000000000000000000   000000000000000000000000004        170192477882     
0010001300044U 060000000000000000000000000000000000000000000000000000000000000000000000291870000000000291870000000000000000000000000000003110202401112024            000000000000000                              000                           
0010001300045T 0601897X0000000092096 24778822400001086   700000000000108631102024000000000029178341026900000001086                0900000000000010100000000000000000000000000000000000000   000000000000000000000000004        170192477882     
0010001300046U 060000000000000000000000000000000000000000000000000000000000000000000000291780000000000291780000000000000000000000000000003110202401112024            000000000000000                              000                           
0010001300047T 0601897X0000000092096 24778822400001088   700000000000108831102024000000000028998033031780000001088                0900000000000010100000000000000000000000000000000000000   000000000000000000000000004        170192477882     
0010001300048U 060000000000000000000000000000000000000000000000000000000000000000000000289980000000000289980000000000000000000000000000003110202401112024            000000000000000                              000                           
0010001300049T 0601897X0000000092096 24778822400001094   700000000000109431102024000000000028595260000010000001094                0900000000000010100000000000000000000000000000000000000   000000000000000000000000004        170192477882     
0010001300050U 060000000000000000000000000000000000000000000000000000000000000000000000285950000000000285950000000000000000000000000000003110202401112024            000000000000000                              000                           
0010001300051T 0601897X0000000092096 24778822400001096   700000000000109631102024000000000028545237009270000001096                0900000000000010100000000000000000000000000000000000000   000000000000000000000000004        170192477882     
0010001300052U 060000000000000000000000000000000000000000000000000000000000000000000000285450000000000285450000000000000000000000000000003110202401112024            000000000000000                              000                           
0010001300053T 0601897X0000000092096 24778822400001104   700000000000110431102024000000000027875341080310000001104                0900000000000010100000000000000000000000000000000000000   000000000000000000000000004        170192477882     
0010001300054U 060000000000000000000000000000000000000000000000000000000000000000000000278750000000000278750000000000000000000000000000003110202401112024            000000000000000                              000                           
0010001300055T 0601897X0000000092096 24778822400001108   700000000000110831102024000000000027813033000130000001108                0900000000000010100000000000000000000000000000000000000   000000000000000000000000004        170192477882     
0010001300056U 060000000000000000000000000000000000000000000000000000000000000000000000278130000000000278130000000000000000000000000000003110202401112024            000000000000000                              000                           
0010001300057T 0601897X0000000092096 24778822400001110   700000000000111031102024000000000027698341027310000001110                0900000000000010100000000000000000000000000000000000000   000000000000000000000000004        170192477882     
0010001300058U 060000000000000000000000000000000000000000000000000000000000000000000000276980000000000276980000000000000000000000000000003110202401112024            000000000000000                              000                           
0010001300059T 0601897X0000000092096 24778822400001114   700000000000111431102024000000000027584341064230000001114                0900000000000010100000000000000000000000000000000000000   000000000000000000000000004        170192477882     
0010001300060U 060000000000000000000000000000000000000000000000000000000000000000000000275840000000000275840000000000000000000000000000003110202401112024            000000000000000                              000                           
0010001300061T 0601897X0000000092096 24778822400001120   700000000000112031102024000000000027462033037070000001120                0900000000000010100000000000000000000000000000000000000   000000000000000000000000004        170192477882     
0010001300062U 060000000000000000000000000000000000000000000000000000000000000000000000274620000000000274620000000000000000000000000000003110202401112024            000000000000000                              000                           
0010001300063T 0601897X0000000092096 24778822400001124   700000000000112431102024000000000027250341077850000001124                0900000000000010100000000000000000000000000000000000000   000000000000000000000000004        170192477882     
0010001300064U 060000000000000000000000000000000000000000000000000000000000000000000000272500000000000272500000000000000000000000000000003110202401112024            000000000000000                              000                           
0010001300065T 0601897X0000000092096 24778822400001130   700000000000113031102024000000000027229001009903000001130                0900000000000010040000000000000000000000000000000000000   000000000000000000000000034        170192477882     
0010001300066U 060000000000000000000000000000000000000000000000000000000000000000000000272290000000000272290000000000000000000000000000003110202401112024            000000000000000                              000                           
0010001300067T 0601897X0000000092096 24778822400001134   700000000000113431102024000000000026897341002060000001134                0900000000000010100000000000000000000000000000000000000   000000000000000000000000004        170192477882     
0010001300068U 060000000000000000000000000000000000000000000000000000000000000000000000268970000000000268970000000000000000000000000000003110202401112024            000000000000000                              000                           
0010001300069T 0601897X0000000092096 24778822400001136   700000000000113631102024000000000026642341006800000001136                0900000000000010100000000000000000000000000000000000000   000000000000000000000000004        170192477882     
0010001300070U 060000000000000000000000000000000000000000000000000000000000000000000000266420000000000266420000000000000000000000000000003110202401112024            000000000000000                              000                           
0010001300071T 0601897X0000000092096 24778822400001144   700000000000114431102024000000000026381341056360000001144                0900000000000010100000000000000000000000000000000000000   000000000000000000000000004        170192477882     
0010001300072U 060000000000000000000000000000000000000000000000000000000000000000000000263810000000000263810000000000000000000000000000003110202401112024            000000000000000                              000                           
0010001300073T 0601897X0000000092096 24778822400001150   700000000000115031102024000000000026349033001490000001150                0900000000000010100000000000000000000000000000000000000   000000000000000000000000004        170192477882     
0010001300074U 060000000000000000000000000000000000000000000000000000000000000000000000263490000000000263490000000000000000000000000000003110202401112024            000000000000000                              000                           
0010001300075T 0601897X0000000092096 24778822400001154   700000000000115431102024000000000026349237033980000001154                0900000000000010100000000000000000000000000000000000000   000000000000000000000000004        170192477882     
0010001300076U 060000000000000000000000000000000000000000000000000000000000000000000000263490000000000263490000000000000000000000000000003110202401112024            000000000000000                              000                           
0010001300077T 0601897X0000000092096 24778822400001158   700000000000115831102024000000000026349748054040000001158                0900000000000010100000000000000000000000000000000000000   000000000000000000000000004        170192477882     
0010001300078U 060000000000000000000000000000000000000000000000000000000000000000000000263490000000000263490000000000000000000000000000003110202401112024            000000000000000                              000                           
0010001300079T 0601897X0000000092096 24778822400001162   700000000000116231102024000000000026277237004760000001162                0900000000000010100000000000000000000000000000000000000   000000000000000000000000004        170192477882     
0010001300080U 060000000000000000000000000000000000000000000000000000000000000000000000262770000000000262770000000000000000000000000000003110202401112024            000000000000000                              000                           
0010001300081T 0601897X0000000092096 24778822400001164   700000000000116431102024000000000026277756083070000001164                0900000000000010100000000000000000000000000000000000000   000000000000000000000000004        170192477882     
0010001300082U 060000000000000000000000000000000000000000000000000000000000000000000000262770000000000262770000000000000000000000000000003110202401112024            000000000000000                              000                           
0010001300083T 0601897X0000000092096 24778822400001170   700000000000117031102024000000000026130001004561000001170                0900000000000010040000000000000000000000000000000000000   000000000000000000000000034        170192477882     
0010001300084U 060000000000000000000000000000000000000000000000000000000000000000000000261300000000000261300000000000000000000000000000003110202401112024            000000000000000                              000                           
0010001300085T 0601897X0000000092096 24778822400001174   700000000000117431102024000000000025990341026900000001174                0900000000000010100000000000000000000000000000000000000   000000000000000000000000004        170192477882     
0010001300086U 060000000000000000000000000000000000000000000000000000000000000000000000259900000000000259900000000000000000000000000000003110202401112024            000000000000000                              000                           
0010001300087T 0601897X0000000092096 24778822400001176   700000000000117631102024000000000025910033002370000001176                0900000000000010100000000000000000000000000000000000000   000000000000000000000000004        170192477882     
0010001300088U 060000000000000000000000000000000000000000000000000000000000000000000000259100000000000259100000000000000000000000000000003110202401112024            000000000000000                              000                           
0010001300089T 0601897X0000000092096 24778822400001186   700000000000118631102024000000000025745104014830000001186                0900000000000010100000000000000000000000000000000000000   000000000000000000000000004        170192477882     
0010001300090U 060000000000000000000000000000000000000000000000000000000000000000000000257450000000000257450000000000000000000000000000003110202401112024            000000000000000                              000                           
0010001300091T 0601897X0000000092096 24778822400001190   700000000000119031102024000000000025666001005789000001190                0900000000000010040000000000000000000000000000000000000   000000000000000000000000034        170192477882     
0010001300092U 060000000000000000000000000000000000000000000000000000000000000000000000256660000000000256660000000000000000000000000000003110202401112024            000000000000000                              000                           
0010001300093T 0601897X0000000092096 24778822400001192   700000000000119231102024000000000025646237006360000001192                0900000000000010100000000000000000000000000000000000000   000000000000000000000000004        170192477882     
0010001300094U 060000000000000000000000000000000000000000000000000000000000000000000000256460000000000256460000000000000000000000000000003110202401112024            000000000000000                              000                           
0010001300095T 0601897X0000000092096 24778822400001196   700000000000119631102024000000000025617341001360000001196                0900000000000010100000000000000000000000000000000000000   000000000000000000000000004        170192477882     
0010001300096U 060000000000000000000000000000000000000000000000000000000000000000000000256170000000000256170000000000000000000000000000003110202401112024            000000000000000                              000                           
0010001300097T 0601897X0000000092096 24778822400001206   700000000000120631102024000000000025471033002100000001206                0900000000000010100000000000000000000000000000000000000   000000000000000000000000004        170192477882     
0010001300098U 060000000000000000000000000000000000000000000000000000000000000000000000254710000000000254710000000000000000000000000000003110202401112024            000000000000000                              000                           
0010001300099T 0601897X0000000092096 24778822400001208   700000000000120831102024000000000025413341018280000001208                0900000000000010100000000000000000000000000000000000000   000000000000000000000000004        170192477882     
0010001300100U 060000000000000000000000000000000000000000000000000000000000000000000000254130000000000254130000000000000000000000000000003110202401112024            000000000000000                              000                           
0010001300101T 0601897X0000000092096 24778822400001220   700000000000122031102024000000000025083748050300000001220                0900000000000010100000000000000000000000000000000000000   000000000000000000000000004        170192477882     
0010001300102U 060000000000000000000000000000000000000000000000000000000000000000000000250830000000000250830000000000000000000000000000003110202401112024            000000000000000                              000                           
0010001300103T 0601897X0000000092096 24778822400001224   700000000000122431102024000000000025032237036440000001224                0900000000000010100000000000000000000000000000000000000   000000000000000000000000004        170192477882     
0010001300104U 060000000000000000000000000000000000000000000000000000000000000000000000250320000000000250320000000000000000000000000000003110202401112024            000000000000000                              000                           
0010001300105T 0601897X0000000092096 24778822400001234   700000000000123431102024000000000024886237003930000001234                0900000000000010100000000000000000000000000000000000000   000000000000000000000000004        170192477882     
0010001300106U 060000000000000000000000000000000000000000000000000000000000000000000000248860000000000248860000000000000000000000000000003110202401112024            000000000000000                              000                           
0010001300107T 0601897X0000000092096 24778822400001240   700000000000124031102024000000000024702341015860000001240                0900000000000010100000000000000000000000000000000000000   000000000000000000000000004        170192477882     
0010001300108U 060000000000000000000000000000000000000000000000000000000000000000000000247020000000000247020000000000000000000000000000003110202401112024            000000000000000                              000                           
0010001300109T 0601897X0000000092096 24778822400001242   700000000000124231102024000000000024646756072790000001242                0900000000000010100000000000000000000000000000000000000   000000000000000000000000004        170192477882     
0010001300110U 060000000000000000000000000000000000000000000000000000000000000000000000246460000000000246460000000000000000000000000000003110202401112024            000000000000000                              000                           
0010001300111T 0601897X0000000092096 24778822400001258   700000000000125831102024000000000024151756005860000001258                0900000000000010100000000000000000000000000000000000000   000000000000000000000000004        170192477882     
0010001300112U 060000000000000000000000000000000000000000000000000000000000000000000000241510000000000241510000000000000000000000000000003110202401112024            000000000000000                              000                           
0010001300113T 0601897X0000000092096 24778822400001264   700000000000126431102024000000000024088341001480000001264                0900000000000010100000000000000000000000000000000000000   000000000000000000000000004        170192477882     
0010001300114U 060000000000000000000000000000000000000000000000000000000000000000000000240880000000000240880000000000000000000000000000003110202401112024            000000000000000                              000                           
0010001300115T 0601897X0000000092096 24778822400001266   700000000000126631102024000000000024063001044377000001266                0900000000000010040000000000000000000000000000000000000   000000000000000000000000034        170192477882     
0010001300116U 060000000000000000000000000000000000000000000000000000000000000000000000240630000000000240630000000000000000000000000000003110202401112024            000000000000000                              000                           
0010001300117T 0601897X0000000092096 24778822400001274   700000000000127431102024000000000023787237003930000001274                0900000000000010100000000000000000000000000000000000000   000000000000000000000000004        170192477882     
0010001300118U 060000000000000000000000000000000000000000000000000000000000000000000000237870000000000237870000000000000000000000000000003110202401112024            000000000000000                              000                           
0010001300119T 0601897X0000000092096 24778822400001276   700000000000127631102024000000000023775756072810000001276                0900000000000010100000000000000000000000000000000000000   000000000000000000000000004        170192477882     
0010001300120U 060000000000000000000000000000000000000000000000000000000000000000000000237750000000000237750000000000000000000000000000003110202401112024            000000000000000                              000                           
0010001300121T 0601897X0000000092096 24778822400001278   700000000000127831102024000000000023769001041467000001278                0900000000000010040000000000000000000000000000000000000   000000000000000000000000034        170192477882     
0010001300122U 060000000000000000000000000000000000000000000000000000000000000000000000237690000000000237690000000000000000000000000000003110202401112024            000000000000000                              000                           
0010001300123T 0601897X0000000092096 24778822400001280   700000000000128031102024000000000023710756014550000001280                0900000000000010100000000000000000000000000000000000000   000000000000000000000000004        170192477882     
0010001300124U 060000000000000000000000000000000000000000000000000000000000000000000000237100000000000237100000000000000000000000000000003110202401112024            000000000000000                              000                           
0010001300125T 0601897X0000000092096 24778822400001282   700000000000128231102024000000000023636341006440000001282                0900000000000010100000000000000000000000000000000000000   000000000000000000000000004        170192477882     
0010001300126U 060000000000000000000000000000000000000000000000000000000000000000000000236360000000000236360000000000000000000000000000003110202401112024            000000000000000                              000                           
0010001300127T 0601897X0000000092096 24778822400001284   700000000000128431102024000000000023532341000540000001284                0900000000000010100000000000000000000000000000000000000   000000000000000000000000004        170192477882     
0010001300128U 060000000000000000000000000000000000000000000000000000000000000000000000235320000000000235320000000000000000000000000000003110202401112024            000000000000000                              000                           
0010001300129T 0601897X0000000092096 24778822400001294   700000000000129431102024000000000023335341010260000001294                0900000000000010100000000000000000000000000000000000000   000000000000000000000000004        170192477882     
0010001300130U 060000000000000000000000000000000000000000000000000000000000000000000000233350000000000233350000000000000000000000000000003110202401112024            000000000000000                              000                           
0010001300131T 0601897X0000000092096 24778822400001296   700000000000129631102024000000000023311001066249000001296                0900000000000010040000000000000000000000000000000000000   000000000000000000000000034        170192477882     
0010001300132U 060000000000000000000000000000000000000000000000000000000000000000000000233110000000000233110000000000000000000000000000003110202401112024            000000000000000                              000                           
0010001300133T 0601897X0000000092096 24778822400001300   700000000000130031102024000000000023207341000540000001300                0900000000000010100000000000000000000000000000000000000   000000000000000000000000004        170192477882     
0010001300134U 060000000000000000000000000000000000000000000000000000000000000000000000232070000000000232070000000000000000000000000000003110202401112024            000000000000000                              000                           
0010001300135T 0601897X0000000092096 24778822400001302   700000000000130231102024000000000023101422000100000001302                0900000000000010100000000000000000000000000000000000000   000000000000000000000000004        170192477882     
0010001300136U 060000000000000000000000000000000000000000000000000000000000000000000000231010000000000231010000000000000000000000000000003110202401112024            000000000000000                              000                           
0010001300137T 0601897X0000000092096 24778822400001304   700000000000130431102024000000000023029422000100000001304                0900000000000010100000000000000000000000000000000000000   000000000000000000000000004        170192477882     
0010001300138U 060000000000000000000000000000000000000000000000000000000000000000000000230290000000000230290000000000000000000000000000003110202401112024            000000000000000                              000                           
0010001300139T 0601897X0000000092096 24778822400001306   700000000000130631102024000000000023006237024310000001306                0900000000000010100000000000000000000000000000000000000   000000000000000000000000004        170192477882     
0010001300140U 060000000000000000000000000000000000000000000000000000000000000000000000230060000000000230060000000000000000000000000000003110202401112024            000000000000000                              000                           
0010001300141T 0601897X0000000092096 24778822400001308   700000000000130831102024000000000022977237033100000001308                0900000000000010100000000000000000000000000000000000000   000000000000000000000000004        170192477882     
0010001300142U 060000000000000000000000000000000000000000000000000000000000000000000000229770000000000229770000000000000000000000000000003110202401112024            000000000000000                              000                           
0010001300143T 0601897X0000000092096 24778822400001318   700000000000131831102024000000000022829748051850000001318                0900000000000010100000000000000000000000000000000000000   000000000000000000000000004        170192477882     
0010001300144U 060000000000000000000000000000000000000000000000000000000000000000000000228290000000000228290000000000000000000000000000003110202401112024            000000000000000                              000                           
0010001300145T 0601897X0000000092096 24778822400001324   700000000000132431102024000000000022660748055550000001324                0900000000000010100000000000000000000000000000000000000   000000000000000000000000004        170192477882     
0010001300146U 060000000000000000000000000000000000000000000000000000000000000000000000226600000000000226600000000000000000000000000000003110202401112024            000000000000000                              000                           
0010001300147T 0601897X0000000092096 24778822400001326   700000000000132631102024000000000022648033020180000001326                0900000000000010100000000000000000000000000000000000000   000000000000000000000000004        170192477882     
0010001300148U 060000000000000000000000000000000000000000000000000000000000000000000000226480000000000226480000000000000000000000000000003110202401112024            000000000000000                              000                           
0010001300149T 0601897X0000000092096 24778822400001340   700000000000134031102024000000000022019341064230000001340                0900000000000010100000000000000000000000000000000000000   000000000000000000000000004        170192477882     
0010001300150U 060000000000000000000000000000000000000000000000000000000000000000000000220190000000000220190000000000000000000000000000003110202401112024            000000000000000                              000                           
0010001300151T 0601897X0000000092096 24778822400001344   700000000000134431102024000000000021987237033890000001344                0900000000000010100000000000000000000000000000000000000   000000000000000000000000004        170192477882     
0010001300152U 060000000000000000000000000000000000000000000000000000000000000000000000219870000000000219870000000000000000000000000000003110202401112024            000000000000000                              000                           
0010001300153T 0601897X0000000092096 24778822400001360   700000000000136031102024000000000021957237002150000001360                0900000000000010100000000000000000000000000000000000000   000000000000000000000000004        170192477882     
0010001300154U 060000000000000000000000000000000000000000000000000000000000000000000000219570000000000219570000000000000000000000000000003110202401112024            000000000000000                              000                           
0010001300155T 0601897X0000000092096 24778822400001366   700000000000136631102024000000000021957748050300000001366                0900000000000010100000000000000000000000000000000000000   000000000000000000000000004        170192477882     
0010001300156U 060000000000000000000000000000000000000000000000000000000000000000000000219570000000000219570000000000000000000000000000003110202401112024            000000000000000                              000                           
0010001300157T 0601897X0000000092096 24778822400001376   700000000000137631102024000000000021957237004800000001376                0900000000000010100000000000000000000000000000000000000   000000000000000000000000004        170192477882     
0010001300158U 060000000000000000000000000000000000000000000000000000000000000000000000219570000000000219570000000000000000000000000000003110202401112024            000000000000000                              000                           
0010001300159T 0601897X0000000092096 24778822400001378   700000000000137831102024000000000021957001009903000001378                0900000000000010040000000000000000000000000000000000000   000000000000000000000000034        170192477882     
0010001300160U 060000000000000000000000000000000000000000000000000000000000000000000000219570000000000219570000000000000000000000000000003110202401112024            000000000000000                              000                           
0010001300161T 0601897X0000000092096 24778822400001380   700000000000138031102024000000000021957237003020000001380                0900000000000010100000000000000000000000000000000000000   000000000000000000000000004        170192477882     
0010001300162U 060000000000000000000000000000000000000000000000000000000000000000000000219570000000000219570000000000000000000000000000003110202401112024            000000000000000                              000                           
0010001300163T 0601897X0000000092096 24778822400001394   700000000000139431102024000000000021957237033670000001394                0900000000000010100000000000000000000000000000000000000   000000000000000000000000004        170192477882     
0010001300164U 060000000000000000000000000000000000000000000000000000000000000000000000219570000000000219570000000000000000000000000000003110202401112024            000000000000000                              000                           
0010001300165T 0601897X0000000092096 24778822400001396   700000000000139631102024000000000021957237023740000001396                0900000000000010100000000000000000000000000000000000000   000000000000000000000000004        170192477882     
0010001300166U 060000000000000000000000000000000000000000000000000000000000000000000000219570000000000219570000000000000000000000000000003110202401112024            000000000000000                              000                           
0010001300167T 0601897X0000000092096 24778822400001410   700000000000141031102024000000000021873033003540000001410                0900000000000010100000000000000000000000000000000000000   000000000000000000000000004        170192477882     
0010001300168U 060000000000000000000000000000000000000000000000000000000000000000000000218730000000000218730000000000000000000000000000003110202401112024            000000000000000                              000                           
0010001300169T 0601897X0000000092096 24778822400001412   700000000000141231102024000000000021837341048710000001412                0900000000000010100000000000000000000000000000000000000   000000000000000000000000004        170192477882     
0010001300170U 060000000000000000000000000000000000000000000000000000000000000000000000218370000000000218370000000000000000000000000000003110202401112024            000000000000000                              000                           
0010001300171T 0601897X0000000092096 24778822400001414   700000000000141431102024000000000021808341000190000001414                0900000000000010100000000000000000000000000000000000000   000000000000000000000000004        170192477882     
0010001300172U 060000000000000000000000000000000000000000000000000000000000000000000000218080000000000218080000000000000000000000000000003110202401112024            000000000000000                              000                           
0010001300173T 0601897X0000000092096 24778822400001426   700000000000142631102024000000000021454001066249000001426                0900000000000010060000000000000000000000000000000000000   000000000000000000000000033        170192477882     
0010001300174U 060000000000000000000000000000000000000000000000000000000000000000000000214540000000000214540000000000000000000000000000003110202401112024            000000000000000                              000                           
0010001300175T 0601897X0000000092096 24778822400001432   700000000000143231102024000000000021334274000010000001432                0900000000000010100000000000000000000000000000000000000   000000000000000000000000004        170192477882     
0010001300176U 060000000000000000000000000000000000000000000000000000000000000000000000213340000000000213340000000000000000000000000000003110202401112024            000000000000000                              000                           
0010001300177T 0601897X0000000092096 24778822400001438   70000000000014383110202400000000002127700101897X000001438                0900000000000010090000000000000000000000000000000000000   000000000000000000000000006        170192477882     
0010001300178U 060000000000000000000000000000000000000000000000000000000000000000000000212770000000000212770000000000000000000000000000003110202401112024            000000000000000                              000                           
0010001300179T 0601897X0000000092096 24778822400001442   700000000000144231102024000000000021226341080260000001442                0900000000000010100000000000000000000000000000000000000   000000000000000000000000004        170192477882     
0010001300180U 060000000000000000000000000000000000000000000000000000000000000000000000212260000000000212260000000000000000000000000000003110202401112024            000000000000000                              000                           
0010001300181T 0601897X0000000092096 24778822400001446   700000000000144631102024000000000021200001033626000001446                0900000000000010040000000000000000000000000000000000000   000000000000000000000000034        170192477882     
0010001300182U 060000000000000000000000000000000000000000000000000000000000000000000000212000000000000212000000000000000000000000000000003110202401112024            000000000000000                              000                           
0010001300183T 0601897X0000000092096 24778822400001456   700000000000145631102024000000000020860237008920000001456                0900000000000010100000000000000000000000000000000000000   000000000000000000000000004        170192477882     
0010001300184U 060000000000000000000000000000000000000000000000000000000000000000000000208600000000000208600000000000000000000000000000003110202401112024            000000000000000                              000                           
0010001300185T 0601897X0000000092096 24778822400001458   700000000000145831102024000000000020839422000410000001458                0900000000000010100000000000000000000000000000000000000   000000000000000000000000004        170192477882     
0010001300186U 060000000000000000000000000000000000000000000000000000000000000000000000208390000000000208390000000000000000000000000000003110202401112024            000000000000000                              000                           
0010001300187T 0601897X0000000092096 24778822400001460   700000000000146031102024000000000020736237002150000001460                0900000000000010100000000000000000000000000000000000000   000000000000000000000000004        170192477882     
0010001300188U 060000000000000000000000000000000000000000000000000000000000000000000000207360000000000207360000000000000000000000000000003110202401112024            000000000000000                              000                           
0010001300189T 0601897X0000000092096 24778822400001462   700000000000146231102024000000000020711033001780000001462                0900000000000010100000000000000000000000000000000000000   000000000000000000000000004        170192477882     
0010001300190U 060000000000000000000000000000000000000000000000000000000000000000000000207110000000000207110000000000000000000000000000003110202401112024            000000000000000                              000                           
0010001300191T 0601897X0000000092096 24778822400001464   700000000000146431102024000000000020711237002150000001464                0900000000000010100000000000000000000000000000000000000   000000000000000000000000004        170192477882     
0010001300192U 060000000000000000000000000000000000000000000000000000000000000000000000207110000000000207110000000000000000000000000000003110202401112024            000000000000000                              000                           
0010001300193T 0601897X0000000092096 24778822400001476   700000000000147631102024000000000020494033045480000001476                0900000000000010100000000000000000000000000000000000000   000000000000000000000000004        170192477882     
0010001300194U 060000000000000000000000000000000000000000000000000000000000000000000000204940000000000204940000000000000000000000000000003110202401112024            000000000000000                              000                           
0010001300195T 0601897X0000000092096 24778822400001484   700000000000148431102024000000000020474341069310000001484                0900000000000010100000000000000000000000000000000000000   000000000000000000000000004        170192477882     
0010001300196U 060000000000000000000000000000000000000000000000000000000000000000000000204740000000000204740000000000000000000000000000003110202401112024            000000000000000                              000                           
0010001300197T 0601897X0000000092096 24778822400001492   700000000000149231102024000000000020297748054040000001492                0900000000000010100000000000000000000000000000000000000   000000000000000000000000004        170192477882     
0010001300198U 060000000000000000000000000000000000000000000000000000000000000000000000202970000000000202970000000000000000000000000000003110202401112024            000000000000000                              000                           
0010001300199T 0601897X0000000092096 24778822400001494   700000000000149431102024000000000020280748052890000001494                0900000000000010100000000000000000000000000000000000000   000000000000000000000000004        170192477882     
0010001300200U 060000000000000000000000000000000000000000000000000000000000000000000000202800000000000202800000000000000000000000000000003110202401112024            000000000000000                              000                           
0010001300201T 0601897X0000000092096 24778822400001496   700000000000149631102024000000000020219341051890000001496                0900000000000010100000000000000000000000000000000000000   000000000000000000000000004        170192477882     
0010001300202U 060000000000000000000000000000000000000000000000000000000000000000000000202190000000000202190000000000000000000000000000003110202401112024            000000000000000                              000                           
0010001300203T 0601897X0000000092096 24778822400001502   700000000000150231102024000000000020066341002790000001502                0900000000000010100000000000000000000000000000000000000   000000000000000000000000004        170192477882     
0010001300204U 060000000000000000000000000000000000000000000000000000000000000000000000200660000000000200660000000000000000000000000000003110202401112024            000000000000000                              000                           
0010001300205T 0601897X0000000092096 24778822400001516   700000000000151631102024000000000026425341007570000001516                0900000000000010100000000000000000000000000000000000000   000000000000000000000000004        170192477882     
0010001300206U 060000000000000000000000000000000000000000000000000000000000000000000000264250000000000264250000000000000000000000000000003110202401112024            000000000000000                              000                           
0010001300207T 0601897X0000000092096 24778822400001519   700000000000151931102024000000000026423001030813000001519                0900000000000010040000000000000000000000000000000000000   000000000000000000000000034        170192477882     
0010001300208U 060000000000000000000000000000000000000000000000000000000000000000000000264230000000000264230000000000000000000000000000003110202401112024            000000000000000                              000                           
0010001300209T 0601897X0000000092096 24778822400001528   700000000000152831102024000000000026180341001360000001528                0900000000000010100000000000000000000000000000000000000   000000000000000000000000004        170192477882     
0010001300210U 060000000000000000000000000000000000000000000000000000000000000000000000261800000000000261800000000000000000000000000000003110202401112024            000000000000000                              000                           
0010001300211T 0601897X0000000092096 24778822400001534   700000000000153431102024000000000025993341006800000001534                0900000000000010100000000000000000000000000000000000000   000000000000000000000000004        170192477882     
0010001300212U 060000000000000000000000000000000000000000000000000000000000000000000000259930000000000259930000000000000000000000000000003110202401112024            000000000000000                              000                           
0010001300213T 0601897X0000000092096 24778822400001549   700000000000154931102024000000000025695341000190000001549                0900000000000010100000000000000000000000000000000000000   000000000000000000000000004        170192477882     
0010001300214U 060000000000000000000000000000000000000000000000000000000000000000000000256950000000000256950000000000000000000000000000003110202401112024            000000000000000                              000                           
0010001300215T 0601897X0000000092096 24778822400001558   700000000000155831102024000000000025529237023720000001558                0900000000000010100000000000000000000000000000000000000   000000000000000000000000004        170192477882     
0010001300216U 060000000000000000000000000000000000000000000000000000000000000000000000255290000000000255290000000000000000000000000000003110202401112024            000000000000000                              000                           
0010001300217T 0601897X0000000092096 24778822400001564   700000000000156431102024000000000025423341029480000001564                0900000000000010100000000000000000000000000000000000000   000000000000000000000000004        170192477882     
0010001300218U 060000000000000000000000000000000000000000000000000000000000000000000000254230000000000254230000000000000000000000000000003110202401112024            000000000000000                              000                           
0010001300219T 0601897X0000000092096 24778822400001588   700000000000158831102024000000000024885341002790000001588                0900000000000010100000000000000000000000000000000000000   000000000000000000000000004        170192477882     
0010001300220U 060000000000000000000000000000000000000000000000000000000000000000000000248850000000000248850000000000000000000000000000003110202401112024            000000000000000                              000                           
0010001300221T 0601897X0000000092096 24778822400001615   700000000000161531102024000000000024397341054410000001615                0900000000000010100000000000000000000000000000000000000   000000000000000000000000004        170192477882     
0010001300222U 060000000000000000000000000000000000000000000000000000000000000000000000243970000000000243970000000000000000000000000000003110202401112024            000000000000000                              000                           
0010001300223T 0601897X0000000092096 24778822400001618   700000000000161831102024000000000024397341000270000001618                0900000000000010100000000000000000000000000000000000000   000000000000000000000000004        170192477882     
0010001300224U 060000000000000000000000000000000000000000000000000000000000000000000000243970000000000243970000000000000000000000000000003110202401112024            000000000000000                              000                           
0010001300225T 0601897X0000000092096 24778822400001630   700000000000163031102024000000000024397450000010000001630                0900000000000010100000000000000000000000000000000000000   000000000000000000000000004        170192477882     
0010001300226U 060000000000000000000000000000000000000000000000000000000000000000000000243970000000000243970000000000000000000000000000003110202401112024            000000000000000                              000                           
0010001300227T 0601897X0000000092096 24778822400001642   700000000000164231102024000000000024397237023740000001642                0900000000000010100000000000000000000000000000000000000   000000000000000000000000004        170192477882     
0010001300228U 060000000000000000000000000000000000000000000000000000000000000000000000243970000000000243970000000000000000000000000000003110202401112024            000000000000000                              000                           
0010001300229T 0601897X0000000092096 24778822400001648   700000000000164831102024000000000024397341006800000001648                0900000000000010100000000000000000000000000000000000000   000000000000000000000000004        170192477882     
0010001300230U 060000000000000000000000000000000000000000000000000000000000000000000000243970000000000243970000000000000000000000000000003110202401112024            000000000000000                              000                           
0010001300231T 0601897X0000000092096 24778822400001660   700000000000166031102024000000000024397033002460000001660                0900000000000010100000000000000000000000000000000000000   000000000000000000000000004        170192477882     
0010001300232U 060000000000000000000000000000000000000000000000000000000000000000000000243970000000000243970000000000000000000000000000003110202401112024            000000000000000                              000                           
0010001300233T 0601897X0000000092096 24778822400001669   700000000000166931102024000000000024314341000330000001669                0900000000000010100000000000000000000000000000000000000   000000000000000000000000004        170192477882     
0010001300234U 060000000000000000000000000000000000000000000000000000000000000000000000243140000000000243140000000000000000000000000000003110202401112024            000000000000000                              000                           
0010001300235T 0601897X0000000092096 24778822400001675   700000000000167531102024000000000024159341001360000001675                0900000000000010100000000000000000000000000000000000000   000000000000000000000000004        170192477882     
0010001300236U 060000000000000000000000000000000000000000000000000000000000000000000000241590000000000241590000000000000000000000000000003110202401112024            000000000000000                              000                           
0010001300237T 0601897X0000000092096 24778822400001678   700000000000167831102024000000000024056341048970000001678                0900000000000010100000000000000000000000000000000000000   000000000000000000000000004        170192477882     
0010001300238U 060000000000000000000000000000000000000000000000000000000000000000000000240560000000000240560000000000000000000000000000003110202401112024            000000000000000                              000                           
0010001300239T 0601897X0000000092096 24778822400001681   700000000000168131102024000000000024030033038080000001681                0900000000000010100000000000000000000000000000000000000   000000000000000000000000004        170192477882     
0010001300240U 060000000000000000000000000000000000000000000000000000000000000000000000240300000000000240300000000000000000000000000000003110202401112024            000000000000000                              000                           
0010001300241T 0601897X0000000092096 24778822400001693   700000000000169331102024000000000023943237014790000001693                0900000000000010100000000000000000000000000000000000000   000000000000000000000000004        170192477882     
0010001300242U 060000000000000000000000000000000000000000000000000000000000000000000000239430000000000239430000000000000000000000000000003110202401112024            000000000000000                              000                           
0010001300243T 0601897X0000000092096 24778822400001708   700000000000170831102024000000000023818237003060000001708                0900000000000010100000000000000000000000000000000000000   000000000000000000000000004        170192477882     
0010001300244U 060000000000000000000000000000000000000000000000000000000000000000000000238180000000000238180000000000000000000000000000003110202401112024            000000000000000                              000                           
0010001300245T 0601897X0000000092096 24778822400001714   700000000000171431102024000000000023774341026330000001714                0900000000000010100000000000000000000000000000000000000   000000000000000000000000004        170192477882     
0010001300246U 060000000000000000000000000000000000000000000000000000000000000000000000237740000000000237740000000000000000000000000000003110202401112024            000000000000000                              000                           
0010001300247T 0601897X0000000092096 24778822400001717   700000000000171731102024000000000023711001026565000001717                0900000000000010060000000000000000000000000000000000000   000000000000000000000000033        170192477882     
0010001300248U 060000000000000000000000000000000000000000000000000000000000000000000000237110000000000237110000000000000000000000000000003110202401112024            000000000000000                              000                           
0010001300249T 0601897X0000000092096 24778822400001726   700000000000172631102024000000000023473033037780000001726                0900000000000010100000000000000000000000000000000000000   000000000000000000000000004        170192477882     
0010001300250U 060000000000000000000000000000000000000000000000000000000000000000000000234730000000000234730000000000000000000000000000003110202401112024            000000000000000                              000                           
0010001300251T 0601897X0000000092096 24778822400001729   700000000000172931102024000000000023463341002770000001729                0900000000000010100000000000000000000000000000000000000   000000000000000000000000004        170192477882     
0010001300252U 060000000000000000000000000000000000000000000000000000000000000000000000234630000000000234630000000000000000000000000000003110202401112024            000000000000000                              000                           
0010001300253T 0601897X0000000092096 24778822400001732   700000000000173231102024000000000023421260000010000001732                0900000000000010100000000000000000000000000000000000000   000000000000000000000000004        170192477882     
0010001300254U 060000000000000000000000000000000000000000000000000000000000000000000000234210000000000234210000000000000000000000000000003110202401112024            000000000000000                              000                           
0010001300255T 0601897X0000000092096 24778822400001738   700000000000173831102024000000000023421341015860000001738                0900000000000010100000000000000000000000000000000000000   000000000000000000000000004        170192477882     
0010001300256U 060000000000000000000000000000000000000000000000000000000000000000000000234210000000000234210000000000000000000000000000003110202401112024            000000000000000                              000                           
0010001300257T 0601897X0000000092096 24778822400001750   700000000000175031102024000000000023308237025320000001750                0900000000000010100000000000000000000000000000000000000   000000000000000000000000004        170192477882     
0010001300258U 060000000000000000000000000000000000000000000000000000000000000000000000233080000000000233080000000000000000000000000000003110202401112024            000000000000000                              000                           
0010001300259T 0601897X0000000092096 24778822400001771   700000000000177131102024000000000023148237023720000001771                0900000000000010100000000000000000000000000000000000000   000000000000000000000000004        170192477882     
0010001300260U 060000000000000000000000000000000000000000000000000000000000000000000000231480000000000231480000000000000000000000000000003110202401112024            000000000000000                              000                           
0010001300261T 0601897X0000000092096 24778822400001777   700000000000177731102024000000000023093341063930000001777                0900000000000010100000000000000000000000000000000000000   000000000000000000000000004        170192477882     
0010001300262U 060000000000000000000000000000000000000000000000000000000000000000000000230930000000000230930000000000000000000000000000003110202401112024            000000000000000                              000                           
0010001300263T 0601897X0000000092096 24778822400001795   700000000000179531102024000000000022843341001370000001795                0900000000000010100000000000000000000000000000000000000   000000000000000000000000004        170192477882     
0010001300264U 060000000000000000000000000000000000000000000000000000000000000000000000228430000000000228430000000000000000000000000000003110202401112024            000000000000000                              000                           
0010001300265T 0601897X0000000092096 24778822400001798   700000000000179831102024000000000022819237033720000001798                0900000000000010100000000000000000000000000000000000000   000000000000000000000000004        170192477882     
0010001300266U 060000000000000000000000000000000000000000000000000000000000000000000000228190000000000228190000000000000000000000000000003110202401112024            000000000000000                              000                           
0010001300267T 0601897X0000000092096 24778822400001801   700000000000180131102024000000000022660237025610000001801                0900000000000010100000000000000000000000000000000000000   000000000000000000000000004        170192477882     
0010001300268U 060000000000000000000000000000000000000000000000000000000000000000000000226600000000000226600000000000000000000000000000003110202401112024            000000000000000                              000                           
0010001300269T 0601897X0000000092096 24778822400001804   700000000000180431102024000000000022660341000550000001804                0900000000000010100000000000000000000000000000000000000   000000000000000000000000004        170192477882     
0010001300270U 060000000000000000000000000000000000000000000000000000000000000000000000226600000000000226600000000000000000000000000000003110202401112024            000000000000000                              000                           
0010001300271T 0601897X0000000092096 24778822400001816   700000000000181631102024000000000022546341037850000001816                0900000000000010100000000000000000000000000000000000000   000000000000000000000000004        170192477882     
0010001300272U 060000000000000000000000000000000000000000000000000000000000000000000000225460000000000225460000000000000000000000000000003110202401112024            000000000000000                              000                           
0010001300273T 0601897X0000000092096 24778822400001819   700000000000181931102024000000000022543341000570000001819                0900000000000010100000000000000000000000000000000000000   000000000000000000000000004        170192477882     
0010001300274U 060000000000000000000000000000000000000000000000000000000000000000000000225430000000000225430000000000000000000000000000003110202401112024            000000000000000                              000                           
0010001300275T 0601897X0000000092096 24778822400001828   70000000000018283110202400000000002205900103360X000001828                0900000000000010090000000000000000000000000000000000000   000000000000000000000000006        170192477882     
0010001300276U 060000000000000000000000000000000000000000000000000000000000000000000000220590000000000220590000000000000000000000000000003110202401112024            000000000000000                              000                           
0010001300277T 0601897X0000000092096 24778822400001840   700000000000184031102024000000000021977341006580000001840                0900000000000010100000000000000000000000000000000000000   000000000000000000000000004        170192477882     
0010001300278U 060000000000000000000000000000000000000000000000000000000000000000000000219770000000000219770000000000000000000000000000003110202401112024            000000000000000                              000                           
0010001300279T 0601897X0000000092096 24778822400001849   700000000000184931102024000000000021958341000300000001849                0900000000000010100000000000000000000000000000000000000   000000000000000000000000004        170192477882     
0010001300280U 060000000000000000000000000000000000000000000000000000000000000000000000219580000000000219580000000000000000000000000000003110202401112024            000000000000000                              000                           
0010001300281T 0601897X0000000092096 24778822400001852   700000000000185231102024000000000021958033038610000001852                0900000000000010100000000000000000000000000000000000000   000000000000000000000000004        170192477882     
0010001300282U 060000000000000000000000000000000000000000000000000000000000000000000000219580000000000219580000000000000000000000000000003110202401112024            000000000000000                              000                           
0010001300283T 0601897X0000000092096 24778822400001864   700000000000186431102024000000000021958748050900000001864                0900000000000010100000000000000000000000000000000000000   000000000000000000000000004        170192477882     
0010001300284U 060000000000000000000000000000000000000000000000000000000000000000000000219580000000000219580000000000000000000000000000003110202401112024            000000000000000                              000                           
0010001300285T 0601897X0000000092096 24778822400001876   700000000000187631102024000000000021847237005200000001876                0900000000000010100000000000000000000000000000000000000   000000000000000000000000004        170192477882     
0010001300286U 060000000000000000000000000000000000000000000000000000000000000000000000218470000000000218470000000000000000000000000000003110202401112024            000000000000000                              000                           
0010001300287T 0601897X0000000092096 24778822400001882   700000000000188231102024000000000021696033001780000001882                0900000000000010100000000000000000000000000000000000000   000000000000000000000000004        170192477882     
0010001300288U 060000000000000000000000000000000000000000000000000000000000000000000000216960000000000216960000000000000000000000000000003110202401112024            000000000000000                              000                           
0010001300289T 0601897X0000000092096 24778822400001891   700000000000189131102024000000000021456341002770000001891                0900000000000010100000000000000000000000000000000000000   000000000000000000000000004        170192477882     
0010001300290U 060000000000000000000000000000000000000000000000000000000000000000000000214560000000000214560000000000000000000000000000003110202401112024            000000000000000                              000                           
0010001300291T 0601897X0000000092096 24778822400001897   700000000000189731102024000000000021360001009903000001897                0900000000000010040000000000000000000000000000000000000   000000000000000000000000034        170192477882     
0010001300292U 060000000000000000000000000000000000000000000000000000000000000000000000213600000000000213600000000000000000000000000000003110202401112024            000000000000000                              000                           
0010001300293T 0601897X0000000092096 24778822400001927   700000000000192731102024000000000021017341006700000001927                0900000000000010100000000000000000000000000000000000000   000000000000000000000000004        170192477882     
0010001300294U 060000000000000000000000000000000000000000000000000000000000000000000000210170000000000210170000000000000000000000000000003110202401112024            000000000000000                              000                           
0010001300295T 0601897X0000000092096 24778822400001930   700000000000193031102024000000000021015341006520000001930                0900000000000010100000000000000000000000000000000000000   000000000000000000000000004        170192477882     
0010001300296U 060000000000000000000000000000000000000000000000000000000000000000000000210150000000000210150000000000000000000000000000003110202401112024            000000000000000                              000                           
0010001300297T 0601897X0000000092096 24778822400001933   700000000000193331102024000000000020688341001500000001933                0900000000000010100000000000000000000000000000000000000   000000000000000000000000004        170192477882     
0010001300298U 060000000000000000000000000000000000000000000000000000000000000000000000206880000000000206880000000000000000000000000000003110202401112024            000000000000000                              000                           
0010001300299T 0601897X0000000092096 24778822400001942   700000000000194231102024000000000020538237023740000001942                0900000000000010100000000000000000000000000000000000000   000000000000000000000000004        170192477882     
0010001300300U 060000000000000000000000000000000000000000000000000000000000000000000000205380000000000205380000000000000000000000000000003110202401112024            000000000000000                              000                           
0010001300301T 0601897X0000000092096 24778822400001945   700000000000194531102024000000000020537341015630000001945                0900000000000010100000000000000000000000000000000000000   000000000000000000000000004        170192477882     
0010001300302U 060000000000000000000000000000000000000000000000000000000000000000000000205370000000000205370000000000000000000000000000003110202401112024            000000000000000                              000                           
0010001300303T 0601897X0000000092096 24778822400001957   700000000000195731102024000000000020341341007310000001957                0900000000000010100000000000000000000000000000000000000   000000000000000000000000004        170192477882     
0010001300304U 060000000000000000000000000000000000000000000000000000000000000000000000203410000000000203410000000000000000000000000000003110202401112024            000000000000000                              000                           
0010001300305T 0601897X0000000092096 24778822400001960   700000000000196031102024000000000020271237033910000001960                0900000000000010100000000000000000000000000000000000000   000000000000000000000000004        170192477882     
0010001300306U 060000000000000000000000000000000000000000000000000000000000000000000000202710000000000202710000000000000000000000000000003110202401112024            000000000000000                              000                           
0010001300307T 0601897X0000000092096 24778822400001966   700000000000196631102024000000000020141341000550000001966                0900000000000010100000000000000000000000000000000000000   000000000000000000000000004        170192477882     
0010001300308U 060000000000000000000000000000000000000000000000000000000000000000000000201410000000000201410000000000000000000000000000003110202401112024            000000000000000                              000                           
0010001300309T 0601897X0000000092096 24778822400001978   700000000000197831102024000000000020046001033626000001978                0900000000000010040000000000000000000000000000000000000   000000000000000000000000034        170192477882     
0010001300310U 060000000000000000000000000000000000000000000000000000000000000000000000200460000000000200460000000000000000000000000000003110202401112024            000000000000000                              000                           
0010001300311T 0601897X0000000092096 24778822400001984   700000000000198431102024000000000020018341076990000001984                0900000000000010100000000000000000000000000000000000000   000000000000000000000000004        170192477882     
0010001300312U 060000000000000000000000000000000000000000000000000000000000000000000000200180000000000200180000000000000000000000000000003110202401112024            000000000000000                              000                           
0010001300313T 0601897X0000000092096 24778822400001991   700000000000199131102024000000027637755001000566000001991                0900000000000010040000000000000000000000000000000000000   000000000000000000000000034        170192477882     
0010001300314U 060000000000000000000000000000000000000000000000000000000000000000000276377550000000276377550000000000000000000000000000003110202401112024            000000000000000                              000                           
0010001300315T 0601897X0000000092096 24778822400001995   700000000000199531102024000000023915070341000190000001995                0900000000000010100000000000000000000000000000000000000   000000000000000000000000004        170192477882     
0010001300316U 060000000000000000000000000000000000000000000000000000000000000000000239150700000000239150700000000000000000000000000000003110202401112024            000000000000000                              000                           
0010001300317T 0601897X0000000092096 24778822400001999   700000000000199931102024000000017861119104003410000001999                0900000000000010100000000000000000000000000000000000000   000000000000000000000000004        170192477882     
0010001300318U 060000000000000000000000000000000000000000000000000000000000000000000178611190000000178611190000000000000000000000000000003110202401112024            000000000000000                              000                           
0010001300319T 0601897X0000000092096 24778822400002003   700000000000200331102024000000017383888001009296000002003                0900000000000010040000000000000000000000000000000000000   000000000000000000000000034        170192477882     
0010001300320U 060000000000000000000000000000000000000000000000000000000000000000000173838880000000173838880000000000000000000000000000003110202401112024            000000000000000                              000                           
0010001300321T 0601897X0000000092096 24778822400002007   700000000000200731102024000000015698576001091227000002007                0900000000000010040000000000000000000000000000000000000   000000000000000000000000034        170192477882     
0010001300322U 060000000000000000000000000000000000000000000000000000000000000000000156985760000000156985760000000000000000000000000000003110202401112024            000000000000000                              000                           
0010001300323T 0601897X0000000092096 24778822400002011   700000000000201131102024000000014052721001004596000002011                0900000000000010040000000000000000000000000000000000000   000000000000000000000000034        170192477882     
0010001300324U 060000000000000000000000000000000000000000000000000000000000000000000140527210000000140527210000000000000000000000000000003110202401112024            000000000000000                              000                           
0010001300325T 0601897X0000000092096 24778822400002023   700000000000202331102024000000009813361341002320000002023                0900000000000010100000000000000000000000000000000000000   000000000000000000000000004        170192477882     
0010001300326U 060000000000000000000000000000000000000000000000000000000000000000000098133610000000098133610000000000000000000000000000003110202401112024            000000000000000                              000                           
0010001300327T 0601897X0000000092096 24778822400002035   700000000000203531102024000000008100056104019370000002035                0900000000000010100000000000000000000000000000000000000   000000000000000000000000004        170192477882     
0010001300328U 060000000000000000000000000000000000000000000000000000000000000000000081000560000000081000560000000000000000000000000000003110202401112024            000000000000000                              000                           
0010001300329T 0601897X0000000092096 24778822400002039   700000000000203931102024000000007042197104003630000002039                0900000000000010100000000000000000000000000000000000000   000000000000000000000000004        170192477882     
0010001300330U 060000000000000000000000000000000000000000000000000000000000000000000070421970000000070421970000000000000000000000000000003110202401112024            000000000000000                              000                           
0010001300331T 0601897X0000000092096 24778822400002043   700000000000204331102024000000005737816001009946000002043                0900000000000010040000000000000000000000000000000000000   000000000000000000000000034        170192477882     
0010001300332U 060000000000000000000000000000000000000000000000000000000000000000000057378160000000057378160000000000000000000000000000003110202401112024            000000000000000                              000                           
0010001300333T 0601897X0000000092096 24778822400002047   700000000000204731102024000000005336596001020125000002047                0900000000000010040000000000000000000000000000000000000   000000000000000000000000034        170192477882     
0010001300334U 060000000000000000000000000000000000000000000000000000000000000000000053365960000000053365960000000000000000000000000000003110202401112024            000000000000000                              000                           
0010001300335T 0601897X0000000092096 24778822400002055   700000000000205531102024000000004834469001030708000002055                0900000000000010090000000000000000000000000000000000000   000000000000000000000000006        170192477882     
0010001300336U 060000000000000000000000000000000000000000000000000000000000000000000048344690000000048344690000000000000000000000000000003110202401112024            000000000000000                              000                           
0010001300337T 0601897X0000000092096 24778822400002059   700000000000205931102024000000004729089001030708000002059                0900000000000010090000000000000000000000000000000000000   000000000000000000000000006        170192477882     
0010001300338U 060000000000000000000000000000000000000000000000000000000000000000000047290890000000047290890000000000000000000000000000003110202401112024            000000000000000                              000                           
0010001300339T 0601897X0000000092096 24778822400002063   700000000000206331102024000000004408884104019380000002063                0900000000000010100000000000000000000000000000000000000   000000000000000000000000004        170192477882     
0010001300340U 060000000000000000000000000000000000000000000000000000000000000000000044088840000000044088840000000000000000000000000000003110202401112024            000000000000000                              000                           
0010001300341T 0601897X0000000092096 24778822400002071   700000000000207131102024000000004134134341000080000002071                0900000000000010100000000000000000000000000000000000000   000000000000000000000000004        170192477882     
0010001300342U 060000000000000000000000000000000000000000000000000000000000000000000041341340000000041341340000000000000000000000000000003110202401112024            000000000000000                              000                           
0010001300343T 0601897X0000000092096 24778822400002075   700000000000207531102024000000003937531001019135000002075                0900000000000010040000000000000000000000000000000000000   000000000000000000000000034        170192477882     
0010001300344U 060000000000000000000000000000000000000000000000000000000000000000000039375310000000039375310000000000000000000000000000003110202401112024            000000000000000                              000                           
0010001300345T 0601897X0000000092096 24778822400002083   700000000000208331102024000000003754126001065544000002083                0900000000000010040000000000000000000000000000000000000   000000000000000000000000034        170192477882     
0010001300346U 060000000000000000000000000000000000000000000000000000000000000000000037541260000000037541260000000000000000000000000000003110202401112024            000000000000000                              000                           
0010001300347T 0601897X0000000092096 24778822400002087   700000000000208731102024000000003538073001045276000002087                0900000000000010040000000000000000000000000000000000000   000000000000000000000000034        170192477882     
0010001300348U 060000000000000000000000000000000000000000000000000000000000000000000035380730000000035380730000000000000000000000000000003110202401112024            000000000000000                              000                           
0010001300349T 0601897X0000000092096 24778822400002091   700000000000209131102024000000003363242001026565000002091                0900000000000010040000000000000000000000000000000000000   000000000000000000000000034        170192477882     
0010001300350U 060000000000000000000000000000000000000000000000000000000000000000000033632420000000033632420000000000000000000000000000003110202401112024            000000000000000                              000                           
0010001300351T 0601897X0000000092096 24778822400002099   700000000000209931102024000000003181138001045659000002099                0900000000000010040000000000000000000000000000000000000   000000000000000000000000034        170192477882     
0010001300352U 060000000000000000000000000000000000000000000000000000000000000000000031811380000000031811380000000000000000000000000000003110202401112024            000000000000000                              000                           
0010001300353T 0601897X0000000092096 24778822400002103   700000000000210331102024000000003076170104029090000002103                0900000000000010100000000000000000000000000000000000000   000000000000000000000000004        170192477882     
0010001300354U 060000000000000000000000000000000000000000000000000000000000000000000030761700000000030761700000000000000000000000000000003110202401112024            000000000000000                              000                           
0010001300355T 0601897X0000000092096 24778822400002115   700000000000211531102024000000002475456001030708000002115                0900000000000010090000000000000000000000000000000000000   000000000000000000000000006        170192477882     
0010001300356U 060000000000000000000000000000000000000000000000000000000000000000000024754560000000024754560000000000000000000000000000003110202401112024            000000000000000                              000                           
0010001300357T 0601897X0000000092096 24778822400002123   700000000000212331102024000000001869036033020170000002123                0900000000000010100000000000000000000000000000000000000   000000000000000000000000004        170192477882     
0010001300358U 060000000000000000000000000000000000000000000000000000000000000000000018690360000000018690360000000000000000000000000000003110202401112024            000000000000000                              000                           
0010001300359T 0601897X0000000092096 24778822400002135   700000000000213531102024000000001693850274000010000002135                0900000000000010100000000000000000000000000000000000000   000000000000000000000000004        170192477882     
0010001300360U 060000000000000000000000000000000000000000000000000000000000000000000016938500000000016938500000000000000000000000000000003110202401112024            000000000000000                              000                           
0010001300361T 0601897X0000000092096 24778822400002143   70000000000021433110202400000000163896100101916X000002143                0900000000000010040000000000000000000000000000000000000   000000000000000000000000034        170192477882     
0010001300362U 060000000000000000000000000000000000000000000000000000000000000000000016389610000000016389610000000000000000000000000000003110202401112024            000000000000000                              000                           
0010001300363T 0601897X0000000092096 24778822400002147   700000000000214731102024000000001594327001030708000002147                0900000000000010090000000000000000000000000000000000000   000000000000000000000000006        170192477882     
0010001300364U 060000000000000000000000000000000000000000000000000000000000000000000015943270000000015943270000000000000000000000000000003110202401112024            000000000000000                              000                           
0010001300365T 0601897X0000000092096 24778822400002151   700000000000215131102024000000001562720001030708000002151                0900000000000010090000000000000000000000000000000000000   000000000000000000000000006        170192477882     
0010001300366U 060000000000000000000000000000000000000000000000000000000000000000000015627200000000015627200000000000000000000000000000003110202401112024            000000000000000                              000                           
0010001300367T 0601897X0000000092096 24778822400002155   700000000000215531102024000000001466248001004561000002155                0900000000000010040000000000000000000000000000000000000   000000000000000000000000034        170192477882     
0010001300368U 060000000000000000000000000000000000000000000000000000000000000000000014662480000000014662480000000000000000000000000000003110202401112024            000000000000000                              000                           
0010001300369T 0601897X0000000092096 24778822400002159   700000000000215931102024000000001386046001030708000002159                0900000000000010090000000000000000000000000000000000000   000000000000000000000000006        170192477882     
0010001300370U 060000000000000000000000000000000000000000000000000000000000000000000013860460000000013860460000000000000000000000000000003110202401112024            000000000000000                              000                           
0010001300371T 0601897X0000000092096 24778822400002163   700000000000216331102024000000001326931001030708000002163                0900000000000010090000000000000000000000000000000000000   000000000000000000000000006        170192477882     
0010001300372U 060000000000000000000000000000000000000000000000000000000000000000000013269310000000013269310000000000000000000000000000003110202401112024            000000000000000                              000                           
0010001300373T 0601897X0000000092096 24778822400002171   700000000000217131102024000000001247088237023740000002171                0900000000000010100000000000000000000000000000000000000   000000000000000000000000004        170192477882     
0010001300374U 060000000000000000000000000000000000000000000000000000000000000000000012470880000000012470880000000000000000000000000000003110202401112024            000000000000000                              000                           
0010001300375T 0601897X0000000092096 24778822400002175   700000000000217531102024000000001123940341000190000002175                0900000000000010100000000000000000000000000000000000000   000000000000000000000000004        170192477882     
0010001300376U 060000000000000000000000000000000000000000000000000000000000000000000011239400000000011239400000000000000000000000000000003110202401112024            000000000000000                              000                           
0010001300377T 0601897X0000000092096 24778822400002179   700000000000217931102024000000001082972033033160000002179                0900000000000010100000000000000000000000000000000000000   000000000000000000000000004        170192477882     
0010001300378U 060000000000000000000000000000000000000000000000000000000000000000000010829720000000010829720000000000000000000000000000003110202401112024            000000000000000                              000                           
0010001300379T 0601897X0000000092096 24778822400002183   700000000000218331102024000000001064105001030708000002183                0900000000000010090000000000000000000000000000000000000   000000000000000000000000006        170192477882     
0010001300380U 060000000000000000000000000000000000000000000000000000000000000000000010641050000000010641050000000000000000000000000000003110202401112024            000000000000000                              000                           
0010001300381T 0601897X0000000092096 24778822400002187   700000000000218731102024000000001037395001030708000002187                0900000000000010090000000000000000000000000000000000000   000000000000000000000000006        170192477882     
0010001300382U 060000000000000000000000000000000000000000000000000000000000000000000010373950000000010373950000000000000000000000000000003110202401112024            000000000000000                              000                           
0010001300383T 0601897X0000000092096 24778822400002195   700000000000219531102024000000000923628001030708000002195                0900000000000010090000000000000000000000000000000000000   000000000000000000000000006        170192477882     
0010001300384U 060000000000000000000000000000000000000000000000000000000000000000000009236280000000009236280000000000000000000000000000003110202401112024            000000000000000                              000                           
0010001300385T 0601897X0000000092096 24778822400002207   70000000000022073110202400000000084382700104587X000002207                0900000000000010040000000000000000000000000000000000000   000000000000000000000000034        170192477882     
0010001300386U 060000000000000000000000000000000000000000000000000000000000000000000008438270000000008438270000000000000000000000000000003110202401112024            000000000000000                              000                           
0010001300387T 0601897X0000000092096 24778822400002211   700000000000221131102024000000000827625001030708000002211                0900000000000010090000000000000000000000000000000000000   000000000000000000000000006        170192477882     
0010001300388U 060000000000000000000000000000000000000000000000000000000000000000000008276250000000008276250000000000000000000000000000003110202401112024            000000000000000                              000                           
0010001300389T 0601897X0000000092096 24778822400002215   700000000000221531102024000000000815114001051152000002215                0900000000000010040000000000000000000000000000000000000   000000000000000000000000034        170192477882     
0010001300390U 060000000000000000000000000000000000000000000000000000000000000000000008151140000000008151140000000000000000000000000000003110202401112024            000000000000000                              000                           
0010001300391T 0601897X0000000092096 24778822400002223   700000000000222331102024000000000806723001030708000002223                0900000000000010090000000000000000000000000000000000000   000000000000000000000000006        170192477882     
0010001300392U 060000000000000000000000000000000000000000000000000000000000000000000008067230000000008067230000000000000000000000000000003110202401112024            000000000000000                              000                           
0010001300393T 0601897X0000000092096 24778822400002227   700000000000222731102024000000000753574341000140000002227                0900000000000010100000000000000000000000000000000000000   000000000000000000000000004        170192477882     
0010001300394U 060000000000000000000000000000000000000000000000000000000000000000000007535740000000007535740000000000000000000000000000003110202401112024            000000000000000                              000                           
0010001300395T 0601897X0000000092096 24778822400002231   700000000000223131102024000000000731743341009120000002231                0900000000000010100000000000000000000000000000000000000   000000000000000000000000004        170192477882     
0010001300396U 060000000000000000000000000000000000000000000000000000000000000000000007317430000000007317430000000000000000000000000000003110202401112024            000000000000000                              000                           
0010001300397T 0601897X0000000092096 24778822400002235   700000000000223531102024000000000718886341000540000002235                0900000000000010100000000000000000000000000000000000000   000000000000000000000000004        170192477882     
0010001300398U 060000000000000000000000000000000000000000000000000000000000000000000007188860000000007188860000000000000000000000000000003110202401112024            000000000000000                              000                           
0010001300399T 0601897X0000000092096 24778822400002239   700000000000223931102024000000000662989341080310000002239                0900000000000010100000000000000000000000000000000000000   000000000000000000000000004        170192477882     
0010001300400U 060000000000000000000000000000000000000000000000000000000000000000000006629890000000006629890000000000000000000000000000003110202401112024            000000000000000                              000                           
0010001300401T 0601897X0000000092096 24778822400002255   700000000000225531102024000000000587903001030708000002255                0900000000000010090000000000000000000000000000000000000   000000000000000000000000006        170192477882     
0010001300402U 060000000000000000000000000000000000000000000000000000000000000000000005879030000000005879030000000000000000000000000000003110202401112024            000000000000000                              000                           
0010001300403T 0601897X0000000092096 24778822400002259   70000000000022593110202400000000058571700101916X000002259                0900000000000010040000000000000000000000000000000000000   000000000000000000000000034        170192477882     
0010001300404U 060000000000000000000000000000000000000000000000000000000000000000000005857170000000005857170000000000000000000000000000003110202401112024            000000000000000                              000                           
0010001300405T 0601897X0000000092096 24778822400002263   700000000000226331102024000000000583448341009120000002263                0900000000000010100000000000000000000000000000000000000   000000000000000000000000004        170192477882     
0010001300406U 060000000000000000000000000000000000000000000000000000000000000000000005834480000000005834480000000000000000000000000000003110202401112024            000000000000000                              000                           
0010001300407T 0601897X0000000092096 24778822400002271   700000000000227131102024000000000568282001030708000002271                0900000000000010090000000000000000000000000000000000000   000000000000000000000000006        170192477882     
0010001300408U 060000000000000000000000000000000000000000000000000000000000000000000005682820000000005682820000000000000000000000000000003110202401112024            000000000000000                              000                           
0010001300409T 0601897X0000000092096 24778822400002275   700000000000227531102024000000000561481237023720000002275                0900000000000010100000000000000000000000000000000000000   000000000000000000000000004        170192477882     
0010001300410U 060000000000000000000000000000000000000000000000000000000000000000000005614810000000005614810000000000000000000000000000003110202401112024            000000000000000                              000                           
0010001300411T 0601897X0000000092096 24778822400002287   700000000000228731102024000000000516636341000190000002287                0900000000000010100000000000000000000000000000000000000   000000000000000000000000004        170192477882     
0010001300412U 060000000000000000000000000000000000000000000000000000000000000000000005166360000000005166360000000000000000000000000000003110202401112024            000000000000000                              000                           
