00100000         2115139610001160024778820014       01897X0000000092096 FUNDACAO AGENCIA DAS BACIAS HIBANCO DO BRASIL                         23006202502123800611503000000829973081PROCESSAMEN                                                 
00100011T0100020 20115139610001160024778820014       01897X0000000092096 FUNDACAO AGENCIA DAS BACIAS HI                                                                                000000003006202500000000  000000000                      
0010001300001T 0201897X0000000092096 24778829000008655   7000008655      31072025000000000030702001009946000008655                0900000000000010500000000000000000000000000000000000000   0000000000000000000000519A9A4      170192477882     
0010001300002U 020000000000000000000000000000000000000000000000000000000000000000000000000000000000000000000000000000000000000000000000003006202500000000            000000000000000                              000                           
0010001300003T 0601897X0000000092096 24778822500000006   700000000000000630062025000000002082626001067245000000006                0900000000000010080000000000000000000000000000000000000   000000000000000000000000003        170192477882     
0010001300004U 060000000000000000000000000000000000000000000000000000000000000000000020826260000000020826260000000000000000000000000000003006202501072025            000000000000000                              000                           
0010001300005T 0601897X0000000092096 24778822500000008   700000000000000830062025000000001162516341009100000000008                0900000000000010100000000000000000000000000000000000000   000000000000000000000000004        170192477882     
0010001300006U 060000000000000000000000000000000000000000000000000000000000000000000011625160000000011625160000000000000000000000000000003006202501072025            000000000000000                              000                           
0010001300007T 0601897X0000000092096 24778822500000011   700000000000001130062025000000000980667341009120000000011                0900000000000010100000000000000000000000000000000000000   000000000000000000000000004        170192477882     
0010001300008U 060000000000000000000000000000000000000000000000000000000000000000000009806670000000009806670000000000000000000000000000003006202501072025            000000000000000                              000                           
0010001300009T 0601897X0000000092096 24778822500000013   70000000000000133006202500000000087675000104203X000000013                0900000000000010040000000000000000000000000000000000000   000000000000000000000000034        170192477882     
0010001300010U 060000000000000000000000000000000000000000000000000000000000000000000008767500000000008767500000000000000000000000000000003006202501072025            000000000000000                              000                           
0010001300011T 0601897X0000000092096 24778822500000017   700000000000001730062025000000000723132237033710000000017                0900000000000010100000000000000000000000000000000000000   000000000000000000000000004        170192477882     
0010001300012U 060000000000000000000000000000000000000000000000000000000000000000000007231320000000007231320000000000000000000000000000003006202501072025            000000000000000                              000                           
0010001300013T 0601897X0000000092096 24778822500000018   700000000000001830062025000000000714581341009100000000018                0900000000000010100000000000000000000000000000000000000   000000000000000000000000004        170192477882     
0010001300014U 060000000000000000000000000000000000000000000000000000000000000000000007145810000000007145810000000000000000000000000000003006202501072025            000000000000000                              000                           
0010001300015T 0601897X0000000092096 24778822500000022   700000000000002230062025000000000580658341002620000000022                0900000000000010100000000000000000000000000000000000000   000000000000000000000000004        170192477882     
0010001300016U 060000000000000000000000000000000000000000000000000000000000000000000005806580000000005806580000000000000000000000000000003006202501072025            000000000000000                              000                           
0010001300017T 0601897X0000000092096 24778822500000025   700000000000002530062025000000000539346341000540000000025                0900000000000010100000000000000000000000000000000000000   000000000000000000000000004        170192477882     
0010001300018U 060000000000000000000000000000000000000000000000000000000000000000000005393460000000005393460000000000000000000000000000003006202501072025            000000000000000                              000                           
0010001300019T 0601897X0000000092096 24778822500000027   700000000000002730062025000000000467092509000010000000027                0900000000000010100000000000000000000000000000000000000   000000000000000000000000004        170192477882     
0010001300020U 060000000000000000000000000000000000000000000000000000000000000000000004670920000000004670920000000000000000000000000000003006202501072025            000000000000000                              000                           
0010001300021T 0601897X0000000092096 24778822500000031   700000000000003130062025000000000422246237033940000000031                0900000000000010100000000000000000000000000000000000000   000000000000000000000000004        170192477882     
0010001300022U 060000000000000000000000000000000000000000000000000000000000000000000004222460000000004222460000000000000000000000000000003006202501072025            000000000000000                              000                           
0010001300023T 0601897X0000000092096 24778822500000034   700000000000003430062025000000000400974341011750000000034                0900000000000010100000000000000000000000000000000000000   000000000000000000000000004        170192477882     
0010001300024U 060000000000000000000000000000000000000000000000000000000000000000000004009740000000004009740000000000000000000000000000003006202501072025            000000000000000                              000                           
0010001300025T 0601897X0000000092096 24778822500000035   700000000000003504072025000000000374454033022710000000035                0900000000000010100000000000000000000000000000000000000   000000000000000000000000004        170192477882     
0010001300026U 060000000000000000000000000000000000000000000000000000000000000000000003744540000000003744540000000000000000000000000000003006202501072025            000000000000000                              000                           
0010001300027T 0601897X0000000092096 24778822500000040   700000000000004030062025000000000334542376000010000000040                0900000000000010100000000000000000000000000000000000000   000000000000000000000000004        170192477882     
0010001300028U 060000000000000000000000000000000000000000000000000000000000000000000003345420000000003345420000000000000000000000000000003006202501072025            000000000000000                              000                           
0010001300029T 0601897X0000000092096 24778822500000041   700000000000004130062025000000000327363033005450000000041                0900000000000010100000000000000000000000000000000000000   000000000000000000000000004        170192477882     
0010001300030U 060000000000000000000000000000000000000000000000000000000000000000000003273630000000003273630000000000000000000000000000003006202501072025            000000000000000                              000                           
0010001300031T 0601897X0000000092096 24778822500000045   700000000000004530062025000000000312919341005460000000045                0900000000000010100000000000000000000000000000000000000   000000000000000000000000004        170192477882     
0010001300032U 060000000000000000000000000000000000000000000000000000000000000000000003129190000000003129190000000000000000000000000000003006202501072025            000000000000000                              000                           
0010001300033T 0601897X0000000092096 24778822500000050   700000000000005030062025000000000290319341011450000000050                0900000000000010100000000000000000000000000000000000000   000000000000000000000000004        170192477882     
0010001300034U 060000000000000000000000000000000000000000000000000000000000000000000002903190000000002903190000000000000000000000000000003006202501072025            000000000000000                              000                           
0010001300035T 0601897X0000000092096 24778822500000051   700000000000005130062025000000000286946341001640000000051                0900000000000010100000000000000000000000000000000000000   000000000000000000000000004        170192477882     
0010001300036U 060000000000000000000000000000000000000000000000000000000000000000000002869460000000002869460000000000000000000000000000003006202501072025            000000000000000                              000                           
0010001300037T 0601897X0000000092096 24778822500000052   700000000000005230062025000000000286923745000010000000052                0900000000000010100000000000000000000000000000000000000   000000000000000000000000004        170192477882     
0010001300038U 060000000000000000000000000000000000000000000000000000000000000000000002869230000000002869230000000000000000000000000000003006202501072025            000000000000000                              000                           
0010001300039T 0601897X0000000092096 24778822500000054   70000000000000543006202500000000028010200104203X000000054                0900000000000010040000000000000000000000000000000000000   000000000000000000000000034        170192477882     
0010001300040U 060000000000000000000000000000000000000000000000000000000000000000000002801020000000002801020000000000000000000000000000003006202501072025            000000000000000                              000                           
0010001300041T 0601897X0000000092096 24778822500000067   700000000000006730062025000000000220557033037780000000067                0900000000000010100000000000000000000000000000000000000   000000000000000000000000004        170192477882     
0010001300042U 060000000000000000000000000000000000000000000000000000000000000000000002205570000000002205570000000000000000000000000000003006202501072025            000000000000000                              000                           
0010001300043T 0601897X0000000092096 24778822500000068   700000000000006830062025000000000217532341003750000000068                0900000000000010100000000000000000000000000000000000000   000000000000000000000000004        170192477882     
0010001300044U 060000000000000000000000000000000000000000000000000000000000000000000002175320000000002175320000000000000000000000000000003006202501072025            000000000000000                              000                           
0010001300045T 0601897X0000000092096 24778822500000069   700000000000006930062025000000000217379033012320000000069                0900000000000010100000000000000000000000000000000000000   000000000000000000000000004        170192477882     
0010001300046U 060000000000000000000000000000000000000000000000000000000000000000000002173790000000002173790000000000000000000000000000003006202501072025            000000000000000                              000                           
0010001300047T 0601897X0000000092096 24778822500000071   700000000000007130062025000000000213986033042260000000071                0900000000000010100000000000000000000000000000000000000   000000000000000000000000004        170192477882     
0010001300048U 060000000000000000000000000000000000000000000000000000000000000000000002139860000000002139860000000000000000000000000000003006202501072025            000000000000000                              000                           
0010001300049T 0601897X0000000092096 24778822500000072   700000000000007230062025000000000211231237000460000000072                0900000000000010100000000000000000000000000000000000000   000000000000000000000000004        170192477882     
0010001300050U 060000000000000000000000000000000000000000000000000000000000000000000002112310000000002112310000000000000000000000000000003006202501072025            000000000000000                              000                           
0010001300051T 0601897X0000000092096 24778822500000075   700000000000007530062025000000000194601341018280000000075                0900000000000010100000000000000000000000000000000000000   000000000000000000000000004        170192477882     
0010001300052U 060000000000000000000000000000000000000000000000000000000000000000000001946010000000001946010000000000000000000000000000003006202501072025            000000000000000                              000                           
0010001300053T 0601897X0000000092096 24778822500000080   700000000000008030062025000000000186821237001170000000080                0900000000000010100000000000000000000000000000000000000   000000000000000000000000004        170192477882     
0010001300054U 060000000000000000000000000000000000000000000000000000000000000000000001868210000000001868210000000000000000000000000000003006202501072025            000000000000000                              000                           
0010001300055T 0601897X0000000092096 24778822500000082   700000000000008230062025000000000183816033034280000000082                0900000000000010100000000000000000000000000000000000000   000000000000000000000000004        170192477882     
0010001300056U 060000000000000000000000000000000000000000000000000000000000000000000001838160000000001838160000000000000000000000000000003006202501072025            000000000000000                              000                           
0010001300057T 0601897X0000000092096 24778822500000084   700000000000008430062025000000000175461756072860000000084                0900000000000010100000000000000000000000000000000000000   000000000000000000000000004        170192477882     
0010001300058U 060000000000000000000000000000000000000000000000000000000000000000000001754610000000001754610000000000000000000000000000003006202501072025            000000000000000                              000                           
0010001300059T 0601897X0000000092096 24778822500000085   700000000000008530062025000000000174928341000190000000085                0900000000000010100000000000000000000000000000000000000   000000000000000000000000004        170192477882     
0010001300060U 060000000000000000000000000000000000000000000000000000000000000000000001749280000000001749280000000000000000000000000000003006202501072025            000000000000000                              000                           
0010001300061T 0601897X0000000092096 24778822500000088   700000000000008830062025000000000165659033002850000000088                0900000000000010100000000000000000000000000000000000000   000000000000000000000000004        170192477882     
0010001300062U 060000000000000000000000000000000000000000000000000000000000000000000001656590000000001656590000000000000000000000000000003006202501072025            000000000000000                              000                           
0010001300063T 0601897X0000000092096 24778822500000089   700000000000008930062025000000000163856237001560000000089                0900000000000010100000000000000000000000000000000000000   000000000000000000000000004        170192477882     
0010001300064U 060000000000000000000000000000000000000000000000000000000000000000000001638560000000001638560000000000000000000000000000003006202501072025            000000000000000                              000                           
0010001300065T 0601897X0000000092096 24778822500000091   700000000000009130062025000000000161021341000020000000091                0900000000000010100000000000000000000000000000000000000   000000000000000000000000004        170192477882     
0010001300066U 060000000000000000000000000000000000000000000000000000000000000000000001610210000000001610210000000000000000000000000000003006202501072025            000000000000000                              000                           
0010001300067T 0601897X0000000092096 24778822500000092   700000000000009230062025000000000160098033005350000000092                0900000000000010100000000000000000000000000000000000000   000000000000000000000000004        170192477882     
0010001300068U 060000000000000000000000000000000000000000000000000000000000000000000001600980000000001600980000000000000000000000000000003006202501072025            000000000000000                              000                           
0010001300069T 0601897X0000000092096 24778822500000093   700000000000009330062025000000000159675237003100000000093                0900000000000010100000000000000000000000000000000000000   000000000000000000000000004        170192477882     
0010001300070U 060000000000000000000000000000000000000000000000000000000000000000000001596750000000001596750000000000000000000000000000003006202501072025            000000000000000                              000                           
0010001300071T 0601897X0000000092096 24778822500000094   700000000000009430062025000000000158094341001640000000094                0900000000000010100000000000000000000000000000000000000   000000000000000000000000004        170192477882     
0010001300072U 060000000000000000000000000000000000000000000000000000000000000000000001580940000000001580940000000000000000000000000000003006202501072025            000000000000000                              000                           
0010001300073T 0601897X0000000092096 24778822500000100   700000000000010030062025000000000146383756077970000000100                0900000000000010100000000000000000000000000000000000000   000000000000000000000000004        170192477882     
0010001300074U 060000000000000000000000000000000000000000000000000000000000000000000001463830000000001463830000000000000000000000000000003006202501072025            000000000000000                              000                           
0010001300075T 0601897X0000000092096 24778822500000104   700000000000010430062025000000000144894341064170000000104                0900000000000010100000000000000000000000000000000000000   000000000000000000000000004        170192477882     
0010001300076U 060000000000000000000000000000000000000000000000000000000000000000000001448940000000001448940000000000000000000000000000003006202501072025            000000000000000                              000                           
0010001300077T 0601897X0000000092096 24778822500000108   700000000000010830062025000000000142618033048780000000108                0900000000000010100000000000000000000000000000000000000   000000000000000000000000004        170192477882     
0010001300078U 060000000000000000000000000000000000000000000000000000000000000000000001426180000000001426180000000000000000000000000000003006202501072025            000000000000000                              000                           
0010001300079T 0601897X0000000092096 24778822500000109   700000000000010930062025000000000141992341069150000000109                0900000000000010100000000000000000000000000000000000000   000000000000000000000000004        170192477882     
0010001300080U 060000000000000000000000000000000000000000000000000000000000000000000001419920000000001419920000000000000000000000000000003006202501072025            000000000000000                              000                           
0010001300081T 0601897X0000000092096 24778822500000110   700000000000011030062025000000000137798237020020000000110                0900000000000010100000000000000000000000000000000000000   000000000000000000000000004        170192477882     
0010001300082U 060000000000000000000000000000000000000000000000000000000000000000000001377980000000001377980000000000000000000000000000003006202501072025            000000000000000                              000                           
0010001300083T 0601897X0000000092096 24778822500000112   700000000000011230062025000000000136714084000280000000112                0900000000000010100000000000000000000000000000000000000   000000000000000000000000004        170192477882     
0010001300084U 060000000000000000000000000000000000000000000000000000000000000000000001367140000000001367140000000000000000000000000000003006202501072025            000000000000000                              000                           
0010001300085T 0601897X0000000092096 24778822500000113   700000000000011330062025000000000132449341000250000000113                0900000000000010100000000000000000000000000000000000000   000000000000000000000000004        170192477882     
0010001300086U 060000000000000000000000000000000000000000000000000000000000000000000001324490000000001324490000000000000000000000000000003006202501072025            000000000000000                              000                           
0010001300087T 0601897X0000000092096 24778822500000119   700000000000011930062025000000000122962341000300000000119                0900000000000010100000000000000000000000000000000000000   000000000000000000000000004        170192477882     
0010001300088U 060000000000000000000000000000000000000000000000000000000000000000000001229620000000001229620000000000000000000000000000003006202501072025            000000000000000                              000                           
0010001300089T 0601897X0000000092096 24778822500000120   700000000000012030062025000000000121264269000010000000120                0900000000000010100000000000000000000000000000000000000   000000000000000000000000004        170192477882     
0010001300090U 060000000000000000000000000000000000000000000000000000000000000000000001212640000000001212640000000000000000000000000000003006202501072025            000000000000000                              000                           
0010001300091T 0601897X0000000092096 24778822500000123   700000000000012330062025000000000118263237004020000000123                0900000000000010100000000000000000000000000000000000000   000000000000000000000000004        170192477882     
0010001300092U 060000000000000000000000000000000000000000000000000000000000000000000001182630000000001182630000000000000000000000000000003006202501072025            000000000000000                              000                           
0010001300093T 0601897X0000000092096 24778822500000125   700000000000012530062025000000000117107341000330000000125                0900000000000010100000000000000000000000000000000000000   000000000000000000000000004        170192477882     
0010001300094U 060000000000000000000000000000000000000000000000000000000000000000000001171070000000001171070000000000000000000000000000003006202501072025            000000000000000                              000                           
0010001300095T 0601897X0000000092096 24778822500000127   700000000000012730062025000000000115551341001640000000127                0900000000000010100000000000000000000000000000000000000   000000000000000000000000004        170192477882     
0010001300096U 060000000000000000000000000000000000000000000000000000000000000000000001155510000000001155510000000000000000000000000000003006202501072025            000000000000000                              000                           
0010001300097T 0601897X0000000092096 24778822500000133   700000000000013330062025000000000109415237010990000000133                0900000000000010100000000000000000000000000000000000000   000000000000000000000000004        170192477882     
0010001300098U 060000000000000000000000000000000000000000000000000000000000000000000001094150000000001094150000000000000000000000000000003006202501072025            000000000000000                              000                           
0010001300099T 0601897X0000000092096 24778822500000146   700000000000014630062025000000000101446237033970000000146                0900000000000010100000000000000000000000000000000000000   000000000000000000000000004        170192477882     
0010001300100U 060000000000000000000000000000000000000000000000000000000000000000000001014460000000001014460000000000000000000000000000003006202501072025            000000000000000                              000                           
0010001300101T 0601897X0000000092096 24778822500000148   700000000000014830062025000000000099380237033900000000148                0900000000000010100000000000000000000000000000000000000   000000000000000000000000004        170192477882     
0010001300102U 060000000000000000000000000000000000000000000000000000000000000000000000993800000000000993800000000000000000000000000000003006202501072025            000000000000000                              000                           
0010001300103T 0601897X0000000092096 24778822500000150   700000000000015030062025000000000095087237023720000000150                0900000000000010100000000000000000000000000000000000000   000000000000000000000000004        170192477882     
0010001300104U 060000000000000000000000000000000000000000000000000000000000000000000000950870000000000950870000000000000000000000000000003006202501072025            000000000000000                              000                           
0010001300105T 0601897X0000000092096 24778822500000152   700000000000015230062025000000000093859237001560000000152                0900000000000010100000000000000000000000000000000000000   000000000000000000000000004        170192477882     
0010001300106U 060000000000000000000000000000000000000000000000000000000000000000000000938590000000000938590000000000000000000000000000003006202501072025            000000000000000                              000                           
0010001300107T 0601897X0000000092096 24778822500000154   700000000000015430062025000000000091575341078830000000154                0900000000000010100000000000000000000000000000000000000   000000000000000000000000004        170192477882     
0010001300108U 060000000000000000000000000000000000000000000000000000000000000000000000915750000000000915750000000000000000000000000000003006202501072025            000000000000000                              000                           
0010001300109T 0601897X0000000092096 24778822500000160   700000000000016030062025000000000089033237033900000000160                0900000000000010100000000000000000000000000000000000000   000000000000000000000000004        170192477882     
0010001300110U 060000000000000000000000000000000000000000000000000000000000000000000000890330000000000890330000000000000000000000000000003006202501072025            000000000000000                              000                           
0010001300111T 0601897X0000000092096 24778822500000162   700000000000016230062025000000000087830341070690000000162                0900000000000010100000000000000000000000000000000000000   000000000000000000000000004        170192477882     
0010001300112U 060000000000000000000000000000000000000000000000000000000000000000000000878300000000000878300000000000000000000000000000003006202501072025            000000000000000                              000                           
0010001300113T 0601897X0000000092096 24778822500000164   700000000000016430062025000000000087830237033810000000164                0900000000000010100000000000000000000000000000000000000   000000000000000000000000004        170192477882     
0010001300114U 060000000000000000000000000000000000000000000000000000000000000000000000878300000000000878300000000000000000000000000000003006202501072025            000000000000000                              000                           
0010001300115T 0601897X0000000092096 24778822500000165   700000000000016530062025000000000087830033002620000000165                0900000000000010100000000000000000000000000000000000000   000000000000000000000000004        170192477882     
0010001300116U 060000000000000000000000000000000000000000000000000000000000000000000000878300000000000878300000000000000000000000000000003006202501072025            000000000000000                              000                           
0010001300117T 0601897X0000000092096 24778822500000167   700000000000016730062025000000000087830341030350000000167                0900000000000010100000000000000000000000000000000000000   000000000000000000000000004        170192477882     
0010001300118U 060000000000000000000000000000000000000000000000000000000000000000000000878300000000000878300000000000000000000000000000003006202501072025            000000000000000                              000                           
0010001300119T 0601897X0000000092096 24778822500000168   700000000000016830062025000000000087830237025370000000168                0900000000000010100000000000000000000000000000000000000   000000000000000000000000004        170192477882     
0010001300120U 060000000000000000000000000000000000000000000000000000000000000000000000878300000000000878300000000000000000000000000000003006202501072025            000000000000000                              000                           
0010001300121T 0601897X0000000092096 24778822500000170   700000000000017030062025000000000087476341002060000000170                0900000000000010100000000000000000000000000000000000000   000000000000000000000000004        170192477882     
0010001300122U 060000000000000000000000000000000000000000000000000000000000000000000000874760000000000874760000000000000000000000000000003006202501072025            000000000000000                              000                           
0010001300123T 0601897X0000000092096 24778822500000171   70000000000001713006202500000000008325500101897X000000171                0900000000000010090000000000000000000000000000000000000   000000000000000000000000006        170192477882     
0010001300124U 060000000000000000000000000000000000000000000000000000000000000000000000832550000000000832550000000000000000000000000000003006202501072025            000000000000000                              000                           
0010001300125T 0601897X0000000092096 24778822500000179   700000000000017930062025000000000073528237001560000000179                0900000000000010100000000000000000000000000000000000000   000000000000000000000000004        170192477882     
0010001300126U 060000000000000000000000000000000000000000000000000000000000000000000000735280000000000735280000000000000000000000000000003006202501072025            000000000000000                              000                           
0010001300127T 0601897X0000000092096 24778822500000182   700000000000018230062025000000000073191237030990000000182                0900000000000010100000000000000000000000000000000000000   000000000000000000000000004        170192477882     
0010001300128U 060000000000000000000000000000000000000000000000000000000000000000000000731910000000000731910000000000000000000000000000003006202501072025            000000000000000                              000                           
0010001300129T 0601897X0000000092096 24778822500000185   700000000000018530062025000000000072189001031682000000185                0900000000000010040000000000000000000000000000000000000   000000000000000000000000034        170192477882     
0010001300130U 060000000000000000000000000000000000000000000000000000000000000000000000721890000000000721890000000000000000000000000000003006202501072025            000000000000000                              000                           
0010001300131T 0601897X0000000092096 24778822500000189   700000000000018930062025000000000071142341016520000000189                0900000000000010100000000000000000000000000000000000000   000000000000000000000000004        170192477882     
0010001300132U 060000000000000000000000000000000000000000000000000000000000000000000000711420000000000711420000000000000000000000000000003006202501072025            000000000000000                              000                           
0010001300133T 0601897X0000000092096 24778822500000198   700000000000019830062025000000000065692341001640000000198                0900000000000010100000000000000000000000000000000000000   000000000000000000000000004        170192477882     
0010001300134U 060000000000000000000000000000000000000000000000000000000000000000000000656920000000000656920000000000000000000000000000003006202501072025            000000000000000                              000                           
0010001300135T 0601897X0000000092096 24778822500000199   700000000000019930062025000000000065503341009120000000199                0900000000000010100000000000000000000000000000000000000   000000000000000000000000004        170192477882     
0010001300136U 060000000000000000000000000000000000000000000000000000000000000000000000655030000000000655030000000000000000000000000000003006202501072025            000000000000000                              000                           
0010001300137T 0601897X0000000092096 24778822500000201   700000000000020130062025000000000064410341000410000000201                0900000000000010100000000000000000000000000000000000000   000000000000000000000000004        170192477882     
0010001300138U 060000000000000000000000000000000000000000000000000000000000000000000000644100000000000644100000000000000000000000000000003006202501072025            000000000000000                              000                           
0010001300139T 0601897X0000000092096 24778822500000202   700000000000020230062025000000000064379748052110000000202                0900000000000010100000000000000000000000000000000000000   000000000000000000000000004        170192477882     
0010001300140U 060000000000000000000000000000000000000000000000000000000000000000000000643790000000000643790000000000000000000000000000003006202501072025            000000000000000                              000                           
0010001300141T 0601897X0000000092096 24778822500000209   700000000000020930062025000000000060178341009120000000209                0900000000000010100000000000000000000000000000000000000   000000000000000000000000004        170192477882     
0010001300142U 060000000000000000000000000000000000000000000000000000000000000000000000601780000000000601780000000000000000000000000000003006202501072025            000000000000000                              000                           
0010001300143T 0601897X0000000092096 24778822500000215   700000000000021530062025000000000058553341062600000000215                0900000000000010100000000000000000000000000000000000000   000000000000000000000000004        170192477882     
0010001300144U 060000000000000000000000000000000000000000000000000000000000000000000000585530000000000585530000000000000000000000000000003006202501072025            000000000000000                              000                           
0010001300145T 0601897X0000000092096 24778822500000219   700000000000021930062025000000000056767341007960000000219                0900000000000010100000000000000000000000000000000000000   000000000000000000000000004        170192477882     
0010001300146U 060000000000000000000000000000000000000000000000000000000000000000000000567670000000000567670000000000000000000000000000003006202501072025            000000000000000                              000                           
0010001300147T 0601897X0000000092096 24778822500000224   700000000000022430062025000000000055056341079920000000224                0900000000000010100000000000000000000000000000000000000   000000000000000000000000004        170192477882     
0010001300148U 060000000000000000000000000000000000000000000000000000000000000000000000550560000000000550560000000000000000000000000000003006202501072025            000000000000000                              000                           
0010001300149T 0601897X0000000092096 24778822500000225   700000000000022530062025000000000054929341009400000000225                0900000000000010100000000000000000000000000000000000000   000000000000000000000000004        170192477882     
0010001300150U 060000000000000000000000000000000000000000000000000000000000000000000000549290000000000549290000000000000000000000000000003006202501072025            000000000000000                              000                           
0010001300151T 0601897X0000000092096 24778822500000227   700000000000022730062025000000000054123341009120000000227                0900000000000010100000000000000000000000000000000000000   000000000000000000000000004        170192477882     
0010001300152U 060000000000000000000000000000000000000000000000000000000000000000000000541230000000000541230000000000000000000000000000003006202501072025            000000000000000                              000                           
0010001300153T 0601897X0000000092096 24778822500000228   700000000000022830062025000000000053901237000460000000228                0900000000000010100000000000000000000000000000000000000   000000000000000000000000004        170192477882     
0010001300154U 060000000000000000000000000000000000000000000000000000000000000000000000539010000000000539010000000000000000000000000000003006202501072025            000000000000000                              000                           
0010001300155T 0601897X0000000092096 24778822500000229   700000000000022930062025000000000053812341001920000000229                0900000000000010100000000000000000000000000000000000000   000000000000000000000000004        170192477882     
0010001300156U 060000000000000000000000000000000000000000000000000000000000000000000000538120000000000538120000000000000000000000000000003006202501072025            000000000000000                              000                           
0010001300157T 0601897X0000000092096 24778822500000230   700000000000023030062025000000000053725237033970000000230                0900000000000010100000000000000000000000000000000000000   000000000000000000000000004        170192477882     
0010001300158U 060000000000000000000000000000000000000000000000000000000000000000000000537250000000000537250000000000000000000000000000003006202501072025            000000000000000                              000                           
0010001300159T 0601897X0000000092096 24778822500000233   700000000000023330062025000000000052953237033810000000233                0900000000000010100000000000000000000000000000000000000   000000000000000000000000004        170192477882     
0010001300160U 060000000000000000000000000000000000000000000000000000000000000000000000529530000000000529530000000000000000000000000000003006202501072025            000000000000000                              000                           
0010001300161T 0601897X0000000092096 24778822500000235   700000000000023530062025000000000052698001004561000000235                0900000000000010040000000000000000000000000000000000000   000000000000000000000000034        170192477882     
0010001300162U 060000000000000000000000000000000000000000000000000000000000000000000000526980000000000526980000000000000000000000000000003006202501072025            000000000000000                              000                           
0010001300163T 0601897X0000000092096 24778822500000236   700000000000023630062025000000000052553748054950000000236                0900000000000010100000000000000000000000000000000000000   000000000000000000000000004        170192477882     
0010001300164U 060000000000000000000000000000000000000000000000000000000000000000000000525530000000000525530000000000000000000000000000003006202501072025            000000000000000                              000                           
0010001300165T 0601897X0000000092096 24778822500000246   700000000000024630062025000000000047178237003100000000246                0900000000000010100000000000000000000000000000000000000   000000000000000000000000004        170192477882     
0010001300166U 060000000000000000000000000000000000000000000000000000000000000000000000471780000000000471780000000000000000000000000000003006202501072025            000000000000000                              000                           
0010001300167T 0601897X0000000092096 24778822500000250   700000000000025030062025000000000046843341000300000000250                0900000000000010100000000000000000000000000000000000000   000000000000000000000000004        170192477882     
0010001300168U 060000000000000000000000000000000000000000000000000000000000000000000000468430000000000468430000000000000000000000000000003006202501072025            000000000000000                              000                           
0010001300169T 0601897X0000000092096 24778822500000252   700000000000025230062025000000000045341341001640000000252                0900000000000010100000000000000000000000000000000000000   000000000000000000000000004        170192477882     
0010001300170U 060000000000000000000000000000000000000000000000000000000000000000000000453410000000000453410000000000000000000000000000003006202501072025            000000000000000                              000                           
0010001300171T 0601897X0000000092096 24778822500000253   700000000000025330062025000000000045180341015650000000253                0900000000000010100000000000000000000000000000000000000   000000000000000000000000004        170192477882     
0010001300172U 060000000000000000000000000000000000000000000000000000000000000000000000451800000000000451800000000000000000000000000000003006202501072025            000000000000000                              000                           
0010001300173T 0601897X0000000092096 24778822500000254   700000000000025430062025000000000044798341000280000000254                0900000000000010100000000000000000000000000000000000000   000000000000000000000000004        170192477882     
0010001300174U 060000000000000000000000000000000000000000000000000000000000000000000000447980000000000447980000000000000000000000000000003006202501072025            000000000000000                              000                           
0010001300175T 0601897X0000000092096 24778822500000258   700000000000025830062025000000000043914341029460000000258                0900000000000010100000000000000000000000000000000000000   000000000000000000000000004        170192477882     
0010001300176U 060000000000000000000000000000000000000000000000000000000000000000000000439140000000000439140000000000000000000000000000003006202501072025            000000000000000                              000                           
0010001300177T 0601897X0000000092096 24778822500000263   700000000000026330062025000000000043914341000300000000263                0900000000000010100000000000000000000000000000000000000   000000000000000000000000004        170192477882     
0010001300178U 060000000000000000000000000000000000000000000000000000000000000000000000439140000000000439140000000000000000000000000000003006202501072025            000000000000000                              000                           
0010001300179T 0601897X0000000092096 24778822500000266   700000000000026630062025000000000043476341000500000000266                0900000000000010100000000000000000000000000000000000000   000000000000000000000000004        170192477882     
0010001300180U 060000000000000000000000000000000000000000000000000000000000000000000000434760000000000434760000000000000000000000000000003006202501072025            000000000000000                              000                           
0010001300181T 0601897X0000000092096 24778822500000267   700000000000026730062025000000000042597341000300000000267                0900000000000010100000000000000000000000000000000000000   000000000000000000000000004        170192477882     
0010001300182U 060000000000000000000000000000000000000000000000000000000000000000000000425970000000000425970000000000000000000000000000003006202501072025            000000000000000                              000                           
0010001300183T 0601897X0000000092096 24778822500000268   700000000000026830062025000000000042351341001640000000268                0900000000000010100000000000000000000000000000000000000   000000000000000000000000004        170192477882     
0010001300184U 060000000000000000000000000000000000000000000000000000000000000000000000423510000000000423510000000000000000000000000000003006202501072025            000000000000000                              000                           
0010001300185T 0601897X0000000092096 24778822500000269   700000000000026930062025000000000042159341002340000000269                0900000000000010100000000000000000000000000000000000000   000000000000000000000000004        170192477882     
0010001300186U 060000000000000000000000000000000000000000000000000000000000000000000000421590000000000421590000000000000000000000000000003006202501072025            000000000000000                              000                           
0010001300187T 0601897X0000000092096 24778822500000270   700000000000027030062025000000000042114341091750000000270                0900000000000010100000000000000000000000000000000000000   000000000000000000000000004        170192477882     
0010001300188U 060000000000000000000000000000000000000000000000000000000000000000000000421140000000000421140000000000000000000000000000003006202501072025            000000000000000                              000                           
0010001300189T 0601897X0000000092096 24778822500000278   700000000000027830062025000000000040677341016190000000278                0900000000000010100000000000000000000000000000000000000   000000000000000000000000004        170192477882     
0010001300190U 060000000000000000000000000000000000000000000000000000000000000000000000406770000000000406770000000000000000000000000000003006202501072025            000000000000000                              000                           
0010001300191T 0601897X0000000092096 24778822500000284   700000000000028430062025000000000039591001030813000000284                0900000000000010040000000000000000000000000000000000000   000000000000000000000000034        170192477882     
0010001300192U 060000000000000000000000000000000000000000000000000000000000000000000000395910000000000395910000000000000000000000000000003006202501072025            000000000000000                              000                           
0010001300193T 0601897X0000000092096 24778822500000291   700000000000029104072025000000000039275341000500000000291                0900000000000010100000000000000000000000000000000000000   000000000000000000000000004        170192477882     
0010001300194U 060000000000000000000000000000000000000000000000000000000000000000000000392750000000000392750000000000000000000000000000003006202501072025            000000000000000                              000                           
0010001300195T 0601897X0000000092096 24778822500000292   700000000000029230062025000000000039275748051530000000292                0900000000000010100000000000000000000000000000000000000   000000000000000000000000004        170192477882     
0010001300196U 060000000000000000000000000000000000000000000000000000000000000000000000392750000000000392750000000000000000000000000000003006202501072025            000000000000000                              000                           
0010001300197T 0601897X0000000092096 24778822500000297   700000000000029730062025000000000038645341064580000000297                0900000000000010100000000000000000000000000000000000000   000000000000000000000000004        170192477882     
0010001300198U 060000000000000000000000000000000000000000000000000000000000000000000000386450000000000386450000000000000000000000000000003006202501072025            000000000000000                              000                           
0010001300199T 0601897X0000000092096 24778822500000300   700000000000030030062025000000000038535237002720000000300                0900000000000010100000000000000000000000000000000000000   000000000000000000000000004        170192477882     
0010001300200U 060000000000000000000000000000000000000000000000000000000000000000000000385350000000000385350000000000000000000000000000003006202501072025            000000000000000                              000                           
0010001300201T 0601897X0000000092096 24778822500000303   700000000000030330062025000000000038346237026460000000303                0900000000000010100000000000000000000000000000000000000   000000000000000000000000004        170192477882     
0010001300202U 060000000000000000000000000000000000000000000000000000000000000000000000383460000000000383460000000000000000000000000000003006202501072025            000000000000000                              000                           
0010001300203T 0601897X0000000092096 24778822500000306   700000000000030630062025000000000038059748030270000000306                0900000000000010100000000000000000000000000000000000000   000000000000000000000000004        170192477882     
0010001300204U 060000000000000000000000000000000000000000000000000000000000000000000000380590000000000380590000000000000000000000000000003006202501072025            000000000000000                              000                           
0010001300205T 0601897X0000000092096 24778822500000309   700000000000030930062025000000000037595237002150000000309                0900000000000010100000000000000000000000000000000000000   000000000000000000000000004        170192477882     
0010001300206U 060000000000000000000000000000000000000000000000000000000000000000000000375950000000000375950000000000000000000000000000003006202501072025            000000000000000                              000                           
0010001300207T 0601897X0000000092096 24778822500000311   700000000000031130062025000000000037538341001640000000311                0900000000000010100000000000000000000000000000000000000   000000000000000000000000004        170192477882     
0010001300208U 060000000000000000000000000000000000000000000000000000000000000000000000375380000000000375380000000000000000000000000000003006202501072025            000000000000000                              000                           
0010001300209T 0601897X0000000092096 24778822500000314   700000000000031430062025000000000037439237019890000000314                0900000000000010100000000000000000000000000000000000000   000000000000000000000000004        170192477882     
0010001300210U 060000000000000000000000000000000000000000000000000000000000000000000000374390000000000374390000000000000000000000000000003006202501072025            000000000000000                              000                           
0010001300211T 0601897X0000000092096 24778822500000318   700000000000031830062025000000000037204001024538000000318                0900000000000010040000000000000000000000000000000000000   000000000000000000000000034        170192477882     
0010001300212U 060000000000000000000000000000000000000000000000000000000000000000000000372040000000000372040000000000000000000000000000003006202501072025            000000000000000                              000                           
0010001300213T 0601897X0000000092096 24778822500000319   700000000000031930062025000000000037124341006090000000319                0900000000000010100000000000000000000000000000000000000   000000000000000000000000004        170192477882     
0010001300214U 060000000000000000000000000000000000000000000000000000000000000000000000371240000000000371240000000000000000000000000000003006202501072025            000000000000000                              000                           
0010001300215T 0601897X0000000092096 24778822500000320   700000000000032030062025000000000037030341007700000000320                0900000000000010100000000000000000000000000000000000000   000000000000000000000000004        170192477882     
0010001300216U 060000000000000000000000000000000000000000000000000000000000000000000000370300000000000370300000000000000000000000000000003006202501072025            000000000000000                              000                           
0010001300217T 0601897X0000000092096 24778822500000322   700000000000032230062025000000000036889341078900000000322                0900000000000010100000000000000000000000000000000000000   000000000000000000000000004        170192477882     
0010001300218U 060000000000000000000000000000000000000000000000000000000000000000000000368890000000000368890000000000000000000000000000003006202501072025            000000000000000                              000                           
0010001300219T 0601897X0000000092096 24778822500000324   70000000000003243006202500000000003679000104203X000000324                0900000000000010040000000000000000000000000000000000000   000000000000000000000000034        170192477882     
0010001300220U 060000000000000000000000000000000000000000000000000000000000000000000000367900000000000367900000000000000000000000000000003006202501072025            000000000000000                              000                           
0010001300221T 0601897X0000000092096 24778822500000326   700000000000032630062025000000000036739341096270000000326                0900000000000010100000000000000000000000000000000000000   000000000000000000000000004        170192477882     
0010001300222U 060000000000000000000000000000000000000000000000000000000000000000000000367390000000000367390000000000000000000000000000003006202501072025            000000000000000                              000                           
0010001300223T 0601897X0000000092096 24778822500000328   700000000000032830062025000000000036596341002790000000328                0900000000000010100000000000000000000000000000000000000   000000000000000000000000004        170192477882     
0010001300224U 060000000000000000000000000000000000000000000000000000000000000000000000365960000000000365960000000000000000000000000000003006202501072025            000000000000000                              000                           
0010001300225T 0601897X0000000092096 24778822500000340   700000000000034030062025000000000036547237021180000000340                0900000000000010100000000000000000000000000000000000000   000000000000000000000000004        170192477882     
0010001300226U 060000000000000000000000000000000000000000000000000000000000000000000000365470000000000365470000000000000000000000000000003006202501072025            000000000000000                              000                           
0010001300227T 0601897X0000000092096 24778822500000341   700000000000034130062025000000000036454341001400000000341                0900000000000010100000000000000000000000000000000000000   000000000000000000000000004        170192477882     
0010001300228U 060000000000000000000000000000000000000000000000000000000000000000000000364540000000000364540000000000000000000000000000003006202501072025            000000000000000                              000                           
0010001300229T 0601897X0000000092096 24778822500000343   700000000000034330062025000000000036303341000300000000343                0900000000000010100000000000000000000000000000000000000   000000000000000000000000004        170192477882     
0010001300230U 060000000000000000000000000000000000000000000000000000000000000000000000363030000000000363030000000000000000000000000000003006202501072025            000000000000000                              000                           
0010001300231T 0601897X0000000092096 24778822500000345   700000000000034530062025000000000036095033044240000000345                0900000000000010100000000000000000000000000000000000000   000000000000000000000000004        170192477882     
0010001300232U 060000000000000000000000000000000000000000000000000000000000000000000000360950000000000360950000000000000000000000000000003006202501072025            000000000000000                              000                           
0010001300233T 0601897X0000000092096 24778822500000348   700000000000034830062025000000000036046033045600000000348                0900000000000010100000000000000000000000000000000000000   000000000000000000000000004        170192477882     
0010001300234U 060000000000000000000000000000000000000000000000000000000000000000000000360460000000000360460000000000000000000000000000003006202501072025            000000000000000                              000                           
0010001300235T 0601897X0000000092096 24778822500000356   700000000000035630062025000000000035706341002670000000356                0900000000000010100000000000000000000000000000000000000   000000000000000000000000004        170192477882     
0010001300236U 060000000000000000000000000000000000000000000000000000000000000000000000357060000000000357060000000000000000000000000000003006202501072025            000000000000000                              000                           
0010001300237T 0601897X0000000092096 24778822500000358   700000000000035830062025000000000035644237001900000000358                0900000000000010100000000000000000000000000000000000000   000000000000000000000000004        170192477882     
0010001300238U 060000000000000000000000000000000000000000000000000000000000000000000000356440000000000356440000000000000000000000000000003006202501072025            000000000000000                              000                           
0010001300239T 0601897X0000000092096 24778822500000359   700000000000035930062025000000000035621237001510000000359                0900000000000010100000000000000000000000000000000000000   000000000000000000000000004        170192477882     
0010001300240U 060000000000000000000000000000000000000000000000000000000000000000000000356210000000000356210000000000000000000000000000003006202501072025            000000000000000                              000                           
0010001300241T 0601897X0000000092096 24778822500000364   700000000000036430062025000000000035132756048020000000364                0900000000000010100000000000000000000000000000000000000   000000000000000000000000004        170192477882     
0010001300242U 060000000000000000000000000000000000000000000000000000000000000000000000351320000000000351320000000000000000000000000000003006202501072025            000000000000000                              000                           
0010001300243T 0601897X0000000092096 24778822500000367   700000000000036730062025000000000035132237033710000000367                0900000000000010100000000000000000000000000000000000000   000000000000000000000000004        170192477882     
0010001300244U 060000000000000000000000000000000000000000000000000000000000000000000000351320000000000351320000000000000000000000000000003006202501072025            000000000000000                              000                           
0010001300245T 0601897X0000000092096 24778822500000371   700000000000037130062025000000000035132341007160000000371                0900000000000010100000000000000000000000000000000000000   000000000000000000000000004        170192477882     
0010001300246U 060000000000000000000000000000000000000000000000000000000000000000000000351320000000000351320000000000000000000000000000003006202501072025            000000000000000                              000                           
0010001300247T 0601897X0000000092096 24778822500000372   700000000000037230062025000000000035132748050300000000372                0900000000000010100000000000000000000000000000000000000   000000000000000000000000004        170192477882     
0010001300248U 060000000000000000000000000000000000000000000000000000000000000000000000351320000000000351320000000000000000000000000000003006202501072025            000000000000000                              000                           
0010001300249T 0601897X0000000092096 24778822500000378   700000000000037830062025000000000034809341016200000000378                0900000000000010100000000000000000000000000000000000000   000000000000000000000000004        170192477882     
0010001300250U 060000000000000000000000000000000000000000000000000000000000000000000000348090000000000348090000000000000000000000000000003006202501072025            000000000000000                              000                           
0010001300251T 0601897X0000000092096 24778822500000384   700000000000038430062025000000000034570341015650000000384                0900000000000010100000000000000000000000000000000000000   000000000000000000000000004        170192477882     
0010001300252U 060000000000000000000000000000000000000000000000000000000000000000000000345700000000000345700000000000000000000000000000003006202501072025            000000000000000                              000                           
0010001300253T 0601897X0000000092096 24778822500000388   700000000000038830062025000000000034477509000010000000388                0900000000000010100000000000000000000000000000000000000   000000000000000000000000004        170192477882     
0010001300254U 060000000000000000000000000000000000000000000000000000000000000000000000344770000000000344770000000000000000000000000000003006202501072025            000000000000000                              000                           
0010001300255T 0601897X0000000092096 24778822500000392   700000000000039230062025000000000033961341027110000000392                0900000000000010100000000000000000000000000000000000000   000000000000000000000000004        170192477882     
0010001300256U 060000000000000000000000000000000000000000000000000000000000000000000000339610000000000339610000000000000000000000000000003006202501072025            000000000000000                              000                           
0010001300257T 0601897X0000000092096 24778822500000397   700000000000039730062025000000000033726033034030000000397                0900000000000010100000000000000000000000000000000000000   000000000000000000000000004        170192477882     
0010001300258U 060000000000000000000000000000000000000000000000000000000000000000000000337260000000000337260000000000000000000000000000003006202501072025            000000000000000                              000                           
0010001300259T 0601897X0000000092096 24778822500000398   700000000000039830062025000000000033716341001620000000398                0900000000000010100000000000000000000000000000000000000   000000000000000000000000004        170192477882     
0010001300260U 060000000000000000000000000000000000000000000000000000000000000000000000337160000000000337160000000000000000000000000000003006202501072025            000000000000000                              000                           
0010001300261T 0601897X0000000092096 24778822500000406   700000000000040630062025000000000033263033042770000000406                0900000000000010100000000000000000000000000000000000000   000000000000000000000000004        170192477882     
0010001300262U 060000000000000000000000000000000000000000000000000000000000000000000000332630000000000332630000000000000000000000000000003006202501072025            000000000000000                              000                           
0010001300263T 0601897X0000000092096 24778822500000413   700000000000041330062025000000000032540237001510000000413                0900000000000010100000000000000000000000000000000000000   000000000000000000000000004        170192477882     
0010001300264U 060000000000000000000000000000000000000000000000000000000000000000000000325400000000000325400000000000000000000000000000003006202501072025            000000000000000                              000                           
0010001300265T 0601897X0000000092096 24778822500000415   700000000000041530062025000000000032458341002770000000415                0900000000000010100000000000000000000000000000000000000   000000000000000000000000004        170192477882     
0010001300266U 060000000000000000000000000000000000000000000000000000000000000000000000324580000000000324580000000000000000000000000000003006202501072025            000000000000000                              000                           
0010001300267T 0601897X0000000092096 24778822500000422   700000000000042230062025000000000032205237033710000000422                0900000000000010100000000000000000000000000000000000000   000000000000000000000000004        170192477882     
0010001300268U 060000000000000000000000000000000000000000000000000000000000000000000000322050000000000322050000000000000000000000000000003006202501072025            000000000000000                              000                           
0010001300269T 0601897X0000000092096 24778822500000424   700000000000042430062025000000000032163341000690000000424                0900000000000010100000000000000000000000000000000000000   000000000000000000000000004        170192477882     
0010001300270U 060000000000000000000000000000000000000000000000000000000000000000000000321630000000000321630000000000000000000000000000003006202501072025            000000000000000                              000                           
0010001300271T 0601897X0000000092096 24778822500000428   700000000000042830062025000000000032065274000010000000428                0900000000000010100000000000000000000000000000000000000   000000000000000000000000004        170192477882     
0010001300272U 060000000000000000000000000000000000000000000000000000000000000000000000320650000000000320650000000000000000000000000000003006202501072025            000000000000000                              000                           
0010001300273T 0601897X0000000092096 24778822500000430   700000000000043030062025000000000031985237033710000000430                0900000000000010100000000000000000000000000000000000000   000000000000000000000000004        170192477882     
0010001300274U 060000000000000000000000000000000000000000000000000000000000000000000000319850000000000319850000000000000000000000000000003006202501072025            000000000000000                              000                           
0010001300275T 0601897X0000000092096 24778822500000432   700000000000043230062025000000000031882748051530000000432                0900000000000010100000000000000000000000000000000000000   000000000000000000000000004        170192477882     
0010001300276U 060000000000000000000000000000000000000000000000000000000000000000000000318820000000000318820000000000000000000000000000003006202501072025            000000000000000                              000                           
0010001300277T 0601897X0000000092096 24778822500000433   700000000000043330062025000000000031826341006700000000433                0900000000000010100000000000000000000000000000000000000   000000000000000000000000004        170192477882     
0010001300278U 060000000000000000000000000000000000000000000000000000000000000000000000318260000000000318260000000000000000000000000000003006202501072025            000000000000000                              000                           
0010001300279T 0601897X0000000092096 24778822500000436   700000000000043630062025000000000031672033000010000000436                0900000000000010100000000000000000000000000000000000000   000000000000000000000000004        170192477882     
0010001300280U 060000000000000000000000000000000000000000000000000000000000000000000000316720000000000316720000000000000000000000000000003006202501072025            000000000000000                              000                           
0010001300281T 0601897X0000000092096 24778822500000440   700000000000044030062025000000000031381341001360000000440                0900000000000010100000000000000000000000000000000000000   000000000000000000000000004        170192477882     
0010001300282U 060000000000000000000000000000000000000000000000000000000000000000000000313810000000000313810000000000000000000000000000003006202501072025            000000000000000                              000                           
0010001300283T 0601897X0000000092096 24778822500000441   700000000000044130062025000000000031380341004450000000441                0900000000000010100000000000000000000000000000000000000   000000000000000000000000004        170192477882     
0010001300284U 060000000000000000000000000000000000000000000000000000000000000000000000313800000000000313800000000000000000000000000000003006202501072025            000000000000000                              000                           
0010001300285T 0601897X0000000092096 24778822500000442   700000000000044230062025000000000031308104002780000000442                0900000000000010100000000000000000000000000000000000000   000000000000000000000000004        170192477882     
0010001300286U 060000000000000000000000000000000000000000000000000000000000000000000000313080000000000313080000000000000000000000000000003006202501072025            000000000000000                              000                           
0010001300287T 0601897X0000000092096 24778822500000443   700000000000044330062025000000000031282341027770000000443                0900000000000010100000000000000000000000000000000000000   000000000000000000000000004        170192477882     
0010001300288U 060000000000000000000000000000000000000000000000000000000000000000000000312820000000000312820000000000000000000000000000003006202501072025            000000000000000                              000                           
0010001300289T 0601897X0000000092096 24778822500000445   700000000000044530062025000000000031137001004561000000445                0900000000000010060000000000000000000000000000000000000   000000000000000000000000033        170192477882     
0010001300290U 060000000000000000000000000000000000000000000000000000000000000000000000311370000000000311370000000000000000000000000000003006202501072025            000000000000000                              000                           
0010001300291T 0601897X0000000092096 24778822500000448   700000000000044830062025000000000030964341005460000000448                0900000000000010100000000000000000000000000000000000000   000000000000000000000000004        170192477882     
0010001300292U 060000000000000000000000000000000000000000000000000000000000000000000000309640000000000309640000000000000000000000000000003006202501072025            000000000000000                              000                           
0010001300293T 0601897X0000000092096 24778822500000450   700000000000045030062025000000000030921237003230000000450                0900000000000010100000000000000000000000000000000000000   000000000000000000000000004        170192477882     
0010001300294U 060000000000000000000000000000000000000000000000000000000000000000000000309210000000000309210000000000000000000000000000003006202501072025            000000000000000                              000                           
0010001300295T 0601897X0000000092096 24778822500000456   700000000000045630062025000000000030741341006590000000456                0900000000000010100000000000000000000000000000000000000   000000000000000000000000004        170192477882     
0010001300296U 060000000000000000000000000000000000000000000000000000000000000000000000307410000000000307410000000000000000000000000000003006202501072025            000000000000000                              000                           
0010001300297T 0601897X0000000092096 24778822500000457   700000000000045730062025000000000030741001030813000000457                0900000000000010060000000000000000000000000000000000000   000000000000000000000000033        170192477882     
0010001300298U 060000000000000000000000000000000000000000000000000000000000000000000000307410000000000307410000000000000000000000000000003006202501072025            000000000000000                              000                           
0010001300299T 0601897X0000000092096 24778822500000459   700000000000045930062025000000000030646237033890000000459                0900000000000010100000000000000000000000000000000000000   000000000000000000000000004        170192477882     
0010001300300U 060000000000000000000000000000000000000000000000000000000000000000000000306460000000000306460000000000000000000000000000003006202501072025            000000000000000                              000                           
0010001300301T 0601897X0000000092096 24778822500000462   700000000000046230062025000000000030492237003060000000462                0900000000000010100000000000000000000000000000000000000   000000000000000000000000004        170192477882     
0010001300302U 060000000000000000000000000000000000000000000000000000000000000000000000304920000000000304920000000000000000000000000000003006202501072025            000000000000000                              000                           
0010001300303T 0601897X0000000092096 24778822500000463   700000000000046330062025000000000030492341002640000000463                0900000000000010100000000000000000000000000000000000000   000000000000000000000000004        170192477882     
0010001300304U 060000000000000000000000000000000000000000000000000000000000000000000000304920000000000304920000000000000000000000000000003006202501072025            000000000000000                              000                           
0010001300305T 0601897X0000000092096 24778822500000464   700000000000046430062025000000000030477001031437000000464                0900000000000010020000000000000000000000000000000000000   000000000000000000000000033        170192477882     
0010001300306U 060000000000000000000000000000000000000000000000000000000000000000000000304770000000000304770000000000000000000000000000003006202501072025            000000000000000                              000                           
0010001300307T 0601897X0000000092096 24778822500000468   700000000000046830062025000000000030319341007960000000468                0900000000000010100000000000000000000000000000000000000   000000000000000000000000004        170192477882     
0010001300308U 060000000000000000000000000000000000000000000000000000000000000000000000303190000000000303190000000000000000000000000000003006202501072025            000000000000000                              000                           
0010001300309T 0601897X0000000092096 24778822500000473   700000000000047330062025000000000030034001065161000000473                0900000000000010040000000000000000000000000000000000000   000000000000000000000000034        170192477882     
0010001300310U 060000000000000000000000000000000000000000000000000000000000000000000000300340000000000300340000000000000000000000000000003006202501072025            000000000000000                              000                           
0010001300311T 0601897X0000000092096 24778822500000474   700000000000047430062025000000000030030341000540000000474                0900000000000010100000000000000000000000000000000000000   000000000000000000000000004        170192477882     
0010001300312U 060000000000000000000000000000000000000000000000000000000000000000000000300300000000000300300000000000000000000000000000003006202501072025            000000000000000                              000                           
0010001300313T 0601897X0000000092096 24778822500000475   700000000000047530062025000000000029942237002150000000475                0900000000000010100000000000000000000000000000000000000   000000000000000000000000004        170192477882     
0010001300314U 060000000000000000000000000000000000000000000000000000000000000000000000299420000000000299420000000000000000000000000000003006202501072025            000000000000000                              000                           
0010001300315T 0601897X0000000092096 24778822500000477   700000000000047730062025000000000029768341002770000000477                0900000000000010100000000000000000000000000000000000000   000000000000000000000000004        170192477882     
0010001300316U 060000000000000000000000000000000000000000000000000000000000000000000000297680000000000297680000000000000000000000000000003006202501072025            000000000000000                              000                           
0010001300317T 0601897X0000000092096 24778822500000479   700000000000047930062025000000000029676341000550000000479                0900000000000010100000000000000000000000000000000000000   000000000000000000000000004        170192477882     
0010001300318U 060000000000000000000000000000000000000000000000000000000000000000000000296760000000000296760000000000000000000000000000003006202501072025            000000000000000                              000                           
0010001300319T 0601897X0000000092096 24778822500000485   700000000000048530062025000000000029277341070690000000485                0900000000000010100000000000000000000000000000000000000   000000000000000000000000004        170192477882     
0010001300320U 060000000000000000000000000000000000000000000000000000000000000000000000292770000000000292770000000000000000000000000000003006202501072025            000000000000000                              000                           
0010001300321T 0601897X0000000092096 24778822500000495   700000000000049530062025000000000029277341031500000000495                0900000000000010100000000000000000000000000000000000000   000000000000000000000000004        170192477882     
0010001300322U 060000000000000000000000000000000000000000000000000000000000000000000000292770000000000292770000000000000000000000000000003006202501072025            000000000000000                              000                           
0010001300323T 0601897X0000000092096 24778822500000499   700000000000049904072025000000000029277237003930000000499                0900000000000010100000000000000000000000000000000000000   000000000000000000000000004        170192477882     
0010001300324U 060000000000000000000000000000000000000000000000000000000000000000000000292770000000000292770000000000000000000000000000003006202501072025            000000000000000                              000                           
0010001300325T 0601897X0000000092096 24778822500000501   700000000000050130062025000000000029277748053310000000501                0900000000000010100000000000000000000000000000000000000   000000000000000000000000004        170192477882     
0010001300326U 060000000000000000000000000000000000000000000000000000000000000000000000292770000000000292770000000000000000000000000000003006202501072025            000000000000000                              000                           
0010001300327T 0601897X0000000092096 24778822500000504   700000000000050430062025000000000029277341092830000000504                0900000000000010100000000000000000000000000000000000000   000000000000000000000000004        170192477882     
0010001300328U 060000000000000000000000000000000000000000000000000000000000000000000000292770000000000292770000000000000000000000000000003006202501072025            000000000000000                              000                           
0010001300329T 0601897X0000000092096 24778822500000505   700000000000050530062025000000000029277341000460000000505                0900000000000010100000000000000000000000000000000000000   000000000000000000000000004        170192477882     
0010001300330U 060000000000000000000000000000000000000000000000000000000000000000000000292770000000000292770000000000000000000000000000003006202501072025            000000000000000                              000                           
0010001300331T 0601897X0000000092096 24778822500000508   700000000000050830062025000000000029277341006580000000508                0900000000000010100000000000000000000000000000000000000   000000000000000000000000004        170192477882     
0010001300332U 060000000000000000000000000000000000000000000000000000000000000000000000292770000000000292770000000000000000000000000000003006202501072025            000000000000000                              000                           
0010001300333T 0601897X0000000092096 24778822500000511   700000000000051130062025000000000029277341000280000000511                0900000000000010100000000000000000000000000000000000000   000000000000000000000000004        170192477882     
0010001300334U 060000000000000000000000000000000000000000000000000000000000000000000000292770000000000292770000000000000000000000000000003006202501072025            000000000000000                              000                           
0010001300335T 0601897X0000000092096 24778822500000517   700000000000051730062025000000000029277756048020000000517                0900000000000010100000000000000000000000000000000000000   000000000000000000000000004        170192477882     
0010001300336U 060000000000000000000000000000000000000000000000000000000000000000000000292770000000000292770000000000000000000000000000003006202501072025            000000000000000                              000                           
0010001300337T 0601897X0000000092096 24778822500000521   700000000000052130062025000000000029277341002790000000521                0900000000000010100000000000000000000000000000000000000   000000000000000000000000004        170192477882     
0010001300338U 060000000000000000000000000000000000000000000000000000000000000000000000292770000000000292770000000000000000000000000000003006202501072025            000000000000000                              000                           
0010001300339T 0601897X0000000092096 24778822500000524   700000000000052430062025000000000029059422000030000000524                0900000000000010100000000000000000000000000000000000000   000000000000000000000000004        170192477882     
0010001300340U 060000000000000000000000000000000000000000000000000000000000000000000000290590000000000290590000000000000000000000000000003006202501072025            000000000000000                              000                           
0010001300341T 0601897X0000000092096 24778822500000526   700000000000052630062025000000000028984341027820000000526                0900000000000010100000000000000000000000000000000000000   000000000000000000000000004        170192477882     
0010001300342U 060000000000000000000000000000000000000000000000000000000000000000000000289840000000000289840000000000000000000000000000003006202501072025            000000000000000                              000                           
0010001300343T 0601897X0000000092096 24778822500000528   700000000000052830062025000000000028983001033839000000528                0900000000000010090000000000000000000000000000000000000   000000000000000000000000006        170192477882     
0010001300344U 060000000000000000000000000000000000000000000000000000000000000000000000289830000000000289830000000000000000000000000000003006202501072025            000000000000000                              000                           
0010001300345T 0601897X0000000092096 24778822500000533   700000000000053330062025000000000028840237006270000000533                0900000000000010100000000000000000000000000000000000000   000000000000000000000000004        170192477882     
0010001300346U 060000000000000000000000000000000000000000000000000000000000000000000000288400000000000288400000000000000000000000000000003006202501072025            000000000000000                              000                           
0010001300347T 0601897X0000000092096 24778822500000534   700000000000053430062025000000000028786341002630000000534                0900000000000010100000000000000000000000000000000000000   000000000000000000000000004        170192477882     
0010001300348U 060000000000000000000000000000000000000000000000000000000000000000000000287860000000000287860000000000000000000000000000003006202501072025            000000000000000                              000                           
0010001300349T 0601897X0000000092096 24778822500000537   700000000000053730062025000000000028662237003140000000537                0900000000000010100000000000000000000000000000000000000   000000000000000000000000004        170192477882     
0010001300350U 060000000000000000000000000000000000000000000000000000000000000000000000286620000000000286620000000000000000000000000000003006202501072025            000000000000000                              000                           
0010001300351T 0601897X0000000092096 24778822500000546   700000000000054630062025000000000028171341007960000000546                0900000000000010100000000000000000000000000000000000000   000000000000000000000000004        170192477882     
0010001300352U 060000000000000000000000000000000000000000000000000000000000000000000000281710000000000281710000000000000000000000000000003006202501072025            000000000000000                              000                           
0010001300353T 0601897X0000000092096 24778822500000547   700000000000054730062025000000000028170033001780000000547                0900000000000010100000000000000000000000000000000000000   000000000000000000000000004        170192477882     
0010001300354U 060000000000000000000000000000000000000000000000000000000000000000000000281700000000000281700000000000000000000000000000003006202501072025            000000000000000                              000                           
0010001300355T 0601897X0000000092096 24778822500000549   700000000000054930062025000000000028105237033890000000549                0900000000000010100000000000000000000000000000000000000   000000000000000000000000004        170192477882     
0010001300356U 060000000000000000000000000000000000000000000000000000000000000000000000281050000000000281050000000000000000000000000000003006202501072025            000000000000000                              000                           
0010001300357T 0601897X0000000092096 24778822500000550   700000000000055030062025000000000028105341005600000000550                0900000000000010100000000000000000000000000000000000000   000000000000000000000000004        170192477882     
0010001300358U 060000000000000000000000000000000000000000000000000000000000000000000000281050000000000281050000000000000000000000000000003006202501072025            000000000000000                              000                           
0010001300359T 0601897X0000000092096 24778822500000553   700000000000055330062025000000000028058341001360000000553                0900000000000010100000000000000000000000000000000000000   000000000000000000000000004        170192477882     
0010001300360U 060000000000000000000000000000000000000000000000000000000000000000000000280580000000000280580000000000000000000000000000003006202501072025            000000000000000                              000                           
0010001300361T 0601897X0000000092096 24778822500000554   700000000000055430062025000000000027940341085730000000554                0900000000000010100000000000000000000000000000000000000   000000000000000000000000004        170192477882     
0010001300362U 060000000000000000000000000000000000000000000000000000000000000000000000279400000000000279400000000000000000000000000000003006202501072025            000000000000000                              000                           
0010001300363T 0601897X0000000092096 24778822500000560   700000000000056030062025000000000027709756083070000000560                0900000000000010100000000000000000000000000000000000000   000000000000000000000000004        170192477882     
0010001300364U 060000000000000000000000000000000000000000000000000000000000000000000000277090000000000277090000000000000000000000000000003006202501072025            000000000000000                              000                           
0010001300365T 0601897X0000000092096 24778822500000564   700000000000056430062025000000000027528341008460000000564                0900000000000010100000000000000000000000000000000000000   000000000000000000000000004        170192477882     
0010001300366U 060000000000000000000000000000000000000000000000000000000000000000000000275280000000000275280000000000000000000000000000003006202501072025            000000000000000                              000                           
0010001300367T 0601897X0000000092096 24778822500000565   700000000000056530062025000000000027528341056360000000565                0900000000000010100000000000000000000000000000000000000   000000000000000000000000004        170192477882     
0010001300368U 060000000000000000000000000000000000000000000000000000000000000000000000275280000000000275280000000000000000000000000000003006202501072025            000000000000000                              000                           
0010001300369T 0601897X0000000092096 24778822500000566   700000000000056630062025000000000027475341006580000000566                0900000000000010100000000000000000000000000000000000000   000000000000000000000000004        170192477882     
0010001300370U 060000000000000000000000000000000000000000000000000000000000000000000000274750000000000274750000000000000000000000000000003006202501072025            000000000000000                              000                           
0010001300371T 0601897X0000000092096 24778822500000567   700000000000056730062025000000000027462033020140000000567                0900000000000010100000000000000000000000000000000000000   000000000000000000000000004        170192477882     
0010001300372U 060000000000000000000000000000000000000000000000000000000000000000000000274620000000000274620000000000000000000000000000003006202501072025            000000000000000                              000                           
0010001300373T 0601897X0000000092096 24778822500000571   700000000000057130062025000000000027374341009120000000571                0900000000000010100000000000000000000000000000000000000   000000000000000000000000004        170192477882     
0010001300374U 060000000000000000000000000000000000000000000000000000000000000000000000273740000000000273740000000000000000000000000000003006202501072025            000000000000000                              000                           
0010001300375T 0601897X0000000092096 24778822500000572   700000000000057230062025000000000027374341000190000000572                0900000000000010100000000000000000000000000000000000000   000000000000000000000000004        170192477882     
0010001300376U 060000000000000000000000000000000000000000000000000000000000000000000000273740000000000273740000000000000000000000000000003006202501072025            000000000000000                              000                           
0010001300377T 0601897X0000000092096 24778822500000574   700000000000057430062025000000000027157237002150000000574                0900000000000010100000000000000000000000000000000000000   000000000000000000000000004        170192477882     
0010001300378U 060000000000000000000000000000000000000000000000000000000000000000000000271570000000000271570000000000000000000000000000003006202501072025            000000000000000                              000                           
0010001300379T 0601897X0000000092096 24778822500000576   700000000000057630062025000000000027105341085770000000576                0900000000000010100000000000000000000000000000000000000   000000000000000000000000004        170192477882     
0010001300380U 060000000000000000000000000000000000000000000000000000000000000000000000271050000000000271050000000000000000000000000000003006202501072025            000000000000000                              000                           
0010001300381T 0601897X0000000092096 24778822500000579   700000000000057930062025000000000026791341040530000000579                0900000000000010100000000000000000000000000000000000000   000000000000000000000000004        170192477882     
0010001300382U 060000000000000000000000000000000000000000000000000000000000000000000000267910000000000267910000000000000000000000000000003006202501072025            000000000000000                              000                           
0010001300383T 0601897X0000000092096 24778822500000580   700000000000058030062025000000000026637756044410000000580                0900000000000010100000000000000000000000000000000000000   000000000000000000000000004        170192477882     
0010001300384U 060000000000000000000000000000000000000000000000000000000000000000000000266370000000000266370000000000000000000000000000003006202501072025            000000000000000                              000                           
0010001300385T 0601897X0000000092096 24778822500000582   700000000000058230062025000000000026522341007960000000582                0900000000000010100000000000000000000000000000000000000   000000000000000000000000004        170192477882     
0010001300386U 060000000000000000000000000000000000000000000000000000000000000000000000265220000000000265220000000000000000000000000000003006202501072025            000000000000000                              000                           
0010001300387T 0601897X0000000092096 24778822500000585   700000000000058530062025000000000026388341002770000000585                0900000000000010100000000000000000000000000000000000000   000000000000000000000000004        170192477882     
0010001300388U 060000000000000000000000000000000000000000000000000000000000000000000000263880000000000263880000000000000000000000000000003006202501072025            000000000000000                              000                           
0010001300389T 0601897X0000000092096 24778822500000586   700000000000058630062025000000000026349341040040000000586                0900000000000010100000000000000000000000000000000000000   000000000000000000000000004        170192477882     
0010001300390U 060000000000000000000000000000000000000000000000000000000000000000000000263490000000000263490000000000000000000000000000003006202501072025            000000000000000                              000                           
0010001300391T 0601897X0000000092096 24778822500000589   700000000000058930062025000000000026349341029260000000589                0900000000000010100000000000000000000000000000000000000   000000000000000000000000004        170192477882     
0010001300392U 060000000000000000000000000000000000000000000000000000000000000000000000263490000000000263490000000000000000000000000000003006202501072025            000000000000000                              000                           
0010001300393T 0601897X0000000092096 24778822500000590   700000000000059030062025000000000026349033035850000000590                0900000000000010100000000000000000000000000000000000000   000000000000000000000000004        170192477882     
0010001300394U 060000000000000000000000000000000000000000000000000000000000000000000000263490000000000263490000000000000000000000000000003006202501072025            000000000000000                              000                           
0010001300395T 0601897X0000000092096 24778822500000595   700000000000059530062025000000000026349341000280000000595                0900000000000010100000000000000000000000000000000000000   000000000000000000000000004        170192477882     
0010001300396U 060000000000000000000000000000000000000000000000000000000000000000000000263490000000000263490000000000000000000000000000003006202501072025            000000000000000                              000                           
0010001300397T 0601897X0000000092096 24778822500000596   700000000000059630062025000000000026349341063450000000596                0900000000000010100000000000000000000000000000000000000   000000000000000000000000004        170192477882     
0010001300398U 060000000000000000000000000000000000000000000000000000000000000000000000263490000000000263490000000000000000000000000000003006202501072025            000000000000000                              000                           
0010001300399T 0601897X0000000092096 24778822500000599   700000000000059930062025000000000026349237019860000000599                0900000000000010100000000000000000000000000000000000000   000000000000000000000000004        170192477882     
0010001300400U 060000000000000000000000000000000000000000000000000000000000000000000000263490000000000263490000000000000000000000000000003006202501072025            000000000000000                              000                           
0010001300401T 0601897X0000000092096 24778822500000601   700000000000060130062025000000000026349033047700000000601                0900000000000010100000000000000000000000000000000000000   000000000000000000000000004        170192477882     
0010001300402U 060000000000000000000000000000000000000000000000000000000000000000000000263490000000000263490000000000000000000000000000003006202501072025            000000000000000                              000                           
0010001300403T 0601897X0000000092096 24778822500000603   700000000000060330062025000000000026348237003160000000603                0900000000000010100000000000000000000000000000000000000   000000000000000000000000004        170192477882     
0010001300404U 060000000000000000000000000000000000000000000000000000000000000000000000263480000000000263480000000000000000000000000000003006202501072025            000000000000000                              000                           
0010001300405T 0601897X0000000092096 24778822500000605   700000000000060530062025000000000026278341000280000000605                0900000000000010100000000000000000000000000000000000000   000000000000000000000000004        170192477882     
0010001300406U 060000000000000000000000000000000000000000000000000000000000000000000000262780000000000262780000000000000000000000000000003006202501072025            000000000000000                              000                           
0010001300407T 0601897X0000000092096 24778822500000607   700000000000060730062025000000000026260341016190000000607                0900000000000010100000000000000000000000000000000000000   000000000000000000000000004        170192477882     
0010001300408U 060000000000000000000000000000000000000000000000000000000000000000000000262600000000000262600000000000000000000000000000003006202501072025            000000000000000                              000                           
0010001300409T 0601897X0000000092096 24778822500000609   700000000000060930062025000000000026104237033710000000609                0900000000000010100000000000000000000000000000000000000   000000000000000000000000004        170192477882     
0010001300410U 060000000000000000000000000000000000000000000000000000000000000000000000261040000000000261040000000000000000000000000000003006202501072025            000000000000000                              000                           
0010001300411T 0601897X0000000092096 24778822500000614   700000000000061430062025000000000025873237033680000000614                0900000000000010100000000000000000000000000000000000000   000000000000000000000000004        170192477882     
0010001300412U 060000000000000000000000000000000000000000000000000000000000000000000000258730000000000258730000000000000000000000000000003006202501072025            000000000000000                              000                           
