00100000         2115139610001160024778820014       01897X0000000092096 FUNDACAO AGENCIA DAS BACIAS HIBANCO DO BRASIL                         23107202502061200616103000000829973081PROCESSAMEN                                                 
00100011T0100020 20115139610001160024778820014       01897X0000000092096 FUNDACAO AGENCIA DAS BACIAS HI                                                                                000000003107202500000000  000000000                      
0010001300001T 0201897X0000000092096 24778829000008731   7000008731      29082025000000000036465001001724000008731                0900000000000010000000000000000000000000000000000000000   0000000000000000000000519A9        170192477882     
0010001300002U 020000000000000000000000000000000000000000000000000000000000000000000000000000000000000000000000000000000000000000000000003107202500000000            000000000000000                              000                           
0010001300003T 0201897X0000000092096 24778829000008732   7000008732      30092025000000000036465001001724000008732                0900000000000010000000000000000000000000000000000000000   0000000000000000000000519A9        170192477882     
0010001300004U 020000000000000000000000000000000000000000000000000000000000000000000000000000000000000000000000000000000000000000000000003107202500000000            000000000000000                              000                           
0010001300005T 0201897X0000000092096 24778829000008733   7000008733      31102025000000000036465001001724000008733                0900000000000010000000000000000000000000000000000000000   0000000000000000000000519A9        170192477882     
0010001300006U 020000000000000000000000000000000000000000000000000000000000000000000000000000000000000000000000000000000000000000000000003107202500000000            000000000000000                              000                           
0010001300007T 0201897X0000000092096 24778829000008734   7000008734      2908202500000000002485900101849X000008734                0900000000000010500000000000000000000000000000000000000   0000000000000000000000519A9A4      170192477882     
0010001300008U 020000000000000000000000000000000000000000000000000000000000000000000000000000000000000000000000000000000000000000000000003107202500000000            000000000000000                              000                           
0010001300009T 0201897X0000000092096 24778829000008735   7000008735      29082025000000000025679001024171000008735                0900000000000010000000000000000000000000000000000000000   0000000000000000000000519A9        170192477882     
0010001300010U 020000000000000000000000000000000000000000000000000000000000000000000000000000000000000000000000000000000000000000000000003107202500000000            000000000000000                              000                           
0010001300011T 0201897X0000000092096 24778829000008736   7000008736      2908202500000000014246700101849X000008736                0900000000000010500000000000000000000000000000000000000   0000000000000000000000519A9A4      170192477882     
0010001300012U 020000000000000000000000000000000000000000000000000000000000000000000000000000000000000000000000000000000000000000000000003107202500000000            000000000000000                              000                           
0010001300013T 0201897X0000000092096 24778829000008737   7000008737      29082025000000000028353001004154000008737                0900000000000010500000000000000000000000000000000000000   0000000000000000000000519A9A4      170192477882     
0010001300014U 020000000000000000000000000000000000000000000000000000000000000000000000000000000000000000000000000000000000000000000000003107202500000000            000000000000000                              000                           
0010001300015T 0601897X0000000092096 24778822500000095   700000000000009531072025000000000157300033048780000000095                0900000000000010100000000000000000000000000000000000000   000000000000000000000000004        170192477882     
0010001300016U 060000000000000000000000000000000000000000000000000000000000000000000001573000000000001573000000000000000000000000000000003107202501082025            000000000000000                              000                           
0010001300017T 0601897X0000000092096 24778822500000200   700000000000020031072025000000000065062033000100000000200                0900000000000010100000000000000000000000000000000000000   000000000000000000000000004        170192477882     
0010001300018U 060000000000000000000000000000000000000000000000000000000000000000000000650620000000000650620000000000000000000000000000003107202501082025            000000000000000                              000                           
0010001300019T 0601897X0000000092096 24778822500000205   700000000000020531072025000000000061587033000100000000205                0900000000000010100000000000000000000000000000000000000   000000000000000000000000004        170192477882     
0010001300020U 060000000000000000000000000000000000000000000000000000000000000000000000615870000000000615870000000000000000000000000000003107202501082025            000000000000000                              000                           
0010001300021T 0601897X0000000092096 24778822500000234   700000000000023431072025000000000052705033000100000000234                0900000000000010100000000000000000000000000000000000000   000000000000000000000000004        170192477882     
0010001300022U 060000000000000000000000000000000000000000000000000000000000000000000000527050000000000527050000000000000000000000000000003107202501082025            000000000000000                              000                           
0010001300023T 0601897X0000000092096 24778822500000249   700000000000024931072025000000000046843033000100000000249                0900000000000010100000000000000000000000000000000000000   000000000000000000000000004        170192477882     
0010001300024U 060000000000000000000000000000000000000000000000000000000000000000000000468430000000000468430000000000000000000000000000003107202501082025            000000000000000                              000                           
0010001300025T 0601897X0000000092096 24778822500000256   700000000000025631072025000000000043914033000100000000256                0900000000000010100000000000000000000000000000000000000   000000000000000000000000004        170192477882     
0010001300026U 060000000000000000000000000000000000000000000000000000000000000000000000439140000000000439140000000000000000000000000000003107202501082025            000000000000000                              000                           
0010001300027T 0601897X0000000092096 24778822500000262   700000000000026231072025000000000043914033000100000000262                0900000000000010100000000000000000000000000000000000000   000000000000000000000000004        170192477882     
0010001300028U 060000000000000000000000000000000000000000000000000000000000000000000000439140000000000439140000000000000000000000000000003107202501082025            000000000000000                              000                           
0010001300029T 0601897X0000000092096 24778822500000264   700000000000026431072025000000000043766033000100000000264                0900000000000010100000000000000000000000000000000000000   000000000000000000000000004        170192477882     
0010001300030U 060000000000000000000000000000000000000000000000000000000000000000000000437660000000000437660000000000000000000000000000003107202501082025            000000000000000                              000                           
0010001300031T 0601897X0000000092096 24778822500000288   700000000000028831072025000000000039523033000100000000288                0900000000000010100000000000000000000000000000000000000   000000000000000000000000004        170192477882     
0010001300032U 060000000000000000000000000000000000000000000000000000000000000000000000395230000000000395230000000000000000000000000000003107202501082025            000000000000000                              000                           
0010001300033T 0601897X0000000092096 24778822500000310   700000000000031031072025000000000037595237000460000000310                0900000000000010100000000000000000000000000000000000000   000000000000000000000000004        170192477882     
0010001300034U 060000000000000000000000000000000000000000000000000000000000000000000000375950000000000375950000000000000000000000000000003107202501082025            000000000000000                              000                           
0010001300035T 0601897X0000000092096 24778822500000325   700000000000032531072025000000000036740001065544000000325                0900000000000010040000000000000000000000000000000000000   000000000000000000000000034        170192477882     
0010001300036U 060000000000000000000000000000000000000000000000000000000000000000000000367400000000000367400000000000000000000000000000003107202501082025            000000000000000                              000                           
0010001300037T 0601897X0000000092096 24778822500000353   700000000000035331072025000000000035825033000100000000353                0900000000000010100000000000000000000000000000000000000   000000000000000000000000004        170192477882     
0010001300038U 060000000000000000000000000000000000000000000000000000000000000000000000358250000000000358250000000000000000000000000000003107202501082025            000000000000000                              000                           
0010001300039T 0601897X0000000092096 24778822500000366   700000000000036631072025000000000035132033000100000000366                0900000000000010100000000000000000000000000000000000000   000000000000000000000000004        170192477882     
0010001300040U 060000000000000000000000000000000000000000000000000000000000000000000000351320000000000351320000000000000000000000000000003107202501082025            000000000000000                              000                           
0010001300041T 0601897X0000000092096 24778822500000483   700000000000048331072025000000000029288341000300000000483                0900000000000010100000000000000000000000000000000000000   000000000000000000000000004        170192477882     
0010001300042U 060000000000000000000000000000000000000000000000000000000000000000000000292880000000000292880000000000000000000000000000003107202501082025            000000000000000                              000                           
0010001300043T 0601897X0000000092096 24778822500000514   700000000000051431072025000000000029277033000100000000514                0900000000000010100000000000000000000000000000000000000   000000000000000000000000004        170192477882     
0010001300044U 060000000000000000000000000000000000000000000000000000000000000000000000292770000000000292770000000000000000000000000000003107202501082025            000000000000000                              000                           
0010001300045T 0601897X0000000092096 24778822500000629   700000000000062931072025000000000025381033000100000000629                0900000000000010100000000000000000000000000000000000000   000000000000000000000000004        170192477882     
0010001300046U 060000000000000000000000000000000000000000000000000000000000000000000000253810000000000253810000000000000000000000000000003107202501082025            000000000000000                              000                           
0010001300047T 0601897X0000000092096 24778822500000631   700000000000063131072025000000000025381033000100000000631                0900000000000010100000000000000000000000000000000000000   000000000000000000000000004        170192477882     
0010001300048U 060000000000000000000000000000000000000000000000000000000000000000000000253810000000000253810000000000000000000000000000003107202501082025            000000000000000                              000                           
0010001300049T 0601897X0000000092096 24778822500000719   700000000000071931072025000000000022627033000100000000719                0900000000000010100000000000000000000000000000000000000   000000000000000000000000004        170192477882     
0010001300050U 060000000000000000000000000000000000000000000000000000000000000000000000226270000000000226270000000000000000000000000000003107202501082025            000000000000000                              000                           
0010001300051T 0601897X0000000092096 24778822500000721   700000000000072131072025000000000022550033000100000000721                0900000000000010100000000000000000000000000000000000000   000000000000000000000000004        170192477882     
0010001300052U 060000000000000000000000000000000000000000000000000000000000000000000000225500000000000225500000000000000000000000000000003107202501082025            000000000000000                              000                           
0010001300053T 0601897X0000000092096 24778822500000727   700000000000072731072025000000000022382033000100000000727                0900000000000010100000000000000000000000000000000000000   000000000000000000000000004        170192477882     
0010001300054U 060000000000000000000000000000000000000000000000000000000000000000000000223820000000000223820000000000000000000000000000003107202501082025            000000000000000                              000                           
0010001300055T 0601897X0000000092096 24778822500000729   700000000000072931072025000000000022382033000100000000729                0900000000000010100000000000000000000000000000000000000   000000000000000000000000004        170192477882     
0010001300056U 060000000000000000000000000000000000000000000000000000000000000000000000223820000000000223820000000000000000000000000000003107202501082025            000000000000000                              000                           
0010001300057T 0601897X0000000092096 24778822500000752   700000000000075231072025000000000021882237033720000000752                0900000000000010100000000000000000000000000000000000000   000000000000000000000000004        170192477882     
0010001300058U 060000000000000000000000000000000000000000000000000000000000000000000000218820000000000218820000000000000000000000000000003107202501082025            000000000000000                              000                           
0010001300059T 0601897X0000000092096 24778822500000756   700000000000075631072025000000000021770033000100000000756                0900000000000010100000000000000000000000000000000000000   000000000000000000000000004        170192477882     
0010001300060U 060000000000000000000000000000000000000000000000000000000000000000000000217700000000000217700000000000000000000000000000003107202501082025            000000000000000                              000                           
0010001300061T 0601897X0000000092096 24778822500000806   700000000000080631072025000000000019832033000100000000806                0900000000000010100000000000000000000000000000000000000   000000000000000000000000004        170192477882     
0010001300062U 060000000000000000000000000000000000000000000000000000000000000000000000198320000000000198320000000000000000000000000000003107202501082025            000000000000000                              000                           
0010001300063T 0601897X0000000092096 24778822500000832   700000000000083231072025000000000019036033000100000000832                0900000000000010100000000000000000000000000000000000000   000000000000000000000000004        170192477882     
0010001300064U 060000000000000000000000000000000000000000000000000000000000000000000000190360000000000190360000000000000000000000000000003107202501082025            000000000000000                              000                           
0010001300065T 0601897X0000000092096 24778822500000835   700000000000083531072025000000000018936033000100000000835                0900000000000010100000000000000000000000000000000000000   000000000000000000000000004        170192477882     
0010001300066U 060000000000000000000000000000000000000000000000000000000000000000000000189360000000000189360000000000000000000000000000003107202501082025            000000000000000                              000                           
0010001300067T 0601897X0000000092096 24778822500000857   700000000000085731072025000000000017572033000100000000857                0900000000000010100000000000000000000000000000000000000   000000000000000000000000004        170192477882     
0010001300068U 060000000000000000000000000000000000000000000000000000000000000000000000175720000000000175720000000000000000000000000000003107202501082025            000000000000000                              000                           
0010001300069T 0601897X0000000092096 24778822500000966   700000000000096631072025000000000012427033000100000000966                0900000000000010100000000000000000000000000000000000000   000000000000000000000000004        170192477882     
0010001300070U 060000000000000000000000000000000000000000000000000000000000000000000000124270000000000124270000000000000000000000000000003107202501082025            000000000000000                              000                           
0010001300071T 0601897X0000000092096 24778822500001024   700000000000102431072025000000000029894341020780000001024                0900000000000010100000000000000000000000000000000000000   000000000000000000000000004        170192477882     
0010001300072U 060000000000000000000000000000000000000000000000000000000000000000000000298940000000000298940000000000000000000000000000003107202501082025            000000000000000                              000                           
0010001300073T 0601897X0000000092096 24778822500001032   700000000000103231072025000000000029557001030813000001032                0900000000000010040000000000000000000000000000000000000   000000000000000000000000034        170192477882     
0010001300074U 060000000000000000000000000000000000000000000000000000000000000000000000295570000000000295570000000000000000000000000000003107202501082025            000000000000000                              000                           
0010001300075T 0601897X0000000092096 24778822500001036   700000000000103631072025000000000029335001031437000001036                0900000000000010040000000000000000000000000000000000000   000000000000000000000000034        170192477882     
0010001300076U 060000000000000000000000000000000000000000000000000000000000000000000000293350000000000293350000000000000000000000000000003107202501082025            000000000000000                              000                           
0010001300077T 0601897X0000000092096 24778822500001038   700000000000103831072025000000000029320756072810000001038                0900000000000010100000000000000000000000000000000000000   000000000000000000000000004        170192477882     
0010001300078U 060000000000000000000000000000000000000000000000000000000000000000000000293200000000000293200000000000000000000000000000003107202501082025            000000000000000                              000                           
0010001300079T 0601897X0000000092096 24778822500001052   700000000000105231072025000000000029277001040908000001052                0900000000000010040000000000000000000000000000000000000   000000000000000000000000034        170192477882     
0010001300080U 060000000000000000000000000000000000000000000000000000000000000000000000292770000000000292770000000000000000000000000000003107202501082025            000000000000000                              000                           
0010001300081T 0601897X0000000092096 24778822500001058   700000000000105831072025000000000029277341002790000001058                0900000000000010100000000000000000000000000000000000000   000000000000000000000000004        170192477882     
0010001300082U 060000000000000000000000000000000000000000000000000000000000000000000000292770000000000292770000000000000000000000000000003107202501082025            000000000000000                              000                           
0010001300083T 0601897X0000000092096 24778822500001062   700000000000106231072025000000000029277341028660000001062                0900000000000010100000000000000000000000000000000000000   000000000000000000000000004        170192477882     
0010001300084U 060000000000000000000000000000000000000000000000000000000000000000000000292770000000000292770000000000000000000000000000003107202501082025            000000000000000                              000                           
0010001300085T 0601897X0000000092096 24778822500001072   700000000000107231072025000000000029277341078900000001072                0900000000000010100000000000000000000000000000000000000   000000000000000000000000004        170192477882     
0010001300086U 060000000000000000000000000000000000000000000000000000000000000000000000292770000000000292770000000000000000000000000000003107202501082025            000000000000000                              000                           
0010001300087T 0601897X0000000092096 24778822500001076   700000000000107631072025000000000029277341005460000001076                0900000000000010100000000000000000000000000000000000000   000000000000000000000000004        170192477882     
0010001300088U 060000000000000000000000000000000000000000000000000000000000000000000000292770000000000292770000000000000000000000000000003107202501082025            000000000000000                              000                           
0010001300089T 0601897X0000000092096 24778822500001082   700000000000108231072025000000000029277756080700000001082                0900000000000010100000000000000000000000000000000000000   000000000000000000000000004        170192477882     
0010001300090U 060000000000000000000000000000000000000000000000000000000000000000000000292770000000000292770000000000000000000000000000003107202501082025            000000000000000                              000                           
0010001300091T 0601897X0000000092096 24778822500001088   700000000000108831072025000000000029275341006580000001088                0900000000000010100000000000000000000000000000000000000   000000000000000000000000004        170192477882     
0010001300092U 060000000000000000000000000000000000000000000000000000000000000000000000292750000000000292750000000000000000000000000000003107202501082025            000000000000000                              000                           
0010001300093T 0601897X0000000092096 24778822500001090   700000000000109031072025000000000029245341000300000001090                0900000000000010100000000000000000000000000000000000000   000000000000000000000000004        170192477882     
0010001300094U 060000000000000000000000000000000000000000000000000000000000000000000000292450000000000292450000000000000000000000000000003107202501082025            000000000000000                              000                           
0010001300095T 0601897X0000000092096 24778822500001094   700000000000109431072025000000000029187081000010000001094                0900000000000010100000000000000000000000000000000000000   000000000000000000000000004        170192477882     
0010001300096U 060000000000000000000000000000000000000000000000000000000000000000000000291870000000000291870000000000000000000000000000003107202501082025            000000000000000                              000                           
0010001300097T 0601897X0000000092096 24778822500001096   700000000000109631072025000000000029178341026900000001096                0900000000000010100000000000000000000000000000000000000   000000000000000000000000004        170192477882     
0010001300098U 060000000000000000000000000000000000000000000000000000000000000000000000291780000000000291780000000000000000000000000000003107202501082025            000000000000000                              000                           
0010001300099T 0601897X0000000092096 24778822500001100   700000000000110031072025000000000028998033031780000001100                0900000000000010100000000000000000000000000000000000000   000000000000000000000000004        170192477882     
0010001300100U 060000000000000000000000000000000000000000000000000000000000000000000000289980000000000289980000000000000000000000000000003107202501082025            000000000000000                              000                           
0010001300101T 0601897X0000000092096 24778822500001106   700000000000110631072025000000000028595260000010000001106                0900000000000010100000000000000000000000000000000000000   000000000000000000000000004        170192477882     
0010001300102U 060000000000000000000000000000000000000000000000000000000000000000000000285950000000000285950000000000000000000000000000003107202501082025            000000000000000                              000                           
0010001300103T 0601897X0000000092096 24778822500001108   700000000000110831072025000000000028545237009270000001108                0900000000000010100000000000000000000000000000000000000   000000000000000000000000004        170192477882     
0010001300104U 060000000000000000000000000000000000000000000000000000000000000000000000285450000000000285450000000000000000000000000000003107202501082025            000000000000000                              000                           
0010001300105T 0601897X0000000092096 24778822500001116   700000000000111631072025000000000027875341080310000001116                0900000000000010100000000000000000000000000000000000000   000000000000000000000000004        170192477882     
0010001300106U 060000000000000000000000000000000000000000000000000000000000000000000000278750000000000278750000000000000000000000000000003107202501082025            000000000000000                              000                           
0010001300107T 0601897X0000000092096 24778822500001120   700000000000112031072025000000000027813033000130000001120                0900000000000010100000000000000000000000000000000000000   000000000000000000000000004        170192477882     
0010001300108U 060000000000000000000000000000000000000000000000000000000000000000000000278130000000000278130000000000000000000000000000003107202501082025            000000000000000                              000                           
0010001300109T 0601897X0000000092096 24778822500001122   700000000000112231072025000000000027698341027310000001122                0900000000000010100000000000000000000000000000000000000   000000000000000000000000004        170192477882     
0010001300110U 060000000000000000000000000000000000000000000000000000000000000000000000276980000000000276980000000000000000000000000000003107202501082025            000000000000000                              000                           
0010001300111T 0601897X0000000092096 24778822500001132   700000000000113231072025000000000027462033037070000001132                0900000000000010100000000000000000000000000000000000000   000000000000000000000000004        170192477882     
0010001300112U 060000000000000000000000000000000000000000000000000000000000000000000000274620000000000274620000000000000000000000000000003107202501082025            000000000000000                              000                           
0010001300113T 0601897X0000000092096 24778822500001138   700000000000113831072025000000000027250341077850000001138                0900000000000010100000000000000000000000000000000000000   000000000000000000000000004        170192477882     
0010001300114U 060000000000000000000000000000000000000000000000000000000000000000000000272500000000000272500000000000000000000000000000003107202501082025            000000000000000                              000                           
0010001300115T 0601897X0000000092096 24778822500001146   700000000000114631072025000000000027181341056360000001146                0900000000000010100000000000000000000000000000000000000   000000000000000000000000004        170192477882     
0010001300116U 060000000000000000000000000000000000000000000000000000000000000000000000271810000000000271810000000000000000000000000000003107202501082025            000000000000000                              000                           
0010001300117T 0601897X0000000092096 24778822500001150   700000000000115031072025000000000027055001036684000001150                0900000000000010040000000000000000000000000000000000000   000000000000000000000000034        170192477882     
0010001300118U 060000000000000000000000000000000000000000000000000000000000000000000000270550000000000270550000000000000000000000000000003107202501082025            000000000000000                              000                           
0010001300119T 0601897X0000000092096 24778822500001152   700000000000115231072025000000000026928341014460000001152                0900000000000010100000000000000000000000000000000000000   000000000000000000000000004        170192477882     
0010001300120U 060000000000000000000000000000000000000000000000000000000000000000000000269280000000000269280000000000000000000000000000003107202501082025            000000000000000                              000                           
0010001300121T 0601897X0000000092096 24778822500001154   700000000000115431072025000000000026897756048020000001154                0900000000000010100000000000000000000000000000000000000   000000000000000000000000004        170192477882     
0010001300122U 060000000000000000000000000000000000000000000000000000000000000000000000268970000000000268970000000000000000000000000000003107202501082025            000000000000000                              000                           
0010001300123T 0601897X0000000092096 24778822500001156   700000000000115631072025000000000026642341006800000001156                0900000000000010100000000000000000000000000000000000000   000000000000000000000000004        170192477882     
0010001300124U 060000000000000000000000000000000000000000000000000000000000000000000000266420000000000266420000000000000000000000000000003107202501082025            000000000000000                              000                           
0010001300125T 0601897X0000000092096 24778822500001170   700000000000117031072025000000000026349033001490000001170                0900000000000010100000000000000000000000000000000000000   000000000000000000000000004        170192477882     
0010001300126U 060000000000000000000000000000000000000000000000000000000000000000000000263490000000000263490000000000000000000000000000003107202501082025            000000000000000                              000                           
0010001300127T 0601897X0000000092096 24778822500001174   700000000000117431072025000000000026349237033980000001174                0900000000000010100000000000000000000000000000000000000   000000000000000000000000004        170192477882     
0010001300128U 060000000000000000000000000000000000000000000000000000000000000000000000263490000000000263490000000000000000000000000000003107202501082025            000000000000000                              000                           
0010001300129T 0601897X0000000092096 24778822500001178   700000000000117831072025000000000026349748054040000001178                0900000000000010100000000000000000000000000000000000000   000000000000000000000000004        170192477882     
0010001300130U 060000000000000000000000000000000000000000000000000000000000000000000000263490000000000263490000000000000000000000000000003107202501082025            000000000000000                              000                           
0010001300131T 0601897X0000000092096 24778822500001182   700000000000118231072025000000000026277237004760000001182                0900000000000010100000000000000000000000000000000000000   000000000000000000000000004        170192477882     
0010001300132U 060000000000000000000000000000000000000000000000000000000000000000000000262770000000000262770000000000000000000000000000003107202501082025            000000000000000                              000                           
0010001300133T 0601897X0000000092096 24778822500001184   700000000000118431072025000000000026277033000410000001184                0900000000000010100000000000000000000000000000000000000   000000000000000000000000004        170192477882     
0010001300134U 060000000000000000000000000000000000000000000000000000000000000000000000262770000000000262770000000000000000000000000000003107202501082025            000000000000000                              000                           
0010001300135T 0601897X0000000092096 24778822500001188   700000000000118831072025000000000026130001004561000001188                0900000000000010040000000000000000000000000000000000000   000000000000000000000000034        170192477882     
0010001300136U 060000000000000000000000000000000000000000000000000000000000000000000000261300000000000261300000000000000000000000000000003107202501082025            000000000000000                              000                           
0010001300137T 0601897X0000000092096 24778822500001194   700000000000119431072025000000000025966341000410000001194                0900000000000010100000000000000000000000000000000000000   000000000000000000000000004        170192477882     
0010001300138U 060000000000000000000000000000000000000000000000000000000000000000000000259660000000000259660000000000000000000000000000003107202501082025            000000000000000                              000                           
0010001300139T 0601897X0000000092096 24778822500001196   700000000000119631072025000000000025910033002370000001196                0900000000000010100000000000000000000000000000000000000   000000000000000000000000004        170192477882     
0010001300140U 060000000000000000000000000000000000000000000000000000000000000000000000259100000000000259100000000000000000000000000000003107202501082025            000000000000000                              000                           
0010001300141T 0601897X0000000092096 24778822500001202   700000000000120231072025000000000025666001005789000001202                0900000000000010040000000000000000000000000000000000000   000000000000000000000000034        170192477882     
0010001300142U 060000000000000000000000000000000000000000000000000000000000000000000000256660000000000256660000000000000000000000000000003107202501082025            000000000000000                              000                           
0010001300143T 0601897X0000000092096 24778822500001204   700000000000120431072025000000000025646237006360000001204                0900000000000010100000000000000000000000000000000000000   000000000000000000000000004        170192477882     
0010001300144U 060000000000000000000000000000000000000000000000000000000000000000000000256460000000000256460000000000000000000000000000003107202501082025            000000000000000                              000                           
0010001300145T 0601897X0000000092096 24778822500001208   700000000000120831072025000000000025617341001360000001208                0900000000000010100000000000000000000000000000000000000   000000000000000000000000004        170192477882     
0010001300146U 060000000000000000000000000000000000000000000000000000000000000000000000256170000000000256170000000000000000000000000000003107202501082025            000000000000000                              000                           
0010001300147T 0601897X0000000092096 24778822500001212   700000000000121231072025000000000025604509000010000001212                0900000000000010100000000000000000000000000000000000000   000000000000000000000000004        170192477882     
0010001300148U 060000000000000000000000000000000000000000000000000000000000000000000000256040000000000256040000000000000000000000000000003107202501082025            000000000000000                              000                           
0010001300149T 0601897X0000000092096 24778822500001214   700000000000121431072025000000000025555001024279000001214                0900000000000010060000000000000000000000000000000000000   000000000000000000000000033        170192477882     
0010001300150U 060000000000000000000000000000000000000000000000000000000000000000000000255550000000000255550000000000000000000000000000003107202501082025            000000000000000                              000                           
0010001300151T 0601897X0000000092096 24778822500001218   700000000000121831072025000000000025531237033890000001218                0900000000000010100000000000000000000000000000000000000   000000000000000000000000004        170192477882     
0010001300152U 060000000000000000000000000000000000000000000000000000000000000000000000255310000000000255310000000000000000000000000000003107202501082025            000000000000000                              000                           
0010001300153T 0601897X0000000092096 24778822500001220   700000000000122031072025000000000025471033002100000001220                0900000000000010100000000000000000000000000000000000000   000000000000000000000000004        170192477882     
0010001300154U 060000000000000000000000000000000000000000000000000000000000000000000000254710000000000254710000000000000000000000000000003107202501082025            000000000000000                              000                           
0010001300155T 0601897X0000000092096 24778822500001222   700000000000122231072025000000000025413341018280000001222                0900000000000010100000000000000000000000000000000000000   000000000000000000000000004        170192477882     
0010001300156U 060000000000000000000000000000000000000000000000000000000000000000000000254130000000000254130000000000000000000000000000003107202501082025            000000000000000                              000                           
0010001300157T 0601897X0000000092096 24778822500001224   700000000000122431072025000000000025302001033626000001224                0900000000000010040000000000000000000000000000000000000   000000000000000000000000034        170192477882     
0010001300158U 060000000000000000000000000000000000000000000000000000000000000000000000253020000000000253020000000000000000000000000000003107202501082025            000000000000000                              000                           
0010001300159T 0601897X0000000092096 24778822500001226   700000000000122631072025000000000025276033001830000001226                0900000000000010100000000000000000000000000000000000000   000000000000000000000000004        170192477882     
0010001300160U 060000000000000000000000000000000000000000000000000000000000000000000000252760000000000252760000000000000000000000000000003107202501082025            000000000000000                              000                           
0010001300161T 0601897X0000000092096 24778822500001230   700000000000123031072025000000000025158341000300000001230                0900000000000010100000000000000000000000000000000000000   000000000000000000000000004        170192477882     
0010001300162U 060000000000000000000000000000000000000000000000000000000000000000000000251580000000000251580000000000000000000000000000003107202501082025            000000000000000                              000                           
0010001300163T 0601897X0000000092096 24778822500001236   700000000000123631072025000000000025083748050300000001236                0900000000000010100000000000000000000000000000000000000   000000000000000000000000004        170192477882     
0010001300164U 060000000000000000000000000000000000000000000000000000000000000000000000250830000000000250830000000000000000000000000000003107202501082025            000000000000000                              000                           
0010001300165T 0601897X0000000092096 24778822500001250   700000000000125031072025000000000024886237003930000001250                0900000000000010100000000000000000000000000000000000000   000000000000000000000000004        170192477882     
0010001300166U 060000000000000000000000000000000000000000000000000000000000000000000000248860000000000248860000000000000000000000000000003107202501082025            000000000000000                              000                           
0010001300167T 0601897X0000000092096 24778822500001256   700000000000125631072025000000000024702341015860000001256                0900000000000010100000000000000000000000000000000000000   000000000000000000000000004        170192477882     
0010001300168U 060000000000000000000000000000000000000000000000000000000000000000000000247020000000000247020000000000000000000000000000003107202501082025            000000000000000                              000                           
0010001300169T 0601897X0000000092096 24778822500001258   700000000000125831072025000000000024646756072790000001258                0900000000000010100000000000000000000000000000000000000   000000000000000000000000004        170192477882     
0010001300170U 060000000000000000000000000000000000000000000000000000000000000000000000246460000000000246460000000000000000000000000000003107202501082025            000000000000000                              000                           
0010001300171T 0601897X0000000092096 24778822500001264   700000000000126431072025000000000024466341002790000001264                0900000000000010100000000000000000000000000000000000000   000000000000000000000000004        170192477882     
0010001300172U 060000000000000000000000000000000000000000000000000000000000000000000000244660000000000244660000000000000000000000000000003107202501082025            000000000000000                              000                           
0010001300173T 0601897X0000000092096 24778822500001270   700000000000127031072025000000000024154509000010000001270                0900000000000010100000000000000000000000000000000000000   000000000000000000000000004        170192477882     
0010001300174U 060000000000000000000000000000000000000000000000000000000000000000000000241540000000000241540000000000000000000000000000003107202501082025            000000000000000                              000                           
0010001300175T 0601897X0000000092096 24778822500001274   700000000000127431072025000000000024151756010290000001274                0900000000000010100000000000000000000000000000000000000   000000000000000000000000004        170192477882     
0010001300176U 060000000000000000000000000000000000000000000000000000000000000000000000241510000000000241510000000000000000000000000000003107202501082025            000000000000000                              000                           
0010001300177T 0601897X0000000092096 24778822500001280   700000000000128031072025000000000024088341001480000001280                0900000000000010100000000000000000000000000000000000000   000000000000000000000000004        170192477882     
0010001300178U 060000000000000000000000000000000000000000000000000000000000000000000000240880000000000240880000000000000000000000000000003107202501082025            000000000000000                              000                           
0010001300179T 0601897X0000000092096 24778822500001286   700000000000128631072025000000000023892237000460000001286                0900000000000010100000000000000000000000000000000000000   000000000000000000000000004        170192477882     
0010001300180U 060000000000000000000000000000000000000000000000000000000000000000000000238920000000000238920000000000000000000000000000003107202501082025            000000000000000                              000                           
0010001300181T 0601897X0000000092096 24778822500001292   700000000000129231072025000000000023775748053590000001292                0900000000000010100000000000000000000000000000000000000   000000000000000000000000004        170192477882     
0010001300182U 060000000000000000000000000000000000000000000000000000000000000000000000237750000000000237750000000000000000000000000000003107202501082025            000000000000000                              000                           
0010001300183T 0601897X0000000092096 24778822500001294   700000000000129431072025000000000023769001041467000001294                0900000000000010040000000000000000000000000000000000000   000000000000000000000000034        170192477882     
0010001300184U 060000000000000000000000000000000000000000000000000000000000000000000000237690000000000237690000000000000000000000000000003107202501082025            000000000000000                              000                           
0010001300185T 0601897X0000000092096 24778822500001296   700000000000129631072025000000000023710756032560000001296                0900000000000010100000000000000000000000000000000000000   000000000000000000000000004        170192477882     
0010001300186U 060000000000000000000000000000000000000000000000000000000000000000000000237100000000000237100000000000000000000000000000003107202501082025            000000000000000                              000                           
0010001300187T 0601897X0000000092096 24778822500001298   700000000000129831072025000000000023636341006440000001298                0900000000000010100000000000000000000000000000000000000   000000000000000000000000004        170192477882     
0010001300188U 060000000000000000000000000000000000000000000000000000000000000000000000236360000000000236360000000000000000000000000000003107202501082025            000000000000000                              000                           
0010001300189T 0601897X0000000092096 24778822500001300   700000000000130031072025000000000023532341000540000001300                0900000000000010100000000000000000000000000000000000000   000000000000000000000000004        170192477882     
0010001300190U 060000000000000000000000000000000000000000000000000000000000000000000000235320000000000235320000000000000000000000000000003107202501082025            000000000000000                              000                           
0010001300191T 0601897X0000000092096 24778822500001304   700000000000130431072025000000000023435341007570000001304                0900000000000010100000000000000000000000000000000000000   000000000000000000000000004        170192477882     
0010001300192U 060000000000000000000000000000000000000000000000000000000000000000000000234350000000000234350000000000000000000000000000003107202501082025            000000000000000                              000                           
0010001300193T 0601897X0000000092096 24778822500001312   700000000000131231072025000000000023335341010260000001312                0900000000000010100000000000000000000000000000000000000   000000000000000000000000004        170192477882     
0010001300194U 060000000000000000000000000000000000000000000000000000000000000000000000233350000000000233350000000000000000000000000000003107202501082025            000000000000000                              000                           
0010001300195T 0601897X0000000092096 24778822500001314   700000000000131431072025000000000023311001066249000001314                0900000000000010040000000000000000000000000000000000000   000000000000000000000000034        170192477882     
0010001300196U 060000000000000000000000000000000000000000000000000000000000000000000000233110000000000233110000000000000000000000000000003107202501082025            000000000000000                              000                           
0010001300197T 0601897X0000000092096 24778822500001318   700000000000131831072025000000000023101422000100000001318                0900000000000010100000000000000000000000000000000000000   000000000000000000000000004        170192477882     
0010001300198U 060000000000000000000000000000000000000000000000000000000000000000000000231010000000000231010000000000000000000000000000003107202501082025            000000000000000                              000                           
0010001300199T 0601897X0000000092096 24778822500001320   700000000000132031072025000000000023029341006700000001320                0900000000000010100000000000000000000000000000000000000   000000000000000000000000004        170192477882     
0010001300200U 060000000000000000000000000000000000000000000000000000000000000000000000230290000000000230290000000000000000000000000000003107202501082025            000000000000000                              000                           
0010001300201T 0601897X0000000092096 24778822500001322   700000000000132231072025000000000023006237024310000001322                0900000000000010100000000000000000000000000000000000000   000000000000000000000000004        170192477882     
0010001300202U 060000000000000000000000000000000000000000000000000000000000000000000000230060000000000230060000000000000000000000000000003107202501082025            000000000000000                              000                           
0010001300203T 0601897X0000000092096 24778822500001326   700000000000132631072025000000000022953033001830000001326                0900000000000010100000000000000000000000000000000000000   000000000000000000000000004        170192477882     
0010001300204U 060000000000000000000000000000000000000000000000000000000000000000000000229530000000000229530000000000000000000000000000003107202501082025            000000000000000                              000                           
0010001300205T 0601897X0000000092096 24778822500001328   700000000000132831072025000000000022908341000120000001328                0900000000000010100000000000000000000000000000000000000   000000000000000000000000004        170192477882     
0010001300206U 060000000000000000000000000000000000000000000000000000000000000000000000229080000000000229080000000000000000000000000000003107202501082025            000000000000000                              000                           
0010001300207T 0601897X0000000092096 24778822500001332   700000000000133231072025000000000022740274000010000001332                0900000000000010100000000000000000000000000000000000000   000000000000000000000000004        170192477882     
0010001300208U 060000000000000000000000000000000000000000000000000000000000000000000000227400000000000227400000000000000000000000000000003107202501082025            000000000000000                              000                           
0010001300209T 0601897X0000000092096 24778822500001336   700000000000133631072025000000000022660033009530000001336                0900000000000010100000000000000000000000000000000000000   000000000000000000000000004        170192477882     
0010001300210U 060000000000000000000000000000000000000000000000000000000000000000000000226600000000000226600000000000000000000000000000003107202501082025            000000000000000                              000                           
0010001300211T 0601897X0000000092096 24778822500001342   700000000000134231072025000000000022322341000550000001342                0900000000000010100000000000000000000000000000000000000   000000000000000000000000004        170192477882     
0010001300212U 060000000000000000000000000000000000000000000000000000000000000000000000223220000000000223220000000000000000000000000000003107202501082025            000000000000000                              000                           
0010001300213T 0601897X0000000092096 24778822500001352   700000000000135231072025000000000022019341064230000001352                0900000000000010100000000000000000000000000000000000000   000000000000000000000000004        170192477882     
0010001300214U 060000000000000000000000000000000000000000000000000000000000000000000000220190000000000220190000000000000000000000000000003107202501082025            000000000000000                              000                           
0010001300215T 0601897X0000000092096 24778822500001370   700000000000137031072025000000000021957341000300000001370                0900000000000010100000000000000000000000000000000000000   000000000000000000000000004        170192477882     
0010001300216U 060000000000000000000000000000000000000000000000000000000000000000000000219570000000000219570000000000000000000000000000003107202501082025            000000000000000                              000                           
0010001300217T 0601897X0000000092096 24778822500001378   700000000000137831072025000000000021957748050300000001378                0900000000000010100000000000000000000000000000000000000   000000000000000000000000004        170192477882     
0010001300218U 060000000000000000000000000000000000000000000000000000000000000000000000219570000000000219570000000000000000000000000000003107202501082025            000000000000000                              000                           
0010001300219T 0601897X0000000092096 24778822500001384   700000000000138431072025000000000021957341048280000001384                0900000000000010100000000000000000000000000000000000000   000000000000000000000000004        170192477882     
0010001300220U 060000000000000000000000000000000000000000000000000000000000000000000000219570000000000219570000000000000000000000000000003107202501082025            000000000000000                              000                           
0010001300221T 0601897X0000000092096 24778822500001388   700000000000138831072025000000000021957237004800000001388                0900000000000010100000000000000000000000000000000000000   000000000000000000000000004        170192477882     
0010001300222U 060000000000000000000000000000000000000000000000000000000000000000000000219570000000000219570000000000000000000000000000003107202501082025            000000000000000                              000                           
0010001300223T 0601897X0000000092096 24778822500001390   700000000000139031072025000000000021957001009903000001390                0900000000000010040000000000000000000000000000000000000   000000000000000000000000034        170192477882     
0010001300224U 060000000000000000000000000000000000000000000000000000000000000000000000219570000000000219570000000000000000000000000000003107202501082025            000000000000000                              000                           
0010001300225T 0601897X0000000092096 24778822500001406   700000000000140631072025000000000021957237033670000001406                0900000000000010100000000000000000000000000000000000000   000000000000000000000000004        170192477882     
0010001300226U 060000000000000000000000000000000000000000000000000000000000000000000000219570000000000219570000000000000000000000000000003107202501082025            000000000000000                              000                           
0010001300227T 0601897X0000000092096 24778822500001408   700000000000140831072025000000000021957341064170000001408                0900000000000010100000000000000000000000000000000000000   000000000000000000000000004        170192477882     
0010001300228U 060000000000000000000000000000000000000000000000000000000000000000000000219570000000000219570000000000000000000000000000003107202501082025            000000000000000                              000                           
0010001300229T 0601897X0000000092096 24778822500001410   700000000000141031072025000000000021957237023740000001410                0900000000000010100000000000000000000000000000000000000   000000000000000000000000004        170192477882     
0010001300230U 060000000000000000000000000000000000000000000000000000000000000000000000219570000000000219570000000000000000000000000000003107202501082025            000000000000000                              000                           
0010001300231T 0601897X0000000092096 24778822500001434   700000000000143431072025000000000021577341007310000001434                0900000000000010100000000000000000000000000000000000000   000000000000000000000000004        170192477882     
0010001300232U 060000000000000000000000000000000000000000000000000000000000000000000000215770000000000215770000000000000000000000000000003107202501082025            000000000000000                              000                           
0010001300233T 0601897X0000000092096 24778822500001440   700000000000144031072025000000000021454001066249000001440                0900000000000010060000000000000000000000000000000000000   000000000000000000000000033        170192477882     
0010001300234U 060000000000000000000000000000000000000000000000000000000000000000000000214540000000000214540000000000000000000000000000003107202501082025            000000000000000                              000                           
0010001300235T 0601897X0000000092096 24778822500001452   70000000000014523107202500000000002127700101897X000001452                0900000000000010090000000000000000000000000000000000000   000000000000000000000000006        170192477882     
0010001300236U 060000000000000000000000000000000000000000000000000000000000000000000000212770000000000212770000000000000000000000000000003107202501082025            000000000000000                              000                           
0010001300237T 0601897X0000000092096 24778822500001454   700000000000145431072025000000000021241237002150000001454                0900000000000010100000000000000000000000000000000000000   000000000000000000000000004        170192477882     
0010001300238U 060000000000000000000000000000000000000000000000000000000000000000000000212410000000000212410000000000000000000000000000003107202501082025            000000000000000                              000                           
0010001300239T 0601897X0000000092096 24778822500001462   700000000000146231072025000000000021200001033626000001462                0900000000000010040000000000000000000000000000000000000   000000000000000000000000034        170192477882     
0010001300240U 060000000000000000000000000000000000000000000000000000000000000000000000212000000000000212000000000000000000000000000000003107202501082025            000000000000000                              000                           
0010001300241T 0601897X0000000092096 24778822500001474   700000000000147431072025000000000020860237008920000001474                0900000000000010100000000000000000000000000000000000000   000000000000000000000000004        170192477882     
0010001300242U 060000000000000000000000000000000000000000000000000000000000000000000000208600000000000208600000000000000000000000000000003107202501082025            000000000000000                              000                           
0010001300243T 0601897X0000000092096 24778822500001478   700000000000147831072025000000000020829077000010000001478                0900000000000010100000000000000000000000000000000000000   000000000000000000000000004        170192477882     
0010001300244U 060000000000000000000000000000000000000000000000000000000000000000000000208290000000000208290000000000000000000000000000003107202501082025            000000000000000                              000                           
0010001300245T 0601897X0000000092096 24778822500001484   700000000000148431072025000000000020711033001780000001484                0900000000000010100000000000000000000000000000000000000   000000000000000000000000004        170192477882     
0010001300246U 060000000000000000000000000000000000000000000000000000000000000000000000207110000000000207110000000000000000000000000000003107202501082025            000000000000000                              000                           
0010001300247T 0601897X0000000092096 24778822500001486   700000000000148631072025000000000020711237002150000001486                0900000000000010100000000000000000000000000000000000000   000000000000000000000000004        170192477882     
0010001300248U 060000000000000000000000000000000000000000000000000000000000000000000000207110000000000207110000000000000000000000000000003107202501082025            000000000000000                              000                           
0010001300249T 0601897X0000000092096 24778822500001504   700000000000150431072025000000000020474341069310000001504                0900000000000010100000000000000000000000000000000000000   000000000000000000000000004        170192477882     
0010001300250U 060000000000000000000000000000000000000000000000000000000000000000000000204740000000000204740000000000000000000000000000003107202501082025            000000000000000                              000                           
0010001300251T 0601897X0000000092096 24778822500001514   700000000000151431072025000000000020297001030813000001514                0900000000000010060000000000000000000000000000000000000   000000000000000000000000033        170192477882     
0010001300252U 060000000000000000000000000000000000000000000000000000000000000000000000202970000000000202970000000000000000000000000000003107202501082025            000000000000000                              000                           
0010001300253T 0601897X0000000092096 24778822500001516   700000000000151631072025000000000020280748052890000001516                0900000000000010100000000000000000000000000000000000000   000000000000000000000000004        170192477882     
0010001300254U 060000000000000000000000000000000000000000000000000000000000000000000000202800000000000202800000000000000000000000000000003107202501082025            000000000000000                              000                           
0010001300255T 0601897X0000000092096 24778822500001522   700000000000152231072025000000000020128341000570000001522                0900000000000010100000000000000000000000000000000000000   000000000000000000000000004        170192477882     
0010001300256U 060000000000000000000000000000000000000000000000000000000000000000000000201280000000000201280000000000000000000000000000003107202501082025            000000000000000                              000                           
0010001300257T 0601897X0000000092096 24778822500001524   700000000000152431072025000000000020066341002790000001524                0900000000000010100000000000000000000000000000000000000   000000000000000000000000004        170192477882     
0010001300258U 060000000000000000000000000000000000000000000000000000000000000000000000200660000000000200660000000000000000000000000000003107202501082025            000000000000000                              000                           
0010001300259T 0601897X0000000092096 24778822500001526   700000000000152631072025000000000026598341000540000001526                0900000000000010100000000000000000000000000000000000000   000000000000000000000000004        170192477882     
0010001300260U 060000000000000000000000000000000000000000000000000000000000000000000000265980000000000265980000000000000000000000000000003107202501082025            000000000000000                              000                           
0010001300261T 0601897X0000000092096 24778822500001532   700000000000153231072025000000000026423001030813000001532                0900000000000010040000000000000000000000000000000000000   000000000000000000000000034        170192477882     
0010001300262U 060000000000000000000000000000000000000000000000000000000000000000000000264230000000000264230000000000000000000000000000003107202501082025            000000000000000                              000                           
0010001300263T 0601897X0000000092096 24778822500001541   700000000000154131072025000000000026180341001360000001541                0900000000000010100000000000000000000000000000000000000   000000000000000000000000004        170192477882     
0010001300264U 060000000000000000000000000000000000000000000000000000000000000000000000261800000000000261800000000000000000000000000000003107202501082025            000000000000000                              000                           
0010001300265T 0601897X0000000092096 24778822500001544   700000000000154431072025000000000026043033005450000001544                0900000000000010100000000000000000000000000000000000000   000000000000000000000000004        170192477882     
0010001300266U 060000000000000000000000000000000000000000000000000000000000000000000000260430000000000260430000000000000000000000000000003107202501082025            000000000000000                              000                           
0010001300267T 0601897X0000000092096 24778822500001562   700000000000156231072025000000000025695341000190000001562                0900000000000010100000000000000000000000000000000000000   000000000000000000000000004        170192477882     
0010001300268U 060000000000000000000000000000000000000000000000000000000000000000000000256950000000000256950000000000000000000000000000003107202501082025            000000000000000                              000                           
0010001300269T 0601897X0000000092096 24778822500001571   700000000000157131072025000000000025529237023720000001571                0900000000000010100000000000000000000000000000000000000   000000000000000000000000004        170192477882     
0010001300270U 060000000000000000000000000000000000000000000000000000000000000000000000255290000000000255290000000000000000000000000000003107202501082025            000000000000000                              000                           
0010001300271T 0601897X0000000092096 24778822500001577   700000000000157731072025000000000025423341029480000001577                0900000000000010100000000000000000000000000000000000000   000000000000000000000000004        170192477882     
0010001300272U 060000000000000000000000000000000000000000000000000000000000000000000000254230000000000254230000000000000000000000000000003107202501082025            000000000000000                              000                           
0010001300273T 0601897X0000000092096 24778822500001583   700000000000158331072025000000000025373341078900000001583                0900000000000010100000000000000000000000000000000000000   000000000000000000000000004        170192477882     
0010001300274U 060000000000000000000000000000000000000000000000000000000000000000000000253730000000000253730000000000000000000000000000003107202501082025            000000000000000                              000                           
0010001300275T 0601897X0000000092096 24778822500001589   700000000000158931072025000000000025088341009100000001589                0900000000000010100000000000000000000000000000000000000   000000000000000000000000004        170192477882     
0010001300276U 060000000000000000000000000000000000000000000000000000000000000000000000250880000000000250880000000000000000000000000000003107202501082025            000000000000000                              000                           
0010001300277T 0601897X0000000092096 24778822500001601   700000000000160131072025000000000024885341002790000001601                0900000000000010100000000000000000000000000000000000000   000000000000000000000000004        170192477882     
0010001300278U 060000000000000000000000000000000000000000000000000000000000000000000000248850000000000248850000000000000000000000000000003107202501082025            000000000000000                              000                           
0010001300279T 0601897X0000000092096 24778822500001610   700000000000161031072025000000000024679001024279000001610                0900000000000010040000000000000000000000000000000000000   000000000000000000000000034        170192477882     
0010001300280U 060000000000000000000000000000000000000000000000000000000000000000000000246790000000000246790000000000000000000000000000003107202501082025            000000000000000                              000                           
0010001300281T 0601897X0000000092096 24778822500001628   700000000000162831072025000000000024397341054410000001628                0900000000000010100000000000000000000000000000000000000   000000000000000000000000004        170192477882     
0010001300282U 060000000000000000000000000000000000000000000000000000000000000000000000243970000000000243970000000000000000000000000000003107202501082025            000000000000000                              000                           
0010001300283T 0601897X0000000092096 24778822500001643   700000000000164331072025000000000024397450000010000001643                0900000000000010100000000000000000000000000000000000000   000000000000000000000000004        170192477882     
0010001300284U 060000000000000000000000000000000000000000000000000000000000000000000000243970000000000243970000000000000000000000000000003107202501082025            000000000000000                              000                           
0010001300285T 0601897X0000000092096 24778822500001652   700000000000165231072025000000000024397237023740000001652                0900000000000010100000000000000000000000000000000000000   000000000000000000000000004        170192477882     
0010001300286U 060000000000000000000000000000000000000000000000000000000000000000000000243970000000000243970000000000000000000000000000003107202501082025            000000000000000                              000                           
0010001300287T 0601897X0000000092096 24778822500001655   700000000000165531072025000000000024397341009100000001655                0900000000000010100000000000000000000000000000000000000   000000000000000000000000004        170192477882     
0010001300288U 060000000000000000000000000000000000000000000000000000000000000000000000243970000000000243970000000000000000000000000000003107202501082025            000000000000000                              000                           
0010001300289T 0601897X0000000092096 24778822500001670   700000000000167031072025000000000024397033002460000001670                0900000000000010100000000000000000000000000000000000000   000000000000000000000000004        170192477882     
0010001300290U 060000000000000000000000000000000000000000000000000000000000000000000000243970000000000243970000000000000000000000000000003107202501082025            000000000000000                              000                           
0010001300291T 0601897X0000000092096 24778822500001679   700000000000167931072025000000000024314341000330000001679                0900000000000010100000000000000000000000000000000000000   000000000000000000000000004        170192477882     
0010001300292U 060000000000000000000000000000000000000000000000000000000000000000000000243140000000000243140000000000000000000000000000003107202501082025            000000000000000                              000                           
0010001300293T 0601897X0000000092096 24778822500001685   700000000000168531072025000000000024159341001360000001685                0900000000000010100000000000000000000000000000000000000   000000000000000000000000004        170192477882     
0010001300294U 060000000000000000000000000000000000000000000000000000000000000000000000241590000000000241590000000000000000000000000000003107202501082025            000000000000000                              000                           
0010001300295T 0601897X0000000092096 24778822500001688   700000000000168831072025000000000024075341056640000001688                0900000000000010100000000000000000000000000000000000000   000000000000000000000000004        170192477882     
0010001300296U 060000000000000000000000000000000000000000000000000000000000000000000000240750000000000240750000000000000000000000000000003107202501082025            000000000000000                              000                           
0010001300297T 0601897X0000000092096 24778822500001691   700000000000169131072025000000000024056341048970000001691                0900000000000010100000000000000000000000000000000000000   000000000000000000000000004        170192477882     
0010001300298U 060000000000000000000000000000000000000000000000000000000000000000000000240560000000000240560000000000000000000000000000003107202501082025            000000000000000                              000                           
0010001300299T 0601897X0000000092096 24778822500001694   700000000000169431072025000000000024030033038080000001694                0900000000000010100000000000000000000000000000000000000   000000000000000000000000004        170192477882     
0010001300300U 060000000000000000000000000000000000000000000000000000000000000000000000240300000000000240300000000000000000000000000000003107202501082025            000000000000000                              000                           
0010001300301T 0601897X0000000092096 24778822500001703   700000000000170331072025000000000023943237014790000001703                0900000000000010100000000000000000000000000000000000000   000000000000000000000000004        170192477882     
0010001300302U 060000000000000000000000000000000000000000000000000000000000000000000000239430000000000239430000000000000000000000000000003107202501082025            000000000000000                              000                           
0010001300303T 0601897X0000000092096 24778822500001715   700000000000171531072025000000000023818237003060000001715                0900000000000010100000000000000000000000000000000000000   000000000000000000000000004        170192477882     
0010001300304U 060000000000000000000000000000000000000000000000000000000000000000000000238180000000000238180000000000000000000000000000003107202501082025            000000000000000                              000                           
0010001300305T 0601897X0000000092096 24778822500001721   700000000000172131072025000000000023774341026330000001721                0900000000000010100000000000000000000000000000000000000   000000000000000000000000004        170192477882     
0010001300306U 060000000000000000000000000000000000000000000000000000000000000000000000237740000000000237740000000000000000000000000000003107202501082025            000000000000000                              000                           
0010001300307T 0601897X0000000092096 24778822500001724   700000000000172431072025000000000023711001026565000001724                0900000000000010060000000000000000000000000000000000000   000000000000000000000000033        170192477882     
0010001300308U 060000000000000000000000000000000000000000000000000000000000000000000000237110000000000237110000000000000000000000000000003107202501082025            000000000000000                              000                           
0010001300309T 0601897X0000000092096 24778822500001733   700000000000173331072025000000000023463341002770000001733                0900000000000010100000000000000000000000000000000000000   000000000000000000000000004        170192477882     
0010001300310U 060000000000000000000000000000000000000000000000000000000000000000000000234630000000000234630000000000000000000000000000003107202501082025            000000000000000                              000                           
0010001300311T 0601897X0000000092096 24778822500001739   700000000000173931072025000000000023421341005460000001739                0900000000000010100000000000000000000000000000000000000   000000000000000000000000004        170192477882     
0010001300312U 060000000000000000000000000000000000000000000000000000000000000000000000234210000000000234210000000000000000000000000000003107202501082025            000000000000000                              000                           
0010001300313T 0601897X0000000092096 24778822500001742   700000000000174231072025000000000023421341002790000001742                0900000000000010100000000000000000000000000000000000000   000000000000000000000000004        170192477882     
0010001300314U 060000000000000000000000000000000000000000000000000000000000000000000000234210000000000234210000000000000000000000000000003107202501082025            000000000000000                              000                           
0010001300315T 0601897X0000000092096 24778822500001763   700000000000176331072025000000000023161341045360000001763                0900000000000010100000000000000000000000000000000000000   000000000000000000000000004        170192477882     
0010001300316U 060000000000000000000000000000000000000000000000000000000000000000000000231610000000000231610000000000000000000000000000003107202501082025            000000000000000                              000                           
0010001300317T 0601897X0000000092096 24778822500001766   700000000000176631072025000000000023157341026900000001766                0900000000000010100000000000000000000000000000000000000   000000000000000000000000004        170192477882     
0010001300318U 060000000000000000000000000000000000000000000000000000000000000000000000231570000000000231570000000000000000000000000000003107202501082025            000000000000000                              000                           
0010001300319T 0601897X0000000092096 24778822500001772   700000000000177231072025000000000023148237023720000001772                0900000000000010100000000000000000000000000000000000000   000000000000000000000000004        170192477882     
0010001300320U 060000000000000000000000000000000000000000000000000000000000000000000000231480000000000231480000000000000000000000000000003107202501082025            000000000000000                              000                           
0010001300321T 0601897X0000000092096 24778822500001775   700000000000177531072025000000000023093341063930000001775                0900000000000010100000000000000000000000000000000000000   000000000000000000000000004        170192477882     
0010001300322U 060000000000000000000000000000000000000000000000000000000000000000000000230930000000000230930000000000000000000000000000003107202501082025            000000000000000                              000                           
0010001300323T 0601897X0000000092096 24778822500001790   700000000000179031072025000000000022915341002370000001790                0900000000000010100000000000000000000000000000000000000   000000000000000000000000004        170192477882     
0010001300324U 060000000000000000000000000000000000000000000000000000000000000000000000229150000000000229150000000000000000000000000000003107202501082025            000000000000000                              000                           
0010001300325T 0601897X0000000092096 24778822500001793   700000000000179331072025000000000022819237033720000001793                0900000000000010100000000000000000000000000000000000000   000000000000000000000000004        170192477882     
0010001300326U 060000000000000000000000000000000000000000000000000000000000000000000000228190000000000228190000000000000000000000000000003107202501082025            000000000000000                              000                           
0010001300327T 0601897X0000000092096 24778822500001796   700000000000179631072025000000000022746341001370000001796                0900000000000010100000000000000000000000000000000000000   000000000000000000000000004        170192477882     
0010001300328U 060000000000000000000000000000000000000000000000000000000000000000000000227460000000000227460000000000000000000000000000003107202501082025            000000000000000                              000                           
0010001300329T 0601897X0000000092096 24778822500001802   700000000000180231072025000000000022660341026900000001802                0900000000000010100000000000000000000000000000000000000   000000000000000000000000004        170192477882     
0010001300330U 060000000000000000000000000000000000000000000000000000000000000000000000226600000000000226600000000000000000000000000000003107202501082025            000000000000000                              000                           
0010001300331T 0601897X0000000092096 24778822500001814   700000000000181431072025000000000022546341037850000001814                0900000000000010100000000000000000000000000000000000000   000000000000000000000000004        170192477882     
0010001300332U 060000000000000000000000000000000000000000000000000000000000000000000000225460000000000225460000000000000000000000000000003107202501082025            000000000000000                              000                           
0010001300333T 0601897X0000000092096 24778822500001817   700000000000181731072025000000000022543341000570000001817                0900000000000010100000000000000000000000000000000000000   000000000000000000000000004        170192477882     
0010001300334U 060000000000000000000000000000000000000000000000000000000000000000000000225430000000000225430000000000000000000000000000003107202501082025            000000000000000                              000                           
0010001300335T 0601897X0000000092096 24778822500001823   700000000000182331072025000000000022397033042770000001823                0900000000000010100000000000000000000000000000000000000   000000000000000000000000004        170192477882     
0010001300336U 060000000000000000000000000000000000000000000000000000000000000000000000223970000000000223970000000000000000000000000000003107202501082025            000000000000000                              000                           
0010001300337T 0601897X0000000092096 24778822500001826   700000000000182631072025000000000022268341000410000001826                0900000000000010100000000000000000000000000000000000000   000000000000000000000000004        170192477882     
0010001300338U 060000000000000000000000000000000000000000000000000000000000000000000000222680000000000222680000000000000000000000000000003107202501082025            000000000000000                              000                           
0010001300339T 0601897X0000000092096 24778822500001832   700000000000183231072025000000000022185341000260000001832                0900000000000010100000000000000000000000000000000000000   000000000000000000000000004        170192477882     
0010001300340U 060000000000000000000000000000000000000000000000000000000000000000000000221850000000000221850000000000000000000000000000003107202501082025            000000000000000                              000                           
0010001300341T 0601897X0000000092096 24778822500001844   700000000000184431072025000000000021980341007960000001844                0900000000000010100000000000000000000000000000000000000   000000000000000000000000004        170192477882     
0010001300342U 060000000000000000000000000000000000000000000000000000000000000000000000219800000000000219800000000000000000000000000000003107202501082025            000000000000000                              000                           
0010001300343T 0601897X0000000092096 24778822500001856   700000000000185631072025000000000021958748050300000001856                0900000000000010100000000000000000000000000000000000000   000000000000000000000000004        170192477882     
0010001300344U 060000000000000000000000000000000000000000000000000000000000000000000000219580000000000219580000000000000000000000000000003107202501082025            000000000000000                              000                           
0010001300345T 0601897X0000000092096 24778822500001859   700000000000185931072025000000000021958033038610000001859                0900000000000010100000000000000000000000000000000000000   000000000000000000000000004        170192477882     
0010001300346U 060000000000000000000000000000000000000000000000000000000000000000000000219580000000000219580000000000000000000000000000003107202501082025            000000000000000                              000                           
0010001300347T 0601897X0000000092096 24778822500001871   700000000000187131072025000000000021958509000010000001871                0900000000000010100000000000000000000000000000000000000   000000000000000000000000004        170192477882     
0010001300348U 060000000000000000000000000000000000000000000000000000000000000000000000219580000000000219580000000000000000000000000000003107202501082025            000000000000000                              000                           
0010001300349T 0601897X0000000092096 24778822500001886   700000000000188631072025000000000021847237005200000001886                0900000000000010100000000000000000000000000000000000000   000000000000000000000000004        170192477882     
0010001300350U 060000000000000000000000000000000000000000000000000000000000000000000000218470000000000218470000000000000000000000000000003107202501082025            000000000000000                              000                           
0010001300351T 0601897X0000000092096 24778822500001889   700000000000188931072025000000000021778341000190000001889                0900000000000010100000000000000000000000000000000000000   000000000000000000000000004        170192477882     
0010001300352U 060000000000000000000000000000000000000000000000000000000000000000000000217780000000000217780000000000000000000000000000003107202501082025            000000000000000                              000                           
0010001300353T 0601897X0000000092096 24778822500001892   700000000000189231072025000000000021751509000010000001892                0900000000000010100000000000000000000000000000000000000   000000000000000000000000004        170192477882     
0010001300354U 060000000000000000000000000000000000000000000000000000000000000000000000217510000000000217510000000000000000000000000000003107202501082025            000000000000000                              000                           
0010001300355T 0601897X0000000092096 24778822500001904   700000000000190431072025000000000021453341009400000001904                0900000000000010100000000000000000000000000000000000000   000000000000000000000000004        170192477882     
0010001300356U 060000000000000000000000000000000000000000000000000000000000000000000000214530000000000214530000000000000000000000000000003107202501082025            000000000000000                              000                           
0010001300357T 0601897X0000000092096 24778822500001907   700000000000190731072025000000000021360001009903000001907                0900000000000010040000000000000000000000000000000000000   000000000000000000000000034        170192477882     
0010001300358U 060000000000000000000000000000000000000000000000000000000000000000000000213600000000000213600000000000000000000000000000003107202501082025            000000000000000                              000                           
0010001300359T 0601897X0000000092096 24778822500001910   700000000000191031072025000000000021321756046910000001910                0900000000000010100000000000000000000000000000000000000   000000000000000000000000004        170192477882     
0010001300360U 060000000000000000000000000000000000000000000000000000000000000000000000213210000000000213210000000000000000000000000000003107202501082025            000000000000000                              000                           
0010001300361T 0601897X0000000092096 24778822500001931   700000000000193131072025000000000021017341006700000001931                0900000000000010100000000000000000000000000000000000000   000000000000000000000000004        170192477882     
0010001300362U 060000000000000000000000000000000000000000000000000000000000000000000000210170000000000210170000000000000000000000000000003107202501082025            000000000000000                              000                           
0010001300363T 0601897X0000000092096 24778822500001934   700000000000193431072025000000000021015341006520000001934                0900000000000010100000000000000000000000000000000000000   000000000000000000000000004        170192477882     
0010001300364U 060000000000000000000000000000000000000000000000000000000000000000000000210150000000000210150000000000000000000000000000003107202501082025            000000000000000                              000                           
0010001300365T 0601897X0000000092096 24778822500001952   700000000000195231072025000000000020537341015630000001952                0900000000000010100000000000000000000000000000000000000   000000000000000000000000004        170192477882     
0010001300366U 060000000000000000000000000000000000000000000000000000000000000000000000205370000000000205370000000000000000000000000000003107202501082025            000000000000000                              000                           
0010001300367T 0601897X0000000092096 24778822500001964   700000000000196431072025000000000020341341007310000001964                0900000000000010100000000000000000000000000000000000000   000000000000000000000000004        170192477882     
0010001300368U 060000000000000000000000000000000000000000000000000000000000000000000000203410000000000203410000000000000000000000000000003107202501082025            000000000000000                              000                           
0010001300369T 0601897X0000000092096 24778822500001967   700000000000196731072025000000000020271237033910000001967                0900000000000010100000000000000000000000000000000000000   000000000000000000000000004        170192477882     
0010001300370U 060000000000000000000000000000000000000000000000000000000000000000000000202710000000000202710000000000000000000000000000003107202501082025            000000000000000                              000                           
0010001300371T 0601897X0000000092096 24778822500001969   700000000000196931072025000000000020243104007410000001969                0900000000000010100000000000000000000000000000000000000   000000000000000000000000004        170192477882     
0010001300372U 060000000000000000000000000000000000000000000000000000000000000000000000202430000000000202430000000000000000000000000000003107202501082025            000000000000000                              000                           
0010001300373T 0601897X0000000092096 24778822500001976   700000000000197631072025000000000020141341000550000001976                0900000000000010100000000000000000000000000000000000000   000000000000000000000000004        170192477882     
0010001300374U 060000000000000000000000000000000000000000000000000000000000000000000000201410000000000201410000000000000000000000000000003107202501082025            000000000000000                              000                           
0010001300375T 0601897X0000000092096 24778822500001999   700000000000199931072025000000000024885260000010000001999                0900000000000010100000000000000000000000000000000000000   000000000000000000000000004        170192477882     
0010001300376U 060000000000000000000000000000000000000000000000000000000000000000000000248850000000000248850000000000000000000000000000003107202501082025            000000000000000                              000                           
0010001300377T 0601897X0000000092096 24778822500002011   700000000000201131072025000000000024665341000500000002011                0900000000000010100000000000000000000000000000000000000   000000000000000000000000004        170192477882     
0010001300378U 060000000000000000000000000000000000000000000000000000000000000000000000246650000000000246650000000000000000000000000000003107202501082025            000000000000000                              000                           
0010001300379T 0601897X0000000092096 24778822500002019   700000000000201931072025000000000024506341001620000002019                0900000000000010100000000000000000000000000000000000000   000000000000000000000000004        170192477882     
0010001300380U 060000000000000000000000000000000000000000000000000000000000000000000000245060000000000245060000000000000000000000000000003107202501082025            000000000000000                              000                           
0010001300381T 0601897X0000000092096 24778822500002023   700000000000202331072025000000000024419341015780000002023                0900000000000010100000000000000000000000000000000000000   000000000000000000000000004        170192477882     
0010001300382U 060000000000000000000000000000000000000000000000000000000000000000000000244190000000000244190000000000000000000000000000003107202501082025            000000000000000                              000                           
0010001300383T 0601897X0000000092096 24778822500002031   700000000000203131072025000000000024113756072790000002031                0900000000000010100000000000000000000000000000000000000   000000000000000000000000004        170192477882     
0010001300384U 060000000000000000000000000000000000000000000000000000000000000000000000241130000000000241130000000000000000000000000000003107202501082025            000000000000000                              000                           
0010001300385T 0601897X0000000092096 24778822500002043   700000000000204331072025000000000023855341005590000002043                0900000000000010100000000000000000000000000000000000000   000000000000000000000000004        170192477882     
0010001300386U 060000000000000000000000000000000000000000000000000000000000000000000000238550000000000238550000000000000000000000000000003107202501082025            000000000000000                              000                           
0010001300387T 0601897X0000000092096 24778822500002047   700000000000204731072025000000000023642237033930000002047                0900000000000010100000000000000000000000000000000000000   000000000000000000000000004        170192477882     
0010001300388U 060000000000000000000000000000000000000000000000000000000000000000000000236420000000000236420000000000000000000000000000003107202501082025            000000000000000                              000                           
0010001300389T 0601897X0000000092096 24778822500002051   700000000000205131072025000000000023604341005460000002051                0900000000000010100000000000000000000000000000000000000   000000000000000000000000004        170192477882     
0010001300390U 060000000000000000000000000000000000000000000000000000000000000000000000236040000000000236040000000000000000000000000000003107202501082025            000000000000000                              000                           
0010001300391T 0601897X0000000092096 24778822500002055   700000000000205531072025000000000023589033003340000002055                0900000000000010100000000000000000000000000000000000000   000000000000000000000000004        170192477882     
0010001300392U 060000000000000000000000000000000000000000000000000000000000000000000000235890000000000235890000000000000000000000000000003107202501082025            000000000000000                              000                           
0010001300393T 0601897X0000000092096 24778822500002059   700000000000205931072025000000000023465237023880000002059                0900000000000010100000000000000000000000000000000000000   000000000000000000000000004        170192477882     
0010001300394U 060000000000000000000000000000000000000000000000000000000000000000000000234650000000000234650000000000000000000000000000003107202501082025            000000000000000                              000                           
0010001300395T 0601897X0000000092096 24778822500002071   700000000000207131072025000000000023421509000010000002071                0900000000000010100000000000000000000000000000000000000   000000000000000000000000004        170192477882     
0010001300396U 060000000000000000000000000000000000000000000000000000000000000000000000234210000000000234210000000000000000000000000000003107202501082025            000000000000000                              000                           
0010001300397T 0601897X0000000092096 24778822500002083   700000000000208331072025000000000023304237033670000002083                0900000000000010100000000000000000000000000000000000000   000000000000000000000000004        170192477882     
0010001300398U 060000000000000000000000000000000000000000000000000000000000000000000000233040000000000233040000000000000000000000000000003107202501082025            000000000000000                              000                           
0010001300399T 0601897X0000000092096 24778822500002091   700000000000209131072025000000000023187033000590000002091                0900000000000010100000000000000000000000000000000000000   000000000000000000000000004        170192477882     
0010001300400U 060000000000000000000000000000000000000000000000000000000000000000000000231870000000000231870000000000000000000000000000003107202501082025            000000000000000                              000                           
0010001300401T 0601897X0000000092096 24778822500002103   700000000000210331072025000000000023055341078830000002103                0900000000000010100000000000000000000000000000000000000   000000000000000000000000004        170192477882     
0010001300402U 060000000000000000000000000000000000000000000000000000000000000000000000230550000000000230550000000000000000000000000000003107202501082025            000000000000000                              000                           
0010001300403T 0601897X0000000092096 24778822500002115   700000000000211531072025000000000022975001051152000002115                0900000000000010090000000000000000000000000000000000000   000000000000000000000000006        170192477882     
0010001300404U 060000000000000000000000000000000000000000000000000000000000000000000000229750000000000229750000000000000000000000000000003107202501082025            000000000000000                              000                           
0010001300405T 0601897X0000000092096 24778822500002135   70000000000021353107202500000000002262900100216X000002135                0900000000000010040000000000000000000000000000000000000   000000000000000000000000034        170192477882     
0010001300406U 060000000000000000000000000000000000000000000000000000000000000000000000226290000000000226290000000000000000000000000000003107202501082025            000000000000000                              000                           
0010001300407T 0601897X0000000092096 24778822500002139   700000000000213931072025000000000022623341015780000002139                0900000000000010100000000000000000000000000000000000000   000000000000000000000000004        170192477882     
0010001300408U 060000000000000000000000000000000000000000000000000000000000000000000000226230000000000226230000000000000000000000000000003107202501082025            000000000000000                              000                           
0010001300409T 0601897X0000000092096 24778822500002183   700000000000218331072025000000000021958341018740000002183                0900000000000010100000000000000000000000000000000000000   000000000000000000000000004        170192477882     
0010001300410U 060000000000000000000000000000000000000000000000000000000000000000000000219580000000000219580000000000000000000000000000003107202501082025            000000000000000                              000                           
0010001300411T 0601897X0000000092096 24778822500002191   700000000000219131072025000000000021958341000190000002191                0900000000000010100000000000000000000000000000000000000   000000000000000000000000004        170192477882     
0010001300412U 060000000000000000000000000000000000000000000000000000000000000000000000219580000000000219580000000000000000000000000000003107202501082025            000000000000000                              000                           
