00100000         2115139610001160024778820014       01897X0000000092096 FUNDACAO AGENCIA DAS BACIAS HIBANCO DO BRASIL                         22908202501471200620303000000829973081PROCESSAMEN                                                 
00100011T0100020 20115139610001160024778820014       01897X0000000092096 FUNDACAO AGENCIA DAS BACIAS HI                                                                                000000002908202500000000  000000000                      
0010001300001T 0201897X0000000092096 24778829000008836   7000008836      30092025000000000345485001009946000008836                0900000000000010500000000000000000000000000000000000000   0000000000000000000000519A9A4      170192477882     
0010001300002U 020000000000000000000000000000000000000000000000000000000000000000000000000000000000000000000000000000000000000000000000002908202500000000            000000000000000                              000                           
0010001300003T 0201897X0000000092096 24778829000008837   7000008837      30092025000000000020998001003409000008837                0900000000000010000000000000000000000000000000000000000   0000000000000000000000519A9        170192477882     
0010001300004U 020000000000000000000000000000000000000000000000000000000000000000000000000000000000000000000000000000000000000000000000002908202500000000            000000000000000                              000                           
0010001300005T 0201897X0000000092096 24778829000008838   7000008838      31102025000000000020998001003409000008838                0900000000000010000000000000000000000000000000000000000   0000000000000000000000519A9        170192477882     
0010001300006U 020000000000000000000000000000000000000000000000000000000000000000000000000000000000000000000000000000000000000000000000002908202500000000            000000000000000                              000                           
0010001300007T 0201897X0000000092096 24778829000008839   7000008839      28112025000000000020998001003409000008839                0900000000000010000000000000000000000000000000000000000   0000000000000000000000519A9        170192477882     
0010001300008U 020000000000000000000000000000000000000000000000000000000000000000000000000000000000000000000000000000000000000000000000002908202500000000            000000000000000                              000                           
0010001300009T 0201897X0000000092096 24778829000008840   7000008840      31122025000000000020998001003409000008840                0900000000000010000000000000000000000000000000000000000   0000000000000000000000519A9        170192477882     
0010001300010U 020000000000000000000000000000000000000000000000000000000000000000000000000000000000000000000000000000000000000000000000002908202500000000            000000000000000                              000                           
0010001300011T 0601897X0000000092096 24778822500000809   700000000000080929082025000000000019629341002770000000809                0900000000000010100000000000000000000000000000000000000   000000000000000000000000004        170192477882     
0010001300012U 060000000000000000000000000000000000000000000000000000000000000000000000196290000000000196290000000000000000000000000000002908202501092025            000000000000000                              000                           
0010001300013T 0601897X0000000092096 24778822500001035   700000000000103529082025000000000029335001031437000001035                0900000000000010040000000000000000000000000000000000000   000000000000000000000000034        170192477882     
0010001300014U 060000000000000000000000000000000000000000000000000000000000000000000000293350000000000293350000000000000000000000000000002908202501092025            000000000000000                              000                           
0010001300015T 0601897X0000000092096 24778822500001527   700000000000152729082025000000000026598341000540000001527                0900000000000010100000000000000000000000000000000000000   000000000000000000000000004        170192477882     
0010001300016U 060000000000000000000000000000000000000000000000000000000000000000000000265980000000000265980000000000000000000000000000002908202501092025            000000000000000                              000                           
0010001300017T 0601897X0000000092096 24778822500001533   700000000000153329082025000000000026423001030813000001533                0900000000000010040000000000000000000000000000000000000   000000000000000000000000034        170192477882     
0010001300018U 060000000000000000000000000000000000000000000000000000000000000000000000264230000000000264230000000000000000000000000000002908202501092025            000000000000000                              000                           
0010001300019T 0601897X0000000092096 24778822500001542   700000000000154229082025000000000026180341001360000001542                0900000000000010100000000000000000000000000000000000000   000000000000000000000000004        170192477882     
0010001300020U 060000000000000000000000000000000000000000000000000000000000000000000000261800000000000261800000000000000000000000000000002908202501092025            000000000000000                              000                           
0010001300021T 0601897X0000000092096 24778822500001545   700000000000154529082025000000000026043033005450000001545                0900000000000010100000000000000000000000000000000000000   000000000000000000000000004        170192477882     
0010001300022U 060000000000000000000000000000000000000000000000000000000000000000000000260430000000000260430000000000000000000000000000002908202501092025            000000000000000                              000                           
0010001300023T 0601897X0000000092096 24778822500001548   700000000000154829082025000000000025993341006800000001548                0900000000000010100000000000000000000000000000000000000   000000000000000000000000004        170192477882     
0010001300024U 060000000000000000000000000000000000000000000000000000000000000000000000259930000000000259930000000000000000000000000000002908202501092025            000000000000000                              000                           
0010001300025T 0601897X0000000092096 24778822500001563   700000000000156329082025000000000025695341000190000001563                0900000000000010100000000000000000000000000000000000000   000000000000000000000000004        170192477882     
0010001300026U 060000000000000000000000000000000000000000000000000000000000000000000000256950000000000256950000000000000000000000000000002908202501092025            000000000000000                              000                           
0010001300027T 0601897X0000000092096 24778822500001572   700000000000157229082025000000000025529237023720000001572                0900000000000010100000000000000000000000000000000000000   000000000000000000000000004        170192477882     
0010001300028U 060000000000000000000000000000000000000000000000000000000000000000000000255290000000000255290000000000000000000000000000002908202501092025            000000000000000                              000                           
0010001300029T 0601897X0000000092096 24778822500001590   700000000000159029082025000000000025088341009100000001590                0900000000000010100000000000000000000000000000000000000   000000000000000000000000004        170192477882     
0010001300030U 060000000000000000000000000000000000000000000000000000000000000000000000250880000000000250880000000000000000000000000000002908202501092025            000000000000000                              000                           
0010001300031T 0601897X0000000092096 24778822500001602   700000000000160229082025000000000024885341002790000001602                0900000000000010100000000000000000000000000000000000000   000000000000000000000000004        170192477882     
0010001300032U 060000000000000000000000000000000000000000000000000000000000000000000000248850000000000248850000000000000000000000000000002908202501092025            000000000000000                              000                           
0010001300033T 0601897X0000000092096 24778822500001611   700000000000161129082025000000000024679001024279000001611                0900000000000010040000000000000000000000000000000000000   000000000000000000000000034        170192477882     
0010001300034U 060000000000000000000000000000000000000000000000000000000000000000000000246790000000000246790000000000000000000000000000002908202501092025            000000000000000                              000                           
0010001300035T 0601897X0000000092096 24778822500001620   700000000000162029082025000000000024478341005600000001620                0900000000000010100000000000000000000000000000000000000   000000000000000000000000004        170192477882     
0010001300036U 060000000000000000000000000000000000000000000000000000000000000000000000244780000000000244780000000000000000000000000000002908202501092025            000000000000000                              000                           
0010001300037T 0601897X0000000092096 24778822500001626   700000000000162629082025000000000024397237008400000001626                0900000000000010100000000000000000000000000000000000000   000000000000000000000000004        170192477882     
0010001300038U 060000000000000000000000000000000000000000000000000000000000000000000000243970000000000243970000000000000000000000000000002908202501092025            000000000000000                              000                           
0010001300039T 0601897X0000000092096 24778822500001629   700000000000162929082025000000000024397341054410000001629                0900000000000010100000000000000000000000000000000000000   000000000000000000000000004        170192477882     
0010001300040U 060000000000000000000000000000000000000000000000000000000000000000000000243970000000000243970000000000000000000000000000002908202501092025            000000000000000                              000                           
0010001300041T 0601897X0000000092096 24778822500001635   700000000000163529082025000000000024397033001490000001635                0900000000000010100000000000000000000000000000000000000   000000000000000000000000004        170192477882     
0010001300042U 060000000000000000000000000000000000000000000000000000000000000000000000243970000000000243970000000000000000000000000000002908202501092025            000000000000000                              000                           
0010001300043T 0601897X0000000092096 24778822500001644   700000000000164429082025000000000024397450000010000001644                0900000000000010100000000000000000000000000000000000000   000000000000000000000000004        170192477882     
0010001300044U 060000000000000000000000000000000000000000000000000000000000000000000000243970000000000243970000000000000000000000000000002908202501092025            000000000000000                              000                           
0010001300045T 0601897X0000000092096 24778822500001653   700000000000165329082025000000000024397237023740000001653                0900000000000010100000000000000000000000000000000000000   000000000000000000000000004        170192477882     
0010001300046U 060000000000000000000000000000000000000000000000000000000000000000000000243970000000000243970000000000000000000000000000002908202501092025            000000000000000                              000                           
0010001300047T 0601897X0000000092096 24778822500001656   700000000000165629082025000000000024397341009100000001656                0900000000000010100000000000000000000000000000000000000   000000000000000000000000004        170192477882     
0010001300048U 060000000000000000000000000000000000000000000000000000000000000000000000243970000000000243970000000000000000000000000000002908202501092025            000000000000000                              000                           
0010001300049T 0601897X0000000092096 24778822500001671   700000000000167129082025000000000024397033002460000001671                0900000000000010100000000000000000000000000000000000000   000000000000000000000000004        170192477882     
0010001300050U 060000000000000000000000000000000000000000000000000000000000000000000000243970000000000243970000000000000000000000000000002908202501092025            000000000000000                              000                           
0010001300051T 0601897X0000000092096 24778822500001674   700000000000167429082025000000000024397341002770000001674                0900000000000010100000000000000000000000000000000000000   000000000000000000000000004        170192477882     
0010001300052U 060000000000000000000000000000000000000000000000000000000000000000000000243970000000000243970000000000000000000000000000002908202501092025            000000000000000                              000                           
0010001300053T 0601897X0000000092096 24778822500001680   700000000000168029082025000000000024314341000330000001680                0900000000000010100000000000000000000000000000000000000   000000000000000000000000004        170192477882     
0010001300054U 060000000000000000000000000000000000000000000000000000000000000000000000243140000000000243140000000000000000000000000000002908202501092025            000000000000000                              000                           
0010001300055T 0601897X0000000092096 24778822500001686   700000000000168629082025000000000024159341001360000001686                0900000000000010100000000000000000000000000000000000000   000000000000000000000000004        170192477882     
0010001300056U 060000000000000000000000000000000000000000000000000000000000000000000000241590000000000241590000000000000000000000000000002908202501092025            000000000000000                              000                           
0010001300057T 0601897X0000000092096 24778822500001689   700000000000168929082025000000000024075341056640000001689                0900000000000010100000000000000000000000000000000000000   000000000000000000000000004        170192477882     
0010001300058U 060000000000000000000000000000000000000000000000000000000000000000000000240750000000000240750000000000000000000000000000002908202501092025            000000000000000                              000                           
0010001300059T 0601897X0000000092096 24778822500001692   700000000000169229082025000000000024056341048970000001692                0900000000000010100000000000000000000000000000000000000   000000000000000000000000004        170192477882     
0010001300060U 060000000000000000000000000000000000000000000000000000000000000000000000240560000000000240560000000000000000000000000000002908202501092025            000000000000000                              000                           
0010001300061T 0601897X0000000092096 24778822500001695   700000000000169529082025000000000024030033038080000001695                0900000000000010100000000000000000000000000000000000000   000000000000000000000000004        170192477882     
0010001300062U 060000000000000000000000000000000000000000000000000000000000000000000000240300000000000240300000000000000000000000000000002908202501092025            000000000000000                              000                           
0010001300063T 0601897X0000000092096 24778822500001698   700000000000169829082025000000000023999001026565000001698                0900000000000010040000000000000000000000000000000000000   000000000000000000000000034        170192477882     
0010001300064U 060000000000000000000000000000000000000000000000000000000000000000000000239990000000000239990000000000000000000000000000002908202501092025            000000000000000                              000                           
0010001300065T 0601897X0000000092096 24778822500001704   700000000000170429082025000000000023943237014790000001704                0900000000000010100000000000000000000000000000000000000   000000000000000000000000004        170192477882     
0010001300066U 060000000000000000000000000000000000000000000000000000000000000000000000239430000000000239430000000000000000000000000000002908202501092025            000000000000000                              000                           
0010001300067T 0601897X0000000092096 24778822500001716   700000000000171629082025000000000023818237003060000001716                0900000000000010100000000000000000000000000000000000000   000000000000000000000000004        170192477882     
0010001300068U 060000000000000000000000000000000000000000000000000000000000000000000000238180000000000238180000000000000000000000000000002908202501092025            000000000000000                              000                           
0010001300069T 0601897X0000000092096 24778822500001722   700000000000172229082025000000000023774341026330000001722                0900000000000010100000000000000000000000000000000000000   000000000000000000000000004        170192477882     
0010001300070U 060000000000000000000000000000000000000000000000000000000000000000000000237740000000000237740000000000000000000000000000002908202501092025            000000000000000                              000                           
0010001300071T 0601897X0000000092096 24778822500001725   700000000000172529082025000000000023711001026565000001725                0900000000000010060000000000000000000000000000000000000   000000000000000000000000033        170192477882     
0010001300072U 060000000000000000000000000000000000000000000000000000000000000000000000237110000000000237110000000000000000000000000000002908202501092025            000000000000000                              000                           
0010001300073T 0601897X0000000092096 24778822500001728   700000000000172829082025000000000023523237004520000001728                0900000000000010100000000000000000000000000000000000000   000000000000000000000000004        170192477882     
0010001300074U 060000000000000000000000000000000000000000000000000000000000000000000000235230000000000235230000000000000000000000000000002908202501092025            000000000000000                              000                           
0010001300075T 0601897X0000000092096 24778822500001734   700000000000173429082025000000000023463341002770000001734                0900000000000010100000000000000000000000000000000000000   000000000000000000000000004        170192477882     
0010001300076U 060000000000000000000000000000000000000000000000000000000000000000000000234630000000000234630000000000000000000000000000002908202501092025            000000000000000                              000                           
0010001300077T 0601897X0000000092096 24778822500001740   700000000000174029082025000000000023421341005460000001740                0900000000000010100000000000000000000000000000000000000   000000000000000000000000004        170192477882     
0010001300078U 060000000000000000000000000000000000000000000000000000000000000000000000234210000000000234210000000000000000000000000000002908202501092025            000000000000000                              000                           
0010001300079T 0601897X0000000092096 24778822500001743   700000000000174329082025000000000023421341002790000001743                0900000000000010100000000000000000000000000000000000000   000000000000000000000000004        170192477882     
0010001300080U 060000000000000000000000000000000000000000000000000000000000000000000000234210000000000234210000000000000000000000000000002908202501092025            000000000000000                              000                           
0010001300081T 0601897X0000000092096 24778822500001764   700000000000176429082025000000000023161341045360000001764                0900000000000010100000000000000000000000000000000000000   000000000000000000000000004        170192477882     
0010001300082U 060000000000000000000000000000000000000000000000000000000000000000000000231610000000000231610000000000000000000000000000002908202501092025            000000000000000                              000                           
0010001300083T 0601897X0000000092096 24778822500001767   700000000000176729082025000000000023157341026900000001767                0900000000000010100000000000000000000000000000000000000   000000000000000000000000004        170192477882     
0010001300084U 060000000000000000000000000000000000000000000000000000000000000000000000231570000000000231570000000000000000000000000000002908202501092025            000000000000000                              000                           
0010001300085T 0601897X0000000092096 24778822500001773   700000000000177329082025000000000023148237023720000001773                0900000000000010100000000000000000000000000000000000000   000000000000000000000000004        170192477882     
0010001300086U 060000000000000000000000000000000000000000000000000000000000000000000000231480000000000231480000000000000000000000000000002908202501092025            000000000000000                              000                           
0010001300087T 0601897X0000000092096 24778822500001776   700000000000177629082025000000000023093341063930000001776                0900000000000010100000000000000000000000000000000000000   000000000000000000000000004        170192477882     
0010001300088U 060000000000000000000000000000000000000000000000000000000000000000000000230930000000000230930000000000000000000000000000002908202501092025            000000000000000                              000                           
0010001300089T 0601897X0000000092096 24778822500001791   700000000000179129082025000000000022915341002370000001791                0900000000000010100000000000000000000000000000000000000   000000000000000000000000004        170192477882     
0010001300090U 060000000000000000000000000000000000000000000000000000000000000000000000229150000000000229150000000000000000000000000000002908202501092025            000000000000000                              000                           
0010001300091T 0601897X0000000092096 24778822500001794   700000000000179429082025000000000022819341011780000001794                0900000000000010100000000000000000000000000000000000000   000000000000000000000000004        170192477882     
0010001300092U 060000000000000000000000000000000000000000000000000000000000000000000000228190000000000228190000000000000000000000000000002908202501092025            000000000000000                              000                           
0010001300093T 0601897X0000000092096 24778822500001797   700000000000179729082025000000000022746341001370000001797                0900000000000010100000000000000000000000000000000000000   000000000000000000000000004        170192477882     
0010001300094U 060000000000000000000000000000000000000000000000000000000000000000000000227460000000000227460000000000000000000000000000002908202501092025            000000000000000                              000                           
0010001300095T 0601897X0000000092096 24778822500001803   700000000000180329082025000000000022660341026900000001803                0900000000000010100000000000000000000000000000000000000   000000000000000000000000004        170192477882     
0010001300096U 060000000000000000000000000000000000000000000000000000000000000000000000226600000000000226600000000000000000000000000000002908202501092025            000000000000000                              000                           
0010001300097T 0601897X0000000092096 24778822500001815   700000000000181529082025000000000022546341037850000001815                0900000000000010100000000000000000000000000000000000000   000000000000000000000000004        170192477882     
0010001300098U 060000000000000000000000000000000000000000000000000000000000000000000000225460000000000225460000000000000000000000000000002908202501092025            000000000000000                              000                           
0010001300099T 0601897X0000000092096 24778822500001818   700000000000181829082025000000000022543341000570000001818                0900000000000010100000000000000000000000000000000000000   000000000000000000000000004        170192477882     
0010001300100U 060000000000000000000000000000000000000000000000000000000000000000000000225430000000000225430000000000000000000000000000002908202501092025            000000000000000                              000                           
0010001300101T 0601897X0000000092096 24778822500001827   700000000000182729082025000000000022268341000410000001827                0900000000000010100000000000000000000000000000000000000   000000000000000000000000004        170192477882     
0010001300102U 060000000000000000000000000000000000000000000000000000000000000000000000222680000000000222680000000000000000000000000000002908202501092025            000000000000000                              000                           
0010001300103T 0601897X0000000092096 24778822500001833   700000000000183329082025000000000022185341000260000001833                0900000000000010100000000000000000000000000000000000000   000000000000000000000000004        170192477882     
0010001300104U 060000000000000000000000000000000000000000000000000000000000000000000000221850000000000221850000000000000000000000000000002908202501092025            000000000000000                              000                           
0010001300105T 0601897X0000000092096 24778822500001854   700000000000185429082025000000000021958341002790000001854                0900000000000010100000000000000000000000000000000000000   000000000000000000000000004        170192477882     
0010001300106U 060000000000000000000000000000000000000000000000000000000000000000000000219580000000000219580000000000000000000000000000002908202501092025            000000000000000                              000                           
0010001300107T 0601897X0000000092096 24778822500001857   700000000000185729082025000000000021958748050300000001857                0900000000000010100000000000000000000000000000000000000   000000000000000000000000004        170192477882     
0010001300108U 060000000000000000000000000000000000000000000000000000000000000000000000219580000000000219580000000000000000000000000000002908202501092025            000000000000000                              000                           
0010001300109T 0601897X0000000092096 24778822500001860   700000000000186029082025000000000021958033038610000001860                0900000000000010100000000000000000000000000000000000000   000000000000000000000000004        170192477882     
0010001300110U 060000000000000000000000000000000000000000000000000000000000000000000000219580000000000219580000000000000000000000000000002908202501092025            000000000000000                              000                           
0010001300111T 0601897X0000000092096 24778822500001872   700000000000187229082025000000000021958509000010000001872                0900000000000010100000000000000000000000000000000000000   000000000000000000000000004        170192477882     
0010001300112U 060000000000000000000000000000000000000000000000000000000000000000000000219580000000000219580000000000000000000000000000002908202501092025            000000000000000                              000                           
0010001300113T 0601897X0000000092096 24778822500001887   700000000000188729082025000000000021847237005200000001887                0900000000000010100000000000000000000000000000000000000   000000000000000000000000004        170192477882     
0010001300114U 060000000000000000000000000000000000000000000000000000000000000000000000218470000000000218470000000000000000000000000000002908202501092025            000000000000000                              000                           
0010001300115T 0601897X0000000092096 24778822500001890   700000000000189029082025000000000021778341000190000001890                0900000000000010100000000000000000000000000000000000000   000000000000000000000000004        170192477882     
0010001300116U 060000000000000000000000000000000000000000000000000000000000000000000000217780000000000217780000000000000000000000000000002908202501092025            000000000000000                              000                           
0010001300117T 0601897X0000000092096 24778822500001893   700000000000189329082025000000000021751509000010000001893                0900000000000010100000000000000000000000000000000000000   000000000000000000000000004        170192477882     
0010001300118U 060000000000000000000000000000000000000000000000000000000000000000000000217510000000000217510000000000000000000000000000002908202501092025            000000000000000                              000                           
0010001300119T 0601897X0000000092096 24778822500001908   700000000000190829082025000000000021360001009903000001908                0900000000000010040000000000000000000000000000000000000   000000000000000000000000034        170192477882     
0010001300120U 060000000000000000000000000000000000000000000000000000000000000000000000213600000000000213600000000000000000000000000000002908202501092025            000000000000000                              000                           
0010001300121T 0601897X0000000092096 24778822500001932   700000000000193229082025000000000021017341006700000001932                0900000000000010100000000000000000000000000000000000000   000000000000000000000000004        170192477882     
0010001300122U 060000000000000000000000000000000000000000000000000000000000000000000000210170000000000210170000000000000000000000000000002908202501092025            000000000000000                              000                           
0010001300123T 0601897X0000000092096 24778822500001935   700000000000193529082025000000000021015341006520000001935                0900000000000010100000000000000000000000000000000000000   000000000000000000000000004        170192477882     
0010001300124U 060000000000000000000000000000000000000000000000000000000000000000000000210150000000000210150000000000000000000000000000002908202501092025            000000000000000                              000                           
0010001300125T 0601897X0000000092096 24778822500001953   700000000000195329082025000000000020537341015630000001953                0900000000000010100000000000000000000000000000000000000   000000000000000000000000004        170192477882     
0010001300126U 060000000000000000000000000000000000000000000000000000000000000000000000205370000000000205370000000000000000000000000000002908202501092025            000000000000000                              000                           
0010001300127T 0601897X0000000092096 24778822500001956   700000000000195629082025000000000020493341002790000001956                0900000000000010100000000000000000000000000000000000000   000000000000000000000000004        170192477882     
0010001300128U 060000000000000000000000000000000000000000000000000000000000000000000000204930000000000204930000000000000000000000000000002908202501092025            000000000000000                              000                           
0010001300129T 0601897X0000000092096 24778822500001965   700000000000196529082025000000000020341422000420000001965                0900000000000010100000000000000000000000000000000000000   000000000000000000000000004        170192477882     
0010001300130U 060000000000000000000000000000000000000000000000000000000000000000000000203410000000000203410000000000000000000000000000002908202501092025            000000000000000                              000                           
0010001300131T 0601897X0000000092096 24778822500001968   700000000000196829082025000000000020271237033910000001968                0900000000000010100000000000000000000000000000000000000   000000000000000000000000004        170192477882     
0010001300132U 060000000000000000000000000000000000000000000000000000000000000000000000202710000000000202710000000000000000000000000000002908202501092025            000000000000000                              000                           
0010001300133T 0601897X0000000092096 24778822500001977   700000000000197729082025000000000020141341000550000001977                0900000000000010100000000000000000000000000000000000000   000000000000000000000000004        170192477882     
0010001300134U 060000000000000000000000000000000000000000000000000000000000000000000000201410000000000201410000000000000000000000000000002908202501092025            000000000000000                              000                           
0010001300135T 0601897X0000000092096 24778822500002000   700000000000200029082025000000000024885260000010000002000                0900000000000010100000000000000000000000000000000000000   000000000000000000000000004        170192477882     
0010001300136U 060000000000000000000000000000000000000000000000000000000000000000000000248850000000000248850000000000000000000000000000002908202501092025            000000000000000                              000                           
0010001300137T 0601897X0000000092096 24778822500002012   700000000000201229082025000000000024665341000500000002012                0900000000000010100000000000000000000000000000000000000   000000000000000000000000004        170192477882     
0010001300138U 060000000000000000000000000000000000000000000000000000000000000000000000246650000000000246650000000000000000000000000000002908202501092025            000000000000000                              000                           
0010001300139T 0601897X0000000092096 24778822500002016   700000000000201629082025000000000024519033032440000002016                0900000000000010100000000000000000000000000000000000000   000000000000000000000000004        170192477882     
0010001300140U 060000000000000000000000000000000000000000000000000000000000000000000000245190000000000245190000000000000000000000000000002908202501092025            000000000000000                              000                           
0010001300141T 0601897X0000000092096 24778822500002020   700000000000202029082025000000000024506341001620000002020                0900000000000010100000000000000000000000000000000000000   000000000000000000000000004        170192477882     
0010001300142U 060000000000000000000000000000000000000000000000000000000000000000000000245060000000000245060000000000000000000000000000002908202501092025            000000000000000                              000                           
0010001300143T 0601897X0000000092096 24778822500002024   700000000000202429082025000000000024419341015780000002024                0900000000000010100000000000000000000000000000000000000   000000000000000000000000004        170192477882     
0010001300144U 060000000000000000000000000000000000000000000000000000000000000000000000244190000000000244190000000000000000000000000000002908202501092025            000000000000000                              000                           
0010001300145T 0601897X0000000092096 24778822500002032   700000000000203229082025000000000024113756072790000002032                0900000000000010100000000000000000000000000000000000000   000000000000000000000000004        170192477882     
0010001300146U 060000000000000000000000000000000000000000000000000000000000000000000000241130000000000241130000000000000000000000000000002908202501092025            000000000000000                              000                           
0010001300147T 0601897X0000000092096 24778822500002044   700000000000204429082025000000000023855341005590000002044                0900000000000010100000000000000000000000000000000000000   000000000000000000000000004        170192477882     
0010001300148U 060000000000000000000000000000000000000000000000000000000000000000000000238550000000000238550000000000000000000000000000002908202501092025            000000000000000                              000                           
0010001300149T 0601897X0000000092096 24778822500002048   700000000000204829082025000000000023642237033930000002048                0900000000000010100000000000000000000000000000000000000   000000000000000000000000004        170192477882     
0010001300150U 060000000000000000000000000000000000000000000000000000000000000000000000236420000000000236420000000000000000000000000000002908202501092025            000000000000000                              000                           
0010001300151T 0601897X0000000092096 24778822500002052   700000000000205229082025000000000023604341005460000002052                0900000000000010100000000000000000000000000000000000000   000000000000000000000000004        170192477882     
0010001300152U 060000000000000000000000000000000000000000000000000000000000000000000000236040000000000236040000000000000000000000000000002908202501092025            000000000000000                              000                           
0010001300153T 0601897X0000000092096 24778822500002056   700000000000205629082025000000000023589033003340000002056                0900000000000010100000000000000000000000000000000000000   000000000000000000000000004        170192477882     
0010001300154U 060000000000000000000000000000000000000000000000000000000000000000000000235890000000000235890000000000000000000000000000002908202501092025            000000000000000                              000                           
0010001300155T 0601897X0000000092096 24778822500002060   700000000000206029082025000000000023465237023880000002060                0900000000000010100000000000000000000000000000000000000   000000000000000000000000004        170192477882     
0010001300156U 060000000000000000000000000000000000000000000000000000000000000000000000234650000000000234650000000000000000000000000000002908202501092025            000000000000000                              000                           
0010001300157T 0601897X0000000092096 24778822500002072   700000000000207229082025000000000023421509000010000002072                0900000000000010100000000000000000000000000000000000000   000000000000000000000000004        170192477882     
0010001300158U 060000000000000000000000000000000000000000000000000000000000000000000000234210000000000234210000000000000000000000000000002908202501092025            000000000000000                              000                           
0010001300159T 0601897X0000000092096 24778822500002084   700000000000208429082025000000000023304237033670000002084                0900000000000010100000000000000000000000000000000000000   000000000000000000000000004        170192477882     
0010001300160U 060000000000000000000000000000000000000000000000000000000000000000000000233040000000000233040000000000000000000000000000002908202501092025            000000000000000                              000                           
0010001300161T 0601897X0000000092096 24778822500002092   700000000000209229082025000000000023187033000590000002092                0900000000000010100000000000000000000000000000000000000   000000000000000000000000004        170192477882     
0010001300162U 060000000000000000000000000000000000000000000000000000000000000000000000231870000000000231870000000000000000000000000000002908202501092025            000000000000000                              000                           
0010001300163T 0601897X0000000092096 24778822500002104   700000000000210429082025000000000023055341078830000002104                0900000000000010100000000000000000000000000000000000000   000000000000000000000000004        170192477882     
0010001300164U 060000000000000000000000000000000000000000000000000000000000000000000000230550000000000230550000000000000000000000000000002908202501092025            000000000000000                              000                           
0010001300165T 0601897X0000000092096 24778822500002116   700000000000211629082025000000000022975001051152000002116                0900000000000010090000000000000000000000000000000000000   000000000000000000000000006        170192477882     
0010001300166U 060000000000000000000000000000000000000000000000000000000000000000000000229750000000000229750000000000000000000000000000002908202501092025            000000000000000                              000                           
0010001300167T 0601897X0000000092096 24778822500002124   700000000000212429082025000000000022909341001620000002124                0900000000000010100000000000000000000000000000000000000   000000000000000000000000004        170192477882     
0010001300168U 060000000000000000000000000000000000000000000000000000000000000000000000229090000000000229090000000000000000000000000000002908202501092025            000000000000000                              000                           
0010001300169T 0601897X0000000092096 24778822500002136   70000000000021362908202500000000002262900100216X000002136                0900000000000010040000000000000000000000000000000000000   000000000000000000000000034        170192477882     
0010001300170U 060000000000000000000000000000000000000000000000000000000000000000000000226290000000000226290000000000000000000000000000002908202501092025            000000000000000                              000                           
0010001300171T 0601897X0000000092096 24778822500002140   700000000000214029082025000000000022623341015780000002140                0900000000000010100000000000000000000000000000000000000   000000000000000000000000004        170192477882     
0010001300172U 060000000000000000000000000000000000000000000000000000000000000000000000226230000000000226230000000000000000000000000000002908202501092025            000000000000000                              000                           
0010001300173T 0601897X0000000092096 24778822500002184   700000000000218429082025000000000021958341018740000002184                0900000000000010100000000000000000000000000000000000000   000000000000000000000000004        170192477882     
0010001300174U 060000000000000000000000000000000000000000000000000000000000000000000000219580000000000219580000000000000000000000000000002908202501092025            000000000000000                              000                           
0010001300175T 0601897X0000000092096 24778822500002188   700000000000218829082025000000000021958509000010000002188                0900000000000010100000000000000000000000000000000000000   000000000000000000000000004        170192477882     
0010001300176U 060000000000000000000000000000000000000000000000000000000000000000000000219580000000000219580000000000000000000000000000002908202501092025            000000000000000                              000                           
0010001300177T 0601897X0000000092096 24778822500002192   700000000000219229082025000000000021958341000190000002192                0900000000000010100000000000000000000000000000000000000   000000000000000000000000004        170192477882     
0010001300178U 060000000000000000000000000000000000000000000000000000000000000000000000219580000000000219580000000000000000000000000000002908202501092025            000000000000000                              000                           
0010001300179T 0601897X0000000092096 24778822500002196   700000000000219629082025000000000021958237002150000002196                0900000000000010100000000000000000000000000000000000000   000000000000000000000000004        170192477882     
0010001300180U 060000000000000000000000000000000000000000000000000000000000000000000000219580000000000219580000000000000000000000000000002908202501092025            000000000000000                              000                           
0010001300181T 0601897X0000000092096 24778822500002204   700000000000220429082025000000000021958341002060000002204                0900000000000010100000000000000000000000000000000000000   000000000000000000000000004        170192477882     
0010001300182U 060000000000000000000000000000000000000000000000000000000000000000000000219580000000000219580000000000000000000000000000002908202501092025            000000000000000                              000                           
0010001300183T 0601897X0000000092096 24778822500002208   700000000000220829082025000000000021958341086800000002208                0900000000000010100000000000000000000000000000000000000   000000000000000000000000004        170192477882     
0010001300184U 060000000000000000000000000000000000000000000000000000000000000000000000219580000000000219580000000000000000000000000000002908202501092025            000000000000000                              000                           
0010001300185T 0601897X0000000092096 24778822500002232   700000000000223229082025000000000021958341000190000002232                0900000000000010100000000000000000000000000000000000000   000000000000000000000000004        170192477882     
0010001300186U 060000000000000000000000000000000000000000000000000000000000000000000000219580000000000219580000000000000000000000000000002908202501092025            000000000000000                              000                           
0010001300187T 0601897X0000000092096 24778822500002268   700000000000226829082025000000000021657341000310000002268                0900000000000010100000000000000000000000000000000000000   000000000000000000000000004        170192477882     
0010001300188U 060000000000000000000000000000000000000000000000000000000000000000000000216570000000000216570000000000000000000000000000002908202501092025            000000000000000                              000                           
0010001300189T 0601897X0000000092096 24778822500002272   700000000000227229082025000000000021584341015680000002272                0900000000000010100000000000000000000000000000000000000   000000000000000000000000004        170192477882     
0010001300190U 060000000000000000000000000000000000000000000000000000000000000000000000215840000000000215840000000000000000000000000000002908202501092025            000000000000000                              000                           
0010001300191T 0601897X0000000092096 24778822500002276   700000000000227629082025000000000021539033005350000002276                0900000000000010100000000000000000000000000000000000000   000000000000000000000000004        170192477882     
0010001300192U 060000000000000000000000000000000000000000000000000000000000000000000000215390000000000215390000000000000000000000000000002908202501092025            000000000000000                              000                           
0010001300193T 0601897X0000000092096 24778822500002280   700000000000228029082025000000000021536033002160000002280                0900000000000010100000000000000000000000000000000000000   000000000000000000000000004        170192477882     
0010001300194U 060000000000000000000000000000000000000000000000000000000000000000000000215360000000000215360000000000000000000000000000002908202501092025            000000000000000                              000                           
0010001300195T 0601897X0000000092096 24778822500002296   700000000000229629082025000000000021440341000300000002296                0900000000000010100000000000000000000000000000000000000   000000000000000000000000004        170192477882     
0010001300196U 060000000000000000000000000000000000000000000000000000000000000000000000214400000000000214400000000000000000000000000000002908202501092025            000000000000000                              000                           
0010001300197T 0601897X0000000092096 24778822500002300   700000000000230029082025000000000021409001033626000002300                0900000000000010040000000000000000000000000000000000000   000000000000000000000000034        170192477882     
0010001300198U 060000000000000000000000000000000000000000000000000000000000000000000000214090000000000214090000000000000000000000000000002908202501092025            000000000000000                              000                           
0010001300199T 0601897X0000000092096 24778822500002324   700000000000232429082025000000000021176084000260000002324                0900000000000010100000000000000000000000000000000000000   000000000000000000000000004        170192477882     
0010001300200U 060000000000000000000000000000000000000000000000000000000000000000000000211760000000000211760000000000000000000000000000002908202501092025            000000000000000                              000                           
0010001300201T 0601897X0000000092096 24778822500002348   700000000000234829082025000000000021079001034150000002348                0900000000000010040000000000000000000000000000000000000   000000000000000000000000034        170192477882     
0010001300202U 060000000000000000000000000000000000000000000000000000000000000000000000210790000000000210790000000000000000000000000000002908202501092025            000000000000000                              000                           
0010001300203T 0601897X0000000092096 24778822500002352   700000000000235229082025000000000021033033002460000002352                0900000000000010100000000000000000000000000000000000000   000000000000000000000000004        170192477882     
0010001300204U 060000000000000000000000000000000000000000000000000000000000000000000000210330000000000210330000000000000000000000000000002908202501092025            000000000000000                              000                           
0010001300205T 0601897X0000000092096 24778822500002364   700000000000236429082025000000000020925237004760000002364                0900000000000010100000000000000000000000000000000000000   000000000000000000000000004        170192477882     
0010001300206U 060000000000000000000000000000000000000000000000000000000000000000000000209250000000000209250000000000000000000000000000002908202501092025            000000000000000                              000                           
0010001300207T 0601897X0000000092096 24778822500002368   700000000000236829082025000000000020916033020400000002368                0900000000000010100000000000000000000000000000000000000   000000000000000000000000004        170192477882     
0010001300208U 060000000000000000000000000000000000000000000000000000000000000000000000209160000000000209160000000000000000000000000000002908202501092025            000000000000000                              000                           
0010001300209T 0601897X0000000092096 24778822500002380   700000000000238029082025000000000020750237003150000002380                0900000000000010100000000000000000000000000000000000000   000000000000000000000000004        170192477882     
0010001300210U 060000000000000000000000000000000000000000000000000000000000000000000000207500000000000207500000000000000000000000000000002908202501092025            000000000000000                              000                           
0010001300211T 0601897X0000000092096 24778822500002388   700000000000238829082025000000000020494001069833000002388                0900000000000010090000000000000000000000000000000000000   000000000000000000000000006        170192477882     
0010001300212U 060000000000000000000000000000000000000000000000000000000000000000000000204940000000000204940000000000000000000000000000002908202501092025            000000000000000                              000                           
0010001300213T 0601897X0000000092096 24778822500002400   700000000000240029082025000000000020494237003930000002400                0900000000000010100000000000000000000000000000000000000   000000000000000000000000004        170192477882     
0010001300214U 060000000000000000000000000000000000000000000000000000000000000000000000204940000000000204940000000000000000000000000000002908202501092025            000000000000000                              000                           
0010001300215T 0601897X0000000092096 24778822500002416   700000000000241629082025000000000020219033032440000002416                0900000000000010100000000000000000000000000000000000000   000000000000000000000000004        170192477882     
0010001300216U 060000000000000000000000000000000000000000000000000000000000000000000000202190000000000202190000000000000000000000000000002908202501092025            000000000000000                              000                           
0010001300217T 0601897X0000000092096 24778822500002428   700000000000242829082025000000000020128341009110000002428                0900000000000010100000000000000000000000000000000000000   000000000000000000000000004        170192477882     
0010001300218U 060000000000000000000000000000000000000000000000000000000000000000000000201280000000000201280000000000000000000000000000002908202501092025            000000000000000                              000                           
0010001300219T 0601897X0000000092096 24778822500002436   700000000000243629082025000000000020102237003180000002436                0900000000000010100000000000000000000000000000000000000   000000000000000000000000004        170192477882     
0010001300220U 060000000000000000000000000000000000000000000000000000000000000000000000201020000000000201020000000000000000000000000000002908202501092025            000000000000000                              000                           
0010001300221T 0601897X0000000092096 24778822500002445   700000000000244529082025000000000023948748051200000002445                0900000000000010100000000000000000000000000000000000000   000000000000000000000000004        170192477882     
0010001300222U 060000000000000000000000000000000000000000000000000000000000000000000000239480000000000239480000000000000000000000000000002908202501092025            000000000000000                              000                           
0010001300223T 0601897X0000000092096 24778822500002465   700000000000246529082025000000000023745341000540000002465                0900000000000010100000000000000000000000000000000000000   000000000000000000000000004        170192477882     
0010001300224U 060000000000000000000000000000000000000000000000000000000000000000000000237450000000000237450000000000000000000000000000002908202501092025            000000000000000                              000                           
0010001300225T 0601897X0000000092096 24778822500002470   700000000000247029082025000000000023714341078900000002470                0900000000000010100000000000000000000000000000000000000   000000000000000000000000004        170192477882     
0010001300226U 060000000000000000000000000000000000000000000000000000000000000000000000237140000000000237140000000000000000000000000000002908202501092025            000000000000000                              000                           
0010001300227T 0601897X0000000092096 24778822500002480   700000000000248029082025000000000023473341000190000002480                0900000000000010100000000000000000000000000000000000000   000000000000000000000000004        170192477882     
0010001300228U 060000000000000000000000000000000000000000000000000000000000000000000000234730000000000234730000000000000000000000000000002908202501092025            000000000000000                              000                           
0010001300229T 0601897X0000000092096 24778822500002490   700000000000249029082025000000000023421341002790000002490                0900000000000010100000000000000000000000000000000000000   000000000000000000000000004        170192477882     
0010001300230U 060000000000000000000000000000000000000000000000000000000000000000000000234210000000000234210000000000000000000000000000002908202501092025            000000000000000                              000                           
0010001300231T 0601897X0000000092096 24778822500002500   700000000000250029082025000000000023421033030640000002500                0900000000000010100000000000000000000000000000000000000   000000000000000000000000004        170192477882     
0010001300232U 060000000000000000000000000000000000000000000000000000000000000000000000234210000000000234210000000000000000000000000000002908202501092025            000000000000000                              000                           
0010001300233T 0601897X0000000092096 24778822500002510   700000000000251029082025000000000023421237003160000002510                0900000000000010100000000000000000000000000000000000000   000000000000000000000000004        170192477882     
0010001300234U 060000000000000000000000000000000000000000000000000000000000000000000000234210000000000234210000000000000000000000000000002908202501092025            000000000000000                              000                           
0010001300235T 0601897X0000000092096 24778822500002525   700000000000252529082025000000000023076341015630000002525                0900000000000010100000000000000000000000000000000000000   000000000000000000000000004        170192477882     
0010001300236U 060000000000000000000000000000000000000000000000000000000000000000000000230760000000000230760000000000000000000000000000002908202501092025            000000000000000                              000                           
0010001300237T 0601897X0000000092096 24778822500002560   700000000000256029082025000000000022645341080310000002560                0900000000000010100000000000000000000000000000000000000   000000000000000000000000004        170192477882     
0010001300238U 060000000000000000000000000000000000000000000000000000000000000000000000226450000000000226450000000000000000000000000000002908202501092025            000000000000000                              000                           
0010001300239T 0601897X0000000092096 24778822500002570   700000000000257029082025000000000022446341015630000002570                0900000000000010100000000000000000000000000000000000000   000000000000000000000000004        170192477882     
0010001300240U 060000000000000000000000000000000000000000000000000000000000000000000000224460000000000224460000000000000000000000000000002908202501092025            000000000000000                              000                           
0010001300241T 0601897X0000000092096 24778822500002590   700000000000259029082025000000000022231341001360000002590                0900000000000010100000000000000000000000000000000000000   000000000000000000000000004        170192477882     
0010001300242U 060000000000000000000000000000000000000000000000000000000000000000000000222310000000000222310000000000000000000000000000002908202501092025            000000000000000                              000                           
0010001300243T 0601897X0000000092096 24778822500002600   700000000000260029082025000000000022117341027110000002600                0900000000000010100000000000000000000000000000000000000   000000000000000000000000004        170192477882     
0010001300244U 060000000000000000000000000000000000000000000000000000000000000000000000221170000000000221170000000000000000000000000000002908202501092025            000000000000000                              000                           
0010001300245T 0601897X0000000092096 24778822500002605   700000000000260529082025000000000022012033036890000002605                0900000000000010100000000000000000000000000000000000000   000000000000000000000000004        170192477882     
0010001300246U 060000000000000000000000000000000000000000000000000000000000000000000000220120000000000220120000000000000000000000000000002908202501092025            000000000000000                              000                           
0010001300247T 0601897X0000000092096 24778822500002610   700000000000261029082025000000000021957237023930000002610                0900000000000010100000000000000000000000000000000000000   000000000000000000000000004        170192477882     
0010001300248U 060000000000000000000000000000000000000000000000000000000000000000000000219570000000000219570000000000000000000000000000002908202501092025            000000000000000                              000                           
0010001300249T 0601897X0000000092096 24778822500002630   700000000000263029082025000000000021775237033710000002630                0900000000000010100000000000000000000000000000000000000   000000000000000000000000004        170192477882     
0010001300250U 060000000000000000000000000000000000000000000000000000000000000000000000217750000000000217750000000000000000000000000000002908202501092025            000000000000000                              000                           
0010001300251T 0601897X0000000092096 24778822500002635   70000000000026352908202500000000002166500101897X000002635                0900000000000010090000000000000000000000000000000000000   000000000000000000000000006        170192477882     
0010001300252U 060000000000000000000000000000000000000000000000000000000000000000000000216650000000000216650000000000000000000000000000002908202501092025            000000000000000                              000                           
0010001300253T 0601897X0000000092096 24778822500002645   700000000000264529082025000000000021570033002160000002645                0900000000000010100000000000000000000000000000000000000   000000000000000000000000004        170192477882     
0010001300254U 060000000000000000000000000000000000000000000000000000000000000000000000215700000000000215700000000000000000000000000000002908202501092025            000000000000000                              000                           
0010001300255T 0601897X0000000092096 24778822500002650   700000000000265029082025000000000021561756082700000002650                0900000000000010100000000000000000000000000000000000000   000000000000000000000000004        170192477882     
0010001300256U 060000000000000000000000000000000000000000000000000000000000000000000000215610000000000215610000000000000000000000000000002908202501092025            000000000000000                              000                           
0010001300257T 0601897X0000000092096 24778822500002660   700000000000266029082025000000000021372341087690000002660                0900000000000010100000000000000000000000000000000000000   000000000000000000000000004        170192477882     
0010001300258U 060000000000000000000000000000000000000000000000000000000000000000000000213720000000000213720000000000000000000000000000002908202501092025            000000000000000                              000                           
0010001300259T 0601897X0000000092096 24778822500002670   700000000000267029082025000000000021221341078830000002670                0900000000000010100000000000000000000000000000000000000   000000000000000000000000004        170192477882     
0010001300260U 060000000000000000000000000000000000000000000000000000000000000000000000212210000000000212210000000000000000000000000000002908202501092025            000000000000000                              000                           
0010001300261T 0601897X0000000092096 24778822500002690   700000000000269029082025000000000021079237033680000002690                0900000000000010100000000000000000000000000000000000000   000000000000000000000000004        170192477882     
0010001300262U 060000000000000000000000000000000000000000000000000000000000000000000000210790000000000210790000000000000000000000000000002908202501092025            000000000000000                              000                           
0010001300263T 0601897X0000000092096 24778822500002695   700000000000269529082025000000000021079341032630000002695                0900000000000010100000000000000000000000000000000000000   000000000000000000000000004        170192477882     
0010001300264U 060000000000000000000000000000000000000000000000000000000000000000000000210790000000000210790000000000000000000000000000002908202501092025            000000000000000                              000                           
0010001300265T 0601897X0000000092096 24778822500002700   700000000000270029082025000000000021079341002780000002700                0900000000000010100000000000000000000000000000000000000   000000000000000000000000004        170192477882     
0010001300266U 060000000000000000000000000000000000000000000000000000000000000000000000210790000000000210790000000000000000000000000000002908202501092025            000000000000000                              000                           
0010001300267T 0601897X0000000092096 24778822500002720   700000000000272029082025000000000020627237003160000002720                0900000000000010100000000000000000000000000000000000000   000000000000000000000000004        170192477882     
0010001300268U 060000000000000000000000000000000000000000000000000000000000000000000000206270000000000206270000000000000000000000000000002908202501092025            000000000000000                              000                           
0010001300269T 0601897X0000000092096 24778822500002725   700000000000272529082025000000000020494033000100000002725                0900000000000010100000000000000000000000000000000000000   000000000000000000000000004        170192477882     
0010001300270U 060000000000000000000000000000000000000000000000000000000000000000000000204940000000000204940000000000000000000000000000002908202501092025            000000000000000                              000                           
0010001300271T 0601897X0000000092096 24778822500002750   700000000000275029082025000000000020493237029170000002750                0900000000000010100000000000000000000000000000000000000   000000000000000000000000004        170192477882     
0010001300272U 060000000000000000000000000000000000000000000000000000000000000000000000204930000000000204930000000000000000000000000000002908202501092025            000000000000000                              000                           
0010001300273T 0601897X0000000092096 24778822500002785   700000000000278529082025000000000020232341087450000002785                0900000000000010100000000000000000000000000000000000000   000000000000000000000000004        170192477882     
0010001300274U 060000000000000000000000000000000000000000000000000000000000000000000000202320000000000202320000000000000000000000000000002908202501092025            000000000000000                              000                           
0010001300275T 0601897X0000000092096 24778822500002790   700000000000279029082025000000000020107341076430000002790                0900000000000010100000000000000000000000000000000000000   000000000000000000000000004        170192477882     
0010001300276U 060000000000000000000000000000000000000000000000000000000000000000000000201070000000000201070000000000000000000000000000002908202501092025            000000000000000                              000                           
0010001300277T 0601897X0000000092096 24778822500002795   700000000000279529082025000000000020037237005200000002795                0900000000000010100000000000000000000000000000000000000   000000000000000000000000004        170192477882     
0010001300278U 060000000000000000000000000000000000000000000000000000000000000000000000200370000000000200370000000000000000000000000000002908202501092025            000000000000000                              000                           
0010001300279T 0601897X0000000092096 24778822500002800   700000000000280029082025000000000020020341056360000002800                0900000000000010100000000000000000000000000000000000000   000000000000000000000000004        170192477882     
0010001300280U 060000000000000000000000000000000000000000000000000000000000000000000000200200000000000200200000000000000000000000000000002908202501092025            000000000000000                              000                           
0010001300281T 0601897X0000000092096 24778822500002805   700000000000280529082025000000000023266341015860000002805                0900000000000010100000000000000000000000000000000000000   000000000000000000000000004        170192477882     
0010001300282U 060000000000000000000000000000000000000000000000000000000000000000000000232660000000000232660000000000000000000000000000002908202501092025            000000000000000                              000                           
0010001300283T 0601897X0000000092096 24778822500002811   700000000000281129082025000000000023233341069100000002811                0900000000000010100000000000000000000000000000000000000   000000000000000000000000004        170192477882     
0010001300284U 060000000000000000000000000000000000000000000000000000000000000000000000232330000000000232330000000000000000000000000000002908202501092025            000000000000000                              000                           
0010001300285T 0601897X0000000092096 24778822500002823   700000000000282329082025000000000023055001051152000002823                0900000000000010040000000000000000000000000000000000000   000000000000000000000000034        170192477882     
0010001300286U 060000000000000000000000000000000000000000000000000000000000000000000000230550000000000230550000000000000000000000000000002908202501092025            000000000000000                              000                           
0010001300287T 0601897X0000000092096 24778822500002835   700000000000283529082025000000000022950341080460000002835                0900000000000010100000000000000000000000000000000000000   000000000000000000000000004        170192477882     
0010001300288U 060000000000000000000000000000000000000000000000000000000000000000000000229500000000000229500000000000000000000000000000002908202501092025            000000000000000                              000                           
0010001300289T 0601897X0000000092096 24778822500002847   700000000000284729082025000000000022836341000280000002847                0900000000000010100000000000000000000000000000000000000   000000000000000000000000004        170192477882     
0010001300290U 060000000000000000000000000000000000000000000000000000000000000000000000228360000000000228360000000000000000000000000000002908202501092025            000000000000000                              000                           
0010001300291T 0601897X0000000092096 24778822500002853   700000000000285329082025000000000022811341000540000002853                0900000000000010100000000000000000000000000000000000000   000000000000000000000000004        170192477882     
0010001300292U 060000000000000000000000000000000000000000000000000000000000000000000000228110000000000228110000000000000000000000000000002908202501092025            000000000000000                              000                           
0010001300293T 0601897X0000000092096 24778822500002865   700000000000286529082025000000000022677341000540000002865                0900000000000010100000000000000000000000000000000000000   000000000000000000000000004        170192477882     
0010001300294U 060000000000000000000000000000000000000000000000000000000000000000000000226770000000000226770000000000000000000000000000002908202501092025            000000000000000                              000                           
0010001300295T 0601897X0000000092096 24778822500002877   700000000000287729082025000000000022622341000190000002877                0900000000000010100000000000000000000000000000000000000   000000000000000000000000004        170192477882     
0010001300296U 060000000000000000000000000000000000000000000000000000000000000000000000226220000000000226220000000000000000000000000000002908202501092025            000000000000000                              000                           
0010001300297T 0601897X0000000092096 24778822500002883   700000000000288329082025000000000022608341000500000002883                0900000000000010100000000000000000000000000000000000000   000000000000000000000000004        170192477882     
0010001300298U 060000000000000000000000000000000000000000000000000000000000000000000000226080000000000226080000000000000000000000000000002908202501092025            000000000000000                              000                           
0010001300299T 0601897X0000000092096 24778822500002895   700000000000289529082025000000000022589341015780000002895                0900000000000010100000000000000000000000000000000000000   000000000000000000000000004        170192477882     
0010001300300U 060000000000000000000000000000000000000000000000000000000000000000000000225890000000000225890000000000000000000000000000002908202501092025            000000000000000                              000                           
0010001300301T 0601897X0000000092096 24778822500002931   700000000000293129082025000000000022125237004940000002931                0900000000000010100000000000000000000000000000000000000   000000000000000000000000004        170192477882     
0010001300302U 060000000000000000000000000000000000000000000000000000000000000000000000221250000000000221250000000000000000000000000000002908202501092025            000000000000000                              000                           
0010001300303T 0601897X0000000092096 24778822500002937   700000000000293729082025000000000022055341007960000002937                0900000000000010100000000000000000000000000000000000000   000000000000000000000000004        170192477882     
0010001300304U 060000000000000000000000000000000000000000000000000000000000000000000000220550000000000220550000000000000000000000000000002908202501092025            000000000000000                              000                           
0010001300305T 0601897X0000000092096 24778822500002943   700000000000294329082025000000000021982237003930000002943                0900000000000010100000000000000000000000000000000000000   000000000000000000000000004        170192477882     
0010001300306U 060000000000000000000000000000000000000000000000000000000000000000000000219820000000000219820000000000000000000000000000002908202501092025            000000000000000                              000                           
0010001300307T 0601897X0000000092096 24778822500002949   700000000000294929082025000000000021975237033710000002949                0900000000000010100000000000000000000000000000000000000   000000000000000000000000004        170192477882     
0010001300308U 060000000000000000000000000000000000000000000000000000000000000000000000219750000000000219750000000000000000000000000000002908202501092025            000000000000000                              000                           
0010001300309T 0601897X0000000092096 24778822500002961   700000000000296129082025000000000021958237026560000002961                0900000000000010100000000000000000000000000000000000000   000000000000000000000000004        170192477882     
0010001300310U 060000000000000000000000000000000000000000000000000000000000000000000000219580000000000219580000000000000000000000000000002908202501092025            000000000000000                              000                           
0010001300311T 0601897X0000000092096 24778822500002973   700000000000297329082025000000000021958237003190000002973                0900000000000010100000000000000000000000000000000000000   000000000000000000000000004        170192477882     
0010001300312U 060000000000000000000000000000000000000000000000000000000000000000000000219580000000000219580000000000000000000000000000002908202501092025            000000000000000                              000                           
0010001300313T 0601897X0000000092096 24778822500002979   700000000000297929082025000000000021958237019890000002979                0900000000000010100000000000000000000000000000000000000   000000000000000000000000004        170192477882     
0010001300314U 060000000000000000000000000000000000000000000000000000000000000000000000219580000000000219580000000000000000000000000000002908202501092025            000000000000000                              000                           
0010001300315T 0601897X0000000092096 24778822500002997   700000000000299729082025000000000021943348000010000002997                0900000000000010100000000000000000000000000000000000000   000000000000000000000000004        170192477882     
0010001300316U 060000000000000000000000000000000000000000000000000000000000000000000000219430000000000219430000000000000000000000000000002908202501092025            000000000000000                              000                           
0010001300317T 0601897X0000000092096 24778822500003003   700000000000300329082025000000000021924341069220000003003                0900000000000010100000000000000000000000000000000000000   000000000000000000000000004        170192477882     
0010001300318U 060000000000000000000000000000000000000000000000000000000000000000000000219240000000000219240000000000000000000000000000002908202501092025            000000000000000                              000                           
0010001300319T 0601897X0000000092096 24778822500003009   700000000000300929082025000000000021892001033626000003009                0900000000000010040000000000000000000000000000000000000   000000000000000000000000034        170192477882     
0010001300320U 060000000000000000000000000000000000000000000000000000000000000000000000218920000000000218920000000000000000000000000000002908202501092025            000000000000000                              000                           
0010001300321T 0601897X0000000092096 24778822500003015   700000000000301529082025000000000021863341000500000003015                0900000000000010100000000000000000000000000000000000000   000000000000000000000000004        170192477882     
0010001300322U 060000000000000000000000000000000000000000000000000000000000000000000000218630000000000218630000000000000000000000000000002908202501092025            000000000000000                              000                           
0010001300323T 0601897X0000000092096 24778822500003027   700000000000302729082025000000000021747237023880000003027                0900000000000010100000000000000000000000000000000000000   000000000000000000000000004        170192477882     
0010001300324U 060000000000000000000000000000000000000000000000000000000000000000000000217470000000000217470000000000000000000000000000002908202501092025            000000000000000                              000                           
0010001300325T 0601897X0000000092096 24778822500003069   700000000000306929082025000000000021403341026330000003069                0900000000000010100000000000000000000000000000000000000   000000000000000000000000004        170192477882     
0010001300326U 060000000000000000000000000000000000000000000000000000000000000000000000214030000000000214030000000000000000000000000000002908202501092025            000000000000000                              000                           
0010001300327T 0601897X0000000092096 24778822500003075   700000000000307529082025000000000021345509000010000003075                0900000000000010100000000000000000000000000000000000000   000000000000000000000000004        170192477882     
0010001300328U 060000000000000000000000000000000000000000000000000000000000000000000000213450000000000213450000000000000000000000000000002908202501092025            000000000000000                              000                           
0010001300329T 0601897X0000000092096 24778822500003093   700000000000309329082025000000000021176237016170000003093                0900000000000010100000000000000000000000000000000000000   000000000000000000000000004        170192477882     
0010001300330U 060000000000000000000000000000000000000000000000000000000000000000000000211760000000000211760000000000000000000000000000002908202501092025            000000000000000                              000                           
0010001300331T 0601897X0000000092096 24778822500003099   700000000000309929082025000000000021150341000500000003099                0900000000000010100000000000000000000000000000000000000   000000000000000000000000004        170192477882     
0010001300332U 060000000000000000000000000000000000000000000000000000000000000000000000211500000000000211500000000000000000000000000000002908202501092025            000000000000000                              000                           
0010001300333T 0601897X0000000092096 24778822500003111   700000000000311129082025000000000021035341000540000003111                0900000000000010100000000000000000000000000000000000000   000000000000000000000000004        170192477882     
0010001300334U 060000000000000000000000000000000000000000000000000000000000000000000000210350000000000210350000000000000000000000000000002908202501092025            000000000000000                              000                           
0010001300335T 0601897X0000000092096 24778822500003117   700000000000311729082025000000000021003341088490000003117                0900000000000010100000000000000000000000000000000000000   000000000000000000000000004        170192477882     
0010001300336U 060000000000000000000000000000000000000000000000000000000000000000000000210030000000000210030000000000000000000000000000002908202501092025            000000000000000                              000                           
0010001300337T 0601897X0000000092096 24778822500003129   700000000000312929082025000000000020982341000410000003129                0900000000000010100000000000000000000000000000000000000   000000000000000000000000004        170192477882     
0010001300338U 060000000000000000000000000000000000000000000000000000000000000000000000209820000000000209820000000000000000000000000000002908202501092025            000000000000000                              000                           
0010001300339T 0601897X0000000092096 24778822500003135   700000000000313529082025000000000020932341000280000003135                0900000000000010100000000000000000000000000000000000000   000000000000000000000000004        170192477882     
0010001300340U 060000000000000000000000000000000000000000000000000000000000000000000000209320000000000209320000000000000000000000000000002908202501092025            000000000000000                              000                           
0010001300341T 0601897X0000000092096 24778822500003177   700000000000317729082025000000000020404001030708000003177                0900000000000010090000000000000000000000000000000000000   000000000000000000000000006        170192477882     
0010001300342U 060000000000000000000000000000000000000000000000000000000000000000000000204040000000000204040000000000000000000000000000002908202501092025            000000000000000                              000                           
0010001300343T 0601897X0000000092096 24778822500003189   700000000000318929082025000000000020376341007340000003189                0900000000000010100000000000000000000000000000000000000   000000000000000000000000004        170192477882     
0010001300344U 060000000000000000000000000000000000000000000000000000000000000000000000203760000000000203760000000000000000000000000000002908202501092025            000000000000000                              000                           
0010001300345T 0601897X0000000092096 24778822500003195   700000000000319529082025000000000020311033003030000003195                0900000000000010100000000000000000000000000000000000000   000000000000000000000000004        170192477882     
0010001300346U 060000000000000000000000000000000000000000000000000000000000000000000000203110000000000203110000000000000000000000000000002908202501092025            000000000000000                              000                           
0010001300347T 0601897X0000000092096 24778822500003201   700000000000320129082025000000000020293341001940000003201                0900000000000010100000000000000000000000000000000000000   000000000000000000000000004        170192477882     
0010001300348U 060000000000000000000000000000000000000000000000000000000000000000000000202930000000000202930000000000000000000000000000002908202501092025            000000000000000                              000                           
0010001300349T 0601897X0000000092096 24778822500003219   700000000000321929082025000000000020201237004760000003219                0900000000000010100000000000000000000000000000000000000   000000000000000000000000004        170192477882     
0010001300350U 060000000000000000000000000000000000000000000000000000000000000000000000202010000000000202010000000000000000000000000000002908202501092025            000000000000000                              000                           
0010001300351T 0601897X0000000092096 24778822500003268   700000000000326829082025000000019047590104003320000003268                0900000000000010100000000000000000000000000000000000000   000000000000000000000000004        170192477882     
0010001300352U 060000000000000000000000000000000000000000000000000000000000000000000190475900000000190475900000000000000000000000000000002908202501092025            000000000000000                              000                           
0010001300353T 0601897X0000000092096 24778822500003275   700000000000327529082025000000018059324341000190000003275                0900000000000010100000000000000000000000000000000000000   000000000000000000000000004        170192477882     
0010001300354U 060000000000000000000000000000000000000000000000000000000000000000000180593240000000180593240000000000000000000000000000002908202501092025            000000000000000                              000                           
0010001300355T 0601897X0000000092096 24778822500003282   700000000000328229082025000000010172734104003410000003282                0900000000000010100000000000000000000000000000000000000   000000000000000000000000004        170192477882     
0010001300356U 060000000000000000000000000000000000000000000000000000000000000000000101727340000000101727340000000000000000000000000000002908202501092025            000000000000000                              000                           
0010001300357T 0601897X0000000092096 24778822500003289   700000000000328929082025000000009933650001009296000003289                0900000000000010040000000000000000000000000000000000000   000000000000000000000000034        170192477882     
0010001300358U 060000000000000000000000000000000000000000000000000000000000000000000099336500000000099336500000000000000000000000000000002908202501092025            000000000000000                              000                           
0010001300359T 0601897X0000000092096 24778822500003296   700000000000329629082025000000009065195001091227000003296                0900000000000010040000000000000000000000000000000000000   000000000000000000000000034        170192477882     
0010001300360U 060000000000000000000000000000000000000000000000000000000000000000000090651950000000090651950000000000000000000000000000002908202501092025            000000000000000                              000                           
0010001300361T 0601897X0000000092096 24778822500003317   700000000000331729082025000000006595738001004596000003317                0900000000000010040000000000000000000000000000000000000   000000000000000000000000034        170192477882     
0010001300362U 060000000000000000000000000000000000000000000000000000000000000000000065957380000000065957380000000000000000000000000000002908202501092025            000000000000000                              000                           
0010001300363T 0601897X0000000092096 24778822500003338   700000000000333829082025000000004628603104019370000003338                0900000000000010100000000000000000000000000000000000000   000000000000000000000000004        170192477882     
0010001300364U 060000000000000000000000000000000000000000000000000000000000000000000046286030000000046286030000000000000000000000000000002908202501092025            000000000000000                              000                           
0010001300365T 0601897X0000000092096 24778822500003345   700000000000334529082025000000004178048001030708000003345                0900000000000010090000000000000000000000000000000000000   000000000000000000000000006        170192477882     
0010001300366U 060000000000000000000000000000000000000000000000000000000000000000000041780480000000041780480000000000000000000000000000002908202501092025            000000000000000                              000                           
0010001300367T 0601897X0000000092096 24778822500003352   700000000000335229082025000000004082413341001360000003352                0900000000000010100000000000000000000000000000000000000   000000000000000000000000004        170192477882     
0010001300368U 060000000000000000000000000000000000000000000000000000000000000000000040824130000000040824130000000000000000000000000000002908202501092025            000000000000000                              000                           
0010001300369T 0601897X0000000092096 24778822500003359   700000000000335929082025000000003703525104003630000003359                0900000000000010100000000000000000000000000000000000000   000000000000000000000000004        170192477882     
0010001300370U 060000000000000000000000000000000000000000000000000000000000000000000037035250000000037035250000000000000000000000000000002908202501092025            000000000000000                              000                           
0010001300371T 0601897X0000000092096 24778822500003366   700000000000336629082025000000003613363001026565000003366                0900000000000010040000000000000000000000000000000000000   000000000000000000000000034        170192477882     
0010001300372U 060000000000000000000000000000000000000000000000000000000000000000000036133630000000036133630000000000000000000000000000002908202501092025            000000000000000                              000                           
0010001300373T 0601897X0000000092096 24778822500003373   700000000000337329082025000000003049483001020125000003373                0900000000000010040000000000000000000000000000000000000   000000000000000000000000034        170192477882     
0010001300374U 060000000000000000000000000000000000000000000000000000000000000000000030494830000000030494830000000000000000000000000000002908202501092025            000000000000000                              000                           
0010001300375T 0601897X0000000092096 24778822500003380   700000000000338029082025000000002762554001030708000003380                0900000000000010090000000000000000000000000000000000000   000000000000000000000000006        170192477882     
0010001300376U 060000000000000000000000000000000000000000000000000000000000000000000027625540000000027625540000000000000000000000000000002908202501092025            000000000000000                              000                           
0010001300377T 0601897X0000000092096 24778822500003387   700000000000338729082025000000002611821104029090000003387                0900000000000010100000000000000000000000000000000000000   000000000000000000000000004        170192477882     
0010001300378U 060000000000000000000000000000000000000000000000000000000000000000000026118210000000026118210000000000000000000000000000002908202501092025            000000000000000                              000                           
0010001300379T 0601897X0000000092096 24778822500003401   700000000000340129082025000000002457920001030708000003401                0900000000000010090000000000000000000000000000000000000   000000000000000000000000006        170192477882     
0010001300380U 060000000000000000000000000000000000000000000000000000000000000000000024579200000000024579200000000000000000000000000000002908202501092025            000000000000000                              000                           
0010001300381T 0601897X0000000092096 24778822500003415   700000000000341529082025000000002355849341000080000003415                0900000000000010100000000000000000000000000000000000000   000000000000000000000000004        170192477882     
0010001300382U 060000000000000000000000000000000000000000000000000000000000000000000023558490000000023558490000000000000000000000000000002908202501092025            000000000000000                              000                           
0010001300383T 0601897X0000000092096 24778822500003422   700000000000342229082025000000002250018001019135000003422                0900000000000010040000000000000000000000000000000000000   000000000000000000000000034        170192477882     
0010001300384U 060000000000000000000000000000000000000000000000000000000000000000000022500180000000022500180000000000000000000000000000002908202501092025            000000000000000                              000                           
0010001300385T 0601897X0000000092096 24778822500003429   700000000000342929082025000000002160684001030708000003429                0900000000000010090000000000000000000000000000000000000   000000000000000000000000006        170192477882     
0010001300386U 060000000000000000000000000000000000000000000000000000000000000000000021606840000000021606840000000000000000000000000000002908202501092025            000000000000000                              000                           
0010001300387T 0601897X0000000092096 24778822500003436   700000000000343629082025000000002143647001065544000003436                0900000000000010040000000000000000000000000000000000000   000000000000000000000000034        170192477882     
0010001300388U 060000000000000000000000000000000000000000000000000000000000000000000021436470000000021436470000000000000000000000000000002908202501092025            000000000000000                              000                           
0010001300389T 0601897X0000000092096 24778822500003450   700000000000345029082025000000001817793001045659000003450                0900000000000010040000000000000000000000000000000000000   000000000000000000000000034        170192477882     
0010001300390U 060000000000000000000000000000000000000000000000000000000000000000000018177930000000018177930000000000000000000000000000002908202501092025            000000000000000                              000                           
0010001300391T 0601897X0000000092096 24778822500003457   700000000000345729082025000000001472295341000680000003457                0900000000000010100000000000000000000000000000000000000   000000000000000000000000004        170192477882     
0010001300392U 060000000000000000000000000000000000000000000000000000000000000000000014722950000000014722950000000000000000000000000000002908202501092025            000000000000000                              000                           
0010001300393T 0601897X0000000092096 24778822500003471   700000000000347129082025000000001414546001030708000003471                0900000000000010090000000000000000000000000000000000000   000000000000000000000000006        170192477882     
0010001300394U 060000000000000000000000000000000000000000000000000000000000000000000014145460000000014145460000000000000000000000000000002908202501092025            000000000000000                              000                           
0010001300395T 0601897X0000000092096 24778822500003499   700000000000349929082025000000001019403033020170000003499                0900000000000010100000000000000000000000000000000000000   000000000000000000000000004        170192477882     
0010001300396U 060000000000000000000000000000000000000000000000000000000000000000000010194030000000010194030000000000000000000000000000002908202501092025            000000000000000                              000                           
0010001300397T 0601897X0000000092096 24778822500003506   700000000000350629082025000000000994880001030708000003506                0900000000000010090000000000000000000000000000000000000   000000000000000000000000006        170192477882     
0010001300398U 060000000000000000000000000000000000000000000000000000000000000000000009948800000000009948800000000000000000000000000000002908202501092025            000000000000000                              000                           
0010001300399T 0601897X0000000092096 24778822500003520   700000000000352029082025000000000922969274000010000003520                0900000000000010100000000000000000000000000000000000000   000000000000000000000000004        170192477882     
0010001300400U 060000000000000000000000000000000000000000000000000000000000000000000009229690000000009229690000000000000000000000000000002908202501092025            000000000000000                              000                           
0010001300401T 0601897X0000000092096 24778822500003527   700000000000352729082025000000000911274001030708000003527                0900000000000010090000000000000000000000000000000000000   000000000000000000000000006        170192477882     
0010001300402U 060000000000000000000000000000000000000000000000000000000000000000000009112740000000009112740000000000000000000000000000002908202501092025            000000000000000                              000                           
0010001300403T 0601897X0000000092096 24778822500003541   700000000000354129082025000000000845868001030708000003541                0900000000000010090000000000000000000000000000000000000   000000000000000000000000006        170192477882     
0010001300404U 060000000000000000000000000000000000000000000000000000000000000000000008458680000000008458680000000000000000000000000000002908202501092025            000000000000000                              000                           
0010001300405T 0601897X0000000092096 24778822500003548   700000000000354829082025000000000838058001030708000003548                0900000000000010090000000000000000000000000000000000000   000000000000000000000000006        170192477882     
0010001300406U 060000000000000000000000000000000000000000000000000000000000000000000008380580000000008380580000000000000000000000000000002908202501092025            000000000000000                              000                           
0010001300407T 0601897X0000000092096 24778822500003562   700000000000356229082025000000000792026001030708000003562                0900000000000010090000000000000000000000000000000000000   000000000000000000000000006        170192477882     
0010001300408U 060000000000000000000000000000000000000000000000000000000000000000000007920260000000007920260000000000000000000000000000002908202501092025            000000000000000                              000                           
0010001300409T 0601897X0000000092096 24778822500003569   70000000000035692908202500000000078271000101916X000003569                0900000000000010040000000000000000000000000000000000000   000000000000000000000000034        170192477882     
0010001300410U 060000000000000000000000000000000000000000000000000000000000000000000007827100000000007827100000000000000000000000000000002908202501092025            000000000000000                              000                           
0010001300411T 0601897X0000000092096 24778822500003576   700000000000357629082025000000000756708001004561000003576                0900000000000010040000000000000000000000000000000000000   000000000000000000000000034        170192477882     
0010001300412U 060000000000000000000000000000000000000000000000000000000000000000000007567080000000007567080000000000000000000000000000002908202501092025            000000000000000                              000                           
