00100000         2115139610001160024778820014       01897X0000000092096 FUNDACAO AGENCIA DAS BACIAS HIBANCO DO BRASIL                         20508202502030400616703000000829973081PROCESSAMEN                                                 
00100011T0100020 20115139610001160024778820014       01897X0000000092096 FUNDACAO AGENCIA DAS BACIAS HI                                                                                000000000508202500000000  000000000                      
0010001300001T 0201897X0000000092096 24778829000008739   7000008739      29082025000000000117182001000566000008739                0900000000000010000000000000000000000000000000000000000   0000000000000000000000519A9        170192477882     
0010001300002U 020000000000000000000000000000000000000000000000000000000000000000000000000000000000000000000000000000000000000000000000000508202500000000            000000000000000                              000                           
0010001300003T 0201897X0000000092096 24778829000008740   7000008740      30092025000000000117182001000566000008740                0900000000000010000000000000000000000000000000000000000   0000000000000000000000519A9        170192477882     
0010001300004U 020000000000000000000000000000000000000000000000000000000000000000000000000000000000000000000000000000000000000000000000000508202500000000            000000000000000                              000                           
0010001300005T 0201897X0000000092096 24778829000008741   7000008741      31102025000000000117182001000566000008741                0900000000000010000000000000000000000000000000000000000   0000000000000000000000519A9        170192477882     
0010001300006U 020000000000000000000000000000000000000000000000000000000000000000000000000000000000000000000000000000000000000000000000000508202500000000            000000000000000                              000                           
0010001300007T 0201897X0000000092096 24778829000008742   7000008742      28112025000000000117182001000566000008742                0900000000000010000000000000000000000000000000000000000   0000000000000000000000519A9        170192477882     
0010001300008U 020000000000000000000000000000000000000000000000000000000000000000000000000000000000000000000000000000000000000000000000000508202500000000            000000000000000                              000                           
0010001300009T 0601897X0000000092096 24778822500001148   700000000000114831072025000000000027178001031496000001148                0900000000000010060000000000000000000000000000000000000   000000000000000000000000033        170192477882     
0010001300010U 060000000000005880000000000000000000000000000000000000000000000000000000277660000000000277660000000000000000000000000000000508202506082025            000000000000000                              000                           
0010001300011T 0601897X0000000092096 24778822500001536   700000000000153629082025000000000026349033005630000001536                0900000000000010100000000000000000000000000000000000000   000000000000000000000000004        170192477882     
0010001300012U 060000000000000000000000000000000000000000000000000000000000000000000000263490000000000263490000000000000000000000000000000508202506082025            000000000000000                              000                           
0010001300013T 0601897X0000000092096 24778822500001634   700000000000163431072025000000000024397033001490000001634                0900000000000010100000000000000000000000000000000000000   000000000000000000000000004        170192477882     
0010001300014U 060000000000005270000000000000000000000000000000000000000000000000000000249240000000000249240000000000000000000000000000000508202506082025            000000000000000                              000                           
0010001300015T 0601897X0000000092096 24778822500004157   700000000000415729082025000000000173184341042780000004157                0900000000000010100000000000000000000000000000000000000   000000000000000000000000004        170192477882     
0010001300016U 060000000000000000000000000000000000000000000000000000000000000000000001731840000000001731840000000000000000000000000000000508202506082025            000000000000000                              000                           
0010001300017T 0601897X0000000092096 24778822500005296   700000000000529631072025000000000062233748051340000005296                0900000000000010100000000000000000000000000000000000000   000000000000000000000000004        170192477882     
0010001300018U 060000000000013470000000000000000000000000000000000000000000000000000000635800000000000635800000000000000000000000000000000508202506082025            000000000000000                              000                           
0010001300019T 0601897X0000000092096 24778822500005297   700000000000529731072025000000000062234748051340000005297                0900000000000010100000000000000000000000000000000000000   000000000000000000000000004        170192477882     
0010001300020U 060000000000013470000000000000000000000000000000000000000000000000000000635810000000000635810000000000000000000000000000000508202506082025            000000000000000                              000                           
0010001300021T 0601897X0000000092096 24778822500005879   700000000000587929082025000000000044983341014030000005879                0900000000000010100000000000000000000000000000000000000   000000000000000000000000004        170192477882     
0010001300022U 060000000000000000000000000000000000000000000000000000000000000000000000449830000000000449830000000000000000000000000000000508202506082025            000000000000000                              000                           
0010001300023T 0601897X0000000092096 24778822500006859   700000000000685929082025000000000031368237013400000006859                0900000000000010100000000000000000000000000000000000000   000000000000000000000000004        170192477882     
0010001300024U 060000000000000000000000000000000000000000000000000000000000000000000000313680000000000313680000000000000000000000000000000508202506082025            000000000000000                              000                           
0010001300025T 0601897X0000000092096 24778822500007824   700000000000782431072025000000000020912341002620000007824                0900000000000010100000000000000000000000000000000000000   000000000000000000000000004        170192477882     
0010001300026U 060000000000004520000000000000000000000000000000000000000000000000000000213640000000000213640000000000000000000000000000000508202506082025            000000000000000                              000                           
0010001300027T 0601897X0000000092096 24778829000008645   7000008645      31072025000000000060242341074700000008645                0900000000000010100000000000000000000000000000000000000   000000000000000000000000004        170192477882     
0010001300028U 060000000000013040000000000000000000000000000000000000000000000000000000615460000000000615460000000000000000000000000000000508202506082025            000000000000000                              000                           
0010001300029T 0601897X0000000092096 24778829000008735   7000008735      29082025000000000025679033030750000008735                0900000000000010100000000000000000000000000000000000000   000000000000000000000000004        170192477882     
0010001300030U 060000000000000000000000000000000000000000000000000000000000000000000000256790000000000256790000000000000000000000000000000508202506082025            000000000000000                              000                           
0010001300031T 0901897X0000000092096 24778822500000009   700000000000000930062025000000001161103001009946000000009                0900000000000000000000000000000000000000000000000000000   000000000000000000000039009        170192477882     
0010001300032U 090000000000000000000000000000000000000000000000000000000000000000000000000000000000000000000000000000000000000000000000000508202500000000            000000000000000                              000                           
0010001300033T 0901897X0000000092096 24778822500000012   700000000000001230062025000000000928570001004154000000012                0900000000000000000000000000000000000000000000000000000   000000000000000000000039009        170192477882     
0010001300034U 090000000000000000000000000000000000000000000000000000000000000000000000000000000000000000000000000000000000000000000000000508202500000000            000000000000000                              000                           
0010001300035T 0901897X0000000092096 24778822500000015   700000000000001530062025000000000791850001027669000000015                0900000000000000000000000000000000000000000000000000000   000000000000000000000039009        170192477882     
0010001300036U 090000000000000000000000000000000000000000000000000000000000000000000000000000000000000000000000000000000000000000000000000508202500000000            000000000000000                              000                           
0010001300037T 0901897X0000000092096 24778822500000016   700000000000001630062025000000000757003001003018000000016                0900000000000000000000000000000000000000000000000000000   000000000000000000000039009        170192477882     
0010001300038U 090000000000000000000000000000000000000000000000000000000000000000000000000000000000000000000000000000000000000000000000000508202500000000            000000000000000                              000                           
0010001300039T 0901897X0000000092096 24778822500000023   70000000000000233006202500000000057649300100216X000000023                0900000000000000000000000000000000000000000000000000000   000000000000000000000039009        170192477882     
0010001300040U 090000000000000000000000000000000000000000000000000000000000000000000000000000000000000000000000000000000000000000000000000508202500000000            000000000000000                              000                           
0010001300041T 0901897X0000000092096 24778822500000024   700000000000002430062025000000000563077001022586000000024                0900000000000000000000000000000000000000000000000000000   000000000000000000000039009        170192477882     
0010001300042U 090000000000000000000000000000000000000000000000000000000000000000000000000000000000000000000000000000000000000000000000000508202500000000            000000000000000                              000                           
0010001300043T 0901897X0000000092096 24778822500000026   700000000000002630062025000000000484553001000566000000026                0900000000000000000000000000000000000000000000000000000   000000000000000000000039009        170192477882     
0010001300044U 090000000000000000000000000000000000000000000000000000000000000000000000000000000000000000000000000000000000000000000000000508202500000000            000000000000000                              000                           
0010001300045T 0901897X0000000092096 24778822500000037   70000000000000373006202500000000036903900101849X000000037                0900000000000000000000000000000000000000000000000000000   000000000000000000000039009        170192477882     
0010001300046U 090000000000000000000000000000000000000000000000000000000000000000000000000000000000000000000000000000000000000000000000000508202500000000            000000000000000                              000                           
0010001300047T 0901897X0000000092096 24778822500000044   700000000000004430062025000000000322043001000094000000044                0900000000000000000000000000000000000000000000000000000   000000000000000000000039009        170192477882     
0010001300048U 090000000000000000000000000000000000000000000000000000000000000000000000000000000000000000000000000000000000000000000000000508202500000000            000000000000000                              000                           
0010001300049T 0901897X0000000092096 24778822500000049   700000000000004930062025000000000292767001001678000000049                0900000000000000000000000000000000000000000000000000000   000000000000000000000039009        170192477882     
0010001300050U 090000000000000000000000000000000000000000000000000000000000000000000000000000000000000000000000000000000000000000000000000508202500000000            000000000000000                              000                           
0010001300051T 0901897X0000000092096 24778822500000058   700000000000005830062025000000000255468001001724000000058                0900000000000000000000000000000000000000000000000000000   000000000000000000000039009        170192477882     
0010001300052U 090000000000000000000000000000000000000000000000000000000000000000000000000000000000000000000000000000000000000000000000000508202500000000            000000000000000                              000                           
0010001300053T 0901897X0000000092096 24778822500000061   700000000000006130062025000000000242624001045888000000061                0900000000000000000000000000000000000000000000000000000   000000000000000000000039009        170192477882     
0010001300054U 090000000000000000000000000000000000000000000000000000000000000000000000000000000000000000000000000000000000000000000000000508202500000000            000000000000000                              000                           
0010001300055T 0901897X0000000092096 24778822500000064   700000000000006430062025000000000231261001003409000000064                0900000000000000000000000000000000000000000000000000000   000000000000000000000039009        170192477882     
0010001300056U 090000000000000000000000000000000000000000000000000000000000000000000000000000000000000000000000000000000000000000000000000508202500000000            000000000000000                              000                           
0010001300057T 0901897X0000000092096 24778822500000065   700000000000006530062025000000000228358001003409000000065                0900000000000000000000000000000000000000000000000000000   000000000000000000000039009        170192477882     
0010001300058U 090000000000000000000000000000000000000000000000000000000000000000000000000000000000000000000000000000000000000000000000000508202500000000            000000000000000                              000                           
0010001300059T 0901897X0000000092096 24778822500000070   700000000000007030062025000000000216530001003190000000070                0900000000000000000000000000000000000000000000000000000   000000000000000000000039009        170192477882     
0010001300060U 090000000000000000000000000000000000000000000000000000000000000000000000000000000000000000000000000000000000000000000000000508202500000000            000000000000000                              000                           
0010001300061T 0901897X0000000092096 24778822500000073   700000000000007330062025000000000208335001066583000000073                0900000000000000000000000000000000000000000000000000000   000000000000000000000039009        170192477882     
0010001300062U 090000000000000000000000000000000000000000000000000000000000000000000000000000000000000000000000000000000000000000000000000508202500000000            000000000000000                              000                           
0010001300063T 0901897X0000000092096 24778822500000074   700000000000007430062025000000000196476001004154000000074                0900000000000000000000000000000000000000000000000000000   000000000000000000000039009        170192477882     
0010001300064U 090000000000000000000000000000000000000000000000000000000000000000000000000000000000000000000000000000000000000000000000000508202500000000            000000000000000                              000                           
0010001300065T 0901897X0000000092096 24778822500000078   700000000000007830062025000000000188648001009903000000078                0900000000000000000000000000000000000000000000000000000   000000000000000000000039009        170192477882     
0010001300066U 090000000000000000000000000000000000000000000000000000000000000000000000000000000000000000000000000000000000000000000000000508202500000000            000000000000000                              000                           
0010001300067T 0901897X0000000092096 24778822500000083   700000000000008330062025000000000181119001021717000000083                0900000000000000000000000000000000000000000000000000000   000000000000000000000039009        170192477882     
0010001300068U 090000000000000000000000000000000000000000000000000000000000000000000000000000000000000000000000000000000000000000000000000508202500000000            000000000000000                              000                           
0010001300069T 0901897X0000000092096 24778822500000090   700000000000009030062025000000000161677001008117000000090                0900000000000000000000000000000000000000000000000000000   000000000000000000000039009        170192477882     
0010001300070U 090000000000000000000000000000000000000000000000000000000000000000000000000000000000000000000000000000000000000000000000000508202500000000            000000000000000                              000                           
0010001300071T 0901897X0000000092096 24778822500000096   700000000000009630062025000000000156331001024171000000096                0900000000000000000000000000000000000000000000000000000   000000000000000000000039009        170192477882     
0010001300072U 090000000000000000000000000000000000000000000000000000000000000000000000000000000000000000000000000000000000000000000000000508202500000000            000000000000000                              000                           
0010001300073T 0901897X0000000092096 24778822500000101   700000000000010130062025000000000146383001000094000000101                0900000000000000000000000000000000000000000000000000000   000000000000000000000039009        170192477882     
0010001300074U 090000000000000000000000000000000000000000000000000000000000000000000000000000000000000000000000000000000000000000000000000508202500000000            000000000000000                              000                           
0010001300075T 0901897X0000000092096 24778822500000105   700000000000010530062025000000000144626001009296000000105                0900000000000000000000000000000000000000000000000000000   000000000000000000000039009        170192477882     
0010001300076U 090000000000000000000000000000000000000000000000000000000000000000000000000000000000000000000000000000000000000000000000000508202500000000            000000000000000                              000                           
0010001300077T 0901897X0000000092096 24778822500000111   700000000000011130062025000000000137601001024538000000111                0900000000000000000000000000000000000000000000000000000   000000000000000000000039009        170192477882     
0010001300078U 090000000000000000000000000000000000000000000000000000000000000000000000000000000000000000000000000000000000000000000000000508202500000000            000000000000000                              000                           
0010001300079T 0901897X0000000092096 24778822500000122   700000000000012230062025000000000118960001008117000000122                0900000000000000000000000000000000000000000000000000000   000000000000000000000039009        170192477882     
0010001300080U 090000000000000000000000000000000000000000000000000000000000000000000000000000000000000000000000000000000000000000000000000508202500000000            000000000000000                              000                           
0010001300081T 0901897X0000000092096 24778822500000129   700000000000012930062025000000000114252001003190000000129                0900000000000000000000000000000000000000000000000000000   000000000000000000000039009        170192477882     
0010001300082U 090000000000000000000000000000000000000000000000000000000000000000000000000000000000000000000000000000000000000000000000000508202500000000            000000000000000                              000                           
0010001300083T 0901897X0000000092096 24778822500000130   70000000000001303006202500000000011417800101849X000000130                0900000000000000000000000000000000000000000000000000000   000000000000000000000039009        170192477882     
0010001300084U 090000000000000000000000000000000000000000000000000000000000000000000000000000000000000000000000000000000000000000000000000508202500000000            000000000000000                              000                           
0010001300085T 0901897X0000000092096 24778822500000132   700000000000013230062025000000000109787001045888000000132                0900000000000000000000000000000000000000000000000000000   000000000000000000000039009        170192477882     
0010001300086U 090000000000000000000000000000000000000000000000000000000000000000000000000000000000000000000000000000000000000000000000000508202500000000            000000000000000                              000                           
0010001300087T 0901897X0000000092096 24778822500000134   700000000000013430062025000000000108304001066583000000134                0900000000000000000000000000000000000000000000000000000   000000000000000000000039009        170192477882     
0010001300088U 090000000000000000000000000000000000000000000000000000000000000000000000000000000000000000000000000000000000000000000000000508202500000000            000000000000000                              000                           
0010001300089T 0901897X0000000092096 24778822500000136   700000000000013630062025000000000105396001003409000000136                0900000000000000000000000000000000000000000000000000000   000000000000000000000039009        170192477882     
0010001300090U 090000000000000000000000000000000000000000000000000000000000000000000000000000000000000000000000000000000000000000000000000508202500000000            000000000000000                              000                           
0010001300091T 0901897X0000000092096 24778822500000137   700000000000013730062025000000000105396001009946000000137                0900000000000000000000000000000000000000000000000000000   000000000000000000000039009        170192477882     
0010001300092U 090000000000000000000000000000000000000000000000000000000000000000000000000000000000000000000000000000000000000000000000000508202500000000            000000000000000                              000                           
0010001300093T 0901897X0000000092096 24778822500000138   700000000000013830062025000000000104544001002941000000138                0900000000000000000000000000000000000000000000000000000   000000000000000000000039009        170192477882     
0010001300094U 090000000000000000000000000000000000000000000000000000000000000000000000000000000000000000000000000000000000000000000000000508202500000000            000000000000000                              000                           
0010001300095T 0901897X0000000092096 24778822500000140   700000000000014030062025000000000103326001069833000000140                0900000000000000000000000000000000000000000000000000000   000000000000000000000039009        170192477882     
0010001300096U 090000000000000000000000000000000000000000000000000000000000000000000000000000000000000000000000000000000000000000000000000508202500000000            000000000000000                              000                           
0010001300097T 0901897X0000000092096 24778822500000142   700000000000014230062025000000000102469001003018000000142                0900000000000000000000000000000000000000000000000000000   000000000000000000000039009        170192477882     
0010001300098U 090000000000000000000000000000000000000000000000000000000000000000000000000000000000000000000000000000000000000000000000000508202500000000            000000000000000                              000                           
0010001300099T 0901897X0000000092096 24778822500000143   700000000000014330062025000000000102468001003018000000143                0900000000000000000000000000000000000000000000000000000   000000000000000000000039009        170192477882     
0010001300100U 090000000000000000000000000000000000000000000000000000000000000000000000000000000000000000000000000000000000000000000000000508202500000000            000000000000000                              000                           
0010001300101T 0901897X0000000092096 24778822500000147   700000000000014730062025000000000099541001003018000000147                0900000000000000000000000000000000000000000000000000000   000000000000000000000039009        170192477882     
0010001300102U 090000000000000000000000000000000000000000000000000000000000000000000000000000000000000000000000000000000000000000000000000508202500000000            000000000000000                              000                           
0010001300103T 0901897X0000000092096 24778822500000149   700000000000014930062025000000000097600001000566000000149                0900000000000000000000000000000000000000000000000000000   000000000000000000000039009        170192477882     
0010001300104U 090000000000000000000000000000000000000000000000000000000000000000000000000000000000000000000000000000000000000000000000000508202500000000            000000000000000                              000                           
0010001300105T 0901897X0000000092096 24778822500000151   700000000000015130062025000000000094741001024171000000151                0900000000000000000000000000000000000000000000000000000   000000000000000000000039009        170192477882     
0010001300106U 090000000000000000000000000000000000000000000000000000000000000000000000000000000000000000000000000000000000000000000000000508202500000000            000000000000000                              000                           
0010001300107T 0901897X0000000092096 24778822500000153   70000000000001533006202500000000009368100101513X000000153                0900000000000000000000000000000000000000000000000000000   000000000000000000000039009        170192477882     
0010001300108U 090000000000000000000000000000000000000000000000000000000000000000000000000000000000000000000000000000000000000000000000000508202500000000            000000000000000                              000                           
0010001300109T 0901897X0000000092096 24778822500000155   700000000000015530062025000000000091136001022004000000155                0900000000000000000000000000000000000000000000000000000   000000000000000000000039009        170192477882     
0010001300110U 090000000000000000000000000000000000000000000000000000000000000000000000000000000000000000000000000000000000000000000000000508202500000000            000000000000000                              000                           
0010001300111T 0901897X0000000092096 24778822500000159   700000000000015930062025000000000089587001003018000000159                0900000000000000000000000000000000000000000000000000000   000000000000000000000039009        170192477882     
0010001300112U 090000000000000000000000000000000000000000000000000000000000000000000000000000000000000000000000000000000000000000000000000508202500000000            000000000000000                              000                           
0010001300113T 0901897X0000000092096 24778822500000161   700000000000016130062025000000000088632001001678000000161                0900000000000000000000000000000000000000000000000000000   000000000000000000000039009        170192477882     
0010001300114U 090000000000000000000000000000000000000000000000000000000000000000000000000000000000000000000000000000000000000000000000000508202500000000            000000000000000                              000                           
0010001300115T 0901897X0000000092096 24778822500000172   700000000000017230062025000000000078830001016675000000172                0900000000000000000000000000000000000000000000000000000   000000000000000000000039009        170192477882     
0010001300116U 090000000000000000000000000000000000000000000000000000000000000000000000000000000000000000000000000000000000000000000000000508202500000000            000000000000000                              000                           
0010001300117T 0901897X0000000092096 24778822500000175   700000000000017530062025000000000077002001014753000000175                0900000000000000000000000000000000000000000000000000000   000000000000000000000039009        170192477882     
0010001300118U 090000000000000000000000000000000000000000000000000000000000000000000000000000000000000000000000000000000000000000000000000508202500000000            000000000000000                              000                           
0010001300119T 0901897X0000000092096 24778822500000176   700000000000017630062025000000000076445001003018000000176                0900000000000000000000000000000000000000000000000000000   000000000000000000000039009        170192477882     
0010001300120U 090000000000000000000000000000000000000000000000000000000000000000000000000000000000000000000000000000000000000000000000000508202500000000            000000000000000                              000                           
0010001300121T 0901897X0000000092096 24778822500000177   700000000000017730062025000000000074532001007994000000177                0900000000000000000000000000000000000000000000000000000   000000000000000000000039009        170192477882     
0010001300122U 090000000000000000000000000000000000000000000000000000000000000000000000000000000000000000000000000000000000000000000000000508202500000000            000000000000000                              000                           
0010001300123T 0901897X0000000092096 24778822500000180   700000000000018030062025000000000073248001007994000000180                0900000000000000000000000000000000000000000000000000000   000000000000000000000039009        170192477882     
0010001300124U 090000000000000000000000000000000000000000000000000000000000000000000000000000000000000000000000000000000000000000000000000508202500000000            000000000000000                              000                           
0010001300125T 0901897X0000000092096 24778822500000183   700000000000018330062025000000000073191001045888000000183                0900000000000000000000000000000000000000000000000000000   000000000000000000000039009        170192477882     
0010001300126U 090000000000000000000000000000000000000000000000000000000000000000000000000000000000000000000000000000000000000000000000000508202500000000            000000000000000                              000                           
0010001300127T 0901897X0000000092096 24778822500000184   700000000000018430062025000000000073191001008117000000184                0900000000000000000000000000000000000000000000000000000   000000000000000000000039009        170192477882     
0010001300128U 090000000000000000000000000000000000000000000000000000000000000000000000000000000000000000000000000000000000000000000000000508202500000000            000000000000000                              000                           
0010001300129T 0901897X0000000092096 24778822500000186   700000000000018630062025000000000072021001004154000000186                0900000000000000000000000000000000000000000000000000000   000000000000000000000039009        170192477882     
0010001300130U 090000000000000000000000000000000000000000000000000000000000000000000000000000000000000000000000000000000000000000000000000508202500000000            000000000000000                              000                           
0010001300131T 0901897X0000000092096 24778822500000191   700000000000019130062025000000000070264001027669000000191                0900000000000000000000000000000000000000000000000000000   000000000000000000000039009        170192477882     
0010001300132U 090000000000000000000000000000000000000000000000000000000000000000000000000000000000000000000000000000000000000000000000000508202500000000            000000000000000                              000                           
0010001300133T 0901897X0000000092096 24778822500000192   700000000000019230062025000000000070264001003018000000192                0900000000000000000000000000000000000000000000000000000   000000000000000000000039009        170192477882     
0010001300134U 090000000000000000000000000000000000000000000000000000000000000000000000000000000000000000000000000000000000000000000000000508202500000000            000000000000000                              000                           
0010001300135T 0901897X0000000092096 24778822500000193   700000000000019330062025000000000069346001003190000000193                0900000000000000000000000000000000000000000000000000000   000000000000000000000039009        170192477882     
0010001300136U 090000000000000000000000000000000000000000000000000000000000000000000000000000000000000000000000000000000000000000000000000508202500000000            000000000000000                              000                           
0010001300137T 0901897X0000000092096 24778822500000194   700000000000019430062025000000000069157001008117000000194                0900000000000000000000000000000000000000000000000000000   000000000000000000000039009        170192477882     
0010001300138U 090000000000000000000000000000000000000000000000000000000000000000000000000000000000000000000000000000000000000000000000000508202500000000            000000000000000                              000                           
0010001300139T 0901897X0000000092096 24778822500000195   700000000000019530062025000000000066377001003409000000195                0900000000000000000000000000000000000000000000000000000   000000000000000000000039009        170192477882     
0010001300140U 090000000000000000000000000000000000000000000000000000000000000000000000000000000000000000000000000000000000000000000000000508202500000000            000000000000000                              000                           
0010001300141T 0901897X0000000092096 24778822500000196   700000000000019630062025000000000065873001003409000000196                0900000000000000000000000000000000000000000000000000000   000000000000000000000039009        170192477882     
0010001300142U 090000000000000000000000000000000000000000000000000000000000000000000000000000000000000000000000000000000000000000000000000508202500000000            000000000000000                              000                           
0010001300143T 0901897X0000000092096 24778822500000203   700000000000020330062025000000000062124001009903000000203                0900000000000000000000000000000000000000000000000000000   000000000000000000000039009        170192477882     
0010001300144U 090000000000000000000000000000000000000000000000000000000000000000000000000000000000000000000000000000000000000000000000000508202500000000            000000000000000                              000                           
0010001300145T 0901897X0000000092096 24778822500000204   700000000000020430062025000000000061603001009946000000204                0900000000000000000000000000000000000000000000000000000   000000000000000000000039009        170192477882     
0010001300146U 090000000000000000000000000000000000000000000000000000000000000000000000000000000000000000000000000000000000000000000000000508202500000000            000000000000000                              000                           
0010001300147T 0901897X0000000092096 24778822500000206   700000000000020630062025000000000061480001000760000000206                0900000000000000000000000000000000000000000000000000000   000000000000000000000039009        170192477882     
0010001300148U 090000000000000000000000000000000000000000000000000000000000000000000000000000000000000000000000000000000000000000000000000508202500000000            000000000000000                              000                           
0010001300149T 0901897X0000000092096 24778822500000207   70000000000002073006202500000000006063100101849X000000207                0900000000000000000000000000000000000000000000000000000   000000000000000000000039009        170192477882     
0010001300150U 090000000000000000000000000000000000000000000000000000000000000000000000000000000000000000000000000000000000000000000000000508202500000000            000000000000000                              000                           
0010001300151T 0901897X0000000092096 24778822500000211   700000000000021130062025000000000059397001000566000000211                0900000000000000000000000000000000000000000000000000000   000000000000000000000039009        170192477882     
0010001300152U 090000000000000000000000000000000000000000000000000000000000000000000000000000000000000000000000000000000000000000000000000508202500000000            000000000000000                              000                           
0010001300153T 0901897X0000000092096 24778822500000214   700000000000021430062025000000000058553001043036000000214                0900000000000000000000000000000000000000000000000000000   000000000000000000000039009        170192477882     
0010001300154U 090000000000000000000000000000000000000000000000000000000000000000000000000000000000000000000000000000000000000000000000000508202500000000            000000000000000                              000                           
0010001300155T 0901897X0000000092096 24778822500000218   700000000000021830062025000000000058144001004154000000218                0900000000000000000000000000000000000000000000000000000   000000000000000000000039009        170192477882     
0010001300156U 090000000000000000000000000000000000000000000000000000000000000000000000000000000000000000000000000000000000000000000000000508202500000000            000000000000000                              000                           
0010001300157T 0901897X0000000092096 24778822500000223   70000000000002233006202500000000005505600101849X000000223                0900000000000000000000000000000000000000000000000000000   000000000000000000000039009        170192477882     
0010001300158U 090000000000000000000000000000000000000000000000000000000000000000000000000000000000000000000000000000000000000000000000000508202500000000            000000000000000                              000                           
0010001300159T 0901897X0000000092096 24778822500000226   700000000000022630062025000000000054783001045888000000226                0900000000000000000000000000000000000000000000000000000   000000000000000000000039009        170192477882     
0010001300160U 090000000000000000000000000000000000000000000000000000000000000000000000000000000000000000000000000000000000000000000000000508202500000000            000000000000000                              000                           
0010001300161T 0901897X0000000092096 24778822500000231   700000000000023130062025000000000053544001009903000000231                0900000000000000000000000000000000000000000000000000000   000000000000000000000039009        170192477882     
0010001300162U 090000000000000000000000000000000000000000000000000000000000000000000000000000000000000000000000000000000000000000000000000508202500000000            000000000000000                              000                           
0010001300163T 0901897X0000000092096 24778822500000232   700000000000023230062025000000000053168001009946000000232                0900000000000000000000000000000000000000000000000000000   000000000000000000000039009        170192477882     
0010001300164U 090000000000000000000000000000000000000000000000000000000000000000000000000000000000000000000000000000000000000000000000000508202500000000            000000000000000                              000                           
0010001300165T 0901897X0000000092096 24778822500000239   700000000000023930062025000000000050051001009946000000239                0900000000000000000000000000000000000000000000000000000   000000000000000000000039009        170192477882     
0010001300166U 090000000000000000000000000000000000000000000000000000000000000000000000000000000000000000000000000000000000000000000000000508202500000000            000000000000000                              000                           
0010001300167T 0901897X0000000092096 24778822500000242   70000000000002423006202500000000004854800101849X000000242                0900000000000000000000000000000000000000000000000000000   000000000000000000000039009        170192477882     
0010001300168U 090000000000000000000000000000000000000000000000000000000000000000000000000000000000000000000000000000000000000000000000000508202500000000            000000000000000                              000                           
0010001300169T 0901897X0000000092096 24778822500000243   700000000000024330062025000000000048307001003018000000243                0900000000000000000000000000000000000000000000000000000   000000000000000000000039009        170192477882     
0010001300170U 090000000000000000000000000000000000000000000000000000000000000000000000000000000000000000000000000000000000000000000000000508202500000000            000000000000000                              000                           
0010001300171T 0901897X0000000092096 24778822500000244   700000000000024430062025000000000048202001009946000000244                0900000000000000000000000000000000000000000000000000000   000000000000000000000039009        170192477882     
0010001300172U 090000000000000000000000000000000000000000000000000000000000000000000000000000000000000000000000000000000000000000000000000508202500000000            000000000000000                              000                           
0010001300173T 0901897X0000000092096 24778822500000248   700000000000024830062025000000000046843001003018000000248                0900000000000000000000000000000000000000000000000000000   000000000000000000000039009        170192477882     
0010001300174U 090000000000000000000000000000000000000000000000000000000000000000000000000000000000000000000000000000000000000000000000000508202500000000            000000000000000                              000                           
0010001300175T 0901897X0000000092096 24778822500000251   700000000000025130062025000000000046323001003190000000251                0900000000000000000000000000000000000000000000000000000   000000000000000000000039009        170192477882     
0010001300176U 090000000000000000000000000000000000000000000000000000000000000000000000000000000000000000000000000000000000000000000000000508202500000000            000000000000000                              000                           
0010001300177T 0901897X0000000092096 24778822500000255   700000000000025530062025000000000044647001003409000000255                0900000000000000000000000000000000000000000000000000000   000000000000000000000039009        170192477882     
0010001300178U 090000000000000000000000000000000000000000000000000000000000000000000000000000000000000000000000000000000000000000000000000508202500000000            000000000000000                              000                           
0010001300179T 0901897X0000000092096 24778822500000259   70000000000002593006202500000000004391400101849X000000259                0900000000000000000000000000000000000000000000000000000   000000000000000000000039009        170192477882     
0010001300180U 090000000000000000000000000000000000000000000000000000000000000000000000000000000000000000000000000000000000000000000000000508202500000000            000000000000000                              000                           
0010001300181T 0901897X0000000092096 24778822500000271   700000000000027130062025000000000041930001003018000000271                0900000000000000000000000000000000000000000000000000000   000000000000000000000039009        170192477882     
0010001300182U 090000000000000000000000000000000000000000000000000000000000000000000000000000000000000000000000000000000000000000000000000508202500000000            000000000000000                              000                           
0010001300183T 0901897X0000000092096 24778822500000272   700000000000027230062025000000000041870001000566000000272                0900000000000000000000000000000000000000000000000000000   000000000000000000000039009        170192477882     
0010001300184U 090000000000000000000000000000000000000000000000000000000000000000000000000000000000000000000000000000000000000000000000000508202500000000            000000000000000                              000                           
0010001300185T 0901897X0000000092096 24778822500000276   700000000000027630062025000000000040917001024171000000276                0900000000000000000000000000000000000000000000000000000   000000000000000000000039009        170192477882     
0010001300186U 090000000000000000000000000000000000000000000000000000000000000000000000000000000000000000000000000000000000000000000000000508202500000000            000000000000000                              000                           
0010001300187T 0901897X0000000092096 24778822500000277   700000000000027730062025000000000040807001066583000000277                0900000000000000000000000000000000000000000000000000000   000000000000000000000039009        170192477882     
0010001300188U 090000000000000000000000000000000000000000000000000000000000000000000000000000000000000000000000000000000000000000000000000508202500000000            000000000000000                              000                           
0010001300189T 0901897X0000000092096 24778822500000279   700000000000027930062025000000000039880001000337000000279                0900000000000000000000000000000000000000000000000000000   000000000000000000000039009        170192477882     
0010001300190U 090000000000000000000000000000000000000000000000000000000000000000000000000000000000000000000000000000000000000000000000000508202500000000            000000000000000                              000                           
0010001300191T 0901897X0000000092096 24778822500000280   700000000000028030062025000000000039816001005789000000280                0900000000000000000000000000000000000000000000000000000   000000000000000000000039009        170192477882     
0010001300192U 090000000000000000000000000000000000000000000000000000000000000000000000000000000000000000000000000000000000000000000000000508202500000000            000000000000000                              000                           
0010001300193T 0901897X0000000092096 24778822500000281   700000000000028130062025000000000039684001014753000000281                0900000000000000000000000000000000000000000000000000000   000000000000000000000039009        170192477882     
0010001300194U 090000000000000000000000000000000000000000000000000000000000000000000000000000000000000000000000000000000000000000000000000508202500000000            000000000000000                              000                           
0010001300195T 0901897X0000000092096 24778822500000282   70000000000002823006202500000000003964300100295X000000282                0900000000000000000000000000000000000000000000000000000   000000000000000000000039009        170192477882     
0010001300196U 090000000000000000000000000000000000000000000000000000000000000000000000000000000000000000000000000000000000000000000000000508202500000000            000000000000000                              000                           
0010001300197T 0901897X0000000092096 24778822500000286   700000000000028630062025000000000039523001043036000000286                0900000000000000000000000000000000000000000000000000000   000000000000000000000039009        170192477882     
0010001300198U 090000000000000000000000000000000000000000000000000000000000000000000000000000000000000000000000000000000000000000000000000508202500000000            000000000000000                              000                           
0010001300199T 0901897X0000000092096 24778822500000289   700000000000028930062025000000000039399001000566000000289                0900000000000000000000000000000000000000000000000000000   000000000000000000000039009        170192477882     
0010001300200U 090000000000000000000000000000000000000000000000000000000000000000000000000000000000000000000000000000000000000000000000000508202500000000            000000000000000                              000                           
0010001300201T 0901897X0000000092096 24778822500000290   70000000000002903006202500000000003933900101513X000000290                0900000000000000000000000000000000000000000000000000000   000000000000000000000039009        170192477882     
0010001300202U 090000000000000000000000000000000000000000000000000000000000000000000000000000000000000000000000000000000000000000000000000508202500000000            000000000000000                              000                           
0010001300203T 0901897X0000000092096 24778822500000294   700000000000029430062025000000000038993001000566000000294                0900000000000000000000000000000000000000000000000000000   000000000000000000000039009        170192477882     
0010001300204U 090000000000000000000000000000000000000000000000000000000000000000000000000000000000000000000000000000000000000000000000000508202500000000            000000000000000                              000                           
0010001300205T 0901897X0000000092096 24778822500000298   700000000000029830062025000000000038561001024171000000298                0900000000000000000000000000000000000000000000000000000   000000000000000000000039009        170192477882     
0010001300206U 090000000000000000000000000000000000000000000000000000000000000000000000000000000000000000000000000000000000000000000000000508202500000000            000000000000000                              000                           
0010001300207T 0901897X0000000092096 24778822500000299   700000000000029930062025000000000038538001069833000000299                0900000000000000000000000000000000000000000000000000000   000000000000000000000039009        170192477882     
0010001300208U 090000000000000000000000000000000000000000000000000000000000000000000000000000000000000000000000000000000000000000000000000508202500000000            000000000000000                              000                           
0010001300209T 0901897X0000000092096 24778822500000301   700000000000030130062025000000000038501001024538000000301                0900000000000000000000000000000000000000000000000000000   000000000000000000000039009        170192477882     
0010001300210U 090000000000000000000000000000000000000000000000000000000000000000000000000000000000000000000000000000000000000000000000000508202500000000            000000000000000                              000                           
0010001300211T 0901897X0000000092096 24778822500000302   700000000000030230062025000000000038411001014753000000302                0900000000000000000000000000000000000000000000000000000   000000000000000000000039009        170192477882     
0010001300212U 090000000000000000000000000000000000000000000000000000000000000000000000000000000000000000000000000000000000000000000000000508202500000000            000000000000000                              000                           
0010001300213T 0901897X0000000092096 24778822500000305   700000000000030530062025000000000038059001006998000000305                0900000000000000000000000000000000000000000000000000000   000000000000000000000039009        170192477882     
0010001300214U 090000000000000000000000000000000000000000000000000000000000000000000000000000000000000000000000000000000000000000000000000508202500000000            000000000000000                              000                           
0010001300215T 0901897X0000000092096 24778822500000307   700000000000030730062025000000000037900001024171000000307                0900000000000000000000000000000000000000000000000000000   000000000000000000000039009        170192477882     
0010001300216U 090000000000000000000000000000000000000000000000000000000000000000000000000000000000000000000000000000000000000000000000000508202500000000            000000000000000                              000                           
0010001300217T 0901897X0000000092096 24778822500000308   700000000000030830062025000000000037731001008117000000308                0900000000000000000000000000000000000000000000000000000   000000000000000000000039009        170192477882     
0010001300218U 090000000000000000000000000000000000000000000000000000000000000000000000000000000000000000000000000000000000000000000000000508202500000000            000000000000000                              000                           
0010001300219T 0901897X0000000092096 24778822500000313   700000000000031330062025000000000037474001003018000000313                0900000000000000000000000000000000000000000000000000000   000000000000000000000039009        170192477882     
0010001300220U 090000000000000000000000000000000000000000000000000000000000000000000000000000000000000000000000000000000000000000000000000508202500000000            000000000000000                              000                           
0010001300221T 0901897X0000000092096 24778822500000315   700000000000031530062025000000000037342001003409000000315                0900000000000000000000000000000000000000000000000000000   000000000000000000000039009        170192477882     
0010001300222U 090000000000000000000000000000000000000000000000000000000000000000000000000000000000000000000000000000000000000000000000000508202500000000            000000000000000                              000                           
0010001300223T 0901897X0000000092096 24778822500000316   70000000000003163006202500000000003734000101849X000000316                0900000000000000000000000000000000000000000000000000000   000000000000000000000039009        170192477882     
0010001300224U 090000000000000000000000000000000000000000000000000000000000000000000000000000000000000000000000000000000000000000000000000508202500000000            000000000000000                              000                           
0010001300225T 0901897X0000000092096 24778822500000317   700000000000031730062025000000000037240001003018000000317                0900000000000000000000000000000000000000000000000000000   000000000000000000000039009        170192477882     
0010001300226U 090000000000000000000000000000000000000000000000000000000000000000000000000000000000000000000000000000000000000000000000000508202500000000            000000000000000                              000                           
0010001300227T 0901897X0000000092096 24778822500000321   700000000000032130062025000000000036903001003409000000321                0900000000000000000000000000000000000000000000000000000   000000000000000000000039009        170192477882     
0010001300228U 090000000000000000000000000000000000000000000000000000000000000000000000000000000000000000000000000000000000000000000000000508202500000000            000000000000000                              000                           
0010001300229T 0901897X0000000092096 24778822500000327   70000000000003273006202500000000003660600100216X000000327                0900000000000000000000000000000000000000000000000000000   000000000000000000000039009        170192477882     
0010001300230U 090000000000000000000000000000000000000000000000000000000000000000000000000000000000000000000000000000000000000000000000000508202500000000            000000000000000                              000                           
0010001300231T 0901897X0000000092096 24778822500000329   70000000000003293006202500000000003659600100216X000000329                0900000000000000000000000000000000000000000000000000000   000000000000000000000039009        170192477882     
0010001300232U 090000000000000000000000000000000000000000000000000000000000000000000000000000000000000000000000000000000000000000000000000508202500000000            000000000000000                              000                           
0010001300233T 0901897X0000000092096 24778822500000330   700000000000033030062025000000000036596001024279000000330                0900000000000000000000000000000000000000000000000000000   000000000000000000000039009        170192477882     
0010001300234U 090000000000000000000000000000000000000000000000000000000000000000000000000000000000000000000000000000000000000000000000000508202500000000            000000000000000                              000                           
0010001300235T 0901897X0000000092096 24778822500000331   700000000000033130062025000000000036596001004596000000331                0900000000000000000000000000000000000000000000000000000   000000000000000000000039009        170192477882     
0010001300236U 090000000000000000000000000000000000000000000000000000000000000000000000000000000000000000000000000000000000000000000000000508202500000000            000000000000000                              000                           
0010001300237T 0901897X0000000092096 24778822500000333   70000000000003333006202500000000003659600100216X000000333                0900000000000000000000000000000000000000000000000000000   000000000000000000000039009        170192477882     
0010001300238U 090000000000000000000000000000000000000000000000000000000000000000000000000000000000000000000000000000000000000000000000000508202500000000            000000000000000                              000                           
0010001300239T 0901897X0000000092096 24778822500000334   700000000000033430062025000000000036596001004154000000334                0900000000000000000000000000000000000000000000000000000   000000000000000000000039009        170192477882     
0010001300240U 090000000000000000000000000000000000000000000000000000000000000000000000000000000000000000000000000000000000000000000000000508202500000000            000000000000000                              000                           
0010001300241T 0901897X0000000092096 24778822500000335   70000000000003353006202500000000003659600101513X000000335                0900000000000000000000000000000000000000000000000000000   000000000000000000000039009        170192477882     
0010001300242U 090000000000000000000000000000000000000000000000000000000000000000000000000000000000000000000000000000000000000000000000000508202500000000            000000000000000                              000                           
0010001300243T 0901897X0000000092096 24778822500000338   700000000000033830062025000000000036596001005789000000338                0900000000000000000000000000000000000000000000000000000   000000000000000000000039009        170192477882     
0010001300244U 090000000000000000000000000000000000000000000000000000000000000000000000000000000000000000000000000000000000000000000000000508202500000000            000000000000000                              000                           
0010001300245T 0901897X0000000092096 24778822500000342   700000000000034230062025000000000036398001009296000000342                0900000000000000000000000000000000000000000000000000000   000000000000000000000039009        170192477882     
0010001300246U 090000000000000000000000000000000000000000000000000000000000000000000000000000000000000000000000000000000000000000000000000508202500000000            000000000000000                              000                           
0010001300247T 0901897X0000000092096 24778822500000347   700000000000034730062025000000000036095001006998000000347                0900000000000000000000000000000000000000000000000000000   000000000000000000000039009        170192477882     
0010001300248U 090000000000000000000000000000000000000000000000000000000000000000000000000000000000000000000000000000000000000000000000000508202500000000            000000000000000                              000                           
0010001300249T 0901897X0000000092096 24778822500000351   700000000000035130062025000000000035893001000566000000351                0900000000000000000000000000000000000000000000000000000   000000000000000000000039009        170192477882     
0010001300250U 090000000000000000000000000000000000000000000000000000000000000000000000000000000000000000000000000000000000000000000000000508202500000000            000000000000000                              000                           
0010001300251T 0901897X0000000092096 24778822500000352   700000000000035230062025000000000035864001003190000000352                0900000000000000000000000000000000000000000000000000000   000000000000000000000039009        170192477882     
0010001300252U 090000000000000000000000000000000000000000000000000000000000000000000000000000000000000000000000000000000000000000000000000508202500000000            000000000000000                              000                           
0010001300253T 0901897X0000000092096 24778822500000354   70000000000003543006202500000000003575400101172X000000354                0900000000000000000000000000000000000000000000000000000   000000000000000000000039009        170192477882     
0010001300254U 090000000000000000000000000000000000000000000000000000000000000000000000000000000000000000000000000000000000000000000000000508202500000000            000000000000000                              000                           
0010001300255T 0901897X0000000092096 24778822500000363   700000000000036330062025000000000035324001001724000000363                0900000000000000000000000000000000000000000000000000000   000000000000000000000039009        170192477882     
0010001300256U 090000000000000000000000000000000000000000000000000000000000000000000000000000000000000000000000000000000000000000000000000508202500000000            000000000000000                              000                           
0010001300257T 0901897X0000000092096 24778822500000365   700000000000036530062025000000000035132001003018000000365                0900000000000000000000000000000000000000000000000000000   000000000000000000000039009        170192477882     
0010001300258U 090000000000000000000000000000000000000000000000000000000000000000000000000000000000000000000000000000000000000000000000000508202500000000            000000000000000                              000                           
0010001300259T 0901897X0000000092096 24778822500000368   700000000000036830062025000000000035132001004561000000368                0900000000000000000000000000000000000000000000000000000   000000000000000000000039009        170192477882     
0010001300260U 090000000000000000000000000000000000000000000000000000000000000000000000000000000000000000000000000000000000000000000000000508202500000000            000000000000000                              000                           
0010001300261T 0901897X0000000092096 24778822500000369   700000000000036930062025000000000035132001023248000000369                0900000000000000000000000000000000000000000000000000000   000000000000000000000039009        170192477882     
0010001300262U 090000000000000000000000000000000000000000000000000000000000000000000000000000000000000000000000000000000000000000000000000508202500000000            000000000000000                              000                           
0010001300263T 0901897X0000000092096 24778822500000373   700000000000037330062025000000000035132001004154000000373                0900000000000000000000000000000000000000000000000000000   000000000000000000000039009        170192477882     
0010001300264U 090000000000000000000000000000000000000000000000000000000000000000000000000000000000000000000000000000000000000000000000000508202500000000            000000000000000                              000                           
0010001300265T 0901897X0000000092096 24778822500000375   70000000000003753006202500000000003513100100216X000000375                0900000000000000000000000000000000000000000000000000000   000000000000000000000039009        170192477882     
0010001300266U 090000000000000000000000000000000000000000000000000000000000000000000000000000000000000000000000000000000000000000000000000508202500000000            000000000000000                              000                           
0010001300267T 0901897X0000000092096 24778822500000376   700000000000037630062025000000000035036001003409000000376                0900000000000000000000000000000000000000000000000000000   000000000000000000000039009        170192477882     
0010001300268U 090000000000000000000000000000000000000000000000000000000000000000000000000000000000000000000000000000000000000000000000000508202500000000            000000000000000                              000                           
0010001300269T 0901897X0000000092096 24778822500000377   700000000000037730062025000000000035036001043036000000377                0900000000000000000000000000000000000000000000000000000   000000000000000000000039009        170192477882     
0010001300270U 090000000000000000000000000000000000000000000000000000000000000000000000000000000000000000000000000000000000000000000000000508202500000000            000000000000000                              000                           
0010001300271T 0901897X0000000092096 24778822500000380   700000000000038030062025000000000034651001003018000000380                0900000000000000000000000000000000000000000000000000000   000000000000000000000039009        170192477882     
0010001300272U 090000000000000000000000000000000000000000000000000000000000000000000000000000000000000000000000000000000000000000000000000508202500000000            000000000000000                              000                           
0010001300273T 0901897X0000000092096 24778822500000381   700000000000038130062025000000000034651001003409000000381                0900000000000000000000000000000000000000000000000000000   000000000000000000000039009        170192477882     
0010001300274U 090000000000000000000000000000000000000000000000000000000000000000000000000000000000000000000000000000000000000000000000000508202500000000            000000000000000                              000                           
0010001300275T 0901897X0000000092096 24778822500000383   700000000000038330062025000000000034635001022004000000383                0900000000000000000000000000000000000000000000000000000   000000000000000000000039009        170192477882     
0010001300276U 090000000000000000000000000000000000000000000000000000000000000000000000000000000000000000000000000000000000000000000000000508202500000000            000000000000000                              000                           
0010001300277T 0901897X0000000092096 24778822500000385   700000000000038530062025000000000034546001001678000000385                0900000000000000000000000000000000000000000000000000000   000000000000000000000039009        170192477882     
0010001300278U 090000000000000000000000000000000000000000000000000000000000000000000000000000000000000000000000000000000000000000000000000508202500000000            000000000000000                              000                           
0010001300279T 0901897X0000000092096 24778822500000386   700000000000038630062025000000000034516001069833000000386                0900000000000000000000000000000000000000000000000000000   000000000000000000000039009        170192477882     
0010001300280U 090000000000000000000000000000000000000000000000000000000000000000000000000000000000000000000000000000000000000000000000000508202500000000            000000000000000                              000                           
0010001300281T 0901897X0000000092096 24778822500000387   700000000000038730062025000000000034500001024279000000387                0900000000000000000000000000000000000000000000000000000   000000000000000000000039009        170192477882     
0010001300282U 090000000000000000000000000000000000000000000000000000000000000000000000000000000000000000000000000000000000000000000000000508202500000000            000000000000000                              000                           
0010001300283T 0901897X0000000092096 24778822500000390   700000000000039030062025000000000034085001001724000000390                0900000000000000000000000000000000000000000000000000000   000000000000000000000039009        170192477882     
0010001300284U 090000000000000000000000000000000000000000000000000000000000000000000000000000000000000000000000000000000000000000000000000508202500000000            000000000000000                              000                           
0010001300285T 0901897X0000000092096 24778822500000391   700000000000039130062025000000000033976001003190000000391                0900000000000000000000000000000000000000000000000000000   000000000000000000000039009        170192477882     
0010001300286U 090000000000000000000000000000000000000000000000000000000000000000000000000000000000000000000000000000000000000000000000000508202500000000            000000000000000                              000                           
0010001300287T 0901897X0000000092096 24778822500000400   700000000000040030062025000000000033626001004561000000400                0900000000000000000000000000000000000000000000000000000   000000000000000000000039009        170192477882     
0010001300288U 090000000000000000000000000000000000000000000000000000000000000000000000000000000000000000000000000000000000000000000000000508202500000000            000000000000000                              000                           
0010001300289T 0901897X0000000092096 24778822500000402   700000000000040230062025000000000033567001001678000000402                0900000000000000000000000000000000000000000000000000000   000000000000000000000039009        170192477882     
0010001300290U 090000000000000000000000000000000000000000000000000000000000000000000000000000000000000000000000000000000000000000000000000508202500000000            000000000000000                              000                           
0010001300291T 0901897X0000000092096 24778822500000403   70000000000004033006202500000000003343000101513X000000403                0900000000000000000000000000000000000000000000000000000   000000000000000000000039009        170192477882     
0010001300292U 090000000000000000000000000000000000000000000000000000000000000000000000000000000000000000000000000000000000000000000000000508202500000000            000000000000000                              000                           
0010001300293T 0901897X0000000092096 24778822500000408   700000000000040830062025000000000033022001007994000000408                0900000000000000000000000000000000000000000000000000000   000000000000000000000039009        170192477882     
0010001300294U 090000000000000000000000000000000000000000000000000000000000000000000000000000000000000000000000000000000000000000000000000508202500000000            000000000000000                              000                           
0010001300295T 0901897X0000000092096 24778822500000409   700000000000040930062025000000000032936001020125000000409                0900000000000000000000000000000000000000000000000000000   000000000000000000000039009        170192477882     
0010001300296U 090000000000000000000000000000000000000000000000000000000000000000000000000000000000000000000000000000000000000000000000000508202500000000            000000000000000                              000                           
0010001300297T 0901897X0000000092096 24778822500000410   700000000000041030062025000000000032825001024279000000410                0900000000000000000000000000000000000000000000000000000   000000000000000000000039009        170192477882     
0010001300298U 090000000000000000000000000000000000000000000000000000000000000000000000000000000000000000000000000000000000000000000000000508202500000000            000000000000000                              000                           
0010001300299T 0901897X0000000092096 24778822500000412   700000000000041230062025000000000032598001069833000000412                0900000000000000000000000000000000000000000000000000000   000000000000000000000039009        170192477882     
0010001300300U 090000000000000000000000000000000000000000000000000000000000000000000000000000000000000000000000000000000000000000000000000508202500000000            000000000000000                              000                           
0010001300301T 0901897X0000000092096 24778822500000414   700000000000041430062025000000000032537001003409000000414                0900000000000000000000000000000000000000000000000000000   000000000000000000000039009        170192477882     
0010001300302U 090000000000000000000000000000000000000000000000000000000000000000000000000000000000000000000000000000000000000000000000000508202500000000            000000000000000                              000                           
0010001300303T 0901897X0000000092096 24778822500000417   70000000000004173006202500000000003236600101849X000000417                0900000000000000000000000000000000000000000000000000000   000000000000000000000039009        170192477882     
0010001300304U 090000000000000000000000000000000000000000000000000000000000000000000000000000000000000000000000000000000000000000000000000508202500000000            000000000000000                              000                           
0010001300305T 0901897X0000000092096 24778822500000418   700000000000041830062025000000000032289001003190000000418                0900000000000000000000000000000000000000000000000000000   000000000000000000000039009        170192477882     
0010001300306U 090000000000000000000000000000000000000000000000000000000000000000000000000000000000000000000000000000000000000000000000000508202500000000            000000000000000                              000                           
0010001300307T 0901897X0000000092096 24778822500000420   700000000000042030062025000000000032205001001678000000420                0900000000000000000000000000000000000000000000000000000   000000000000000000000039009        170192477882     
0010001300308U 090000000000000000000000000000000000000000000000000000000000000000000000000000000000000000000000000000000000000000000000000508202500000000            000000000000000                              000                           
0010001300309T 0901897X0000000092096 24778822500000429   700000000000042930062025000000000032046001024538000000429                0900000000000000000000000000000000000000000000000000000   000000000000000000000039009        170192477882     
0010001300310U 090000000000000000000000000000000000000000000000000000000000000000000000000000000000000000000000000000000000000000000000000508202500000000            000000000000000                              000                           
0010001300311T 0901897X0000000092096 24778822500000435   700000000000043530062025000000000031747001003190000000435                0900000000000000000000000000000000000000000000000000000   000000000000000000000039009        170192477882     
0010001300312U 090000000000000000000000000000000000000000000000000000000000000000000000000000000000000000000000000000000000000000000000000508202500000000            000000000000000                              000                           
0010001300313T 0901897X0000000092096 24778822500000437   70000000000004373006202500000000003161900100216X000000437                0900000000000000000000000000000000000000000000000000000   000000000000000000000039009        170192477882     
0010001300314U 090000000000000000000000000000000000000000000000000000000000000000000000000000000000000000000000000000000000000000000000000508202500000000            000000000000000                              000                           
0010001300315T 0901897X0000000092096 24778822500000446   700000000000044630062025000000000031043001003018000000446                0900000000000000000000000000000000000000000000000000000   000000000000000000000039009        170192477882     
0010001300316U 090000000000000000000000000000000000000000000000000000000000000000000000000000000000000000000000000000000000000000000000000508202500000000            000000000000000                              000                           
0010001300317T 0901897X0000000092096 24778822500000451   700000000000045130062025000000000030817001004154000000451                0900000000000000000000000000000000000000000000000000000   000000000000000000000039009        170192477882     
0010001300318U 090000000000000000000000000000000000000000000000000000000000000000000000000000000000000000000000000000000000000000000000000508202500000000            000000000000000                              000                           
0010001300319T 0901897X0000000092096 24778822500000453   700000000000045330062025000000000030760001004561000000453                0900000000000000000000000000000000000000000000000000000   000000000000000000000039009        170192477882     
0010001300320U 090000000000000000000000000000000000000000000000000000000000000000000000000000000000000000000000000000000000000000000000000508202500000000            000000000000000                              000                           
0010001300321T 0901897X0000000092096 24778822500000454   700000000000045430062025000000000030757001004596000000454                0900000000000000000000000000000000000000000000000000000   000000000000000000000039009        170192477882     
0010001300322U 090000000000000000000000000000000000000000000000000000000000000000000000000000000000000000000000000000000000000000000000000508202500000000            000000000000000                              000                           
0010001300323T 0901897X0000000092096 24778822500000455   700000000000045530062025000000000030741001023248000000455                0900000000000000000000000000000000000000000000000000000   000000000000000000000039009        170192477882     
0010001300324U 090000000000000000000000000000000000000000000000000000000000000000000000000000000000000000000000000000000000000000000000000508202500000000            000000000000000                              000                           
0010001300325T 0901897X0000000092096 24778822500000458   700000000000045830062025000000000030741001009946000000458                0900000000000000000000000000000000000000000000000000000   000000000000000000000039009        170192477882     
0010001300326U 090000000000000000000000000000000000000000000000000000000000000000000000000000000000000000000000000000000000000000000000000508202500000000            000000000000000                              000                           
0010001300327T 0901897X0000000092096 24778822500000461   70000000000004613006202500000000003052700101849X000000461                0900000000000000000000000000000000000000000000000000000   000000000000000000000039009        170192477882     
0010001300328U 090000000000000000000000000000000000000000000000000000000000000000000000000000000000000000000000000000000000000000000000000508202500000000            000000000000000                              000                           
0010001300329T 0901897X0000000092096 24778822500000466   700000000000046630062025000000000030373001003409000000466                0900000000000000000000000000000000000000000000000000000   000000000000000000000039009        170192477882     
0010001300330U 090000000000000000000000000000000000000000000000000000000000000000000000000000000000000000000000000000000000000000000000000508202500000000            000000000000000                              000                           
0010001300331T 0901897X0000000092096 24778822500000470   700000000000047030062025000000000030275001004596000000470                0900000000000000000000000000000000000000000000000000000   000000000000000000000039009        170192477882     
0010001300332U 090000000000000000000000000000000000000000000000000000000000000000000000000000000000000000000000000000000000000000000000000508202500000000            000000000000000                              000                           
0010001300333T 0901897X0000000092096 24778822500000471   700000000000047130062025000000000030139001004154000000471                0900000000000000000000000000000000000000000000000000000   000000000000000000000039009        170192477882     
0010001300334U 090000000000000000000000000000000000000000000000000000000000000000000000000000000000000000000000000000000000000000000000000508202500000000            000000000000000                              000                           
0010001300335T 0901897X0000000092096 24778822500000472   700000000000047230062025000000000030038001003409000000472                0900000000000000000000000000000000000000000000000000000   000000000000000000000039009        170192477882     
0010001300336U 090000000000000000000000000000000000000000000000000000000000000000000000000000000000000000000000000000000000000000000000000508202500000000            000000000000000                              000                           
0010001300337T 0901897X0000000092096 24778822500000476   700000000000047630062025000000000029862001004154000000476                0900000000000000000000000000000000000000000000000000000   000000000000000000000039009        170192477882     
0010001300338U 090000000000000000000000000000000000000000000000000000000000000000000000000000000000000000000000000000000000000000000000000508202500000000            000000000000000                              000                           
0010001300339T 0901897X0000000092096 24778822500000480   700000000000048030062025000000000029600001009296000000480                0900000000000000000000000000000000000000000000000000000   000000000000000000000039009        170192477882     
0010001300340U 090000000000000000000000000000000000000000000000000000000000000000000000000000000000000000000000000000000000000000000000000508202500000000            000000000000000                              000                           
0010001300341T 0901897X0000000092096 24778822500000482   700000000000048230062025000000000029423001003018000000482                0900000000000000000000000000000000000000000000000000000   000000000000000000000039009        170192477882     
0010001300342U 090000000000000000000000000000000000000000000000000000000000000000000000000000000000000000000000000000000000000000000000000508202500000000            000000000000000                              000                           
0010001300343T 0901897X0000000092096 24778822500000484   700000000000048430062025000000000029277001003018000000484                0900000000000000000000000000000000000000000000000000000   000000000000000000000039009        170192477882     
0010001300344U 090000000000000000000000000000000000000000000000000000000000000000000000000000000000000000000000000000000000000000000000000508202500000000            000000000000000                              000                           
0010001300345T 0901897X0000000092096 24778822500000486   700000000000048630062025000000000029277001003018000000486                0900000000000000000000000000000000000000000000000000000   000000000000000000000039009        170192477882     
0010001300346U 090000000000000000000000000000000000000000000000000000000000000000000000000000000000000000000000000000000000000000000000000508202500000000            000000000000000                              000                           
0010001300347T 0901897X0000000092096 24778822500000489   700000000000048930062025000000000029277001024171000000489                0900000000000000000000000000000000000000000000000000000   000000000000000000000039009        170192477882     
0010001300348U 090000000000000000000000000000000000000000000000000000000000000000000000000000000000000000000000000000000000000000000000000508202500000000            000000000000000                              000                           
0010001300349T 0901897X0000000092096 24778822500000490   700000000000049030062025000000000029277001000566000000490                0900000000000000000000000000000000000000000000000000000   000000000000000000000039009        170192477882     
0010001300350U 090000000000000000000000000000000000000000000000000000000000000000000000000000000000000000000000000000000000000000000000000508202500000000            000000000000000                              000                           
0010001300351T 0901897X0000000092096 24778822500000491   700000000000049130062025000000000029277001009946000000491                0900000000000000000000000000000000000000000000000000000   000000000000000000000039009        170192477882     
0010001300352U 090000000000000000000000000000000000000000000000000000000000000000000000000000000000000000000000000000000000000000000000000508202500000000            000000000000000                              000                           
0010001300353T 0901897X0000000092096 24778822500000494   700000000000049430062025000000000029277001008117000000494                0900000000000000000000000000000000000000000000000000000   000000000000000000000039009        170192477882     
0010001300354U 090000000000000000000000000000000000000000000000000000000000000000000000000000000000000000000000000000000000000000000000000508202500000000            000000000000000                              000                           
0010001300355T 0901897X0000000092096 24778822500000496   70000000000004963006202500000000002927700101849X000000496                0900000000000000000000000000000000000000000000000000000   000000000000000000000039009        170192477882     
0010001300356U 090000000000000000000000000000000000000000000000000000000000000000000000000000000000000000000000000000000000000000000000000508202500000000            000000000000000                              000                           
0010001300357T 0901897X0000000092096 24778822500000498   700000000000049830062025000000000029277001004154000000498                0900000000000000000000000000000000000000000000000000000   000000000000000000000039009        170192477882     
0010001300358U 090000000000000000000000000000000000000000000000000000000000000000000000000000000000000000000000000000000000000000000000000508202500000000            000000000000000                              000                           
0010001300359T 0901897X0000000092096 24778822500000502   70000000000005023006202500000000002927700100216X000000502                0900000000000000000000000000000000000000000000000000000   000000000000000000000039009        170192477882     
0010001300360U 090000000000000000000000000000000000000000000000000000000000000000000000000000000000000000000000000000000000000000000000000508202500000000            000000000000000                              000                           
0010001300361T 0901897X0000000092096 24778822500000503   700000000000050330062025000000000029277001003409000000503                0900000000000000000000000000000000000000000000000000000   000000000000000000000039009        170192477882     
0010001300362U 090000000000000000000000000000000000000000000000000000000000000000000000000000000000000000000000000000000000000000000000000508202500000000            000000000000000                              000                           
0010001300363T 0901897X0000000092096 24778822500000507   700000000000050730062025000000000029277001041467000000507                0900000000000000000000000000000000000000000000000000000   000000000000000000000039009        170192477882     
0010001300364U 090000000000000000000000000000000000000000000000000000000000000000000000000000000000000000000000000000000000000000000000000508202500000000            000000000000000                              000                           
0010001300365T 0901897X0000000092096 24778822500000509   700000000000050930062025000000000029277001004154000000509                0900000000000000000000000000000000000000000000000000000   000000000000000000000039009        170192477882     
0010001300366U 090000000000000000000000000000000000000000000000000000000000000000000000000000000000000000000000000000000000000000000000000508202500000000            000000000000000                              000                           
0010001300367T 0901897X0000000092096 24778822500000510   700000000000051030062025000000000029277001004154000000510                0900000000000000000000000000000000000000000000000000000   000000000000000000000039009        170192477882     
0010001300368U 090000000000000000000000000000000000000000000000000000000000000000000000000000000000000000000000000000000000000000000000000508202500000000            000000000000000                              000                           
0010001300369T 0901897X0000000092096 24778822500000515   700000000000051530062025000000000029277001043036000000515                0900000000000000000000000000000000000000000000000000000   000000000000000000000039009        170192477882     
0010001300370U 090000000000000000000000000000000000000000000000000000000000000000000000000000000000000000000000000000000000000000000000000508202500000000            000000000000000                              000                           
0010001300371T 0901897X0000000092096 24778822500000516   700000000000051630062025000000000029277001009903000000516                0900000000000000000000000000000000000000000000000000000   000000000000000000000039009        170192477882     
0010001300372U 090000000000000000000000000000000000000000000000000000000000000000000000000000000000000000000000000000000000000000000000000508202500000000            000000000000000                              000                           
0010001300373T 0901897X0000000092096 24778822500000518   700000000000051830062025000000000029277001004561000000518                0900000000000000000000000000000000000000000000000000000   000000000000000000000039009        170192477882     
0010001300374U 090000000000000000000000000000000000000000000000000000000000000000000000000000000000000000000000000000000000000000000000000508202500000000            000000000000000                              000                           
0010001300375T 0901897X0000000092096 24778822500000519   700000000000051930062025000000000029277001000566000000519                0900000000000000000000000000000000000000000000000000000   000000000000000000000039009        170192477882     
0010001300376U 090000000000000000000000000000000000000000000000000000000000000000000000000000000000000000000000000000000000000000000000000508202500000000            000000000000000                              000                           
0010001300377T 0901897X0000000092096 24778822500000520   700000000000052030062025000000000029277001003018000000520                0900000000000000000000000000000000000000000000000000000   000000000000000000000039009        170192477882     
0010001300378U 090000000000000000000000000000000000000000000000000000000000000000000000000000000000000000000000000000000000000000000000000508202500000000            000000000000000                              000                           
0010001300379T 0901897X0000000092096 24778822500000522   700000000000052230062025000000000029272001003409000000522                0900000000000000000000000000000000000000000000000000000   000000000000000000000039009        170192477882     
0010001300380U 090000000000000000000000000000000000000000000000000000000000000000000000000000000000000000000000000000000000000000000000000508202500000000            000000000000000                              000                           
0010001300381T 0901897X0000000092096 24778822500000523   700000000000052330062025000000000029070001020125000000523                0900000000000000000000000000000000000000000000000000000   000000000000000000000039009        170192477882     
0010001300382U 090000000000000000000000000000000000000000000000000000000000000000000000000000000000000000000000000000000000000000000000000508202500000000            000000000000000                              000                           
0010001300383T 0901897X0000000092096 24778822500000527   700000000000052730062025000000000028984001024171000000527                0900000000000000000000000000000000000000000000000000000   000000000000000000000039009        170192477882     
0010001300384U 090000000000000000000000000000000000000000000000000000000000000000000000000000000000000000000000000000000000000000000000000508202500000000            000000000000000                              000                           
0010001300385T 0901897X0000000092096 24778822500000529   700000000000052930062025000000000028919001004596000000529                0900000000000000000000000000000000000000000000000000000   000000000000000000000039009        170192477882     
0010001300386U 090000000000000000000000000000000000000000000000000000000000000000000000000000000000000000000000000000000000000000000000000508202500000000            000000000000000                              000                           
0010001300387T 0901897X0000000092096 24778822500000530   700000000000053030062025000000000028876001008117000000530                0900000000000000000000000000000000000000000000000000000   000000000000000000000039009        170192477882     
0010001300388U 090000000000000000000000000000000000000000000000000000000000000000000000000000000000000000000000000000000000000000000000000508202500000000            000000000000000                              000                           
0010001300389T 0901897X0000000092096 24778822500000532   70000000000005323006202500000000002887500101849X000000532                0900000000000000000000000000000000000000000000000000000   000000000000000000000039009        170192477882     
0010001300390U 090000000000000000000000000000000000000000000000000000000000000000000000000000000000000000000000000000000000000000000000000508202500000000            000000000000000                              000                           
0010001300391T 0901897X0000000092096 24778822500000535   700000000000053530062025000000000028769001003190000000535                0900000000000000000000000000000000000000000000000000000   000000000000000000000039009        170192477882     
0010001300392U 090000000000000000000000000000000000000000000000000000000000000000000000000000000000000000000000000000000000000000000000000508202500000000            000000000000000                              000                           
0010001300393T 0901897X0000000092096 24778822500000536   700000000000053630062025000000000028691001024171000000536                0900000000000000000000000000000000000000000000000000000   000000000000000000000039009        170192477882     
0010001300394U 090000000000000000000000000000000000000000000000000000000000000000000000000000000000000000000000000000000000000000000000000508202500000000            000000000000000                              000                           
0010001300395T 0901897X0000000092096 24778822500000538   700000000000053830062025000000000028657001009946000000538                0900000000000000000000000000000000000000000000000000000   000000000000000000000039009        170192477882     
0010001300396U 090000000000000000000000000000000000000000000000000000000000000000000000000000000000000000000000000000000000000000000000000508202500000000            000000000000000                              000                           
0010001300397T 0901897X0000000092096 24778822500000540   700000000000054030062025000000000028545001009903000000540                0900000000000000000000000000000000000000000000000000000   000000000000000000000039009        170192477882     
0010001300398U 090000000000000000000000000000000000000000000000000000000000000000000000000000000000000000000000000000000000000000000000000508202500000000            000000000000000                              000                           
0010001300399T 0901897X0000000092096 24778822500000541   700000000000054130062025000000000028457001008117000000541                0900000000000000000000000000000000000000000000000000000   000000000000000000000039009        170192477882     
0010001300400U 090000000000000000000000000000000000000000000000000000000000000000000000000000000000000000000000000000000000000000000000000508202500000000            000000000000000                              000                           
0010001300401T 0901897X0000000092096 24778822500000544   700000000000054430062025000000000028281001014753000000544                0900000000000000000000000000000000000000000000000000000   000000000000000000000039009        170192477882     
0010001300402U 090000000000000000000000000000000000000000000000000000000000000000000000000000000000000000000000000000000000000000000000000508202500000000            000000000000000                              000                           
0010001300403T 0901897X0000000092096 24778822500000552   700000000000055230062025000000000028072001004154000000552                0900000000000000000000000000000000000000000000000000000   000000000000000000000039009        170192477882     
0010001300404U 090000000000000000000000000000000000000000000000000000000000000000000000000000000000000000000000000000000000000000000000000508202500000000            000000000000000                              000                           
0010001300405T 0901897X0000000092096 24778822500000556   70000000000005563006202500000000002781300100216X000000556                0900000000000000000000000000000000000000000000000000000   000000000000000000000039009        170192477882     
0010001300406U 090000000000000000000000000000000000000000000000000000000000000000000000000000000000000000000000000000000000000000000000000508202500000000            000000000000000                              000                           
0010001300407T 0901897X0000000092096 24778822500000559   70000000000005593006202500000000002772100101849X000000559                0900000000000000000000000000000000000000000000000000000   000000000000000000000039009        170192477882     
0010001300408U 090000000000000000000000000000000000000000000000000000000000000000000000000000000000000000000000000000000000000000000000000508202500000000            000000000000000                              000                           
0010001300409T 0901897X0000000092096 24778822500000562   700000000000056230062025000000000027647001069833000000562                0900000000000000000000000000000000000000000000000000000   000000000000000000000039009        170192477882     
0010001300410U 090000000000000000000000000000000000000000000000000000000000000000000000000000000000000000000000000000000000000000000000000508202500000000            000000000000000                              000                           
0010001300411T 0901897X0000000092096 24778822500000568   70000000000005683006202500000000002745300100216X000000568                0900000000000000000000000000000000000000000000000000000   000000000000000000000039009        170192477882     
0010001300412U 090000000000000000000000000000000000000000000000000000000000000000000000000000000000000000000000000000000000000000000000000508202500000000            000000000000000                              000                           
