00100000         2115139610001160024778820014       01897X0000000092096 FUNDACAO AGENCIA DAS BACIAS HIBANCO DO BRASIL                         23009202502064000624703000000829973081PROCESSAMEN                                                 
00100011T0100020 20115139610001160024778820014       01897X0000000092096 FUNDACAO AGENCIA DAS BACIAS HI                                                                                000000003009202500000000  000000000                      
0010001300001T 0201897X0000000092096 24778829000008951   7000008951      31102025000000000040396001006998000008951                0900000000000010500000000000000000000000000000000000000   0000000000000000000000519A9A4      170192477882     
0010001300002U 020000000000000000000000000000000000000000000000000000000000000000000000000000000000000000000000000000000000000000000000003009202500000000            000000000000000                              000                           
0010001300003T 0601897X0000000092096 24778822500002001   700000000000200130092025000000000024885509000010000002001                0900000000000010100000000000000000000000000000000000000   000000000000000000000000004        170192477882     
0010001300004U 060000000000000000000000000000000000000000000000000000000000000000000000248850000000000248850000000000000000000000000000003009202501102025            000000000000000                              000                           
0010001300005T 0601897X0000000092096 24778822500002013   700000000000201330092025000000000024665341000500000002013                0900000000000010100000000000000000000000000000000000000   000000000000000000000000004        170192477882     
0010001300006U 060000000000000000000000000000000000000000000000000000000000000000000000246650000000000246650000000000000000000000000000003009202501102025            000000000000000                              000                           
0010001300007T 0601897X0000000092096 24778822500002021   700000000000202130092025000000000024506341001620000002021                0900000000000010100000000000000000000000000000000000000   000000000000000000000000004        170192477882     
0010001300008U 060000000000000000000000000000000000000000000000000000000000000000000000245060000000000245060000000000000000000000000000003009202501102025            000000000000000                              000                           
0010001300009T 0601897X0000000092096 24778822500002025   700000000000202530092025000000000024419341015780000002025                0900000000000010100000000000000000000000000000000000000   000000000000000000000000004        170192477882     
0010001300010U 060000000000000000000000000000000000000000000000000000000000000000000000244190000000000244190000000000000000000000000000003009202501102025            000000000000000                              000                           
0010001300011T 0601897X0000000092096 24778822500002029   700000000000202930092025000000000024373341000140000002029                0900000000000010100000000000000000000000000000000000000   000000000000000000000000004        170192477882     
0010001300012U 060000000000000000000000000000000000000000000000000000000000000000000000243730000000000243730000000000000000000000000000003009202501102025            000000000000000                              000                           
0010001300013T 0601897X0000000092096 24778822500002033   700000000000203330092025000000000024113756072790000002033                0900000000000010100000000000000000000000000000000000000   000000000000000000000000004        170192477882     
0010001300014U 060000000000000000000000000000000000000000000000000000000000000000000000241130000000000241130000000000000000000000000000003009202501102025            000000000000000                              000                           
0010001300015T 0601897X0000000092096 24778822500002045   700000000000204530092025000000000023855341005590000002045                0900000000000010100000000000000000000000000000000000000   000000000000000000000000004        170192477882     
0010001300016U 060000000000000000000000000000000000000000000000000000000000000000000000238550000000000238550000000000000000000000000000003009202501102025            000000000000000                              000                           
0010001300017T 0601897X0000000092096 24778822500002049   700000000000204930092025000000000023642237033930000002049                0900000000000010100000000000000000000000000000000000000   000000000000000000000000004        170192477882     
0010001300018U 060000000000000000000000000000000000000000000000000000000000000000000000236420000000000236420000000000000000000000000000003009202501102025            000000000000000                              000                           
0010001300019T 0601897X0000000092096 24778822500002053   700000000000205330092025000000000023604341005460000002053                0900000000000010100000000000000000000000000000000000000   000000000000000000000000004        170192477882     
0010001300020U 060000000000000000000000000000000000000000000000000000000000000000000000236040000000000236040000000000000000000000000000003009202501102025            000000000000000                              000                           
0010001300021T 0601897X0000000092096 24778822500002057   700000000000205730092025000000000023589033003340000002057                0900000000000010100000000000000000000000000000000000000   000000000000000000000000004        170192477882     
0010001300022U 060000000000000000000000000000000000000000000000000000000000000000000000235890000000000235890000000000000000000000000000003009202501102025            000000000000000                              000                           
0010001300023T 0601897X0000000092096 24778822500002061   700000000000206130092025000000000023465237023880000002061                0900000000000010100000000000000000000000000000000000000   000000000000000000000000004        170192477882     
0010001300024U 060000000000000000000000000000000000000000000000000000000000000000000000234650000000000234650000000000000000000000000000003009202501102025            000000000000000                              000                           
0010001300025T 0601897X0000000092096 24778822500002073   700000000000207330092025000000000023421509000010000002073                0900000000000010100000000000000000000000000000000000000   000000000000000000000000004        170192477882     
0010001300026U 060000000000000000000000000000000000000000000000000000000000000000000000234210000000000234210000000000000000000000000000003009202501102025            000000000000000                              000                           
0010001300027T 0601897X0000000092096 24778822500002085   700000000000208530092025000000000023304237033670000002085                0900000000000010100000000000000000000000000000000000000   000000000000000000000000004        170192477882     
0010001300028U 060000000000000000000000000000000000000000000000000000000000000000000000233040000000000233040000000000000000000000000000003009202501102025            000000000000000                              000                           
0010001300029T 0601897X0000000092096 24778822500002093   700000000000209330092025000000000023187033000590000002093                0900000000000010100000000000000000000000000000000000000   000000000000000000000000004        170192477882     
0010001300030U 060000000000000000000000000000000000000000000000000000000000000000000000231870000000000231870000000000000000000000000000003009202501102025            000000000000000                              000                           
0010001300031T 0601897X0000000092096 24778822500002105   700000000000210530092025000000000023055341078830000002105                0900000000000010100000000000000000000000000000000000000   000000000000000000000000004        170192477882     
0010001300032U 060000000000000000000000000000000000000000000000000000000000000000000000230550000000000230550000000000000000000000000000003009202501102025            000000000000000                              000                           
0010001300033T 0601897X0000000092096 24778822500002113   700000000000211330092025000000000023055237001870000002113                0900000000000010100000000000000000000000000000000000000   000000000000000000000000004        170192477882     
0010001300034U 060000000000000000000000000000000000000000000000000000000000000000000000230550000000000230550000000000000000000000000000003009202501102025            000000000000000                              000                           
0010001300035T 0601897X0000000092096 24778822500002117   700000000000211730092025000000000022975001051152000002117                0900000000000010090000000000000000000000000000000000000   000000000000000000000000006        170192477882     
0010001300036U 060000000000000000000000000000000000000000000000000000000000000000000000229750000000000229750000000000000000000000000000003009202501102025            000000000000000                              000                           
0010001300037T 0601897X0000000092096 24778822500002125   700000000000212530092025000000000022909341001620000002125                0900000000000010100000000000000000000000000000000000000   000000000000000000000000004        170192477882     
0010001300038U 060000000000000000000000000000000000000000000000000000000000000000000000229090000000000229090000000000000000000000000000003009202501102025            000000000000000                              000                           
0010001300039T 0601897X0000000092096 24778822500002137   70000000000021373009202500000000002262900100216X000002137                0900000000000010040000000000000000000000000000000000000   000000000000000000000000034        170192477882     
0010001300040U 060000000000000000000000000000000000000000000000000000000000000000000000226290000000000226290000000000000000000000000000003009202501102025            000000000000000                              000                           
0010001300041T 0601897X0000000092096 24778822500002141   700000000000214130092025000000000022623341015780000002141                0900000000000010100000000000000000000000000000000000000   000000000000000000000000004        170192477882     
0010001300042U 060000000000000000000000000000000000000000000000000000000000000000000000226230000000000226230000000000000000000000000000003009202501102025            000000000000000                              000                           
0010001300043T 0601897X0000000092096 24778822500002185   700000000000218530092025000000000021958341018740000002185                0900000000000010100000000000000000000000000000000000000   000000000000000000000000004        170192477882     
0010001300044U 060000000000000000000000000000000000000000000000000000000000000000000000219580000000000219580000000000000000000000000000003009202501102025            000000000000000                              000                           
0010001300045T 0601897X0000000092096 24778822500002189   700000000000218930092025000000000021958509000010000002189                0900000000000010100000000000000000000000000000000000000   000000000000000000000000004        170192477882     
0010001300046U 060000000000000000000000000000000000000000000000000000000000000000000000219580000000000219580000000000000000000000000000003009202501102025            000000000000000                              000                           
0010001300047T 0601897X0000000092096 24778822500002193   700000000000219330092025000000000021958341000190000002193                0900000000000010100000000000000000000000000000000000000   000000000000000000000000004        170192477882     
0010001300048U 060000000000000000000000000000000000000000000000000000000000000000000000219580000000000219580000000000000000000000000000003009202501102025            000000000000000                              000                           
0010001300049T 0601897X0000000092096 24778822500002197   700000000000219730092025000000000021958237002150000002197                0900000000000010100000000000000000000000000000000000000   000000000000000000000000004        170192477882     
0010001300050U 060000000000000000000000000000000000000000000000000000000000000000000000219580000000000219580000000000000000000000000000003009202501102025            000000000000000                              000                           
0010001300051T 0601897X0000000092096 24778822500002205   700000000000220530092025000000000021958341002060000002205                0900000000000010100000000000000000000000000000000000000   000000000000000000000000004        170192477882     
0010001300052U 060000000000000000000000000000000000000000000000000000000000000000000000219580000000000219580000000000000000000000000000003009202501102025            000000000000000                              000                           
0010001300053T 0601897X0000000092096 24778822500002209   700000000000220930092025000000000021958341086800000002209                0900000000000010100000000000000000000000000000000000000   000000000000000000000000004        170192477882     
0010001300054U 060000000000000000000000000000000000000000000000000000000000000000000000219580000000000219580000000000000000000000000000003009202501102025            000000000000000                              000                           
0010001300055T 0601897X0000000092096 24778822500002221   700000000000222130092025000000000021958341009100000002221                0900000000000010100000000000000000000000000000000000000   000000000000000000000000004        170192477882     
0010001300056U 060000000000000000000000000000000000000000000000000000000000000000000000219580000000000219580000000000000000000000000000003009202501102025            000000000000000                              000                           
0010001300057T 0601897X0000000092096 24778822500002233   700000000000223330092025000000000021958341000190000002233                0900000000000010100000000000000000000000000000000000000   000000000000000000000000004        170192477882     
0010001300058U 060000000000000000000000000000000000000000000000000000000000000000000000219580000000000219580000000000000000000000000000003009202501102025            000000000000000                              000                           
0010001300059T 0601897X0000000092096 24778822500002269   700000000000226930092025000000000021657341000310000002269                0900000000000010100000000000000000000000000000000000000   000000000000000000000000004        170192477882     
0010001300060U 060000000000000000000000000000000000000000000000000000000000000000000000216570000000000216570000000000000000000000000000003009202501102025            000000000000000                              000                           
0010001300061T 0601897X0000000092096 24778822500002273   700000000000227330092025000000000021584341015680000002273                0900000000000010100000000000000000000000000000000000000   000000000000000000000000004        170192477882     
0010001300062U 060000000000000000000000000000000000000000000000000000000000000000000000215840000000000215840000000000000000000000000000003009202501102025            000000000000000                              000                           
0010001300063T 0601897X0000000092096 24778822500002277   700000000000227730092025000000000021539033005350000002277                0900000000000010100000000000000000000000000000000000000   000000000000000000000000004        170192477882     
0010001300064U 060000000000000000000000000000000000000000000000000000000000000000000000215390000000000215390000000000000000000000000000003009202501102025            000000000000000                              000                           
0010001300065T 0601897X0000000092096 24778822500002281   700000000000228130092025000000000021536033002160000002281                0900000000000010100000000000000000000000000000000000000   000000000000000000000000004        170192477882     
0010001300066U 060000000000000000000000000000000000000000000000000000000000000000000000215360000000000215360000000000000000000000000000003009202501102025            000000000000000                              000                           
0010001300067T 0601897X0000000092096 24778822500002297   700000000000229730092025000000000021440341000300000002297                0900000000000010100000000000000000000000000000000000000   000000000000000000000000004        170192477882     
0010001300068U 060000000000000000000000000000000000000000000000000000000000000000000000214400000000000214400000000000000000000000000000003009202501102025            000000000000000                              000                           
0010001300069T 0601897X0000000092096 24778822500002301   700000000000230130092025000000000021409001033626000002301                0900000000000010040000000000000000000000000000000000000   000000000000000000000000034        170192477882     
0010001300070U 060000000000000000000000000000000000000000000000000000000000000000000000214090000000000214090000000000000000000000000000003009202501102025            000000000000000                              000                           
0010001300071T 0601897X0000000092096 24778822500002325   700000000000232530092025000000000021176341076490000002325                0900000000000010100000000000000000000000000000000000000   000000000000000000000000004        170192477882     
0010001300072U 060000000000000000000000000000000000000000000000000000000000000000000000211760000000000211760000000000000000000000000000003009202501102025            000000000000000                              000                           
0010001300073T 0601897X0000000092096 24778822500002341   700000000000234130092025000000000021079756011310000002341                0900000000000010100000000000000000000000000000000000000   000000000000000000000000004        170192477882     
0010001300074U 060000000000000000000000000000000000000000000000000000000000000000000000210790000000000210790000000000000000000000000000003009202501102025            000000000000000                              000                           
0010001300075T 0601897X0000000092096 24778822500002345   700000000000234530092025000000000021079033022700000002345                0900000000000010100000000000000000000000000000000000000   000000000000000000000000004        170192477882     
0010001300076U 060000000000000000000000000000000000000000000000000000000000000000000000210790000000000210790000000000000000000000000000003009202501102025            000000000000000                              000                           
0010001300077T 0601897X0000000092096 24778822500002349   700000000000234930092025000000000021079001034150000002349                0900000000000010040000000000000000000000000000000000000   000000000000000000000000034        170192477882     
0010001300078U 060000000000000000000000000000000000000000000000000000000000000000000000210790000000000210790000000000000000000000000000003009202501102025            000000000000000                              000                           
0010001300079T 0601897X0000000092096 24778822500002353   700000000000235330092025000000000021033033002460000002353                0900000000000010100000000000000000000000000000000000000   000000000000000000000000004        170192477882     
0010001300080U 060000000000000000000000000000000000000000000000000000000000000000000000210330000000000210330000000000000000000000000000003009202501102025            000000000000000                              000                           
0010001300081T 0601897X0000000092096 24778822500002357   700000000000235730092025000000000021021237033890000002357                0900000000000010100000000000000000000000000000000000000   000000000000000000000000004        170192477882     
0010001300082U 060000000000000000000000000000000000000000000000000000000000000000000000210210000000000210210000000000000000000000000000003009202501102025            000000000000000                              000                           
0010001300083T 0601897X0000000092096 24778822500002361   700000000000236130092025000000000020936341000190000002361                0900000000000010100000000000000000000000000000000000000   000000000000000000000000004        170192477882     
0010001300084U 060000000000000000000000000000000000000000000000000000000000000000000000209360000000000209360000000000000000000000000000003009202501102025            000000000000000                              000                           
0010001300085T 0601897X0000000092096 24778822500002365   700000000000236530092025000000000020925237004760000002365                0900000000000010100000000000000000000000000000000000000   000000000000000000000000004        170192477882     
0010001300086U 060000000000000000000000000000000000000000000000000000000000000000000000209250000000000209250000000000000000000000000000003009202501102025            000000000000000                              000                           
0010001300087T 0601897X0000000092096 24778822500002369   700000000000236930092025000000000020916033020400000002369                0900000000000010100000000000000000000000000000000000000   000000000000000000000000004        170192477882     
0010001300088U 060000000000000000000000000000000000000000000000000000000000000000000000209160000000000209160000000000000000000000000000003009202501102025            000000000000000                              000                           
0010001300089T 0601897X0000000092096 24778822500002389   700000000000238930092025000000000020494001069833000002389                0900000000000010090000000000000000000000000000000000000   000000000000000000000000006        170192477882     
0010001300090U 060000000000000000000000000000000000000000000000000000000000000000000000204940000000000204940000000000000000000000000000003009202501102025            000000000000000                              000                           
0010001300091T 0601897X0000000092096 24778822500002393   700000000000239330092025000000000020494341006580000002393                0900000000000010100000000000000000000000000000000000000   000000000000000000000000004        170192477882     
0010001300092U 060000000000000000000000000000000000000000000000000000000000000000000000204940000000000204940000000000000000000000000000003009202501102025            000000000000000                              000                           
0010001300093T 0601897X0000000092096 24778822500002401   700000000000240130092025000000000020494237003930000002401                0900000000000010100000000000000000000000000000000000000   000000000000000000000000004        170192477882     
0010001300094U 060000000000000000000000000000000000000000000000000000000000000000000000204940000000000204940000000000000000000000000000003009202501102025            000000000000000                              000                           
0010001300095T 0601897X0000000092096 24778822500002413   700000000000241330092025000000000020252033000900000002413                0900000000000010100000000000000000000000000000000000000   000000000000000000000000004        170192477882     
0010001300096U 060000000000000000000000000000000000000000000000000000000000000000000000202520000000000202520000000000000000000000000000003009202501102025            000000000000000                              000                           
0010001300097T 0601897X0000000092096 24778822500002417   700000000000241730092025000000000020219033032440000002417                0900000000000010100000000000000000000000000000000000000   000000000000000000000000004        170192477882     
0010001300098U 060000000000000000000000000000000000000000000000000000000000000000000000202190000000000202190000000000000000000000000000003009202501102025            000000000000000                              000                           
0010001300099T 0601897X0000000092096 24778822500002429   700000000000242930092025000000000020128341009110000002429                0900000000000010100000000000000000000000000000000000000   000000000000000000000000004        170192477882     
0010001300100U 060000000000000000000000000000000000000000000000000000000000000000000000201280000000000201280000000000000000000000000000003009202501102025            000000000000000                              000                           
0010001300101T 0601897X0000000092096 24778822500002437   700000000000243730092025000000000020102237003180000002437                0900000000000010100000000000000000000000000000000000000   000000000000000000000000004        170192477882     
0010001300102U 060000000000000000000000000000000000000000000000000000000000000000000000201020000000000201020000000000000000000000000000003009202501102025            000000000000000                              000                           
0010001300103T 0601897X0000000092096 24778822500002446   700000000000244630092025000000000023948748051200000002446                0900000000000010100000000000000000000000000000000000000   000000000000000000000000004        170192477882     
0010001300104U 060000000000000000000000000000000000000000000000000000000000000000000000239480000000000239480000000000000000000000000000003009202501102025            000000000000000                              000                           
0010001300105T 0601897X0000000092096 24778822500002456   700000000000245630092025000000000023874237033680000002456                0900000000000010100000000000000000000000000000000000000   000000000000000000000000004        170192477882     
0010001300106U 060000000000000000000000000000000000000000000000000000000000000000000000238740000000000238740000000000000000000000000000003009202501102025            000000000000000                              000                           
0010001300107T 0601897X0000000092096 24778822500002466   700000000000246630092025000000000023745341000540000002466                0900000000000010100000000000000000000000000000000000000   000000000000000000000000004        170192477882     
0010001300108U 060000000000000000000000000000000000000000000000000000000000000000000000237450000000000237450000000000000000000000000000003009202501102025            000000000000000                              000                           
0010001300109T 0601897X0000000092096 24778822500002471   700000000000247130092025000000000023714341078900000002471                0900000000000010100000000000000000000000000000000000000   000000000000000000000000004        170192477882     
0010001300110U 060000000000000000000000000000000000000000000000000000000000000000000000237140000000000237140000000000000000000000000000003009202501102025            000000000000000                              000                           
0010001300111T 0601897X0000000092096 24778822500002476   700000000000247630092025000000000023521341029640000002476                0900000000000010100000000000000000000000000000000000000   000000000000000000000000004        170192477882     
0010001300112U 060000000000000000000000000000000000000000000000000000000000000000000000235210000000000235210000000000000000000000000000003009202501102025            000000000000000                              000                           
0010001300113T 0601897X0000000092096 24778822500002481   700000000000248130092025000000000023473341000190000002481                0900000000000010100000000000000000000000000000000000000   000000000000000000000000004        170192477882     
0010001300114U 060000000000000000000000000000000000000000000000000000000000000000000000234730000000000234730000000000000000000000000000003009202501102025            000000000000000                              000                           
0010001300115T 0601897X0000000092096 24778822500002491   700000000000249130092025000000000023421341002790000002491                0900000000000010100000000000000000000000000000000000000   000000000000000000000000004        170192477882     
0010001300116U 060000000000000000000000000000000000000000000000000000000000000000000000234210000000000234210000000000000000000000000000003009202501102025            000000000000000                              000                           
0010001300117T 0601897X0000000092096 24778822500002501   700000000000250130092025000000000023421033030640000002501                0900000000000010100000000000000000000000000000000000000   000000000000000000000000004        170192477882     
0010001300118U 060000000000000000000000000000000000000000000000000000000000000000000000234210000000000234210000000000000000000000000000003009202501102025            000000000000000                              000                           
0010001300119T 0601897X0000000092096 24778822500002511   700000000000251130092025000000000023421237003160000002511                0900000000000010100000000000000000000000000000000000000   000000000000000000000000004        170192477882     
0010001300120U 060000000000000000000000000000000000000000000000000000000000000000000000234210000000000234210000000000000000000000000000003009202501102025            000000000000000                              000                           
0010001300121T 0601897X0000000092096 24778822500002526   700000000000252630092025000000000023076341015630000002526                0900000000000010100000000000000000000000000000000000000   000000000000000000000000004        170192477882     
0010001300122U 060000000000000000000000000000000000000000000000000000000000000000000000230760000000000230760000000000000000000000000000003009202501102025            000000000000000                              000                           
0010001300123T 0601897X0000000092096 24778822500002551   700000000000255130092025000000000022836001007994000002551                0900000000000010040000000000000000000000000000000000000   000000000000000000000000034        170192477882     
0010001300124U 060000000000000000000000000000000000000000000000000000000000000000000000228360000000000228360000000000000000000000000000003009202501102025            000000000000000                              000                           
0010001300125T 0601897X0000000092096 24778822500002561   700000000000256130092025000000000022645341080310000002561                0900000000000010100000000000000000000000000000000000000   000000000000000000000000004        170192477882     
0010001300126U 060000000000000000000000000000000000000000000000000000000000000000000000226450000000000226450000000000000000000000000000003009202501102025            000000000000000                              000                           
0010001300127T 0601897X0000000092096 24778822500002571   700000000000257130092025000000000022446341015630000002571                0900000000000010100000000000000000000000000000000000000   000000000000000000000000004        170192477882     
0010001300128U 060000000000000000000000000000000000000000000000000000000000000000000000224460000000000224460000000000000000000000000000003009202501102025            000000000000000                              000                           
0010001300129T 0601897X0000000092096 24778822500002581   700000000000258130092025000000000022250237000970000002581                0900000000000010100000000000000000000000000000000000000   000000000000000000000000004        170192477882     
0010001300130U 060000000000000000000000000000000000000000000000000000000000000000000000222500000000000222500000000000000000000000000000003009202501102025            000000000000000                              000                           
0010001300131T 0601897X0000000092096 24778822500002591   700000000000259130092025000000000022231341001360000002591                0900000000000010100000000000000000000000000000000000000   000000000000000000000000004        170192477882     
0010001300132U 060000000000000000000000000000000000000000000000000000000000000000000000222310000000000222310000000000000000000000000000003009202501102025            000000000000000                              000                           
0010001300133T 0601897X0000000092096 24778822500002596   700000000000259630092025000000000022187237001560000002596                0900000000000010100000000000000000000000000000000000000   000000000000000000000000004        170192477882     
0010001300134U 060000000000000000000000000000000000000000000000000000000000000000000000221870000000000221870000000000000000000000000000003009202501102025            000000000000000                              000                           
0010001300135T 0601897X0000000092096 24778822500002601   700000000000260130092025000000000022117341027110000002601                0900000000000010100000000000000000000000000000000000000   000000000000000000000000004        170192477882     
0010001300136U 060000000000000000000000000000000000000000000000000000000000000000000000221170000000000221170000000000000000000000000000003009202501102025            000000000000000                              000                           
0010001300137T 0601897X0000000092096 24778822500002606   700000000000260630092025000000000022012033036890000002606                0900000000000010100000000000000000000000000000000000000   000000000000000000000000004        170192477882     
0010001300138U 060000000000000000000000000000000000000000000000000000000000000000000000220120000000000220120000000000000000000000000000003009202501102025            000000000000000                              000                           
0010001300139T 0601897X0000000092096 24778822500002611   700000000000261130092025000000000021957237023930000002611                0900000000000010100000000000000000000000000000000000000   000000000000000000000000004        170192477882     
0010001300140U 060000000000000000000000000000000000000000000000000000000000000000000000219570000000000219570000000000000000000000000000003009202501102025            000000000000000                              000                           
0010001300141T 0601897X0000000092096 24778822500002631   700000000000263130092025000000000021775237033710000002631                0900000000000010100000000000000000000000000000000000000   000000000000000000000000004        170192477882     
0010001300142U 060000000000000000000000000000000000000000000000000000000000000000000000217750000000000217750000000000000000000000000000003009202501102025            000000000000000                              000                           
0010001300143T 0601897X0000000092096 24778822500002636   70000000000026363009202500000000002166500101897X000002636                0900000000000010090000000000000000000000000000000000000   000000000000000000000000006        170192477882     
0010001300144U 060000000000000000000000000000000000000000000000000000000000000000000000216650000000000216650000000000000000000000000000003009202501102025            000000000000000                              000                           
0010001300145T 0601897X0000000092096 24778822500002646   700000000000264630092025000000000021570033002160000002646                0900000000000010100000000000000000000000000000000000000   000000000000000000000000004        170192477882     
0010001300146U 060000000000000000000000000000000000000000000000000000000000000000000000215700000000000215700000000000000000000000000000003009202501102025            000000000000000                              000                           
0010001300147T 0601897X0000000092096 24778822500002651   700000000000265130092025000000000021561756077970000002651                0900000000000010100000000000000000000000000000000000000   000000000000000000000000004        170192477882     
0010001300148U 060000000000000000000000000000000000000000000000000000000000000000000000215610000000000215610000000000000000000000000000003009202501102025            000000000000000                              000                           
0010001300149T 0601897X0000000092096 24778822500002661   700000000000266130092025000000000021372341087690000002661                0900000000000010100000000000000000000000000000000000000   000000000000000000000000004        170192477882     
0010001300150U 060000000000000000000000000000000000000000000000000000000000000000000000213720000000000213720000000000000000000000000000003009202501102025            000000000000000                              000                           
0010001300151T 0601897X0000000092096 24778822500002671   700000000000267130092025000000000021221341078830000002671                0900000000000010100000000000000000000000000000000000000   000000000000000000000000004        170192477882     
0010001300152U 060000000000000000000000000000000000000000000000000000000000000000000000212210000000000212210000000000000000000000000000003009202501102025            000000000000000                              000                           
0010001300153T 0601897X0000000092096 24778822500002681   700000000000268130092025000000000021079001040932000002681                0900000000000010020000000000000000000000000000000000000   000000000000000000000000033        170192477882     
0010001300154U 060000000000000000000000000000000000000000000000000000000000000000000000210790000000000210790000000000000000000000000000003009202501102025            000000000000000                              000                           
0010001300155T 0601897X0000000092096 24778822500002691   700000000000269130092025000000000021079237033680000002691                0900000000000010100000000000000000000000000000000000000   000000000000000000000000004        170192477882     
0010001300156U 060000000000000000000000000000000000000000000000000000000000000000000000210790000000000210790000000000000000000000000000003009202501102025            000000000000000                              000                           
0010001300157T 0601897X0000000092096 24778822500002696   700000000000269630092025000000000021079341032630000002696                0900000000000010100000000000000000000000000000000000000   000000000000000000000000004        170192477882     
0010001300158U 060000000000000000000000000000000000000000000000000000000000000000000000210790000000000210790000000000000000000000000000003009202501102025            000000000000000                              000                           
0010001300159T 0601897X0000000092096 24778822500002701   700000000000270130092025000000000021079341002780000002701                0900000000000010100000000000000000000000000000000000000   000000000000000000000000004        170192477882     
0010001300160U 060000000000000000000000000000000000000000000000000000000000000000000000210790000000000210790000000000000000000000000000003009202501102025            000000000000000                              000                           
0010001300161T 0601897X0000000092096 24778822500002716   700000000000271630092025000000000020682341009120000002716                0900000000000010100000000000000000000000000000000000000   000000000000000000000000004        170192477882     
0010001300162U 060000000000000000000000000000000000000000000000000000000000000000000000206820000000000206820000000000000000000000000000003009202501102025            000000000000000                              000                           
0010001300163T 0601897X0000000092096 24778822500002721   700000000000272130092025000000000020627237003160000002721                0900000000000010100000000000000000000000000000000000000   000000000000000000000000004        170192477882     
0010001300164U 060000000000000000000000000000000000000000000000000000000000000000000000206270000000000206270000000000000000000000000000003009202501102025            000000000000000                              000                           
0010001300165T 0601897X0000000092096 24778822500002726   700000000000272630092025000000000020494341006520000002726                0900000000000010100000000000000000000000000000000000000   000000000000000000000000004        170192477882     
0010001300166U 060000000000000000000000000000000000000000000000000000000000000000000000204940000000000204940000000000000000000000000000003009202501102025            000000000000000                              000                           
0010001300167T 0601897X0000000092096 24778822500002746   700000000000274630092025000000000020494509000010000002746                0900000000000010100000000000000000000000000000000000000   000000000000000000000000004        170192477882     
0010001300168U 060000000000000000000000000000000000000000000000000000000000000000000000204940000000000204940000000000000000000000000000003009202501102025            000000000000000                              000                           
0010001300169T 0601897X0000000092096 24778822500002751   700000000000275130092025000000000020493237029170000002751                0900000000000010100000000000000000000000000000000000000   000000000000000000000000004        170192477882     
0010001300170U 060000000000000000000000000000000000000000000000000000000000000000000000204930000000000204930000000000000000000000000000003009202501102025            000000000000000                              000                           
0010001300171T 0601897X0000000092096 24778822500002781   700000000000278130092025000000000020264033046480000002781                0900000000000010100000000000000000000000000000000000000   000000000000000000000000004        170192477882     
0010001300172U 060000000000000000000000000000000000000000000000000000000000000000000000202640000000000202640000000000000000000000000000003009202501102025            000000000000000                              000                           
0010001300173T 0601897X0000000092096 24778822500002786   700000000000278630092025000000000020232341087450000002786                0900000000000010100000000000000000000000000000000000000   000000000000000000000000004        170192477882     
0010001300174U 060000000000000000000000000000000000000000000000000000000000000000000000202320000000000202320000000000000000000000000000003009202501102025            000000000000000                              000                           
0010001300175T 0601897X0000000092096 24778822500002791   700000000000279130092025000000000020107341076430000002791                0900000000000010100000000000000000000000000000000000000   000000000000000000000000004        170192477882     
0010001300176U 060000000000000000000000000000000000000000000000000000000000000000000000201070000000000201070000000000000000000000000000003009202501102025            000000000000000                              000                           
0010001300177T 0601897X0000000092096 24778822500002796   700000000000279630092025000000000020037237005200000002796                0900000000000010100000000000000000000000000000000000000   000000000000000000000000004        170192477882     
0010001300178U 060000000000000000000000000000000000000000000000000000000000000000000000200370000000000200370000000000000000000000000000003009202501102025            000000000000000                              000                           
0010001300179T 0601897X0000000092096 24778822500002801   700000000000280130092025000000000020020341056360000002801                0900000000000010100000000000000000000000000000000000000   000000000000000000000000004        170192477882     
0010001300180U 060000000000000000000000000000000000000000000000000000000000000000000000200200000000000200200000000000000000000000000000003009202501102025            000000000000000                              000                           
0010001300181T 0601897X0000000092096 24778822500002812   700000000000281230092025000000000023233341069100000002812                0900000000000010100000000000000000000000000000000000000   000000000000000000000000004        170192477882     
0010001300182U 060000000000000000000000000000000000000000000000000000000000000000000000232330000000000232330000000000000000000000000000003009202501102025            000000000000000                              000                           
0010001300183T 0601897X0000000092096 24778822500002824   700000000000282430092025000000000023055001051152000002824                0900000000000010040000000000000000000000000000000000000   000000000000000000000000034        170192477882     
0010001300184U 060000000000000000000000000000000000000000000000000000000000000000000000230550000000000230550000000000000000000000000000003009202501102025            000000000000000                              000                           
0010001300185T 0601897X0000000092096 24778822500002836   700000000000283630092025000000000022950341080460000002836                0900000000000010100000000000000000000000000000000000000   000000000000000000000000004        170192477882     
0010001300186U 060000000000000000000000000000000000000000000000000000000000000000000000229500000000000229500000000000000000000000000000003009202501102025            000000000000000                              000                           
0010001300187T 0601897X0000000092096 24778822500002848   700000000000284830092025000000000022836341000280000002848                0900000000000010100000000000000000000000000000000000000   000000000000000000000000004        170192477882     
0010001300188U 060000000000000000000000000000000000000000000000000000000000000000000000228360000000000228360000000000000000000000000000003009202501102025            000000000000000                              000                           
0010001300189T 0601897X0000000092096 24778822500002854   700000000000285430092025000000000022811341000540000002854                0900000000000010100000000000000000000000000000000000000   000000000000000000000000004        170192477882     
0010001300190U 060000000000000000000000000000000000000000000000000000000000000000000000228110000000000228110000000000000000000000000000003009202501102025            000000000000000                              000                           
0010001300191T 0601897X0000000092096 24778822500002866   700000000000286630092025000000000022677341000540000002866                0900000000000010100000000000000000000000000000000000000   000000000000000000000000004        170192477882     
0010001300192U 060000000000000000000000000000000000000000000000000000000000000000000000226770000000000226770000000000000000000000000000003009202501102025            000000000000000                              000                           
0010001300193T 0601897X0000000092096 24778822500002878   700000000000287830092025000000000022622341000190000002878                0900000000000010100000000000000000000000000000000000000   000000000000000000000000004        170192477882     
0010001300194U 060000000000000000000000000000000000000000000000000000000000000000000000226220000000000226220000000000000000000000000000003009202501102025            000000000000000                              000                           
0010001300195T 0601897X0000000092096 24778822500002884   700000000000288430092025000000000022608341000500000002884                0900000000000010100000000000000000000000000000000000000   000000000000000000000000004        170192477882     
0010001300196U 060000000000000000000000000000000000000000000000000000000000000000000000226080000000000226080000000000000000000000000000003009202501102025            000000000000000                              000                           
0010001300197T 0601897X0000000092096 24778822500002896   700000000000289630092025000000000022589341015780000002896                0900000000000010100000000000000000000000000000000000000   000000000000000000000000004        170192477882     
0010001300198U 060000000000000000000000000000000000000000000000000000000000000000000000225890000000000225890000000000000000000000000000003009202501102025            000000000000000                              000                           
0010001300199T 0601897X0000000092096 24778822500002932   700000000000293230092025000000000022125237004940000002932                0900000000000010100000000000000000000000000000000000000   000000000000000000000000004        170192477882     
0010001300200U 060000000000000000000000000000000000000000000000000000000000000000000000221250000000000221250000000000000000000000000000003009202501102025            000000000000000                              000                           
0010001300201T 0601897X0000000092096 24778822500002938   700000000000293830092025000000000022055341007960000002938                0900000000000010100000000000000000000000000000000000000   000000000000000000000000004        170192477882     
0010001300202U 060000000000000000000000000000000000000000000000000000000000000000000000220550000000000220550000000000000000000000000000003009202501102025            000000000000000                              000                           
0010001300203T 0601897X0000000092096 24778822500002944   700000000000294430092025000000000021982237003930000002944                0900000000000010100000000000000000000000000000000000000   000000000000000000000000004        170192477882     
0010001300204U 060000000000000000000000000000000000000000000000000000000000000000000000219820000000000219820000000000000000000000000000003009202501102025            000000000000000                              000                           
0010001300205T 0601897X0000000092096 24778822500002950   700000000000295030092025000000000021975237033710000002950                0900000000000010100000000000000000000000000000000000000   000000000000000000000000004        170192477882     
0010001300206U 060000000000000000000000000000000000000000000000000000000000000000000000219750000000000219750000000000000000000000000000003009202501102025            000000000000000                              000                           
0010001300207T 0601897X0000000092096 24778822500002962   700000000000296230092025000000000021958237026560000002962                0900000000000010100000000000000000000000000000000000000   000000000000000000000000004        170192477882     
0010001300208U 060000000000000000000000000000000000000000000000000000000000000000000000219580000000000219580000000000000000000000000000003009202501102025            000000000000000                              000                           
0010001300209T 0601897X0000000092096 24778822500002974   700000000000297430092025000000000021958237003190000002974                0900000000000010100000000000000000000000000000000000000   000000000000000000000000004        170192477882     
0010001300210U 060000000000000000000000000000000000000000000000000000000000000000000000219580000000000219580000000000000000000000000000003009202501102025            000000000000000                              000                           
0010001300211T 0601897X0000000092096 24778822500002980   700000000000298030092025000000000021958748030320000002980                0900000000000010100000000000000000000000000000000000000   000000000000000000000000004        170192477882     
0010001300212U 060000000000000000000000000000000000000000000000000000000000000000000000219580000000000219580000000000000000000000000000003009202501102025            000000000000000                              000                           
0010001300213T 0601897X0000000092096 24778822500003004   700000000000300430092025000000000021924341069220000003004                0900000000000010100000000000000000000000000000000000000   000000000000000000000000004        170192477882     
0010001300214U 060000000000000000000000000000000000000000000000000000000000000000000000219240000000000219240000000000000000000000000000003009202501102025            000000000000000                              000                           
0010001300215T 0601897X0000000092096 24778822500003010   700000000000301030092025000000000021892001033626000003010                0900000000000010040000000000000000000000000000000000000   000000000000000000000000034        170192477882     
0010001300216U 060000000000000000000000000000000000000000000000000000000000000000000000218920000000000218920000000000000000000000000000003009202501102025            000000000000000                              000                           
0010001300217T 0601897X0000000092096 24778822500003016   700000000000301630092025000000000021863341000500000003016                0900000000000010100000000000000000000000000000000000000   000000000000000000000000004        170192477882     
0010001300218U 060000000000000000000000000000000000000000000000000000000000000000000000218630000000000218630000000000000000000000000000003009202501102025            000000000000000                              000                           
0010001300219T 0601897X0000000092096 24778822500003028   700000000000302830092025000000000021747237023880000003028                0900000000000010100000000000000000000000000000000000000   000000000000000000000000004        170192477882     
0010001300220U 060000000000000000000000000000000000000000000000000000000000000000000000217470000000000217470000000000000000000000000000003009202501102025            000000000000000                              000                           
0010001300221T 0601897X0000000092096 24778822500003034   700000000000303430092025000000000021729341009120000003034                0900000000000010100000000000000000000000000000000000000   000000000000000000000000004        170192477882     
0010001300222U 060000000000000000000000000000000000000000000000000000000000000000000000217290000000000217290000000000000000000000000000003009202501102025            000000000000000                              000                           
0010001300223T 0601897X0000000092096 24778822500003035   700000000000303531102025000000000021729341009120000003035                0900000000000010100000000000000000000000000000000000000   000000000000000000000000004        170192477882     
0010001300224U 060000000000000000000000000000000000000000000000000000000000000000000000217290000000000217290000000000000000000000000000003009202501102025            000000000000000                              000                           
0010001300225T 0601897X0000000092096 24778822500003046   700000000000304630092025000000000021470001023248000003046                0900000000000010060000000000000000000000000000000000000   000000000000000000000000033        170192477882     
0010001300226U 060000000000000000000000000000000000000000000000000000000000000000000000214700000000000214700000000000000000000000000000003009202501102025            000000000000000                              000                           
0010001300227T 0601897X0000000092096 24778822500003058   700000000000305830092025000000000021433237002150000003058                0900000000000010100000000000000000000000000000000000000   000000000000000000000000004        170192477882     
0010001300228U 060000000000000000000000000000000000000000000000000000000000000000000000214330000000000214330000000000000000000000000000003009202501102025            000000000000000                              000                           
0010001300229T 0601897X0000000092096 24778822500003070   700000000000307030092025000000000021403104003320000003070                0900000000000010100000000000000000000000000000000000000   000000000000000000000000004        170192477882     
0010001300230U 060000000000000000000000000000000000000000000000000000000000000000000000214030000000000214030000000000000000000000000000003009202501102025            000000000000000                              000                           
0010001300231T 0601897X0000000092096 24778822500003076   700000000000307630092025000000000021345509000010000003076                0900000000000010100000000000000000000000000000000000000   000000000000000000000000004        170192477882     
0010001300232U 060000000000000000000000000000000000000000000000000000000000000000000000213450000000000213450000000000000000000000000000003009202501102025            000000000000000                              000                           
0010001300233T 0601897X0000000092096 24778822500003088   700000000000308830092025000000000021304341005340000003088                0900000000000010100000000000000000000000000000000000000   000000000000000000000000004        170192477882     
0010001300234U 060000000000000000000000000000000000000000000000000000000000000000000000213040000000000213040000000000000000000000000000003009202501102025            000000000000000                              000                           
0010001300235T 0601897X0000000092096 24778822500003094   700000000000309430092025000000000021176237016170000003094                0900000000000010100000000000000000000000000000000000000   000000000000000000000000004        170192477882     
0010001300236U 060000000000000000000000000000000000000000000000000000000000000000000000211760000000000211760000000000000000000000000000003009202501102025            000000000000000                              000                           
0010001300237T 0601897X0000000092096 24778822500003100   700000000000310030092025000000000021150341000500000003100                0900000000000010100000000000000000000000000000000000000   000000000000000000000000004        170192477882     
0010001300238U 060000000000000000000000000000000000000000000000000000000000000000000000211500000000000211500000000000000000000000000000003009202501102025            000000000000000                              000                           
0010001300239T 0601897X0000000092096 24778822500003112   700000000000311230092025000000000021035341000540000003112                0900000000000010100000000000000000000000000000000000000   000000000000000000000000004        170192477882     
0010001300240U 060000000000000000000000000000000000000000000000000000000000000000000000210350000000000210350000000000000000000000000000003009202501102025            000000000000000                              000                           
0010001300241T 0601897X0000000092096 24778822500003118   700000000000311830092025000000000021003341088490000003118                0900000000000010100000000000000000000000000000000000000   000000000000000000000000004        170192477882     
0010001300242U 060000000000000000000000000000000000000000000000000000000000000000000000210030000000000210030000000000000000000000000000003009202501102025            000000000000000                              000                           
0010001300243T 0601897X0000000092096 24778822500003130   700000000000313030092025000000000020982341000410000003130                0900000000000010100000000000000000000000000000000000000   000000000000000000000000004        170192477882     
0010001300244U 060000000000000000000000000000000000000000000000000000000000000000000000209820000000000209820000000000000000000000000000003009202501102025            000000000000000                              000                           
0010001300245T 0601897X0000000092096 24778822500003136   700000000000313630092025000000000020932341000280000003136                0900000000000010100000000000000000000000000000000000000   000000000000000000000000004        170192477882     
0010001300246U 060000000000000000000000000000000000000000000000000000000000000000000000209320000000000209320000000000000000000000000000003009202501102025            000000000000000                              000                           
0010001300247T 0601897X0000000092096 24778822500003178   700000000000317830092025000000000020404001030708000003178                0900000000000010090000000000000000000000000000000000000   000000000000000000000000006        170192477882     
0010001300248U 060000000000000000000000000000000000000000000000000000000000000000000000204040000000000204040000000000000000000000000000003009202501102025            000000000000000                              000                           
0010001300249T 0601897X0000000092096 24778822500003184   700000000000318430092025000000000020386341000140000003184                0900000000000010100000000000000000000000000000000000000   000000000000000000000000004        170192477882     
0010001300250U 060000000000000000000000000000000000000000000000000000000000000000000000203860000000000203860000000000000000000000000000003009202501102025            000000000000000                              000                           
0010001300251T 0601897X0000000092096 24778822500003190   700000000000319030092025000000000020376341007340000003190                0900000000000010100000000000000000000000000000000000000   000000000000000000000000004        170192477882     
0010001300252U 060000000000000000000000000000000000000000000000000000000000000000000000203760000000000203760000000000000000000000000000003009202501102025            000000000000000                              000                           
0010001300253T 0601897X0000000092096 24778822500003196   700000000000319630092025000000000020311033003030000003196                0900000000000010100000000000000000000000000000000000000   000000000000000000000000004        170192477882     
0010001300254U 060000000000000000000000000000000000000000000000000000000000000000000000203110000000000203110000000000000000000000000000003009202501102025            000000000000000                              000                           
0010001300255T 0601897X0000000092096 24778822500003202   700000000000320230092025000000000020293341001940000003202                0900000000000010100000000000000000000000000000000000000   000000000000000000000000004        170192477882     
0010001300256U 060000000000000000000000000000000000000000000000000000000000000000000000202930000000000202930000000000000000000000000000003009202501102025            000000000000000                              000                           
0010001300257T 0601897X0000000092096 24778822500003214   700000000000321430092025000000000020219033003030000003214                0900000000000010100000000000000000000000000000000000000   000000000000000000000000004        170192477882     
0010001300258U 060000000000000000000000000000000000000000000000000000000000000000000000202190000000000202190000000000000000000000000000003009202501102025            000000000000000                              000                           
0010001300259T 0601897X0000000092096 24778822500003269   700000000000326930092025000000019047590104003320000003269                0900000000000010100000000000000000000000000000000000000   000000000000000000000000004        170192477882     
0010001300260U 060000000000000000000000000000000000000000000000000000000000000000000190475900000000190475900000000000000000000000000000003009202501102025            000000000000000                              000                           
0010001300261T 0601897X0000000092096 24778822500003276   700000000000327630092025000000018059324341000190000003276                0900000000000010100000000000000000000000000000000000000   000000000000000000000000004        170192477882     
0010001300262U 060000000000000000000000000000000000000000000000000000000000000000000180593240000000180593240000000000000000000000000000003009202501102025            000000000000000                              000                           
0010001300263T 0601897X0000000092096 24778822500003290   700000000000329030092025000000009933650001009296000003290                0900000000000010040000000000000000000000000000000000000   000000000000000000000000034        170192477882     
0010001300264U 060000000000000000000000000000000000000000000000000000000000000000000099336500000000099336500000000000000000000000000000003009202501102025            000000000000000                              000                           
0010001300265T 0601897X0000000092096 24778822500003297   700000000000329730092025000000009065195001091227000003297                0900000000000010040000000000000000000000000000000000000   000000000000000000000000034        170192477882     
0010001300266U 060000000000000000000000000000000000000000000000000000000000000000000090651950000000090651950000000000000000000000000000003009202501102025            000000000000000                              000                           
0010001300267T 0601897X0000000092096 24778822500003318   700000000000331830092025000000006595738001004596000003318                0900000000000010040000000000000000000000000000000000000   000000000000000000000000034        170192477882     
0010001300268U 060000000000000000000000000000000000000000000000000000000000000000000065957380000000065957380000000000000000000000000000003009202501102025            000000000000000                              000                           
0010001300269T 0601897X0000000092096 24778822500003339   700000000000333930092025000000004628603104019370000003339                0900000000000010100000000000000000000000000000000000000   000000000000000000000000004        170192477882     
0010001300270U 060000000000000000000000000000000000000000000000000000000000000000000046286030000000046286030000000000000000000000000000003009202501102025            000000000000000                              000                           
0010001300271T 0601897X0000000092096 24778822500003346   700000000000334630092025000000004178048001030708000003346                0900000000000010090000000000000000000000000000000000000   000000000000000000000000006        170192477882     
0010001300272U 060000000000000000000000000000000000000000000000000000000000000000000041780480000000041780480000000000000000000000000000003009202501102025            000000000000000                              000                           
0010001300273T 0601897X0000000092096 24778822500003353   700000000000335330092025000000004082413341001360000003353                0900000000000010100000000000000000000000000000000000000   000000000000000000000000004        170192477882     
0010001300274U 060000000000000000000000000000000000000000000000000000000000000000000040824130000000040824130000000000000000000000000000003009202501102025            000000000000000                              000                           
0010001300275T 0601897X0000000092096 24778822500003360   700000000000336030092025000000003703525104003630000003360                0900000000000010100000000000000000000000000000000000000   000000000000000000000000004        170192477882     
0010001300276U 060000000000000000000000000000000000000000000000000000000000000000000037035250000000037035250000000000000000000000000000003009202501102025            000000000000000                              000                           
0010001300277T 0601897X0000000092096 24778822500003367   700000000000336730092025000000003613363001026565000003367                0900000000000010040000000000000000000000000000000000000   000000000000000000000000034        170192477882     
0010001300278U 060000000000000000000000000000000000000000000000000000000000000000000036133630000000036133630000000000000000000000000000003009202501102025            000000000000000                              000                           
0010001300279T 0601897X0000000092096 24778822500003374   700000000000337430092025000000003049483001020125000003374                0900000000000010040000000000000000000000000000000000000   000000000000000000000000034        170192477882     
0010001300280U 060000000000000000000000000000000000000000000000000000000000000000000030494830000000030494830000000000000000000000000000003009202501102025            000000000000000                              000                           
0010001300281T 0601897X0000000092096 24778822500003381   700000000000338130092025000000002762554001030708000003381                0900000000000010090000000000000000000000000000000000000   000000000000000000000000006        170192477882     
0010001300282U 060000000000000000000000000000000000000000000000000000000000000000000027625540000000027625540000000000000000000000000000003009202501102025            000000000000000                              000                           
0010001300283T 0601897X0000000092096 24778822500003388   700000000000338830092025000000002611821104029090000003388                0900000000000010100000000000000000000000000000000000000   000000000000000000000000004        170192477882     
0010001300284U 060000000000000000000000000000000000000000000000000000000000000000000026118210000000026118210000000000000000000000000000003009202501102025            000000000000000                              000                           
0010001300285T 0601897X0000000092096 24778822500003402   700000000000340230092025000000002457920001030708000003402                0900000000000010090000000000000000000000000000000000000   000000000000000000000000006        170192477882     
0010001300286U 060000000000000000000000000000000000000000000000000000000000000000000024579200000000024579200000000000000000000000000000003009202501102025            000000000000000                              000                           
0010001300287T 0601897X0000000092096 24778822500003416   700000000000341630092025000000002355849341000080000003416                0900000000000010100000000000000000000000000000000000000   000000000000000000000000004        170192477882     
0010001300288U 060000000000000000000000000000000000000000000000000000000000000000000023558490000000023558490000000000000000000000000000003009202501102025            000000000000000                              000                           
0010001300289T 0601897X0000000092096 24778822500003423   700000000000342330092025000000002250018001019135000003423                0900000000000010040000000000000000000000000000000000000   000000000000000000000000034        170192477882     
0010001300290U 060000000000000000000000000000000000000000000000000000000000000000000022500180000000022500180000000000000000000000000000003009202501102025            000000000000000                              000                           
0010001300291T 0601897X0000000092096 24778822500003430   700000000000343030092025000000002160684001030708000003430                0900000000000010090000000000000000000000000000000000000   000000000000000000000000006        170192477882     
0010001300292U 060000000000000000000000000000000000000000000000000000000000000000000021606840000000021606840000000000000000000000000000003009202501102025            000000000000000                              000                           
0010001300293T 0601897X0000000092096 24778822500003437   700000000000343730092025000000002143647001065544000003437                0900000000000010040000000000000000000000000000000000000   000000000000000000000000034        170192477882     
0010001300294U 060000000000000000000000000000000000000000000000000000000000000000000021436470000000021436470000000000000000000000000000003009202501102025            000000000000000                              000                           
0010001300295T 0601897X0000000092096 24778822500003444   700000000000344430092025000000001971120001045276000003444                0900000000000010040000000000000000000000000000000000000   000000000000000000000000034        170192477882     
0010001300296U 060000000000000000000000000000000000000000000000000000000000000000000019711200000000019711200000000000000000000000000000003009202501102025            000000000000000                              000                           
0010001300297T 0601897X0000000092096 24778822500003451   700000000000345130092025000000001817793001045659000003451                0900000000000010040000000000000000000000000000000000000   000000000000000000000000034        170192477882     
0010001300298U 060000000000000000000000000000000000000000000000000000000000000000000018177930000000018177930000000000000000000000000000003009202501102025            000000000000000                              000                           
0010001300299T 0601897X0000000092096 24778822500003458   700000000000345830092025000000001472295341000680000003458                0900000000000010100000000000000000000000000000000000000   000000000000000000000000004        170192477882     
0010001300300U 060000000000000000000000000000000000000000000000000000000000000000000014722950000000014722950000000000000000000000000000003009202501102025            000000000000000                              000                           
0010001300301T 0601897X0000000092096 24778822500003472   700000000000347230092025000000001414546001030708000003472                0900000000000010090000000000000000000000000000000000000   000000000000000000000000006        170192477882     
0010001300302U 060000000000000000000000000000000000000000000000000000000000000000000014145460000000014145460000000000000000000000000000003009202501102025            000000000000000                              000                           
0010001300303T 0601897X0000000092096 24778822500003507   700000000000350730092025000000000994880001030708000003507                0900000000000010090000000000000000000000000000000000000   000000000000000000000000006        170192477882     
0010001300304U 060000000000000000000000000000000000000000000000000000000000000000000009948800000000009948800000000000000000000000000000003009202501102025            000000000000000                              000                           
0010001300305T 0601897X0000000092096 24778822500003521   700000000000352130092025000000000922969274000010000003521                0900000000000010100000000000000000000000000000000000000   000000000000000000000000004        170192477882     
0010001300306U 060000000000000000000000000000000000000000000000000000000000000000000009229690000000009229690000000000000000000000000000003009202501102025            000000000000000                              000                           
0010001300307T 0601897X0000000092096 24778822500003528   700000000000352830092025000000000911274001030708000003528                0900000000000010090000000000000000000000000000000000000   000000000000000000000000006        170192477882     
0010001300308U 060000000000000000000000000000000000000000000000000000000000000000000009112740000000009112740000000000000000000000000000003009202501102025            000000000000000                              000                           
0010001300309T 0601897X0000000092096 24778822500003542   700000000000354230092025000000000845868001030708000003542                0900000000000010090000000000000000000000000000000000000   000000000000000000000000006        170192477882     
0010001300310U 060000000000000000000000000000000000000000000000000000000000000000000008458680000000008458680000000000000000000000000000003009202501102025            000000000000000                              000                           
0010001300311T 0601897X0000000092096 24778822500003549   700000000000354930092025000000000838058001030708000003549                0900000000000010090000000000000000000000000000000000000   000000000000000000000000006        170192477882     
0010001300312U 060000000000000000000000000000000000000000000000000000000000000000000008380580000000008380580000000000000000000000000000003009202501102025            000000000000000                              000                           
0010001300313T 0601897X0000000092096 24778822500003563   700000000000356330092025000000000792026001030708000003563                0900000000000010090000000000000000000000000000000000000   000000000000000000000000006        170192477882     
0010001300314U 060000000000000000000000000000000000000000000000000000000000000000000007920260000000007920260000000000000000000000000000003009202501102025            000000000000000                              000                           
0010001300315T 0601897X0000000092096 24778822500003570   70000000000035703009202500000000078271000101916X000003570                0900000000000010040000000000000000000000000000000000000   000000000000000000000000034        170192477882     
0010001300316U 060000000000000000000000000000000000000000000000000000000000000000000007827100000000007827100000000000000000000000000000003009202501102025            000000000000000                              000                           
0010001300317T 0601897X0000000092096 24778822500003584   700000000000358430092025000000000736066001030708000003584                0900000000000010090000000000000000000000000000000000000   000000000000000000000000006        170192477882     
0010001300318U 060000000000000000000000000000000000000000000000000000000000000000000007360660000000007360660000000000000000000000000000003009202501102025            000000000000000                              000                           
0010001300319T 0601897X0000000092096 24778822500003591   700000000000359130092025000000000669245001030708000003591                0900000000000010090000000000000000000000000000000000000   000000000000000000000000006        170192477882     
0010001300320U 060000000000000000000000000000000000000000000000000000000000000000000006692450000000006692450000000000000000000000000000003009202501102025            000000000000000                              000                           
0010001300321T 0601897X0000000092096 24778822500003598   700000000000359830092025000000000642751237023740000003598                0900000000000010100000000000000000000000000000000000000   000000000000000000000000004        170192477882     
0010001300322U 060000000000000000000000000000000000000000000000000000000000000000000006427510000000006427510000000000000000000000000000003009202501102025            000000000000000                              000                           
0010001300323T 0601897X0000000092096 24778822500003605   700000000000360530092025000000000630527001030708000003605                0900000000000010090000000000000000000000000000000000000   000000000000000000000000006        170192477882     
0010001300324U 060000000000000000000000000000000000000000000000000000000000000000000006305270000000006305270000000000000000000000000000003009202501102025            000000000000000                              000                           
0010001300325T 0601897X0000000092096 24778822500003619   700000000000361930092025000000000624390237007090000003619                0900000000000010100000000000000000000000000000000000000   000000000000000000000000004        170192477882     
0010001300326U 060000000000000000000000000000000000000000000000000000000000000000000006243900000000006243900000000000000000000000000000003009202501102025            000000000000000                              000                           
0010001300327T 0601897X0000000092096 24778822500003626   700000000000362630092025000000000618841033033160000003626                0900000000000010100000000000000000000000000000000000000   000000000000000000000000004        170192477882     
0010001300328U 060000000000000000000000000000000000000000000000000000000000000000000006188410000000006188410000000000000000000000000000003009202501102025            000000000000000                              000                           
0010001300329T 0601897X0000000092096 24778822500003633   700000000000363330092025000000000587506001030708000003633                0900000000000010090000000000000000000000000000000000000   000000000000000000000000006        170192477882     
0010001300330U 060000000000000000000000000000000000000000000000000000000000000000000005875060000000005875060000000000000000000000000000003009202501102025            000000000000000                              000                           
0010001300331T 0601897X0000000092096 24778822500003640   700000000000364030092025000000000581794341009120000003640                0900000000000010100000000000000000000000000000000000000   000000000000000000000000004        170192477882     
0010001300332U 060000000000000000000000000000000000000000000000000000000000000000000005817940000000005817940000000000000000000000000000003009202501102025            000000000000000                              000                           
0010001300333T 0601897X0000000092096 24778822500003661   70000000000036613009202500000000048218700104587X000003661                0900000000000010040000000000000000000000000000000000000   000000000000000000000000034        170192477882     
0010001300334U 060000000000000000000000000000000000000000000000000000000000000000000004821870000000004821870000000000000000000000000000003009202501102025            000000000000000                              000                           
0010001300335T 0601897X0000000092096 24778822500003675   700000000000367530092025000000000460984001030708000003675                0900000000000010090000000000000000000000000000000000000   000000000000000000000000006        170192477882     
0010001300336U 060000000000000000000000000000000000000000000000000000000000000000000004609840000000004609840000000000000000000000000000003009202501102025            000000000000000                              000                           
0010001300337T 0601897X0000000092096 24778822500003682   700000000000368230092025000000000444243001030708000003682                0900000000000010090000000000000000000000000000000000000   000000000000000000000000006        170192477882     
0010001300338U 060000000000000000000000000000000000000000000000000000000000000000000004442430000000004442430000000000000000000000000000003009202501102025            000000000000000                              000                           
0010001300339T 0601897X0000000092096 24778822500003696   700000000000369630092025000000000410792341000540000003696                0900000000000010100000000000000000000000000000000000000   000000000000000000000000004        170192477882     
0010001300340U 060000000000000000000000000000000000000000000000000000000000000000000004107920000000004107920000000000000000000000000000003009202501102025            000000000000000                              000                           
0010001300341T 0601897X0000000092096 24778822500003724   700000000000372430092025000000000375774001006998000003724                0900000000000010040000000000000000000000000000000000000   000000000000000000000000034        170192477882     
0010001300342U 060000000000000000000000000000000000000000000000000000000000000000000003757740000000003757740000000000000000000000000000003009202501102025            000000000000000                              000                           
0010001300343T 0601897X0000000092096 24778822500003738   700000000000373830092025000000000368028341080310000003738                0900000000000010100000000000000000000000000000000000000   000000000000000000000000004        170192477882     
0010001300344U 060000000000000000000000000000000000000000000000000000000000000000000003680280000000003680280000000000000000000000000000003009202501102025            000000000000000                              000                           
0010001300345T 0601897X0000000092096 24778822500003745   700000000000374530092025000000000367873341005600000003745                0900000000000010100000000000000000000000000000000000000   000000000000000000000000004        170192477882     
0010001300346U 060000000000000000000000000000000000000000000000000000000000000000000003678730000000003678730000000000000000000000000000003009202501102025            000000000000000                              000                           
0010001300347T 0601897X0000000092096 24778822500003759   700000000000375930092025000000000322825341000780000003759                0900000000000010100000000000000000000000000000000000000   000000000000000000000000004        170192477882     
0010001300348U 060000000000000000000000000000000000000000000000000000000000000000000003228250000000003228250000000000000000000000000000003009202501102025            000000000000000                              000                           
0010001300349T 0601897X0000000092096 24778822500003766   700000000000376630092025000000000314380001030708000003766                0900000000000010090000000000000000000000000000000000000   000000000000000000000000006        170192477882     
0010001300350U 060000000000000000000000000000000000000000000000000000000000000000000003143800000000003143800000000000000000000000000000003009202501102025            000000000000000                              000                           
0010001300351T 0601897X0000000092096 24778822500003773   700000000000377330092025000000000295221341000190000003773                0900000000000010100000000000000000000000000000000000000   000000000000000000000000004        170192477882     
0010001300352U 060000000000000000000000000000000000000000000000000000000000000000000002952210000000002952210000000000000000000000000000003009202501102025            000000000000000                              000                           
0010001300353T 0601897X0000000092096 24778822500003780   700000000000378030092025000000000289985237033980000003780                0900000000000010100000000000000000000000000000000000000   000000000000000000000000004        170192477882     
0010001300354U 060000000000000000000000000000000000000000000000000000000000000000000002899850000000002899850000000000000000000000000000003009202501102025            000000000000000                              000                           
0010001300355T 0601897X0000000092096 24778822500003787   700000000000378730092025000000000289352341000500000003787                0900000000000010100000000000000000000000000000000000000   000000000000000000000000004        170192477882     
0010001300356U 060000000000000000000000000000000000000000000000000000000000000000000002893520000000002893520000000000000000000000000000003009202501102025            000000000000000                              000                           
0010001300357T 0601897X0000000092096 24778822500003794   700000000000379430092025000000000287331756007060000003794                0900000000000010100000000000000000000000000000000000000   000000000000000000000000004        170192477882     
0010001300358U 060000000000000000000000000000000000000000000000000000000000000000000002873310000000002873310000000000000000000000000000003009202501102025            000000000000000                              000                           
0010001300359T 0601897X0000000092096 24778822500003822   700000000000382230092025000000000281056033002070000003822                0900000000000010100000000000000000000000000000000000000   000000000000000000000000004        170192477882     
0010001300360U 060000000000000000000000000000000000000000000000000000000000000000000002810560000000002810560000000000000000000000000000003009202501102025            000000000000000                              000                           
0010001300361T 0601897X0000000092096 24778822500003829   700000000000382930092025000000000279654237013680000003829                0900000000000010100000000000000000000000000000000000000   000000000000000000000000004        170192477882     
0010001300362U 060000000000000000000000000000000000000000000000000000000000000000000002796540000000002796540000000000000000000000000000003009202501102025            000000000000000                              000                           
0010001300363T 0601897X0000000092096 24778822500003843   700000000000384330092025000000000274782001030708000003843                0900000000000010090000000000000000000000000000000000000   000000000000000000000000006        170192477882     
0010001300364U 060000000000000000000000000000000000000000000000000000000000000000000002747820000000002747820000000000000000000000000000003009202501102025            000000000000000                              000                           
0010001300365T 0601897X0000000092096 24778822500003857   700000000000385730092025000000000270051341009120000003857                0900000000000010100000000000000000000000000000000000000   000000000000000000000000004        170192477882     
0010001300366U 060000000000000000000000000000000000000000000000000000000000000000000002700510000000002700510000000000000000000000000000003009202501102025            000000000000000                              000                           
0010001300367T 0601897X0000000092096 24778822500003871   700000000000387130092025000000000251007341000500000003871                0900000000000010100000000000000000000000000000000000000   000000000000000000000000004        170192477882     
0010001300368U 060000000000000000000000000000000000000000000000000000000000000000000002510070000000002510070000000000000000000000000000003009202501102025            000000000000000                              000                           
0010001300369T 0601897X0000000092096 24778822500003885   700000000000388530092025000000000250775341005600000003885                0900000000000010100000000000000000000000000000000000000   000000000000000000000000004        170192477882     
0010001300370U 060000000000000000000000000000000000000000000000000000000000000000000002507750000000002507750000000000000000000000000000003009202501102025            000000000000000                              000                           
0010001300371T 0601897X0000000092096 24778822500003899   700000000000389930092025000000000246722237005200000003899                0900000000000010100000000000000000000000000000000000000   000000000000000000000000004        170192477882     
0010001300372U 060000000000000000000000000000000000000000000000000000000000000000000002467220000000002467220000000000000000000000000000003009202501102025            000000000000000                              000                           
0010001300373T 0601897X0000000092096 24778822500003913   700000000000391330092025000000000240147001030708000003913                0900000000000010090000000000000000000000000000000000000   000000000000000000000000006        170192477882     
0010001300374U 060000000000000000000000000000000000000000000000000000000000000000000002401470000000002401470000000000000000000000000000003009202501102025            000000000000000                              000                           
0010001300375T 0601897X0000000092096 24778822500003948   700000000000394830092025000000000223680341040050000003948                0900000000000010100000000000000000000000000000000000000   000000000000000000000000004        170192477882     
0010001300376U 060000000000000000000000000000000000000000000000000000000000000000000002236800000000002236800000000000000000000000000000003009202501102025            000000000000000                              000                           
0010001300377T 0601897X0000000092096 24778822500003955   700000000000395530092025000000000223489033001940000003955                0900000000000010100000000000000000000000000000000000000   000000000000000000000000004        170192477882     
0010001300378U 060000000000000000000000000000000000000000000000000000000000000000000002234890000000002234890000000000000000000000000000003009202501102025            000000000000000                              000                           
0010001300379T 0601897X0000000092096 24778822500003969   700000000000396930092025000000000221666237025610000003969                0900000000000010100000000000000000000000000000000000000   000000000000000000000000004        170192477882     
0010001300380U 060000000000000000000000000000000000000000000000000000000000000000000002216660000000002216660000000000000000000000000000003009202501102025            000000000000000                              000                           
0010001300381T 0601897X0000000092096 24778822500003983   700000000000398330092025000000000218390237033710000003983                0900000000000010100000000000000000000000000000000000000   000000000000000000000000004        170192477882     
0010001300382U 060000000000000000000000000000000000000000000000000000000000000000000002183900000000002183900000000000000000000000000000003009202501102025            000000000000000                              000                           
0010001300383T 0601897X0000000092096 24778822500003990   700000000000399030092025000000000218111341016190000003990                0900000000000010100000000000000000000000000000000000000   000000000000000000000000004        170192477882     
0010001300384U 060000000000000000000000000000000000000000000000000000000000000000000002181110000000002181110000000000000000000000000000003009202501102025            000000000000000                              000                           
0010001300385T 0601897X0000000092096 24778822500003997   700000000000399730092025000000000214032001030708000003997                0900000000000010090000000000000000000000000000000000000   000000000000000000000000006        170192477882     
0010001300386U 060000000000000000000000000000000000000000000000000000000000000000000002140320000000002140320000000000000000000000000000003009202501102025            000000000000000                              000                           
0010001300387T 0601897X0000000092096 24778822500004011   700000000000401130092025000000000212716033022360000004011                0900000000000010100000000000000000000000000000000000000   000000000000000000000000004        170192477882     
0010001300388U 060000000000000000000000000000000000000000000000000000000000000000000002127160000000002127160000000000000000000000000000003009202501102025            000000000000000                              000                           
0010001300389T 0601897X0000000092096 24778822500004025   700000000000402530092025000000000208827077000010000004025                0900000000000010100000000000000000000000000000000000000   000000000000000000000000004        170192477882     
0010001300390U 060000000000000000000000000000000000000000000000000000000000000000000002088270000000002088270000000000000000000000000000003009202501102025            000000000000000                              000                           
0010001300391T 0601897X0000000092096 24778822500004032   700000000000403230092025000000000206359748053690000004032                0900000000000010100000000000000000000000000000000000000   000000000000000000000000004        170192477882     
0010001300392U 060000000000000000000000000000000000000000000000000000000000000000000002063590000000002063590000000000000000000000000000003009202501102025            000000000000000                              000                           
0010001300393T 0601897X0000000092096 24778822500004039   700000000000403930092025000000000201277341076490000004039                0900000000000010100000000000000000000000000000000000000   000000000000000000000000004        170192477882     
0010001300394U 060000000000000000000000000000000000000000000000000000000000000000000002012770000000002012770000000000000000000000000000003009202501102025            000000000000000                              000                           
0010001300395T 0601897X0000000092096 24778822500004046   700000000000404630092025000000000197273237005200000004046                0900000000000010100000000000000000000000000000000000000   000000000000000000000000004        170192477882     
0010001300396U 060000000000000000000000000000000000000000000000000000000000000000000001972730000000001972730000000000000000000000000000003009202501102025            000000000000000                              000                           
0010001300397T 0601897X0000000092096 24778822500004053   700000000000405330092025000000000196125001033626000004053                0900000000000010040000000000000000000000000000000000000   000000000000000000000000034        170192477882     
0010001300398U 060000000000000000000000000000000000000000000000000000000000000000000001961250000000001961250000000000000000000000000000003009202501102025            000000000000000                              000                           
0010001300399T 0601897X0000000092096 24778822500004067   700000000000406730092025000000000194045341009120000004067                0900000000000010100000000000000000000000000000000000000   000000000000000000000000004        170192477882     
0010001300400U 060000000000000000000000000000000000000000000000000000000000000000000001940450000000001940450000000000000000000000000000003009202501102025            000000000000000                              000                           
0010001300401T 0601897X0000000092096 24778822500004074   700000000000407430092025000000000193264237003280000004074                0900000000000010100000000000000000000000000000000000000   000000000000000000000000004        170192477882     
0010001300402U 060000000000000000000000000000000000000000000000000000000000000000000001932640000000001932640000000000000000000000000000003009202501102025            000000000000000                              000                           
0010001300403T 0601897X0000000092096 24778822500004081   700000000000408130092025000000000184861341005600000004081                0900000000000010100000000000000000000000000000000000000   000000000000000000000000004        170192477882     
0010001300404U 060000000000000000000000000000000000000000000000000000000000000000000001848610000000001848610000000000000000000000000000003009202501102025            000000000000000                              000                           
0010001300405T 0601897X0000000092096 24778822500004088   700000000000408830092025000000000184228033033160000004088                0900000000000010100000000000000000000000000000000000000   000000000000000000000000004        170192477882     
0010001300406U 060000000000000000000000000000000000000000000000000000000000000000000001842280000000001842280000000000000000000000000000003009202501102025            000000000000000                              000                           
0010001300407T 0601897X0000000092096 24778822500004095   700000000000409530092025000000000184099341007310000004095                0900000000000010100000000000000000000000000000000000000   000000000000000000000000004        170192477882     
0010001300408U 060000000000000000000000000000000000000000000000000000000000000000000001840990000000001840990000000000000000000000000000003009202501102025            000000000000000                              000                           
0010001300409T 0601897X0000000092096 24778822500004102   700000000000410230092025000000000183350001030708000004102                0900000000000010090000000000000000000000000000000000000   000000000000000000000000006        170192477882     
0010001300410U 060000000000000000000000000000000000000000000000000000000000000000000001833500000000001833500000000000000000000000000000003009202501102025            000000000000000                              000                           
0010001300411T 0601897X0000000092096 24778822500004109   700000000000410930092025000000000182134237024860000004109                0900000000000010100000000000000000000000000000000000000   000000000000000000000000004        170192477882     
0010001300412U 060000000000000000000000000000000000000000000000000000000000000000000001821340000000001821340000000000000000000000000000003009202501102025            000000000000000                              000                           
