00100000         2115139610001160024778820014       01897X0000000092096 FUNDACAO AGENCIA DAS BACIAS HIBANCO DO BRASIL                         20301202502040500590303000000829973081PROCESSAMEN                                                 
00100011T0100020 20115139610001160024778820014       01897X0000000092096 FUNDACAO AGENCIA DAS BACIAS HI                                                                                000000000301202500000000  000000000                      
0010001300001T 0601897X0000000092096 24778822400003053   700000000000305319122024000000000126552341000540000003053                0900000000000010100000000000000000000000000000000000000   000000000000000000000000004        170192477882     
0010001300002U 060000000000031630000000000000000000000000000000000000000000000000000001297150000000001297150000000000000000000000000000000301202506012025            000000000000000                              000                           
0010001300003T 0901897X0000000092096 24778822400001514   70000000000015142911202400000000002642900100295X000001514                0900000000000000000000000000000000000000000000000000000   000000000000000000000039009        170192477882     
0010001300004U 090000000000000000000000000000000000000000000000000000000000000000000000000000000000000000000000000000000000000000000000000301202500000000            000000000000000                              000                           
0010001300005T 0901897X0000000092096 24778822400001526   70000000000015262911202400000000002634900100216X000001526                0900000000000000000000000000000000000000000000000000000   000000000000000000000039009        170192477882     
0010001300006U 090000000000000000000000000000000000000000000000000000000000000000000000000000000000000000000000000000000000000000000000000301202500000000            000000000000000                              000                           
0010001300007T 0901897X0000000092096 24778822400001532   70000000000015322911202400000000002604300101513X000001532                0900000000000000000000000000000000000000000000000000000   000000000000000000000039009        170192477882     
0010001300008U 090000000000000000000000000000000000000000000000000000000000000000000000000000000000000000000000000000000000000000000000000301202500000000            000000000000000                              000                           
0010001300009T 0901897X0000000092096 24778822400001538   70000000000015382911202400000000002590500101849X000001538                0900000000000000000000000000000000000000000000000000000   000000000000000000000039009        170192477882     
0010001300010U 090000000000000000000000000000000000000000000000000000000000000000000000000000000000000000000000000000000000000000000000000301202500000000            000000000000000                              000                           
0010001300011T 0901897X0000000092096 24778822400001541   70000000000015412911202400000000002587900101849X000001541                0900000000000000000000000000000000000000000000000000000   000000000000000000000039009        170192477882     
0010001300012U 090000000000000000000000000000000000000000000000000000000000000000000000000000000000000000000000000000000000000000000000000301202500000000            000000000000000                              000                           
0010001300013T 0901897X0000000092096 24778822400001553   700000000000155329112024000000000025688001001724000001553                0900000000000000000000000000000000000000000000000000000   000000000000000000000039009        170192477882     
0010001300014U 090000000000000000000000000000000000000000000000000000000000000000000000000000000000000000000000000000000000000000000000000301202500000000            000000000000000                              000                           
0010001300015T 0901897X0000000092096 24778822400001556   700000000000155629112024000000000025649001014753000001556                0900000000000000000000000000000000000000000000000000000   000000000000000000000039009        170192477882     
0010001300016U 090000000000000000000000000000000000000000000000000000000000000000000000000000000000000000000000000000000000000000000000000301202500000000            000000000000000                              000                           
0010001300017T 0901897X0000000092096 24778822400001562   700000000000156229112024000000000025498001001724000001562                0900000000000000000000000000000000000000000000000000000   000000000000000000000039009        170192477882     
0010001300018U 090000000000000000000000000000000000000000000000000000000000000000000000000000000000000000000000000000000000000000000000000301202500000000            000000000000000                              000                           
0010001300019T 0901897X0000000092096 24778822400001568   700000000000156829112024000000000025373001003409000001568                0900000000000000000000000000000000000000000000000000000   000000000000000000000039009        170192477882     
0010001300020U 090000000000000000000000000000000000000000000000000000000000000000000000000000000000000000000000000000000000000000000000000301202500000000            000000000000000                              000                           
0010001300021T 0901897X0000000092096 24778822400001583   70000000000015832911202400000000002493700101849X000001583                0900000000000000000000000000000000000000000000000000000   000000000000000000000039009        170192477882     
0010001300022U 090000000000000000000000000000000000000000000000000000000000000000000000000000000000000000000000000000000000000000000000000301202500000000            000000000000000                              000                           
0010001300023T 0901897X0000000092096 24778822400001592   700000000000159229112024000000000024885001001724000001592                0900000000000000000000000000000000000000000000000000000   000000000000000000000039009        170192477882     
0010001300024U 090000000000000000000000000000000000000000000000000000000000000000000000000000000000000000000000000000000000000000000000000301202500000000            000000000000000                              000                           
0010001300025T 0901897X0000000092096 24778822400001595   700000000000159529112024000000000024705001009296000001595                0900000000000000000000000000000000000000000000000000000   000000000000000000000039009        170192477882     
0010001300026U 090000000000000000000000000000000000000000000000000000000000000000000000000000000000000000000000000000000000000000000000000301202500000000            000000000000000                              000                           
0010001300027T 0901897X0000000092096 24778822400001601   700000000000160129112024000000000024592001008117000001601                0900000000000000000000000000000000000000000000000000000   000000000000000000000039009        170192477882     
0010001300028U 090000000000000000000000000000000000000000000000000000000000000000000000000000000000000000000000000000000000000000000000000301202500000000            000000000000000                              000                           
0010001300029T 0901897X0000000092096 24778822400001607   700000000000160729112024000000000024478001001678000001607                0900000000000000000000000000000000000000000000000000000   000000000000000000000039009        170192477882     
0010001300030U 090000000000000000000000000000000000000000000000000000000000000000000000000000000000000000000000000000000000000000000000000301202500000000            000000000000000                              000                           
0010001300031T 0901897X0000000092096 24778822400001610   70000000000016102911202400000000002447100101849X000001610                0900000000000000000000000000000000000000000000000000000   000000000000000000000039009        170192477882     
0010001300032U 090000000000000000000000000000000000000000000000000000000000000000000000000000000000000000000000000000000000000000000000000301202500000000            000000000000000                              000                           
0010001300033T 0901897X0000000092096 24778822400001625   700000000000162529112024000000000024397001069833000001625                0900000000000000000000000000000000000000000000000000000   000000000000000000000039009        170192477882     
0010001300034U 090000000000000000000000000000000000000000000000000000000000000000000000000000000000000000000000000000000000000000000000000301202500000000            000000000000000                              000                           
0010001300035T 0901897X0000000092096 24778822400001634   700000000000163429112024000000000024397001022586000001634                0900000000000000000000000000000000000000000000000000000   000000000000000000000039009        170192477882     
0010001300036U 090000000000000000000000000000000000000000000000000000000000000000000000000000000000000000000000000000000000000000000000000301202500000000            000000000000000                              000                           
0010001300037T 0901897X0000000092096 24778822400001646   700000000000164629112024000000000024397001069833000001646                0900000000000000000000000000000000000000000000000000000   000000000000000000000039009        170192477882     
0010001300038U 090000000000000000000000000000000000000000000000000000000000000000000000000000000000000000000000000000000000000000000000000301202500000000            000000000000000                              000                           
0010001300039T 0901897X0000000092096 24778822400001652   700000000000165229112024000000000024397001004561000001652                0900000000000000000000000000000000000000000000000000000   000000000000000000000039009        170192477882     
0010001300040U 090000000000000000000000000000000000000000000000000000000000000000000000000000000000000000000000000000000000000000000000000301202500000000            000000000000000                              000                           
0010001300041T 0901897X0000000092096 24778822400001658   70000000000016582911202400000000002439700101849X000001658                0900000000000000000000000000000000000000000000000000000   000000000000000000000039009        170192477882     
0010001300042U 090000000000000000000000000000000000000000000000000000000000000000000000000000000000000000000000000000000000000000000000000301202500000000            000000000000000                              000                           
0010001300043T 0901897X0000000092096 24778822400001667   700000000000166729112024000000000024344001000566000001667                0900000000000000000000000000000000000000000000000000000   000000000000000000000039009        170192477882     
0010001300044U 090000000000000000000000000000000000000000000000000000000000000000000000000000000000000000000000000000000000000000000000000301202500000000            000000000000000                              000                           
0010001300045T 0901897X0000000092096 24778822400001688   700000000000168829112024000000000023974001000566000001688                0900000000000000000000000000000000000000000000000000000   000000000000000000000039009        170192477882     
0010001300046U 090000000000000000000000000000000000000000000000000000000000000000000000000000000000000000000000000000000000000000000000000301202500000000            000000000000000                              000                           
0010001300047T 0901897X0000000092096 24778822400001691   70000000000016912911202400000000002397400101849X000001691                0900000000000000000000000000000000000000000000000000000   000000000000000000000039009        170192477882     
0010001300048U 090000000000000000000000000000000000000000000000000000000000000000000000000000000000000000000000000000000000000000000000000301202500000000            000000000000000                              000                           
0010001300049T 0901897X0000000092096 24778822400001742   700000000000174229112024000000000023421001026565000001742                0900000000000000000000000000000000000000000000000000000   000000000000000000000039009        170192477882     
0010001300050U 090000000000000000000000000000000000000000000000000000000000000000000000000000000000000000000000000000000000000000000000000301202500000000            000000000000000                              000                           
0010001300051T 0901897X0000000092096 24778822400001745   700000000000174529112024000000000023377001001724000001745                0900000000000000000000000000000000000000000000000000000   000000000000000000000039009        170192477882     
0010001300052U 090000000000000000000000000000000000000000000000000000000000000000000000000000000000000000000000000000000000000000000000000301202500000000            000000000000000                              000                           
0010001300053T 0901897X0000000092096 24778822400001757   700000000000175729112024000000000023197001008117000001757                0900000000000000000000000000000000000000000000000000000   000000000000000000000039009        170192477882     
0010001300054U 090000000000000000000000000000000000000000000000000000000000000000000000000000000000000000000000000000000000000000000000000301202500000000            000000000000000                              000                           
0010001300055T 0901897X0000000092096 24778822400001769   700000000000176929112024000000000023156001003018000001769                0900000000000000000000000000000000000000000000000000000   000000000000000000000039009        170192477882     
0010001300056U 090000000000000000000000000000000000000000000000000000000000000000000000000000000000000000000000000000000000000000000000000301202500000000            000000000000000                              000                           
0010001300057T 0901897X0000000092096 24778822400001775   700000000000177529112024000000000023117001029238000001775                0900000000000000000000000000000000000000000000000000000   000000000000000000000039009        170192477882     
0010001300058U 090000000000000000000000000000000000000000000000000000000000000000000000000000000000000000000000000000000000000000000000000301202500000000            000000000000000                              000                           
0010001300059T 0901897X0000000092096 24778822400001790   700000000000179029112024000000000023024001009903000001790                0900000000000000000000000000000000000000000000000000000   000000000000000000000039009        170192477882     
0010001300060U 090000000000000000000000000000000000000000000000000000000000000000000000000000000000000000000000000000000000000000000000000301202500000000            000000000000000                              000                           
0010001300061T 0901897X0000000092096 24778822400001793   700000000000179329112024000000000022915001003018000001793                0900000000000000000000000000000000000000000000000000000   000000000000000000000039009        170192477882     
0010001300062U 090000000000000000000000000000000000000000000000000000000000000000000000000000000000000000000000000000000000000000000000000301202500000000            000000000000000                              000                           
0010001300063T 0901897X0000000092096 24778822400001811   700000000000181129112024000000000022638001014753000001811                0900000000000000000000000000000000000000000000000000000   000000000000000000000039009        170192477882     
0010001300064U 090000000000000000000000000000000000000000000000000000000000000000000000000000000000000000000000000000000000000000000000000301202500000000            000000000000000                              000                           
0010001300065T 0901897X0000000092096 24778822400001814   700000000000181429112024000000000022627001009946000001814                0900000000000000000000000000000000000000000000000000000   000000000000000000000039009        170192477882     
0010001300066U 090000000000000000000000000000000000000000000000000000000000000000000000000000000000000000000000000000000000000000000000000301202500000000            000000000000000                              000                           
0010001300067T 0901897X0000000092096 24778822400001826   700000000000182629112024000000000022234001003409000001826                0900000000000000000000000000000000000000000000000000000   000000000000000000000039009        170192477882     
0010001300068U 090000000000000000000000000000000000000000000000000000000000000000000000000000000000000000000000000000000000000000000000000301202500000000            000000000000000                              000                           
0010001300069T 0901897X0000000092096 24778822400001832   700000000000183229112024000000000022024001000310000001832                0900000000000000000000000000000000000000000000000000000   000000000000000000000039009        170192477882     
0010001300070U 090000000000000000000000000000000000000000000000000000000000000000000000000000000000000000000000000000000000000000000000000301202500000000            000000000000000                              000                           
0010001300071T 0901897X0000000092096 24778822400001844   700000000000184429112024000000000021958001006998000001844                0900000000000000000000000000000000000000000000000000000   000000000000000000000039009        170192477882     
0010001300072U 090000000000000000000000000000000000000000000000000000000000000000000000000000000000000000000000000000000000000000000000000301202500000000            000000000000000                              000                           
0010001300073T 0901897X0000000092096 24778822400001871   700000000000187129112024000000000021923001009903000001871                0900000000000000000000000000000000000000000000000000000   000000000000000000000039009        170192477882     
0010001300074U 090000000000000000000000000000000000000000000000000000000000000000000000000000000000000000000000000000000000000000000000000301202500000000            000000000000000                              000                           
0010001300075T 0901897X0000000092096 24778822400001886   700000000000188629112024000000000021470001009946000001886                0900000000000000000000000000000000000000000000000000000   000000000000000000000039009        170192477882     
0010001300076U 090000000000000000000000000000000000000000000000000000000000000000000000000000000000000000000000000000000000000000000000000301202500000000            000000000000000                              000                           
0010001300077T 0901897X0000000092096 24778822400001895   700000000000189529112024000000000021453001008117000001895                0900000000000000000000000000000000000000000000000000000   000000000000000000000039009        170192477882     
0010001300078U 090000000000000000000000000000000000000000000000000000000000000000000000000000000000000000000000000000000000000000000000000301202500000000            000000000000000                              000                           
0010001300079T 0901897X0000000092096 24778822400001901   700000000000190129112024000000000021321001006998000001901                0900000000000000000000000000000000000000000000000000000   000000000000000000000039009        170192477882     
0010001300080U 090000000000000000000000000000000000000000000000000000000000000000000000000000000000000000000000000000000000000000000000000301202500000000            000000000000000                              000                           
0010001300081T 0901897X0000000092096 24778822400001904   70000000000019042911202400000000002127400101849X000001904                0900000000000000000000000000000000000000000000000000000   000000000000000000000039009        170192477882     
0010001300082U 090000000000000000000000000000000000000000000000000000000000000000000000000000000000000000000000000000000000000000000000000301202500000000            000000000000000                              000                           
0010001300083T 0901897X0000000092096 24778822400001907   700000000000190729112024000000000021272001004154000001907                0900000000000000000000000000000000000000000000000000000   000000000000000000000039009        170192477882     
0010001300084U 090000000000000000000000000000000000000000000000000000000000000000000000000000000000000000000000000000000000000000000000000301202500000000            000000000000000                              000                           
0010001300085T 0901897X0000000092096 24778822400001910   700000000000191029112024000000000021270001008117000001910                0900000000000000000000000000000000000000000000000000000   000000000000000000000039009        170192477882     
0010001300086U 090000000000000000000000000000000000000000000000000000000000000000000000000000000000000000000000000000000000000000000000000301202500000000            000000000000000                              000                           
0010001300087T 0901897X0000000092096 24778822400001925   70000000000019252911202400000000002104800101849X000001925                0900000000000000000000000000000000000000000000000000000   000000000000000000000039009        170192477882     
0010001300088U 090000000000000000000000000000000000000000000000000000000000000000000000000000000000000000000000000000000000000000000000000301202500000000            000000000000000                              000                           
0010001300089T 0901897X0000000092096 24778822400001937   700000000000193729112024000000000020640001003190000001937                0900000000000000000000000000000000000000000000000000000   000000000000000000000039009        170192477882     
0010001300090U 090000000000000000000000000000000000000000000000000000000000000000000000000000000000000000000000000000000000000000000000000301202500000000            000000000000000                              000                           
0010001300091T 0901897X0000000092096 24778822400001952   700000000000195229112024000000000020493001027669000001952                0900000000000000000000000000000000000000000000000000000   000000000000000000000039009        170192477882     
0010001300092U 090000000000000000000000000000000000000000000000000000000000000000000000000000000000000000000000000000000000000000000000000301202500000000            000000000000000                              000                           
0010001300093T 0901897X0000000092096 24778822400001955   700000000000195529112024000000000020493001004154000001955                0900000000000000000000000000000000000000000000000000000   000000000000000000000039009        170192477882     
0010001300094U 090000000000000000000000000000000000000000000000000000000000000000000000000000000000000000000000000000000000000000000000000301202500000000            000000000000000                              000                           
0010001300095T 0901897X0000000092096 24778822400001973   700000000000197329112024000000000020088001009296000001973                0900000000000000000000000000000000000000000000000000000   000000000000000000000039009        170192477882     
0010001300096U 090000000000000000000000000000000000000000000000000000000000000000000000000000000000000000000000000000000000000000000000000301202500000000            000000000000000                              000                           
0010001300097T 0901897X0000000092096 24778822400001982   70000000000019822911202400000000002002000101849X000001982                0900000000000000000000000000000000000000000000000000000   000000000000000000000039009        170192477882     
0010001300098U 090000000000000000000000000000000000000000000000000000000000000000000000000000000000000000000000000000000000000000000000000301202500000000            000000000000000                              000                           
0010001300099T 0901897X0000000092096 24778822400002204   700000000000220429112024000000000850400001000566000002204                0900000000000000000000000000000000000000000000000000000   000000000000000000000039009        170192477882     
0010001300100U 090000000000000000000000000000000000000000000000000000000000000000000000000000000000000000000000000000000000000000000000000301202500000000            000000000000000                              000                           
0010001300101T 0901897X0000000092096 24778822400002292   700000000000229229112024000000000513335001009296000002292                0900000000000000000000000000000000000000000000000000000   000000000000000000000039009        170192477882     
0010001300102U 090000000000000000000000000000000000000000000000000000000000000000000000000000000000000000000000000000000000000000000000000301202500000000            000000000000000                              000                           
0010001300103T 0901897X0000000092096 24778822400002340   700000000000234029112024000000000438405001009296000002340                0900000000000000000000000000000000000000000000000000000   000000000000000000000039009        170192477882     
0010001300104U 090000000000000000000000000000000000000000000000000000000000000000000000000000000000000000000000000000000000000000000000000301202500000000            000000000000000                              000                           
0010001300105T 0901897X0000000092096 24778822400002368   70000000000023682911202400000000039639800100216X000002368                0900000000000000000000000000000000000000000000000000000   000000000000000000000039009        170192477882     
0010001300106U 090000000000000000000000000000000000000000000000000000000000000000000000000000000000000000000000000000000000000000000000000301202500000000            000000000000000                              000                           
0010001300107T 0901897X0000000092096 24778822400002388   700000000000238829112024000000000387916001026565000002388                0900000000000000000000000000000000000000000000000000000   000000000000000000000039009        170192477882     
0010001300108U 090000000000000000000000000000000000000000000000000000000000000000000000000000000000000000000000000000000000000000000000000301202500000000            000000000000000                              000                           
0010001300109T 0901897X0000000092096 24778822400002400   700000000000240029112024000000000377718001009946000002400                0900000000000000000000000000000000000000000000000000000   000000000000000000000039009        170192477882     
0010001300110U 090000000000000000000000000000000000000000000000000000000000000000000000000000000000000000000000000000000000000000000000000301202500000000            000000000000000                              000                           
0010001300111T 0901897X0000000092096 24778822400002444   700000000000244429112024000000000330802001003190000002444                0900000000000000000000000000000000000000000000000000000   000000000000000000000039009        170192477882     
0010001300112U 090000000000000000000000000000000000000000000000000000000000000000000000000000000000000000000000000000000000000000000000000301202500000000            000000000000000                              000                           
0010001300113T 0901897X0000000092096 24778822400002484   700000000000248429112024000000000307572001003018000002484                0900000000000000000000000000000000000000000000000000000   000000000000000000000039009        170192477882     
0010001300114U 090000000000000000000000000000000000000000000000000000000000000000000000000000000000000000000000000000000000000000000000000301202500000000            000000000000000                              000                           
0010001300115T 0901897X0000000092096 24778822400002488   700000000000248829112024000000000305119001003549000002488                0900000000000000000000000000000000000000000000000000000   000000000000000000000039009        170192477882     
0010001300116U 090000000000000000000000000000000000000000000000000000000000000000000000000000000000000000000000000000000000000000000000000301202500000000            000000000000000                              000                           
0010001300117T 0901897X0000000092096 24778822400002528   700000000000252829112024000000000272556001014753000002528                0900000000000000000000000000000000000000000000000000000   000000000000000000000039009        170192477882     
0010001300118U 090000000000000000000000000000000000000000000000000000000000000000000000000000000000000000000000000000000000000000000000000301202500000000            000000000000000                              000                           
0010001300119T 0901897X0000000092096 24778822400002544   700000000000254429112024000000000263543001003190000002544                0900000000000000000000000000000000000000000000000000000   000000000000000000000039009        170192477882     
0010001300120U 090000000000000000000000000000000000000000000000000000000000000000000000000000000000000000000000000000000000000000000000000301202500000000            000000000000000                              000                           
0010001300121T 0901897X0000000092096 24778822400002564   700000000000256429112024000000000246646001009296000002564                0900000000000000000000000000000000000000000000000000000   000000000000000000000039009        170192477882     
0010001300122U 090000000000000000000000000000000000000000000000000000000000000000000000000000000000000000000000000000000000000000000000000301202500000000            000000000000000                              000                           
0010001300123T 0901897X0000000092096 24778822400002572   700000000000257229112024000000000243256001001724000002572                0900000000000000000000000000000000000000000000000000000   000000000000000000000039009        170192477882     
0010001300124U 090000000000000000000000000000000000000000000000000000000000000000000000000000000000000000000000000000000000000000000000000301202500000000            000000000000000                              000                           
0010001300125T 0901897X0000000092096 24778822400002584   70000000000025842911202400000000024153300101849X000002584                0900000000000000000000000000000000000000000000000000000   000000000000000000000039009        170192477882     
0010001300126U 090000000000000000000000000000000000000000000000000000000000000000000000000000000000000000000000000000000000000000000000000301202500000000            000000000000000                              000                           
0010001300127T 0901897X0000000092096 24778822400002588   700000000000258829112024000000000240363001009296000002588                0900000000000000000000000000000000000000000000000000000   000000000000000000000039009        170192477882     
0010001300128U 090000000000000000000000000000000000000000000000000000000000000000000000000000000000000000000000000000000000000000000000000301202500000000            000000000000000                              000                           
0010001300129T 0901897X0000000092096 24778822400002592   700000000000259229112024000000000237347001023248000002592                0900000000000000000000000000000000000000000000000000000   000000000000000000000039009        170192477882     
0010001300130U 090000000000000000000000000000000000000000000000000000000000000000000000000000000000000000000000000000000000000000000000000301202500000000            000000000000000                              000                           
0010001300131T 0901897X0000000092096 24778822400002604   700000000000260429112024000000000233315001032883000002604                0900000000000000000000000000000000000000000000000000000   000000000000000000000039009        170192477882     
0010001300132U 090000000000000000000000000000000000000000000000000000000000000000000000000000000000000000000000000000000000000000000000000301202500000000            000000000000000                              000                           
0010001300133T 0901897X0000000092096 24778822400002648   700000000000264829112024000000000213749001022004000002648                0900000000000000000000000000000000000000000000000000000   000000000000000000000039009        170192477882     
0010001300134U 090000000000000000000000000000000000000000000000000000000000000000000000000000000000000000000000000000000000000000000000000301202500000000            000000000000000                              000                           
0010001300135T 0901897X0000000092096 24778822400002672   700000000000267229112024000000000206093001001724000002672                0900000000000000000000000000000000000000000000000000000   000000000000000000000039009        170192477882     
0010001300136U 090000000000000000000000000000000000000000000000000000000000000000000000000000000000000000000000000000000000000000000000000301202500000000            000000000000000                              000                           
0010001300137T 0901897X0000000092096 24778822400002688   700000000000268829112024000000000203342001000566000002688                0900000000000000000000000000000000000000000000000000000   000000000000000000000039009        170192477882     
0010001300138U 090000000000000000000000000000000000000000000000000000000000000000000000000000000000000000000000000000000000000000000000000301202500000000            000000000000000                              000                           
0010001300139T 0901897X0000000092096 24778822400002716   70000000000027162911202400000000019482000101849X000002716                0900000000000000000000000000000000000000000000000000000   000000000000000000000039009        170192477882     
0010001300140U 090000000000000000000000000000000000000000000000000000000000000000000000000000000000000000000000000000000000000000000000000301202500000000            000000000000000                              000                           
0010001300141T 0901897X0000000092096 24778822400002728   700000000000272829112024000000000189574001000566000002728                0900000000000000000000000000000000000000000000000000000   000000000000000000000039009        170192477882     
0010001300142U 090000000000000000000000000000000000000000000000000000000000000000000000000000000000000000000000000000000000000000000000000301202500000000            000000000000000                              000                           
0010001300143T 0901897X0000000092096 24778822400002744   70000000000027442911202400000000018297900100216X000002744                0900000000000000000000000000000000000000000000000000000   000000000000000000000039009        170192477882     
0010001300144U 090000000000000000000000000000000000000000000000000000000000000000000000000000000000000000000000000000000000000000000000000301202500000000            000000000000000                              000                           
0010001300145T 0901897X0000000092096 24778822400002776   700000000000277629112024000000000174989001007994000002776                0900000000000000000000000000000000000000000000000000000   000000000000000000000039009        170192477882     
0010001300146U 090000000000000000000000000000000000000000000000000000000000000000000000000000000000000000000000000000000000000000000000000301202500000000            000000000000000                              000                           
0010001300147T 0901897X0000000092096 24778822400002784   700000000000278429112024000000000173033001001724000002784                0900000000000000000000000000000000000000000000000000000   000000000000000000000039009        170192477882     
0010001300148U 090000000000000000000000000000000000000000000000000000000000000000000000000000000000000000000000000000000000000000000000000301202500000000            000000000000000                              000                           
0010001300149T 0901897X0000000092096 24778822400002828   70000000000028282911202400000000016242700101513X000002828                0900000000000000000000000000000000000000000000000000000   000000000000000000000039009        170192477882     
0010001300150U 090000000000000000000000000000000000000000000000000000000000000000000000000000000000000000000000000000000000000000000000000301202500000000            000000000000000                              000                           
0010001300151T 0901897X0000000092096 24778822400002844   700000000000284429112024000000000157216001022004000002844                0900000000000000000000000000000000000000000000000000000   000000000000000000000039009        170192477882     
0010001300152U 090000000000000000000000000000000000000000000000000000000000000000000000000000000000000000000000000000000000000000000000000301202500000000            000000000000000                              000                           
0010001300153T 0901897X0000000092096 24778822400002868   700000000000286829112024000000000149586001009296000002868                0900000000000000000000000000000000000000000000000000000   000000000000000000000039009        170192477882     
0010001300154U 090000000000000000000000000000000000000000000000000000000000000000000000000000000000000000000000000000000000000000000000000301202500000000            000000000000000                              000                           
0010001300155T 0901897X0000000092096 24778822400002912   700000000000291229112024000000000146383001026565000002912                0900000000000000000000000000000000000000000000000000000   000000000000000000000039009        170192477882     
0010001300156U 090000000000000000000000000000000000000000000000000000000000000000000000000000000000000000000000000000000000000000000000000301202500000000            000000000000000                              000                           
0010001300157T 0901897X0000000092096 24778822400002928   700000000000292829112024000000000144402001002682000002928                0900000000000000000000000000000000000000000000000000000   000000000000000000000039009        170192477882     
0010001300158U 090000000000000000000000000000000000000000000000000000000000000000000000000000000000000000000000000000000000000000000000000301202500000000            000000000000000                              000                           
0010001300159T 0901897X0000000092096 24778822400002932   700000000000293229112024000000000143847001000280000002932                0900000000000000000000000000000000000000000000000000000   000000000000000000000039009        170192477882     
0010001300160U 090000000000000000000000000000000000000000000000000000000000000000000000000000000000000000000000000000000000000000000000000301202500000000            000000000000000                              000                           
0010001300161T 0901897X0000000092096 24778822400002936   700000000000293629112024000000000143847001001724000002936                0900000000000000000000000000000000000000000000000000000   000000000000000000000039009        170192477882     
0010001300162U 090000000000000000000000000000000000000000000000000000000000000000000000000000000000000000000000000000000000000000000000000301202500000000            000000000000000                              000                           
0010001300163T 0901897X0000000092096 24778822400002940   700000000000294029112024000000000143416001009296000002940                0900000000000000000000000000000000000000000000000000000   000000000000000000000039009        170192477882     
0010001300164U 090000000000000000000000000000000000000000000000000000000000000000000000000000000000000000000000000000000000000000000000000301202500000000            000000000000000                              000                           
0010001300165T 0901897X0000000092096 24778822400002984   700000000000298429112024000000000131795001003018000002984                0900000000000000000000000000000000000000000000000000000   000000000000000000000039009        170192477882     
0010001300166U 090000000000000000000000000000000000000000000000000000000000000000000000000000000000000000000000000000000000000000000000000301202500000000            000000000000000                              000                           
0010001300167T 0901897X0000000092096 24778822400003028   700000000000302829112024000000000128624001004561000003028                0900000000000000000000000000000000000000000000000000000   000000000000000000000039009        170192477882     
0010001300168U 090000000000000000000000000000000000000000000000000000000000000000000000000000000000000000000000000000000000000000000000000301202500000000            000000000000000                              000                           
0010001300169T 0901897X0000000092096 24778822400003036   700000000000303629112024000000000128086001001724000003036                0900000000000000000000000000000000000000000000000000000   000000000000000000000039009        170192477882     
0010001300170U 090000000000000000000000000000000000000000000000000000000000000000000000000000000000000000000000000000000000000000000000000301202500000000            000000000000000                              000                           
0010001300171T 0901897X0000000092096 24778822400003040   700000000000304029112024000000000128086001000566000003040                0900000000000000000000000000000000000000000000000000000   000000000000000000000039009        170192477882     
0010001300172U 090000000000000000000000000000000000000000000000000000000000000000000000000000000000000000000000000000000000000000000000000301202500000000            000000000000000                              000                           
0010001300173T 0901897X0000000092096 24778822400003068   700000000000306829112024000000000124740001009946000003068                0900000000000000000000000000000000000000000000000000000   000000000000000000000039009        170192477882     
0010001300174U 090000000000000000000000000000000000000000000000000000000000000000000000000000000000000000000000000000000000000000000000000301202500000000            000000000000000                              000                           
0010001300175T 0901897X0000000092096 24778822400003088   700000000000308829112024000000000121315001007994000003088                0900000000000000000000000000000000000000000000000000000   000000000000000000000039009        170192477882     
0010001300176U 090000000000000000000000000000000000000000000000000000000000000000000000000000000000000000000000000000000000000000000000000301202500000000            000000000000000                              000                           
0010001300177T 0901897X0000000092096 24778822400003108   70000000000031082911202400000000011889400100216X000003108                0900000000000000000000000000000000000000000000000000000   000000000000000000000039009        170192477882     
0010001300178U 090000000000000000000000000000000000000000000000000000000000000000000000000000000000000000000000000000000000000000000000000301202500000000            000000000000000                              000                           
0010001300179T 0901897X0000000092096 24778822400003112   700000000000311229112024000000000118699001069833000003112                0900000000000000000000000000000000000000000000000000000   000000000000000000000039009        170192477882     
0010001300180U 090000000000000000000000000000000000000000000000000000000000000000000000000000000000000000000000000000000000000000000000000301202500000000            000000000000000                              000                           
0010001300181T 0901897X0000000092096 24778822400003160   700000000000316029112024000000000112475001003190000003160                0900000000000000000000000000000000000000000000000000000   000000000000000000000039009        170192477882     
0010001300182U 090000000000000000000000000000000000000000000000000000000000000000000000000000000000000000000000000000000000000000000000000301202500000000            000000000000000                              000                           
0010001300183T 0901897X0000000092096 24778822400003172   70000000000031722911202400000000011212000100264X000003172                0900000000000000000000000000000000000000000000000000000   000000000000000000000039009        170192477882     
0010001300184U 090000000000000000000000000000000000000000000000000000000000000000000000000000000000000000000000000000000000000000000000000301202500000000            000000000000000                              000                           
0010001300185T 0901897X0000000092096 24778822400003216   70000000000032162911202400000000010959200101849X000003216                0900000000000000000000000000000000000000000000000000000   000000000000000000000039009        170192477882     
0010001300186U 090000000000000000000000000000000000000000000000000000000000000000000000000000000000000000000000000000000000000000000000000301202500000000            000000000000000                              000                           
0010001300187T 0901897X0000000092096 24778822400003268   700000000000326829112024000000000103998001069833000003268                0900000000000000000000000000000000000000000000000000000   000000000000000000000039009        170192477882     
0010001300188U 090000000000000000000000000000000000000000000000000000000000000000000000000000000000000000000000000000000000000000000000000301202500000000            000000000000000                              000                           
0010001300189T 0901897X0000000092096 24778822400003272   700000000000327229112024000000000103994001009210000003272                0900000000000000000000000000000000000000000000000000000   000000000000000000000039009        170192477882     
0010001300190U 090000000000000000000000000000000000000000000000000000000000000000000000000000000000000000000000000000000000000000000000000301202500000000            000000000000000                              000                           
0010001300191T 0901897X0000000092096 24778822400003288   700000000000328829112024000000000102468001014753000003288                0900000000000000000000000000000000000000000000000000000   000000000000000000000039009        170192477882     
0010001300192U 090000000000000000000000000000000000000000000000000000000000000000000000000000000000000000000000000000000000000000000000000301202500000000            000000000000000                              000                           
0010001300193T 0901897X0000000092096 24778822400003292   700000000000329229112024000000000102468001003549000003292                0900000000000000000000000000000000000000000000000000000   000000000000000000000039009        170192477882     
0010001300194U 090000000000000000000000000000000000000000000000000000000000000000000000000000000000000000000000000000000000000000000000000301202500000000            000000000000000                              000                           
0010001300195T 0901897X0000000092096 24778822400003304   700000000000330429112024000000000098809001043036000003304                0900000000000000000000000000000000000000000000000000000   000000000000000000000039009        170192477882     
0010001300196U 090000000000000000000000000000000000000000000000000000000000000000000000000000000000000000000000000000000000000000000000000301202500000000            000000000000000                              000                           
0010001300197T 0901897X0000000092096 24778822400003308   70000000000033082911202400000000009880900101849X000003308                0900000000000000000000000000000000000000000000000000000   000000000000000000000039009        170192477882     
0010001300198U 090000000000000000000000000000000000000000000000000000000000000000000000000000000000000000000000000000000000000000000000000301202500000000            000000000000000                              000                           
0010001300199T 0901897X0000000092096 24778822400003332   700000000000333229112024000000000095149001004561000003332                0900000000000000000000000000000000000000000000000000000   000000000000000000000039009        170192477882     
0010001300200U 090000000000000000000000000000000000000000000000000000000000000000000000000000000000000000000000000000000000000000000000000301202500000000            000000000000000                              000                           
0010001300201T 0901897X0000000092096 24778822400003352   700000000000335229112024000000000091476001000566000003352                0900000000000000000000000000000000000000000000000000000   000000000000000000000039009        170192477882     
0010001300202U 090000000000000000000000000000000000000000000000000000000000000000000000000000000000000000000000000000000000000000000000000301202500000000            000000000000000                              000                           
0010001300203T 0901897X0000000092096 24778822400003388   700000000000338829112024000000000088823001003409000003388                0900000000000000000000000000000000000000000000000000000   000000000000000000000039009        170192477882     
0010001300204U 090000000000000000000000000000000000000000000000000000000000000000000000000000000000000000000000000000000000000000000000000301202500000000            000000000000000                              000                           
0010001300205T 0901897X0000000092096 24778822400003400   700000000000340029112024000000000087830001024538000003400                0900000000000000000000000000000000000000000000000000000   000000000000000000000039009        170192477882     
0010001300206U 090000000000000000000000000000000000000000000000000000000000000000000000000000000000000000000000000000000000000000000000000301202500000000            000000000000000                              000                           
0010001300207T 0901897X0000000092096 24778822400003436   700000000000343629112024000000000086230001007994000003436                0900000000000000000000000000000000000000000000000000000   000000000000000000000039009        170192477882     
0010001300208U 090000000000000000000000000000000000000000000000000000000000000000000000000000000000000000000000000000000000000000000000000301202500000000            000000000000000                              000                           
0010001300209T 0901897X0000000092096 24778822400003444   700000000000344429112024000000000084903001001678000003444                0900000000000000000000000000000000000000000000000000000   000000000000000000000039009        170192477882     
0010001300210U 090000000000000000000000000000000000000000000000000000000000000000000000000000000000000000000000000000000000000000000000000301202500000000            000000000000000                              000                           
0010001300211T 0901897X0000000092096 24778822400003448   700000000000344829112024000000000084765001003409000003448                0900000000000000000000000000000000000000000000000000000   000000000000000000000039009        170192477882     
0010001300212U 090000000000000000000000000000000000000000000000000000000000000000000000000000000000000000000000000000000000000000000000000301202500000000            000000000000000                              000                           
0010001300213T 0901897X0000000092096 24778822400003472   700000000000347229112024000000000082984001004154000003472                0900000000000000000000000000000000000000000000000000000   000000000000000000000039009        170192477882     
0010001300214U 090000000000000000000000000000000000000000000000000000000000000000000000000000000000000000000000000000000000000000000000000301202500000000            000000000000000                              000                           
0010001300215T 0901897X0000000092096 24778822400003480   700000000000348029112024000000000081993001026565000003480                0900000000000000000000000000000000000000000000000000000   000000000000000000000039009        170192477882     
0010001300216U 090000000000000000000000000000000000000000000000000000000000000000000000000000000000000000000000000000000000000000000000000301202500000000            000000000000000                              000                           
0010001300217T 0901897X0000000092096 24778822400003508   700000000000350829112024000000000079717001004561000003508                0900000000000000000000000000000000000000000000000000000   000000000000000000000039009        170192477882     
0010001300218U 090000000000000000000000000000000000000000000000000000000000000000000000000000000000000000000000000000000000000000000000000301202500000000            000000000000000                              000                           
0010001300219T 0901897X0000000092096 24778822400003524   700000000000352429112024000000000078891001066583000003524                0900000000000000000000000000000000000000000000000000000   000000000000000000000039009        170192477882     
0010001300220U 090000000000000000000000000000000000000000000000000000000000000000000000000000000000000000000000000000000000000000000000000301202500000000            000000000000000                              000                           
0010001300221T 0901897X0000000092096 24778822400003564   700000000000356429112024000000000075520001022004000003564                0900000000000000000000000000000000000000000000000000000   000000000000000000000039009        170192477882     
0010001300222U 090000000000000000000000000000000000000000000000000000000000000000000000000000000000000000000000000000000000000000000000000301202500000000            000000000000000                              000                           
0010001300223T 0901897X0000000092096 24778822400003580   700000000000358029112024000000000073909001003190000003580                0900000000000000000000000000000000000000000000000000000   000000000000000000000039009        170192477882     
0010001300224U 090000000000000000000000000000000000000000000000000000000000000000000000000000000000000000000000000000000000000000000000000301202500000000            000000000000000                              000                           
0010001300225T 0901897X0000000092096 24778822400003584   70000000000035842911202400000000007364100100216X000003584                0900000000000000000000000000000000000000000000000000000   000000000000000000000039009        170192477882     
0010001300226U 090000000000000000000000000000000000000000000000000000000000000000000000000000000000000000000000000000000000000000000000000301202500000000            000000000000000                              000                           
0010001300227T 0901897X0000000092096 24778822400003596   700000000000359629112024000000000073192001026565000003596                0900000000000000000000000000000000000000000000000000000   000000000000000000000039009        170192477882     
0010001300228U 090000000000000000000000000000000000000000000000000000000000000000000000000000000000000000000000000000000000000000000000000301202500000000            000000000000000                              000                           
0010001300229T 0901897X0000000092096 24778822400003640   700000000000364029112024000000000072897001001724000003640                0900000000000000000000000000000000000000000000000000000   000000000000000000000039009        170192477882     
0010001300230U 090000000000000000000000000000000000000000000000000000000000000000000000000000000000000000000000000000000000000000000000000301202500000000            000000000000000                              000                           
0010001300231T 0901897X0000000092096 24778822400003644   700000000000364429112024000000000072863001003409000003644                0900000000000000000000000000000000000000000000000000000   000000000000000000000039009        170192477882     
0010001300232U 090000000000000000000000000000000000000000000000000000000000000000000000000000000000000000000000000000000000000000000000000301202500000000            000000000000000                              000                           
0010001300233T 0901897X0000000092096 24778822400003664   70000000000036642911202400000000007203700101849X000003664                0900000000000000000000000000000000000000000000000000000   000000000000000000000039009        170192477882     
0010001300234U 090000000000000000000000000000000000000000000000000000000000000000000000000000000000000000000000000000000000000000000000000301202500000000            000000000000000                              000                           
0010001300235T 0901897X0000000092096 24778822400003684   70000000000036842911202400000000007122600101849X000003684                0900000000000000000000000000000000000000000000000000000   000000000000000000000039009        170192477882     
0010001300236U 090000000000000000000000000000000000000000000000000000000000000000000000000000000000000000000000000000000000000000000000000301202500000000            000000000000000                              000                           
0010001300237T 0901897X0000000092096 24778822400003712   700000000000371229112024000000000069297001003190000003712                0900000000000000000000000000000000000000000000000000000   000000000000000000000039009        170192477882     
0010001300238U 090000000000000000000000000000000000000000000000000000000000000000000000000000000000000000000000000000000000000000000000000301202500000000            000000000000000                              000                           
0010001300239T 0901897X0000000092096 24778822400003728   700000000000372829112024000000000067566001003409000003728                0900000000000000000000000000000000000000000000000000000   000000000000000000000039009        170192477882     
0010001300240U 090000000000000000000000000000000000000000000000000000000000000000000000000000000000000000000000000000000000000000000000000301202500000000            000000000000000                              000                           
0010001300241T 0901897X0000000092096 24778822400003736   700000000000373629112024000000000067449001000566000003736                0900000000000000000000000000000000000000000000000000000   000000000000000000000039009        170192477882     
0010001300242U 090000000000000000000000000000000000000000000000000000000000000000000000000000000000000000000000000000000000000000000000000301202500000000            000000000000000                              000                           
0010001300243T 0901897X0000000092096 24778822400003740   700000000000374029112024000000000067279001003409000003740                0900000000000000000000000000000000000000000000000000000   000000000000000000000039009        170192477882     
0010001300244U 090000000000000000000000000000000000000000000000000000000000000000000000000000000000000000000000000000000000000000000000000301202500000000            000000000000000                              000                           
0010001300245T 0901897X0000000092096 24778822400003748   700000000000374829112024000000000066751001022004000003748                0900000000000000000000000000000000000000000000000000000   000000000000000000000039009        170192477882     
0010001300246U 090000000000000000000000000000000000000000000000000000000000000000000000000000000000000000000000000000000000000000000000000301202500000000            000000000000000                              000                           
0010001300247T 0901897X0000000092096 24778822400003760   700000000000376029112024000000000066343001003220000003760                0900000000000000000000000000000000000000000000000000000   000000000000000000000039009        170192477882     
0010001300248U 090000000000000000000000000000000000000000000000000000000000000000000000000000000000000000000000000000000000000000000000000301202500000000            000000000000000                              000                           
0010001300249T 0901897X0000000092096 24778822400003776   70000000000037762911202400000000006587300100636X000003776                0900000000000000000000000000000000000000000000000000000   000000000000000000000039009        170192477882     
0010001300250U 090000000000000000000000000000000000000000000000000000000000000000000000000000000000000000000000000000000000000000000000000301202500000000            000000000000000                              000                           
0010001300251T 0901897X0000000092096 24778822400003792   700000000000379229112024000000000065873001004154000003792                0900000000000000000000000000000000000000000000000000000   000000000000000000000039009        170192477882     
0010001300252U 090000000000000000000000000000000000000000000000000000000000000000000000000000000000000000000000000000000000000000000000000301202500000000            000000000000000                              000                           
0010001300253T 0901897X0000000092096 24778822400003816   700000000000381629112024000000000065274001003018000003816                0900000000000000000000000000000000000000000000000000000   000000000000000000000039009        170192477882     
0010001300254U 090000000000000000000000000000000000000000000000000000000000000000000000000000000000000000000000000000000000000000000000000301202500000000            000000000000000                              000                           
0010001300255T 0901897X0000000092096 24778822400003824   700000000000382429112024000000000064482001003018000003824                0900000000000000000000000000000000000000000000000000000   000000000000000000000039009        170192477882     
0010001300256U 090000000000000000000000000000000000000000000000000000000000000000000000000000000000000000000000000000000000000000000000000301202500000000            000000000000000                              000                           
0010001300257T 0901897X0000000092096 24778822400003828   700000000000382829112024000000000064251001003409000003828                0900000000000000000000000000000000000000000000000000000   000000000000000000000039009        170192477882     
0010001300258U 090000000000000000000000000000000000000000000000000000000000000000000000000000000000000000000000000000000000000000000000000301202500000000            000000000000000                              000                           
0010001300259T 0901897X0000000092096 24778822400003856   700000000000385629112024000000000063745001022004000003856                0900000000000000000000000000000000000000000000000000000   000000000000000000000039009        170192477882     
0010001300260U 090000000000000000000000000000000000000000000000000000000000000000000000000000000000000000000000000000000000000000000000000301202500000000            000000000000000                              000                           
0010001300261T 0901897X0000000092096 24778822400003860   700000000000386029112024000000000063568001009296000003860                0900000000000000000000000000000000000000000000000000000   000000000000000000000039009        170192477882     
0010001300262U 090000000000000000000000000000000000000000000000000000000000000000000000000000000000000000000000000000000000000000000000000301202500000000            000000000000000                              000                           
0010001300263T 0901897X0000000092096 24778822400003872   700000000000387229112024000000000062579001069833000003872                0900000000000000000000000000000000000000000000000000000   000000000000000000000039009        170192477882     
0010001300264U 090000000000000000000000000000000000000000000000000000000000000000000000000000000000000000000000000000000000000000000000000301202500000000            000000000000000                              000                           
0010001300265T 0901897X0000000092096 24778822400003880   70000000000038802911202400000000006243000101849X000003880                0900000000000000000000000000000000000000000000000000000   000000000000000000000039009        170192477882     
0010001300266U 090000000000000000000000000000000000000000000000000000000000000000000000000000000000000000000000000000000000000000000000000301202500000000            000000000000000                              000                           
0010001300267T 0901897X0000000092096 24778822400003900   700000000000390029112024000000000061834001000566000003900                0900000000000000000000000000000000000000000000000000000   000000000000000000000039009        170192477882     
0010001300268U 090000000000000000000000000000000000000000000000000000000000000000000000000000000000000000000000000000000000000000000000000301202500000000            000000000000000                              000                           
0010001300269T 0901897X0000000092096 24778822400003904   700000000000390429112024000000000061139001004154000003904                0900000000000000000000000000000000000000000000000000000   000000000000000000000039009        170192477882     
0010001300270U 090000000000000000000000000000000000000000000000000000000000000000000000000000000000000000000000000000000000000000000000000301202500000000            000000000000000                              000                           
0010001300271T 0901897X0000000092096 24778822400003912   700000000000391229112024000000000060350001009946000003912                0900000000000000000000000000000000000000000000000000000   000000000000000000000039009        170192477882     
0010001300272U 090000000000000000000000000000000000000000000000000000000000000000000000000000000000000000000000000000000000000000000000000301202500000000            000000000000000                              000                           
0010001300273T 0901897X0000000092096 24778822400003916   700000000000391629112024000000000060017001003417000003916                0900000000000000000000000000000000000000000000000000000   000000000000000000000039009        170192477882     
0010001300274U 090000000000000000000000000000000000000000000000000000000000000000000000000000000000000000000000000000000000000000000000000301202500000000            000000000000000                              000                           
0010001300275T 0901897X0000000092096 24778822400003952   700000000000395229112024000000000058919001004561000003952                0900000000000000000000000000000000000000000000000000000   000000000000000000000039009        170192477882     
0010001300276U 090000000000000000000000000000000000000000000000000000000000000000000000000000000000000000000000000000000000000000000000000301202500000000            000000000000000                              000                           
0010001300277T 0901897X0000000092096 24778822400003968   700000000000396829112024000000000058553001014753000003968                0900000000000000000000000000000000000000000000000000000   000000000000000000000039009        170192477882     
0010001300278U 090000000000000000000000000000000000000000000000000000000000000000000000000000000000000000000000000000000000000000000000000301202500000000            000000000000000                              000                           
0010001300279T 0901897X0000000092096 24778822400003992   700000000000399229112024000000000058553001000566000003992                0900000000000000000000000000000000000000000000000000000   000000000000000000000039009        170192477882     
0010001300280U 090000000000000000000000000000000000000000000000000000000000000000000000000000000000000000000000000000000000000000000000000301202500000000            000000000000000                              000                           
0010001300281T 0901897X0000000092096 24778822400004016   70000000000040162911202400000000005761100100037X000004016                0900000000000000000000000000000000000000000000000000000   000000000000000000000039009        170192477882     
0010001300282U 090000000000000000000000000000000000000000000000000000000000000000000000000000000000000000000000000000000000000000000000000301202500000000            000000000000000                              000                           
0010001300283T 0901897X0000000092096 24778822400004024   700000000000402429112024000000000057502001003190000004024                0900000000000000000000000000000000000000000000000000000   000000000000000000000039009        170192477882     
0010001300284U 090000000000000000000000000000000000000000000000000000000000000000000000000000000000000000000000000000000000000000000000000301202500000000            000000000000000                              000                           
0010001300285T 0901897X0000000092096 24778822400004028   700000000000402829112024000000000057236001069833000004028                0900000000000000000000000000000000000000000000000000000   000000000000000000000039009        170192477882     
0010001300286U 090000000000000000000000000000000000000000000000000000000000000000000000000000000000000000000000000000000000000000000000000301202500000000            000000000000000                              000                           
0010001300287T 0901897X0000000092096 24778822400004072   700000000000407229112024000000000056308001023248000004072                0900000000000000000000000000000000000000000000000000000   000000000000000000000039009        170192477882     
0010001300288U 090000000000000000000000000000000000000000000000000000000000000000000000000000000000000000000000000000000000000000000000000301202500000000            000000000000000                              000                           
0010001300289T 0901897X0000000092096 24778822400004092   700000000000409229112024000000000055955001003190000004092                0900000000000000000000000000000000000000000000000000000   000000000000000000000039009        170192477882     
0010001300290U 090000000000000000000000000000000000000000000000000000000000000000000000000000000000000000000000000000000000000000000000000301202500000000            000000000000000                              000                           
0010001300291T 0901897X0000000092096 24778822400004132   700000000000413229112024000000000054055001009296000004132                0900000000000000000000000000000000000000000000000000000   000000000000000000000039009        170192477882     
0010001300292U 090000000000000000000000000000000000000000000000000000000000000000000000000000000000000000000000000000000000000000000000000301202500000000            000000000000000                              000                           
0010001300293T 0901897X0000000092096 24778822400004140   700000000000414029112024000000000054016001001678000004140                0900000000000000000000000000000000000000000000000000000   000000000000000000000039009        170192477882     
0010001300294U 090000000000000000000000000000000000000000000000000000000000000000000000000000000000000000000000000000000000000000000000000301202500000000            000000000000000                              000                           
0010001300295T 0901897X0000000092096 24778822400004144   700000000000414429112024000000000053943001004561000004144                0900000000000000000000000000000000000000000000000000000   000000000000000000000039009        170192477882     
0010001300296U 090000000000000000000000000000000000000000000000000000000000000000000000000000000000000000000000000000000000000000000000000301202500000000            000000000000000                              000                           
0010001300297T 0901897X0000000092096 24778822400004160   700000000000416029112024000000000053158001003409000004160                0900000000000000000000000000000000000000000000000000000   000000000000000000000039009        170192477882     
0010001300298U 090000000000000000000000000000000000000000000000000000000000000000000000000000000000000000000000000000000000000000000000000301202500000000            000000000000000                              000                           
0010001300299T 0901897X0000000092096 24778822400004180   700000000000418029112024000000000052698001000566000004180                0900000000000000000000000000000000000000000000000000000   000000000000000000000039009        170192477882     
0010001300300U 090000000000000000000000000000000000000000000000000000000000000000000000000000000000000000000000000000000000000000000000000301202500000000            000000000000000                              000                           
0010001300301T 0901897X0000000092096 24778822400004212   70000000000042122911202400000000005147600101849X000004212                0900000000000000000000000000000000000000000000000000000   000000000000000000000039009        170192477882     
0010001300302U 090000000000000000000000000000000000000000000000000000000000000000000000000000000000000000000000000000000000000000000000000301202500000000            000000000000000                              000                           
0010001300303T 0901897X0000000092096 24778822400004216   700000000000421629112024000000000051435001004154000004216                0900000000000000000000000000000000000000000000000000000   000000000000000000000039009        170192477882     
0010001300304U 090000000000000000000000000000000000000000000000000000000000000000000000000000000000000000000000000000000000000000000000000301202500000000            000000000000000                              000                           
0010001300305T 0901897X0000000092096 24778822400004244   700000000000424429112024000000000050868001000566000004244                0900000000000000000000000000000000000000000000000000000   000000000000000000000039009        170192477882     
0010001300306U 090000000000000000000000000000000000000000000000000000000000000000000000000000000000000000000000000000000000000000000000000301202500000000            000000000000000                              000                           
0010001300307T 0901897X0000000092096 24778822400004268   700000000000426829112024000000000050502001001678000004268                0900000000000000000000000000000000000000000000000000000   000000000000000000000039009        170192477882     
0010001300308U 090000000000000000000000000000000000000000000000000000000000000000000000000000000000000000000000000000000000000000000000000301202500000000            000000000000000                              000                           
0010001300309T 0901897X0000000092096 24778822400004280   700000000000428029112024000000000049771001001678000004280                0900000000000000000000000000000000000000000000000000000   000000000000000000000039009        170192477882     
0010001300310U 090000000000000000000000000000000000000000000000000000000000000000000000000000000000000000000000000000000000000000000000000301202500000000            000000000000000                              000                           
0010001300311T 0901897X0000000092096 24778822400004296   700000000000429629112024000000000048851001000566000004296                0900000000000000000000000000000000000000000000000000000   000000000000000000000039009        170192477882     
0010001300312U 090000000000000000000000000000000000000000000000000000000000000000000000000000000000000000000000000000000000000000000000000301202500000000            000000000000000                              000                           
0010001300313T 0901897X0000000092096 24778822400004300   700000000000430029112024000000000048160001003409000004300                0900000000000000000000000000000000000000000000000000000   000000000000000000000039009        170192477882     
0010001300314U 090000000000000000000000000000000000000000000000000000000000000000000000000000000000000000000000000000000000000000000000000301202500000000            000000000000000                              000                           
0010001300315T 0901897X0000000092096 24778822400004324   700000000000432429112024000000000047301001004561000004324                0900000000000000000000000000000000000000000000000000000   000000000000000000000039009        170192477882     
0010001300316U 090000000000000000000000000000000000000000000000000000000000000000000000000000000000000000000000000000000000000000000000000301202500000000            000000000000000                              000                           
0010001300317T 0901897X0000000092096 24778822400004336   700000000000433629112024000000000046338001003018000004336                0900000000000000000000000000000000000000000000000000000   000000000000000000000039009        170192477882     
0010001300318U 090000000000000000000000000000000000000000000000000000000000000000000000000000000000000000000000000000000000000000000000000301202500000000            000000000000000                              000                           
0010001300319T 0901897X0000000092096 24778822400004348   70000000000043482911202400000000004566400101849X000004348                0900000000000000000000000000000000000000000000000000000   000000000000000000000039009        170192477882     
0010001300320U 090000000000000000000000000000000000000000000000000000000000000000000000000000000000000000000000000000000000000000000000000301202500000000            000000000000000                              000                           
0010001300321T 0901897X0000000092096 24778822400004376   70000000000043762911202400000000004430600101849X000004376                0900000000000000000000000000000000000000000000000000000   000000000000000000000039009        170192477882     
0010001300322U 090000000000000000000000000000000000000000000000000000000000000000000000000000000000000000000000000000000000000000000000000301202500000000            000000000000000                              000                           
0010001300323T 0901897X0000000092096 24778822400004380   700000000000438029112024000000000044286001003409000004380                0900000000000000000000000000000000000000000000000000000   000000000000000000000039009        170192477882     
0010001300324U 090000000000000000000000000000000000000000000000000000000000000000000000000000000000000000000000000000000000000000000000000301202500000000            000000000000000                              000                           
0010001300325T 0901897X0000000092096 24778822400004384   700000000000438429112024000000000044235001003190000004384                0900000000000000000000000000000000000000000000000000000   000000000000000000000039009        170192477882     
0010001300326U 090000000000000000000000000000000000000000000000000000000000000000000000000000000000000000000000000000000000000000000000000301202500000000            000000000000000                              000                           
0010001300327T 0901897X0000000092096 24778822400004392   700000000000439229112024000000000043915001003409000004392                0900000000000000000000000000000000000000000000000000000   000000000000000000000039009        170192477882     
0010001300328U 090000000000000000000000000000000000000000000000000000000000000000000000000000000000000000000000000000000000000000000000000301202500000000            000000000000000                              000                           
0010001300329T 0901897X0000000092096 24778822400004416   700000000000441629112024000000000043915001069833000004416                0900000000000000000000000000000000000000000000000000000   000000000000000000000039009        170192477882     
0010001300330U 090000000000000000000000000000000000000000000000000000000000000000000000000000000000000000000000000000000000000000000000000301202500000000            000000000000000                              000                           
0010001300331T 0901897X0000000092096 24778822400004420   70000000000044202911202400000000004388000101513X000004420                0900000000000000000000000000000000000000000000000000000   000000000000000000000039009        170192477882     
0010001300332U 090000000000000000000000000000000000000000000000000000000000000000000000000000000000000000000000000000000000000000000000000301202500000000            000000000000000                              000                           
0010001300333T 0901897X0000000092096 24778822400004440   700000000000444029112024000000000043256001004154000004440                0900000000000000000000000000000000000000000000000000000   000000000000000000000039009        170192477882     
0010001300334U 090000000000000000000000000000000000000000000000000000000000000000000000000000000000000000000000000000000000000000000000000301202500000000            000000000000000                              000                           
0010001300335T 0901897X0000000092096 24778822400004452   700000000000445229112024000000000043086001009903000004452                0900000000000000000000000000000000000000000000000000000   000000000000000000000039009        170192477882     
0010001300336U 090000000000000000000000000000000000000000000000000000000000000000000000000000000000000000000000000000000000000000000000000301202500000000            000000000000000                              000                           
0010001300337T 0901897X0000000092096 24778822400004456   700000000000445629112024000000000042817001004154000004456                0900000000000000000000000000000000000000000000000000000   000000000000000000000039009        170192477882     
0010001300338U 090000000000000000000000000000000000000000000000000000000000000000000000000000000000000000000000000000000000000000000000000301202500000000            000000000000000                              000                           
0010001300339T 0901897X0000000092096 24778822400004488   700000000000448829112024000000000042341001014753000004488                0900000000000000000000000000000000000000000000000000000   000000000000000000000039009        170192477882     
0010001300340U 090000000000000000000000000000000000000000000000000000000000000000000000000000000000000000000000000000000000000000000000000301202500000000            000000000000000                              000                           
0010001300341T 0901897X0000000092096 24778822400004508   700000000000450829112024000000000040987001004561000004508                0900000000000000000000000000000000000000000000000000000   000000000000000000000039009        170192477882     
0010001300342U 090000000000000000000000000000000000000000000000000000000000000000000000000000000000000000000000000000000000000000000000000301202500000000            000000000000000                              000                           
0010001300343T 0901897X0000000092096 24778822400004512   700000000000451229112024000000000040702001026565000004512                0900000000000000000000000000000000000000000000000000000   000000000000000000000039009        170192477882     
0010001300344U 090000000000000000000000000000000000000000000000000000000000000000000000000000000000000000000000000000000000000000000000000301202500000000            000000000000000                              000                           
0010001300345T 0901897X0000000092096 24778822400004516   700000000000451629112024000000000040438001007994000004516                0900000000000000000000000000000000000000000000000000000   000000000000000000000039009        170192477882     
0010001300346U 090000000000000000000000000000000000000000000000000000000000000000000000000000000000000000000000000000000000000000000000000301202500000000            000000000000000                              000                           
0010001300347T 0901897X0000000092096 24778822400004564   700000000000456429112024000000000039381001009946000004564                0900000000000000000000000000000000000000000000000000000   000000000000000000000039009        170192477882     
0010001300348U 090000000000000000000000000000000000000000000000000000000000000000000000000000000000000000000000000000000000000000000000000301202500000000            000000000000000                              000                           
0010001300349T 0901897X0000000092096 24778822400004668   700000000000466829112024000000000036596001001724000004668                0900000000000000000000000000000000000000000000000000000   000000000000000000000039009        170192477882     
0010001300350U 090000000000000000000000000000000000000000000000000000000000000000000000000000000000000000000000000000000000000000000000000301202500000000            000000000000000                              000                           
0010001300351T 0901897X0000000092096 24778822400004724   700000000000472429112024000000000036162001003018000004724                0900000000000000000000000000000000000000000000000000000   000000000000000000000039009        170192477882     
0010001300352U 090000000000000000000000000000000000000000000000000000000000000000000000000000000000000000000000000000000000000000000000000301202500000000            000000000000000                              000                           
0010001300353T 0901897X0000000092096 24778822400004756   700000000000475629112024000000000035653001006998000004756                0900000000000000000000000000000000000000000000000000000   000000000000000000000039009        170192477882     
0010001300354U 090000000000000000000000000000000000000000000000000000000000000000000000000000000000000000000000000000000000000000000000000301202500000000            000000000000000                              000                           
0010001300355T 0901897X0000000092096 24778822400004788   700000000000478829112024000000000035132001003409000004788                0900000000000000000000000000000000000000000000000000000   000000000000000000000039009        170192477882     
0010001300356U 090000000000000000000000000000000000000000000000000000000000000000000000000000000000000000000000000000000000000000000000000301202500000000            000000000000000                              000                           
0010001300357T 0901897X0000000092096 24778822400004816   700000000000481629112024000000000034567001003018000004816                0900000000000000000000000000000000000000000000000000000   000000000000000000000039009        170192477882     
0010001300358U 090000000000000000000000000000000000000000000000000000000000000000000000000000000000000000000000000000000000000000000000000301202500000000            000000000000000                              000                           
0010001300359T 0901897X0000000092096 24778822400004872   700000000000487229112024000000000033792001008117000004872                0900000000000000000000000000000000000000000000000000000   000000000000000000000039009        170192477882     
0010001300360U 090000000000000000000000000000000000000000000000000000000000000000000000000000000000000000000000000000000000000000000000000301202500000000            000000000000000                              000                           
0010001300361T 0901897X0000000092096 24778822400004876   700000000000487629112024000000000033668001009946000004876                0900000000000000000000000000000000000000000000000000000   000000000000000000000039009        170192477882     
0010001300362U 090000000000000000000000000000000000000000000000000000000000000000000000000000000000000000000000000000000000000000000000000301202500000000            000000000000000                              000                           
0010001300363T 0901897X0000000092096 24778822400004900   700000000000490029112024000000000033083001003409000004900                0900000000000000000000000000000000000000000000000000000   000000000000000000000039009        170192477882     
0010001300364U 090000000000000000000000000000000000000000000000000000000000000000000000000000000000000000000000000000000000000000000000000301202500000000            000000000000000                              000                           
0010001300365T 0901897X0000000092096 24778822400004912   70000000000049122911202400000000003294900100216X000004912                0900000000000000000000000000000000000000000000000000000   000000000000000000000039009        170192477882     
0010001300366U 090000000000000000000000000000000000000000000000000000000000000000000000000000000000000000000000000000000000000000000000000301202500000000            000000000000000                              000                           
0010001300367T 0901897X0000000092096 24778822400004920   700000000000492029112024000000000032936001003190000004920                0900000000000000000000000000000000000000000000000000000   000000000000000000000039009        170192477882     
0010001300368U 090000000000000000000000000000000000000000000000000000000000000000000000000000000000000000000000000000000000000000000000000301202500000000            000000000000000                              000                           
0010001300369T 0901897X0000000092096 24778822400004932   700000000000493229112024000000000032936001009946000004932                0900000000000000000000000000000000000000000000000000000   000000000000000000000039009        170192477882     
0010001300370U 090000000000000000000000000000000000000000000000000000000000000000000000000000000000000000000000000000000000000000000000000301202500000000            000000000000000                              000                           
0010001300371T 0901897X0000000092096 24778822400004936   70000000000049362911202400000000003293600101849X000004936                0900000000000000000000000000000000000000000000000000000   000000000000000000000039009        170192477882     
0010001300372U 090000000000000000000000000000000000000000000000000000000000000000000000000000000000000000000000000000000000000000000000000301202500000000            000000000000000                              000                           
0010001300373T 0901897X0000000092096 24778822400004940   70000000000049402911202400000000003291500101849X000004940                0900000000000000000000000000000000000000000000000000000   000000000000000000000039009        170192477882     
0010001300374U 090000000000000000000000000000000000000000000000000000000000000000000000000000000000000000000000000000000000000000000000000301202500000000            000000000000000                              000                           
0010001300375T 0901897X0000000092096 24778822400004968   700000000000496829112024000000000032465001003409000004968                0900000000000000000000000000000000000000000000000000000   000000000000000000000039009        170192477882     
0010001300376U 090000000000000000000000000000000000000000000000000000000000000000000000000000000000000000000000000000000000000000000000000301202500000000            000000000000000                              000                           
0010001300377T 0901897X0000000092096 24778822400004972   700000000000497229112024000000000032351001008966000004972                0900000000000000000000000000000000000000000000000000000   000000000000000000000039009        170192477882     
0010001300378U 090000000000000000000000000000000000000000000000000000000000000000000000000000000000000000000000000000000000000000000000000301202500000000            000000000000000                              000                           
0010001300379T 0901897X0000000092096 24778822400004984   700000000000498429112024000000000032176001026816000004984                0900000000000000000000000000000000000000000000000000000   000000000000000000000039009        170192477882     
0010001300380U 090000000000000000000000000000000000000000000000000000000000000000000000000000000000000000000000000000000000000000000000000301202500000000            000000000000000                              000                           
0010001300381T 0901897X0000000092096 24778822400005012   700000000000501229112024000000000031956001004596000005012                0900000000000000000000000000000000000000000000000000000   000000000000000000000039009        170192477882     
0010001300382U 090000000000000000000000000000000000000000000000000000000000000000000000000000000000000000000000000000000000000000000000000301202500000000            000000000000000                              000                           
0010001300383T 0901897X0000000092096 24778822400005016   700000000000501629112024000000000031857001007994000005016                0900000000000000000000000000000000000000000000000000000   000000000000000000000039009        170192477882     
0010001300384U 090000000000000000000000000000000000000000000000000000000000000000000000000000000000000000000000000000000000000000000000000301202500000000            000000000000000                              000                           
0010001300385T 0901897X0000000092096 24778822400005036   700000000000503629112024000000000031472001041467000005036                0900000000000000000000000000000000000000000000000000000   000000000000000000000039009        170192477882     
0010001300386U 090000000000000000000000000000000000000000000000000000000000000000000000000000000000000000000000000000000000000000000000000301202500000000            000000000000000                              000                           
0010001300387T 0901897X0000000092096 24778822400005052   700000000000505229112024000000000031100001004154000005052                0900000000000000000000000000000000000000000000000000000   000000000000000000000039009        170192477882     
0010001300388U 090000000000000000000000000000000000000000000000000000000000000000000000000000000000000000000000000000000000000000000000000301202500000000            000000000000000                              000                           
0010001300389T 0901897X0000000092096 24778822400005060   70000000000050602911202400000000003107500101849X000005060                0900000000000000000000000000000000000000000000000000000   000000000000000000000039009        170192477882     
0010001300390U 090000000000000000000000000000000000000000000000000000000000000000000000000000000000000000000000000000000000000000000000000301202500000000            000000000000000                              000                           
0010001300391T 0901897X0000000092096 24778822400005064   700000000000506429112024000000000031040001003409000005064                0900000000000000000000000000000000000000000000000000000   000000000000000000000039009        170192477882     
0010001300392U 090000000000000000000000000000000000000000000000000000000000000000000000000000000000000000000000000000000000000000000000000301202500000000            000000000000000                              000                           
0010001300393T 0901897X0000000092096 24778822400005072   700000000000507229112024000000000030952001003018000005072                0900000000000000000000000000000000000000000000000000000   000000000000000000000039009        170192477882     
0010001300394U 090000000000000000000000000000000000000000000000000000000000000000000000000000000000000000000000000000000000000000000000000301202500000000            000000000000000                              000                           
0010001300395T 0901897X0000000092096 24778822400005092   70000000000050922911202400000000003037500101849X000005092                0900000000000000000000000000000000000000000000000000000   000000000000000000000039009        170192477882     
0010001300396U 090000000000000000000000000000000000000000000000000000000000000000000000000000000000000000000000000000000000000000000000000301202500000000            000000000000000                              000                           
0010001300397T 0901897X0000000092096 24778822400005100   700000000000510029112024000000000030301001004154000005100                0900000000000000000000000000000000000000000000000000000   000000000000000000000039009        170192477882     
0010001300398U 090000000000000000000000000000000000000000000000000000000000000000000000000000000000000000000000000000000000000000000000000301202500000000            000000000000000                              000                           
0010001300399T 0901897X0000000092096 24778822400005128   70000000000051282911202400000000002992300100216X000005128                0900000000000000000000000000000000000000000000000000000   000000000000000000000039009        170192477882     
0010001300400U 090000000000000000000000000000000000000000000000000000000000000000000000000000000000000000000000000000000000000000000000000301202500000000            000000000000000                              000                           
0010001300401T 0901897X0000000092096 24778822400005132   700000000000513229112024000000000029868001003409000005132                0900000000000000000000000000000000000000000000000000000   000000000000000000000039009        170192477882     
0010001300402U 090000000000000000000000000000000000000000000000000000000000000000000000000000000000000000000000000000000000000000000000000301202500000000            000000000000000                              000                           
0010001300403T 0901897X0000000092096 24778822400005168   70000000000051682911202400000000002927700100037X000005168                0900000000000000000000000000000000000000000000000000000   000000000000000000000039009        170192477882     
0010001300404U 090000000000000000000000000000000000000000000000000000000000000000000000000000000000000000000000000000000000000000000000000301202500000000            000000000000000                              000                           
0010001300405T 0901897X0000000092096 24778822400005188   700000000000518829112024000000000029277001026565000005188                0900000000000000000000000000000000000000000000000000000   000000000000000000000039009        170192477882     
0010001300406U 090000000000000000000000000000000000000000000000000000000000000000000000000000000000000000000000000000000000000000000000000301202500000000            000000000000000                              000                           
0010001300407T 0901897X0000000092096 24778822400005200   700000000000520029112024000000000029094001004154000005200                0900000000000000000000000000000000000000000000000000000   000000000000000000000039009        170192477882     
0010001300408U 090000000000000000000000000000000000000000000000000000000000000000000000000000000000000000000000000000000000000000000000000301202500000000            000000000000000                              000                           
0010001300409T 0901897X0000000092096 24778822400005212   700000000000521229112024000000000028748001003190000005212                0900000000000000000000000000000000000000000000000000000   000000000000000000000039009        170192477882     
0010001300410U 090000000000000000000000000000000000000000000000000000000000000000000000000000000000000000000000000000000000000000000000000301202500000000            000000000000000                              000                           
0010001300411T 0901897X0000000092096 24778822400005220   700000000000522029112024000000000028397001004561000005220                0900000000000000000000000000000000000000000000000000000   000000000000000000000039009        170192477882     
0010001300412U 090000000000000000000000000000000000000000000000000000000000000000000000000000000000000000000000000000000000000000000000000301202500000000            000000000000000                              000                           
