00100000         2115139610001160024778820014       01897X0000000092096 FUNDACAO AGENCIA DAS BACIAS HIBANCO DO BRASIL                         20409202502032700621103000000829973081PROCESSAMEN                                                 
00100011T0100020 20115139610001160024778820014       01897X0000000092096 FUNDACAO AGENCIA DAS BACIAS HI                                                                                000000000409202500000000  000000000                      
0010001300001T 0201897X0000000092096 24778829000008857   7000008857      30092025000000000121651001001678000008857                0900000000000010500000000000000000000000000000000000000   0000000000000000000000519A9A4      170192477882     
0010001300002U 020000000000000000000000000000000000000000000000000000000000000000000000000000000000000000000000000000000000000000000000000409202500000000            000000000000000                              000                           
0010001300003T 0201897X0000000092096 24778829000008858   7000008858      30092025000000000278207001001724000008858                0900000000000010500000000000000000000000000000000000000   0000000000000000000000519A9A4      170192477882     
0010001300004U 020000000000000000000000000000000000000000000000000000000000000000000000000000000000000000000000000000000000000000000000000409202500000000            000000000000000                              000                           
0010001300005T 0201897X0000000092096 24778829000008859   7000008859      30092025000000000350528001003018000008859                0900000000000010000000000000000000000000000000000000000   0000000000000000000000519A9        170192477882     
0010001300006U 020000000000000000000000000000000000000000000000000000000000000000000000000000000000000000000000000000000000000000000000000409202500000000            000000000000000                              000                           
0010001300007T 0201897X0000000092096 24778829000008860   7000008860      30092025000000000152162001008117000008860                0900000000000010000000000000000000000000000000000000000   0000000000000000000000519A9        170192477882     
0010001300008U 020000000000000000000000000000000000000000000000000000000000000000000000000000000000000000000000000000000000000000000000000409202500000000            000000000000000                              000                           
0010001300009T 0601897X0000000092096 24778822500003892   700000000000389230092025000000000248815033002850000003892                0900000000000010100000000000000000000000000000000000000   000000000000000000000000004        170192477882     
0010001300010U 060000000000000000000000000000000000000000000000000000000000000000000002488150000000002488150000000000000000000000000000000409202505092025            000000000000000                              000                           
0010001300011T 0601897X0000000092096 24778822500006860   700000000000686030092025000000000031368237013400000006860                0900000000000010100000000000000000000000000000000000000   000000000000000000000000004        170192477882     
0010001300012U 060000000000000000000000000000000000000000000000000000000000000000000000313680000000000313680000000000000000000000000000000409202505092025            000000000000000                              000                           
0010001300013T 0601897X0000000092096 24778829000008792   7000008792      30092025000000000102568033033770000008792                0900000000000010100000000000000000000000000000000000000   000000000000000000000000004        170192477882     
0010001300014U 060000000000000000000000000000000000000000000000000000000000000000000001025680000000001025680000000000000000000000000000000409202505092025            000000000000000                              000                           
0010001300015T 0901897X0000000092096 24778822500001022   700000000000102231072025000000000029907001008117000001022                0900000000000000000000000000000000000000000000000000000   000000000000000000000039009        170192477882     
0010001300016U 090000000000000000000000000000000000000000000000000000000000000000000000000000000000000000000000000000000000000000000000000409202500000000            000000000000000                              000                           
0010001300017T 0901897X0000000092096 24778822500001026   700000000000102631072025000000000029783001009296000001026                0900000000000000000000000000000000000000000000000000000   000000000000000000000039009        170192477882     
0010001300018U 090000000000000000000000000000000000000000000000000000000000000000000000000000000000000000000000000000000000000000000000000409202500000000            000000000000000                              000                           
0010001300019T 0901897X0000000092096 24778822500001034   700000000000103431072025000000000029433001003190000001034                0900000000000000000000000000000000000000000000000000000   000000000000000000000039009        170192477882     
0010001300020U 090000000000000000000000000000000000000000000000000000000000000000000000000000000000000000000000000000000000000000000000000409202500000000            000000000000000                              000                           
0010001300021T 0901897X0000000092096 24778822500001044   700000000000104431072025000000000029277001003549000001044                0900000000000000000000000000000000000000000000000000000   000000000000000000000039009        170192477882     
0010001300022U 090000000000000000000000000000000000000000000000000000000000000000000000000000000000000000000000000000000000000000000000000409202500000000            000000000000000                              000                           
0010001300023T 0901897X0000000092096 24778822500001046   70000000000010463107202500000000002927700101849X000001046                0900000000000000000000000000000000000000000000000000000   000000000000000000000039009        170192477882     
0010001300024U 090000000000000000000000000000000000000000000000000000000000000000000000000000000000000000000000000000000000000000000000000409202500000000            000000000000000                              000                           
0010001300025T 0901897X0000000092096 24778822500001048   700000000000104831072025000000000029277001003409000001048                0900000000000000000000000000000000000000000000000000000   000000000000000000000039009        170192477882     
0010001300026U 090000000000000000000000000000000000000000000000000000000000000000000000000000000000000000000000000000000000000000000000000409202500000000            000000000000000                              000                           
0010001300027T 0901897X0000000092096 24778822500001054   700000000000105431072025000000000029277001009903000001054                0900000000000000000000000000000000000000000000000000000   000000000000000000000039009        170192477882     
0010001300028U 090000000000000000000000000000000000000000000000000000000000000000000000000000000000000000000000000000000000000000000000000409202500000000            000000000000000                              000                           
0010001300029T 0901897X0000000092096 24778822500001056   700000000000105631072025000000000029277001004154000001056                0900000000000000000000000000000000000000000000000000000   000000000000000000000039009        170192477882     
0010001300030U 090000000000000000000000000000000000000000000000000000000000000000000000000000000000000000000000000000000000000000000000000409202500000000            000000000000000                              000                           
0010001300031T 0901897X0000000092096 24778822500001064   700000000000106431072025000000000029277001003018000001064                0900000000000000000000000000000000000000000000000000000   000000000000000000000039009        170192477882     
0010001300032U 090000000000000000000000000000000000000000000000000000000000000000000000000000000000000000000000000000000000000000000000000409202500000000            000000000000000                              000                           
0010001300033T 0901897X0000000092096 24778822500001066   700000000000106631072025000000000029277001000566000001066                0900000000000000000000000000000000000000000000000000000   000000000000000000000039009        170192477882     
0010001300034U 090000000000000000000000000000000000000000000000000000000000000000000000000000000000000000000000000000000000000000000000000409202500000000            000000000000000                              000                           
0010001300035T 0901897X0000000092096 24778822500001068   70000000000010683107202500000000002927700101849X000001068                0900000000000000000000000000000000000000000000000000000   000000000000000000000039009        170192477882     
0010001300036U 090000000000000000000000000000000000000000000000000000000000000000000000000000000000000000000000000000000000000000000000000409202500000000            000000000000000                              000                           
0010001300037T 0901897X0000000092096 24778822500001074   700000000000107431072025000000000029277001001678000001074                0900000000000000000000000000000000000000000000000000000   000000000000000000000039009        170192477882     
0010001300038U 090000000000000000000000000000000000000000000000000000000000000000000000000000000000000000000000000000000000000000000000000409202500000000            000000000000000                              000                           
0010001300039T 0901897X0000000092096 24778822500001084   700000000000108431072025000000000029277001000566000001084                0900000000000000000000000000000000000000000000000000000   000000000000000000000039009        170192477882     
0010001300040U 090000000000000000000000000000000000000000000000000000000000000000000000000000000000000000000000000000000000000000000000000409202500000000            000000000000000                              000                           
0010001300041T 0901897X0000000092096 24778822500001086   700000000000108631072025000000000029277001024171000001086                0900000000000000000000000000000000000000000000000000000   000000000000000000000039009        170192477882     
0010001300042U 090000000000000000000000000000000000000000000000000000000000000000000000000000000000000000000000000000000000000000000000000409202500000000            000000000000000                              000                           
0010001300043T 0901897X0000000092096 24778822500001098   700000000000109831072025000000000029061001003409000001098                0900000000000000000000000000000000000000000000000000000   000000000000000000000039009        170192477882     
0010001300044U 090000000000000000000000000000000000000000000000000000000000000000000000000000000000000000000000000000000000000000000000000409202500000000            000000000000000                              000                           
0010001300045T 0901897X0000000092096 24778822500001102   700000000000110231072025000000000028820001009903000001102                0900000000000000000000000000000000000000000000000000000   000000000000000000000039009        170192477882     
0010001300046U 090000000000000000000000000000000000000000000000000000000000000000000000000000000000000000000000000000000000000000000000000409202500000000            000000000000000                              000                           
0010001300047T 0901897X0000000092096 24778822500001110   700000000000111031072025000000000028480001009903000001110                0900000000000000000000000000000000000000000000000000000   000000000000000000000039009        170192477882     
0010001300048U 090000000000000000000000000000000000000000000000000000000000000000000000000000000000000000000000000000000000000000000000000409202500000000            000000000000000                              000                           
0010001300049T 0901897X0000000092096 24778822500001112   70000000000011123107202500000000002840700101849X000001112                0900000000000000000000000000000000000000000000000000000   000000000000000000000039009        170192477882     
0010001300050U 090000000000000000000000000000000000000000000000000000000000000000000000000000000000000000000000000000000000000000000000000409202500000000            000000000000000                              000                           
0010001300051T 0901897X0000000092096 24778822500001114   700000000000111431072025000000000028106001009296000001114                0900000000000000000000000000000000000000000000000000000   000000000000000000000039009        170192477882     
0010001300052U 090000000000000000000000000000000000000000000000000000000000000000000000000000000000000000000000000000000000000000000000000409202500000000            000000000000000                              000                           
0010001300053T 0901897X0000000092096 24778822500001118   700000000000111831072025000000000027813001001678000001118                0900000000000000000000000000000000000000000000000000000   000000000000000000000039009        170192477882     
0010001300054U 090000000000000000000000000000000000000000000000000000000000000000000000000000000000000000000000000000000000000000000000000409202500000000            000000000000000                              000                           
0010001300055T 0901897X0000000092096 24778822500001126   700000000000112631072025000000000027584001023248000001126                0900000000000000000000000000000000000000000000000000000   000000000000000000000039009        170192477882     
0010001300056U 090000000000000000000000000000000000000000000000000000000000000000000000000000000000000000000000000000000000000000000000000409202500000000            000000000000000                              000                           
0010001300057T 0901897X0000000092096 24778822500001128   70000000000011283107202500000000002754000101849X000001128                0900000000000000000000000000000000000000000000000000000   000000000000000000000039009        170192477882     
0010001300058U 090000000000000000000000000000000000000000000000000000000000000000000000000000000000000000000000000000000000000000000000000409202500000000            000000000000000                              000                           
0010001300059T 0901897X0000000092096 24778822500001130   700000000000113031072025000000000027540001023248000001130                0900000000000000000000000000000000000000000000000000000   000000000000000000000039009        170192477882     
0010001300060U 090000000000000000000000000000000000000000000000000000000000000000000000000000000000000000000000000000000000000000000000000409202500000000            000000000000000                              000                           
0010001300061T 0901897X0000000092096 24778822500001136   700000000000113631072025000000000027391001022004000001136                0900000000000000000000000000000000000000000000000000000   000000000000000000000039009        170192477882     
0010001300062U 090000000000000000000000000000000000000000000000000000000000000000000000000000000000000000000000000000000000000000000000000409202500000000            000000000000000                              000                           
0010001300063T 0901897X0000000092096 24778822500001158   700000000000115831072025000000000026612001006998000001158                0900000000000000000000000000000000000000000000000000000   000000000000000000000039009        170192477882     
0010001300064U 090000000000000000000000000000000000000000000000000000000000000000000000000000000000000000000000000000000000000000000000000409202500000000            000000000000000                              000                           
0010001300065T 0901897X0000000092096 24778822500001162   700000000000116231072025000000000026470001022004000001162                0900000000000000000000000000000000000000000000000000000   000000000000000000000039009        170192477882     
0010001300066U 090000000000000000000000000000000000000000000000000000000000000000000000000000000000000000000000000000000000000000000000000409202500000000            000000000000000                              000                           
0010001300067T 0901897X0000000092096 24778822500001166   700000000000116631072025000000000026349001008117000001166                0900000000000000000000000000000000000000000000000000000   000000000000000000000039009        170192477882     
0010001300068U 090000000000000000000000000000000000000000000000000000000000000000000000000000000000000000000000000000000000000000000000000409202500000000            000000000000000                              000                           
0010001300069T 0901897X0000000092096 24778822500001168   700000000000116831072025000000000026349001009296000001168                0900000000000000000000000000000000000000000000000000000   000000000000000000000039009        170192477882     
0010001300070U 090000000000000000000000000000000000000000000000000000000000000000000000000000000000000000000000000000000000000000000000000409202500000000            000000000000000                              000                           
0010001300071T 0901897X0000000092096 24778822500001172   700000000000117231072025000000000026349001023248000001172                0900000000000000000000000000000000000000000000000000000   000000000000000000000039009        170192477882     
0010001300072U 090000000000000000000000000000000000000000000000000000000000000000000000000000000000000000000000000000000000000000000000000409202500000000            000000000000000                              000                           
0010001300073T 0901897X0000000092096 24778822500001180   70000000000011803107202500000000002627900101849X000001180                0900000000000000000000000000000000000000000000000000000   000000000000000000000039009        170192477882     
0010001300074U 090000000000000000000000000000000000000000000000000000000000000000000000000000000000000000000000000000000000000000000000000409202500000000            000000000000000                              000                           
0010001300075T 0901897X0000000092096 24778822500001186   70000000000011863107202500000000002619000101513X000001186                0900000000000000000000000000000000000000000000000000000   000000000000000000000039009        170192477882     
0010001300076U 090000000000000000000000000000000000000000000000000000000000000000000000000000000000000000000000000000000000000000000000000409202500000000            000000000000000                              000                           
0010001300077T 0901897X0000000092096 24778822500001192   700000000000119231072025000000000025990001009903000001192                0900000000000000000000000000000000000000000000000000000   000000000000000000000039009        170192477882     
0010001300078U 090000000000000000000000000000000000000000000000000000000000000000000000000000000000000000000000000000000000000000000000000409202500000000            000000000000000                              000                           
0010001300079T 0901897X0000000092096 24778822500001198   700000000000119831072025000000000025860001001724000001198                0900000000000000000000000000000000000000000000000000000   000000000000000000000039009        170192477882     
0010001300080U 090000000000000000000000000000000000000000000000000000000000000000000000000000000000000000000000000000000000000000000000000409202500000000            000000000000000                              000                           
0010001300081T 0901897X0000000092096 24778822500001200   700000000000120031072025000000000025751001001724000001200                0900000000000000000000000000000000000000000000000000000   000000000000000000000039009        170192477882     
0010001300082U 090000000000000000000000000000000000000000000000000000000000000000000000000000000000000000000000000000000000000000000000000409202500000000            000000000000000                              000                           
0010001300083T 0901897X0000000092096 24778822500001206   700000000000120631072025000000000025617001003190000001206                0900000000000000000000000000000000000000000000000000000   000000000000000000000039009        170192477882     
0010001300084U 090000000000000000000000000000000000000000000000000000000000000000000000000000000000000000000000000000000000000000000000000409202500000000            000000000000000                              000                           
0010001300085T 0901897X0000000092096 24778822500001210   700000000000121031072025000000000025617001022004000001210                0900000000000000000000000000000000000000000000000000000   000000000000000000000039009        170192477882     
0010001300086U 090000000000000000000000000000000000000000000000000000000000000000000000000000000000000000000000000000000000000000000000000409202500000000            000000000000000                              000                           
0010001300087T 0901897X0000000092096 24778822500001238   700000000000123831072025000000000025071001001996000001238                0900000000000000000000000000000000000000000000000000000   000000000000000000000039009        170192477882     
0010001300088U 090000000000000000000000000000000000000000000000000000000000000000000000000000000000000000000000000000000000000000000000000409202500000000            000000000000000                              000                           
0010001300089T 0901897X0000000092096 24778822500001242   700000000000124231072025000000000024941001004154000001242                0900000000000000000000000000000000000000000000000000000   000000000000000000000039009        170192477882     
0010001300090U 090000000000000000000000000000000000000000000000000000000000000000000000000000000000000000000000000000000000000000000000000409202500000000            000000000000000                              000                           
0010001300091T 0901897X0000000092096 24778822500001248   70000000000012483107202500000000002488600101849X000001248                0900000000000000000000000000000000000000000000000000000   000000000000000000000039009        170192477882     
0010001300092U 090000000000000000000000000000000000000000000000000000000000000000000000000000000000000000000000000000000000000000000000000409202500000000            000000000000000                              000                           
0010001300093T 0901897X0000000092096 24778822500001262   700000000000126231072025000000000024593001003409000001262                0900000000000000000000000000000000000000000000000000000   000000000000000000000039009        170192477882     
0010001300094U 090000000000000000000000000000000000000000000000000000000000000000000000000000000000000000000000000000000000000000000000000409202500000000            000000000000000                              000                           
0010001300095T 0901897X0000000092096 24778822500001268   70000000000012683107202500000000002415400101849X000001268                0900000000000000000000000000000000000000000000000000000   000000000000000000000039009        170192477882     
0010001300096U 090000000000000000000000000000000000000000000000000000000000000000000000000000000000000000000000000000000000000000000000000409202500000000            000000000000000                              000                           
0010001300097T 0901897X0000000092096 24778822500001272   700000000000127231072025000000000024154001003018000001272                0900000000000000000000000000000000000000000000000000000   000000000000000000000039009        170192477882     
0010001300098U 090000000000000000000000000000000000000000000000000000000000000000000000000000000000000000000000000000000000000000000000000409202500000000            000000000000000                              000                           
0010001300099T 0901897X0000000092096 24778822500001276   700000000000127631072025000000000024108001029238000001276                0900000000000000000000000000000000000000000000000000000   000000000000000000000039009        170192477882     
0010001300100U 090000000000000000000000000000000000000000000000000000000000000000000000000000000000000000000000000000000000000000000000000409202500000000            000000000000000                              000                           
0010001300101T 0901897X0000000092096 24778822500001282   700000000000128231072025000000000024063001004596000001282                0900000000000000000000000000000000000000000000000000000   000000000000000000000039009        170192477882     
0010001300102U 090000000000000000000000000000000000000000000000000000000000000000000000000000000000000000000000000000000000000000000000000409202500000000            000000000000000                              000                           
0010001300103T 0901897X0000000092096 24778822500001284   700000000000128431072025000000000024063001003190000001284                0900000000000000000000000000000000000000000000000000000   000000000000000000000039009        170192477882     
0010001300104U 090000000000000000000000000000000000000000000000000000000000000000000000000000000000000000000000000000000000000000000000000409202500000000            000000000000000                              000                           
0010001300105T 0901897X0000000092096 24778822500001288   700000000000128831072025000000000023824001014753000001288                0900000000000000000000000000000000000000000000000000000   000000000000000000000039009        170192477882     
0010001300106U 090000000000000000000000000000000000000000000000000000000000000000000000000000000000000000000000000000000000000000000000000409202500000000            000000000000000                              000                           
0010001300107T 0901897X0000000092096 24778822500001302   700000000000130231072025000000000023484001008117000001302                0900000000000000000000000000000000000000000000000000000   000000000000000000000039009        170192477882     
0010001300108U 090000000000000000000000000000000000000000000000000000000000000000000000000000000000000000000000000000000000000000000000000409202500000000            000000000000000                              000                           
0010001300109T 0901897X0000000092096 24778822500001310   70000000000013103107202500000000002342100101513X000001310                0900000000000000000000000000000000000000000000000000000   000000000000000000000039009        170192477882     
0010001300110U 090000000000000000000000000000000000000000000000000000000000000000000000000000000000000000000000000000000000000000000000000409202500000000            000000000000000                              000                           
0010001300111T 0901897X0000000092096 24778822500001316   700000000000131631072025000000000023275001001724000001316                0900000000000000000000000000000000000000000000000000000   000000000000000000000039009        170192477882     
0010001300112U 090000000000000000000000000000000000000000000000000000000000000000000000000000000000000000000000000000000000000000000000000409202500000000            000000000000000                              000                           
0010001300113T 0901897X0000000092096 24778822500001334   700000000000133431072025000000000022690001004154000001334                0900000000000000000000000000000000000000000000000000000   000000000000000000000039009        170192477882     
0010001300114U 090000000000000000000000000000000000000000000000000000000000000000000000000000000000000000000000000000000000000000000000000409202500000000            000000000000000                              000                           
0010001300115T 0901897X0000000092096 24778822500001340   700000000000134031072025000000000022414001006998000001340                0900000000000000000000000000000000000000000000000000000   000000000000000000000039009        170192477882     
0010001300116U 090000000000000000000000000000000000000000000000000000000000000000000000000000000000000000000000000000000000000000000000000409202500000000            000000000000000                              000                           
0010001300117T 0901897X0000000092096 24778822500001346   70000000000013463107202500000000002226600101513X000001346                0900000000000000000000000000000000000000000000000000000   000000000000000000000039009        170192477882     
0010001300118U 090000000000000000000000000000000000000000000000000000000000000000000000000000000000000000000000000000000000000000000000000409202500000000            000000000000000                              000                           
0010001300119T 0901897X0000000092096 24778822500001348   700000000000134831072025000000000022251001003018000001348                0900000000000000000000000000000000000000000000000000000   000000000000000000000039009        170192477882     
0010001300120U 090000000000000000000000000000000000000000000000000000000000000000000000000000000000000000000000000000000000000000000000000409202500000000            000000000000000                              000                           
0010001300121T 0901897X0000000092096 24778822500001356   700000000000135631072025000000000021958001014753000001356                0900000000000000000000000000000000000000000000000000000   000000000000000000000039009        170192477882     
0010001300122U 090000000000000000000000000000000000000000000000000000000000000000000000000000000000000000000000000000000000000000000000000409202500000000            000000000000000                              000                           
0010001300123T 0901897X0000000092096 24778822500001364   700000000000136431072025000000000021957001026565000001364                0900000000000000000000000000000000000000000000000000000   000000000000000000000039009        170192477882     
0010001300124U 090000000000000000000000000000000000000000000000000000000000000000000000000000000000000000000000000000000000000000000000000409202500000000            000000000000000                              000                           
0010001300125T 0901897X0000000092096 24778822500001368   700000000000136831072025000000000021957001003409000001368                0900000000000000000000000000000000000000000000000000000   000000000000000000000039009        170192477882     
0010001300126U 090000000000000000000000000000000000000000000000000000000000000000000000000000000000000000000000000000000000000000000000000409202500000000            000000000000000                              000                           
0010001300127T 0901897X0000000092096 24778822500001374   700000000000137431072025000000000021957001003190000001374                0900000000000000000000000000000000000000000000000000000   000000000000000000000039009        170192477882     
0010001300128U 090000000000000000000000000000000000000000000000000000000000000000000000000000000000000000000000000000000000000000000000000409202500000000            000000000000000                              000                           
0010001300129T 0901897X0000000092096 24778822500001376   700000000000137631072025000000000021957001000566000001376                0900000000000000000000000000000000000000000000000000000   000000000000000000000039009        170192477882     
0010001300130U 090000000000000000000000000000000000000000000000000000000000000000000000000000000000000000000000000000000000000000000000000409202500000000            000000000000000                              000                           
0010001300131T 0901897X0000000092096 24778822500001380   700000000000138031072025000000000021957001003018000001380                0900000000000000000000000000000000000000000000000000000   000000000000000000000039009        170192477882     
0010001300132U 090000000000000000000000000000000000000000000000000000000000000000000000000000000000000000000000000000000000000000000000000409202500000000            000000000000000                              000                           
0010001300133T 0901897X0000000092096 24778822500001382   700000000000138231072025000000000021957001006998000001382                0900000000000000000000000000000000000000000000000000000   000000000000000000000039009        170192477882     
0010001300134U 090000000000000000000000000000000000000000000000000000000000000000000000000000000000000000000000000000000000000000000000000409202500000000            000000000000000                              000                           
0010001300135T 0901897X0000000092096 24778822500001386   700000000000138631072025000000000021957001026565000001386                0900000000000000000000000000000000000000000000000000000   000000000000000000000039009        170192477882     
0010001300136U 090000000000000000000000000000000000000000000000000000000000000000000000000000000000000000000000000000000000000000000000000409202500000000            000000000000000                              000                           
0010001300137T 0901897X0000000092096 24778822500001398   700000000000139831072025000000000021957001003409000001398                0900000000000000000000000000000000000000000000000000000   000000000000000000000039009        170192477882     
0010001300138U 090000000000000000000000000000000000000000000000000000000000000000000000000000000000000000000000000000000000000000000000000409202500000000            000000000000000                              000                           
0010001300139T 0901897X0000000092096 24778822500001400   700000000000140031072025000000000021957001027669000001400                0900000000000000000000000000000000000000000000000000000   000000000000000000000039009        170192477882     
0010001300140U 090000000000000000000000000000000000000000000000000000000000000000000000000000000000000000000000000000000000000000000000000409202500000000            000000000000000                              000                           
0010001300141T 0901897X0000000092096 24778822500001402   700000000000140231072025000000000021957001007994000001402                0900000000000000000000000000000000000000000000000000000   000000000000000000000039009        170192477882     
0010001300142U 090000000000000000000000000000000000000000000000000000000000000000000000000000000000000000000000000000000000000000000000000409202500000000            000000000000000                              000                           
0010001300143T 0901897X0000000092096 24778822500001404   70000000000014043107202500000000002195700101849X000001404                0900000000000000000000000000000000000000000000000000000   000000000000000000000039009        170192477882     
0010001300144U 090000000000000000000000000000000000000000000000000000000000000000000000000000000000000000000000000000000000000000000000000409202500000000            000000000000000                              000                           
0010001300145T 0901897X0000000092096 24778822500001416   700000000000141631072025000000000021957001041467000001416                0900000000000000000000000000000000000000000000000000000   000000000000000000000039009        170192477882     
0010001300146U 090000000000000000000000000000000000000000000000000000000000000000000000000000000000000000000000000000000000000000000000000409202500000000            000000000000000                              000                           
0010001300147T 0901897X0000000092096 24778822500001418   700000000000141831072025000000000021923001009903000001418                0900000000000000000000000000000000000000000000000000000   000000000000000000000039009        170192477882     
0010001300148U 090000000000000000000000000000000000000000000000000000000000000000000000000000000000000000000000000000000000000000000000000409202500000000            000000000000000                              000                           
0010001300149T 0901897X0000000092096 24778822500001420   70000000000014203107202500000000002191200101849X000001420                0900000000000000000000000000000000000000000000000000000   000000000000000000000039009        170192477882     
0010001300150U 090000000000000000000000000000000000000000000000000000000000000000000000000000000000000000000000000000000000000000000000000409202500000000            000000000000000                              000                           
0010001300151T 0901897X0000000092096 24778822500001424   700000000000142431072025000000000021873001066583000001424                0900000000000000000000000000000000000000000000000000000   000000000000000000000039009        170192477882     
0010001300152U 090000000000000000000000000000000000000000000000000000000000000000000000000000000000000000000000000000000000000000000000000409202500000000            000000000000000                              000                           
0010001300153T 0901897X0000000092096 24778822500001430   700000000000143031072025000000000021678001009946000001430                0900000000000000000000000000000000000000000000000000000   000000000000000000000039009        170192477882     
0010001300154U 090000000000000000000000000000000000000000000000000000000000000000000000000000000000000000000000000000000000000000000000000409202500000000            000000000000000                              000                           
0010001300155T 0901897X0000000092096 24778822500001436   70000000000014363107202500000000002151900101849X000001436                0900000000000000000000000000000000000000000000000000000   000000000000000000000039009        170192477882     
0010001300156U 090000000000000000000000000000000000000000000000000000000000000000000000000000000000000000000000000000000000000000000000000409202500000000            000000000000000                              000                           
0010001300157T 0901897X0000000092096 24778822500001438   700000000000143831072025000000000021516001003409000001438                0900000000000000000000000000000000000000000000000000000   000000000000000000000039009        170192477882     
0010001300158U 090000000000000000000000000000000000000000000000000000000000000000000000000000000000000000000000000000000000000000000000000409202500000000            000000000000000                              000                           
0010001300159T 0901897X0000000092096 24778822500001442   700000000000144231072025000000000021375001009946000001442                0900000000000000000000000000000000000000000000000000000   000000000000000000000039009        170192477882     
0010001300160U 090000000000000000000000000000000000000000000000000000000000000000000000000000000000000000000000000000000000000000000000000409202500000000            000000000000000                              000                           
0010001300161T 0901897X0000000092096 24778822500001444   70000000000014443107202500000000002136400100216X000001444                0900000000000000000000000000000000000000000000000000000   000000000000000000000039009        170192477882     
0010001300162U 090000000000000000000000000000000000000000000000000000000000000000000000000000000000000000000000000000000000000000000000000409202500000000            000000000000000                              000                           
0010001300163T 0901897X0000000092096 24778822500001448   700000000000144831072025000000000021324001024279000001448                0900000000000000000000000000000000000000000000000000000   000000000000000000000039009        170192477882     
0010001300164U 090000000000000000000000000000000000000000000000000000000000000000000000000000000000000000000000000000000000000000000000000409202500000000            000000000000000                              000                           
0010001300165T 0901897X0000000092096 24778822500001450   70000000000014503107202500000000002130000101849X000001450                0900000000000000000000000000000000000000000000000000000   000000000000000000000039009        170192477882     
0010001300166U 090000000000000000000000000000000000000000000000000000000000000000000000000000000000000000000000000000000000000000000000000409202500000000            000000000000000                              000                           
0010001300167T 0901897X0000000092096 24778822500001458   700000000000145831072025000000000021226001004154000001458                0900000000000000000000000000000000000000000000000000000   000000000000000000000039009        170192477882     
0010001300168U 090000000000000000000000000000000000000000000000000000000000000000000000000000000000000000000000000000000000000000000000000409202500000000            000000000000000                              000                           
0010001300169T 0901897X0000000092096 24778822500001464   70000000000014643107202500000000002117600101849X000001464                0900000000000000000000000000000000000000000000000000000   000000000000000000000039009        170192477882     
0010001300170U 090000000000000000000000000000000000000000000000000000000000000000000000000000000000000000000000000000000000000000000000000409202500000000            000000000000000                              000                           
0010001300171T 0901897X0000000092096 24778822500001466   700000000000146631072025000000000021133001003409000001466                0900000000000000000000000000000000000000000000000000000   000000000000000000000039009        170192477882     
0010001300172U 090000000000000000000000000000000000000000000000000000000000000000000000000000000000000000000000000000000000000000000000000409202500000000            000000000000000                              000                           
0010001300173T 0901897X0000000092096 24778822500001468   700000000000146831072025000000000021076001000566000001468                0900000000000000000000000000000000000000000000000000000   000000000000000000000039009        170192477882     
0010001300174U 090000000000000000000000000000000000000000000000000000000000000000000000000000000000000000000000000000000000000000000000000409202500000000            000000000000000                              000                           
0010001300175T 0901897X0000000092096 24778822500001472   700000000000147231072025000000000020902001004561000001472                0900000000000000000000000000000000000000000000000000000   000000000000000000000039009        170192477882     
0010001300176U 090000000000000000000000000000000000000000000000000000000000000000000000000000000000000000000000000000000000000000000000000409202500000000            000000000000000                              000                           
0010001300177T 0901897X0000000092096 24778822500001476   700000000000147631072025000000000020839001007137000001476                0900000000000000000000000000000000000000000000000000000   000000000000000000000039009        170192477882     
0010001300178U 090000000000000000000000000000000000000000000000000000000000000000000000000000000000000000000000000000000000000000000000000409202500000000            000000000000000                              000                           
0010001300179T 0901897X0000000092096 24778822500001480   700000000000148031072025000000000020785001004596000001480                0900000000000000000000000000000000000000000000000000000   000000000000000000000039009        170192477882     
0010001300180U 090000000000000000000000000000000000000000000000000000000000000000000000000000000000000000000000000000000000000000000000000409202500000000            000000000000000                              000                           
0010001300181T 0901897X0000000092096 24778822500001482   700000000000148231072025000000000020736001003190000001482                0900000000000000000000000000000000000000000000000000000   000000000000000000000039009        170192477882     
0010001300182U 090000000000000000000000000000000000000000000000000000000000000000000000000000000000000000000000000000000000000000000000000409202500000000            000000000000000                              000                           
0010001300183T 0901897X0000000092096 24778822500001488   700000000000148831072025000000000020669001003190000001488                0900000000000000000000000000000000000000000000000000000   000000000000000000000039009        170192477882     
0010001300184U 090000000000000000000000000000000000000000000000000000000000000000000000000000000000000000000000000000000000000000000000000409202500000000            000000000000000                              000                           
0010001300185T 0901897X0000000092096 24778822500001490   700000000000149031072025000000000020634001004154000001490                0900000000000000000000000000000000000000000000000000000   000000000000000000000039009        170192477882     
0010001300186U 090000000000000000000000000000000000000000000000000000000000000000000000000000000000000000000000000000000000000000000000000409202500000000            000000000000000                              000                           
0010001300187T 0901897X0000000092096 24778822500001492   700000000000149231072025000000000020568001009296000001492                0900000000000000000000000000000000000000000000000000000   000000000000000000000039009        170192477882     
0010001300188U 090000000000000000000000000000000000000000000000000000000000000000000000000000000000000000000000000000000000000000000000000409202500000000            000000000000000                              000                           
0010001300189T 0901897X0000000092096 24778822500001494   70000000000014943107202500000000002049400101849X000001494                0900000000000000000000000000000000000000000000000000000   000000000000000000000039009        170192477882     
0010001300190U 090000000000000000000000000000000000000000000000000000000000000000000000000000000000000000000000000000000000000000000000000409202500000000            000000000000000                              000                           
0010001300191T 0901897X0000000092096 24778822500001498   700000000000149831072025000000000020494001026565000001498                0900000000000000000000000000000000000000000000000000000   000000000000000000000039009        170192477882     
0010001300192U 090000000000000000000000000000000000000000000000000000000000000000000000000000000000000000000000000000000000000000000000000409202500000000            000000000000000                              000                           
0010001300193T 0901897X0000000092096 24778822500001500   700000000000150031072025000000000020494001003018000001500                0900000000000000000000000000000000000000000000000000000   000000000000000000000039009        170192477882     
0010001300194U 090000000000000000000000000000000000000000000000000000000000000000000000000000000000000000000000000000000000000000000000000409202500000000            000000000000000                              000                           
0010001300195T 0901897X0000000092096 24778822500001502   700000000000150231072025000000000020494001000566000001502                0900000000000000000000000000000000000000000000000000000   000000000000000000000039009        170192477882     
0010001300196U 090000000000000000000000000000000000000000000000000000000000000000000000000000000000000000000000000000000000000000000000000409202500000000            000000000000000                              000                           
0010001300197T 0901897X0000000092096 24778822500001508   700000000000150831072025000000000020386001045888000001508                0900000000000000000000000000000000000000000000000000000   000000000000000000000039009        170192477882     
0010001300198U 090000000000000000000000000000000000000000000000000000000000000000000000000000000000000000000000000000000000000000000000000409202500000000            000000000000000                              000                           
0010001300199T 0901897X0000000092096 24778822500001510   700000000000151031072025000000000020382001009946000001510                0900000000000000000000000000000000000000000000000000000   000000000000000000000039009        170192477882     
0010001300200U 090000000000000000000000000000000000000000000000000000000000000000000000000000000000000000000000000000000000000000000000000409202500000000            000000000000000                              000                           
0010001300201T 0901897X0000000092096 24778822500001518   70000000000015183107202500000000002021900100216X000001518                0900000000000000000000000000000000000000000000000000000   000000000000000000000039009        170192477882     
0010001300202U 090000000000000000000000000000000000000000000000000000000000000000000000000000000000000000000000000000000000000000000000000409202500000000            000000000000000                              000                           
0010001300203T 0901897X0000000092096 24778822500001520   700000000000152031072025000000000020213001022004000001520                0900000000000000000000000000000000000000000000000000000   000000000000000000000039009        170192477882     
0010001300204U 090000000000000000000000000000000000000000000000000000000000000000000000000000000000000000000000000000000000000000000000000409202500000000            000000000000000                              000                           
0010001300205T 0901897X0000000092096 24778822500001550   70000000000015503107202500000000002590500101849X000001550                0900000000000000000000000000000000000000000000000000000   000000000000000000000039009        170192477882     
0010001300206U 090000000000000000000000000000000000000000000000000000000000000000000000000000000000000000000000000000000000000000000000000409202500000000            000000000000000                              000                           
0010001300207T 0901897X0000000092096 24778822500001553   70000000000015533107202500000000002587900101849X000001553                0900000000000000000000000000000000000000000000000000000   000000000000000000000039009        170192477882     
0010001300208U 090000000000000000000000000000000000000000000000000000000000000000000000000000000000000000000000000000000000000000000000000409202500000000            000000000000000                              000                           
0010001300209T 0901897X0000000092096 24778822500001556   700000000000155631072025000000000025857001004596000001556                0900000000000000000000000000000000000000000000000000000   000000000000000000000039009        170192477882     
0010001300210U 090000000000000000000000000000000000000000000000000000000000000000000000000000000000000000000000000000000000000000000000000409202500000000            000000000000000                              000                           
0010001300211T 0901897X0000000092096 24778822500001565   700000000000156531072025000000000025688001001724000001565                0900000000000000000000000000000000000000000000000000000   000000000000000000000039009        170192477882     
0010001300212U 090000000000000000000000000000000000000000000000000000000000000000000000000000000000000000000000000000000000000000000000000409202500000000            000000000000000                              000                           
0010001300213T 0901897X0000000092096 24778822500001568   700000000000156831072025000000000025649001014753000001568                0900000000000000000000000000000000000000000000000000000   000000000000000000000039009        170192477882     
0010001300214U 090000000000000000000000000000000000000000000000000000000000000000000000000000000000000000000000000000000000000000000000000409202500000000            000000000000000                              000                           
0010001300215T 0901897X0000000092096 24778822500001574   700000000000157431072025000000000025498001001724000001574                0900000000000000000000000000000000000000000000000000000   000000000000000000000039009        170192477882     
0010001300216U 090000000000000000000000000000000000000000000000000000000000000000000000000000000000000000000000000000000000000000000000000409202500000000            000000000000000                              000                           
0010001300217T 0901897X0000000092096 24778822500001580   700000000000158031072025000000000025373001003409000001580                0900000000000000000000000000000000000000000000000000000   000000000000000000000039009        170192477882     
0010001300218U 090000000000000000000000000000000000000000000000000000000000000000000000000000000000000000000000000000000000000000000000000409202500000000            000000000000000                              000                           
0010001300219T 0901897X0000000092096 24778822500001586   700000000000158631072025000000000025287001004561000001586                0900000000000000000000000000000000000000000000000000000   000000000000000000000039009        170192477882     
0010001300220U 090000000000000000000000000000000000000000000000000000000000000000000000000000000000000000000000000000000000000000000000000409202500000000            000000000000000                              000                           
0010001300221T 0901897X0000000092096 24778822500001595   700000000000159531072025000000000024937001024171000001595                0900000000000000000000000000000000000000000000000000000   000000000000000000000039009        170192477882     
0010001300222U 090000000000000000000000000000000000000000000000000000000000000000000000000000000000000000000000000000000000000000000000000409202500000000            000000000000000                              000                           
0010001300223T 0901897X0000000092096 24778822500001604   700000000000160431072025000000000024885001001724000001604                0900000000000000000000000000000000000000000000000000000   000000000000000000000039009        170192477882     
0010001300224U 090000000000000000000000000000000000000000000000000000000000000000000000000000000000000000000000000000000000000000000000000409202500000000            000000000000000                              000                           
0010001300225T 0901897X0000000092096 24778822500001607   700000000000160731072025000000000024705001009296000001607                0900000000000000000000000000000000000000000000000000000   000000000000000000000039009        170192477882     
0010001300226U 090000000000000000000000000000000000000000000000000000000000000000000000000000000000000000000000000000000000000000000000000409202500000000            000000000000000                              000                           
0010001300227T 0901897X0000000092096 24778822500001613   700000000000161331072025000000000024592001008117000001613                0900000000000000000000000000000000000000000000000000000   000000000000000000000039009        170192477882     
0010001300228U 090000000000000000000000000000000000000000000000000000000000000000000000000000000000000000000000000000000000000000000000000409202500000000            000000000000000                              000                           
0010001300229T 0901897X0000000092096 24778822500001616   700000000000161631072025000000000024592001003018000001616                0900000000000000000000000000000000000000000000000000000   000000000000000000000039009        170192477882     
0010001300230U 090000000000000000000000000000000000000000000000000000000000000000000000000000000000000000000000000000000000000000000000000409202500000000            000000000000000                              000                           
0010001300231T 0901897X0000000092096 24778822500001622   700000000000162231072025000000000024440001001678000001622                0900000000000000000000000000000000000000000000000000000   000000000000000000000039009        170192477882     
0010001300232U 090000000000000000000000000000000000000000000000000000000000000000000000000000000000000000000000000000000000000000000000000409202500000000            000000000000000                              000                           
0010001300233T 0901897X0000000092096 24778822500001631   700000000000163131072025000000000024397001003018000001631                0900000000000000000000000000000000000000000000000000000   000000000000000000000039009        170192477882     
0010001300234U 090000000000000000000000000000000000000000000000000000000000000000000000000000000000000000000000000000000000000000000000000409202500000000            000000000000000                              000                           
0010001300235T 0901897X0000000092096 24778822500001637   700000000000163731072025000000000024397001069833000001637                0900000000000000000000000000000000000000000000000000000   000000000000000000000039009        170192477882     
0010001300236U 090000000000000000000000000000000000000000000000000000000000000000000000000000000000000000000000000000000000000000000000000409202500000000            000000000000000                              000                           
0010001300237T 0901897X0000000092096 24778822500001646   700000000000164631072025000000000024397001022586000001646                0900000000000000000000000000000000000000000000000000000   000000000000000000000039009        170192477882     
0010001300238U 090000000000000000000000000000000000000000000000000000000000000000000000000000000000000000000000000000000000000000000000000409202500000000            000000000000000                              000                           
0010001300239T 0901897X0000000092096 24778822500001658   700000000000165831072025000000000024397001001678000001658                0900000000000000000000000000000000000000000000000000000   000000000000000000000039009        170192477882     
0010001300240U 090000000000000000000000000000000000000000000000000000000000000000000000000000000000000000000000000000000000000000000000000409202500000000            000000000000000                              000                           
0010001300241T 0901897X0000000092096 24778822500001661   700000000000166131072025000000000024397001004561000001661                0900000000000000000000000000000000000000000000000000000   000000000000000000000039009        170192477882     
0010001300242U 090000000000000000000000000000000000000000000000000000000000000000000000000000000000000000000000000000000000000000000000000409202500000000            000000000000000                              000                           
0010001300243T 0901897X0000000092096 24778822500001676   700000000000167631072025000000000024344001000566000001676                0900000000000000000000000000000000000000000000000000000   000000000000000000000039009        170192477882     
0010001300244U 090000000000000000000000000000000000000000000000000000000000000000000000000000000000000000000000000000000000000000000000000409202500000000            000000000000000                              000                           
0010001300245T 0901897X0000000092096 24778822500001727   700000000000172731072025000000000023523001024171000001727                0900000000000000000000000000000000000000000000000000000   000000000000000000000039009        170192477882     
0010001300246U 090000000000000000000000000000000000000000000000000000000000000000000000000000000000000000000000000000000000000000000000000409202500000000            000000000000000                              000                           
0010001300247T 0901897X0000000092096 24778822500001745   700000000000174531072025000000000023421001003409000001745                0900000000000000000000000000000000000000000000000000000   000000000000000000000039009        170192477882     
0010001300248U 090000000000000000000000000000000000000000000000000000000000000000000000000000000000000000000000000000000000000000000000000409202500000000            000000000000000                              000                           
0010001300249T 0901897X0000000092096 24778822500001748   700000000000174831072025000000000023421001026565000001748                0900000000000000000000000000000000000000000000000000000   000000000000000000000039009        170192477882     
0010001300250U 090000000000000000000000000000000000000000000000000000000000000000000000000000000000000000000000000000000000000000000000000409202500000000            000000000000000                              000                           
0010001300251T 0901897X0000000092096 24778822500001751   700000000000175131072025000000000023377001001724000001751                0900000000000000000000000000000000000000000000000000000   000000000000000000000039009        170192477882     
0010001300252U 090000000000000000000000000000000000000000000000000000000000000000000000000000000000000000000000000000000000000000000000000409202500000000            000000000000000                              000                           
0010001300253T 0901897X0000000092096 24778822500001760   700000000000176031072025000000000023197001008117000001760                0900000000000000000000000000000000000000000000000000000   000000000000000000000039009        170192477882     
0010001300254U 090000000000000000000000000000000000000000000000000000000000000000000000000000000000000000000000000000000000000000000000000409202500000000            000000000000000                              000                           
0010001300255T 0901897X0000000092096 24778822500001769   700000000000176931072025000000000023156001003018000001769                0900000000000000000000000000000000000000000000000000000   000000000000000000000039009        170192477882     
0010001300256U 090000000000000000000000000000000000000000000000000000000000000000000000000000000000000000000000000000000000000000000000000409202500000000            000000000000000                              000                           
0010001300257T 0901897X0000000092096 24778822500001778   700000000000177831072025000000000023075001009296000001778                0900000000000000000000000000000000000000000000000000000   000000000000000000000039009        170192477882     
0010001300258U 090000000000000000000000000000000000000000000000000000000000000000000000000000000000000000000000000000000000000000000000000409202500000000            000000000000000                              000                           
0010001300259T 0901897X0000000092096 24778822500001808   700000000000180831072025000000000022638001014753000001808                0900000000000000000000000000000000000000000000000000000   000000000000000000000039009        170192477882     
0010001300260U 090000000000000000000000000000000000000000000000000000000000000000000000000000000000000000000000000000000000000000000000000409202500000000            000000000000000                              000                           
0010001300261T 0901897X0000000092096 24778822500001835   700000000000183531072025000000000022059001008117000001835                0900000000000000000000000000000000000000000000000000000   000000000000000000000039009        170192477882     
0010001300262U 090000000000000000000000000000000000000000000000000000000000000000000000000000000000000000000000000000000000000000000000000409202500000000            000000000000000                              000                           
0010001300263T 0901897X0000000092096 24778822500001838   700000000000183831072025000000000022024001000310000001838                0900000000000000000000000000000000000000000000000000000   000000000000000000000039009        170192477882     
0010001300264U 090000000000000000000000000000000000000000000000000000000000000000000000000000000000000000000000000000000000000000000000000409202500000000            000000000000000                              000                           
0010001300265T 0901897X0000000092096 24778822500001847   700000000000184731072025000000000021977001007994000001847                0900000000000000000000000000000000000000000000000000000   000000000000000000000039009        170192477882     
0010001300266U 090000000000000000000000000000000000000000000000000000000000000000000000000000000000000000000000000000000000000000000000000409202500000000            000000000000000                              000                           
0010001300267T 0901897X0000000092096 24778822500001865   700000000000186531072025000000000021958001009946000001865                0900000000000000000000000000000000000000000000000000000   000000000000000000000039009        170192477882     
0010001300268U 090000000000000000000000000000000000000000000000000000000000000000000000000000000000000000000000000000000000000000000000000409202500000000            000000000000000                              000                           
0010001300269T 0901897X0000000092096 24778822500001868   700000000000186831072025000000000021958001045888000001868                0900000000000000000000000000000000000000000000000000000   000000000000000000000039009        170192477882     
0010001300270U 090000000000000000000000000000000000000000000000000000000000000000000000000000000000000000000000000000000000000000000000000409202500000000            000000000000000                              000                           
0010001300271T 0901897X0000000092096 24778822500001877   700000000000187731072025000000000021923001009903000001877                0900000000000000000000000000000000000000000000000000000   000000000000000000000039009        170192477882     
0010001300272U 090000000000000000000000000000000000000000000000000000000000000000000000000000000000000000000000000000000000000000000000000409202500000000            000000000000000                              000                           
0010001300273T 0901897X0000000092096 24778822500001883   70000000000018833107202500000000002188300101849X000001883                0900000000000000000000000000000000000000000000000000000   000000000000000000000039009        170192477882     
0010001300274U 090000000000000000000000000000000000000000000000000000000000000000000000000000000000000000000000000000000000000000000000000409202500000000            000000000000000                              000                           
0010001300275T 0901897X0000000092096 24778822500001898   700000000000189831072025000000000021470001009946000001898                0900000000000000000000000000000000000000000000000000000   000000000000000000000039009        170192477882     
0010001300276U 090000000000000000000000000000000000000000000000000000000000000000000000000000000000000000000000000000000000000000000000000409202500000000            000000000000000                              000                           
0010001300277T 0901897X0000000092096 24778822500001901   70000000000019013107202500000000002145600100216X000001901                0900000000000000000000000000000000000000000000000000000   000000000000000000000039009        170192477882     
0010001300278U 090000000000000000000000000000000000000000000000000000000000000000000000000000000000000000000000000000000000000000000000000409202500000000            000000000000000                              000                           
0010001300279T 0901897X0000000092096 24778822500001913   70000000000019133107202500000000002127400101849X000001913                0900000000000000000000000000000000000000000000000000000   000000000000000000000039009        170192477882     
0010001300280U 090000000000000000000000000000000000000000000000000000000000000000000000000000000000000000000000000000000000000000000000000409202500000000            000000000000000                              000                           
0010001300281T 0901897X0000000092096 24778822500001916   700000000000191631072025000000000021272001004154000001916                0900000000000000000000000000000000000000000000000000000   000000000000000000000039009        170192477882     
0010001300282U 090000000000000000000000000000000000000000000000000000000000000000000000000000000000000000000000000000000000000000000000000409202500000000            000000000000000                              000                           
0010001300283T 0901897X0000000092096 24778822500001919   700000000000191931072025000000000021270001008117000001919                0900000000000000000000000000000000000000000000000000000   000000000000000000000039009        170192477882     
0010001300284U 090000000000000000000000000000000000000000000000000000000000000000000000000000000000000000000000000000000000000000000000000409202500000000            000000000000000                              000                           
0010001300285T 0901897X0000000092096 24778822500001925   70000000000019253107202500000000002119600100216X000001925                0900000000000000000000000000000000000000000000000000000   000000000000000000000039009        170192477882     
0010001300286U 090000000000000000000000000000000000000000000000000000000000000000000000000000000000000000000000000000000000000000000000000409202500000000            000000000000000                              000                           
0010001300287T 0901897X0000000092096 24778822500001928   70000000000019283107202500000000002104800101849X000001928                0900000000000000000000000000000000000000000000000000000   000000000000000000000039009        170192477882     
0010001300288U 090000000000000000000000000000000000000000000000000000000000000000000000000000000000000000000000000000000000000000000000000409202500000000            000000000000000                              000                           
0010001300289T 0901897X0000000092096 24778822500001937   700000000000193731072025000000000020809001069833000001937                0900000000000000000000000000000000000000000000000000000   000000000000000000000039009        170192477882     
0010001300290U 090000000000000000000000000000000000000000000000000000000000000000000000000000000000000000000000000000000000000000000000000409202500000000            000000000000000                              000                           
0010001300291T 0901897X0000000092096 24778822500001940   700000000000194031072025000000000020733001004154000001940                0900000000000000000000000000000000000000000000000000000   000000000000000000000039009        170192477882     
0010001300292U 090000000000000000000000000000000000000000000000000000000000000000000000000000000000000000000000000000000000000000000000000409202500000000            000000000000000                              000                           
0010001300293T 0901897X0000000092096 24778822500001943   700000000000194331072025000000000020688001024171000001943                0900000000000000000000000000000000000000000000000000000   000000000000000000000039009        170192477882     
0010001300294U 090000000000000000000000000000000000000000000000000000000000000000000000000000000000000000000000000000000000000000000000000409202500000000            000000000000000                              000                           
0010001300295T 0901897X0000000092096 24778822500001946   700000000000194631072025000000000020640001003190000001946                0900000000000000000000000000000000000000000000000000000   000000000000000000000039009        170192477882     
0010001300296U 090000000000000000000000000000000000000000000000000000000000000000000000000000000000000000000000000000000000000000000000000409202500000000            000000000000000                              000                           
0010001300297T 0901897X0000000092096 24778822500001949   700000000000194931072025000000000020596001003190000001949                0900000000000000000000000000000000000000000000000000000   000000000000000000000039009        170192477882     
0010001300298U 090000000000000000000000000000000000000000000000000000000000000000000000000000000000000000000000000000000000000000000000000409202500000000            000000000000000                              000                           
0010001300299T 0901897X0000000092096 24778822500001958   700000000000195831072025000000000020493001027669000001958                0900000000000000000000000000000000000000000000000000000   000000000000000000000039009        170192477882     
0010001300300U 090000000000000000000000000000000000000000000000000000000000000000000000000000000000000000000000000000000000000000000000000409202500000000            000000000000000                              000                           
0010001300301T 0901897X0000000092096 24778822500001961   700000000000196131072025000000000020493001004154000001961                0900000000000000000000000000000000000000000000000000000   000000000000000000000039009        170192477882     
0010001300302U 090000000000000000000000000000000000000000000000000000000000000000000000000000000000000000000000000000000000000000000000000409202500000000            000000000000000                              000                           
0010001300303T 0901897X0000000092096 24778822500001973   700000000000197331072025000000000020145001009903000001973                0900000000000000000000000000000000000000000000000000000   000000000000000000000039009        170192477882     
0010001300304U 090000000000000000000000000000000000000000000000000000000000000000000000000000000000000000000000000000000000000000000000000409202500000000            000000000000000                              000                           
0010001300305T 0901897X0000000092096 24778822500001979   700000000000197931072025000000000020088001009296000001979                0900000000000000000000000000000000000000000000000000000   000000000000000000000039009        170192477882     
0010001300306U 090000000000000000000000000000000000000000000000000000000000000000000000000000000000000000000000000000000000000000000000000409202500000000            000000000000000                              000                           
0010001300307T 0901897X0000000092096 24778822500001985   70000000000019853107202500000000002002000101849X000001985                0900000000000000000000000000000000000000000000000000000   000000000000000000000039009        170192477882     
0010001300308U 090000000000000000000000000000000000000000000000000000000000000000000000000000000000000000000000000000000000000000000000000409202500000000            000000000000000                              000                           
0010001300309T 0901897X0000000092096 24778822500001988   700000000000198831072025000000000020018001009903000001988                0900000000000000000000000000000000000000000000000000000   000000000000000000000039009        170192477882     
0010001300310U 090000000000000000000000000000000000000000000000000000000000000000000000000000000000000000000000000000000000000000000000000409202500000000            000000000000000                              000                           
0010001300311T 0901897X0000000092096 24778822500001991   700000000000199131072025000000000024926001024171000001991                0900000000000000000000000000000000000000000000000000000   000000000000000000000039009        170192477882     
0010001300312U 090000000000000000000000000000000000000000000000000000000000000000000000000000000000000000000000000000000000000000000000000409202500000000            000000000000000                              000                           
0010001300313T 0901897X0000000092096 24778822500001995   700000000000199531072025000000000024885001014753000001995                0900000000000000000000000000000000000000000000000000000   000000000000000000000039009        170192477882     
0010001300314U 090000000000000000000000000000000000000000000000000000000000000000000000000000000000000000000000000000000000000000000000000409202500000000            000000000000000                              000                           
0010001300315T 0901897X0000000092096 24778822500002007   700000000000200731072025000000000024853001043036000002007                0900000000000000000000000000000000000000000000000000000   000000000000000000000039009        170192477882     
0010001300316U 090000000000000000000000000000000000000000000000000000000000000000000000000000000000000000000000000000000000000000000000000409202500000000            000000000000000                              000                           
0010001300317T 0901897X0000000092096 24778822500002027   700000000000202731072025000000000024373001004561000002027                0900000000000000000000000000000000000000000000000000000   000000000000000000000039009        170192477882     
0010001300318U 090000000000000000000000000000000000000000000000000000000000000000000000000000000000000000000000000000000000000000000000000409202500000000            000000000000000                              000                           
0010001300319T 0901897X0000000092096 24778822500002035   700000000000203531072025000000000023940001041467000002035                0900000000000000000000000000000000000000000000000000000   000000000000000000000039009        170192477882     
0010001300320U 090000000000000000000000000000000000000000000000000000000000000000000000000000000000000000000000000000000000000000000000000409202500000000            000000000000000                              000                           
0010001300321T 0901897X0000000092096 24778822500002063   70000000000020633107202500000000002346200101849X000002063                0900000000000000000000000000000000000000000000000000000   000000000000000000000039009        170192477882     
0010001300322U 090000000000000000000000000000000000000000000000000000000000000000000000000000000000000000000000000000000000000000000000000409202500000000            000000000000000                              000                           
0010001300323T 0901897X0000000092096 24778822500002067   700000000000206731072025000000000023421001041467000002067                0900000000000000000000000000000000000000000000000000000   000000000000000000000039009        170192477882     
0010001300324U 090000000000000000000000000000000000000000000000000000000000000000000000000000000000000000000000000000000000000000000000000409202500000000            000000000000000                              000                           
0010001300325T 0901897X0000000092096 24778822500002075   700000000000207531072025000000000023421001009903000002075                0900000000000000000000000000000000000000000000000000000   000000000000000000000039009        170192477882     
0010001300326U 090000000000000000000000000000000000000000000000000000000000000000000000000000000000000000000000000000000000000000000000000409202500000000            000000000000000                              000                           
0010001300327T 0901897X0000000092096 24778822500002087   700000000000208731072025000000000023292001003409000002087                0900000000000000000000000000000000000000000000000000000   000000000000000000000039009        170192477882     
0010001300328U 090000000000000000000000000000000000000000000000000000000000000000000000000000000000000000000000000000000000000000000000000409202500000000            000000000000000                              000                           
0010001300329T 0901897X0000000092096 24778822500002095   70000000000020953107202500000000002308800101513X000002095                0900000000000000000000000000000000000000000000000000000   000000000000000000000039009        170192477882     
0010001300330U 090000000000000000000000000000000000000000000000000000000000000000000000000000000000000000000000000000000000000000000000000409202500000000            000000000000000                              000                           
0010001300331T 0901897X0000000092096 24778822500002099   70000000000020993107202500000000002305500101849X000002099                0900000000000000000000000000000000000000000000000000000   000000000000000000000039009        170192477882     
0010001300332U 090000000000000000000000000000000000000000000000000000000000000000000000000000000000000000000000000000000000000000000000000409202500000000            000000000000000                              000                           
0010001300333T 0901897X0000000092096 24778822500002107   700000000000210731072025000000000023055001003409000002107                0900000000000000000000000000000000000000000000000000000   000000000000000000000039009        170192477882     
0010001300334U 090000000000000000000000000000000000000000000000000000000000000000000000000000000000000000000000000000000000000000000000000409202500000000            000000000000000                              000                           
0010001300335T 0901897X0000000092096 24778822500002127   70000000000021273107202500000000002266900101513X000002127                0900000000000000000000000000000000000000000000000000000   000000000000000000000039009        170192477882     
0010001300336U 090000000000000000000000000000000000000000000000000000000000000000000000000000000000000000000000000000000000000000000000000409202500000000            000000000000000                              000                           
0010001300337T 0901897X0000000092096 24778822500002131   700000000000213131072025000000000022660001001724000002131                0900000000000000000000000000000000000000000000000000000   000000000000000000000039009        170192477882     
0010001300338U 090000000000000000000000000000000000000000000000000000000000000000000000000000000000000000000000000000000000000000000000000409202500000000            000000000000000                              000                           
0010001300339T 0901897X0000000092096 24778822500002143   700000000000214331072025000000000022611001001678000002143                0900000000000000000000000000000000000000000000000000000   000000000000000000000039009        170192477882     
0010001300340U 090000000000000000000000000000000000000000000000000000000000000000000000000000000000000000000000000000000000000000000000000409202500000000            000000000000000                              000                           
0010001300341T 0901897X0000000092096 24778822500002151   700000000000215131072025000000000022559001004596000002151                0900000000000000000000000000000000000000000000000000000   000000000000000000000039009        170192477882     
0010001300342U 090000000000000000000000000000000000000000000000000000000000000000000000000000000000000000000000000000000000000000000000000409202500000000            000000000000000                              000                           
0010001300343T 0901897X0000000092096 24778822500002155   700000000000215531072025000000000022523001009946000002155                0900000000000000000000000000000000000000000000000000000   000000000000000000000039009        170192477882     
0010001300344U 090000000000000000000000000000000000000000000000000000000000000000000000000000000000000000000000000000000000000000000000000409202500000000            000000000000000                              000                           
0010001300345T 0901897X0000000092096 24778822500002163   700000000000216331072025000000000022287001045888000002163                0900000000000000000000000000000000000000000000000000000   000000000000000000000039009        170192477882     
0010001300346U 090000000000000000000000000000000000000000000000000000000000000000000000000000000000000000000000000000000000000000000000000409202500000000            000000000000000                              000                           
0010001300347T 0901897X0000000092096 24778822500002171   700000000000217131072025000000000021958001014753000002171                0900000000000000000000000000000000000000000000000000000   000000000000000000000039009        170192477882     
0010001300348U 090000000000000000000000000000000000000000000000000000000000000000000000000000000000000000000000000000000000000000000000000409202500000000            000000000000000                              000                           
0010001300349T 0901897X0000000092096 24778822500002179   700000000000217931072025000000000021958001045888000002179                0900000000000000000000000000000000000000000000000000000   000000000000000000000039009        170192477882     
0010001300350U 090000000000000000000000000000000000000000000000000000000000000000000000000000000000000000000000000000000000000000000000000409202500000000            000000000000000                              000                           
0010001300351T 0901897X0000000092096 24778822500002215   70000000000022153107202500000000002195800100216X000002215                0900000000000000000000000000000000000000000000000000000   000000000000000000000039009        170192477882     
0010001300352U 090000000000000000000000000000000000000000000000000000000000000000000000000000000000000000000000000000000000000000000000000409202500000000            000000000000000                              000                           
0010001300353T 0901897X0000000092096 24778822500002223   700000000000222331072025000000000021958001021717000002223                0900000000000000000000000000000000000000000000000000000   000000000000000000000039009        170192477882     
0010001300354U 090000000000000000000000000000000000000000000000000000000000000000000000000000000000000000000000000000000000000000000000000409202500000000            000000000000000                              000                           
0010001300355T 0901897X0000000092096 24778822500002227   700000000000222731072025000000000021958001020125000002227                0900000000000000000000000000000000000000000000000000000   000000000000000000000039009        170192477882     
0010001300356U 090000000000000000000000000000000000000000000000000000000000000000000000000000000000000000000000000000000000000000000000000409202500000000            000000000000000                              000                           
0010001300357T 0901897X0000000092096 24778822500002235   700000000000223531072025000000000021958001003018000002235                0900000000000000000000000000000000000000000000000000000   000000000000000000000039009        170192477882     
0010001300358U 090000000000000000000000000000000000000000000000000000000000000000000000000000000000000000000000000000000000000000000000000409202500000000            000000000000000                              000                           
0010001300359T 0901897X0000000092096 24778822500002239   700000000000223931072025000000000021958001001724000002239                0900000000000000000000000000000000000000000000000000000   000000000000000000000039009        170192477882     
0010001300360U 090000000000000000000000000000000000000000000000000000000000000000000000000000000000000000000000000000000000000000000000000409202500000000            000000000000000                              000                           
0010001300361T 0901897X0000000092096 24778822500002243   700000000000224331072025000000000021958001003018000002243                0900000000000000000000000000000000000000000000000000000   000000000000000000000039009        170192477882     
0010001300362U 090000000000000000000000000000000000000000000000000000000000000000000000000000000000000000000000000000000000000000000000000409202500000000            000000000000000                              000                           
0010001300363T 0901897X0000000092096 24778822500002247   700000000000224731072025000000000021955001008117000002247                0900000000000000000000000000000000000000000000000000000   000000000000000000000039009        170192477882     
0010001300364U 090000000000000000000000000000000000000000000000000000000000000000000000000000000000000000000000000000000000000000000000000409202500000000            000000000000000                              000                           
0010001300365T 0901897X0000000092096 24778822500002251   70000000000022513107202500000000002189700101849X000002251                0900000000000000000000000000000000000000000000000000000   000000000000000000000039009        170192477882     
0010001300366U 090000000000000000000000000000000000000000000000000000000000000000000000000000000000000000000000000000000000000000000000000409202500000000            000000000000000                              000                           
0010001300367T 0901897X0000000092096 24778822500002255   70000000000022553107202500000000002175800101821X000002255                0900000000000000000000000000000000000000000000000000000   000000000000000000000039009        170192477882     
0010001300368U 090000000000000000000000000000000000000000000000000000000000000000000000000000000000000000000000000000000000000000000000000409202500000000            000000000000000                              000                           
0010001300369T 0901897X0000000092096 24778822500002279   700000000000227931072025000000000021536001007994000002279                0900000000000000000000000000000000000000000000000000000   000000000000000000000039009        170192477882     
0010001300370U 090000000000000000000000000000000000000000000000000000000000000000000000000000000000000000000000000000000000000000000000000409202500000000            000000000000000                              000                           
0010001300371T 0901897X0000000092096 24778822500002287   700000000000228731072025000000000021510001003409000002287                0900000000000000000000000000000000000000000000000000000   000000000000000000000039009        170192477882     
0010001300372U 090000000000000000000000000000000000000000000000000000000000000000000000000000000000000000000000000000000000000000000000000409202500000000            000000000000000                              000                           
0010001300373T 0901897X0000000092096 24778822500002307   700000000000230731072025000000000021376001009946000002307                0900000000000000000000000000000000000000000000000000000   000000000000000000000039009        170192477882     
0010001300374U 090000000000000000000000000000000000000000000000000000000000000000000000000000000000000000000000000000000000000000000000000409202500000000            000000000000000                              000                           
0010001300375T 0901897X0000000092096 24778822500002311   700000000000231131072025000000000021359001003190000002311                0900000000000000000000000000000000000000000000000000000   000000000000000000000039009        170192477882     
0010001300376U 090000000000000000000000000000000000000000000000000000000000000000000000000000000000000000000000000000000000000000000000000409202500000000            000000000000000                              000                           
0010001300377T 0901897X0000000092096 24778822500002315   700000000000231531072025000000000021329001008117000002315                0900000000000000000000000000000000000000000000000000000   000000000000000000000039009        170192477882     
0010001300378U 090000000000000000000000000000000000000000000000000000000000000000000000000000000000000000000000000000000000000000000000000409202500000000            000000000000000                              000                           
0010001300379T 0901897X0000000092096 24778822500002319   700000000000231931072025000000000021256001027669000002319                0900000000000000000000000000000000000000000000000000000   000000000000000000000039009        170192477882     
0010001300380U 090000000000000000000000000000000000000000000000000000000000000000000000000000000000000000000000000000000000000000000000000409202500000000            000000000000000                              000                           
0010001300381T 0901897X0000000092096 24778822500002335   700000000000233531072025000000000021079001023248000002335                0900000000000000000000000000000000000000000000000000000   000000000000000000000039009        170192477882     
0010001300382U 090000000000000000000000000000000000000000000000000000000000000000000000000000000000000000000000000000000000000000000000000409202500000000            000000000000000                              000                           
0010001300383T 0901897X0000000092096 24778822500002375   700000000000237531072025000000000020809001003409000002375                0900000000000000000000000000000000000000000000000000000   000000000000000000000039009        170192477882     
0010001300384U 090000000000000000000000000000000000000000000000000000000000000000000000000000000000000000000000000000000000000000000000000409202500000000            000000000000000                              000                           
0010001300385T 0901897X0000000092096 24778822500002383   700000000000238331072025000000000020561001001678000002383                0900000000000000000000000000000000000000000000000000000   000000000000000000000039009        170192477882     
0010001300386U 090000000000000000000000000000000000000000000000000000000000000000000000000000000000000000000000000000000000000000000000000409202500000000            000000000000000                              000                           
0010001300387T 0901897X0000000092096 24778822500002395   700000000000239531072025000000000020494001024171000002395                0900000000000000000000000000000000000000000000000000000   000000000000000000000039009        170192477882     
0010001300388U 090000000000000000000000000000000000000000000000000000000000000000000000000000000000000000000000000000000000000000000000000409202500000000            000000000000000                              000                           
0010001300389T 0901897X0000000092096 24778822500002423   700000000000242331072025000000000020128001009946000002423                0900000000000000000000000000000000000000000000000000000   000000000000000000000039009        170192477882     
0010001300390U 090000000000000000000000000000000000000000000000000000000000000000000000000000000000000000000000000000000000000000000000000409202500000000            000000000000000                              000                           
0010001300391T 0901897X0000000092096 24778822500002431   70000000000024313107202500000000002010400101513X000002431                0900000000000000000000000000000000000000000000000000000   000000000000000000000039009        170192477882     
0010001300392U 090000000000000000000000000000000000000000000000000000000000000000000000000000000000000000000000000000000000000000000000000409202500000000            000000000000000                              000                           
0010001300393T 0901897X0000000092096 24778822500002439   700000000000243931072025000000000289862001045888000002439                0900000000000000000000000000000000000000000000000000000   000000000000000000000039009        170192477882     
0010001300394U 090000000000000000000000000000000000000000000000000000000000000000000000000000000000000000000000000000000000000000000000000409202500000000            000000000000000                              000                           
0010001300395T 0901897X0000000092096 24778822500002454   700000000000245431072025000000000023874001005789000002454                0900000000000000000000000000000000000000000000000000000   000000000000000000000039009        170192477882     
0010001300396U 090000000000000000000000000000000000000000000000000000000000000000000000000000000000000000000000000000000000000000000000000409202500000000            000000000000000                              000                           
0010001300397T 0901897X0000000092096 24778822500002459   700000000000245931072025000000000023858001024171000002459                0900000000000000000000000000000000000000000000000000000   000000000000000000000039009        170192477882     
0010001300398U 090000000000000000000000000000000000000000000000000000000000000000000000000000000000000000000000000000000000000000000000000409202500000000            000000000000000                              000                           
0010001300399T 0901897X0000000092096 24778822500002474   70000000000024743107202500000000002352100101849X000002474                0900000000000000000000000000000000000000000000000000000   000000000000000000000039009        170192477882     
0010001300400U 090000000000000000000000000000000000000000000000000000000000000000000000000000000000000000000000000000000000000000000000000409202500000000            000000000000000                              000                           
0010001300401T 0901897X0000000092096 24778822500002494   70000000000024943107202500000000002342100101849X000002494                0900000000000000000000000000000000000000000000000000000   000000000000000000000039009        170192477882     
0010001300402U 090000000000000000000000000000000000000000000000000000000000000000000000000000000000000000000000000000000000000000000000000409202500000000            000000000000000                              000                           
0010001300403T 0901897X0000000092096 24778822500002519   700000000000251931072025000000000023275001004154000002519                0900000000000000000000000000000000000000000000000000000   000000000000000000000039009        170192477882     
0010001300404U 090000000000000000000000000000000000000000000000000000000000000000000000000000000000000000000000000000000000000000000000000409202500000000            000000000000000                              000                           
0010001300405T 0901897X0000000092096 24778822500002529   70000000000025293107202500000000002304700101849X000002529                0900000000000000000000000000000000000000000000000000000   000000000000000000000039009        170192477882     
0010001300406U 090000000000000000000000000000000000000000000000000000000000000000000000000000000000000000000000000000000000000000000000000409202500000000            000000000000000                              000                           
0010001300407T 0901897X0000000092096 24778822500002534   70000000000025343107202500000000002304400100037X000002534                0900000000000000000000000000000000000000000000000000000   000000000000000000000039009        170192477882     
0010001300408U 090000000000000000000000000000000000000000000000000000000000000000000000000000000000000000000000000000000000000000000000000409202500000000            000000000000000                              000                           
0010001300409T 0901897X0000000092096 24778822500002539   70000000000025393107202500000000002302600100216X000002539                0900000000000000000000000000000000000000000000000000000   000000000000000000000039009        170192477882     
0010001300410U 090000000000000000000000000000000000000000000000000000000000000000000000000000000000000000000000000000000000000000000000000409202500000000            000000000000000                              000                           
0010001300411T 0901897X0000000092096 24778822500002544   700000000000254431072025000000000022999001003190000002544                0900000000000000000000000000000000000000000000000000000   000000000000000000000039009        170192477882     
0010001300412U 090000000000000000000000000000000000000000000000000000000000000000000000000000000000000000000000000000000000000000000000000409202500000000            000000000000000                              000                           
