00100000         2115139610001160024778820014       01897X0000000092096 FUNDACAO AGENCIA DAS BACIAS HIBANCO DO BRASIL                         23011202302335400542903000000829973081PROCESSAMEN                                                 
00100011T0100020 20115139610001160024778820014       01897X0000000092096 FUNDACAO AGENCIA DAS BACIAS HI                                                                                000000003011202300000000  000000000                      
0010001300001T 0201897X0000000092096 24778829000007875   7000007875      29122023000000000032224001009903000007875                0900000000000010500000000000000000000000000000000000000   0000000000000000000000480A9A4      170192477882     
0010001300002U 020000000000000000000000000000000000000000000000000000000000000000000000000000000000000000000000000000000000000000000000003011202300000000            000000000000000                              000                           
0010001300003T 0201897X0000000092096 24778829000007876   7000007876      29122023000000000030956001003409000007876                0900000000000010500000000000000000000000000000000000000   0000000000000000000000480A9A4      170192477882     
0010001300004U 020000000000000000000000000000000000000000000000000000000000000000000000000000000000000000000000000000000000000000000000003011202300000000            000000000000000                              000                           
0010001300005T 0201897X0000000092096 24778829000007877   7000007877      2912202300000000003766800101849X000007877                0900000000000010500000000000000000000000000000000000000   0000000000000000000000480A9A4      170192477882     
0010001300006U 020000000000000000000000000000000000000000000000000000000000000000000000000000000000000000000000000000000000000000000000003011202300000000            000000000000000                              000                           
0010001300007T 0201897X0000000092096 24778829000007878   7000007878      2912202300000000003109200100216X000007878                0900000000000010000000000000000000000000000000000000000   0000000000000000000000480A9        170192477882     
0010001300008U 020000000000000000000000000000000000000000000000000000000000000000000000000000000000000000000000000000000000000000000000003011202300000000            000000000000000                              000                           
0010001300009T 0201897X0000000092096 24778829000007879   7000007879      29122023000000000031380001003409000007879                0900000000000010500000000000000000000000000000000000000   0000000000000000000000480A9A4      170192477882     
0010001300010U 020000000000000000000000000000000000000000000000000000000000000000000000000000000000000000000000000000000000000000000000003011202300000000            000000000000000                              000                           
0010001300011T 0201897X0000000092096 24778829000007880   7000007880      29122023000000000027281001008117000007880                0900000000000010500000000000000000000000000000000000000   0000000000000000000000480A9A4      170192477882     
0010001300012U 020000000000000000000000000000000000000000000000000000000000000000000000000000000000000000000000000000000000000000000000003011202300000000            000000000000000                              000                           
0010001300013T 0201897X0000000092096 24778829000007881   7000007881      29122023000000000026677001007994000007881                0900000000000010000000000000000000000000000000000000000   0000000000000000000000480A9        170192477882     
0010001300014U 020000000000000000000000000000000000000000000000000000000000000000000000000000000000000000000000000000000000000000000000003011202300000000            000000000000000                              000                           
0010001300015T 0201897X0000000092096 24778829000007882   7000007882      29122023000000000028151001069833000007882                0900000000000010500000000000000000000000000000000000000   0000000000000000000000480A9A4      170192477882     
0010001300016U 020000000000000000000000000000000000000000000000000000000000000000000000000000000000000000000000000000000000000000000000003011202300000000            000000000000000                              000                           
0010001300017T 0201897X0000000092096 24778829000007883   7000007883      29122023000000000029717001007994000007883                0900000000000010500000000000000000000000000000000000000   0000000000000000000000480A9A4      170192477882     
0010001300018U 020000000000000000000000000000000000000000000000000000000000000000000000000000000000000000000000000000000000000000000000003011202300000000            000000000000000                              000                           
0010001300019T 0201897X0000000092096 24778829000007884   7000007884      30112023000000000091848001026565000007884                0900000000000010000000000000000000000000000000000000000   0000000000000000000000480A9        170192477882     
0010001300020U 020000000000000000000000000000000000000000000000000000000000000000000000000000000000000000000000000000000000000000000000003011202300000000            000000000000000                              000                           
0010001300021T 0201897X0000000092096 24778829000007885   7000007885      29122023000000000032843001008117000007885                0900000000000010500000000000000000000000000000000000000   0000000000000000000000480A9A4      170192477882     
0010001300022U 020000000000000000000000000000000000000000000000000000000000000000000000000000000000000000000000000000000000000000000000003011202300000000            000000000000000                              000                           
0010001300023T 0601897X0000000092096 24778822230002432   700000000000243230112023000000000023421341000090000002432                0900000000000010100000000000000000000000000000000000000   000000000000000000000000004        170192477882     
0010001300024U 060000000000000000000000000000000000000000000000000000000000000000000000234210000000000234210000000000000000000000000000003011202301122023            000000000000000                              000                           
0010001300025T 0601897X0000000092096 24778822230002437   700000000000243730112023000000000020107341076430000002437                0900000000000010100000000000000000000000000000000000000   000000000000000000000000004        170192477882     
0010001300026U 060000000000000000000000000000000000000000000000000000000000000000000000201070000000000201070000000000000000000000000000003011202301122023            000000000000000                              000                           
0010001300027T 0601897X0000000092096 24778822230002442   700000000000244230112023000000000020494633000010000002442                0900000000000010100000000000000000000000000000000000000   000000000000000000000000004        170192477882     
0010001300028U 060000000000000000000000000000000000000000000000000000000000000000000000204940000000000204940000000000000000000000000000003011202301122023            000000000000000                              000                           
0010001300029T 0601897X0000000092096 24778822230002447   700000000000244730112023000000000023858237033890000002447                0900000000000010100000000000000000000000000000000000000   000000000000000000000000004        170192477882     
0010001300030U 060000000000000000000000000000000000000000000000000000000000000000000000238580000000000238580000000000000000000000000000003011202301122023            000000000000000                              000                           
0010001300031T 0601897X0000000092096 24778822230002452   700000000000245230112023000000000023430237033710000002452                0900000000000010100000000000000000000000000000000000000   000000000000000000000000004        170192477882     
0010001300032U 060000000000000000000000000000000000000000000000000000000000000000000000234300000000000234300000000000000000000000000000003011202301122023            000000000000000                              000                           
0010001300033T 0601897X0000000092096 24778822230002462   700000000000246230112023000000000020494033000100000002462                0900000000000010100000000000000000000000000000000000000   000000000000000000000000004        170192477882     
0010001300034U 060000000000000000000000000000000000000000000000000000000000000000000000204940000000000204940000000000000000000000000000003011202301122023            000000000000000                              000                           
0010001300035T 0601897X0000000092096 24778822230002477   700000000000247730112023000000000020427341001360000002477                0900000000000010100000000000000000000000000000000000000   000000000000000000000000004        170192477882     
0010001300036U 060000000000000000000000000000000000000000000000000000000000000000000000204270000000000204270000000000000000000000000000003011202301122023            000000000000000                              000                           
0010001300037T 0601897X0000000092096 24778822230002482   700000000000248230112023000000000023473341000190000002482                0900000000000010100000000000000000000000000000000000000   000000000000000000000000004        170192477882     
0010001300038U 060000000000000000000000000000000000000000000000000000000000000000000000234730000000000234730000000000000000000000000000003011202301122023            000000000000000                              000                           
0010001300039T 0601897X0000000092096 24778822230002487   700000000000248730112023000000000022446341015630000002487                0900000000000010100000000000000000000000000000000000000   000000000000000000000000004        170192477882     
0010001300040U 060000000000000000000000000000000000000000000000000000000000000000000000224460000000000224460000000000000000000000000000003011202301122023            000000000000000                              000                           
0010001300041T 0601897X0000000092096 24778822230002492   700000000000249230112023000000000023076341015630000002492                0900000000000010100000000000000000000000000000000000000   000000000000000000000000004        170192477882     
0010001300042U 060000000000000000000000000000000000000000000000000000000000000000000000230760000000000230760000000000000000000000000000003011202301122023            000000000000000                              000                           
0010001300043T 0601897X0000000092096 24778822230002497   700000000000249730112023000000000020682341009120000002497                0900000000000010100000000000000000000000000000000000000   000000000000000000000000004        170192477882     
0010001300044U 060000000000000000000000000000000000000000000000000000000000000000000000206820000000000206820000000000000000000000000000003011202301122023            000000000000000                              000                           
0010001300045T 0601897X0000000092096 24778822230002502   700000000000250230112023000000000021775237033710000002502                0900000000000010100000000000000000000000000000000000000   000000000000000000000000004        170192477882     
0010001300046U 060000000000000000000000000000000000000000000000000000000000000000000000217750000000000217750000000000000000000000000000003011202301122023            000000000000000                              000                           
0010001300047T 0601897X0000000092096 24778822230002512   700000000000251230112023000000000022250237000970000002512                0900000000000010100000000000000000000000000000000000000   000000000000000000000000004        170192477882     
0010001300048U 060000000000000000000000000000000000000000000000000000000000000000000000222500000000000222500000000000000000000000000000003011202301122023            000000000000000                              000                           
0010001300049T 0601897X0000000092096 24778822230002517   700000000000251730112023000000000020482341002620000002517                0900000000000010100000000000000000000000000000000000000   000000000000000000000000004        170192477882     
0010001300050U 060000000000000000000000000000000000000000000000000000000000000000000000204820000000000204820000000000000000000000000000003011202301122023            000000000000000                              000                           
0010001300051T 0601897X0000000092096 24778822230002522   700000000000252230112023000000000023745341007310000002522                0900000000000010100000000000000000000000000000000000000   000000000000000000000000004        170192477882     
0010001300052U 060000000000000000000000000000000000000000000000000000000000000000000000237450000000000237450000000000000000000000000000003011202301122023            000000000000000                              000                           
0010001300053T 0601897X0000000092096 24778822230002527   700000000000252730112023000000000021933001029130000002527                0900000000000010040000000000000000000000000000000000000   000000000000000000000000034        170192477882     
0010001300054U 060000000000000000000000000000000000000000000000000000000000000000000000219330000000000219330000000000000000000000000000003011202301122023            000000000000000                              000                           
0010001300055T 0601897X0000000092096 24778822230002532   700000000000253230112023000000000020996001014753000002532                0900000000000010040000000000000000000000000000000000000   000000000000000000000000034        170192477882     
0010001300056U 060000000000000000000000000000000000000000000000000000000000000000000000209960000000000209960000000000000000000000000000003011202301122023            000000000000000                              000                           
0010001300057T 0601897X0000000092096 24778822230002537   700000000000253730112023000000000020036237005200000002537                0900000000000010100000000000000000000000000000000000000   000000000000000000000000004        170192477882     
0010001300058U 060000000000000000000000000000000000000000000000000000000000000000000000200360000000000200360000000000000000000000000000003011202301122023            000000000000000                              000                           
0010001300059T 0601897X0000000092096 24778822230002542   700000000000254230112023000000000021344756005030000002542                0900000000000010100000000000000000000000000000000000000   000000000000000000000000004        170192477882     
0010001300060U 060000000000000000000000000000000000000000000000000000000000000000000000213440000000000213440000000000000000000000000000003011202301122023            000000000000000                              000                           
0010001300061T 0601897X0000000092096 24778822230002552   700000000000255230112023000000000021570033002160000002552                0900000000000010100000000000000000000000000000000000000   000000000000000000000000004        170192477882     
0010001300062U 060000000000000000000000000000000000000000000000000000000000000000000000215700000000000215700000000000000000000000000000003011202301122023            000000000000000                              000                           
0010001300063T 0601897X0000000092096 24778822230002567   700000000000256730112023000000000023275237004760000002567                0900000000000010100000000000000000000000000000000000000   000000000000000000000000004        170192477882     
0010001300064U 060000000000000000000000000000000000000000000000000000000000000000000000232750000000000232750000000000000000000000000000003011202301122023            000000000000000                              000                           
0010001300065T 0601897X0000000092096 24778822230002572   700000000000257230112023000000000023421237025610000002572                0900000000000010100000000000000000000000000000000000000   000000000000000000000000004        170192477882     
0010001300066U 060000000000000000000000000000000000000000000000000000000000000000000000234210000000000234210000000000000000000000000000003011202301122023            000000000000000                              000                           
0010001300067T 0601897X0000000092096 24778822230002577   700000000000257730112023000000000023948341074460000002577                0900000000000010100000000000000000000000000000000000000   000000000000000000000000004        170192477882     
0010001300068U 060000000000000000000000000000000000000000000000000000000000000000000000239480000000000239480000000000000000000000000000003011202301122023            000000000000000                              000                           
0010001300069T 0601897X0000000092096 24778822230002587   700000000000258730112023000000000020232341087450000002587                0900000000000010100000000000000000000000000000000000000   000000000000000000000000004        170192477882     
0010001300070U 060000000000000000000000000000000000000000000000000000000000000000000000202320000000000202320000000000000000000000000000003011202301122023            000000000000000                              000                           
0010001300071T 0601897X0000000092096 24778822230002592   700000000000259230112023000000000023026033045360000002592                0900000000000010100000000000000000000000000000000000000   000000000000000000000000004        170192477882     
0010001300072U 060000000000000000000000000000000000000000000000000000000000000000000000230260000000000230260000000000000000000000000000003011202301122023            000000000000000                              000                           
0010001300073T 0601897X0000000092096 24778822230002602   700000000000260230112023000000000020494341002790000002602                0900000000000010100000000000000000000000000000000000000   000000000000000000000000004        170192477882     
0010001300074U 060000000000000000000000000000000000000000000000000000000000000000000000204940000000000204940000000000000000000000000000003011202301122023            000000000000000                              000                           
0010001300075T 0601897X0000000092096 24778822230002617   700000000000261730112023000000000020953001033626000002617                0900000000000010040000000000000000000000000000000000000   000000000000000000000000034        170192477882     
0010001300076U 060000000000000000000000000000000000000000000000000000000000000000000000209530000000000209530000000000000000000000000000003011202301122023            000000000000000                              000                           
0010001300077T 0601897X0000000092096 24778822230002622   700000000000262230112023000000000022012341009120000002622                0900000000000010100000000000000000000000000000000000000   000000000000000000000000004        170192477882     
0010001300078U 060000000000000000000000000000000000000000000000000000000000000000000000220120000000000220120000000000000000000000000000003011202301122023            000000000000000                              000                           
0010001300079T 0601897X0000000092096 24778822230002627   700000000000262730112023000000000023421237003160000002627                0900000000000010100000000000000000000000000000000000000   000000000000000000000000004        170192477882     
0010001300080U 060000000000000000000000000000000000000000000000000000000000000000000000234210000000000234210000000000000000000000000000003011202301122023            000000000000000                              000                           
0010001300081T 0601897X0000000092096 24778822230002632   700000000000263230112023000000000020493237029170000002632                0900000000000010100000000000000000000000000000000000000   000000000000000000000000004        170192477882     
0010001300082U 060000000000000000000000000000000000000000000000000000000000000000000000204930000000000204930000000000000000000000000000003011202301122023            000000000000000                              000                           
0010001300083T 0601897X0000000092096 24778822230002642   700000000000264230112023000000000021079341002780000002642                0900000000000010100000000000000000000000000000000000000   000000000000000000000000004        170192477882     
0010001300084U 060000000000000000000000000000000000000000000000000000000000000000000000210790000000000210790000000000000000000000000000003011202301122023            000000000000000                              000                           
0010001300085T 0601897X0000000092096 24778822230002652   700000000000265230112023000000000023521341029640000002652                0900000000000010100000000000000000000000000000000000000   000000000000000000000000004        170192477882     
0010001300086U 060000000000000000000000000000000000000000000000000000000000000000000000235210000000000235210000000000000000000000000000003011202301122023            000000000000000                              000                           
0010001300087T 0601897X0000000092096 24778822230002662   700000000000266230112023000000000020627237003160000002662                0900000000000010100000000000000000000000000000000000000   000000000000000000000000004        170192477882     
0010001300088U 060000000000000000000000000000000000000000000000000000000000000000000000206270000000000206270000000000000000000000000000003011202301122023            000000000000000                              000                           
0010001300089T 0601897X0000000092096 24778822230002667   700000000000266730112023000000000021561756082700000002667                0900000000000010100000000000000000000000000000000000000   000000000000000000000000004        170192477882     
0010001300090U 060000000000000000000000000000000000000000000000000000000000000000000000215610000000000215610000000000000000000000000000003011202301122023            000000000000000                              000                           
0010001300091T 0601897X0000000092096 24778822230002672   700000000000267230112023000000000023421033030640000002672                0900000000000010100000000000000000000000000000000000000   000000000000000000000000004        170192477882     
0010001300092U 060000000000000000000000000000000000000000000000000000000000000000000000234210000000000234210000000000000000000000000000003011202301122023            000000000000000                              000                           
0010001300093T 0601897X0000000092096 24778822230002682   700000000000268230112023000000000023714033032440000002682                0900000000000010100000000000000000000000000000000000000   000000000000000000000000004        170192477882     
0010001300094U 060000000000000000000000000000000000000000000000000000000000000000000000237140000000000237140000000000000000000000000000003011202301122023            000000000000000                              000                           
0010001300095T 0601897X0000000092096 24778822230002687   700000000000268730112023000000000021079341032630000002687                0900000000000010100000000000000000000000000000000000000   000000000000000000000000004        170192477882     
0010001300096U 060000000000000000000000000000000000000000000000000000000000000000000000210790000000000210790000000000000000000000000000003011202301122023            000000000000000                              000                           
0010001300097T 0601897X0000000092096 24778822230002692   70000000000026923011202300000000002166500101897X000002692                0900000000000010090000000000000000000000000000000000000   000000000000000000000000006        170192477882     
0010001300098U 060000000000000000000000000000000000000000000000000000000000000000000000216650000000000216650000000000000000000000000000003011202301122023            000000000000000                              000                           
0010001300099T 0601897X0000000092096 24778822230002762   700000000000276230112023000000000022237033036890000002762                0900000000000010100000000000000000000000000000000000000   000000000000000000000000004        170192477882     
0010001300100U 060000000000000000000000000000000000000000000000000000000000000000000000222370000000000222370000000000000000000000000000003011202301122023            000000000000000                              000                           
0010001300101T 0601897X0000000092096 24778822230002767   700000000000276730112023000000000022117237002140000002767                0900000000000010100000000000000000000000000000000000000   000000000000000000000000004        170192477882     
0010001300102U 060000000000000000000000000000000000000000000000000000000000000000000000221170000000000221170000000000000000000000000000003011202301122023            000000000000000                              000                           
0010001300103T 0601897X0000000092096 24778822230002772   700000000000277230112023000000000023421341002790000002772                0900000000000010100000000000000000000000000000000000000   000000000000000000000000004        170192477882     
0010001300104U 060000000000000000000000000000000000000000000000000000000000000000000000234210000000000234210000000000000000000000000000003011202301122023            000000000000000                              000                           
0010001300105T 0601897X0000000092096 24778822230002777   700000000000277730112023000000000021079237033680000002777                0900000000000010100000000000000000000000000000000000000   000000000000000000000000004        170192477882     
0010001300106U 060000000000000000000000000000000000000000000000000000000000000000000000210790000000000210790000000000000000000000000000003011202301122023            000000000000000                              000                           
0010001300107T 0601897X0000000092096 24778822230002787   700000000000278730112023000000000022187237035040000002787                0900000000000010100000000000000000000000000000000000000   000000000000000000000000004        170192477882     
0010001300108U 060000000000000000000000000000000000000000000000000000000000000000000000221870000000000221870000000000000000000000000000003011202301122023            000000000000000                              000                           
0010001300109T 0601897X0000000092096 24778822230002792   700000000000279230112023000000000020020341085490000002792                0900000000000010100000000000000000000000000000000000000   000000000000000000000000004        170192477882     
0010001300110U 060000000000000000000000000000000000000000000000000000000000000000000000200200000000000200200000000000000000000000000000003011202301122023            000000000000000                              000                           
0010001300111T 0601897X0000000092096 24778822230002797   700000000000279730112023000000000032824341005460000002797                0900000000000010100000000000000000000000000000000000000   000000000000000000000000004        170192477882     
0010001300112U 060000000000000000000000000000000000000000000000000000000000000000000000328240000000000328240000000000000000000000000000003011202301122023            000000000000000                              000                           
0010001300113T 0601897X0000000092096 24778822230002815   700000000000281530112023000000000254506341016190000002815                0900000000000010100000000000000000000000000000000000000   000000000000000000000000004        170192477882     
0010001300114U 060000000000000000000000000000000000000000000000000000000000000000000002545060000000002545060000000000000000000000000000003011202301122023            000000000000000                              000                           
0010001300115T 0601897X0000000092096 24778822230002821   700000000000282130112023000000000020643033000410000002821                0900000000000010100000000000000000000000000000000000000   000000000000000000000000004        170192477882     
0010001300116U 060000000000000000000000000000000000000000000000000000000000000000000000206430000000000206430000000000000000000000000000003011202301122023            000000000000000                              000                           
0010001300117T 0601897X0000000092096 24778822230002833   700000000000283330112023000000000163445341009120000002833                0900000000000010100000000000000000000000000000000000000   000000000000000000000000004        170192477882     
0010001300118U 060000000000000000000000000000000000000000000000000000000000000000000001634450000000001634450000000000000000000000000000003011202301122023            000000000000000                              000                           
0010001300119T 0601897X0000000092096 24778822230002839   700000000000283930112023000000000060170237003930000002839                0900000000000010100000000000000000000000000000000000000   000000000000000000000000004        170192477882     
0010001300120U 060000000000000000000000000000000000000000000000000000000000000000000000601700000000000601700000000000000000000000000000003011202301122023            000000000000000                              000                           
0010001300121T 0601897X0000000092096 24778822230002845   700000000000284530112023000000000073767341080460000002845                0900000000000010100000000000000000000000000000000000000   000000000000000000000000004        170192477882     
0010001300122U 060000000000000000000000000000000000000000000000000000000000000000000000737670000000000737670000000000000000000000000000003011202301122023            000000000000000                              000                           
0010001300123T 0601897X0000000092096 24778822230002851   700000000000285130112023000000000310949001031496000002851                0900000000000010090000000000000000000000000000000000000   000000000000000000000000006        170192477882     
0010001300124U 060000000000000000000000000000000000000000000000000000000000000000000003109490000000003109490000000000000000000000000000003011202301122023            000000000000000                              000                           
0010001300125T 0601897X0000000092096 24778822230002881   700000000000288130112023000000000197617237033930000002881                0900000000000010100000000000000000000000000000000000000   000000000000000000000000004        170192477882     
0010001300126U 060000000000000000000000000000000000000000000000000000000000000000000001976170000000001976170000000000000000000000000000003011202301122023            000000000000000                              000                           
0010001300127T 0601897X0000000092096 24778822230002917   700000000000291730112023000000000048795341081690000002917                0900000000000010100000000000000000000000000000000000000   000000000000000000000000004        170192477882     
0010001300128U 060000000000000000000000000000000000000000000000000000000000000000000000487950000000000487950000000000000000000000000000003011202301122023            000000000000000                              000                           
0010001300129T 0601897X0000000092096 24778822230002923   700000000000292330112023000000000034290237004760000002923                0900000000000010100000000000000000000000000000000000000   000000000000000000000000004        170192477882     
0010001300130U 060000000000000000000000000000000000000000000000000000000000000000000000342900000000000342900000000000000000000000000000003011202301122023            000000000000000                              000                           
0010001300131T 0601897X0000000092096 24778822230002929   700000000000292930112023000000000042378341000410000002929                0900000000000010100000000000000000000000000000000000000   000000000000000000000000004        170192477882     
0010001300132U 060000000000000000000000000000000000000000000000000000000000000000000000423780000000000423780000000000000000000000000000003011202301122023            000000000000000                              000                           
0010001300133T 0601897X0000000092096 24778822230002935   700000000000293530112023000000000057968341015630000002935                0900000000000010100000000000000000000000000000000000000   000000000000000000000000004        170192477882     
0010001300134U 060000000000000000000000000000000000000000000000000000000000000000000000579680000000000579680000000000000000000000000000003011202301122023            000000000000000                              000                           
0010001300135T 0601897X0000000092096 24778822230002941   700000000000294130112023000000000029277756077170000002941                0900000000000010100000000000000000000000000000000000000   000000000000000000000000004        170192477882     
0010001300136U 060000000000000000000000000000000000000000000000000000000000000000000000292770000000000292770000000000000000000000000000003011202301122023            000000000000000                              000                           
0010001300137T 0601897X0000000092096 24778822230002953   700000000000295330112023000000000048795237035040000002953                0900000000000010100000000000000000000000000000000000000   000000000000000000000000004        170192477882     
0010001300138U 060000000000000000000000000000000000000000000000000000000000000000000000487950000000000487950000000000000000000000000000003011202301122023            000000000000000                              000                           
0010001300139T 0601897X0000000092096 24778822230002959   700000000000295930112023000000000070752237033890000002959                0900000000000010100000000000000000000000000000000000000   000000000000000000000000004        170192477882     
0010001300140U 060000000000000000000000000000000000000000000000000000000000000000000000707520000000000707520000000000000000000000000000003011202301122023            000000000000000                              000                           
0010001300141T 0601897X0000000092096 24778822230002965   700000000000296530112023000000000292571341005600000002965                0900000000000010100000000000000000000000000000000000000   000000000000000000000000004        170192477882     
0010001300142U 060000000000000000000000000000000000000000000000000000000000000000000002925710000000002925710000000000000000000000000000003011202301122023            000000000000000                              000                           
0010001300143T 0601897X0000000092096 24778822230002977   700000000000297730112023000000000029277341029040000002977                0900000000000010100000000000000000000000000000000000000   000000000000000000000000004        170192477882     
0010001300144U 060000000000000000000000000000000000000000000000000000000000000000000000292770000000000292770000000000000000000000000000003011202301122023            000000000000000                              000                           
0010001300145T 0601897X0000000092096 24778822230002989   700000000000298930112023000000000020932341000280000002989                0900000000000010100000000000000000000000000000000000000   000000000000000000000000004        170192477882     
0010001300146U 060000000000000000000000000000000000000000000000000000000000000000000000209320000000000209320000000000000000000000000000003011202301122023            000000000000000                              000                           
0010001300147T 0601897X0000000092096 24778822230003001   700000000000300130112023000000000060652341000190000003001                0900000000000010100000000000000000000000000000000000000   000000000000000000000000004        170192477882     
0010001300148U 060000000000000000000000000000000000000000000000000000000000000000000000606520000000000606520000000000000000000000000000003011202301122023            000000000000000                              000                           
0010001300149T 0601897X0000000092096 24778822230003007   700000000000300730112023000000000029730033043780000003007                0900000000000010100000000000000000000000000000000000000   000000000000000000000000004        170192477882     
0010001300150U 060000000000000000000000000000000000000000000000000000000000000000000000297300000000000297300000000000000000000000000000003011202301122023            000000000000000                              000                           
0010001300151T 0601897X0000000092096 24778822230003013   700000000000301330112023000000000050014033038850000003013                0900000000000010100000000000000000000000000000000000000   000000000000000000000000004        170192477882     
0010001300152U 060000000000000000000000000000000000000000000000000000000000000000000000500140000000000500140000000000000000000000000000003011202301122023            000000000000000                              000                           
0010001300153T 0601897X0000000092096 24778822230003019   700000000000301930112023000000000117776341048360000003019                0900000000000010100000000000000000000000000000000000000   000000000000000000000000004        170192477882     
0010001300154U 060000000000000000000000000000000000000000000000000000000000000000000001177760000000001177760000000000000000000000000000003011202301122023            000000000000000                              000                           
0010001300155T 0601897X0000000092096 24778822230003025   700000000000302530112023000000000327899033002070000003025                0900000000000010100000000000000000000000000000000000000   000000000000000000000000004        170192477882     
0010001300156U 060000000000000000000000000000000000000000000000000000000000000000000003278990000000003278990000000000000000000000000000003011202301122023            000000000000000                              000                           
0010001300157T 0601897X0000000092096 24778822230003031   700000000000303130112023000000000060150341000020000003031                0900000000000010100000000000000000000000000000000000000   000000000000000000000000004        170192477882     
0010001300158U 060000000000000000000000000000000000000000000000000000000000000000000000601500000000000601500000000000000000000000000000003011202301122023            000000000000000                              000                           
0010001300159T 0601897X0000000092096 24778822230003043   700000000000304330112023000000000040361237033970000003043                0900000000000010100000000000000000000000000000000000000   000000000000000000000000004        170192477882     
0010001300160U 060000000000000000000000000000000000000000000000000000000000000000000000403610000000000403610000000000000000000000000000003011202301122023            000000000000000                              000                           
0010001300161T 0601897X0000000092096 24778822230003049   700000000000304930112023000000000029027001066249000003049                0900000000000010040000000000000000000000000000000000000   000000000000000000000000034        170192477882     
0010001300162U 060000000000000000000000000000000000000000000000000000000000000000000000290270000000000290270000000000000000000000000000003011202301122023            000000000000000                              000                           
0010001300163T 0601897X0000000092096 24778822230003055   700000000000305530112023000000000190497001033626000003055                0900000000000010040000000000000000000000000000000000000   000000000000000000000000034        170192477882     
0010001300164U 060000000000000000000000000000000000000000000000000000000000000000000001904970000000001904970000000000000000000000000000003011202301122023            000000000000000                              000                           
0010001300165T 0601897X0000000092096 24778822230003061   700000000000306130112023000000000021323001033626000003061                0900000000000010090000000000000000000000000000000000000   000000000000000000000000006        170192477882     
0010001300166U 060000000000000000000000000000000000000000000000000000000000000000000000213230000000000213230000000000000000000000000000003011202301122023            000000000000000                              000                           
0010001300167T 0601897X0000000092096 24778822230003067   700000000000306730112023000000000108118341086800000003067                0900000000000010100000000000000000000000000000000000000   000000000000000000000000004        170192477882     
0010001300168U 060000000000000000000000000000000000000000000000000000000000000000000001081180000000001081180000000000000000000000000000003011202301122023            000000000000000                              000                           
0010001300169T 0601897X0000000092096 24778822230003073   700000000000307330112023000000000026208237033710000003073                0900000000000010100000000000000000000000000000000000000   000000000000000000000000004        170192477882     
0010001300170U 060000000000000000000000000000000000000000000000000000000000000000000000262080000000000262080000000000000000000000000000003011202301122023            000000000000000                              000                           
0010001300171T 0601897X0000000092096 24778822230003079   700000000000307930112023000000000134304246000010000003079                0900000000000010100000000000000000000000000000000000000   000000000000000000000000004        170192477882     
0010001300172U 060000000000000000000000000000000000000000000000000000000000000000000001343040000000001343040000000000000000000000000000003011202301122023            000000000000000                              000                           
0010001300173T 0601897X0000000092096 24778822230003085   700000000000308530112023000000000259739745000040000003085                0900000000000010100000000000000000000000000000000000000   000000000000000000000000004        170192477882     
0010001300174U 060000000000000000000000000000000000000000000000000000000000000000000002597390000000002597390000000000000000000000000000003011202301122023            000000000000000                              000                           
0010001300175T 0601897X0000000092096 24778822230003091   700000000000309130112023000000000051714341000140000003091                0900000000000010100000000000000000000000000000000000000   000000000000000000000000004        170192477882     
0010001300176U 060000000000000000000000000000000000000000000000000000000000000000000000517140000000000517140000000000000000000000000000003011202301122023            000000000000000                              000                           
0010001300177T 0601897X0000000092096 24778822230003103   700000000000310330112023000000000244308341000500000003103                0900000000000010100000000000000000000000000000000000000   000000000000000000000000004        170192477882     
0010001300178U 060000000000000000000000000000000000000000000000000000000000000000000002443080000000002443080000000000000000000000000000003011202301122023            000000000000000                              000                           
0010001300179T 0601897X0000000092096 24778822230003109   700000000000310930112023000000000086269246000010000003109                0900000000000010100000000000000000000000000000000000000   000000000000000000000000004        170192477882     
0010001300180U 060000000000000000000000000000000000000000000000000000000000000000000000862690000000000862690000000000000000000000000000003011202301122023            000000000000000                              000                           
0010001300181T 0601897X0000000092096 24778822230003133   700000000000313330112023000000000058553341060660000003133                0900000000000010100000000000000000000000000000000000000   000000000000000000000000004        170192477882     
0010001300182U 060000000000000000000000000000000000000000000000000000000000000000000000585530000000000585530000000000000000000000000000003011202301122023            000000000000000                              000                           
0010001300183T 0601897X0000000092096 24778822230003145   700000000000314530112023000000000069332237033890000003145                0900000000000010100000000000000000000000000000000000000   000000000000000000000000004        170192477882     
0010001300184U 060000000000000000000000000000000000000000000000000000000000000000000000693320000000000693320000000000000000000000000000003011202301122023            000000000000000                              000                           
0010001300185T 0601897X0000000092096 24778822230003146   700000000000314622122023000000000069332237033890000003146                0900000000000010100000000000000000000000000000000000000   000000000000000000000000004        170192477882     
0010001300186U 060000000000000000000000000000000000000000000000000000000000000000000000693320000000000693320000000000000000000000000000003011202301122023            000000000000000                              000                           
0010001300187T 0601897X0000000092096 24778822230003151   700000000000315130112023000000000195857033048780000003151                0900000000000010100000000000000000000000000000000000000   000000000000000000000000004        170192477882     
0010001300188U 060000000000000000000000000000000000000000000000000000000000000000000001958570000000001958570000000000000000000000000000003011202301122023            000000000000000                              000                           
0010001300189T 0601897X0000000092096 24778822230003163   700000000000316330112023000000000200404341000550000003163                0900000000000010100000000000000000000000000000000000000   000000000000000000000000004        170192477882     
0010001300190U 060000000000000000000000000000000000000000000000000000000000000000000002004040000000002004040000000000000000000000000000003011202301122023            000000000000000                              000                           
0010001300191T 0601897X0000000092096 24778822230003169   700000000000316930112023000000000039524341006700000003169                0900000000000010100000000000000000000000000000000000000   000000000000000000000000004        170192477882     
0010001300192U 060000000000000000000000000000000000000000000000000000000000000000000000395240000000000395240000000000000000000000000000003011202301122023            000000000000000                              000                           
0010001300193T 0601897X0000000092096 24778822230003175   700000000000317530112023000000000031522341000090000003175                0900000000000010100000000000000000000000000000000000000   000000000000000000000000004        170192477882     
0010001300194U 060000000000000000000000000000000000000000000000000000000000000000000000315220000000000315220000000000000000000000000000003011202301122023            000000000000000                              000                           
0010001300195T 0601897X0000000092096 24778822230003181   700000000000318130112023000000000113641341000280000003181                0900000000000010100000000000000000000000000000000000000   000000000000000000000000004        170192477882     
0010001300196U 060000000000000000000000000000000000000000000000000000000000000000000001136410000000001136410000000000000000000000000000003011202301122023            000000000000000                              000                           
0010001300197T 0601897X0000000092096 24778822230003199   700000000000319930112023000000000040233376000010000003199                0900000000000010100000000000000000000000000000000000000   000000000000000000000000004        170192477882     
0010001300198U 060000000000000000000000000000000000000000000000000000000000000000000000402330000000000402330000000000000000000000000000003011202301122023            000000000000000                              000                           
0010001300199T 0601897X0000000092096 24778822230003205   700000000000320530112023000000000058553341000500000003205                0900000000000010100000000000000000000000000000000000000   000000000000000000000000004        170192477882     
0010001300200U 060000000000000000000000000000000000000000000000000000000000000000000000585530000000000585530000000000000000000000000000003011202301122023            000000000000000                              000                           
0010001300201T 0601897X0000000092096 24778822230003217   700000000000321730112023000000000106186001033626000003217                0900000000000010040000000000000000000000000000000000000   000000000000000000000000034        170192477882     
0010001300202U 060000000000000000000000000000000000000000000000000000000000000000000001061860000000001061860000000000000000000000000000003011202301122023            000000000000000                              000                           
0010001300203T 0601897X0000000092096 24778822230003229   700000000000322930112023000000000085858033038850000003229                0900000000000010100000000000000000000000000000000000000   000000000000000000000000004        170192477882     
0010001300204U 060000000000000000000000000000000000000000000000000000000000000000000000858580000000000858580000000000000000000000000000003011202301122023            000000000000000                              000                           
0010001300205T 0601897X0000000092096 24778822230003235   700000000000323530112023000000000478381341000190000003235                0900000000000010100000000000000000000000000000000000000   000000000000000000000000004        170192477882     
0010001300206U 060000000000000000000000000000000000000000000000000000000000000000000004783810000000004783810000000000000000000000000000003011202301122023            000000000000000                              000                           
0010001300207T 0601897X0000000092096 24778822230003241   700000000000324130112023000000000042834748052490000003241                0900000000000010100000000000000000000000000000000000000   000000000000000000000000004        170192477882     
0010001300208U 060000000000000000000000000000000000000000000000000000000000000000000000428340000000000428340000000000000000000000000000003011202301122023            000000000000000                              000                           
0010001300209T 0601897X0000000092096 24778822230003253   700000000000325330112023000000000023401341000190000003253                0900000000000010100000000000000000000000000000000000000   000000000000000000000000004        170192477882     
0010001300210U 060000000000000000000000000000000000000000000000000000000000000000000000234010000000000234010000000000000000000000000000003011202301122023            000000000000000                              000                           
0010001300211T 0601897X0000000092096 24778822230003259   700000000000325930112023000000000074018341000550000003259                0900000000000010100000000000000000000000000000000000000   000000000000000000000000004        170192477882     
0010001300212U 060000000000000000000000000000000000000000000000000000000000000000000000740180000000000740180000000000000000000000000000003011202301122023            000000000000000                              000                           
0010001300213T 0601897X0000000092096 24778822230003265   700000000000326530112023000000000192424341005600000003265                0900000000000010100000000000000000000000000000000000000   000000000000000000000000004        170192477882     
0010001300214U 060000000000000000000000000000000000000000000000000000000000000000000001924240000000001924240000000000000000000000000000003011202301122023            000000000000000                              000                           
0010001300215T 0601897X0000000092096 24778822230003295   700000000000329530112023000000000126347341000280000003295                0900000000000010100000000000000000000000000000000000000   000000000000000000000000004        170192477882     
0010001300216U 060000000000000000000000000000000000000000000000000000000000000000000001263470000000001263470000000000000000000000000000003011202301122023            000000000000000                              000                           
0010001300217T 0601897X0000000092096 24778822230003301   700000000000330130112023000000000084164341002770000003301                0900000000000010100000000000000000000000000000000000000   000000000000000000000000004        170192477882     
0010001300218U 060000000000000000000000000000000000000000000000000000000000000000000000841640000000000841640000000000000000000000000000003011202301122023            000000000000000                              000                           
0010001300219T 0601897X0000000092096 24778822230003307   700000000000330730112023000000000023233341069100000003307                0900000000000010100000000000000000000000000000000000000   000000000000000000000000004        170192477882     
0010001300220U 060000000000000000000000000000000000000000000000000000000000000000000000232330000000000232330000000000000000000000000000003011202301122023            000000000000000                              000                           
0010001300221T 0601897X0000000092096 24778822230003331   700000000000333130112023000000000075353033036890000003331                0900000000000010100000000000000000000000000000000000000   000000000000000000000000004        170192477882     
0010001300222U 060000000000000000000000000000000000000000000000000000000000000000000000753530000000000753530000000000000000000000000000003011202301122023            000000000000000                              000                           
0010001300223T 0601897X0000000092096 24778822230003337   700000000000333730112023000000000404479341000540000003337                0900000000000010100000000000000000000000000000000000000   000000000000000000000000004        170192477882     
0010001300224U 060000000000000000000000000000000000000000000000000000000000000000000004044790000000004044790000000000000000000000000000003011202301122023            000000000000000                              000                           
0010001300225T 0601897X0000000092096 24778822230003343   700000000000334330112023000000000115645755013060000003343                0900000000000010100000000000000000000000000000000000000   000000000000000000000000004        170192477882     
0010001300226U 060000000000000000000000000000000000000000000000000000000000000000000001156450000000001156450000000000000000000000000000003011202301122023            000000000000000                              000                           
0010001300227T 0601897X0000000092096 24778822230003349   700000000000334930112023000000000043915341001690000003349                0900000000000010100000000000000000000000000000000000000   000000000000000000000000004        170192477882     
0010001300228U 060000000000000000000000000000000000000000000000000000000000000000000000439150000000000439150000000000000000000000000000003011202301122023            000000000000000                              000                           
0010001300229T 0601897X0000000092096 24778822230003355   700000000000335530112023000000000061127748052790000003355                0900000000000010100000000000000000000000000000000000000   000000000000000000000000004        170192477882     
0010001300230U 060000000000000000000000000000000000000000000000000000000000000000000000611270000000000611270000000000000000000000000000003011202301122023            000000000000000                              000                           
0010001300231T 0601897X0000000092096 24778822230003373   700000000000337330112023000000000099724033037290000003373                0900000000000010100000000000000000000000000000000000000   000000000000000000000000004        170192477882     
0010001300232U 060000000000000000000000000000000000000000000000000000000000000000000000997240000000000997240000000000000000000000000000003011202301122023            000000000000000                              000                           
0010001300233T 0601897X0000000092096 24778822230003385   700000000000338530112023000000000075485033001780000003385                0900000000000010100000000000000000000000000000000000000   000000000000000000000000004        170192477882     
0010001300234U 060000000000000000000000000000000000000000000000000000000000000000000000754850000000000754850000000000000000000000000000003011202301122023            000000000000000                              000                           
0010001300235T 0601897X0000000092096 24778822230003391   700000000000339130112023000000000099448237001490000003391                0900000000000010100000000000000000000000000000000000000   000000000000000000000000004        170192477882     
0010001300236U 060000000000000000000000000000000000000000000000000000000000000000000000994480000000000994480000000000000000000000000000003011202301122023            000000000000000                              000                           
0010001300237T 0601897X0000000092096 24778822230003397   700000000000339730112023000000000463268341076490000003397                0900000000000010100000000000000000000000000000000000000   000000000000000000000000004        170192477882     
0010001300238U 060000000000000000000000000000000000000000000000000000000000000000000004632680000000004632680000000000000000000000000000003011202301122023            000000000000000                              000                           
0010001300239T 0601897X0000000092096 24778822230003409   700000000000340930112023000000000021304341005340000003409                0900000000000010100000000000000000000000000000000000000   000000000000000000000000004        170192477882     
0010001300240U 060000000000000000000000000000000000000000000000000000000000000000000000213040000000000213040000000000000000000000000000003011202301122023            000000000000000                              000                           
0010001300241T 0601897X0000000092096 24778822230003415   700000000000341530112023000000000022797341000550000003415                0900000000000010100000000000000000000000000000000000000   000000000000000000000000004        170192477882     
0010001300242U 060000000000000000000000000000000000000000000000000000000000000000000000227970000000000227970000000000000000000000000000003011202301122023            000000000000000                              000                           
0010001300243T 0601897X0000000092096 24778822230003421   700000000000342130112023000000000260738033001940000003421                0900000000000010100000000000000000000000000000000000000   000000000000000000000000004        170192477882     
0010001300244U 060000000000000000000000000000000000000000000000000000000000000000000002607380000000002607380000000000000000000000000000003011202301122023            000000000000000                              000                           
0010001300245T 0601897X0000000092096 24778822230003433   700000000000343330112023000000000070752341000190000003433                0900000000000010100000000000000000000000000000000000000   000000000000000000000000004        170192477882     
0010001300246U 060000000000000000000000000000000000000000000000000000000000000000000000707520000000000707520000000000000000000000000000003011202301122023            000000000000000                              000                           
0010001300247T 0601897X0000000092096 24778822230003445   700000000000344530112023000000000138816341009120000003445                0900000000000010100000000000000000000000000000000000000   000000000000000000000000004        170192477882     
0010001300248U 060000000000000000000000000000000000000000000000000000000000000000000001388160000000001388160000000000000000000000000000003011202301122023            000000000000000                              000                           
0010001300249T 0601897X0000000092096 24778822230003457   700000000000345730112023000000000022622341000190000003457                0900000000000010100000000000000000000000000000000000000   000000000000000000000000004        170192477882     
0010001300250U 060000000000000000000000000000000000000000000000000000000000000000000000226220000000000226220000000000000000000000000000003011202301122023            000000000000000                              000                           
0010001300251T 0601897X0000000092096 24778822230003463   700000000000346330112023000000000069850341069680000003463                0900000000000010100000000000000000000000000000000000000   000000000000000000000000004        170192477882     
0010001300252U 060000000000000000000000000000000000000000000000000000000000000000000000698500000000000698500000000000000000000000000000003011202301122023            000000000000000                              000                           
0010001300253T 0601897X0000000092096 24778822230003469   700000000000346930112023000000000388966341009120000003469                0900000000000010100000000000000000000000000000000000000   000000000000000000000000004        170192477882     
0010001300254U 060000000000000000000000000000000000000000000000000000000000000000000003889660000000003889660000000000000000000000000000003011202301122023            000000000000000                              000                           
0010001300255T 0601897X0000000092096 24778822230003475   700000000000347530112023000000000707023237033950000003475                0900000000000010100000000000000000000000000000000000000   000000000000000000000000004        170192477882     
0010001300256U 060000000000000000000000000000000000000000000000000000000000000000000007070230000000007070230000000000000000000000000000003011202301122023            000000000000000                              000                           
0010001300257T 0601897X0000000092096 24778822230003481   700000000000348130112023000000000085562341078830000003481                0900000000000010100000000000000000000000000000000000000   000000000000000000000000004        170192477882     
0010001300258U 060000000000000000000000000000000000000000000000000000000000000000000000855620000000000855620000000000000000000000000000003011202301122023            000000000000000                              000                           
0010001300259T 0601897X0000000092096 24778822230003487   700000000000348730112023000000000149397756075190000003487                0900000000000010100000000000000000000000000000000000000   000000000000000000000000004        170192477882     
0010001300260U 060000000000000000000000000000000000000000000000000000000000000000000001493970000000001493970000000000000000000000000000003011202301122023            000000000000000                              000                           
0010001300261T 0601897X0000000092096 24778822230003493   700000000000349330112023000000000143069237019360000003493                0900000000000010100000000000000000000000000000000000000   000000000000000000000000004        170192477882     
0010001300262U 060000000000000000000000000000000000000000000000000000000000000000000001430690000000001430690000000000000000000000000000003011202301122023            000000000000000                              000                           
0010001300263T 0601897X0000000092096 24778822230003499   700000000000349930112023000000000022811341000540000003499                0900000000000010100000000000000000000000000000000000000   000000000000000000000000004        170192477882     
0010001300264U 060000000000000000000000000000000000000000000000000000000000000000000000228110000000000228110000000000000000000000000000003011202301122023            000000000000000                              000                           
0010001300265T 0601897X0000000092096 24778822230003511   700000000000351130112023000000000330272237020020000003511                0900000000000010100000000000000000000000000000000000000   000000000000000000000000004        170192477882     
0010001300266U 060000000000000000000000000000000000000000000000000000000000000000000003302720000000003302720000000000000000000000000000003011202301122023            000000000000000                              000                           
0010001300267T 0601897X0000000092096 24778822230003541   700000000000354130112023000000000027135033003920000003541                0900000000000010100000000000000000000000000000000000000   000000000000000000000000004        170192477882     
0010001300268U 060000000000000000000000000000000000000000000000000000000000000000000000271350000000000271350000000000000000000000000000003011202301122023            000000000000000                              000                           
0010001300269T 0601897X0000000092096 24778822230003547   700000000000354730112023000000000215831033001470000003547                0900000000000010100000000000000000000000000000000000000   000000000000000000000000004        170192477882     
0010001300270U 060000000000000000000000000000000000000000000000000000000000000000000002158310000000002158310000000000000000000000000000003011202301122023            000000000000000                              000                           
0010001300271T 0601897X0000000092096 24778822230003553   700000000000355330112023000000000026837341000280000003553                0900000000000010100000000000000000000000000000000000000   000000000000000000000000004        170192477882     
0010001300272U 060000000000000000000000000000000000000000000000000000000000000000000000268370000000000268370000000000000000000000000000003011202301122023            000000000000000                              000                           
0010001300273T 0601897X0000000092096 24778822230003565   700000000000356530112023000000000024397237016780000003565                0900000000000010100000000000000000000000000000000000000   000000000000000000000000004        170192477882     
0010001300274U 060000000000000000000000000000000000000000000000000000000000000000000000243970000000000243970000000000000000000000000000003011202301122023            000000000000000                              000                           
0010001300275T 0601897X0000000092096 24778822230003571   700000000000357130112023000000000021747237060090000003571                0900000000000010100000000000000000000000000000000000000   000000000000000000000000004        170192477882     
0010001300276U 060000000000000000000000000000000000000000000000000000000000000000000000217470000000000217470000000000000000000000000000003011202301122023            000000000000000                              000                           
0010001300277T 0601897X0000000092096 24778822230003589   70000000000035893011202300000000012638200101897X000003589                0900000000000010090000000000000000000000000000000000000   000000000000000000000000006        170192477882     
0010001300278U 060000000000000000000000000000000000000000000000000000000000000000000001263820000000001263820000000000000000000000000000003011202301122023            000000000000000                              000                           
0010001300279T 0601897X0000000092096 24778822230003595   700000000000359530112023000000011804664104003410000003595                0900000000000010100000000000000000000000000000000000000   000000000000000000000000004        170192477882     
0010001300280U 060000000000000000000000000000000000000000000000000000000000000000000118046640000000118046640000000000000000000000000000003011202301122023            000000000000000                              000                           
0010001300281T 0601897X0000000092096 24778822230003601   700000000000360130112023000000006656616104003420000003601                0900000000000010100000000000000000000000000000000000000   000000000000000000000000004        170192477882     
0010001300282U 060000000000000000000000000000000000000000000000000000000000000000000066566160000000066566160000000000000000000000000000003011202301122023            000000000000000                              000                           
0010001300283T 0601897X0000000092096 24778822230003613   700000000000361330112023000000004550262104003630000003613                0900000000000010100000000000000000000000000000000000000   000000000000000000000000004        170192477882     
0010001300284U 060000000000000000000000000000000000000000000000000000000000000000000045502620000000045502620000000000000000000000000000003011202301122023            000000000000000                              000                           
0010001300285T 0601897X0000000092096 24778822230003619   700000000000361930112023000000003833031104011850000003619                0900000000000010100000000000000000000000000000000000000   000000000000000000000000004        170192477882     
0010001300286U 060000000000000000000000000000000000000000000000000000000000000000000038330310000000038330310000000000000000000000000000003011202301122023            000000000000000                              000                           
0010001300287T 0601897X0000000092096 24778822230003625   700000000000362530112023000000000479257341000540000003625                0900000000000010100000000000000000000000000000000000000   000000000000000000000000004        170192477882     
0010001300288U 060000000000000000000000000000000000000000000000000000000000000000000004792570000000004792570000000000000000000000000000003011202301122023            000000000000000                              000                           
0010001300289T 0601897X0000000092096 24778822230003637   700000000000363730112023000000000260960341040050000003637                0900000000000010100000000000000000000000000000000000000   000000000000000000000000004        170192477882     
0010001300290U 060000000000000000000000000000000000000000000000000000000000000000000002609600000000002609600000000000000000000000000000003011202301122023            000000000000000                              000                           
0010001300291T 0601897X0000000092096 24778822230003643   700000000000364330112023000000000055712376000010000003643                0900000000000010100000000000000000000000000000000000000   000000000000000000000000004        170192477882     
0010001300292U 060000000000000000000000000000000000000000000000000000000000000000000000557120000000000557120000000000000000000000000000003011202301122023            000000000000000                              000                           
0010001300293T 0601897X0000000092096 24778822230003649   700000000000364930112023000000000662637237023740000003649                0900000000000010100000000000000000000000000000000000000   000000000000000000000000004        170192477882     
0010001300294U 060000000000000000000000000000000000000000000000000000000000000000000006626370000000006626370000000000000000000000000000003011202301122023            000000000000000                              000                           
0010001300295T 0601897X0000000092096 24778822230003655   700000000000365530112023000000000036913341005600000003655                0900000000000010100000000000000000000000000000000000000   000000000000000000000000004        170192477882     
0010001300296U 060000000000000000000000000000000000000000000000000000000000000000000000369130000000000369130000000000000000000000000000003011202301122023            000000000000000                              000                           
0010001300297T 0601897X0000000092096 24778822230003661   700000000000366130112023000000000037100237033670000003661                0900000000000010100000000000000000000000000000000000000   000000000000000000000000004        170192477882     
0010001300298U 060000000000000000000000000000000000000000000000000000000000000000000000371000000000000371000000000000000000000000000000003011202301122023            000000000000000                              000                           
0010001300299T 0601897X0000000092096 24778822230003667   700000000000366730112023000000000028350341002490000003667                0900000000000010100000000000000000000000000000000000000   000000000000000000000000004        170192477882     
0010001300300U 060000000000000000000000000000000000000000000000000000000000000000000000283500000000000283500000000000000000000000000000003011202301122023            000000000000000                              000                           
0010001300301T 0601897X0000000092096 24778822230003697   700000000000369730112023000000005300888422001150000003697                0900000000000010100000000000000000000000000000000000000   000000000000000000000000004        170192477882     
0010001300302U 060000000000000000000000000000000000000000000000000000000000000000000053008880000000053008880000000000000000000000000000003011202301122023            000000000000000                              000                           
0010001300303T 0601897X0000000092096 24778822230003703   70000000000037033011202300000000056255200104587X000003703                0900000000000010040000000000000000000000000000000000000   000000000000000000000000034        170192477882     
0010001300304U 060000000000000000000000000000000000000000000000000000000000000000000005625520000000005625520000000000000000000000000000003011202301122023            000000000000000                              000                           
0010001300305T 0601897X0000000092096 24778822230003715   700000000000371530112023000000000513201237023720000003715                0900000000000010100000000000000000000000000000000000000   000000000000000000000000004        170192477882     
0010001300306U 060000000000000000000000000000000000000000000000000000000000000000000005132010000000005132010000000000000000000000000000003011202301122023            000000000000000                              000                           
0010001300307T 0601897X0000000092096 24778822230003721   700000000000372130112023000000011589259001009296000003721                0900000000000010040000000000000000000000000000000000000   000000000000000000000000034        170192477882     
0010001300308U 060000000000000000000000000000000000000000000000000000000000000000000115892590000000115892590000000000000000000000000000003011202301122023            000000000000000                              000                           
0010001300309T 0601897X0000000092096 24778822230003722   700000000000372222122023000000011589259001009296000003722                0900000000000010040000000000000000000000000000000000000   000000000000000000000000034        170192477882     
0010001300310U 060000000000000000000000000000000000000000000000000000000000000000000115892590000000115892590000000000000000000000000000003011202301122023            000000000000000                              000                           
0010001300311T 0601897X0000000092096 24778822230003727   700000000000372730112023000000000719110341002790000003727                0900000000000010100000000000000000000000000000000000000   000000000000000000000000004        170192477882     
0010001300312U 060000000000000000000000000000000000000000000000000000000000000000000007191100000000007191100000000000000000000000000000003011202301122023            000000000000000                              000                           
0010001300313T 0601897X0000000092096 24778822230003733   700000000000373330112023000000000146171487000010000003733                0900000000000010100000000000000000000000000000000000000   000000000000000000000000004        170192477882     
0010001300314U 060000000000000000000000000000000000000000000000000000000000000000000001461710000000001461710000000000000000000000000000003011202301122023            000000000000000                              000                           
0010001300315T 0601897X0000000092096 24778822230003739   700000000000373930112023000000000120034341000500000003739                0900000000000010100000000000000000000000000000000000000   000000000000000000000000004        170192477882     
0010001300316U 060000000000000000000000000000000000000000000000000000000000000000000001200340000000001200340000000000000000000000000000003011202301122023            000000000000000                              000                           
0010001300317T 0601897X0000000092096 24778822230003745   700000000000374530112023000000000416741341080310000003745                0900000000000010100000000000000000000000000000000000000   000000000000000000000000004        170192477882     
0010001300318U 060000000000000000000000000000000000000000000000000000000000000000000004167410000000004167410000000000000000000000000000003011202301122023            000000000000000                              000                           
0010001300319T 0601897X0000000092096 24778822230003751   700000000000375130112023000000000174378001033227000003751                0900000000000010040000000000000000000000000000000000000   000000000000000000000000034        170192477882     
0010001300320U 060000000000000000000000000000000000000000000000000000000000000000000001743780000000001743780000000000000000000000000000003011202301122023            000000000000000                              000                           
0010001300321T 0601897X0000000092096 24778822230003757   700000000000375730112023000000000214782341007310000003757                0900000000000010100000000000000000000000000000000000000   000000000000000000000000004        170192477882     
0010001300322U 060000000000000000000000000000000000000000000000000000000000000000000002147820000000002147820000000000000000000000000000003011202301122023            000000000000000                              000                           
0010001300323T 0601897X0000000092096 24778822230003763   700000000000376330112023000000000172895237033980000003763                0900000000000010100000000000000000000000000000000000000   000000000000000000000000004        170192477882     
0010001300324U 060000000000000000000000000000000000000000000000000000000000000000000001728950000000001728950000000000000000000000000000003011202301122023            000000000000000                              000                           
0010001300325T 0601897X0000000092096 24778822230003781   700000000000378130112023000000000155715033021620000003781                0900000000000010100000000000000000000000000000000000000   000000000000000000000000004        170192477882     
0010001300326U 060000000000000000000000000000000000000000000000000000000000000000000001557150000000001557150000000000000000000000000000003011202301122023            000000000000000                              000                           
0010001300327T 0601897X0000000092096 24778822230003787   700000000000378730112023000000000231151237025340000003787                0900000000000010100000000000000000000000000000000000000   000000000000000000000000004        170192477882     
0010001300328U 060000000000000000000000000000000000000000000000000000000000000000000002311510000000002311510000000000000000000000000000003011202301122023            000000000000000                              000                           
0010001300329T 0601897X0000000092096 24778822230003793   700000000000379330112023000000000206093341007960000003793                0900000000000010100000000000000000000000000000000000000   000000000000000000000000004        170192477882     
0010001300330U 060000000000000000000000000000000000000000000000000000000000000000000002060930000000002060930000000000000000000000000000003011202301122023            000000000000000                              000                           
0010001300331T 0601897X0000000092096 24778822230003799   700000000000379930112023000000000155600001030708000003799                0900000000000010090000000000000000000000000000000000000   000000000000000000000000006        170192477882     
0010001300332U 060000000000000000000000000000000000000000000000000000000000000000000001556000000000001556000000000000000000000000000000003011202301122023            000000000000000                              000                           
0010001300333T 0601897X0000000092096 24778822230003805   700000000000380530112023000000000093442341086800000003805                0900000000000010100000000000000000000000000000000000000   000000000000000000000000004        170192477882     
0010001300334U 060000000000000000000000000000000000000000000000000000000000000000000000934420000000000934420000000000000000000000000000003011202301122023            000000000000000                              000                           
0010001300335T 0601897X0000000092096 24778822230003817   700000000000381730112023000000000141927341009250000003817                0900000000000010100000000000000000000000000000000000000   000000000000000000000000004        170192477882     
0010001300336U 060000000000000000000000000000000000000000000000000000000000000000000001419270000000001419270000000000000000000000000000003011202301122023            000000000000000                              000                           
0010001300337T 0601897X0000000092096 24778822230003823   700000000000382330112023000000005707369104019370000003823                0900000000000010100000000000000000000000000000000000000   000000000000000000000000004        170192477882     
0010001300338U 060000000000000000000000000000000000000000000000000000000000000000000057073690000000057073690000000000000000000000000000003011202301122023            000000000000000                              000                           
0010001300339T 0601897X0000000092096 24778822230003829   700000000000382930112023000000001113749033020170000003829                0900000000000010100000000000000000000000000000000000000   000000000000000000000000004        170192477882     
0010001300340U 060000000000000000000000000000000000000000000000000000000000000000000011137490000000011137490000000000000000000000000000003011202301122023            000000000000000                              000                           
0010001300341T 0601897X0000000092096 24778822230003865   700000000000386530112023000000000047484341000090000003865                0900000000000010100000000000000000000000000000000000000   000000000000000000000000004        170192477882     
0010001300342U 060000000000000000000000000000000000000000000000000000000000000000000000474840000000000474840000000000000000000000000000003011202301122023            000000000000000                              000                           
0010001300343T 0601897X0000000092096 24778822230003871   700000000000387130112023000000000102661001031496000003871                0900000000000010090000000000000000000000000000000000000   000000000000000000000000006        170192477882     
0010001300344U 060000000000000000000000000000000000000000000000000000000000000000000001026610000000001026610000000000000000000000000000003011202301122023            000000000000000                              000                           
0010001300345T 0601897X0000000092096 24778822230003883   700000000000388330112023000000001745542033002850000003883                0900000000000010100000000000000000000000000000000000000   000000000000000000000000004        170192477882     
0010001300346U 060000000000000000000000000000000000000000000000000000000000000000000017455420000000017455420000000000000000000000000000003011202301122023            000000000000000                              000                           
0010001300347T 0601897X0000000092096 24778822230003901   700000000000390130112023000000002120758001045659000003901                0900000000000010040000000000000000000000000000000000000   000000000000000000000000034        170192477882     
0010001300348U 060000000000000000000000000000000000000000000000000000000000000000000021207580000000021207580000000000000000000000000000003011202301122023            000000000000000                              000                           
0010001300349T 0601897X0000000092096 24778822230003907   700000000000390730112023000000000099541748053610000003907                0900000000000010100000000000000000000000000000000000000   000000000000000000000000004        170192477882     
0010001300350U 060000000000000000000000000000000000000000000000000000000000000000000000995410000000000995410000000000000000000000000000003011202301122023            000000000000000                              000                           
0010001300351T 0601897X0000000092096 24778822230003913   700000000000391330112023000000000388208341005600000003913                0900000000000010100000000000000000000000000000000000000   000000000000000000000000004        170192477882     
0010001300352U 060000000000000000000000000000000000000000000000000000000000000000000003882080000000003882080000000000000000000000000000003011202301122023            000000000000000                              000                           
0010001300353T 0601897X0000000092096 24778822230003931   700000000000393130112023000000000568731001022004000003931                0900000000000010040000000000000000000000000000000000000   000000000000000000000000034        170192477882     
0010001300354U 060000000000000000000000000000000000000000000000000000000000000000000005687310000000005687310000000000000000000000000000003011202301122023            000000000000000                              000                           
0010001300355T 0601897X0000000092096 24778822230003937   700000000000393730112023000000000022608341000500000003937                0900000000000010100000000000000000000000000000000000000   000000000000000000000000004        170192477882     
0010001300356U 060000000000000000000000000000000000000000000000000000000000000000000000226080000000000226080000000000000000000000000000003011202301122023            000000000000000                              000                           
0010001300357T 0601897X0000000092096 24778822230003943   700000000000394330112023000000004473533341002320000003943                0900000000000010100000000000000000000000000000000000000   000000000000000000000000004        170192477882     
0010001300358U 060000000000000000000000000000000000000000000000000000000000000000000044735330000000044735330000000000000000000000000000003011202301122023            000000000000000                              000                           
0010001300359T 0601897X0000000092096 24778822230003949   700000000000394930112023000000000037818341002100000003949                0900000000000010100000000000000000000000000000000000000   000000000000000000000000004        170192477882     
0010001300360U 060000000000000000000000000000000000000000000000000000000000000000000000378180000000000378180000000000000000000000000000003011202301122023            000000000000000                              000                           
0010001300361T 0601897X0000000092096 24778822230003973   700000000000397330112023000000000021081033003030000003973                0900000000000010100000000000000000000000000000000000000   000000000000000000000000004        170192477882     
0010001300362U 060000000000000000000000000000000000000000000000000000000000000000000000210810000000000210810000000000000000000000000000003011202301122023            000000000000000                              000                           
0010001300363T 0601897X0000000092096 24778822230003979   700000000000397930112023000000004465043104030800000003979                0900000000000010100000000000000000000000000000000000000   000000000000000000000000004        170192477882     
0010001300364U 060000000000000000000000000000000000000000000000000000000000000000000044650430000000044650430000000000000000000000000000003011202301122023            000000000000000                              000                           
0010001300365T 0601897X0000000092096 24778822230003991   700000000000399130112023000000000091464237019700000003991                0900000000000010100000000000000000000000000000000000000   000000000000000000000000004        170192477882     
0010001300366U 060000000000000000000000000000000000000000000000000000000000000000000000914640000000000914640000000000000000000000000000003011202301122023            000000000000000                              000                           
0010001300367T 0601897X0000000092096 24778822230003997   700000000000399730112023000000000039090237029350000003997                0900000000000010100000000000000000000000000000000000000   000000000000000000000000004        170192477882     
0010001300368U 060000000000000000000000000000000000000000000000000000000000000000000000390900000000000390900000000000000000000000000000003011202301122023            000000000000000                              000                           
0010001300369T 0601897X0000000092096 24778822230004021   700000000000402130112023000000000297762001030708000004021                0900000000000010090000000000000000000000000000000000000   000000000000000000000000006        170192477882     
0010001300370U 060000000000000000000000000000000000000000000000000000000000000000000002977620000000002977620000000000000000000000000000003011202301122023            000000000000000                              000                           
0010001300371T 0601897X0000000092096 24778822230004027   700000000000402730112023000000000105978001030708000004027                0900000000000010090000000000000000000000000000000000000   000000000000000000000000006        170192477882     
0010001300372U 060000000000000000000000000000000000000000000000000000000000000000000001059780000000001059780000000000000000000000000000003011202301122023            000000000000000                              000                           
0010001300373T 0601897X0000000092096 24778822230004033   700000000000403330112023000000000213908001030708000004033                0900000000000010090000000000000000000000000000000000000   000000000000000000000000006        170192477882     
0010001300374U 060000000000000000000000000000000000000000000000000000000000000000000002139080000000002139080000000000000000000000000000003011202301122023            000000000000000                              000                           
0010001300375T 0601897X0000000092096 24778822230004039   700000000000403930112023000000000119956341004450000004039                0900000000000010100000000000000000000000000000000000000   000000000000000000000000004        170192477882     
0010001300376U 060000000000000000000000000000000000000000000000000000000000000000000001199560000000001199560000000000000000000000000000003011202301122023            000000000000000                              000                           
0010001300377T 0601897X0000000092096 24778822230004045   700000000000404530112023000000001549582033002850000004045                0900000000000010100000000000000000000000000000000000000   000000000000000000000000004        170192477882     
0010001300378U 060000000000000000000000000000000000000000000000000000000000000000000015495820000000015495820000000000000000000000000000003011202301122023            000000000000000                              000                           
0010001300379T 0601897X0000000092096 24778822230004051   700000000000405130112023000000000029803341002790000004051                0900000000000010100000000000000000000000000000000000000   000000000000000000000000004        170192477882     
0010001300380U 060000000000000000000000000000000000000000000000000000000000000000000000298030000000000298030000000000000000000000000000003011202301122023            000000000000000                              000                           
0010001300381T 0601897X0000000092096 24778822230004063   700000000000406330112023000000000576568341000140000004063                0900000000000010100000000000000000000000000000000000000   000000000000000000000000004        170192477882     
0010001300382U 060000000000000000000000000000000000000000000000000000000000000000000005765680000000005765680000000000000000000000000000003011202301122023            000000000000000                              000                           
0010001300383T 0601897X0000000092096 24778822230004075   700000000000407530112023000000000092217001030708000004075                0900000000000010090000000000000000000000000000000000000   000000000000000000000000006        170192477882     
0010001300384U 060000000000000000000000000000000000000000000000000000000000000000000000922170000000000922170000000000000000000000000000003011202301122023            000000000000000                              000                           
0010001300385T 0601897X0000000092096 24778822230004087   700000000000408730112023000000000278129001030708000004087                0900000000000010090000000000000000000000000000000000000   000000000000000000000000006        170192477882     
0010001300386U 060000000000000000000000000000000000000000000000000000000000000000000002781290000000002781290000000000000000000000000000003011202301122023            000000000000000                              000                           
0010001300387T 0601897X0000000092096 24778822230004093   700000000000409330112023000000000184621341000280000004093                0900000000000010100000000000000000000000000000000000000   000000000000000000000000004        170192477882     
0010001300388U 060000000000000000000000000000000000000000000000000000000000000000000001846210000000001846210000000000000000000000000000003011202301122023            000000000000000                              000                           
0010001300389T 0601897X0000000092096 24778822230004099   700000000000409930112023000000001927788001030708000004099                0900000000000010090000000000000000000000000000000000000   000000000000000000000000006        170192477882     
0010001300390U 060000000000000000000000000000000000000000000000000000000000000000000019277880000000019277880000000000000000000000000000003011202301122023            000000000000000                              000                           
0010001300391T 0601897X0000000092096 24778822230004105   700000000000410530112023000000000931878001030708000004105                0900000000000010090000000000000000000000000000000000000   000000000000000000000000006        170192477882     
0010001300392U 060000000000000000000000000000000000000000000000000000000000000000000009318780000000009318780000000000000000000000000000003011202301122023            000000000000000                              000                           
0010001300393T 0601897X0000000092096 24778822230004111   700000000000411130112023000000000509040001030708000004111                0900000000000010090000000000000000000000000000000000000   000000000000000000000000006        170192477882     
0010001300394U 060000000000000000000000000000000000000000000000000000000000000000000005090400000000005090400000000000000000000000000000003011202301122023            000000000000000                              000                           
0010001300395T 0601897X0000000092096 24778822230004117   700000000000411730112023000000000381866001030708000004117                0900000000000010090000000000000000000000000000000000000   000000000000000000000000006        170192477882     
0010001300396U 060000000000000000000000000000000000000000000000000000000000000000000003818660000000003818660000000000000000000000000000003011202301122023            000000000000000                              000                           
0010001300397T 0601897X0000000092096 24778822230004123   700000000000412330112023000000000071079001030708000004123                0900000000000010090000000000000000000000000000000000000   000000000000000000000000006        170192477882     
0010001300398U 060000000000000000000000000000000000000000000000000000000000000000000000710790000000000710790000000000000000000000000000003011202301122023            000000000000000                              000                           
0010001300399T 0601897X0000000092096 24778822230004129   700000000000412930112023000000003234945001030708000004129                0900000000000010090000000000000000000000000000000000000   000000000000000000000000006        170192477882     
0010001300400U 060000000000000000000000000000000000000000000000000000000000000000000032349450000000032349450000000000000000000000000000003011202301122023            000000000000000                              000                           
0010001300401T 0601897X0000000092096 24778822230004135   700000000000413530112023000000000153825001030708000004135                0900000000000010090000000000000000000000000000000000000   000000000000000000000000006        170192477882     
0010001300402U 060000000000000000000000000000000000000000000000000000000000000000000001538250000000001538250000000000000000000000000000003011202301122023            000000000000000                              000                           
0010001300403T 0601897X0000000092096 24778822230004141   700000000000414130112023000000000955293001030708000004141                0900000000000010090000000000000000000000000000000000000   000000000000000000000000006        170192477882     
0010001300404U 060000000000000000000000000000000000000000000000000000000000000000000009552930000000009552930000000000000000000000000000003011202301122023            000000000000000                              000                           
0010001300405T 0601897X0000000092096 24778822230004147   700000000000414730112023000000000515311001030708000004147                0900000000000010090000000000000000000000000000000000000   000000000000000000000000006        170192477882     
0010001300406U 060000000000000000000000000000000000000000000000000000000000000000000005153110000000005153110000000000000000000000000000003011202301122023            000000000000000                              000                           
0010001300407T 0601897X0000000092096 24778822230004153   700000000000415330112023000000001249814001030708000004153                0900000000000010090000000000000000000000000000000000000   000000000000000000000000006        170192477882     
0010001300408U 060000000000000000000000000000000000000000000000000000000000000000000012498140000000012498140000000000000000000000000000003011202301122023            000000000000000                              000                           
0010001300409T 0601897X0000000092096 24778822230004159   700000000000415930112023000000000184981001030708000004159                0900000000000010090000000000000000000000000000000000000   000000000000000000000000006        170192477882     
0010001300410U 060000000000000000000000000000000000000000000000000000000000000000000001849810000000001849810000000000000000000000000000003011202301122023            000000000000000                              000                           
0010001300411T 0601897X0000000092096 24778822230004165   700000000000416530112023000000000254788237033710000004165                0900000000000010100000000000000000000000000000000000000   000000000000000000000000004        170192477882     
0010001300412U 060000000000000000000000000000000000000000000000000000000000000000000002547880000000002547880000000000000000000000000000003011202301122023            000000000000000                              000                           
