00100000         2115139610001160024778820014       01897X0000000092096 FUNDACAO AGENCIA DAS BACIAS HIBANCO DO BRASIL                         20611202302261800539503000000829973081PROCESSAMEN                                                 
00100011T0100020 20115139610001160024778820014       01897X0000000092096 FUNDACAO AGENCIA DAS BACIAS HI                                                                                000000000611202300000000  000000000                      
0010001300001T 0201897X0000000092096 24778829000007794   7000007794      30112023000000000102460001007994000007794                0900000000000010500000000000000000000000000000000000000   0000000000000000000000480A9A4      170192477882     
0010001300002U 020000000000000000000000000000000000000000000000000000000000000000000000000000000000000000000000000000000000000000000000000611202300000000            000000000000000                              000                           
0010001300003T 0201897X0000000092096 24778829000007795   7000007795      30112023000000000050504001014753000007795                0900000000000010000000000000000000000000000000000000000   0000000000000000000000480A9        170192477882     
0010001300004U 020000000000000000000000000000000000000000000000000000000000000000000000000000000000000000000000000000000000000000000000000611202300000000            000000000000000                              000                           
0010001300005T 0201897X0000000092096 24778829000007796   7000007796      30112023000000003208723001023248000007796                0900000000000010000000000000000000000000000000000000000   0000000000000000000000480A9        170192477882     
0010001300006U 020000000000000000000000000000000000000000000000000000000000000000000000000000000000000000000000000000000000000000000000000611202300000000            000000000000000                              000                           
0010001300007T 0201897X0000000092096 24778829000007797   7000007797      3011202300000000009980000101849X000007797                0900000000000010500000000000000000000000000000000000000   0000000000000000000000480A9A4      170192477882     
0010001300008U 020000000000000000000000000000000000000000000000000000000000000000000000000000000000000000000000000000000000000000000000000611202300000000            000000000000000                              000                           
0010001300009T 0201897X0000000092096 24778829000007798   7000007798      30112023000000000057995001004154000007798                0900000000000010000000000000000000000000000000000000000   0000000000000000000000480A9        170192477882     
0010001300010U 020000000000000000000000000000000000000000000000000000000000000000000000000000000000000000000000000000000000000000000000000611202300000000            000000000000000                              000                           
0010001300011T 0201897X0000000092096 24778829000007799   7000007799      30112023000000000099198001004561000007799                0900000000000010500000000000000000000000000000000000000   0000000000000000000000480A9A4      170192477882     
0010001300012U 020000000000000000000000000000000000000000000000000000000000000000000000000000000000000000000000000000000000000000000000000611202300000000            000000000000000                              000                           
0010001300013T 0201897X0000000092096 24778829000007800   7000007800      30112023000000000097071001003190000007800                0900000000000010500000000000000000000000000000000000000   0000000000000000000000480A9A4      170192477882     
0010001300014U 020000000000000000000000000000000000000000000000000000000000000000000000000000000000000000000000000000000000000000000000000611202300000000            000000000000000                              000                           
0010001300015T 0201897X0000000092096 24778829000007801   7000007801      30112023000000000078600001022004000007801                0900000000000010500000000000000000000000000000000000000   0000000000000000000000480A9A4      170192477882     
0010001300016U 020000000000000000000000000000000000000000000000000000000000000000000000000000000000000000000000000000000000000000000000000611202300000000            000000000000000                              000                           
0010001300017T 0601897X0000000092096 24778822230002576   700000000000257631102023000000000023948341074460000002576                0900000000000010100000000000000000000000000000000000000   000000000000000000000000004        170192477882     
0010001300018U 060000000000005250000000000000000000000000000000000000000000000000000000244730000000000244730000000000000000000000000000000611202307112023            000000000000000                              000                           
0010001300019T 0601897X0000000092096 24778822230003673   700000000000367330112023000000000597203237007090000003673                0900000000000010100000000000000000000000000000000000000   000000000000000000000000004        170192477882     
0010001300020U 060000000000000000000000000000000000000000000000000000000000000000000005972030000000005972030000000000000000000000000000000611202307112023            000000000000000                              000                           
0010001300021T 0601897X0000000092096 24778822230003846   700000000000384631102023000000004569621001009741000003846                0900000000000010040000000000000000000000000000000000000   000000000000000000000000034        170192477882     
0010001300022U 060000000001005220000000000000000000000000000000000000000000000000000046701430000000046701430000000000000000000000000000000611202307112023            000000000000000                              000                           
0010001300023T 0601897X0000000092096 24778822230006025   700000000000602530112023000000000264265237001510000006025                0900000000000010100000000000000000000000000000000000000   000000000000000000000000004        170192477882     
0010001300024U 060000000000000000000000000000000000000000000000000000000000000000000002642650000000002642650000000000000000000000000000000611202307112023            000000000000000                              000                           
0010001300025T 0601897X0000000092096 24778822230006325   700000000000632530112023000000000048795237013400000006325                0900000000000010100000000000000000000000000000000000000   000000000000000000000000004        170192477882     
0010001300026U 060000000000000000000000000000000000000000000000000000000000000000000000487950000000000487950000000000000000000000000000000611202307112023            000000000000000                              000                           
0010001300027T 0601897X0000000092096 24778822230006553   700000000000655330112023000000000036596237013400000006553                0900000000000010100000000000000000000000000000000000000   000000000000000000000000004        170192477882     
0010001300028U 060000000000000000000000000000000000000000000000000000000000000000000000365960000000000365960000000000000000000000000000000611202307112023            000000000000000                              000                           
0010001300029T 0601897X0000000092096 24778822230007141   700000000000714130112023000000000034156509000010000007141                0900000000000010100000000000000000000000000000000000000   000000000000000000000000004        170192477882     
0010001300030U 060000000000000000000000000000000000000000000000000000000000000000000000341560000000000341560000000000000000000000000000000611202307112023            000000000000000                              000                           
0010001300031T 0601897X0000000092096 24778829000007566   7000007566      31102023000000000024373341000140000007566                0900000000000010100000000000000000000000000000000000000   000000000000000000000000004        170192477882     
0010001300032U 060000000000005350000000000000000000000000000000000000000000000000000000249080000000000249080000000000000000000000000000000611202307112023            000000000000000                              000                           
0010001300033T 0601897X0000000092096 24778829000007792   7000007792      30112023000000000078458260000010000007792                0900000000000010100000000000000000000000000000000000000   000000000000000000000000004        170192477882     
0010001300034U 060000000000000000000000000000000000000000000000000000000000000000000000784580000000000784580000000000000000000000000000000611202307112023            000000000000000                              000                           
0010001300035T 0901897X0000000092096 24778822230001504   70000000000015042909202300000000002104800101849X000001504                0900000000000000000000000000000000000000000000000000000   000000000000000000000036009        170192477882     
0010001300036U 090000000000000000000000000000000000000000000000000000000000000000000000000000000000000000000000000000000000000000000000000611202300000000            000000000000000                              000                           
0010001300037T 0901897X0000000092096 24778822230001519   70000000000015192909202300000000002127400101849X000001519                0900000000000000000000000000000000000000000000000000000   000000000000000000000036009        170192477882     
0010001300038U 090000000000000000000000000000000000000000000000000000000000000000000000000000000000000000000000000000000000000000000000000611202300000000            000000000000000                              000                           
0010001300039T 0901897X0000000092096 24778822230001525   700000000000152529092023000000000025104001000566000001525                0900000000000000000000000000000000000000000000000000000   000000000000000000000036009        170192477882     
0010001300040U 090000000000000000000000000000000000000000000000000000000000000000000000000000000000000000000000000000000000000000000000000611202300000000            000000000000000                              000                           
0010001300041T 0901897X0000000092096 24778822230001531   700000000000153129092023000000000020088001009296000001531                0900000000000000000000000000000000000000000000000000000   000000000000000000000036009        170192477882     
0010001300042U 090000000000000000000000000000000000000000000000000000000000000000000000000000000000000000000000000000000000000000000000000611202300000000            000000000000000                              000                           
0010001300043T 0901897X0000000092096 24778822230001588   700000000000158829092023000000000020141001009903000001588                0900000000000000000000000000000000000000000000000000000   000000000000000000000036009        170192477882     
0010001300044U 090000000000000000000000000000000000000000000000000000000000000000000000000000000000000000000000000000000000000000000000000611202300000000            000000000000000                              000                           
0010001300045T 0901897X0000000092096 24778822230001603   700000000000160329092023000000000024885001007994000001603                0900000000000000000000000000000000000000000000000000000   000000000000000000000036009        170192477882     
0010001300046U 090000000000000000000000000000000000000000000000000000000000000000000000000000000000000000000000000000000000000000000000000611202300000000            000000000000000                              000                           
0010001300047T 0901897X0000000092096 24778822230001609   700000000000160929092023000000000022638001014753000001609                0900000000000000000000000000000000000000000000000000000   000000000000000000000036009        170192477882     
0010001300048U 090000000000000000000000000000000000000000000000000000000000000000000000000000000000000000000000000000000000000000000000000611202300000000            000000000000000                              000                           
0010001300049T 0901897X0000000092096 24778822230001618   700000000000161829092023000000000023377001001724000001618                0900000000000000000000000000000000000000000000000000000   000000000000000000000036009        170192477882     
0010001300050U 090000000000000000000000000000000000000000000000000000000000000000000000000000000000000000000000000000000000000000000000000611202300000000            000000000000000                              000                           
0010001300051T 0901897X0000000092096 24778822230001636   700000000000163629092023000000000021270001008117000001636                0900000000000000000000000000000000000000000000000000000   000000000000000000000036009        170192477882     
0010001300052U 090000000000000000000000000000000000000000000000000000000000000000000000000000000000000000000000000000000000000000000000000611202300000000            000000000000000                              000                           
0010001300053T 0901897X0000000092096 24778822230001642   700000000000164229092023000000000021470001009946000001642                0900000000000000000000000000000000000000000000000000000   000000000000000000000036009        170192477882     
0010001300054U 090000000000000000000000000000000000000000000000000000000000000000000000000000000000000000000000000000000000000000000000000611202300000000            000000000000000                              000                           
0010001300055T 0901897X0000000092096 24778822230001660   700000000000166029092023000000000020493001004154000001660                0900000000000000000000000000000000000000000000000000000   000000000000000000000036009        170192477882     
0010001300056U 090000000000000000000000000000000000000000000000000000000000000000000000000000000000000000000000000000000000000000000000000611202300000000            000000000000000                              000                           
0010001300057T 0901897X0000000092096 24778822230001675   700000000000167529092023000000000021958001009903000001675                0900000000000000000000000000000000000000000000000000000   000000000000000000000036009        170192477882     
0010001300058U 090000000000000000000000000000000000000000000000000000000000000000000000000000000000000000000000000000000000000000000000000611202300000000            000000000000000                              000                           
0010001300059T 0901897X0000000092096 24778822230001705   700000000000170529092023000000000021923001009903000001705                0900000000000000000000000000000000000000000000000000000   000000000000000000000036009        170192477882     
0010001300060U 090000000000000000000000000000000000000000000000000000000000000000000000000000000000000000000000000000000000000000000000000611202300000000            000000000000000                              000                           
0010001300061T 0901897X0000000092096 24778822230001723   700000000000172329092023000000000021171001004154000001723                0900000000000000000000000000000000000000000000000000000   000000000000000000000036009        170192477882     
0010001300062U 090000000000000000000000000000000000000000000000000000000000000000000000000000000000000000000000000000000000000000000000000611202300000000            000000000000000                              000                           
0010001300063T 0901897X0000000092096 24778822230001726   700000000000172629092023000000000022660001009903000001726                0900000000000000000000000000000000000000000000000000000   000000000000000000000036009        170192477882     
0010001300064U 090000000000000000000000000000000000000000000000000000000000000000000000000000000000000000000000000000000000000000000000000611202300000000            000000000000000                              000                           
0010001300065T 0901897X0000000092096 24778822230001729   700000000000172929092023000000000025498001001724000001729                0900000000000000000000000000000000000000000000000000000   000000000000000000000036009        170192477882     
0010001300066U 090000000000000000000000000000000000000000000000000000000000000000000000000000000000000000000000000000000000000000000000000611202300000000            000000000000000                              000                           
0010001300067T 0901897X0000000092096 24778822230001735   700000000000173529092023000000000024705001009296000001735                0900000000000000000000000000000000000000000000000000000   000000000000000000000036009        170192477882     
0010001300068U 090000000000000000000000000000000000000000000000000000000000000000000000000000000000000000000000000000000000000000000000000611202300000000            000000000000000                              000                           
0010001300069T 0901897X0000000092096 24778822230001744   700000000000174429092023000000000023999001026565000001744                0900000000000000000000000000000000000000000000000000000   000000000000000000000036009        170192477882     
0010001300070U 090000000000000000000000000000000000000000000000000000000000000000000000000000000000000000000000000000000000000000000000000611202300000000            000000000000000                              000                           
0010001300071T 0901897X0000000092096 24778822230001771   70000000000017712909202300000000002002000101849X000001771                0900000000000000000000000000000000000000000000000000000   000000000000000000000036009        170192477882     
0010001300072U 090000000000000000000000000000000000000000000000000000000000000000000000000000000000000000000000000000000000000000000000000611202300000000            000000000000000                              000                           
0010001300073T 0901897X0000000092096 24778822230001780   70000000000017802909202300000000002587900101849X000001780                0900000000000000000000000000000000000000000000000000000   000000000000000000000036009        170192477882     
0010001300074U 090000000000000000000000000000000000000000000000000000000000000000000000000000000000000000000000000000000000000000000000000611202300000000            000000000000000                              000                           
0010001300075T 0901897X0000000092096 24778822230001783   700000000000178329092023000000000024397001069833000001783                0900000000000000000000000000000000000000000000000000000   000000000000000000000036009        170192477882     
0010001300076U 090000000000000000000000000000000000000000000000000000000000000000000000000000000000000000000000000000000000000000000000000611202300000000            000000000000000                              000                           
0010001300077T 0901897X0000000092096 24778822230001804   700000000000180429092023000000000024592001008117000001804                0900000000000000000000000000000000000000000000000000000   000000000000000000000036009        170192477882     
0010001300078U 090000000000000000000000000000000000000000000000000000000000000000000000000000000000000000000000000000000000000000000000000611202300000000            000000000000000                              000                           
0010001300079T 0901897X0000000092096 24778822230001807   700000000000180729092023000000000020640001003190000001807                0900000000000000000000000000000000000000000000000000000   000000000000000000000036009        170192477882     
0010001300080U 090000000000000000000000000000000000000000000000000000000000000000000000000000000000000000000000000000000000000000000000000611202300000000            000000000000000                              000                           
0010001300081T 0901897X0000000092096 24778822230001816   700000000000181629092023000000000025688001001724000001816                0900000000000000000000000000000000000000000000000000000   000000000000000000000036009        170192477882     
0010001300082U 090000000000000000000000000000000000000000000000000000000000000000000000000000000000000000000000000000000000000000000000000611202300000000            000000000000000                              000                           
0010001300083T 0901897X0000000092096 24778822230001819   700000000000181929092023000000000021321001006998000001819                0900000000000000000000000000000000000000000000000000000   000000000000000000000036009        170192477882     
0010001300084U 090000000000000000000000000000000000000000000000000000000000000000000000000000000000000000000000000000000000000000000000000611202300000000            000000000000000                              000                           
0010001300085T 0901897X0000000092096 24778822230001825   700000000000182529092023000000000025373001003409000001825                0900000000000000000000000000000000000000000000000000000   000000000000000000000036009        170192477882     
0010001300086U 090000000000000000000000000000000000000000000000000000000000000000000000000000000000000000000000000000000000000000000000000611202300000000            000000000000000                              000                           
0010001300087T 0901897X0000000092096 24778822230001843   700000000000184329092023000000000022024001000310000001843                0900000000000000000000000000000000000000000000000000000   000000000000000000000036009        170192477882     
0010001300088U 090000000000000000000000000000000000000000000000000000000000000000000000000000000000000000000000000000000000000000000000000611202300000000            000000000000000                              000                           
0010001300089T 0901897X0000000092096 24778822230001873   700000000000187329092023000000000024397001022586000001873                0900000000000000000000000000000000000000000000000000000   000000000000000000000036009        170192477882     
0010001300090U 090000000000000000000000000000000000000000000000000000000000000000000000000000000000000000000000000000000000000000000000000611202300000000            000000000000000                              000                           
0010001300091T 0901897X0000000092096 24778822230001897   700000000000189729092023000000000024397001003190000001897                0900000000000000000000000000000000000000000000000000000   000000000000000000000036009        170192477882     
0010001300092U 090000000000000000000000000000000000000000000000000000000000000000000000000000000000000000000000000000000000000000000000000611202300000000            000000000000000                              000                           
0010001300093T 0901897X0000000092096 24778822230001900   700000000000190029092023000000000024397001004561000001900                0900000000000000000000000000000000000000000000000000000   000000000000000000000036009        170192477882     
0010001300094U 090000000000000000000000000000000000000000000000000000000000000000000000000000000000000000000000000000000000000000000000000611202300000000            000000000000000                              000                           
0010001300095T 0901897X0000000092096 24778822230001909   700000000000190929092023000000000026598001000566000001909                0900000000000000000000000000000000000000000000000000000   000000000000000000000036009        170192477882     
0010001300096U 090000000000000000000000000000000000000000000000000000000000000000000000000000000000000000000000000000000000000000000000000611202300000000            000000000000000                              000                           
0010001300097T 0901897X0000000092096 24778822230001915   700000000000191529092023000000000026598001000566000001915                0900000000000000000000000000000000000000000000000000000   000000000000000000000036009        170192477882     
0010001300098U 090000000000000000000000000000000000000000000000000000000000000000000000000000000000000000000000000000000000000000000000000611202300000000            000000000000000                              000                           
0010001300099T 0901897X0000000092096 24778822230001939   70000000000019392909202300000000002447100101849X000001939                0900000000000000000000000000000000000000000000000000000   000000000000000000000036009        170192477882     
0010001300100U 090000000000000000000000000000000000000000000000000000000000000000000000000000000000000000000000000000000000000000000000000611202300000000            000000000000000                              000                           
0010001300101T 0901897X0000000092096 24778822230001951   700000000000195129092023000000000021926001069833000001951                0900000000000000000000000000000000000000000000000000000   000000000000000000000036009        170192477882     
0010001300102U 090000000000000000000000000000000000000000000000000000000000000000000000000000000000000000000000000000000000000000000000000611202300000000            000000000000000                              000                           
0010001300103T 0901897X0000000092096 24778822230001960   70000000000019602909202300000000002590500101849X000001960                0900000000000000000000000000000000000000000000000000000   000000000000000000000036009        170192477882     
0010001300104U 090000000000000000000000000000000000000000000000000000000000000000000000000000000000000000000000000000000000000000000000000611202300000000            000000000000000                              000                           
0010001300105T 0901897X0000000092096 24778822230001972   700000000000197229092023000000000024397001069833000001972                0900000000000000000000000000000000000000000000000000000   000000000000000000000036009        170192477882     
0010001300106U 090000000000000000000000000000000000000000000000000000000000000000000000000000000000000000000000000000000000000000000000000611202300000000            000000000000000                              000                           
0010001300107T 0901897X0000000092096 24778822230001994   70000000000019942909202300000000002305500101849X000001994                0900000000000000000000000000000000000000000000000000000   000000000000000000000036009        170192477882     
0010001300108U 090000000000000000000000000000000000000000000000000000000000000000000000000000000000000000000000000000000000000000000000000611202300000000            000000000000000                              000                           
0010001300109T 0901897X0000000092096 24778822230002010   700000000000201029092023000000000022287001045888000002010                0900000000000000000000000000000000000000000000000000000   000000000000000000000036009        170192477882     
0010001300110U 090000000000000000000000000000000000000000000000000000000000000000000000000000000000000000000000000000000000000000000000000611202300000000            000000000000000                              000                           
0010001300111T 0901897X0000000092096 24778822230002058   700000000000205829092023000000000020561001001678000002058                0900000000000000000000000000000000000000000000000000000   000000000000000000000036009        170192477882     
0010001300112U 090000000000000000000000000000000000000000000000000000000000000000000000000000000000000000000000000000000000000000000000000611202300000000            000000000000000                              000                           
0010001300113T 0901897X0000000092096 24778822230002062   700000000000206229092023000000000021958001003409000002062                0900000000000000000000000000000000000000000000000000000   000000000000000000000036009        170192477882     
0010001300114U 090000000000000000000000000000000000000000000000000000000000000000000000000000000000000000000000000000000000000000000000000611202300000000            000000000000000                              000                           
0010001300115T 0901897X0000000092096 24778822230002070   700000000000207029092023000000000021958001014753000002070                0900000000000000000000000000000000000000000000000000000   000000000000000000000036009        170192477882     
0010001300116U 090000000000000000000000000000000000000000000000000000000000000000000000000000000000000000000000000000000000000000000000000611202300000000            000000000000000                              000                           
0010001300117T 0901897X0000000092096 24778822230002094   70000000000020942909202300000000002308800101513X000002094                0900000000000000000000000000000000000000000000000000000   000000000000000000000036009        170192477882     
0010001300118U 090000000000000000000000000000000000000000000000000000000000000000000000000000000000000000000000000000000000000000000000000611202300000000            000000000000000                              000                           
0010001300119T 0901897X0000000092096 24778822230002102   700000000000210229092023000000000021958001021717000002102                0900000000000000000000000000000000000000000000000000000   000000000000000000000036009        170192477882     
0010001300120U 090000000000000000000000000000000000000000000000000000000000000000000000000000000000000000000000000000000000000000000000000611202300000000            000000000000000                              000                           
0010001300121T 0901897X0000000092096 24778822230002146   700000000000214629092023000000000023055001003409000002146                0900000000000000000000000000000000000000000000000000000   000000000000000000000036009        170192477882     
0010001300122U 090000000000000000000000000000000000000000000000000000000000000000000000000000000000000000000000000000000000000000000000000611202300000000            000000000000000                              000                           
0010001300123T 0901897X0000000092096 24778822230002162   700000000000216229092023000000000021440001004154000002162                0900000000000000000000000000000000000000000000000000000   000000000000000000000036009        170192477882     
0010001300124U 090000000000000000000000000000000000000000000000000000000000000000000000000000000000000000000000000000000000000000000000000611202300000000            000000000000000                              000                           
0010001300125T 0901897X0000000092096 24778822230002198   700000000000219829092023000000000022660001001724000002198                0900000000000000000000000000000000000000000000000000000   000000000000000000000036009        170192477882     
0010001300126U 090000000000000000000000000000000000000000000000000000000000000000000000000000000000000000000000000000000000000000000000000611202300000000            000000000000000                              000                           
0010001300127T 0901897X0000000092096 24778822230002206   700000000000220629092023000000000022560001001724000002206                0900000000000000000000000000000000000000000000000000000   000000000000000000000036009        170192477882     
0010001300128U 090000000000000000000000000000000000000000000000000000000000000000000000000000000000000000000000000000000000000000000000000611202300000000            000000000000000                              000                           
0010001300129T 0901897X0000000092096 24778822230002222   700000000000222229092023000000000024998001006998000002222                0900000000000000000000000000000000000000000000000000000   000000000000000000000036009        170192477882     
0010001300130U 090000000000000000000000000000000000000000000000000000000000000000000000000000000000000000000000000000000000000000000000000611202300000000            000000000000000                              000                           
0010001300131T 0901897X0000000092096 24778822230002230   700000000000223029092023000000000024885001014753000002230                0900000000000000000000000000000000000000000000000000000   000000000000000000000036009        170192477882     
0010001300132U 090000000000000000000000000000000000000000000000000000000000000000000000000000000000000000000000000000000000000000000000000611202300000000            000000000000000                              000                           
0010001300133T 0901897X0000000092096 24778822230002250   700000000000225029092023000000000021539001003409000002250                0900000000000000000000000000000000000000000000000000000   000000000000000000000036009        170192477882     
0010001300134U 090000000000000000000000000000000000000000000000000000000000000000000000000000000000000000000000000000000000000000000000000611202300000000            000000000000000                              000                           
0010001300135T 0901897X0000000092096 24778822230002262   700000000000226229092023000000000021359001003190000002262                0900000000000000000000000000000000000000000000000000000   000000000000000000000036009        170192477882     
0010001300136U 090000000000000000000000000000000000000000000000000000000000000000000000000000000000000000000000000000000000000000000000000611202300000000            000000000000000                              000                           
0010001300137T 0901897X0000000092096 24778822230002278   700000000000227829092023000000000022951001003409000002278                0900000000000000000000000000000000000000000000000000000   000000000000000000000036009        170192477882     
0010001300138U 090000000000000000000000000000000000000000000000000000000000000000000000000000000000000000000000000000000000000000000000000611202300000000            000000000000000                              000                           
0010001300139T 0901897X0000000092096 24778822230002310   700000000000231029092023000000000021958001045888000002310                0900000000000000000000000000000000000000000000000000000   000000000000000000000036009        170192477882     
0010001300140U 090000000000000000000000000000000000000000000000000000000000000000000000000000000000000000000000000000000000000000000000000611202300000000            000000000000000                              000                           
0010001300141T 0901897X0000000092096 24778822230002314   700000000000231429092023000000000022523001009946000002314                0900000000000000000000000000000000000000000000000000000   000000000000000000000036009        170192477882     
0010001300142U 090000000000000000000000000000000000000000000000000000000000000000000000000000000000000000000000000000000000000000000000000611202300000000            000000000000000                              000                           
0010001300143T 0901897X0000000092096 24778822230002338   700000000000233829092023000000000022559001004596000002338                0900000000000000000000000000000000000000000000000000000   000000000000000000000036009        170192477882     
0010001300144U 090000000000000000000000000000000000000000000000000000000000000000000000000000000000000000000000000000000000000000000000000611202300000000            000000000000000                              000                           
0010001300145T 0901897X0000000092096 24778822230002358   700000000000235829092023000000000020494001069833000002358                0900000000000000000000000000000000000000000000000000000   000000000000000000000036009        170192477882     
0010001300146U 090000000000000000000000000000000000000000000000000000000000000000000000000000000000000000000000000000000000000000000000000611202300000000            000000000000000                              000                           
0010001300147T 0901897X0000000092096 24778822230002362   70000000000023622909202300000000002346200101849X000002362                0900000000000000000000000000000000000000000000000000000   000000000000000000000036009        170192477882     
0010001300148U 090000000000000000000000000000000000000000000000000000000000000000000000000000000000000000000000000000000000000000000000000611202300000000            000000000000000                              000                           
0010001300149T 0901897X0000000092096 24778822230002366   700000000000236629092023000000000021958001020125000002366                0900000000000000000000000000000000000000000000000000000   000000000000000000000036009        170192477882     
0010001300150U 090000000000000000000000000000000000000000000000000000000000000000000000000000000000000000000000000000000000000000000000000611202300000000            000000000000000                              000                           
0010001300151T 0901897X0000000092096 24778822230002374   700000000000237429092023000000000022611001001678000002374                0900000000000000000000000000000000000000000000000000000   000000000000000000000036009        170192477882     
0010001300152U 090000000000000000000000000000000000000000000000000000000000000000000000000000000000000000000000000000000000000000000000000611202300000000            000000000000000                              000                           
0010001300153T 0901897X0000000092096 24778822230002378   700000000000237829092023000000000021079001003018000002378                0900000000000000000000000000000000000000000000000000000   000000000000000000000036009        170192477882     
0010001300154U 090000000000000000000000000000000000000000000000000000000000000000000000000000000000000000000000000000000000000000000000000611202300000000            000000000000000                              000                           
0010001300155T 0901897X0000000092096 24778822230002394   700000000000239429092023000000000021958001026565000002394                0900000000000000000000000000000000000000000000000000000   000000000000000000000036009        170192477882     
0010001300156U 090000000000000000000000000000000000000000000000000000000000000000000000000000000000000000000000000000000000000000000000000611202300000000            000000000000000                              000                           
0010001300157T 0901897X0000000092096 24778822230002402   700000000000240229092023000000000020219001024538000002402                0900000000000000000000000000000000000000000000000000000   000000000000000000000036009        170192477882     
0010001300158U 090000000000000000000000000000000000000000000000000000000000000000000000000000000000000000000000000000000000000000000000000611202300000000            000000000000000                              000                           
0010001300159T 0901897X0000000092096 24778822230002410   70000000000024102909202300000000002189700101849X000002410                0900000000000000000000000000000000000000000000000000000   000000000000000000000036009        170192477882     
0010001300160U 090000000000000000000000000000000000000000000000000000000000000000000000000000000000000000000000000000000000000000000000000611202300000000            000000000000000                              000                           
0010001300161T 0901897X0000000092096 24778822230002445   70000000000024452909202300000000002385800101849X000002445                0900000000000000000000000000000000000000000000000000000   000000000000000000000036009        170192477882     
0010001300162U 090000000000000000000000000000000000000000000000000000000000000000000000000000000000000000000000000000000000000000000000000611202300000000            000000000000000                              000                           
0010001300163T 0901897X0000000092096 24778822230002460   700000000000246029092023000000000020494001003018000002460                0900000000000000000000000000000000000000000000000000000   000000000000000000000036009        170192477882     
0010001300164U 090000000000000000000000000000000000000000000000000000000000000000000000000000000000000000000000000000000000000000000000000611202300000000            000000000000000                              000                           
0010001300165T 0901897X0000000092096 24778822230002470   70000000000024702909202300000000002093000101849X000002470                0900000000000000000000000000000000000000000000000000000   000000000000000000000036009        170192477882     
0010001300166U 090000000000000000000000000000000000000000000000000000000000000000000000000000000000000000000000000000000000000000000000000611202300000000            000000000000000                              000                           
0010001300167T 0901897X0000000092096 24778822230002560   700000000000256029092023000000000022717001004561000002560                0900000000000000000000000000000000000000000000000000000   000000000000000000000036009        170192477882     
0010001300168U 090000000000000000000000000000000000000000000000000000000000000000000000000000000000000000000000000000000000000000000000000611202300000000            000000000000000                              000                           
0010001300169T 0901897X0000000092096 24778822230002595   700000000000259529092023000000000021606001004154000002595                0900000000000000000000000000000000000000000000000000000   000000000000000000000036009        170192477882     
0010001300170U 090000000000000000000000000000000000000000000000000000000000000000000000000000000000000000000000000000000000000000000000000611202300000000            000000000000000                              000                           
0010001300171T 0901897X0000000092096 24778822230002605   700000000000260529092023000000000021401001001678000002605                0900000000000000000000000000000000000000000000000000000   000000000000000000000036009        170192477882     
0010001300172U 090000000000000000000000000000000000000000000000000000000000000000000000000000000000000000000000000000000000000000000000000611202300000000            000000000000000                              000                           
0010001300173T 0901897X0000000092096 24778822230002655   70000000000026552909202300000000002180800101849X000002655                0900000000000000000000000000000000000000000000000000000   000000000000000000000036009        170192477882     
0010001300174U 090000000000000000000000000000000000000000000000000000000000000000000000000000000000000000000000000000000000000000000000000611202300000000            000000000000000                              000                           
0010001300175T 0901897X0000000092096 24778822230002705   700000000000270529092023000000000022133001014753000002705                0900000000000000000000000000000000000000000000000000000   000000000000000000000036009        170192477882     
0010001300176U 090000000000000000000000000000000000000000000000000000000000000000000000000000000000000000000000000000000000000000000000000611202300000000            000000000000000                              000                           
0010001300177T 0901897X0000000092096 24778822230002715   70000000000027152909202300000000002342100100037X000002715                0900000000000000000000000000000000000000000000000000000   000000000000000000000036009        170192477882     
0010001300178U 090000000000000000000000000000000000000000000000000000000000000000000000000000000000000000000000000000000000000000000000000611202300000000            000000000000000                              000                           
0010001300179T 0901897X0000000092096 24778822230002720   70000000000027202909202300000000002163300101849X000002720                0900000000000000000000000000000000000000000000000000000   000000000000000000000036009        170192477882     
0010001300180U 090000000000000000000000000000000000000000000000000000000000000000000000000000000000000000000000000000000000000000000000000611202300000000            000000000000000                              000                           
0010001300181T 0901897X0000000092096 24778822230002725   700000000000272529092023000000000022999001003190000002725                0900000000000000000000000000000000000000000000000000000   000000000000000000000036009        170192477882     
0010001300182U 090000000000000000000000000000000000000000000000000000000000000000000000000000000000000000000000000000000000000000000000000611202300000000            000000000000000                              000                           
0010001300183T 0901897X0000000092096 24778822230002735   700000000000273529092023000000000023421001003018000002735                0900000000000000000000000000000000000000000000000000000   000000000000000000000036009        170192477882     
0010001300184U 090000000000000000000000000000000000000000000000000000000000000000000000000000000000000000000000000000000000000000000000000611202300000000            000000000000000                              000                           
0010001300185T 0901897X0000000092096 24778822230002740   700000000000274029092023000000000023895001003409000002740                0900000000000000000000000000000000000000000000000000000   000000000000000000000036009        170192477882     
0010001300186U 090000000000000000000000000000000000000000000000000000000000000000000000000000000000000000000000000000000000000000000000000611202300000000            000000000000000                              000                           
0010001300187T 0901897X0000000092096 24778822230002750   700000000000275029092023000000000020389001001678000002750                0900000000000000000000000000000000000000000000000000000   000000000000000000000036009        170192477882     
0010001300188U 090000000000000000000000000000000000000000000000000000000000000000000000000000000000000000000000000000000000000000000000000611202300000000            000000000000000                              000                           
0010001300189T 0901897X0000000092096 24778822230002755   700000000000275529092023000000000022231001003409000002755                0900000000000000000000000000000000000000000000000000000   000000000000000000000036009        170192477882     
0010001300190U 090000000000000000000000000000000000000000000000000000000000000000000000000000000000000000000000000000000000000000000000000611202300000000            000000000000000                              000                           
0010001300191T 0901897X0000000092096 24778822230002775   700000000000277529092023000000000021079001014753000002775                0900000000000000000000000000000000000000000000000000000   000000000000000000000036009        170192477882     
0010001300192U 090000000000000000000000000000000000000000000000000000000000000000000000000000000000000000000000000000000000000000000000000611202300000000            000000000000000                              000                           
0010001300193T 0901897X0000000092096 24778822230002790   70000000000027902909202300000000002002000101849X000002790                0900000000000000000000000000000000000000000000000000000   000000000000000000000036009        170192477882     
0010001300194U 090000000000000000000000000000000000000000000000000000000000000000000000000000000000000000000000000000000000000000000000000611202300000000            000000000000000                              000                           
0010001300195T 0901897X0000000092096 24778822230002801   700000000000280129092023000000000021643001003409000002801                0900000000000000000000000000000000000000000000000000000   000000000000000000000036009        170192477882     
0010001300196U 090000000000000000000000000000000000000000000000000000000000000000000000000000000000000000000000000000000000000000000000000611202300000000            000000000000000                              000                           
0010001300197T 0901897X0000000092096 24778822230002825   700000000000282529092023000000000040988001009903000002825                0900000000000000000000000000000000000000000000000000000   000000000000000000000036009        170192477882     
0010001300198U 090000000000000000000000000000000000000000000000000000000000000000000000000000000000000000000000000000000000000000000000000611202300000000            000000000000000                              000                           
0010001300199T 0901897X0000000092096 24778822230002855   700000000000285529092023000000000029277001069833000002855                0900000000000000000000000000000000000000000000000000000   000000000000000000000036009        170192477882     
0010001300200U 090000000000000000000000000000000000000000000000000000000000000000000000000000000000000000000000000000000000000000000000000611202300000000            000000000000000                              000                           
0010001300201T 0901897X0000000092096 24778822230002861   70000000000028612909202300000000003295200101849X000002861                0900000000000000000000000000000000000000000000000000000   000000000000000000000036009        170192477882     
0010001300202U 090000000000000000000000000000000000000000000000000000000000000000000000000000000000000000000000000000000000000000000000000611202300000000            000000000000000                              000                           
0010001300203T 0901897X0000000092096 24778822230002867   70000000000028672909202300000000003044300101849X000002867                0900000000000000000000000000000000000000000000000000000   000000000000000000000036009        170192477882     
0010001300204U 090000000000000000000000000000000000000000000000000000000000000000000000000000000000000000000000000000000000000000000000000611202300000000            000000000000000                              000                           
0010001300205T 0901897X0000000092096 24778822230002993   70000000000029932909202300000000004391500100636X000002993                0900000000000000000000000000000000000000000000000000000   000000000000000000000036009        170192477882     
0010001300206U 090000000000000000000000000000000000000000000000000000000000000000000000000000000000000000000000000000000000000000000000000611202300000000            000000000000000                              000                           
0010001300207T 0901897X0000000092096 24778822230003113   700000000000311329092023000000000085749001004561000003113                0900000000000000000000000000000000000000000000000000000   000000000000000000000036009        170192477882     
0010001300208U 090000000000000000000000000000000000000000000000000000000000000000000000000000000000000000000000000000000000000000000000000611202300000000            000000000000000                              000                           
0010001300209T 0901897X0000000092096 24778822230003119   700000000000311929092023000000000063433001004561000003119                0900000000000000000000000000000000000000000000000000000   000000000000000000000036009        170192477882     
0010001300210U 090000000000000000000000000000000000000000000000000000000000000000000000000000000000000000000000000000000000000000000000000611202300000000            000000000000000                              000                           
0010001300211T 0901897X0000000092096 24778822230003125   700000000000312529092023000000000135561001000566000003125                0900000000000000000000000000000000000000000000000000000   000000000000000000000036009        170192477882     
0010001300212U 090000000000000000000000000000000000000000000000000000000000000000000000000000000000000000000000000000000000000000000000000611202300000000            000000000000000                              000                           
0010001300213T 0901897X0000000092096 24778822230003143   700000000000314329092023000000000069332001069833000003143                0900000000000000000000000000000000000000000000000000000   000000000000000000000036009        170192477882     
0010001300214U 090000000000000000000000000000000000000000000000000000000000000000000000000000000000000000000000000000000000000000000000000611202300000000            000000000000000                              000                           
0010001300215T 0901897X0000000092096 24778822230003191   700000000000319129092023000000000020982001041467000003191                0900000000000000000000000000000000000000000000000000000   000000000000000000000036009        170192477882     
0010001300216U 090000000000000000000000000000000000000000000000000000000000000000000000000000000000000000000000000000000000000000000000000611202300000000            000000000000000                              000                           
0010001300217T 0901897X0000000092096 24778822230003221   700000000000322129092023000000000026959001007994000003221                0900000000000000000000000000000000000000000000000000000   000000000000000000000036009        170192477882     
0010001300218U 090000000000000000000000000000000000000000000000000000000000000000000000000000000000000000000000000000000000000000000000000611202300000000            000000000000000                              000                           
0010001300219T 0901897X0000000092096 24778822230003245   700000000000324529092023000000000041711001001724000003245                0900000000000000000000000000000000000000000000000000000   000000000000000000000036009        170192477882     
0010001300220U 090000000000000000000000000000000000000000000000000000000000000000000000000000000000000000000000000000000000000000000000000611202300000000            000000000000000                              000                           
0010001300221T 0901897X0000000092096 24778822230003251   700000000000325129092023000000000023401001003409000003251                0900000000000000000000000000000000000000000000000000000   000000000000000000000036009        170192477882     
0010001300222U 090000000000000000000000000000000000000000000000000000000000000000000000000000000000000000000000000000000000000000000000000611202300000000            000000000000000                              000                           
0010001300223T 0901897X0000000092096 24778822230003275   700000000000327529092023000000000080877001007994000003275                0900000000000000000000000000000000000000000000000000000   000000000000000000000036009        170192477882     
0010001300224U 090000000000000000000000000000000000000000000000000000000000000000000000000000000000000000000000000000000000000000000000000611202300000000            000000000000000                              000                           
0010001300225T 0901897X0000000092096 24778822230003281   70000000000032812909202300000000017102500101849X000003281                0900000000000000000000000000000000000000000000000000000   000000000000000000000036009        170192477882     
0010001300226U 090000000000000000000000000000000000000000000000000000000000000000000000000000000000000000000000000000000000000000000000000611202300000000            000000000000000                              000                           
0010001300227T 0901897X0000000092096 24778822230003323   700000000000332329092023000000000033912001000566000003323                0900000000000000000000000000000000000000000000000000000   000000000000000000000036009        170192477882     
0010001300228U 090000000000000000000000000000000000000000000000000000000000000000000000000000000000000000000000000000000000000000000000000611202300000000            000000000000000                              000                           
0010001300229T 0901897X0000000092096 24778822230003359   70000000000033592909202300000000010828400101513X000003359                0900000000000000000000000000000000000000000000000000000   000000000000000000000036009        170192477882     
0010001300230U 090000000000000000000000000000000000000000000000000000000000000000000000000000000000000000000000000000000000000000000000000611202300000000            000000000000000                              000                           
0010001300231T 0901897X0000000092096 24778822230003401   700000000000340129092023000000000037442001003018000003401                0900000000000000000000000000000000000000000000000000000   000000000000000000000036009        170192477882     
0010001300232U 090000000000000000000000000000000000000000000000000000000000000000000000000000000000000000000000000000000000000000000000000611202300000000            000000000000000                              000                           
0010001300233T 0901897X0000000092096 24778822230003503   700000000000350329092023000000000033792001003190000003503                0900000000000000000000000000000000000000000000000000000   000000000000000000000036009        170192477882     
0010001300234U 090000000000000000000000000000000000000000000000000000000000000000000000000000000000000000000000000000000000000000000000000611202300000000            000000000000000                              000                           
0010001300235T 0901897X0000000092096 24778822230003515   700000000000351529092023000000000024397001004154000003515                0900000000000000000000000000000000000000000000000000000   000000000000000000000036009        170192477882     
0010001300236U 090000000000000000000000000000000000000000000000000000000000000000000000000000000000000000000000000000000000000000000000000611202300000000            000000000000000                              000                           
0010001300237T 0901897X0000000092096 24778822230003557   700000000000355729092023000000000024397001003549000003557                0900000000000000000000000000000000000000000000000000000   000000000000000000000036009        170192477882     
0010001300238U 090000000000000000000000000000000000000000000000000000000000000000000000000000000000000000000000000000000000000000000000000611202300000000            000000000000000                              000                           
0010001300239T 0901897X0000000092096 24778822230003605   700000000000360529092023000000006327993001026565000003605                0900000000000000000000000000000000000000000000000000000   000000000000000000000036009        170192477882     
0010001300240U 090000000000000000000000000000000000000000000000000000000000000000000000000000000000000000000000000000000000000000000000000611202300000000            000000000000000                              000                           
0010001300241T 0901897X0000000092096 24778822230003653   700000000000365329092023000000000036913001007994000003653                0900000000000000000000000000000000000000000000000000000   000000000000000000000036009        170192477882     
0010001300242U 090000000000000000000000000000000000000000000000000000000000000000000000000000000000000000000000000000000000000000000000000611202300000000            000000000000000                              000                           
0010001300243T 0901897X0000000092096 24778822230003689   700000000000368929092023000000000119023001003018000003689                0900000000000000000000000000000000000000000000000000000   000000000000000000000036009        170192477882     
0010001300244U 090000000000000000000000000000000000000000000000000000000000000000000000000000000000000000000000000000000000000000000000000611202300000000            000000000000000                              000                           
0010001300245T 0901897X0000000092096 24778822230003809   700000000000380929092023000000000023769001006998000003809                0900000000000000000000000000000000000000000000000000000   000000000000000000000036009        170192477882     
0010001300246U 090000000000000000000000000000000000000000000000000000000000000000000000000000000000000000000000000000000000000000000000000611202300000000            000000000000000                              000                           
0010001300247T 0901897X0000000092096 24778822230003839   700000000000383929092023000000000060658001066583000003839                0900000000000000000000000000000000000000000000000000000   000000000000000000000036009        170192477882     
0010001300248U 090000000000000000000000000000000000000000000000000000000000000000000000000000000000000000000000000000000000000000000000000611202300000000            000000000000000                              000                           
0010001300249T 0901897X0000000092096 24778822230003851   700000000000385129092023000000000041223001000566000003851                0900000000000000000000000000000000000000000000000000000   000000000000000000000036009        170192477882     
0010001300250U 090000000000000000000000000000000000000000000000000000000000000000000000000000000000000000000000000000000000000000000000000611202300000000            000000000000000                              000                           
0010001300251T 0901897X0000000092096 24778822230003881   700000000000388129092023000000001745542001000566000003881                0900000000000000000000000000000000000000000000000000000   000000000000000000000036009        170192477882     
0010001300252U 090000000000000000000000000000000000000000000000000000000000000000000000000000000000000000000000000000000000000000000000000611202300000000            000000000000000                              000                           
0010001300253T 0901897X0000000092096 24778822230003917   700000000000391729092023000000002939256001041467000003917                0900000000000000000000000000000000000000000000000000000   000000000000000000000036009        170192477882     
0010001300254U 090000000000000000000000000000000000000000000000000000000000000000000000000000000000000000000000000000000000000000000000000611202300000000            000000000000000                              000                           
0010001300255T 0901897X0000000092096 24778822230003947   700000000000394729092023000000000037818001023248000003947                0900000000000000000000000000000000000000000000000000000   000000000000000000000036009        170192477882     
0010001300256U 090000000000000000000000000000000000000000000000000000000000000000000000000000000000000000000000000000000000000000000000000611202300000000            000000000000000                              000                           
0010001300257T 0901897X0000000092096 24778822230003965   700000000000396529092023000000000133697001022004000003965                0900000000000000000000000000000000000000000000000000000   000000000000000000000036009        170192477882     
0010001300258U 090000000000000000000000000000000000000000000000000000000000000000000000000000000000000000000000000000000000000000000000000611202300000000            000000000000000                              000                           
0010001300259T 0901897X0000000092096 24778822230004043   700000000000404329092023000000001549582001023248000004043                0900000000000000000000000000000000000000000000000000000   000000000000000000000036009        170192477882     
0010001300260U 090000000000000000000000000000000000000000000000000000000000000000000000000000000000000000000000000000000000000000000000000611202300000000            000000000000000                              000                           
0010001300261T 0901897X0000000092096 24778822230004229   700000000000422929092023000000000121986001069833000004229                0900000000000000000000000000000000000000000000000000000   000000000000000000000036009        170192477882     
0010001300262U 090000000000000000000000000000000000000000000000000000000000000000000000000000000000000000000000000000000000000000000000000611202300000000            000000000000000                              000                           
0010001300263T 0901897X0000000092096 24778822230004373   70000000000043732909202300000000002925300101513X000004373                0900000000000000000000000000000000000000000000000000000   000000000000000000000036009        170192477882     
0010001300264U 090000000000000000000000000000000000000000000000000000000000000000000000000000000000000000000000000000000000000000000000000611202300000000            000000000000000                              000                           
0010001300265T 0901897X0000000092096 24778822230004397   700000000000439729092023000000000085390001000566000004397                0900000000000000000000000000000000000000000000000000000   000000000000000000000036009        170192477882     
0010001300266U 090000000000000000000000000000000000000000000000000000000000000000000000000000000000000000000000000000000000000000000000000611202300000000            000000000000000                              000                           
0010001300267T 0901897X0000000092096 24778822230004427   700000000000442729092023000000000048575001003409000004427                0900000000000000000000000000000000000000000000000000000   000000000000000000000036009        170192477882     
0010001300268U 090000000000000000000000000000000000000000000000000000000000000000000000000000000000000000000000000000000000000000000000000611202300000000            000000000000000                              000                           
0010001300269T 0901897X0000000092096 24778822230004439   700000000000443929092023000000000028545001009296000004439                0900000000000000000000000000000000000000000000000000000   000000000000000000000036009        170192477882     
0010001300270U 090000000000000000000000000000000000000000000000000000000000000000000000000000000000000000000000000000000000000000000000000611202300000000            000000000000000                              000                           
0010001300271T 0901897X0000000092096 24778822230004505   700000000000450529092023000000000024495001007994000004505                0900000000000000000000000000000000000000000000000000000   000000000000000000000036009        170192477882     
0010001300272U 090000000000000000000000000000000000000000000000000000000000000000000000000000000000000000000000000000000000000000000000000611202300000000            000000000000000                              000                           
0010001300273T 0901897X0000000092096 24778822230004523   700000000000452329092023000000000041963001009946000004523                0900000000000000000000000000000000000000000000000000000   000000000000000000000036009        170192477882     
0010001300274U 090000000000000000000000000000000000000000000000000000000000000000000000000000000000000000000000000000000000000000000000000611202300000000            000000000000000                              000                           
0010001300275T 0901897X0000000092096 24778822230004565   700000000000456529092023000000000044009001006998000004565                0900000000000000000000000000000000000000000000000000000   000000000000000000000036009        170192477882     
0010001300276U 090000000000000000000000000000000000000000000000000000000000000000000000000000000000000000000000000000000000000000000000000611202300000000            000000000000000                              000                           
0010001300277T 0901897X0000000092096 24778822230004577   700000000000457729092023000000000020693001003409000004577                0900000000000000000000000000000000000000000000000000000   000000000000000000000036009        170192477882     
0010001300278U 090000000000000000000000000000000000000000000000000000000000000000000000000000000000000000000000000000000000000000000000000611202300000000            000000000000000                              000                           
0010001300279T 0901897X0000000092096 24778822230004601   700000000000460129092023000000000020982001009296000004601                0900000000000000000000000000000000000000000000000000000   000000000000000000000036009        170192477882     
0010001300280U 090000000000000000000000000000000000000000000000000000000000000000000000000000000000000000000000000000000000000000000000000611202300000000            000000000000000                              000                           
0010001300281T 0901897X0000000092096 24778822230004607   700000000000460729092023000000000029007001007994000004607                0900000000000000000000000000000000000000000000000000000   000000000000000000000036009        170192477882     
0010001300282U 090000000000000000000000000000000000000000000000000000000000000000000000000000000000000000000000000000000000000000000000000611202300000000            000000000000000                              000                           
0010001300283T 0901897X0000000092096 24778822230004691   700000000000469129092023000000000037538001023248000004691                0900000000000000000000000000000000000000000000000000000   000000000000000000000036009        170192477882     
0010001300284U 090000000000000000000000000000000000000000000000000000000000000000000000000000000000000000000000000000000000000000000000000611202300000000            000000000000000                              000                           
0010001300285T 0901897X0000000092096 24778822230004727   700000000000472729092023000000000020163001004596000004727                0900000000000000000000000000000000000000000000000000000   000000000000000000000036009        170192477882     
0010001300286U 090000000000000000000000000000000000000000000000000000000000000000000000000000000000000000000000000000000000000000000000000611202300000000            000000000000000                              000                           
0010001300287T 0901897X0000000092096 24778822230004757   700000000000475729092023000000000060984001000566000004757                0900000000000000000000000000000000000000000000000000000   000000000000000000000036009        170192477882     
0010001300288U 090000000000000000000000000000000000000000000000000000000000000000000000000000000000000000000000000000000000000000000000000611202300000000            000000000000000                              000                           
0010001300289T 0901897X0000000092096 24778822230004769   700000000000476929092023000000000040012001003417000004769                0900000000000000000000000000000000000000000000000000000   000000000000000000000036009        170192477882     
0010001300290U 090000000000000000000000000000000000000000000000000000000000000000000000000000000000000000000000000000000000000000000000000611202300000000            000000000000000                              000                           
0010001300291T 0901897X0000000092096 24778822230004829   700000000000482929092023000000000046198001003190000004829                0900000000000000000000000000000000000000000000000000000   000000000000000000000036009        170192477882     
0010001300292U 090000000000000000000000000000000000000000000000000000000000000000000000000000000000000000000000000000000000000000000000000611202300000000            000000000000000                              000                           
0010001300293T 0901897X0000000092096 24778822230004853   700000000000485329092023000000000031137001004154000004853                0900000000000000000000000000000000000000000000000000000   000000000000000000000036009        170192477882     
0010001300294U 090000000000000000000000000000000000000000000000000000000000000000000000000000000000000000000000000000000000000000000000000611202300000000            000000000000000                              000                           
0010001300295T 0901897X0000000092096 24778822230004871   700000000000487129092023000000000068312001014753000004871                0900000000000000000000000000000000000000000000000000000   000000000000000000000036009        170192477882     
0010001300296U 090000000000000000000000000000000000000000000000000000000000000000000000000000000000000000000000000000000000000000000000000611202300000000            000000000000000                              000                           
0010001300297T 0901897X0000000092096 24778822230004997   700000000000499729092023000000000108208001001724000004997                0900000000000000000000000000000000000000000000000000000   000000000000000000000036009        170192477882     
0010001300298U 090000000000000000000000000000000000000000000000000000000000000000000000000000000000000000000000000000000000000000000000000611202300000000            000000000000000                              000                           
0010001300299T 0901897X0000000092096 24778822230005057   70000000000050572909202300000000002025000101849X000005057                0900000000000000000000000000000000000000000000000000000   000000000000000000000036009        170192477882     
0010001300300U 090000000000000000000000000000000000000000000000000000000000000000000000000000000000000000000000000000000000000000000000000611202300000000            000000000000000                              000                           
0010001300301T 0901897X0000000092096 24778822230005105   700000000000510529092023000000000036037001009296000005105                0900000000000000000000000000000000000000000000000000000   000000000000000000000036009        170192477882     
0010001300302U 090000000000000000000000000000000000000000000000000000000000000000000000000000000000000000000000000000000000000000000000000611202300000000            000000000000000                              000                           
0010001300303T 0901897X0000000092096 24778822230005135   700000000000513529092023000000000433125001004561000005135                0900000000000000000000000000000000000000000000000000000   000000000000000000000036009        170192477882     
0010001300304U 090000000000000000000000000000000000000000000000000000000000000000000000000000000000000000000000000000000000000000000000000611202300000000            000000000000000                              000                           
0010001300305T 0901897X0000000092096 24778822230005177   70000000000051772909202300000000002194300101849X000005177                0900000000000000000000000000000000000000000000000000000   000000000000000000000036009        170192477882     
0010001300306U 090000000000000000000000000000000000000000000000000000000000000000000000000000000000000000000000000000000000000000000000000611202300000000            000000000000000                              000                           
0010001300307T 0901897X0000000092096 24778822230005189   700000000000518929092023000000000042988001003018000005189                0900000000000000000000000000000000000000000000000000000   000000000000000000000036009        170192477882     
0010001300308U 090000000000000000000000000000000000000000000000000000000000000000000000000000000000000000000000000000000000000000000000000611202300000000            000000000000000                              000                           
0010001300309T 0901897X0000000092096 24778822230005231   700000000000523129092023000000000035439001003409000005231                0900000000000000000000000000000000000000000000000000000   000000000000000000000036009        170192477882     
0010001300310U 090000000000000000000000000000000000000000000000000000000000000000000000000000000000000000000000000000000000000000000000000611202300000000            000000000000000                              000                           
0010001300311T 0901897X0000000092096 24778822230005243   70000000000052432909202300000000002196600100216X000005243                0900000000000000000000000000000000000000000000000000000   000000000000000000000036009        170192477882     
0010001300312U 090000000000000000000000000000000000000000000000000000000000000000000000000000000000000000000000000000000000000000000000000611202300000000            000000000000000                              000                           
0010001300313T 0901897X0000000092096 24778822230005261   700000000000526129092023000000000161429001004561000005261                0900000000000000000000000000000000000000000000000000000   000000000000000000000036009        170192477882     
0010001300314U 090000000000000000000000000000000000000000000000000000000000000000000000000000000000000000000000000000000000000000000000000611202300000000            000000000000000                              000                           
0010001300315T 0901897X0000000092096 24778822230005273   700000000000527329092023000000000033668001001678000005273                0900000000000000000000000000000000000000000000000000000   000000000000000000000036009        170192477882     
0010001300316U 090000000000000000000000000000000000000000000000000000000000000000000000000000000000000000000000000000000000000000000000000611202300000000            000000000000000                              000                           
0010001300317T 0901897X0000000092096 24778822230005297   700000000000529729092023000000000029155001043036000005297                0900000000000000000000000000000000000000000000000000000   000000000000000000000036009        170192477882     
0010001300318U 090000000000000000000000000000000000000000000000000000000000000000000000000000000000000000000000000000000000000000000000000611202300000000            000000000000000                              000                           
0010001300319T 0901897X0000000092096 24778822230005321   700000000000532129092023000000000042497001022004000005321                0900000000000000000000000000000000000000000000000000000   000000000000000000000036009        170192477882     
0010001300320U 090000000000000000000000000000000000000000000000000000000000000000000000000000000000000000000000000000000000000000000000000611202300000000            000000000000000                              000                           
0010001300321T 0901897X0000000092096 24778822230005333   700000000000533329092023000000000029490001003190000005333                0900000000000000000000000000000000000000000000000000000   000000000000000000000036009        170192477882     
0010001300322U 090000000000000000000000000000000000000000000000000000000000000000000000000000000000000000000000000000000000000000000000000611202300000000            000000000000000                              000                           
0010001300323T 0901897X0000000092096 24778822230005393   700000000000539329092023000000000035132001000566000005393                0900000000000000000000000000000000000000000000000000000   000000000000000000000036009        170192477882     
0010001300324U 090000000000000000000000000000000000000000000000000000000000000000000000000000000000000000000000000000000000000000000000000611202300000000            000000000000000                              000                           
0010001300325T 0901897X0000000092096 24778822230005399   70000000000053992909202300000000007474600100264X000005399                0900000000000000000000000000000000000000000000000000000   000000000000000000000036009        170192477882     
0010001300326U 090000000000000000000000000000000000000000000000000000000000000000000000000000000000000000000000000000000000000000000000000611202300000000            000000000000000                              000                           
0010001300327T 0901897X0000000092096 24778822230005435   700000000000543529092023000000000043907001009903000005435                0900000000000000000000000000000000000000000000000000000   000000000000000000000036009        170192477882     
0010001300328U 090000000000000000000000000000000000000000000000000000000000000000000000000000000000000000000000000000000000000000000000000611202300000000            000000000000000                              000                           
0010001300329T 0901897X0000000092096 24778822230005453   70000000000054532909202300000000004162000101849X000005453                0900000000000000000000000000000000000000000000000000000   000000000000000000000036009        170192477882     
0010001300330U 090000000000000000000000000000000000000000000000000000000000000000000000000000000000000000000000000000000000000000000000000611202300000000            000000000000000                              000                           
0010001300331T 0901897X0000000092096 24778822230005471   700000000000547129092023000000000039109001069833000005471                0900000000000000000000000000000000000000000000000000000   000000000000000000000036009        170192477882     
0010001300332U 090000000000000000000000000000000000000000000000000000000000000000000000000000000000000000000000000000000000000000000000000611202300000000            000000000000000                              000                           
0010001300333T 0901897X0000000092096 24778822230005495   700000000000549529092023000000000111299001003018000005495                0900000000000000000000000000000000000000000000000000000   000000000000000000000036009        170192477882     
0010001300334U 090000000000000000000000000000000000000000000000000000000000000000000000000000000000000000000000000000000000000000000000000611202300000000            000000000000000                              000                           
0010001300335T 0901897X0000000092096 24778822230005501   700000000000550129092023000000000055323001004154000005501                0900000000000000000000000000000000000000000000000000000   000000000000000000000036009        170192477882     
0010001300336U 090000000000000000000000000000000000000000000000000000000000000000000000000000000000000000000000000000000000000000000000000611202300000000            000000000000000                              000                           
0010001300337T 0901897X0000000092096 24778822230005555   700000000000555529092023000000000095149001026565000005555                0900000000000000000000000000000000000000000000000000000   000000000000000000000036009        170192477882     
0010001300338U 090000000000000000000000000000000000000000000000000000000000000000000000000000000000000000000000000000000000000000000000000611202300000000            000000000000000                              000                           
0010001300339T 0901897X0000000092096 24778822230005561   70000000000055612909202300000000003431700101849X000005561                0900000000000000000000000000000000000000000000000000000   000000000000000000000036009        170192477882     
0010001300340U 090000000000000000000000000000000000000000000000000000000000000000000000000000000000000000000000000000000000000000000000000611202300000000            000000000000000                              000                           
0010001300341T 0901897X0000000092096 24778822230005621   70000000000056212909202300000000002195700101849X000005621                0900000000000000000000000000000000000000000000000000000   000000000000000000000036009        170192477882     
0010001300342U 090000000000000000000000000000000000000000000000000000000000000000000000000000000000000000000000000000000000000000000000000611202300000000            000000000000000                              000                           
0010001300343T 0901897X0000000092096 24778822230005693   700000000000569329092023000000000037650001069833000005693                0900000000000000000000000000000000000000000000000000000   000000000000000000000036009        170192477882     
0010001300344U 090000000000000000000000000000000000000000000000000000000000000000000000000000000000000000000000000000000000000000000000000611202300000000            000000000000000                              000                           
0010001300345T 0901897X0000000092096 24778822230005699   700000000000569929092023000000000039197001009903000005699                0900000000000000000000000000000000000000000000000000000   000000000000000000000036009        170192477882     
0010001300346U 090000000000000000000000000000000000000000000000000000000000000000000000000000000000000000000000000000000000000000000000000611202300000000            000000000000000                              000                           
0010001300347T 0901897X0000000092096 24778822230005885   700000000000588529092023000000000022446001009946000005885                0900000000000000000000000000000000000000000000000000000   000000000000000000000036009        170192477882     
0010001300348U 090000000000000000000000000000000000000000000000000000000000000000000000000000000000000000000000000000000000000000000000000611202300000000            000000000000000                              000                           
0010001300349T 0901897X0000000092096 24778822230005945   700000000000594529092023000000000044598001003409000005945                0900000000000000000000000000000000000000000000000000000   000000000000000000000036009        170192477882     
0010001300350U 090000000000000000000000000000000000000000000000000000000000000000000000000000000000000000000000000000000000000000000000000611202300000000            000000000000000                              000                           
0010001300351T 0901897X0000000092096 24778822230005975   700000000000597529092023000000000225475001003409000005975                0900000000000000000000000000000000000000000000000000000   000000000000000000000036009        170192477882     
0010001300352U 090000000000000000000000000000000000000000000000000000000000000000000000000000000000000000000000000000000000000000000000000611202300000000            000000000000000                              000                           
0010001300353T 0901897X0000000092096 24778822230005993   700000000000599329092023000000000041719001069833000005993                0900000000000000000000000000000000000000000000000000000   000000000000000000000036009        170192477882     
0010001300354U 090000000000000000000000000000000000000000000000000000000000000000000000000000000000000000000000000000000000000000000000000611202300000000            000000000000000                              000                           
0010001300355T 0901897X0000000092096 24778822230006041   700000000000604129092023000000000076012001006831000006041                0900000000000000000000000000000000000000000000000000000   000000000000000000000036009        170192477882     
0010001300356U 090000000000000000000000000000000000000000000000000000000000000000000000000000000000000000000000000000000000000000000000000611202300000000            000000000000000                              000                           
0010001300357T 0901897X0000000092096 24778822230006083   700000000000608329092023000000000112377001045888000006083                0900000000000000000000000000000000000000000000000000000   000000000000000000000036009        170192477882     
0010001300358U 090000000000000000000000000000000000000000000000000000000000000000000000000000000000000000000000000000000000000000000000000611202300000000            000000000000000                              000                           
0010001300359T 0901897X0000000092096 24778822230006107   700000000000610729092023000000000047549001004561000006107                0900000000000000000000000000000000000000000000000000000   000000000000000000000036009        170192477882     
0010001300360U 090000000000000000000000000000000000000000000000000000000000000000000000000000000000000000000000000000000000000000000000000611202300000000            000000000000000                              000                           
0010001300361T 0901897X0000000092096 24778822230006113   700000000000611329092023000000000029277001009903000006113                0900000000000000000000000000000000000000000000000000000   000000000000000000000036009        170192477882     
0010001300362U 090000000000000000000000000000000000000000000000000000000000000000000000000000000000000000000000000000000000000000000000000611202300000000            000000000000000                              000                           
0010001300363T 0901897X0000000092096 24778822230006155   700000000000615529092023000000000023714001004561000006155                0900000000000000000000000000000000000000000000000000000   000000000000000000000036009        170192477882     
0010001300364U 090000000000000000000000000000000000000000000000000000000000000000000000000000000000000000000000000000000000000000000000000611202300000000            000000000000000                              000                           
0010001300365T 0901897X0000000092096 24778822230006167   70000000000061672909202300000000004879400101849X000006167                0900000000000000000000000000000000000000000000000000000   000000000000000000000036009        170192477882     
0010001300366U 090000000000000000000000000000000000000000000000000000000000000000000000000000000000000000000000000000000000000000000000000611202300000000            000000000000000                              000                           
0010001300367T 0901897X0000000092096 24778822230006179   70000000000061792909202300000000003903600101849X000006179                0900000000000000000000000000000000000000000000000000000   000000000000000000000036009        170192477882     
0010001300368U 090000000000000000000000000000000000000000000000000000000000000000000000000000000000000000000000000000000000000000000000000611202300000000            000000000000000                              000                           
0010001300369T 0901897X0000000092096 24778822230006251   700000000000625129092023000000000021451001026816000006251                0900000000000000000000000000000000000000000000000000000   000000000000000000000036009        170192477882     
0010001300370U 090000000000000000000000000000000000000000000000000000000000000000000000000000000000000000000000000000000000000000000000000611202300000000            000000000000000                              000                           
0010001300371T 0901897X0000000092096 24778822230006269   700000000000626929092023000000000049600001004154000006269                0900000000000000000000000000000000000000000000000000000   000000000000000000000036009        170192477882     
0010001300372U 090000000000000000000000000000000000000000000000000000000000000000000000000000000000000000000000000000000000000000000000000611202300000000            000000000000000                              000                           
0010001300373T 0901897X0000000092096 24778822230006281   700000000000628129092023000000000022055001003409000006281                0900000000000000000000000000000000000000000000000000000   000000000000000000000036009        170192477882     
0010001300374U 090000000000000000000000000000000000000000000000000000000000000000000000000000000000000000000000000000000000000000000000000611202300000000            000000000000000                              000                           
0010001300375T 0901897X0000000092096 24778822230006305   700000000000630529092023000000000052590001003409000006305                0900000000000000000000000000000000000000000000000000000   000000000000000000000036009        170192477882     
0010001300376U 090000000000000000000000000000000000000000000000000000000000000000000000000000000000000000000000000000000000000000000000000611202300000000            000000000000000                              000                           
0010001300377T 0901897X0000000092096 24778822230006311   700000000000631129092023000000000027140001003409000006311                0900000000000000000000000000000000000000000000000000000   000000000000000000000036009        170192477882     
0010001300378U 090000000000000000000000000000000000000000000000000000000000000000000000000000000000000000000000000000000000000000000000000611202300000000            000000000000000                              000                           
0010001300379T 0901897X0000000092096 24778822230006317   700000000000631729092023000000000056596001014753000006317                0900000000000000000000000000000000000000000000000000000   000000000000000000000036009        170192477882     
0010001300380U 090000000000000000000000000000000000000000000000000000000000000000000000000000000000000000000000000000000000000000000000000611202300000000            000000000000000                              000                           
0010001300381T 0901897X0000000092096 24778822230006341   700000000000634129092023000000000021958001003190000006341                0900000000000000000000000000000000000000000000000000000   000000000000000000000036009        170192477882     
0010001300382U 090000000000000000000000000000000000000000000000000000000000000000000000000000000000000000000000000000000000000000000000000611202300000000            000000000000000                              000                           
0010001300383T 0901897X0000000092096 24778822230006353   700000000000635329092023000000000039036001003409000006353                0900000000000000000000000000000000000000000000000000000   000000000000000000000036009        170192477882     
0010001300384U 090000000000000000000000000000000000000000000000000000000000000000000000000000000000000000000000000000000000000000000000000611202300000000            000000000000000                              000                           
0010001300385T 0901897X0000000092096 24778822230006437   700000000000643729092023000000000037743001006831000006437                0900000000000000000000000000000000000000000000000000000   000000000000000000000036009        170192477882     
0010001300386U 090000000000000000000000000000000000000000000000000000000000000000000000000000000000000000000000000000000000000000000000000611202300000000            000000000000000                              000                           
0010001300387T 0901897X0000000092096 24778822230006449   700000000000644929092023000000000021958001006998000006449                0900000000000000000000000000000000000000000000000000000   000000000000000000000036009        170192477882     
0010001300388U 090000000000000000000000000000000000000000000000000000000000000000000000000000000000000000000000000000000000000000000000000611202300000000            000000000000000                              000                           
0010001300389T 0901897X0000000092096 24778822230006461   70000000000064612909202300000000006587200101849X000006461                0900000000000000000000000000000000000000000000000000000   000000000000000000000036009        170192477882     
0010001300390U 090000000000000000000000000000000000000000000000000000000000000000000000000000000000000000000000000000000000000000000000000611202300000000            000000000000000                              000                           
0010001300391T 0901897X0000000092096 24778822230006467   700000000000646729092023000000000122669001014753000006467                0900000000000000000000000000000000000000000000000000000   000000000000000000000036009        170192477882     
0010001300392U 090000000000000000000000000000000000000000000000000000000000000000000000000000000000000000000000000000000000000000000000000611202300000000            000000000000000                              000                           
0010001300393T 0901897X0000000092096 24778822230006515   700000000000651529092023000000000073192001001724000006515                0900000000000000000000000000000000000000000000000000000   000000000000000000000036009        170192477882     
0010001300394U 090000000000000000000000000000000000000000000000000000000000000000000000000000000000000000000000000000000000000000000000000611202300000000            000000000000000                              000                           
0010001300395T 0901897X0000000092096 24778822230006539   700000000000653929092023000000000085390001001724000006539                0900000000000000000000000000000000000000000000000000000   000000000000000000000036009        170192477882     
0010001300396U 090000000000000000000000000000000000000000000000000000000000000000000000000000000000000000000000000000000000000000000000000611202300000000            000000000000000                              000                           
0010001300397T 0901897X0000000092096 24778822230006569   700000000000656929092023000000000029233001003190000006569                0900000000000000000000000000000000000000000000000000000   000000000000000000000036009        170192477882     
0010001300398U 090000000000000000000000000000000000000000000000000000000000000000000000000000000000000000000000000000000000000000000000000611202300000000            000000000000000                              000                           
0010001300399T 0901897X0000000092096 24778822230006599   700000000000659929092023000000000026288001004561000006599                0900000000000000000000000000000000000000000000000000000   000000000000000000000036009        170192477882     
0010001300400U 090000000000000000000000000000000000000000000000000000000000000000000000000000000000000000000000000000000000000000000000000611202300000000            000000000000000                              000                           
0010001300401T 0901897X0000000092096 24778822230006617   700000000000661729092023000000000060415001008117000006617                0900000000000000000000000000000000000000000000000000000   000000000000000000000036009        170192477882     
0010001300402U 090000000000000000000000000000000000000000000000000000000000000000000000000000000000000000000000000000000000000000000000000611202300000000            000000000000000                              000                           
0010001300403T 0901897X0000000092096 24778822230006623   700000000000662329092023000000000053918001006831000006623                0900000000000000000000000000000000000000000000000000000   000000000000000000000036009        170192477882     
0010001300404U 090000000000000000000000000000000000000000000000000000000000000000000000000000000000000000000000000000000000000000000000000611202300000000            000000000000000                              000                           
0010001300405T 0901897X0000000092096 24778822230006629   700000000000662929092023000000000024397001001724000006629                0900000000000000000000000000000000000000000000000000000   000000000000000000000036009        170192477882     
0010001300406U 090000000000000000000000000000000000000000000000000000000000000000000000000000000000000000000000000000000000000000000000000611202300000000            000000000000000                              000                           
0010001300407T 0901897X0000000092096 24778822230006653   700000000000665329092023000000000065200001014753000006653                0900000000000000000000000000000000000000000000000000000   000000000000000000000036009        170192477882     
0010001300408U 090000000000000000000000000000000000000000000000000000000000000000000000000000000000000000000000000000000000000000000000000611202300000000            000000000000000                              000                           
0010001300409T 0901897X0000000092096 24778822230006659   700000000000665929092023000000000032568001000566000006659                0900000000000000000000000000000000000000000000000000000   000000000000000000000036009        170192477882     
0010001300410U 090000000000000000000000000000000000000000000000000000000000000000000000000000000000000000000000000000000000000000000000000611202300000000            000000000000000                              000                           
0010001300411T 0901897X0000000092096 24778822230006695   700000000000669529092023000000000104811001022004000006695                0900000000000000000000000000000000000000000000000000000   000000000000000000000036009        170192477882     
0010001300412U 090000000000000000000000000000000000000000000000000000000000000000000000000000000000000000000000000000000000000000000000000611202300000000            000000000000000                              000                           
