00100000         2115139610001160024778820014       01897X0000000092096 FUNDACAO AGENCIA DAS BACIAS HIBANCO DO BRASIL                         22212202301410200546103000000829973081PROCESSAMEN                                                 
00100011T0100020 20115139610001160024778820014       01897X0000000092096 FUNDACAO AGENCIA DAS BACIAS HI                                                                                000000002212202300000000  000000000                      
0010001300001T 0201897X0000000092096 24778829000007986   7000007986      2912202300000000005751600100216X000007986                0900000000000010000000000000000000000000000000000000000   0000000000000000000000480A9        170192477882     
0010001300002U 020000000000000000000000000000000000000000000000000000000000000000000000000000000000000000000000000000000000000000000000002212202300000000            000000000000000                              000                           
0010001300003T 0201897X0000000092096 24778829000007987   7000007987      29122023000000000010416001008117000007987                0900000000000010500000000000000000000000000000000000000   0000000000000000000000480A9A4      170192477882     
0010001300004U 020000000000000000000000000000000000000000000000000000000000000000000000000000000000000000000000000000000000000000000000002212202300000000            000000000000000                              000                           
0010001300005T 0201897X0000000092096 24778829000007988   7000007988      29122023000000000044411001024279000007988                0900000000000010500000000000000000000000000000000000000   0000000000000000000000480A9A4      170192477882     
0010001300006U 020000000000000000000000000000000000000000000000000000000000000000000000000000000000000000000000000000000000000000000000002212202300000000            000000000000000                              000                           
0010001300007T 0601897X0000000092096 24778822230002798   700000000000279822122023000000000032824341005460000002798                0900000000000010100000000000000000000000000000000000000   000000000000000000000000004        170192477882     
0010001300008U 060000000000000000000000000000000000000000000000000000000000000000000000328240000000000328240000000000000000000000000000002212202326122023            000000000000000                              000                           
0010001300009T 0601897X0000000092096 24778822230002816   700000000000281622122023000000000254506341016190000002816                0900000000000010100000000000000000000000000000000000000   000000000000000000000000004        170192477882     
0010001300010U 060000000000000000000000000000000000000000000000000000000000000000000002545060000000002545060000000000000000000000000000002212202326122023            000000000000000                              000                           
0010001300011T 0601897X0000000092096 24778822230002834   700000000000283422122023000000000163445341009120000002834                0900000000000010100000000000000000000000000000000000000   000000000000000000000000004        170192477882     
0010001300012U 060000000000000000000000000000000000000000000000000000000000000000000001634450000000001634450000000000000000000000000000002212202326122023            000000000000000                              000                           
0010001300013T 0601897X0000000092096 24778822230002840   700000000000284022122023000000000060170237003930000002840                0900000000000010100000000000000000000000000000000000000   000000000000000000000000004        170192477882     
0010001300014U 060000000000000000000000000000000000000000000000000000000000000000000000601700000000000601700000000000000000000000000000002212202326122023            000000000000000                              000                           
0010001300015T 0601897X0000000092096 24778822230002846   700000000000284622122023000000000073767341080460000002846                0900000000000010100000000000000000000000000000000000000   000000000000000000000000004        170192477882     
0010001300016U 060000000000000000000000000000000000000000000000000000000000000000000000737670000000000737670000000000000000000000000000002212202326122023            000000000000000                              000                           
0010001300017T 0601897X0000000092096 24778822230002852   700000000000285222122023000000000310949001031496000002852                0900000000000010090000000000000000000000000000000000000   000000000000000000000000006        170192477882     
0010001300018U 060000000000000000000000000000000000000000000000000000000000000000000003109490000000003109490000000000000000000000000000002212202326122023            000000000000000                              000                           
0010001300019T 0601897X0000000092096 24778822230002882   700000000000288222122023000000000197617237033930000002882                0900000000000010100000000000000000000000000000000000000   000000000000000000000000004        170192477882     
0010001300020U 060000000000000000000000000000000000000000000000000000000000000000000001976170000000001976170000000000000000000000000000002212202326122023            000000000000000                              000                           
0010001300021T 0601897X0000000092096 24778822230002900   700000000000290022122023000000000060471341000280000002900                0900000000000010100000000000000000000000000000000000000   000000000000000000000000004        170192477882     
0010001300022U 060000000000000000000000000000000000000000000000000000000000000000000000604710000000000604710000000000000000000000000000002212202326122023            000000000000000                              000                           
0010001300023T 0601897X0000000092096 24778822230002924   700000000000292422122023000000000034290237004760000002924                0900000000000010100000000000000000000000000000000000000   000000000000000000000000004        170192477882     
0010001300024U 060000000000000000000000000000000000000000000000000000000000000000000000342900000000000342900000000000000000000000000000002212202326122023            000000000000000                              000                           
0010001300025T 0601897X0000000092096 24778822230002930   700000000000293022122023000000000042378341000410000002930                0900000000000010100000000000000000000000000000000000000   000000000000000000000000004        170192477882     
0010001300026U 060000000000000000000000000000000000000000000000000000000000000000000000423780000000000423780000000000000000000000000000002212202326122023            000000000000000                              000                           
0010001300027T 0601897X0000000092096 24778822230002942   700000000000294222122023000000000029277756077170000002942                0900000000000010100000000000000000000000000000000000000   000000000000000000000000004        170192477882     
0010001300028U 060000000000000000000000000000000000000000000000000000000000000000000000292770000000000292770000000000000000000000000000002212202326122023            000000000000000                              000                           
0010001300029T 0601897X0000000092096 24778822230002947   700000000000294730112023000000000039462341000300000002947                0900000000000010100000000000000000000000000000000000000   000000000000000000000000004        170192477882     
0010001300030U 060000000000010780000000000000000000000000000000000000000000000000000000405400000000000405400000000000000000000000000000002212202326122023            000000000000000                              000                           
0010001300031T 0601897X0000000092096 24778822230002954   700000000000295422122023000000000048795237035040000002954                0900000000000010100000000000000000000000000000000000000   000000000000000000000000004        170192477882     
0010001300032U 060000000000000000000000000000000000000000000000000000000000000000000000487950000000000487950000000000000000000000000000002212202326122023            000000000000000                              000                           
0010001300033T 0601897X0000000092096 24778822230002960   700000000000296022122023000000000070752237033890000002960                0900000000000010100000000000000000000000000000000000000   000000000000000000000000004        170192477882     
0010001300034U 060000000000000000000000000000000000000000000000000000000000000000000000707520000000000707520000000000000000000000000000002212202326122023            000000000000000                              000                           
0010001300035T 0601897X0000000092096 24778822230002972   700000000000297222122023000000000078071509000010000002972                0900000000000010100000000000000000000000000000000000000   000000000000000000000000004        170192477882     
0010001300036U 060000000000000000000000000000000000000000000000000000000000000000000000780710000000000780710000000000000000000000000000002212202326122023            000000000000000                              000                           
0010001300037T 0601897X0000000092096 24778822230002978   700000000000297822122023000000000029277341029040000002978                0900000000000010100000000000000000000000000000000000000   000000000000000000000000004        170192477882     
0010001300038U 060000000000000000000000000000000000000000000000000000000000000000000000292770000000000292770000000000000000000000000000002212202326122023            000000000000000                              000                           
0010001300039T 0601897X0000000092096 24778822230003002   700000000000300222122023000000000060652341000190000003002                0900000000000010100000000000000000000000000000000000000   000000000000000000000000004        170192477882     
0010001300040U 060000000000000000000000000000000000000000000000000000000000000000000000606520000000000606520000000000000000000000000000002212202326122023            000000000000000                              000                           
0010001300041T 0601897X0000000092096 24778822230003020   700000000000302022122023000000000117776341048360000003020                0900000000000010100000000000000000000000000000000000000   000000000000000000000000004        170192477882     
0010001300042U 060000000000000000000000000000000000000000000000000000000000000000000001177760000000001177760000000000000000000000000000002212202326122023            000000000000000                              000                           
0010001300043T 0601897X0000000092096 24778822230003026   700000000000302622122023000000000327899033002070000003026                0900000000000010100000000000000000000000000000000000000   000000000000000000000000004        170192477882     
0010001300044U 060000000000000000000000000000000000000000000000000000000000000000000003278990000000003278990000000000000000000000000000002212202326122023            000000000000000                              000                           
0010001300045T 0601897X0000000092096 24778822230003032   700000000000303222122023000000000060150341000020000003032                0900000000000010100000000000000000000000000000000000000   000000000000000000000000004        170192477882     
0010001300046U 060000000000000000000000000000000000000000000000000000000000000000000000601500000000000601500000000000000000000000000000002212202326122023            000000000000000                              000                           
0010001300047T 0601897X0000000092096 24778822230003044   700000000000304422122023000000000040361237033970000003044                0900000000000010100000000000000000000000000000000000000   000000000000000000000000004        170192477882     
0010001300048U 060000000000000000000000000000000000000000000000000000000000000000000000403610000000000403610000000000000000000000000000002212202326122023            000000000000000                              000                           
0010001300049T 0601897X0000000092096 24778822230003050   700000000000305022122023000000000029027001066249000003050                0900000000000010040000000000000000000000000000000000000   000000000000000000000000034        170192477882     
0010001300050U 060000000000000000000000000000000000000000000000000000000000000000000000290270000000000290270000000000000000000000000000002212202326122023            000000000000000                              000                           
0010001300051T 0601897X0000000092096 24778822230003056   700000000000305622122023000000000190497001033626000003056                0900000000000010040000000000000000000000000000000000000   000000000000000000000000034        170192477882     
0010001300052U 060000000000000000000000000000000000000000000000000000000000000000000001904970000000001904970000000000000000000000000000002212202326122023            000000000000000                              000                           
0010001300053T 0601897X0000000092096 24778822230003062   700000000000306222122023000000000021323001033626000003062                0900000000000010090000000000000000000000000000000000000   000000000000000000000000006        170192477882     
0010001300054U 060000000000000000000000000000000000000000000000000000000000000000000000213230000000000213230000000000000000000000000000002212202326122023            000000000000000                              000                           
0010001300055T 0601897X0000000092096 24778822230003068   700000000000306822122023000000000108118341086800000003068                0900000000000010100000000000000000000000000000000000000   000000000000000000000000004        170192477882     
0010001300056U 060000000000000000000000000000000000000000000000000000000000000000000001081180000000001081180000000000000000000000000000002212202326122023            000000000000000                              000                           
0010001300057T 0601897X0000000092096 24778822230003074   700000000000307422122023000000000026208237033710000003074                0900000000000010100000000000000000000000000000000000000   000000000000000000000000004        170192477882     
0010001300058U 060000000000000000000000000000000000000000000000000000000000000000000000262080000000000262080000000000000000000000000000002212202326122023            000000000000000                              000                           
0010001300059T 0601897X0000000092096 24778822230003080   700000000000308022122023000000000134304237033710000003080                0900000000000010100000000000000000000000000000000000000   000000000000000000000000004        170192477882     
0010001300060U 060000000000000000000000000000000000000000000000000000000000000000000001343040000000001343040000000000000000000000000000002212202326122023            000000000000000                              000                           
0010001300061T 0601897X0000000092096 24778822230003086   700000000000308622122023000000000259739745000040000003086                0900000000000010100000000000000000000000000000000000000   000000000000000000000000004        170192477882     
0010001300062U 060000000000000000000000000000000000000000000000000000000000000000000002597390000000002597390000000000000000000000000000002212202326122023            000000000000000                              000                           
0010001300063T 0601897X0000000092096 24778822230003092   700000000000309222122023000000000051714341000140000003092                0900000000000010100000000000000000000000000000000000000   000000000000000000000000004        170192477882     
0010001300064U 060000000000000000000000000000000000000000000000000000000000000000000000517140000000000517140000000000000000000000000000002212202326122023            000000000000000                              000                           
0010001300065T 0601897X0000000092096 24778822230003104   700000000000310422122023000000000244308341000500000003104                0900000000000010100000000000000000000000000000000000000   000000000000000000000000004        170192477882     
0010001300066U 060000000000000000000000000000000000000000000000000000000000000000000002443080000000002443080000000000000000000000000000002212202326122023            000000000000000                              000                           
0010001300067T 0601897X0000000092096 24778822230003110   700000000000311022122023000000000086269246000010000003110                0900000000000010100000000000000000000000000000000000000   000000000000000000000000004        170192477882     
0010001300068U 060000000000000000000000000000000000000000000000000000000000000000000000862690000000000862690000000000000000000000000000002212202326122023            000000000000000                              000                           
0010001300069T 0601897X0000000092096 24778822230003134   700000000000313422122023000000000058553341060660000003134                0900000000000010100000000000000000000000000000000000000   000000000000000000000000004        170192477882     
0010001300070U 060000000000000000000000000000000000000000000000000000000000000000000000585530000000000585530000000000000000000000000000002212202326122023            000000000000000                              000                           
0010001300071T 0601897X0000000092096 24778822230003152   700000000000315222122023000000000195857033048780000003152                0900000000000010100000000000000000000000000000000000000   000000000000000000000000004        170192477882     
0010001300072U 060000000000000000000000000000000000000000000000000000000000000000000001958570000000001958570000000000000000000000000000002212202326122023            000000000000000                              000                           
0010001300073T 0601897X0000000092096 24778822230003164   700000000000316422122023000000000200404341000550000003164                0900000000000010100000000000000000000000000000000000000   000000000000000000000000004        170192477882     
0010001300074U 060000000000000000000000000000000000000000000000000000000000000000000002004040000000002004040000000000000000000000000000002212202326122023            000000000000000                              000                           
0010001300075T 0601897X0000000092096 24778822230003170   700000000000317022122023000000000039524341006700000003170                0900000000000010100000000000000000000000000000000000000   000000000000000000000000004        170192477882     
0010001300076U 060000000000000000000000000000000000000000000000000000000000000000000000395240000000000395240000000000000000000000000000002212202326122023            000000000000000                              000                           
0010001300077T 0601897X0000000092096 24778822230003176   700000000000317622122023000000000031522341000090000003176                0900000000000010100000000000000000000000000000000000000   000000000000000000000000004        170192477882     
0010001300078U 060000000000000000000000000000000000000000000000000000000000000000000000315220000000000315220000000000000000000000000000002212202326122023            000000000000000                              000                           
0010001300079T 0601897X0000000092096 24778822230003182   700000000000318222122023000000000113641341000280000003182                0900000000000010100000000000000000000000000000000000000   000000000000000000000000004        170192477882     
0010001300080U 060000000000000000000000000000000000000000000000000000000000000000000001136410000000001136410000000000000000000000000000002212202326122023            000000000000000                              000                           
0010001300081T 0601897X0000000092096 24778822230003200   700000000000320022122023000000000040233376000010000003200                0900000000000010100000000000000000000000000000000000000   000000000000000000000000004        170192477882     
0010001300082U 060000000000000000000000000000000000000000000000000000000000000000000000402330000000000402330000000000000000000000000000002212202326122023            000000000000000                              000                           
0010001300083T 0601897X0000000092096 24778822230003206   700000000000320622122023000000000058553001031496000003206                0900000000000010040000000000000000000000000000000000000   000000000000000000000000034        170192477882     
0010001300084U 060000000000000000000000000000000000000000000000000000000000000000000000585530000000000585530000000000000000000000000000002212202326122023            000000000000000                              000                           
0010001300085T 0601897X0000000092096 24778822230003218   700000000000321822122023000000000106186001033626000003218                0900000000000010040000000000000000000000000000000000000   000000000000000000000000034        170192477882     
0010001300086U 060000000000000000000000000000000000000000000000000000000000000000000001061860000000001061860000000000000000000000000000002212202326122023            000000000000000                              000                           
0010001300087T 0601897X0000000092096 24778822230003230   700000000000323022122023000000000085858033038850000003230                0900000000000010100000000000000000000000000000000000000   000000000000000000000000004        170192477882     
0010001300088U 060000000000000000000000000000000000000000000000000000000000000000000000858580000000000858580000000000000000000000000000002212202326122023            000000000000000                              000                           
0010001300089T 0601897X0000000092096 24778822230003236   700000000000323622122023000000000478381341000190000003236                0900000000000010100000000000000000000000000000000000000   000000000000000000000000004        170192477882     
0010001300090U 060000000000000000000000000000000000000000000000000000000000000000000004783810000000004783810000000000000000000000000000002212202326122023            000000000000000                              000                           
0010001300091T 0601897X0000000092096 24778822230003242   700000000000324222122023000000000042834748052490000003242                0900000000000010100000000000000000000000000000000000000   000000000000000000000000004        170192477882     
0010001300092U 060000000000000000000000000000000000000000000000000000000000000000000000428340000000000428340000000000000000000000000000002212202326122023            000000000000000                              000                           
0010001300093T 0601897X0000000092096 24778822230003254   700000000000325422122023000000000023401341000190000003254                0900000000000010100000000000000000000000000000000000000   000000000000000000000000004        170192477882     
0010001300094U 060000000000000000000000000000000000000000000000000000000000000000000000234010000000000234010000000000000000000000000000002212202326122023            000000000000000                              000                           
0010001300095T 0601897X0000000092096 24778822230003290   700000000000329022122023000000000108848341087450000003290                0900000000000010100000000000000000000000000000000000000   000000000000000000000000004        170192477882     
0010001300096U 060000000000000000000000000000000000000000000000000000000000000000000001088480000000001088480000000000000000000000000000002212202326122023            000000000000000                              000                           
0010001300097T 0601897X0000000092096 24778822230003296   700000000000329622122023000000000126347341000280000003296                0900000000000010100000000000000000000000000000000000000   000000000000000000000000004        170192477882     
0010001300098U 060000000000000000000000000000000000000000000000000000000000000000000001263470000000001263470000000000000000000000000000002212202326122023            000000000000000                              000                           
0010001300099T 0601897X0000000092096 24778822230003302   700000000000330222122023000000000084164341002770000003302                0900000000000010100000000000000000000000000000000000000   000000000000000000000000004        170192477882     
0010001300100U 060000000000000000000000000000000000000000000000000000000000000000000000841640000000000841640000000000000000000000000000002212202326122023            000000000000000                              000                           
0010001300101T 0601897X0000000092096 24778822230003308   700000000000330822122023000000000023233341069100000003308                0900000000000010100000000000000000000000000000000000000   000000000000000000000000004        170192477882     
0010001300102U 060000000000000000000000000000000000000000000000000000000000000000000000232330000000000232330000000000000000000000000000002212202326122023            000000000000000                              000                           
0010001300103T 0601897X0000000092096 24778822230003350   700000000000335022122023000000000043915341001690000003350                0900000000000010100000000000000000000000000000000000000   000000000000000000000000004        170192477882     
0010001300104U 060000000000000000000000000000000000000000000000000000000000000000000000439150000000000439150000000000000000000000000000002212202326122023            000000000000000                              000                           
0010001300105T 0601897X0000000092096 24778822230003356   700000000000335622122023000000000061127748052790000003356                0900000000000010100000000000000000000000000000000000000   000000000000000000000000004        170192477882     
0010001300106U 060000000000000000000000000000000000000000000000000000000000000000000000611270000000000611270000000000000000000000000000002212202326122023            000000000000000                              000                           
0010001300107T 0601897X0000000092096 24778822230003386   700000000000338622122023000000000075485033001780000003386                0900000000000010100000000000000000000000000000000000000   000000000000000000000000004        170192477882     
0010001300108U 060000000000000000000000000000000000000000000000000000000000000000000000754850000000000754850000000000000000000000000000002212202326122023            000000000000000                              000                           
0010001300109T 0601897X0000000092096 24778822230003392   700000000000339222122023000000000099448237001490000003392                0900000000000010100000000000000000000000000000000000000   000000000000000000000000004        170192477882     
0010001300110U 060000000000000000000000000000000000000000000000000000000000000000000000994480000000000994480000000000000000000000000000002212202326122023            000000000000000                              000                           
0010001300111T 0601897X0000000092096 24778822230003398   700000000000339822122023000000000463268341076490000003398                0900000000000010100000000000000000000000000000000000000   000000000000000000000000004        170192477882     
0010001300112U 060000000000000000000000000000000000000000000000000000000000000000000004632680000000004632680000000000000000000000000000002212202326122023            000000000000000                              000                           
0010001300113T 0601897X0000000092096 24778822230003422   700000000000342222122023000000000260738033001940000003422                0900000000000010100000000000000000000000000000000000000   000000000000000000000000004        170192477882     
0010001300114U 060000000000000000000000000000000000000000000000000000000000000000000002607380000000002607380000000000000000000000000000002212202326122023            000000000000000                              000                           
0010001300115T 0601897X0000000092096 24778822230003434   700000000000343422122023000000000070752341000190000003434                0900000000000010100000000000000000000000000000000000000   000000000000000000000000004        170192477882     
0010001300116U 060000000000000000000000000000000000000000000000000000000000000000000000707520000000000707520000000000000000000000000000002212202326122023            000000000000000                              000                           
0010001300117T 0601897X0000000092096 24778822230003440   700000000000344022122023000000002723428341000080000003440                0900000000000010100000000000000000000000000000000000000   000000000000000000000000004        170192477882     
0010001300118U 060000000000000000000000000000000000000000000000000000000000000000000027234280000000027234280000000000000000000000000000002212202326122023            000000000000000                              000                           
0010001300119T 0601897X0000000092096 24778822230003446   700000000000344622122023000000000138816341009120000003446                0900000000000010100000000000000000000000000000000000000   000000000000000000000000004        170192477882     
0010001300120U 060000000000000000000000000000000000000000000000000000000000000000000001388160000000001388160000000000000000000000000000002212202326122023            000000000000000                              000                           
0010001300121T 0601897X0000000092096 24778822230003464   700000000000346422122023000000000069850341069680000003464                0900000000000010100000000000000000000000000000000000000   000000000000000000000000004        170192477882     
0010001300122U 060000000000000000000000000000000000000000000000000000000000000000000000698500000000000698500000000000000000000000000000002212202326122023            000000000000000                              000                           
0010001300123T 0601897X0000000092096 24778822230003470   700000000000347022122023000000000388966341009120000003470                0900000000000010100000000000000000000000000000000000000   000000000000000000000000004        170192477882     
0010001300124U 060000000000000000000000000000000000000000000000000000000000000000000003889660000000003889660000000000000000000000000000002212202326122023            000000000000000                              000                           
0010001300125T 0601897X0000000092096 24778822230003476   700000000000347622122023000000000707023237033950000003476                0900000000000010100000000000000000000000000000000000000   000000000000000000000000004        170192477882     
0010001300126U 060000000000000000000000000000000000000000000000000000000000000000000007070230000000007070230000000000000000000000000000002212202326122023            000000000000000                              000                           
0010001300127T 0601897X0000000092096 24778822230003482   700000000000348222122023000000000085562341078830000003482                0900000000000010100000000000000000000000000000000000000   000000000000000000000000004        170192477882     
0010001300128U 060000000000000000000000000000000000000000000000000000000000000000000000855620000000000855620000000000000000000000000000002212202326122023            000000000000000                              000                           
0010001300129T 0601897X0000000092096 24778822230003488   700000000000348822122023000000000149397756075190000003488                0900000000000010100000000000000000000000000000000000000   000000000000000000000000004        170192477882     
0010001300130U 060000000000000000000000000000000000000000000000000000000000000000000001493970000000001493970000000000000000000000000000002212202326122023            000000000000000                              000                           
0010001300131T 0601897X0000000092096 24778822230003500   700000000000350022122023000000000022811341000540000003500                0900000000000010100000000000000000000000000000000000000   000000000000000000000000004        170192477882     
0010001300132U 060000000000000000000000000000000000000000000000000000000000000000000000228110000000000228110000000000000000000000000000002212202326122023            000000000000000                              000                           
0010001300133T 0601897X0000000092096 24778822230003524   700000000000352422122023000000000043909033009120000003524                0900000000000010100000000000000000000000000000000000000   000000000000000000000000004        170192477882     
0010001300134U 060000000000000000000000000000000000000000000000000000000000000000000000439090000000000439090000000000000000000000000000002212202326122023            000000000000000                              000                           
0010001300135T 0601897X0000000092096 24778822230003542   700000000000354222122023000000000027135033003920000003542                0900000000000010100000000000000000000000000000000000000   000000000000000000000000004        170192477882     
0010001300136U 060000000000000000000000000000000000000000000000000000000000000000000000271350000000000271350000000000000000000000000000002212202326122023            000000000000000                              000                           
0010001300137T 0601897X0000000092096 24778822230003548   700000000000354822122023000000000215831033001470000003548                0900000000000010100000000000000000000000000000000000000   000000000000000000000000004        170192477882     
0010001300138U 060000000000000000000000000000000000000000000000000000000000000000000002158310000000002158310000000000000000000000000000002212202326122023            000000000000000                              000                           
0010001300139T 0601897X0000000092096 24778822230003566   700000000000356622122023000000000024397237016780000003566                0900000000000010100000000000000000000000000000000000000   000000000000000000000000004        170192477882     
0010001300140U 060000000000000000000000000000000000000000000000000000000000000000000000243970000000000243970000000000000000000000000000002212202326122023            000000000000000                              000                           
0010001300141T 0601897X0000000092096 24778822230003572   700000000000357222122023000000000021747237060090000003572                0900000000000010100000000000000000000000000000000000000   000000000000000000000000004        170192477882     
0010001300142U 060000000000000000000000000000000000000000000000000000000000000000000000217470000000000217470000000000000000000000000000002212202326122023            000000000000000                              000                           
0010001300143T 0601897X0000000092096 24778822230003590   70000000000035902212202300000000012638200101897X000003590                0900000000000010090000000000000000000000000000000000000   000000000000000000000000006        170192477882     
0010001300144U 060000000000000000000000000000000000000000000000000000000000000000000001263820000000001263820000000000000000000000000000002212202326122023            000000000000000                              000                           
0010001300145T 0601897X0000000092096 24778822230003596   700000000000359622122023000000011804664104003410000003596                0900000000000010100000000000000000000000000000000000000   000000000000000000000000004        170192477882     
0010001300146U 060000000000000000000000000000000000000000000000000000000000000000000118046640000000118046640000000000000000000000000000002212202326122023            000000000000000                              000                           
0010001300147T 0601897X0000000092096 24778822230003614   700000000000361422122023000000004550262104003630000003614                0900000000000010100000000000000000000000000000000000000   000000000000000000000000004        170192477882     
0010001300148U 060000000000000000000000000000000000000000000000000000000000000000000045502620000000045502620000000000000000000000000000002212202326122023            000000000000000                              000                           
0010001300149T 0601897X0000000092096 24778822230003620   700000000000362022122023000000003833031104011850000003620                0900000000000010100000000000000000000000000000000000000   000000000000000000000000004        170192477882     
0010001300150U 060000000000000000000000000000000000000000000000000000000000000000000038330310000000038330310000000000000000000000000000002212202326122023            000000000000000                              000                           
0010001300151T 0601897X0000000092096 24778822230003626   700000000000362622122023000000000479257033045480000003626                0900000000000010100000000000000000000000000000000000000   000000000000000000000000004        170192477882     
0010001300152U 060000000000000000000000000000000000000000000000000000000000000000000004792570000000004792570000000000000000000000000000002212202326122023            000000000000000                              000                           
0010001300153T 0601897X0000000092096 24778822230003632   700000000000363222122023000000000042590033033770000003632                0900000000000010100000000000000000000000000000000000000   000000000000000000000000004        170192477882     
0010001300154U 060000000000000000000000000000000000000000000000000000000000000000000000425900000000000425900000000000000000000000000000002212202326122023            000000000000000                              000                           
0010001300155T 0601897X0000000092096 24778822230003638   700000000000363822122023000000000260960341040050000003638                0900000000000010100000000000000000000000000000000000000   000000000000000000000000004        170192477882     
0010001300156U 060000000000000000000000000000000000000000000000000000000000000000000002609600000000002609600000000000000000000000000000002212202326122023            000000000000000                              000                           
0010001300157T 0601897X0000000092096 24778822230003644   700000000000364422122023000000000055712376000010000003644                0900000000000010100000000000000000000000000000000000000   000000000000000000000000004        170192477882     
0010001300158U 060000000000000000000000000000000000000000000000000000000000000000000000557120000000000557120000000000000000000000000000002212202326122023            000000000000000                              000                           
0010001300159T 0601897X0000000092096 24778822230003650   700000000000365022122023000000000662637237023740000003650                0900000000000010100000000000000000000000000000000000000   000000000000000000000000004        170192477882     
0010001300160U 060000000000000000000000000000000000000000000000000000000000000000000006626370000000006626370000000000000000000000000000002212202326122023            000000000000000                              000                           
0010001300161T 0601897X0000000092096 24778822230003656   700000000000365622122023000000000036913341005600000003656                0900000000000010100000000000000000000000000000000000000   000000000000000000000000004        170192477882     
0010001300162U 060000000000000000000000000000000000000000000000000000000000000000000000369130000000000369130000000000000000000000000000002212202326122023            000000000000000                              000                           
0010001300163T 0601897X0000000092096 24778822230003662   700000000000366222122023000000000037100237033670000003662                0900000000000010100000000000000000000000000000000000000   000000000000000000000000004        170192477882     
0010001300164U 060000000000000000000000000000000000000000000000000000000000000000000000371000000000000371000000000000000000000000000000002212202326122023            000000000000000                              000                           
0010001300165T 0601897X0000000092096 24778822230003668   700000000000366822122023000000000028350341002490000003668                0900000000000010100000000000000000000000000000000000000   000000000000000000000000004        170192477882     
0010001300166U 060000000000000000000000000000000000000000000000000000000000000000000000283500000000000283500000000000000000000000000000002212202326122023            000000000000000                              000                           
0010001300167T 0601897X0000000092096 24778822230003698   700000000000369822122023000000005300888422001150000003698                0900000000000010100000000000000000000000000000000000000   000000000000000000000000004        170192477882     
0010001300168U 060000000000000000000000000000000000000000000000000000000000000000000053008880000000053008880000000000000000000000000000002212202326122023            000000000000000                              000                           
0010001300169T 0601897X0000000092096 24778822230003716   700000000000371622122023000000000513201237023720000003716                0900000000000010100000000000000000000000000000000000000   000000000000000000000000004        170192477882     
0010001300170U 060000000000000000000000000000000000000000000000000000000000000000000005132010000000005132010000000000000000000000000000002212202326122023            000000000000000                              000                           
0010001300171T 0601897X0000000092096 24778822230003728   700000000000372822122023000000000719110341002790000003728                0900000000000010100000000000000000000000000000000000000   000000000000000000000000004        170192477882     
0010001300172U 060000000000000000000000000000000000000000000000000000000000000000000007191100000000007191100000000000000000000000000000002212202326122023            000000000000000                              000                           
0010001300173T 0601897X0000000092096 24778822230003740   700000000000374022122023000000000120034341000500000003740                0900000000000010100000000000000000000000000000000000000   000000000000000000000000004        170192477882     
0010001300174U 060000000000000000000000000000000000000000000000000000000000000000000001200340000000001200340000000000000000000000000000002212202326122023            000000000000000                              000                           
0010001300175T 0601897X0000000092096 24778822230003746   700000000000374622122023000000000416741341080310000003746                0900000000000010100000000000000000000000000000000000000   000000000000000000000000004        170192477882     
0010001300176U 060000000000000000000000000000000000000000000000000000000000000000000004167410000000004167410000000000000000000000000000002212202326122023            000000000000000                              000                           
0010001300177T 0601897X0000000092096 24778822230003752   700000000000375222122023000000000174378001033227000003752                0900000000000010040000000000000000000000000000000000000   000000000000000000000000034        170192477882     
0010001300178U 060000000000000000000000000000000000000000000000000000000000000000000001743780000000001743780000000000000000000000000000002212202326122023            000000000000000                              000                           
0010001300179T 0601897X0000000092096 24778822230003758   700000000000375822122023000000000214782341007310000003758                0900000000000010100000000000000000000000000000000000000   000000000000000000000000004        170192477882     
0010001300180U 060000000000000000000000000000000000000000000000000000000000000000000002147820000000002147820000000000000000000000000000002212202326122023            000000000000000                              000                           
0010001300181T 0601897X0000000092096 24778822230003764   700000000000376422122023000000000172895237033980000003764                0900000000000010100000000000000000000000000000000000000   000000000000000000000000004        170192477882     
0010001300182U 060000000000000000000000000000000000000000000000000000000000000000000001728950000000001728950000000000000000000000000000002212202326122023            000000000000000                              000                           
0010001300183T 0601897X0000000092096 24778822230003782   700000000000378222122023000000000155715033021620000003782                0900000000000010100000000000000000000000000000000000000   000000000000000000000000004        170192477882     
0010001300184U 060000000000000000000000000000000000000000000000000000000000000000000001557150000000001557150000000000000000000000000000002212202326122023            000000000000000                              000                           
0010001300185T 0601897X0000000092096 24778822230003788   700000000000378822122023000000000231151237025340000003788                0900000000000010100000000000000000000000000000000000000   000000000000000000000000004        170192477882     
0010001300186U 060000000000000000000000000000000000000000000000000000000000000000000002311510000000002311510000000000000000000000000000002212202326122023            000000000000000                              000                           
0010001300187T 0601897X0000000092096 24778822230003794   700000000000379422122023000000000206093341007960000003794                0900000000000010100000000000000000000000000000000000000   000000000000000000000000004        170192477882     
0010001300188U 060000000000000000000000000000000000000000000000000000000000000000000002060930000000002060930000000000000000000000000000002212202326122023            000000000000000                              000                           
0010001300189T 0601897X0000000092096 24778822230003806   700000000000380622122023000000000093442341086800000003806                0900000000000010100000000000000000000000000000000000000   000000000000000000000000004        170192477882     
0010001300190U 060000000000000000000000000000000000000000000000000000000000000000000000934420000000000934420000000000000000000000000000002212202326122023            000000000000000                              000                           
0010001300191T 0601897X0000000092096 24778822230003818   700000000000381822122023000000000141927341009250000003818                0900000000000010100000000000000000000000000000000000000   000000000000000000000000004        170192477882     
0010001300192U 060000000000000000000000000000000000000000000000000000000000000000000001419270000000001419270000000000000000000000000000002212202326122023            000000000000000                              000                           
0010001300193T 0601897X0000000092096 24778822230003824   700000000000382422122023000000005707369104019370000003824                0900000000000010100000000000000000000000000000000000000   000000000000000000000000004        170192477882     
0010001300194U 060000000000000000000000000000000000000000000000000000000000000000000057073690000000057073690000000000000000000000000000002212202326122023            000000000000000                              000                           
0010001300195T 0601897X0000000092096 24778822230003830   700000000000383022122023000000001113749033020170000003830                0900000000000010100000000000000000000000000000000000000   000000000000000000000000004        170192477882     
0010001300196U 060000000000000000000000000000000000000000000000000000000000000000000011137490000000011137490000000000000000000000000000002212202326122023            000000000000000                              000                           
0010001300197T 0601897X0000000092096 24778822230003848   700000000000384822122023000000004569621001009741000003848                0900000000000010040000000000000000000000000000000000000   000000000000000000000000034        170192477882     
0010001300198U 060000000000000000000000000000000000000000000000000000000000000000000045696210000000045696210000000000000000000000000000002212202326122023            000000000000000                              000                           
0010001300199T 0601897X0000000092096 24778822230003860   700000000000386022122023000000000046164748052490000003860                0900000000000010100000000000000000000000000000000000000   000000000000000000000000004        170192477882     
0010001300200U 060000000000000000000000000000000000000000000000000000000000000000000000461640000000000461640000000000000000000000000000002212202326122023            000000000000000                              000                           
0010001300201T 0601897X0000000092096 24778822230003866   700000000000386622122023000000000047484341000090000003866                0900000000000010100000000000000000000000000000000000000   000000000000000000000000004        170192477882     
0010001300202U 060000000000000000000000000000000000000000000000000000000000000000000000474840000000000474840000000000000000000000000000002212202326122023            000000000000000                              000                           
0010001300203T 0601897X0000000092096 24778822230003872   700000000000387222122023000000000102661001031496000003872                0900000000000010090000000000000000000000000000000000000   000000000000000000000000006        170192477882     
0010001300204U 060000000000000000000000000000000000000000000000000000000000000000000001026610000000001026610000000000000000000000000000002212202326122023            000000000000000                              000                           
0010001300205T 0601897X0000000092096 24778822230003884   700000000000388422122023000000001745542033002850000003884                0900000000000010100000000000000000000000000000000000000   000000000000000000000000004        170192477882     
0010001300206U 060000000000000000000000000000000000000000000000000000000000000000000017455420000000017455420000000000000000000000000000002212202326122023            000000000000000                              000                           
0010001300207T 0601897X0000000092096 24778822230003896   700000000000389622122023000000001234498033002850000003896                0900000000000010100000000000000000000000000000000000000   000000000000000000000000004        170192477882     
0010001300208U 060000000000000000000000000000000000000000000000000000000000000000000012344980000000012344980000000000000000000000000000002212202326122023            000000000000000                              000                           
0010001300209T 0601897X0000000092096 24778822230003902   700000000000390222122023000000002120758001045659000003902                0900000000000010040000000000000000000000000000000000000   000000000000000000000000034        170192477882     
0010001300210U 060000000000000000000000000000000000000000000000000000000000000000000021207580000000021207580000000000000000000000000000002212202326122023            000000000000000                              000                           
0010001300211T 0601897X0000000092096 24778822230003908   700000000000390822122023000000000099541748053610000003908                0900000000000010100000000000000000000000000000000000000   000000000000000000000000004        170192477882     
0010001300212U 060000000000000000000000000000000000000000000000000000000000000000000000995410000000000995410000000000000000000000000000002212202326122023            000000000000000                              000                           
0010001300213T 0601897X0000000092096 24778822230003938   700000000000393822122023000000000022608341000500000003938                0900000000000010100000000000000000000000000000000000000   000000000000000000000000004        170192477882     
0010001300214U 060000000000000000000000000000000000000000000000000000000000000000000000226080000000000226080000000000000000000000000000002212202326122023            000000000000000                              000                           
0010001300215T 0601897X0000000092096 24778822230003944   700000000000394422122023000000004473533341002320000003944                0900000000000010100000000000000000000000000000000000000   000000000000000000000000004        170192477882     
0010001300216U 060000000000000000000000000000000000000000000000000000000000000000000044735330000000044735330000000000000000000000000000002212202326122023            000000000000000                              000                           
0010001300217T 0601897X0000000092096 24778822230003950   700000000000395022122023000000000037818341002100000003950                0900000000000010100000000000000000000000000000000000000   000000000000000000000000004        170192477882     
0010001300218U 060000000000000000000000000000000000000000000000000000000000000000000000378180000000000378180000000000000000000000000000002212202326122023            000000000000000                              000                           
0010001300219T 0601897X0000000092096 24778822230003956   700000000000395622122023000000002490428104029090000003956                0900000000000010100000000000000000000000000000000000000   000000000000000000000000004        170192477882     
0010001300220U 060000000000000000000000000000000000000000000000000000000000000000000024904280000000024904280000000000000000000000000000002212202326122023            000000000000000                              000                           
0010001300221T 0601897X0000000092096 24778822230003974   700000000000397422122023000000000021081033003030000003974                0900000000000010100000000000000000000000000000000000000   000000000000000000000000004        170192477882     
0010001300222U 060000000000000000000000000000000000000000000000000000000000000000000000210810000000000210810000000000000000000000000000002212202326122023            000000000000000                              000                           
0010001300223T 0601897X0000000092096 24778822230003980   700000000000398022122023000000004465043104030800000003980                0900000000000010100000000000000000000000000000000000000   000000000000000000000000004        170192477882     
0010001300224U 060000000000000000000000000000000000000000000000000000000000000000000044650430000000044650430000000000000000000000000000002212202326122023            000000000000000                              000                           
0010001300225T 0601897X0000000092096 24778822230003986   700000000000398622122023000000000065859341000280000003986                0900000000000010100000000000000000000000000000000000000   000000000000000000000000004        170192477882     
0010001300226U 060000000000000000000000000000000000000000000000000000000000000000000000658590000000000658590000000000000000000000000000002212202326122023            000000000000000                              000                           
0010001300227T 0601897X0000000092096 24778822230003992   700000000000399222122023000000000091464237019700000003992                0900000000000010100000000000000000000000000000000000000   000000000000000000000000004        170192477882     
0010001300228U 060000000000000000000000000000000000000000000000000000000000000000000000914640000000000914640000000000000000000000000000002212202326122023            000000000000000                              000                           
0010001300229T 0601897X0000000092096 24778822230003998   700000000000399822122023000000000039090237029350000003998                0900000000000010100000000000000000000000000000000000000   000000000000000000000000004        170192477882     
0010001300230U 060000000000000000000000000000000000000000000000000000000000000000000000390900000000000390900000000000000000000000000000002212202326122023            000000000000000                              000                           
0010001300231T 0601897X0000000092096 24778822230004004   700000000000400422122023000000004818236001020125000004004                0900000000000010040000000000000000000000000000000000000   000000000000000000000000034        170192477882     
0010001300232U 060000000000000000000000000000000000000000000000000000000000000000000048182360000000048182360000000000000000000000000000002212202326122023            000000000000000                              000                           
0010001300233T 0601897X0000000092096 24778822230004010   700000000000401022122023000000000058553748054150000004010                0900000000000010100000000000000000000000000000000000000   000000000000000000000000004        170192477882     
0010001300234U 060000000000000000000000000000000000000000000000000000000000000000000000585530000000000585530000000000000000000000000000002212202326122023            000000000000000                              000                           
0010001300235T 0601897X0000000092096 24778822230004022   700000000000402222122023000000000297762001030708000004022                0900000000000010090000000000000000000000000000000000000   000000000000000000000000006        170192477882     
0010001300236U 060000000000000000000000000000000000000000000000000000000000000000000002977620000000002977620000000000000000000000000000002212202326122023            000000000000000                              000                           
0010001300237T 0601897X0000000092096 24778822230004028   700000000000402822122023000000000105978001030708000004028                0900000000000010090000000000000000000000000000000000000   000000000000000000000000006        170192477882     
0010001300238U 060000000000000000000000000000000000000000000000000000000000000000000001059780000000001059780000000000000000000000000000002212202326122023            000000000000000                              000                           
0010001300239T 0601897X0000000092096 24778822230004034   700000000000403422122023000000000213908001030708000004034                0900000000000010090000000000000000000000000000000000000   000000000000000000000000006        170192477882     
0010001300240U 060000000000000000000000000000000000000000000000000000000000000000000002139080000000002139080000000000000000000000000000002212202326122023            000000000000000                              000                           
0010001300241T 0601897X0000000092096 24778822230004040   700000000000404022122023000000000119956341004450000004040                0900000000000010100000000000000000000000000000000000000   000000000000000000000000004        170192477882     
0010001300242U 060000000000000000000000000000000000000000000000000000000000000000000001199560000000001199560000000000000000000000000000002212202326122023            000000000000000                              000                           
0010001300243T 0601897X0000000092096 24778822230004046   700000000000404622122023000000001549582033002850000004046                0900000000000010100000000000000000000000000000000000000   000000000000000000000000004        170192477882     
0010001300244U 060000000000000000000000000000000000000000000000000000000000000000000015495820000000015495820000000000000000000000000000002212202326122023            000000000000000                              000                           
0010001300245T 0601897X0000000092096 24778822230004052   700000000000405222122023000000000029803341002790000004052                0900000000000010100000000000000000000000000000000000000   000000000000000000000000004        170192477882     
0010001300246U 060000000000000000000000000000000000000000000000000000000000000000000000298030000000000298030000000000000000000000000000002212202326122023            000000000000000                              000                           
0010001300247T 0601897X0000000092096 24778822230004064   700000000000406422122023000000000576568341000140000004064                0900000000000010100000000000000000000000000000000000000   000000000000000000000000004        170192477882     
0010001300248U 060000000000000000000000000000000000000000000000000000000000000000000005765680000000005765680000000000000000000000000000002212202326122023            000000000000000                              000                           
0010001300249T 0601897X0000000092096 24778822230004076   700000000000407622122023000000000092217001030708000004076                0900000000000010090000000000000000000000000000000000000   000000000000000000000000006        170192477882     
0010001300250U 060000000000000000000000000000000000000000000000000000000000000000000000922170000000000922170000000000000000000000000000002212202326122023            000000000000000                              000                           
0010001300251T 0601897X0000000092096 24778822230004088   700000000000408822122023000000000278129001030708000004088                0900000000000010090000000000000000000000000000000000000   000000000000000000000000006        170192477882     
0010001300252U 060000000000000000000000000000000000000000000000000000000000000000000002781290000000002781290000000000000000000000000000002212202326122023            000000000000000                              000                           
0010001300253T 0601897X0000000092096 24778822230004094   700000000000409422122023000000000184621422000510000004094                0900000000000010100000000000000000000000000000000000000   000000000000000000000000004        170192477882     
0010001300254U 060000000000000000000000000000000000000000000000000000000000000000000001846210000000001846210000000000000000000000000000002212202326122023            000000000000000                              000                           
0010001300255T 0601897X0000000092096 24778822230004100   700000000000410022122023000000001927788001030708000004100                0900000000000010090000000000000000000000000000000000000   000000000000000000000000006        170192477882     
0010001300256U 060000000000000000000000000000000000000000000000000000000000000000000019277880000000019277880000000000000000000000000000002212202326122023            000000000000000                              000                           
0010001300257T 0601897X0000000092096 24778822230004106   700000000000410622122023000000000931878001030708000004106                0900000000000010090000000000000000000000000000000000000   000000000000000000000000006        170192477882     
0010001300258U 060000000000000000000000000000000000000000000000000000000000000000000009318780000000009318780000000000000000000000000000002212202326122023            000000000000000                              000                           
0010001300259T 0601897X0000000092096 24778822230004112   700000000000411222122023000000000509040001030708000004112                0900000000000010090000000000000000000000000000000000000   000000000000000000000000006        170192477882     
0010001300260U 060000000000000000000000000000000000000000000000000000000000000000000005090400000000005090400000000000000000000000000000002212202326122023            000000000000000                              000                           
0010001300261T 0601897X0000000092096 24778822230004118   700000000000411822122023000000000381866001030708000004118                0900000000000010090000000000000000000000000000000000000   000000000000000000000000006        170192477882     
0010001300262U 060000000000000000000000000000000000000000000000000000000000000000000003818660000000003818660000000000000000000000000000002212202326122023            000000000000000                              000                           
0010001300263T 0601897X0000000092096 24778822230004124   700000000000412422122023000000000071079001030708000004124                0900000000000010090000000000000000000000000000000000000   000000000000000000000000006        170192477882     
0010001300264U 060000000000000000000000000000000000000000000000000000000000000000000000710790000000000710790000000000000000000000000000002212202326122023            000000000000000                              000                           
0010001300265T 0601897X0000000092096 24778822230004130   700000000000413022122023000000003234945001030708000004130                0900000000000010090000000000000000000000000000000000000   000000000000000000000000006        170192477882     
0010001300266U 060000000000000000000000000000000000000000000000000000000000000000000032349450000000032349450000000000000000000000000000002212202326122023            000000000000000                              000                           
0010001300267T 0601897X0000000092096 24778822230004136   700000000000413622122023000000000153825001030708000004136                0900000000000010090000000000000000000000000000000000000   000000000000000000000000006        170192477882     
0010001300268U 060000000000000000000000000000000000000000000000000000000000000000000001538250000000001538250000000000000000000000000000002212202326122023            000000000000000                              000                           
0010001300269T 0601897X0000000092096 24778822230004142   700000000000414222122023000000000955293001030708000004142                0900000000000010090000000000000000000000000000000000000   000000000000000000000000006        170192477882     
0010001300270U 060000000000000000000000000000000000000000000000000000000000000000000009552930000000009552930000000000000000000000000000002212202326122023            000000000000000                              000                           
0010001300271T 0601897X0000000092096 24778822230004148   700000000000414822122023000000000515311001030708000004148                0900000000000010090000000000000000000000000000000000000   000000000000000000000000006        170192477882     
0010001300272U 060000000000000000000000000000000000000000000000000000000000000000000005153110000000005153110000000000000000000000000000002212202326122023            000000000000000                              000                           
0010001300273T 0601897X0000000092096 24778822230004154   700000000000415422122023000000001249814001030708000004154                0900000000000010090000000000000000000000000000000000000   000000000000000000000000006        170192477882     
0010001300274U 060000000000000000000000000000000000000000000000000000000000000000000012498140000000012498140000000000000000000000000000002212202326122023            000000000000000                              000                           
0010001300275T 0601897X0000000092096 24778822230004160   700000000000416022122023000000000184981001030708000004160                0900000000000010090000000000000000000000000000000000000   000000000000000000000000006        170192477882     
0010001300276U 060000000000000000000000000000000000000000000000000000000000000000000001849810000000001849810000000000000000000000000000002212202326122023            000000000000000                              000                           
0010001300277T 0601897X0000000092096 24778822230004166   700000000000416622122023000000000254788237033710000004166                0900000000000010100000000000000000000000000000000000000   000000000000000000000000004        170192477882     
0010001300278U 060000000000000000000000000000000000000000000000000000000000000000000002547880000000002547880000000000000000000000000000002212202326122023            000000000000000                              000                           
0010001300279T 0601897X0000000092096 24778822230004178   700000000000417822122023000000014404596341000190000004178                0900000000000010100000000000000000000000000000000000000   000000000000000000000000004        170192477882     
0010001300280U 060000000000000000000000000000000000000000000000000000000000000000000144045960000000144045960000000000000000000000000000002212202326122023            000000000000000                              000                           
0010001300281T 0601897X0000000092096 24778822230004196   700000000000419622122023000000000036937237023740000004196                0900000000000010100000000000000000000000000000000000000   000000000000000000000000004        170192477882     
0010001300282U 060000000000000000000000000000000000000000000000000000000000000000000000369370000000000369370000000000000000000000000000002212202326122023            000000000000000                              000                           
0010001300283T 0601897X0000000092096 24778822230004202   700000000000420222122023000000000214933033033160000004202                0900000000000010100000000000000000000000000000000000000   000000000000000000000000004        170192477882     
0010001300284U 060000000000000000000000000000000000000000000000000000000000000000000002149330000000002149330000000000000000000000000000002212202326122023            000000000000000                              000                           
0010001300285T 0601897X0000000092096 24778822230004208   700000000000420822122023000000000269113341000170000004208                0900000000000010100000000000000000000000000000000000000   000000000000000000000000004        170192477882     
0010001300286U 060000000000000000000000000000000000000000000000000000000000000000000002691130000000002691130000000000000000000000000000002212202326122023            000000000000000                              000                           
0010001300287T 0601897X0000000092096 24778822230004214   700000000000421422122023000000000049272001003190000004214                0900000000000010040000000000000000000000000000000000000   000000000000000000000000034        170192477882     
0010001300288U 060000000000000000000000000000000000000000000000000000000000000000000000492720000000000492720000000000000000000000000000002212202326122023            000000000000000                              000                           
0010001300289T 0601897X0000000092096 24778822230004220   700000000000422022122023000000000022950341080460000004220                0900000000000010100000000000000000000000000000000000000   000000000000000000000000004        170192477882     
0010001300290U 060000000000000000000000000000000000000000000000000000000000000000000000229500000000000229500000000000000000000000000000002212202326122023            000000000000000                              000                           
0010001300291T 0601897X0000000092096 24778822230004226   700000000000422622122023000000000092953237033930000004226                0900000000000010100000000000000000000000000000000000000   000000000000000000000000004        170192477882     
0010001300292U 060000000000000000000000000000000000000000000000000000000000000000000000929530000000000929530000000000000000000000000000002212202326122023            000000000000000                              000                           
0010001300293T 0601897X0000000092096 24778822230004244   700000000000424422122023000000053724828001030708000004244                0900000000000010090000000000000000000000000000000000000   000000000000000000000000006        170192477882     
0010001300294U 060000000000000000000000000000000000000000000000000000000000000000000537248280000000537248280000000000000000000000000000002212202326122023            000000000000000                              000                           
0010001300295T 0601897X0000000092096 24778822230004250   700000000000425022122023000000002023879001030708000004250                0900000000000010090000000000000000000000000000000000000   000000000000000000000000006        170192477882     
0010001300296U 060000000000000000000000000000000000000000000000000000000000000000000020238790000000020238790000000000000000000000000000002212202326122023            000000000000000                              000                           
0010001300297T 0601897X0000000092096 24778822230004262   700000000000426222122023000000000211147341009100000004262                0900000000000010100000000000000000000000000000000000000   000000000000000000000000004        170192477882     
0010001300298U 060000000000000000000000000000000000000000000000000000000000000000000002111470000000002111470000000000000000000000000000002212202326122023            000000000000000                              000                           
0010001300299T 0601897X0000000092096 24778822230004268   700000000000426822122023000000000112715001034002000004268                0900000000000010040000000000000000000000000000000000000   000000000000000000000000034        170192477882     
0010001300300U 060000000000000000000000000000000000000000000000000000000000000000000001127150000000001127150000000000000000000000000000002212202326122023            000000000000000                              000                           
0010001300301T 0601897X0000000092096 24778822230004280   700000000000428022122023000000001685347001030708000004280                0900000000000010090000000000000000000000000000000000000   000000000000000000000000006        170192477882     
0010001300302U 060000000000000000000000000000000000000000000000000000000000000000000016853470000000016853470000000000000000000000000000002212202326122023            000000000000000                              000                           
0010001300303T 0601897X0000000092096 24778822230004316   700000000000431622122023000000000026581001031496000004316                0900000000000010040000000000000000000000000000000000000   000000000000000000000000034        170192477882     
0010001300304U 060000000000000000000000000000000000000000000000000000000000000000000000265810000000000265810000000000000000000000000000002212202326122023            000000000000000                              000                           
0010001300305T 0601897X0000000092096 24778822230004322   700000000000432222122023000000000072090033037440000004322                0900000000000010100000000000000000000000000000000000000   000000000000000000000000004        170192477882     
0010001300306U 060000000000000000000000000000000000000000000000000000000000000000000000720900000000000720900000000000000000000000000000002212202326122023            000000000000000                              000                           
0010001300307T 0601897X0000000092096 24778822230004334   700000000000433422122023000000000133638001030813000004334                0900000000000010090000000000000000000000000000000000000   000000000000000000000000006        170192477882     
0010001300308U 060000000000000000000000000000000000000000000000000000000000000000000001336380000000001336380000000000000000000000000000002212202326122023            000000000000000                              000                           
0010001300309T 0601897X0000000092096 24778822230004340   700000000000434022122023000000000036596237004760000004340                0900000000000010100000000000000000000000000000000000000   000000000000000000000000004        170192477882     
0010001300310U 060000000000000000000000000000000000000000000000000000000000000000000000365960000000000365960000000000000000000000000000002212202326122023            000000000000000                              000                           
0010001300311T 0601897X0000000092096 24778822230004346   700000000000434622122023000000000121879001031410000004346                0900000000000010010000000000000000000000000000000000000   000000000000000000000000032        170192477882     
0010001300312U 060000000000000000000000000000000000000000000000000000000000000000000001218790000000001218790000000000000000000000000000002212202326122023            000000000000000                              000                           
0010001300313T 0601897X0000000092096 24778822230004352   700000000000435222122023000000000052554341029290000004352                0900000000000010100000000000000000000000000000000000000   000000000000000000000000004        170192477882     
0010001300314U 060000000000000000000000000000000000000000000000000000000000000000000000525540000000000525540000000000000000000000000000002212202326122023            000000000000000                              000                           
0010001300315T 0601897X0000000092096 24778822230004364   700000000000436422122023000000000039487341000500000004364                0900000000000010100000000000000000000000000000000000000   000000000000000000000000004        170192477882     
0010001300316U 060000000000000000000000000000000000000000000000000000000000000000000000394870000000000394870000000000000000000000000000002212202326122023            000000000000000                              000                           
0010001300317T 0601897X0000000092096 24778822230004382   700000000000438222122023000000000086922237005200000004382                0900000000000010100000000000000000000000000000000000000   000000000000000000000000004        170192477882     
0010001300318U 060000000000000000000000000000000000000000000000000000000000000000000000869220000000000869220000000000000000000000000000002212202326122023            000000000000000                              000                           
0010001300319T 0601897X0000000092096 24778822230004388   700000000000438822122023000000000230152237005200000004388                0900000000000010100000000000000000000000000000000000000   000000000000000000000000004        170192477882     
0010001300320U 060000000000000000000000000000000000000000000000000000000000000000000002301520000000002301520000000000000000000000000000002212202326122023            000000000000000                              000                           
0010001300321T 0601897X0000000092096 24778822230004394   700000000000439422122023000000000287843237005200000004394                0900000000000010100000000000000000000000000000000000000   000000000000000000000000004        170192477882     
0010001300322U 060000000000000000000000000000000000000000000000000000000000000000000002878430000000002878430000000000000000000000000000002212202326122023            000000000000000                              000                           
0010001300323T 0601897X0000000092096 24778822230004406   700000000000440622122023000000000058249341000410000004406                0900000000000010100000000000000000000000000000000000000   000000000000000000000000004        170192477882     
0010001300324U 060000000000000000000000000000000000000000000000000000000000000000000000582490000000000582490000000000000000000000000000002212202326122023            000000000000000                              000                           
0010001300325T 0601897X0000000092096 24778822230004418   700000000000441822122023000000001129234274000010000004418                0900000000000010100000000000000000000000000000000000000   000000000000000000000000004        170192477882     
0010001300326U 060000000000000000000000000000000000000000000000000000000000000000000011292340000000011292340000000000000000000000000000002212202326122023            000000000000000                              000                           
0010001300327T 0601897X0000000092096 24778822230004424   700000000000442422122023000000000043915341001900000004424                0900000000000010100000000000000000000000000000000000000   000000000000000000000000004        170192477882     
0010001300328U 060000000000000000000000000000000000000000000000000000000000000000000000439150000000000439150000000000000000000000000000002212202326122023            000000000000000                              000                           
0010001300329T 0601897X0000000092096 24778822230004430   700000000000443022122023000000000048575748052180000004430                0900000000000010100000000000000000000000000000000000000   000000000000000000000000004        170192477882     
0010001300330U 060000000000000000000000000000000000000000000000000000000000000000000000485750000000000485750000000000000000000000000000002212202326122023            000000000000000                              000                           
0010001300331T 0601897X0000000092096 24778822230004448   700000000000444822122023000000000060379237002150000004448                0900000000000010100000000000000000000000000000000000000   000000000000000000000000004        170192477882     
0010001300332U 060000000000000000000000000000000000000000000000000000000000000000000000603790000000000603790000000000000000000000000000002212202326122023            000000000000000                              000                           
0010001300333T 0601897X0000000092096 24778822230004454   700000000000445422122023000000000021345509000010000004454                0900000000000010100000000000000000000000000000000000000   000000000000000000000000004        170192477882     
0010001300334U 060000000000000000000000000000000000000000000000000000000000000000000000213450000000000213450000000000000000000000000000002212202326122023            000000000000000                              000                           
0010001300335T 0601897X0000000092096 24778822230004466   700000000000446622122023000000000023717104003340000004466                0900000000000010100000000000000000000000000000000000000   000000000000000000000000004        170192477882     
0010001300336U 060000000000000000000000000000000000000000000000000000000000000000000000237170000000000237170000000000000000000000000000002212202326122023            000000000000000                              000                           
0010001300337T 0601897X0000000092096 24778822230004472   700000000000447222122023000000000035242341085770000004472                0900000000000010100000000000000000000000000000000000000   000000000000000000000000004        170192477882     
0010001300338U 060000000000000000000000000000000000000000000000000000000000000000000000352420000000000352420000000000000000000000000000002212202326122023            000000000000000                              000                           
0010001300339T 0601897X0000000092096 24778822230004490   700000000000449022122023000000000427324033030640000004490                0900000000000010100000000000000000000000000000000000000   000000000000000000000000004        170192477882     
0010001300340U 060000000000000000000000000000000000000000000000000000000000000000000004273240000000004273240000000000000000000000000000002212202326122023            000000000000000                              000                           
0010001300341T 0601897X0000000092096 24778822230004496   700000000000449622122023000000000021003341088490000004496                0900000000000010100000000000000000000000000000000000000   000000000000000000000000004        170192477882     
0010001300342U 060000000000000000000000000000000000000000000000000000000000000000000000210030000000000210030000000000000000000000000000002212202326122023            000000000000000                              000                           
0010001300343T 0601897X0000000092096 24778822230004514   700000000000451422122023000000000062627001030813000004514                0900000000000010090000000000000000000000000000000000000   000000000000000000000000006        170192477882     
0010001300344U 060000000000000000000000000000000000000000000000000000000000000000000000626270000000000626270000000000000000000000000000002212202326122023            000000000000000                              000                           
0010001300345T 0601897X0000000092096 24778822230004538   700000000000453822122023000000000099053756075860000004538                0900000000000010100000000000000000000000000000000000000   000000000000000000000000004        170192477882     
0010001300346U 060000000000000000000000000000000000000000000000000000000000000000000000990530000000000990530000000000000000000000000000002212202326122023            000000000000000                              000                           
0010001300347T 0601897X0000000092096 24778822230004544   700000000000454422122023000000000020386341000140000004544                0900000000000010100000000000000000000000000000000000000   000000000000000000000000004        170192477882     
0010001300348U 060000000000000000000000000000000000000000000000000000000000000000000000203860000000000203860000000000000000000000000000002212202326122023            000000000000000                              000                           
0010001300349T 0601897X0000000092096 24778822230004550   700000000000455022122023000000000046355341005600000004550                0900000000000010100000000000000000000000000000000000000   000000000000000000000000004        170192477882     
0010001300350U 060000000000000000000000000000000000000000000000000000000000000000000000463550000000000463550000000000000000000000000000002212202326122023            000000000000000                              000                           
0010001300351T 0601897X0000000092096 24778822230004556   700000000000455622122023000000000050478001030708000004556                0900000000000010090000000000000000000000000000000000000   000000000000000000000000006        170192477882     
0010001300352U 060000000000000000000000000000000000000000000000000000000000000000000000504780000000000504780000000000000000000000000000002212202326122023            000000000000000                              000                           
0010001300353T 0601897X0000000092096 24778822230004562   700000000000456222122023000000000045044237033670000004562                0900000000000010100000000000000000000000000000000000000   000000000000000000000000004        170192477882     
0010001300354U 060000000000000000000000000000000000000000000000000000000000000000000000450440000000000450440000000000000000000000000000002212202326122023            000000000000000                              000                           
0010001300355T 0601897X0000000092096 24778822230004568   700000000000456822122023000000000044009341015630000004568                0900000000000010100000000000000000000000000000000000000   000000000000000000000000004        170192477882     
0010001300356U 060000000000000000000000000000000000000000000000000000000000000000000000440090000000000440090000000000000000000000000000002212202326122023            000000000000000                              000                           
0010001300357T 0601897X0000000092096 24778822230004586   700000000000458622122023000000001092641341000540000004586                0900000000000010100000000000000000000000000000000000000   000000000000000000000000004        170192477882     
0010001300358U 060000000000000000000000000000000000000000000000000000000000000000000010926410000000010926410000000000000000000000000000002212202326122023            000000000000000                              000                           
0010001300359T 0601897X0000000092096 24778822230004598   700000000000459822122023000000000052594341001640000004598                0900000000000010100000000000000000000000000000000000000   000000000000000000000000004        170192477882     
0010001300360U 060000000000000000000000000000000000000000000000000000000000000000000000525940000000000525940000000000000000000000000000002212202326122023            000000000000000                              000                           
0010001300361T 0601897X0000000092096 24778822230004616   700000000000461622122023000000000121688341016190000004616                0900000000000010100000000000000000000000000000000000000   000000000000000000000000004        170192477882     
0010001300362U 060000000000000000000000000000000000000000000000000000000000000000000001216880000000001216880000000000000000000000000000002212202326122023            000000000000000                              000                           
0010001300363T 0601897X0000000092096 24778822230004628   700000000000462822122023000000000041475341000070000004628                0900000000000010100000000000000000000000000000000000000   000000000000000000000000004        170192477882     
0010001300364U 060000000000000000000000000000000000000000000000000000000000000000000000414750000000000414750000000000000000000000000000002212202326122023            000000000000000                              000                           
0010001300365T 0601897X0000000092096 24778822230004634   700000000000463422122023000000000099004001031496000004634                0900000000000010040000000000000000000000000000000000000   000000000000000000000000034        170192477882     
0010001300366U 060000000000000000000000000000000000000000000000000000000000000000000000990040000000000990040000000000000000000000000000002212202326122023            000000000000000                              000                           
0010001300367T 0601897X0000000092096 24778822230004640   700000000000464022122023000000000033651237016380000004640                0900000000000010100000000000000000000000000000000000000   000000000000000000000000004        170192477882     
0010001300368U 060000000000000000000000000000000000000000000000000000000000000000000000336510000000000336510000000000000000000000000000002212202326122023            000000000000000                              000                           
0010001300369T 0601897X0000000092096 24778822230004646   700000000000464622122023000000000028505341080460000004646                0900000000000010100000000000000000000000000000000000000   000000000000000000000000004        170192477882     
0010001300370U 060000000000000000000000000000000000000000000000000000000000000000000000285050000000000285050000000000000000000000000000002212202326122023            000000000000000                              000                           
0010001300371T 0601897X0000000092096 24778822230004652   700000000000465222122023000000000051034341026330000004652                0900000000000010100000000000000000000000000000000000000   000000000000000000000000004        170192477882     
0010001300372U 060000000000000000000000000000000000000000000000000000000000000000000000510340000000000510340000000000000000000000000000002212202326122023            000000000000000                              000                           
0010001300373T 0601897X0000000092096 24778822230004664   700000000000466422122023000000000036911237033940000004664                0900000000000010100000000000000000000000000000000000000   000000000000000000000000004        170192477882     
0010001300374U 060000000000000000000000000000000000000000000000000000000000000000000000369110000000000369110000000000000000000000000000002212202326122023            000000000000000                              000                           
0010001300375T 0601897X0000000092096 24778822230004670   700000000000467022122023000000000021079033035840000004670                0900000000000010100000000000000000000000000000000000000   000000000000000000000000004        170192477882     
0010001300376U 060000000000000000000000000000000000000000000000000000000000000000000000210790000000000210790000000000000000000000000000002212202326122023            000000000000000                              000                           
0010001300377T 0601897X0000000092096 24778822230004676   700000000000467622122023000000000024827341000500000004676                0900000000000010100000000000000000000000000000000000000   000000000000000000000000004        170192477882     
0010001300378U 060000000000000000000000000000000000000000000000000000000000000000000000248270000000000248270000000000000000000000000000002212202326122023            000000000000000                              000                           
0010001300379T 0601897X0000000092096 24778822230004700   700000000000470022122023000000000060995341009100000004700                0900000000000010100000000000000000000000000000000000000   000000000000000000000000004        170192477882     
0010001300380U 060000000000000000000000000000000000000000000000000000000000000000000000609950000000000609950000000000000000000000000000002212202326122023            000000000000000                              000                           
0010001300381T 0601897X0000000092096 24778822230004706   700000000000470622122023000000000048865341026330000004706                0900000000000010100000000000000000000000000000000000000   000000000000000000000000004        170192477882     
0010001300382U 060000000000000000000000000000000000000000000000000000000000000000000000488650000000000488650000000000000000000000000000002212202326122023            000000000000000                              000                           
0010001300383T 0601897X0000000092096 24778822230004754   700000000000475422122023000000000057487001007994000004754                0900000000000010040000000000000000000000000000000000000   000000000000000000000000034        170192477882     
0010001300384U 060000000000000000000000000000000000000000000000000000000000000000000000574870000000000574870000000000000000000000000000002212202326122023            000000000000000                              000                           
0010001300385T 0601897X0000000092096 24778822230004766   700000000000476622122023000000000079648033003210000004766                0900000000000010100000000000000000000000000000000000000   000000000000000000000000004        170192477882     
0010001300386U 060000000000000000000000000000000000000000000000000000000000000000000000796480000000000796480000000000000000000000000000002212202326122023            000000000000000                              000                           
0010001300387T 0601897X0000000092096 24778822230004772   700000000000477222122023000000000040012341018740000004772                0900000000000010100000000000000000000000000000000000000   000000000000000000000000004        170192477882     
0010001300388U 060000000000000000000000000000000000000000000000000000000000000000000000400120000000000400120000000000000000000000000000002212202326122023            000000000000000                              000                           
0010001300389T 0601897X0000000092096 24778822230004784   700000000000478422122023000000000044279033001440000004784                0900000000000010100000000000000000000000000000000000000   000000000000000000000000004        170192477882     
0010001300390U 060000000000000000000000000000000000000000000000000000000000000000000000442790000000000442790000000000000000000000000000002212202326122023            000000000000000                              000                           
0010001300391T 0601897X0000000092096 24778822230004796   700000000000479622122023000000000102068341000780000004796                0900000000000010100000000000000000000000000000000000000   000000000000000000000000004        170192477882     
0010001300392U 060000000000000000000000000000000000000000000000000000000000000000000001020680000000001020680000000000000000000000000000002212202326122023            000000000000000                              000                           
0010001300393T 0601897X0000000092096 24778822230004802   700000000000480222122023000000000108005237035050000004802                0900000000000010100000000000000000000000000000000000000   000000000000000000000000004        170192477882     
0010001300394U 060000000000000000000000000000000000000000000000000000000000000000000001080050000000001080050000000000000000000000000000002212202326122023            000000000000000                              000                           
0010001300395T 0601897X0000000092096 24778822230004808   700000000000480822122023000000000033352341006660000004808                0900000000000010100000000000000000000000000000000000000   000000000000000000000000004        170192477882     
0010001300396U 060000000000000000000000000000000000000000000000000000000000000000000000333520000000000333520000000000000000000000000000002212202326122023            000000000000000                              000                           
0010001300397T 0601897X0000000092096 24778822230004814   700000000000481422122023000000000071392341007340000004814                0900000000000010100000000000000000000000000000000000000   000000000000000000000000004        170192477882     
0010001300398U 060000000000000000000000000000000000000000000000000000000000000000000000713920000000000713920000000000000000000000000000002212202326122023            000000000000000                              000                           
0010001300399T 0601897X0000000092096 24778822230004838   700000000000483822122023000000000024885001030813000004838                0900000000000010040000000000000000000000000000000000000   000000000000000000000000034        170192477882     
0010001300400U 060000000000000000000000000000000000000000000000000000000000000000000000248850000000000248850000000000000000000000000000002212202326122023            000000000000000                              000                           
0010001300401T 0601897X0000000092096 24778822230004844   700000000000484422122023000000000028106341016190000004844                0900000000000010100000000000000000000000000000000000000   000000000000000000000000004        170192477882     
0010001300402U 060000000000000000000000000000000000000000000000000000000000000000000000281060000000000281060000000000000000000000000000002212202326122023            000000000000000                              000                           
0010001300403T 0601897X0000000092096 24778822230004850   700000000000485022122023000000000038675104029680000004850                0900000000000010100000000000000000000000000000000000000   000000000000000000000000004        170192477882     
0010001300404U 060000000000000000000000000000000000000000000000000000000000000000000000386750000000000386750000000000000000000000000000002212202326122023            000000000000000                              000                           
0010001300405T 0601897X0000000092096 24778822230004886   700000000000488622122023000000000033968237033960000004886                0900000000000010100000000000000000000000000000000000000   000000000000000000000000004        170192477882     
0010001300406U 060000000000000000000000000000000000000000000000000000000000000000000000339680000000000339680000000000000000000000000000002212202326122023            000000000000000                              000                           
0010001300407T 0601897X0000000092096 24778822230004892   700000000000489222122023000000000082951341000140000004892                0900000000000010100000000000000000000000000000000000000   000000000000000000000000004        170192477882     
0010001300408U 060000000000000000000000000000000000000000000000000000000000000000000000829510000000000829510000000000000000000000000000002212202326122023            000000000000000                              000                           
0010001300409T 0601897X0000000092096 24778822230004904   700000000000490422122023000000000025667341001360000004904                0900000000000010100000000000000000000000000000000000000   000000000000000000000000004        170192477882     
0010001300410U 060000000000000000000000000000000000000000000000000000000000000000000000256670000000000256670000000000000000000000000000002212202326122023            000000000000000                              000                           
0010001300411T 0601897X0000000092096 24778822230004910   700000000000491022122023000000000137232208000010000004910                0900000000000010100000000000000000000000000000000000000   000000000000000000000000004        170192477882     
0010001300412U 060000000000000000000000000000000000000000000000000000000000000000000001372320000000001372320000000000000000000000000000002212202326122023            000000000000000                              000                           
